{
	"contracts/Governance/Reputation.sol": {
		"Reputation": {
			"abi": [
				{
					"inputs": [
						{
							"internalType": "address",
							"name": "_initialOwner",
							"type": "address"
						},
						{
							"internalType": "address",
							"name": "_userIdentityAddress",
							"type": "address"
						}
					],
					"stateMutability": "nonpayable",
					"type": "constructor"
				},
				{
					"inputs": [
						{
							"internalType": "address",
							"name": "owner",
							"type": "address"
						}
					],
					"name": "OwnableInvalidOwner",
					"type": "error"
				},
				{
					"inputs": [
						{
							"internalType": "address",
							"name": "account",
							"type": "address"
						}
					],
					"name": "OwnableUnauthorizedAccount",
					"type": "error"
				},
				{
					"anonymous": false,
					"inputs": [
						{
							"indexed": true,
							"internalType": "address",
							"name": "newAuthority",
							"type": "address"
						}
					],
					"name": "AuthorityUpdated",
					"type": "event"
				},
				{
					"anonymous": false,
					"inputs": [
						{
							"indexed": true,
							"internalType": "address",
							"name": "previousOwner",
							"type": "address"
						},
						{
							"indexed": true,
							"internalType": "address",
							"name": "newOwner",
							"type": "address"
						}
					],
					"name": "OwnershipTransferred",
					"type": "event"
				},
				{
					"anonymous": false,
					"inputs": [
						{
							"indexed": true,
							"internalType": "address",
							"name": "rater",
							"type": "address"
						},
						{
							"indexed": true,
							"internalType": "address",
							"name": "ratee",
							"type": "address"
						},
						{
							"indexed": false,
							"internalType": "uint256",
							"name": "score",
							"type": "uint256"
						}
					],
					"name": "RatingSubmitted",
					"type": "event"
				},
				{
					"inputs": [],
					"name": "owner",
					"outputs": [
						{
							"internalType": "address",
							"name": "",
							"type": "address"
						}
					],
					"stateMutability": "view",
					"type": "function"
				},
				{
					"inputs": [],
					"name": "projectAuthority",
					"outputs": [
						{
							"internalType": "address",
							"name": "",
							"type": "address"
						}
					],
					"stateMutability": "view",
					"type": "function"
				},
				{
					"inputs": [],
					"name": "renounceOwnership",
					"outputs": [],
					"stateMutability": "nonpayable",
					"type": "function"
				},
				{
					"inputs": [
						{
							"internalType": "address",
							"name": "_authority",
							"type": "address"
						}
					],
					"name": "setProjectAuthority",
					"outputs": [],
					"stateMutability": "nonpayable",
					"type": "function"
				},
				{
					"inputs": [
						{
							"internalType": "address",
							"name": "_rater",
							"type": "address"
						},
						{
							"internalType": "address",
							"name": "_ratee",
							"type": "address"
						},
						{
							"internalType": "uint256",
							"name": "_score",
							"type": "uint256"
						}
					],
					"name": "submitRating",
					"outputs": [],
					"stateMutability": "nonpayable",
					"type": "function"
				},
				{
					"inputs": [
						{
							"internalType": "address",
							"name": "newOwner",
							"type": "address"
						}
					],
					"name": "transferOwnership",
					"outputs": [],
					"stateMutability": "nonpayable",
					"type": "function"
				},
				{
					"inputs": [],
					"name": "userIdentity",
					"outputs": [
						{
							"internalType": "contract IUserIdentity",
							"name": "",
							"type": "address"
						}
					],
					"stateMutability": "view",
					"type": "function"
				}
			],
			"devdoc": {
				"errors": {
					"OwnableInvalidOwner(address)": [
						{
							"details": "The owner is not a valid owner account. (eg. `address(0)`)"
						}
					],
					"OwnableUnauthorizedAccount(address)": [
						{
							"details": "The caller account is not authorized to perform an operation."
						}
					]
				},
				"kind": "dev",
				"methods": {
					"owner()": {
						"details": "Returns the address of the current owner."
					},
					"renounceOwnership()": {
						"details": "Leaves the contract without owner. It will not be possible to call `onlyOwner` functions. Can only be called by the current owner. NOTE: Renouncing ownership will leave the contract without an owner, thereby disabling any functionality that is only available to the owner."
					},
					"transferOwnership(address)": {
						"details": "Transfers ownership of the contract to a new account (`newOwner`). Can only be called by the current owner."
					}
				},
				"version": 1
			},
			"evm": {
				"assembly": "    /* \"contracts/Governance/Reputation.sol\":156:1496  contract Reputation is Ownable {... */\n  mstore(0x40, 0xa0)\n    /* \"contracts/Governance/Reputation.sol\":430:573  constructor(address _initialOwner, address _userIdentityAddress) Ownable(_initialOwner) { userIdentity = IUserIdentity(_userIdentityAddress); } */\n  callvalue\n  dup1\n  iszero\n  tag_1\n  jumpi\n  revert(0x00, 0x00)\ntag_1:\n  pop\n  mload(0x40)\n  sub(codesize, bytecodeSize)\n  dup1\n  bytecodeSize\n  dup4\n  codecopy\n  dup2\n  add\n  0x40\n  dup2\n  swap1\n  mstore\n  tag_2\n  swap2\n  tag_3\n  jump\t// in\ntag_2:\n    /* \"contracts/Governance/Reputation.sol\":503:516  _initialOwner */\n  dup2\n  sub(shl(0xa0, 0x01), 0x01)\n    /* \"@openzeppelin/contracts/access/Ownable.sol\":1273:1299  initialOwner == address(0) */\n  dup2\n  and\n    /* \"@openzeppelin/contracts/access/Ownable.sol\":1269:1364  if (initialOwner == address(0)) {... */\n  tag_7\n  jumpi\n    /* \"@openzeppelin/contracts/access/Ownable.sol\":1322:1353  OwnableInvalidOwner(address(0)) */\n  mload(0x40)\n  shl(0xe0, 0x1e4fbdf7)\n  dup2\n  mstore\n    /* \"@openzeppelin/contracts/access/Ownable.sol\":1350:1351  0 */\n  0x00\n    /* \"@openzeppelin/contracts/access/Ownable.sol\":1322:1353  OwnableInvalidOwner(address(0)) */\n  0x04\n  dup3\n  add\n    /* \"#utility.yul\":640:691   */\n  mstore\n    /* \"#utility.yul\":613:631   */\n  0x24\n  add\n    /* \"@openzeppelin/contracts/access/Ownable.sol\":1322:1353  OwnableInvalidOwner(address(0)) */\n  mload(0x40)\n  dup1\n  swap2\n  sub\n  swap1\n  revert\n    /* \"@openzeppelin/contracts/access/Ownable.sol\":1269:1364  if (initialOwner == address(0)) {... */\ntag_7:\n    /* \"@openzeppelin/contracts/access/Ownable.sol\":1373:1405  _transferOwnership(initialOwner) */\n  tag_10\n    /* \"@openzeppelin/contracts/access/Ownable.sol\":1392:1404  initialOwner */\n  dup2\n    /* \"@openzeppelin/contracts/access/Ownable.sol\":1373:1391  _transferOwnership */\n  tag_11\n    /* \"@openzeppelin/contracts/access/Ownable.sol\":1373:1405  _transferOwnership(initialOwner) */\n  jump\t// in\ntag_10:\n  pop\n  sub(shl(0xa0, 0x01), 0x01)\n    /* \"contracts/Governance/Reputation.sol\":520:570  userIdentity = IUserIdentity(_userIdentityAddress) */\n  and\n  0x80\n  mstore\n  pop\n    /* \"contracts/Governance/Reputation.sol\":156:1496  contract Reputation is Ownable {... */\n  jump(tag_16)\n    /* \"@openzeppelin/contracts/access/Ownable.sol\":2912:3099  function _transferOwnership(address newOwner) internal virtual {... */\ntag_11:\n    /* \"@openzeppelin/contracts/access/Ownable.sol\":2985:3001  address oldOwner */\n  0x00\n    /* \"@openzeppelin/contracts/access/Ownable.sol\":3004:3010  _owner */\n  dup1\n  sload\n  sub(shl(0xa0, 0x01), 0x01)\n    /* \"@openzeppelin/contracts/access/Ownable.sol\":3020:3037  _owner = newOwner */\n  dup4\n  dup2\n  and\n  not(sub(shl(0xa0, 0x01), 0x01))\n  dup4\n  and\n  dup2\n  or\n  dup5\n  sstore\n    /* \"@openzeppelin/contracts/access/Ownable.sol\":3052:3092  OwnershipTransferred(oldOwner, newOwner) */\n  mload(0x40)\n    /* \"@openzeppelin/contracts/access/Ownable.sol\":3004:3010  _owner */\n  swap2\n  swap1\n  swap3\n  and\n  swap3\n  dup4\n  swap2\n    /* \"@openzeppelin/contracts/access/Ownable.sol\":3052:3092  OwnershipTransferred(oldOwner, newOwner) */\n  0x8be0079c531659141344cd1fd0a4f28419497f9722a3daafe3b4186f6b6457e0\n  swap2\n    /* \"@openzeppelin/contracts/access/Ownable.sol\":2985:3001  address oldOwner */\n  swap1\n    /* \"@openzeppelin/contracts/access/Ownable.sol\":3052:3092  OwnershipTransferred(oldOwner, newOwner) */\n  log3\n    /* \"@openzeppelin/contracts/access/Ownable.sol\":2975:3099  {... */\n  pop\n    /* \"@openzeppelin/contracts/access/Ownable.sol\":2912:3099  function _transferOwnership(address newOwner) internal virtual {... */\n  pop\n  jump\t// out\n    /* \"#utility.yul\":14:191   */\ntag_15:\n    /* \"#utility.yul\":93:106   */\n  dup1\n  mload\n  sub(shl(0xa0, 0x01), 0x01)\n    /* \"#utility.yul\":135:166   */\n  dup2\n  and\n    /* \"#utility.yul\":125:167   */\n  dup2\n  eq\n    /* \"#utility.yul\":115:185   */\n  tag_18\n  jumpi\n    /* \"#utility.yul\":181:182   */\n  0x00\n    /* \"#utility.yul\":178:179   */\n  0x00\n    /* \"#utility.yul\":171:183   */\n  revert\n    /* \"#utility.yul\":115:185   */\ntag_18:\n    /* \"#utility.yul\":14:191   */\n  swap2\n  swap1\n  pop\n  jump\t// out\n    /* \"#utility.yul\":196:489   */\ntag_3:\n    /* \"#utility.yul\":275:281   */\n  0x00\n    /* \"#utility.yul\":283:289   */\n  0x00\n    /* \"#utility.yul\":336:338   */\n  0x40\n    /* \"#utility.yul\":324:333   */\n  dup4\n    /* \"#utility.yul\":315:322   */\n  dup6\n    /* \"#utility.yul\":311:334   */\n  sub\n    /* \"#utility.yul\":307:339   */\n  slt\n    /* \"#utility.yul\":304:356   */\n  iszero\n  tag_20\n  jumpi\n    /* \"#utility.yul\":352:353   */\n  0x00\n    /* \"#utility.yul\":349:350   */\n  0x00\n    /* \"#utility.yul\":342:354   */\n  revert\n    /* \"#utility.yul\":304:356   */\ntag_20:\n    /* \"#utility.yul\":375:415   */\n  tag_21\n    /* \"#utility.yul\":405:414   */\n  dup4\n    /* \"#utility.yul\":375:415   */\n  tag_15\n  jump\t// in\ntag_21:\n    /* \"#utility.yul\":365:415   */\n  swap2\n  pop\n    /* \"#utility.yul\":434:483   */\n  tag_22\n    /* \"#utility.yul\":479:481   */\n  0x20\n    /* \"#utility.yul\":468:477   */\n  dup5\n    /* \"#utility.yul\":464:482   */\n  add\n    /* \"#utility.yul\":434:483   */\n  tag_15\n  jump\t// in\ntag_22:\n    /* \"#utility.yul\":424:483   */\n  swap1\n  pop\n    /* \"#utility.yul\":196:489   */\n  swap3\n  pop\n  swap3\n  swap1\n  pop\n  jump\t// out\n    /* \"#utility.yul\":494:697   */\ntag_16:\n    /* \"contracts/Governance/Reputation.sol\":156:1496  contract Reputation is Ownable {... */\n  mload(0x80)\n  codecopy(0x00, dataOffset(sub_0), dataSize(sub_0))\n  0x00\n  assignImmutable(\"0xb7700257a9e4b89511ea592d7ef488a6959d733cec4df010484e5af3e427a407\")\n  return(0x00, dataSize(sub_0))\nstop\n\nsub_0: assembly {\n        /* \"contracts/Governance/Reputation.sol\":156:1496  contract Reputation is Ownable {... */\n      mstore(0x40, 0x80)\n      callvalue\n      dup1\n      iszero\n      tag_1\n      jumpi\n      revert(0x00, 0x00)\n    tag_1:\n      pop\n      jumpi(tag_2, lt(calldatasize, 0x04))\n      shr(0xe0, calldataload(0x00))\n      dup1\n      0x8da5cb5b\n      gt\n      tag_10\n      jumpi\n      dup1\n      0x8da5cb5b\n      eq\n      tag_6\n      jumpi\n      dup1\n      0xb0087cfa\n      eq\n      tag_7\n      jumpi\n      dup1\n      0xe6007bed\n      eq\n      tag_8\n      jumpi\n      dup1\n      0xf2fde38b\n      eq\n      tag_9\n      jumpi\n      revert(0x00, 0x00)\n    tag_10:\n      dup1\n      0x0139746c\n      eq\n      tag_3\n      jumpi\n      dup1\n      0x5435029a\n      eq\n      tag_4\n      jumpi\n      dup1\n      0x715018a6\n      eq\n      tag_5\n      jumpi\n    tag_2:\n      revert(0x00, 0x00)\n        /* \"contracts/Governance/Reputation.sol\":1356:1493  function setProjectAuthority(address _authority) external onlyOwner { projectAuthority = _authority; emit AuthorityUpdated(_authority); } */\n    tag_3:\n      tag_11\n      tag_12\n      calldatasize\n      0x04\n      tag_13\n      jump\t// in\n    tag_12:\n      tag_14\n      jump\t// in\n    tag_11:\n      stop\n        /* \"contracts/Governance/Reputation.sol\":698:1350  function submitRating(address _rater, address _ratee, uint256 _score) external onlyAuthorized {... */\n    tag_4:\n      tag_11\n      tag_16\n      calldatasize\n      0x04\n      tag_17\n      jump\t// in\n    tag_16:\n      tag_18\n      jump\t// in\n        /* \"@openzeppelin/contracts/access/Ownable.sol\":2293:2394  function renounceOwnership() public virtual onlyOwner {... */\n    tag_5:\n      tag_11\n      tag_20\n      jump\t// in\n        /* \"@openzeppelin/contracts/access/Ownable.sol\":1638:1723  function owner() public view virtual returns (address) {... */\n    tag_6:\n        /* \"@openzeppelin/contracts/access/Ownable.sol\":1684:1691  address */\n      0x00\n        /* \"@openzeppelin/contracts/access/Ownable.sol\":1710:1716  _owner */\n      sload\n      sub(shl(0xa0, 0x01), 0x01)\n      and\n        /* \"@openzeppelin/contracts/access/Ownable.sol\":1638:1723  function owner() public view virtual returns (address) {... */\n    tag_21:\n      mload(0x40)\n      sub(shl(0xa0, 0x01), 0x01)\n        /* \"#utility.yul\":1027:1059   */\n      swap1\n      swap2\n      and\n        /* \"#utility.yul\":1009:1060   */\n      dup2\n      mstore\n        /* \"#utility.yul\":997:999   */\n      0x20\n        /* \"#utility.yul\":982:1000   */\n      add\n        /* \"@openzeppelin/contracts/access/Ownable.sol\":1638:1723  function owner() public view virtual returns (address) {... */\n      mload(0x40)\n      dup1\n      swap2\n      sub\n      swap1\n      return\n        /* \"contracts/Governance/Reputation.sol\":244:275  address public projectAuthority */\n    tag_7:\n      sload(0x01)\n      tag_21\n      swap1\n      sub(shl(0xa0, 0x01), 0x01)\n      and\n      dup2\n      jump\n        /* \"contracts/Governance/Reputation.sol\":194:237  IUserIdentity public immutable userIdentity */\n    tag_8:\n      tag_21\n      immutable(\"0xb7700257a9e4b89511ea592d7ef488a6959d733cec4df010484e5af3e427a407\")\n      dup2\n      jump\n        /* \"@openzeppelin/contracts/access/Ownable.sol\":2543:2758  function transferOwnership(address newOwner) public virtual onlyOwner {... */\n    tag_9:\n      tag_11\n      tag_33\n      calldatasize\n      0x04\n      tag_13\n      jump\t// in\n    tag_33:\n      tag_34\n      jump\t// in\n        /* \"contracts/Governance/Reputation.sol\":1356:1493  function setProjectAuthority(address _authority) external onlyOwner { projectAuthority = _authority; emit AuthorityUpdated(_authority); } */\n    tag_14:\n        /* \"@openzeppelin/contracts/access/Ownable.sol\":1531:1544  _checkOwner() */\n      tag_36\n        /* \"@openzeppelin/contracts/access/Ownable.sol\":1531:1542  _checkOwner */\n      tag_37\n        /* \"@openzeppelin/contracts/access/Ownable.sol\":1531:1544  _checkOwner() */\n      jump\t// in\n    tag_36:\n        /* \"contracts/Governance/Reputation.sol\":1426:1442  projectAuthority */\n      0x01\n        /* \"contracts/Governance/Reputation.sol\":1426:1455  projectAuthority = _authority */\n      dup1\n      sload\n      not(sub(shl(0xa0, 0x01), 0x01))\n      and\n      sub(shl(0xa0, 0x01), 0x01)\n      dup4\n      and\n      swap1\n      dup2\n      or\n      swap1\n      swap2\n      sstore\n        /* \"contracts/Governance/Reputation.sol\":1462:1490  AuthorityUpdated(_authority) */\n      mload(0x40)\n      0x2f658b440c35314f52658ea8a740e05b284cdc84dc9ae01e891f21b8933e7cad\n      swap1\n      0x00\n      swap1\n      log2\n        /* \"contracts/Governance/Reputation.sol\":1356:1493  function setProjectAuthority(address _authority) external onlyOwner { projectAuthority = _authority; emit AuthorityUpdated(_authority); } */\n      pop\n      jump\t// out\n        /* \"contracts/Governance/Reputation.sol\":698:1350  function submitRating(address _rater, address _ratee, uint256 _score) external onlyAuthorized {... */\n    tag_18:\n        /* \"contracts/Governance/Reputation.sol\":629:645  projectAuthority */\n      and(sub(shl(0xa0, 0x01), 0x01), sload(0x01))\n        /* \"contracts/Governance/Reputation.sol\":615:625  msg.sender */\n      caller\n        /* \"contracts/Governance/Reputation.sol\":615:645  msg.sender == projectAuthority */\n      eq\n        /* \"contracts/Governance/Reputation.sol\":607:686  require(msg.sender == projectAuthority, \"Reputation: Not an authorized caller\") */\n      tag_40\n      jumpi\n      mload(0x40)\n      shl(0xe5, 0x461bcd)\n      dup2\n      mstore\n        /* \"#utility.yul\":1502:1504   */\n      0x20\n        /* \"contracts/Governance/Reputation.sol\":607:686  require(msg.sender == projectAuthority, \"Reputation: Not an authorized caller\") */\n      0x04\n      dup3\n      add\n        /* \"#utility.yul\":1484:1505   */\n      mstore\n        /* \"#utility.yul\":1541:1543   */\n      0x24\n        /* \"#utility.yul\":1521:1539   */\n      dup1\n      dup3\n      add\n        /* \"#utility.yul\":1514:1544   */\n      mstore\n        /* \"#utility.yul\":1580:1614   */\n      0x52657075746174696f6e3a204e6f7420616e20617574686f72697a6564206361\n        /* \"#utility.yul\":1560:1578   */\n      0x44\n      dup3\n      add\n        /* \"#utility.yul\":1553:1615   */\n      mstore\n      shl(0xe1, 0x363632b9)\n        /* \"#utility.yul\":1631:1649   */\n      0x64\n      dup3\n      add\n        /* \"#utility.yul\":1624:1658   */\n      mstore\n        /* \"#utility.yul\":1675:1694   */\n      0x84\n      add\n        /* \"contracts/Governance/Reputation.sol\":607:686  require(msg.sender == projectAuthority, \"Reputation: Not an authorized caller\") */\n    tag_41:\n      mload(0x40)\n      dup1\n      swap2\n      sub\n      swap1\n      revert\n    tag_40:\n        /* \"contracts/Governance/Reputation.sol\":821:822  1 */\n      0x01\n        /* \"contracts/Governance/Reputation.sol\":811:817  _score */\n      dup2\n        /* \"contracts/Governance/Reputation.sol\":811:822  _score >= 1 */\n      lt\n      iszero\n        /* \"contracts/Governance/Reputation.sol\":811:837  _score >= 1 && _score <= 5 */\n      dup1\n      iszero\n      tag_44\n      jumpi\n      pop\n        /* \"contracts/Governance/Reputation.sol\":836:837  5 */\n      0x05\n        /* \"contracts/Governance/Reputation.sol\":826:832  _score */\n      dup2\n        /* \"contracts/Governance/Reputation.sol\":826:837  _score <= 5 */\n      gt\n      iszero\n        /* \"contracts/Governance/Reputation.sol\":811:837  _score >= 1 && _score <= 5 */\n    tag_44:\n        /* \"contracts/Governance/Reputation.sol\":803:883  require(_score >= 1 && _score <= 5, \"Reputation: Score must be between 1 and 5\") */\n      tag_45\n      jumpi\n      mload(0x40)\n      shl(0xe5, 0x461bcd)\n      dup2\n      mstore\n        /* \"#utility.yul\":1907:1909   */\n      0x20\n        /* \"contracts/Governance/Reputation.sol\":803:883  require(_score >= 1 && _score <= 5, \"Reputation: Score must be between 1 and 5\") */\n      0x04\n      dup3\n      add\n        /* \"#utility.yul\":1889:1910   */\n      mstore\n        /* \"#utility.yul\":1946:1948   */\n      0x29\n        /* \"#utility.yul\":1926:1944   */\n      0x24\n      dup3\n      add\n        /* \"#utility.yul\":1919:1949   */\n      mstore\n        /* \"#utility.yul\":1985:2019   */\n      0x52657075746174696f6e3a2053636f7265206d75737420626520626574776565\n        /* \"#utility.yul\":1965:1983   */\n      0x44\n      dup3\n      add\n        /* \"#utility.yul\":1958:2020   */\n      mstore\n      shl(0xb8, 0x6e203120616e642035)\n        /* \"#utility.yul\":2036:2054   */\n      0x64\n      dup3\n      add\n        /* \"#utility.yul\":2029:2068   */\n      mstore\n        /* \"#utility.yul\":2085:2104   */\n      0x84\n      add\n        /* \"contracts/Governance/Reputation.sol\":803:883  require(_score >= 1 && _score <= 5, \"Reputation: Score must be between 1 and 5\") */\n      tag_41\n        /* \"#utility.yul\":1705:2110   */\n      jump\n        /* \"contracts/Governance/Reputation.sol\":803:883  require(_score >= 1 && _score <= 5, \"Reputation: Score must be between 1 and 5\") */\n    tag_45:\n        /* \"contracts/Governance/Reputation.sol\":937:968  userIdentity.getProfile(_ratee) */\n      mload(0x40)\n      shl(0xe4, 0xf53a47)\n      dup2\n      mstore\n      sub(shl(0xa0, 0x01), 0x01)\n        /* \"#utility.yul\":1027:1059   */\n      dup4\n      dup2\n      and\n        /* \"contracts/Governance/Reputation.sol\":937:968  userIdentity.getProfile(_ratee) */\n      0x04\n      dup4\n      add\n        /* \"#utility.yul\":1009:1060   */\n      mstore\n        /* \"contracts/Governance/Reputation.sol\":894:934  IUserIdentity.UserProfile memory profile */\n      0x00\n      swap2\n        /* \"contracts/Governance/Reputation.sol\":937:949  userIdentity */\n      immutable(\"0xb7700257a9e4b89511ea592d7ef488a6959d733cec4df010484e5af3e427a407\")\n        /* \"contracts/Governance/Reputation.sol\":937:960  userIdentity.getProfile */\n      swap1\n      swap2\n      and\n      swap1\n      0x0f53a470\n      swap1\n        /* \"#utility.yul\":982:1000   */\n      0x24\n      add\n        /* \"contracts/Governance/Reputation.sol\":937:968  userIdentity.getProfile(_ratee) */\n      0x00\n      mload(0x40)\n      dup1\n      dup4\n      sub\n      dup2\n      dup7\n      gas\n      staticcall\n      iszero\n      dup1\n      iszero\n      tag_50\n      jumpi\n      returndatacopy(0x00, 0x00, returndatasize)\n      revert(0x00, returndatasize)\n    tag_50:\n      pop\n      pop\n      pop\n      pop\n      mload(0x40)\n      returndatasize\n      0x00\n      dup3\n      returndatacopy\n      0x1f\n      returndatasize\n      swap1\n      dup2\n      add\n      not(0x1f)\n      and\n      dup3\n      add\n      0x40\n      mstore\n      tag_51\n      swap2\n      swap1\n      dup2\n      add\n      swap1\n      tag_52\n      jump\t// in\n    tag_51:\n        /* \"contracts/Governance/Reputation.sol\":894:968  IUserIdentity.UserProfile memory profile = userIdentity.getProfile(_ratee) */\n      swap1\n      pop\n        /* \"contracts/Governance/Reputation.sol\":979:998  uint256 scaledScore */\n      0x00\n        /* \"contracts/Governance/Reputation.sol\":1001:1013  _score * 100 */\n      tag_53\n        /* \"contracts/Governance/Reputation.sol\":1001:1007  _score */\n      dup4\n        /* \"contracts/Governance/Reputation.sol\":1010:1013  100 */\n      0x64\n        /* \"contracts/Governance/Reputation.sol\":1001:1013  _score * 100 */\n      tag_54\n      jump\t// in\n    tag_53:\n        /* \"contracts/Governance/Reputation.sol\":979:1013  uint256 scaledScore = _score * 100 */\n      swap1\n      pop\n        /* \"contracts/Governance/Reputation.sol\":1015:1031  uint256 newScore */\n      0x00\n        /* \"contracts/Governance/Reputation.sol\":1046:1053  profile */\n      dup3\n        /* \"contracts/Governance/Reputation.sol\":1046:1071  profile.projectsCompleted */\n      0xa0\n      add\n      mload\n        /* \"contracts/Governance/Reputation.sol\":1075:1076  0 */\n      0x00\n        /* \"contracts/Governance/Reputation.sol\":1046:1076  profile.projectsCompleted == 0 */\n      sub\n        /* \"contracts/Governance/Reputation.sol\":1042:1230  if (profile.projectsCompleted == 0) { newScore = scaledScore; } else { newScore = ((profile.reputationScore * profile.projectsCompleted) + scaledScore) / (profile.projectsCompleted + 1); } */\n      tag_55\n      jumpi\n      pop\n        /* \"contracts/Governance/Reputation.sol\":1091:1102  scaledScore */\n      dup1\n        /* \"contracts/Governance/Reputation.sol\":1042:1230  if (profile.projectsCompleted == 0) { newScore = scaledScore; } else { newScore = ((profile.reputationScore * profile.projectsCompleted) + scaledScore) / (profile.projectsCompleted + 1); } */\n      jump(tag_56)\n    tag_55:\n        /* \"contracts/Governance/Reputation.sol\":1197:1222  profile.projectsCompleted */\n      0xa0\n      dup4\n      add\n      mload\n        /* \"contracts/Governance/Reputation.sol\":1197:1226  profile.projectsCompleted + 1 */\n      tag_57\n      swap1\n        /* \"contracts/Governance/Reputation.sol\":1225:1226  1 */\n      0x01\n        /* \"contracts/Governance/Reputation.sol\":1197:1226  profile.projectsCompleted + 1 */\n      tag_58\n      jump\t// in\n    tag_57:\n        /* \"contracts/Governance/Reputation.sol\":1181:1192  scaledScore */\n      dup3\n        /* \"contracts/Governance/Reputation.sol\":1152:1159  profile */\n      dup5\n        /* \"contracts/Governance/Reputation.sol\":1152:1177  profile.projectsCompleted */\n      0xa0\n      add\n      mload\n        /* \"contracts/Governance/Reputation.sol\":1126:1133  profile */\n      dup6\n        /* \"contracts/Governance/Reputation.sol\":1126:1149  profile.reputationScore */\n      0x80\n      add\n      mload\n        /* \"contracts/Governance/Reputation.sol\":1126:1177  profile.reputationScore * profile.projectsCompleted */\n      tag_59\n      swap2\n      swap1\n      tag_54\n      jump\t// in\n    tag_59:\n        /* \"contracts/Governance/Reputation.sol\":1125:1192  (profile.reputationScore * profile.projectsCompleted) + scaledScore */\n      tag_60\n      swap2\n      swap1\n      tag_58\n      jump\t// in\n    tag_60:\n        /* \"contracts/Governance/Reputation.sol\":1124:1227  ((profile.reputationScore * profile.projectsCompleted) + scaledScore) / (profile.projectsCompleted + 1) */\n      tag_61\n      swap2\n      swap1\n      tag_62\n      jump\t// in\n    tag_61:\n        /* \"contracts/Governance/Reputation.sol\":1113:1227  newScore = ((profile.reputationScore * profile.projectsCompleted) + scaledScore) / (profile.projectsCompleted + 1) */\n      swap1\n      pop\n        /* \"contracts/Governance/Reputation.sol\":1042:1230  if (profile.projectsCompleted == 0) { newScore = scaledScore; } else { newScore = ((profile.reputationScore * profile.projectsCompleted) + scaledScore) / (profile.projectsCompleted + 1); } */\n    tag_56:\n        /* \"contracts/Governance/Reputation.sol\":1240:1287  userIdentity.updateReputation(_ratee, newScore) */\n      mload(0x40)\n      shl(0xe3, 0x1eb92341)\n      dup2\n      mstore\n      sub(shl(0xa0, 0x01), 0x01)\n        /* \"#utility.yul\":5669:5701   */\n      dup7\n      dup2\n      and\n        /* \"contracts/Governance/Reputation.sol\":1240:1287  userIdentity.updateReputation(_ratee, newScore) */\n      0x04\n      dup4\n      add\n        /* \"#utility.yul\":5651:5702   */\n      mstore\n        /* \"#utility.yul\":5718:5736   */\n      0x24\n      dup3\n      add\n        /* \"#utility.yul\":5711:5745   */\n      dup4\n      swap1\n      mstore\n        /* \"contracts/Governance/Reputation.sol\":1240:1252  userIdentity */\n      immutable(\"0xb7700257a9e4b89511ea592d7ef488a6959d733cec4df010484e5af3e427a407\")\n        /* \"contracts/Governance/Reputation.sol\":1240:1269  userIdentity.updateReputation */\n      and\n      swap1\n      0xf5c91a08\n      swap1\n        /* \"#utility.yul\":5624:5642   */\n      0x44\n      add\n        /* \"contracts/Governance/Reputation.sol\":1240:1287  userIdentity.updateReputation(_ratee, newScore) */\n      0x00\n      mload(0x40)\n      dup1\n      dup4\n      sub\n      dup2\n      0x00\n      dup8\n      dup1\n      extcodesize\n      iszero\n      dup1\n      iszero\n      tag_65\n      jumpi\n      revert(0x00, 0x00)\n    tag_65:\n      pop\n      gas\n      call\n      iszero\n      dup1\n      iszero\n      tag_67\n      jumpi\n      returndatacopy(0x00, 0x00, returndatasize)\n      revert(0x00, returndatasize)\n    tag_67:\n      pop\n      pop\n      pop\n      pop\n        /* \"contracts/Governance/Reputation.sol\":1327:1333  _ratee */\n      dup5\n      sub(shl(0xa0, 0x01), 0x01)\n        /* \"contracts/Governance/Reputation.sol\":1303:1342  RatingSubmitted(_rater, _ratee, _score) */\n      and\n        /* \"contracts/Governance/Reputation.sol\":1319:1325  _rater */\n      dup7\n      sub(shl(0xa0, 0x01), 0x01)\n        /* \"contracts/Governance/Reputation.sol\":1303:1342  RatingSubmitted(_rater, _ratee, _score) */\n      and\n      0xdcba9448b55b807611f7e3ece24acdc6afaec1d8c5a16f3e70c571758f606654\n        /* \"contracts/Governance/Reputation.sol\":1335:1341  _score */\n      dup7\n        /* \"contracts/Governance/Reputation.sol\":1303:1342  RatingSubmitted(_rater, _ratee, _score) */\n      mload(0x40)\n      tag_68\n      swap2\n        /* \"#utility.yul\":5902:5927   */\n      dup2\n      mstore\n        /* \"#utility.yul\":5890:5892   */\n      0x20\n        /* \"#utility.yul\":5875:5893   */\n      add\n      swap1\n        /* \"#utility.yul\":5756:5933   */\n      jump\n        /* \"contracts/Governance/Reputation.sol\":1303:1342  RatingSubmitted(_rater, _ratee, _score) */\n    tag_68:\n      mload(0x40)\n      dup1\n      swap2\n      sub\n      swap1\n      log3\n        /* \"contracts/Governance/Reputation.sol\":792:1350  {... */\n      pop\n      pop\n      pop\n        /* \"contracts/Governance/Reputation.sol\":698:1350  function submitRating(address _rater, address _ratee, uint256 _score) external onlyAuthorized {... */\n      pop\n      pop\n      pop\n      jump\t// out\n        /* \"@openzeppelin/contracts/access/Ownable.sol\":2293:2394  function renounceOwnership() public virtual onlyOwner {... */\n    tag_20:\n        /* \"@openzeppelin/contracts/access/Ownable.sol\":1531:1544  _checkOwner() */\n      tag_71\n        /* \"@openzeppelin/contracts/access/Ownable.sol\":1531:1542  _checkOwner */\n      tag_37\n        /* \"@openzeppelin/contracts/access/Ownable.sol\":1531:1544  _checkOwner() */\n      jump\t// in\n    tag_71:\n        /* \"@openzeppelin/contracts/access/Ownable.sol\":2357:2387  _transferOwnership(address(0)) */\n      tag_73\n        /* \"@openzeppelin/contracts/access/Ownable.sol\":2384:2385  0 */\n      0x00\n        /* \"@openzeppelin/contracts/access/Ownable.sol\":2357:2375  _transferOwnership */\n      tag_74\n        /* \"@openzeppelin/contracts/access/Ownable.sol\":2357:2387  _transferOwnership(address(0)) */\n      jump\t// in\n    tag_73:\n        /* \"@openzeppelin/contracts/access/Ownable.sol\":2293:2394  function renounceOwnership() public virtual onlyOwner {... */\n      jump\t// out\n        /* \"@openzeppelin/contracts/access/Ownable.sol\":2543:2758  function transferOwnership(address newOwner) public virtual onlyOwner {... */\n    tag_34:\n        /* \"@openzeppelin/contracts/access/Ownable.sol\":1531:1544  _checkOwner() */\n      tag_77\n        /* \"@openzeppelin/contracts/access/Ownable.sol\":1531:1542  _checkOwner */\n      tag_37\n        /* \"@openzeppelin/contracts/access/Ownable.sol\":1531:1544  _checkOwner() */\n      jump\t// in\n    tag_77:\n      sub(shl(0xa0, 0x01), 0x01)\n        /* \"@openzeppelin/contracts/access/Ownable.sol\":2627:2649  newOwner == address(0) */\n      dup2\n      and\n        /* \"@openzeppelin/contracts/access/Ownable.sol\":2623:2714  if (newOwner == address(0)) {... */\n      tag_79\n      jumpi\n        /* \"@openzeppelin/contracts/access/Ownable.sol\":2672:2703  OwnableInvalidOwner(address(0)) */\n      mload(0x40)\n      shl(0xe0, 0x1e4fbdf7)\n      dup2\n      mstore\n        /* \"@openzeppelin/contracts/access/Ownable.sol\":2700:2701  0 */\n      0x00\n        /* \"@openzeppelin/contracts/access/Ownable.sol\":2672:2703  OwnableInvalidOwner(address(0)) */\n      0x04\n      dup3\n      add\n        /* \"#utility.yul\":1009:1060   */\n      mstore\n        /* \"#utility.yul\":982:1000   */\n      0x24\n      add\n        /* \"@openzeppelin/contracts/access/Ownable.sol\":2672:2703  OwnableInvalidOwner(address(0)) */\n      tag_41\n        /* \"#utility.yul\":863:1066   */\n      jump\n        /* \"@openzeppelin/contracts/access/Ownable.sol\":2623:2714  if (newOwner == address(0)) {... */\n    tag_79:\n        /* \"@openzeppelin/contracts/access/Ownable.sol\":2723:2751  _transferOwnership(newOwner) */\n      tag_81\n        /* \"@openzeppelin/contracts/access/Ownable.sol\":2742:2750  newOwner */\n      dup2\n        /* \"@openzeppelin/contracts/access/Ownable.sol\":2723:2741  _transferOwnership */\n      tag_74\n        /* \"@openzeppelin/contracts/access/Ownable.sol\":2723:2751  _transferOwnership(newOwner) */\n      jump\t// in\n    tag_81:\n        /* \"@openzeppelin/contracts/access/Ownable.sol\":2543:2758  function transferOwnership(address newOwner) public virtual onlyOwner {... */\n      pop\n      jump\t// out\n        /* \"@openzeppelin/contracts/access/Ownable.sol\":1796:1958  function _checkOwner() internal view virtual {... */\n    tag_37:\n        /* \"@openzeppelin/contracts/access/Ownable.sol\":1684:1691  address */\n      0x00\n        /* \"@openzeppelin/contracts/access/Ownable.sol\":1710:1716  _owner */\n      sload\n      sub(shl(0xa0, 0x01), 0x01)\n      and\n        /* \"@openzeppelin/contracts/utils/Context.sol\":735:745  msg.sender */\n      caller\n        /* \"@openzeppelin/contracts/access/Ownable.sol\":1855:1878  owner() != _msgSender() */\n      eq\n        /* \"@openzeppelin/contracts/access/Ownable.sol\":1851:1952  if (owner() != _msgSender()) {... */\n      tag_73\n      jumpi\n        /* \"@openzeppelin/contracts/access/Ownable.sol\":1901:1941  OwnableUnauthorizedAccount(_msgSender()) */\n      mload(0x40)\n      shl(0xe0, 0x118cdaa7)\n      dup2\n      mstore\n        /* \"@openzeppelin/contracts/utils/Context.sol\":735:745  msg.sender */\n      caller\n        /* \"@openzeppelin/contracts/access/Ownable.sol\":1901:1941  OwnableUnauthorizedAccount(_msgSender()) */\n      0x04\n      dup3\n      add\n        /* \"#utility.yul\":1009:1060   */\n      mstore\n        /* \"#utility.yul\":982:1000   */\n      0x24\n      add\n        /* \"@openzeppelin/contracts/access/Ownable.sol\":1901:1941  OwnableUnauthorizedAccount(_msgSender()) */\n      tag_41\n        /* \"#utility.yul\":863:1066   */\n      jump\n        /* \"@openzeppelin/contracts/access/Ownable.sol\":2912:3099  function _transferOwnership(address newOwner) internal virtual {... */\n    tag_74:\n        /* \"@openzeppelin/contracts/access/Ownable.sol\":2985:3001  address oldOwner */\n      0x00\n        /* \"@openzeppelin/contracts/access/Ownable.sol\":3004:3010  _owner */\n      dup1\n      sload\n      sub(shl(0xa0, 0x01), 0x01)\n        /* \"@openzeppelin/contracts/access/Ownable.sol\":3020:3037  _owner = newOwner */\n      dup4\n      dup2\n      and\n      not(sub(shl(0xa0, 0x01), 0x01))\n      dup4\n      and\n      dup2\n      or\n      dup5\n      sstore\n        /* \"@openzeppelin/contracts/access/Ownable.sol\":3052:3092  OwnershipTransferred(oldOwner, newOwner) */\n      mload(0x40)\n        /* \"@openzeppelin/contracts/access/Ownable.sol\":3004:3010  _owner */\n      swap2\n      swap1\n      swap3\n      and\n      swap3\n      dup4\n      swap2\n        /* \"@openzeppelin/contracts/access/Ownable.sol\":3052:3092  OwnershipTransferred(oldOwner, newOwner) */\n      0x8be0079c531659141344cd1fd0a4f28419497f9722a3daafe3b4186f6b6457e0\n      swap2\n        /* \"@openzeppelin/contracts/access/Ownable.sol\":2985:3001  address oldOwner */\n      swap1\n        /* \"@openzeppelin/contracts/access/Ownable.sol\":3052:3092  OwnershipTransferred(oldOwner, newOwner) */\n      log3\n        /* \"@openzeppelin/contracts/access/Ownable.sol\":2975:3099  {... */\n      pop\n        /* \"@openzeppelin/contracts/access/Ownable.sol\":2912:3099  function _transferOwnership(address newOwner) internal virtual {... */\n      pop\n      jump\t// out\n        /* \"#utility.yul\":14:145   */\n    tag_91:\n      sub(shl(0xa0, 0x01), 0x01)\n        /* \"#utility.yul\":89:120   */\n      dup2\n      and\n        /* \"#utility.yul\":79:121   */\n      dup2\n      eq\n        /* \"#utility.yul\":69:139   */\n      tag_81\n      jumpi\n        /* \"#utility.yul\":135:136   */\n      0x00\n        /* \"#utility.yul\":132:133   */\n      0x00\n        /* \"#utility.yul\":125:137   */\n      revert\n        /* \"#utility.yul\":150:397   */\n    tag_13:\n        /* \"#utility.yul\":209:215   */\n      0x00\n        /* \"#utility.yul\":262:264   */\n      0x20\n        /* \"#utility.yul\":250:259   */\n      dup3\n        /* \"#utility.yul\":241:248   */\n      dup5\n        /* \"#utility.yul\":237:260   */\n      sub\n        /* \"#utility.yul\":233:265   */\n      slt\n        /* \"#utility.yul\":230:282   */\n      iszero\n      tag_101\n      jumpi\n        /* \"#utility.yul\":278:279   */\n      0x00\n        /* \"#utility.yul\":275:276   */\n      0x00\n        /* \"#utility.yul\":268:280   */\n      revert\n        /* \"#utility.yul\":230:282   */\n    tag_101:\n        /* \"#utility.yul\":317:326   */\n      dup2\n        /* \"#utility.yul\":304:327   */\n      calldataload\n        /* \"#utility.yul\":336:367   */\n      tag_102\n        /* \"#utility.yul\":361:366   */\n      dup2\n        /* \"#utility.yul\":336:367   */\n      tag_91\n      jump\t// in\n    tag_102:\n        /* \"#utility.yul\":386:391   */\n      swap4\n        /* \"#utility.yul\":150:397   */\n      swap3\n      pop\n      pop\n      pop\n      jump\t// out\n        /* \"#utility.yul\":402:858   */\n    tag_17:\n        /* \"#utility.yul\":479:485   */\n      0x00\n        /* \"#utility.yul\":487:493   */\n      0x00\n        /* \"#utility.yul\":495:501   */\n      0x00\n        /* \"#utility.yul\":548:550   */\n      0x60\n        /* \"#utility.yul\":536:545   */\n      dup5\n        /* \"#utility.yul\":527:534   */\n      dup7\n        /* \"#utility.yul\":523:546   */\n      sub\n        /* \"#utility.yul\":519:551   */\n      slt\n        /* \"#utility.yul\":516:568   */\n      iszero\n      tag_104\n      jumpi\n        /* \"#utility.yul\":564:565   */\n      0x00\n        /* \"#utility.yul\":561:562   */\n      0x00\n        /* \"#utility.yul\":554:566   */\n      revert\n        /* \"#utility.yul\":516:568   */\n    tag_104:\n        /* \"#utility.yul\":603:612   */\n      dup4\n        /* \"#utility.yul\":590:613   */\n      calldataload\n        /* \"#utility.yul\":622:653   */\n      tag_105\n        /* \"#utility.yul\":647:652   */\n      dup2\n        /* \"#utility.yul\":622:653   */\n      tag_91\n      jump\t// in\n    tag_105:\n        /* \"#utility.yul\":672:677   */\n      swap3\n      pop\n        /* \"#utility.yul\":729:731   */\n      0x20\n        /* \"#utility.yul\":714:732   */\n      dup5\n      add\n        /* \"#utility.yul\":701:733   */\n      calldataload\n        /* \"#utility.yul\":742:775   */\n      tag_106\n        /* \"#utility.yul\":701:733   */\n      dup2\n        /* \"#utility.yul\":742:775   */\n      tag_91\n      jump\t// in\n    tag_106:\n        /* \"#utility.yul\":402:858   */\n      swap3\n      swap6\n        /* \"#utility.yul\":794:801   */\n      swap3\n      swap5\n      pop\n      pop\n      pop\n        /* \"#utility.yul\":848:850   */\n      0x40\n        /* \"#utility.yul\":833:851   */\n      swap2\n      swap1\n      swap2\n      add\n        /* \"#utility.yul\":820:852   */\n      calldataload\n      swap1\n        /* \"#utility.yul\":402:858   */\n      jump\t// out\n        /* \"#utility.yul\":2115:2242   */\n    tag_92:\n        /* \"#utility.yul\":2176:2186   */\n      0x4e487b71\n        /* \"#utility.yul\":2171:2174   */\n      0xe0\n        /* \"#utility.yul\":2167:2187   */\n      shl\n        /* \"#utility.yul\":2164:2165   */\n      0x00\n        /* \"#utility.yul\":2157:2188   */\n      mstore\n        /* \"#utility.yul\":2207:2211   */\n      0x41\n        /* \"#utility.yul\":2204:2205   */\n      0x04\n        /* \"#utility.yul\":2197:2212   */\n      mstore\n        /* \"#utility.yul\":2231:2235   */\n      0x24\n        /* \"#utility.yul\":2228:2229   */\n      0x00\n        /* \"#utility.yul\":2221:2236   */\n      revert\n        /* \"#utility.yul\":2247:2495   */\n    tag_93:\n        /* \"#utility.yul\":2314:2316   */\n      0x40\n        /* \"#utility.yul\":2308:2317   */\n      mload\n        /* \"#utility.yul\":2356:2360   */\n      0xc0\n        /* \"#utility.yul\":2344:2361   */\n      dup2\n      add\n        /* \"#utility.yul\":2391:2409   */\n      0xffffffffffffffff\n        /* \"#utility.yul\":2376:2410   */\n      dup2\n      gt\n        /* \"#utility.yul\":2412:2434   */\n      dup3\n      dup3\n      lt\n        /* \"#utility.yul\":2373:2435   */\n      or\n        /* \"#utility.yul\":2370:2458   */\n      iszero\n      tag_114\n      jumpi\n        /* \"#utility.yul\":2438:2456   */\n      tag_114\n      tag_92\n      jump\t// in\n    tag_114:\n        /* \"#utility.yul\":2474:2476   */\n      0x40\n        /* \"#utility.yul\":2467:2489   */\n      mstore\n        /* \"#utility.yul\":2247:2495   */\n      swap1\n      jump\t// out\n        /* \"#utility.yul\":2500:2638   */\n    tag_94:\n        /* \"#utility.yul\":2579:2592   */\n      dup1\n      mload\n        /* \"#utility.yul\":2601:2632   */\n      tag_116\n        /* \"#utility.yul\":2579:2592   */\n      dup2\n        /* \"#utility.yul\":2601:2632   */\n      tag_91\n      jump\t// in\n    tag_116:\n        /* \"#utility.yul\":2500:2638   */\n      swap2\n      swap1\n      pop\n      jump\t// out\n        /* \"#utility.yul\":2643:3529   */\n    tag_95:\n        /* \"#utility.yul\":2697:2702   */\n      0x00\n        /* \"#utility.yul\":2750:2753   */\n      dup3\n        /* \"#utility.yul\":2743:2747   */\n      0x1f\n        /* \"#utility.yul\":2735:2741   */\n      dup4\n        /* \"#utility.yul\":2731:2748   */\n      add\n        /* \"#utility.yul\":2727:2754   */\n      slt\n        /* \"#utility.yul\":2717:2772   */\n      tag_118\n      jumpi\n        /* \"#utility.yul\":2768:2769   */\n      0x00\n        /* \"#utility.yul\":2765:2766   */\n      0x00\n        /* \"#utility.yul\":2758:2770   */\n      revert\n        /* \"#utility.yul\":2717:2772   */\n    tag_118:\n        /* \"#utility.yul\":2801:2807   */\n      dup2\n        /* \"#utility.yul\":2795:2808   */\n      mload\n        /* \"#utility.yul\":2840:2844   */\n      0x20\n        /* \"#utility.yul\":2832:2838   */\n      dup4\n        /* \"#utility.yul\":2828:2845   */\n      add\n        /* \"#utility.yul\":2869:2870   */\n      0x00\n        /* \"#utility.yul\":2891:2892   */\n      0x00\n        /* \"#utility.yul\":2915:2933   */\n      0xffffffffffffffff\n        /* \"#utility.yul\":2907:2913   */\n      dup5\n        /* \"#utility.yul\":2904:2934   */\n      gt\n        /* \"#utility.yul\":2901:2957   */\n      iszero\n      tag_120\n      jumpi\n        /* \"#utility.yul\":2937:2955   */\n      tag_120\n      tag_92\n      jump\t// in\n    tag_120:\n      pop\n        /* \"#utility.yul\":3092:3094   */\n      0x40\n        /* \"#utility.yul\":3086:3095   */\n      mload\n      not(0x1f)\n        /* \"#utility.yul\":3005:3007   */\n      0x1f\n        /* \"#utility.yul\":2984:2999   */\n      dup6\n      add\n        /* \"#utility.yul\":2980:3009   */\n      dup2\n      and\n        /* \"#utility.yul\":3150:3152   */\n      0x3f\n        /* \"#utility.yul\":3138:3153   */\n      add\n        /* \"#utility.yul\":3134:3163   */\n      and\n        /* \"#utility.yul\":3122:3164   */\n      dup2\n      add\n        /* \"#utility.yul\":3215:3237   */\n      dup2\n      dup2\n      lt\n        /* \"#utility.yul\":3194:3212   */\n      0xffffffffffffffff\n        /* \"#utility.yul\":3179:3213   */\n      dup3\n      gt\n        /* \"#utility.yul\":3176:3238   */\n      or\n        /* \"#utility.yul\":3173:3261   */\n      iszero\n      tag_122\n      jumpi\n        /* \"#utility.yul\":3241:3259   */\n      tag_122\n      tag_92\n      jump\t// in\n    tag_122:\n        /* \"#utility.yul\":3277:3279   */\n      0x40\n        /* \"#utility.yul\":3270:3292   */\n      mstore\n        /* \"#utility.yul\":3327:3349   */\n      dup4\n      dup2\n      mstore\n        /* \"#utility.yul\":3312:3318   */\n      swap1\n      pop\n      dup1\n        /* \"#utility.yul\":3364:3380   */\n      dup3\n      dup5\n      add\n        /* \"#utility.yul\":3361:3386   */\n      dup8\n      lt\n        /* \"#utility.yul\":3358:3403   */\n      iszero\n      tag_123\n      jumpi\n        /* \"#utility.yul\":3399:3400   */\n      0x00\n        /* \"#utility.yul\":3396:3397   */\n      0x00\n        /* \"#utility.yul\":3389:3401   */\n      revert\n        /* \"#utility.yul\":3358:3403   */\n    tag_123:\n        /* \"#utility.yul\":3442:3448   */\n      dup4\n        /* \"#utility.yul\":3437:3440   */\n      dup4\n        /* \"#utility.yul\":3430:3434   */\n      0x20\n        /* \"#utility.yul\":3422:3428   */\n      dup4\n        /* \"#utility.yul\":3418:3435   */\n      add\n        /* \"#utility.yul\":3412:3449   */\n      mcopy\n        /* \"#utility.yul\":3497:3498   */\n      0x00\n        /* \"#utility.yul\":3490:3494   */\n      0x20\n        /* \"#utility.yul\":3481:3487   */\n      dup6\n        /* \"#utility.yul\":3473:3479   */\n      dup4\n        /* \"#utility.yul\":3469:3488   */\n      add\n        /* \"#utility.yul\":3465:3495   */\n      add\n        /* \"#utility.yul\":3458:3499   */\n      mstore\n        /* \"#utility.yul\":3517:3523   */\n      dup1\n        /* \"#utility.yul\":3508:3523   */\n      swap5\n      pop\n      pop\n      pop\n      pop\n      pop\n        /* \"#utility.yul\":2643:3529   */\n      swap3\n      swap2\n      pop\n      pop\n      jump\t// out\n        /* \"#utility.yul\":3534:4815   */\n    tag_52:\n        /* \"#utility.yul\":3632:3638   */\n      0x00\n        /* \"#utility.yul\":3685:3687   */\n      0x20\n        /* \"#utility.yul\":3673:3682   */\n      dup3\n        /* \"#utility.yul\":3664:3671   */\n      dup5\n        /* \"#utility.yul\":3660:3683   */\n      sub\n        /* \"#utility.yul\":3656:3688   */\n      slt\n        /* \"#utility.yul\":3653:3705   */\n      iszero\n      tag_125\n      jumpi\n        /* \"#utility.yul\":3701:3702   */\n      0x00\n        /* \"#utility.yul\":3698:3699   */\n      0x00\n        /* \"#utility.yul\":3691:3703   */\n      revert\n        /* \"#utility.yul\":3653:3705   */\n    tag_125:\n        /* \"#utility.yul\":3734:3743   */\n      dup2\n        /* \"#utility.yul\":3728:3744   */\n      mload\n        /* \"#utility.yul\":3767:3785   */\n      0xffffffffffffffff\n        /* \"#utility.yul\":3759:3765   */\n      dup2\n        /* \"#utility.yul\":3756:3786   */\n      gt\n        /* \"#utility.yul\":3753:3803   */\n      iszero\n      tag_126\n      jumpi\n        /* \"#utility.yul\":3799:3800   */\n      0x00\n        /* \"#utility.yul\":3796:3797   */\n      0x00\n        /* \"#utility.yul\":3789:3801   */\n      revert\n        /* \"#utility.yul\":3753:3803   */\n    tag_126:\n        /* \"#utility.yul\":3822:3844   */\n      dup3\n      add\n        /* \"#utility.yul\":3878:3882   */\n      0xc0\n        /* \"#utility.yul\":3860:3876   */\n      dup2\n      dup6\n      sub\n        /* \"#utility.yul\":3856:3883   */\n      slt\n        /* \"#utility.yul\":3853:3900   */\n      iszero\n      tag_127\n      jumpi\n        /* \"#utility.yul\":3896:3897   */\n      0x00\n        /* \"#utility.yul\":3893:3894   */\n      0x00\n        /* \"#utility.yul\":3886:3898   */\n      revert\n        /* \"#utility.yul\":3853:3900   */\n    tag_127:\n        /* \"#utility.yul\":3922:3939   */\n      tag_128\n      tag_93\n      jump\t// in\n    tag_128:\n        /* \"#utility.yul\":3962:3995   */\n      tag_129\n        /* \"#utility.yul\":3992:3994   */\n      dup3\n        /* \"#utility.yul\":3962:3995   */\n      tag_94\n      jump\t// in\n    tag_129:\n        /* \"#utility.yul\":3955:3960   */\n      dup2\n        /* \"#utility.yul\":3948:3996   */\n      mstore\n        /* \"#utility.yul\":4035:4037   */\n      0x20\n        /* \"#utility.yul\":4031:4033   */\n      dup3\n        /* \"#utility.yul\":4027:4038   */\n      add\n        /* \"#utility.yul\":4021:4039   */\n      mload\n        /* \"#utility.yul\":4064:4082   */\n      0xffffffffffffffff\n        /* \"#utility.yul\":4054:4062   */\n      dup2\n        /* \"#utility.yul\":4051:4083   */\n      gt\n        /* \"#utility.yul\":4048:4100   */\n      iszero\n      tag_130\n      jumpi\n        /* \"#utility.yul\":4096:4097   */\n      0x00\n        /* \"#utility.yul\":4093:4094   */\n      0x00\n        /* \"#utility.yul\":4086:4098   */\n      revert\n        /* \"#utility.yul\":4048:4100   */\n    tag_130:\n        /* \"#utility.yul\":4132:4188   */\n      tag_131\n        /* \"#utility.yul\":4180:4187   */\n      dup7\n        /* \"#utility.yul\":4169:4177   */\n      dup3\n        /* \"#utility.yul\":4165:4167   */\n      dup6\n        /* \"#utility.yul\":4161:4178   */\n      add\n        /* \"#utility.yul\":4132:4188   */\n      tag_95\n      jump\t// in\n    tag_131:\n        /* \"#utility.yul\":4127:4129   */\n      0x20\n        /* \"#utility.yul\":4120:4125   */\n      dup4\n        /* \"#utility.yul\":4116:4130   */\n      add\n        /* \"#utility.yul\":4109:4189   */\n      mstore\n      pop\n        /* \"#utility.yul\":4228:4230   */\n      0x40\n        /* \"#utility.yul\":4224:4226   */\n      dup3\n        /* \"#utility.yul\":4220:4231   */\n      add\n        /* \"#utility.yul\":4214:4232   */\n      mload\n        /* \"#utility.yul\":4257:4275   */\n      0xffffffffffffffff\n        /* \"#utility.yul\":4247:4255   */\n      dup2\n        /* \"#utility.yul\":4244:4276   */\n      gt\n        /* \"#utility.yul\":4241:4293   */\n      iszero\n      tag_132\n      jumpi\n        /* \"#utility.yul\":4289:4290   */\n      0x00\n        /* \"#utility.yul\":4286:4287   */\n      0x00\n        /* \"#utility.yul\":4279:4291   */\n      revert\n        /* \"#utility.yul\":4241:4293   */\n    tag_132:\n        /* \"#utility.yul\":4325:4381   */\n      tag_133\n        /* \"#utility.yul\":4373:4380   */\n      dup7\n        /* \"#utility.yul\":4362:4370   */\n      dup3\n        /* \"#utility.yul\":4358:4360   */\n      dup6\n        /* \"#utility.yul\":4354:4371   */\n      add\n        /* \"#utility.yul\":4325:4381   */\n      tag_95\n      jump\t// in\n    tag_133:\n        /* \"#utility.yul\":4320:4322   */\n      0x40\n        /* \"#utility.yul\":4313:4318   */\n      dup4\n        /* \"#utility.yul\":4309:4323   */\n      add\n        /* \"#utility.yul\":4302:4382   */\n      mstore\n      pop\n        /* \"#utility.yul\":4421:4423   */\n      0x60\n        /* \"#utility.yul\":4417:4419   */\n      dup3\n        /* \"#utility.yul\":4413:4424   */\n      add\n        /* \"#utility.yul\":4407:4425   */\n      mload\n        /* \"#utility.yul\":4450:4468   */\n      0xffffffffffffffff\n        /* \"#utility.yul\":4440:4448   */\n      dup2\n        /* \"#utility.yul\":4437:4469   */\n      gt\n        /* \"#utility.yul\":4434:4486   */\n      iszero\n      tag_134\n      jumpi\n        /* \"#utility.yul\":4482:4483   */\n      0x00\n        /* \"#utility.yul\":4479:4480   */\n      0x00\n        /* \"#utility.yul\":4472:4484   */\n      revert\n        /* \"#utility.yul\":4434:4486   */\n    tag_134:\n        /* \"#utility.yul\":4518:4574   */\n      tag_135\n        /* \"#utility.yul\":4566:4573   */\n      dup7\n        /* \"#utility.yul\":4555:4563   */\n      dup3\n        /* \"#utility.yul\":4551:4553   */\n      dup6\n        /* \"#utility.yul\":4547:4564   */\n      add\n        /* \"#utility.yul\":4518:4574   */\n      tag_95\n      jump\t// in\n    tag_135:\n        /* \"#utility.yul\":4513:4515   */\n      0x60\n        /* \"#utility.yul\":4502:4516   */\n      dup4\n      add\n        /* \"#utility.yul\":4495:4575   */\n      mstore\n      pop\n        /* \"#utility.yul\":4634:4637   */\n      0x80\n        /* \"#utility.yul\":4626:4638   */\n      dup3\n      dup2\n      add\n        /* \"#utility.yul\":4620:4639   */\n      mload\n        /* \"#utility.yul\":4655:4670   */\n      swap1\n      dup3\n      add\n        /* \"#utility.yul\":4648:4680   */\n      mstore\n        /* \"#utility.yul\":4739:4742   */\n      0xa0\n        /* \"#utility.yul\":4731:4743   */\n      swap2\n      dup3\n      add\n        /* \"#utility.yul\":4725:4744   */\n      mload\n        /* \"#utility.yul\":4760:4775   */\n      swap2\n      dup2\n      add\n        /* \"#utility.yul\":4753:4785   */\n      swap2\n      swap1\n      swap2\n      mstore\n        /* \"#utility.yul\":4506:4511   */\n      swap4\n        /* \"#utility.yul\":3534:4815   */\n      swap3\n      pop\n      pop\n      pop\n      jump\t// out\n        /* \"#utility.yul\":4820:4947   */\n    tag_96:\n        /* \"#utility.yul\":4881:4891   */\n      0x4e487b71\n        /* \"#utility.yul\":4876:4879   */\n      0xe0\n        /* \"#utility.yul\":4872:4892   */\n      shl\n        /* \"#utility.yul\":4869:4870   */\n      0x00\n        /* \"#utility.yul\":4862:4893   */\n      mstore\n        /* \"#utility.yul\":4912:4916   */\n      0x11\n        /* \"#utility.yul\":4909:4910   */\n      0x04\n        /* \"#utility.yul\":4902:4917   */\n      mstore\n        /* \"#utility.yul\":4936:4940   */\n      0x24\n        /* \"#utility.yul\":4933:4934   */\n      0x00\n        /* \"#utility.yul\":4926:4941   */\n      revert\n        /* \"#utility.yul\":4952:5120   */\n    tag_54:\n        /* \"#utility.yul\":5025:5034   */\n      dup1\n      dup3\n      mul\n        /* \"#utility.yul\":5056:5065   */\n      dup2\n      iszero\n        /* \"#utility.yul\":5073:5088   */\n      dup3\n      dup3\n      div\n        /* \"#utility.yul\":5067:5089   */\n      dup5\n      eq\n        /* \"#utility.yul\":5053:5090   */\n      or\n        /* \"#utility.yul\":5043:5114   */\n      tag_139\n      jumpi\n        /* \"#utility.yul\":5094:5112   */\n      tag_139\n      tag_96\n      jump\t// in\n    tag_139:\n        /* \"#utility.yul\":4952:5120   */\n      swap3\n      swap2\n      pop\n      pop\n      jump\t// out\n        /* \"#utility.yul\":5125:5250   */\n    tag_58:\n        /* \"#utility.yul\":5190:5199   */\n      dup1\n      dup3\n      add\n        /* \"#utility.yul\":5211:5221   */\n      dup1\n      dup3\n      gt\n        /* \"#utility.yul\":5208:5244   */\n      iszero\n      tag_139\n      jumpi\n        /* \"#utility.yul\":5224:5242   */\n      tag_139\n      tag_96\n      jump\t// in\n        /* \"#utility.yul\":5255:5472   */\n    tag_62:\n        /* \"#utility.yul\":5295:5296   */\n      0x00\n        /* \"#utility.yul\":5321:5322   */\n      dup3\n        /* \"#utility.yul\":5311:5443   */\n      tag_144\n      jumpi\n        /* \"#utility.yul\":5365:5375   */\n      0x4e487b71\n        /* \"#utility.yul\":5360:5363   */\n      0xe0\n        /* \"#utility.yul\":5356:5376   */\n      shl\n        /* \"#utility.yul\":5353:5354   */\n      0x00\n        /* \"#utility.yul\":5346:5377   */\n      mstore\n        /* \"#utility.yul\":5400:5404   */\n      0x12\n        /* \"#utility.yul\":5397:5398   */\n      0x04\n        /* \"#utility.yul\":5390:5405   */\n      mstore\n        /* \"#utility.yul\":5428:5432   */\n      0x24\n        /* \"#utility.yul\":5425:5426   */\n      0x00\n        /* \"#utility.yul\":5418:5433   */\n      revert\n        /* \"#utility.yul\":5311:5443   */\n    tag_144:\n      pop\n        /* \"#utility.yul\":5457:5466   */\n      div\n      swap1\n        /* \"#utility.yul\":5255:5472   */\n      jump\t// out\n\n    auxdata: 0xa26469706673582212203ef9134fbf548ea2dd4bd8fc8cfcb14de83e44ddd49eb36e8ee80e7c3bb182c864736f6c634300081e0033\n}\n",
				"bytecode": {
					"linkReferences": {},
					"object": "60a060405234801561000f575f5ffd5b506040516108e43803806108e483398101604081905261002e916100e2565b816001600160a01b03811661005c57604051631e4fbdf760e01b81525f600482015260240160405180910390fd5b61006581610078565b506001600160a01b031660805250610113565b5f80546001600160a01b038381166001600160a01b0319831681178455604051919092169283917f8be0079c531659141344cd1fd0a4f28419497f9722a3daafe3b4186f6b6457e09190a35050565b80516001600160a01b03811681146100dd575f5ffd5b919050565b5f5f604083850312156100f3575f5ffd5b6100fc836100c7565b915061010a602084016100c7565b90509250929050565b6080516107ac6101385f395f818160ee0152818161026f015261036101526107ac5ff3fe608060405234801561000f575f5ffd5b506004361061007a575f3560e01c80638da5cb5b116100585780638da5cb5b146100ae578063b0087cfa146100d6578063e6007bed146100e9578063f2fde38b14610110575f5ffd5b80630139746c1461007e5780635435029a14610093578063715018a6146100a6575b5f5ffd5b61009161008c3660046104ec565b610123565b005b6100916100a136600461050e565b610174565b61009161040d565b5f546001600160a01b03165b6040516001600160a01b03909116815260200160405180910390f35b6001546100ba906001600160a01b031681565b6100ba7f000000000000000000000000000000000000000000000000000000000000000081565b61009161011e3660046104ec565b610420565b61012b61045d565b600180546001600160a01b0319166001600160a01b0383169081179091556040517f2f658b440c35314f52658ea8a740e05b284cdc84dc9ae01e891f21b8933e7cad905f90a250565b6001546001600160a01b031633146101df5760405162461bcd60e51b8152602060048201526024808201527f52657075746174696f6e3a204e6f7420616e20617574686f72697a6564206361604482015263363632b960e11b60648201526084015b60405180910390fd5b600181101580156101f1575060058111155b61024f5760405162461bcd60e51b815260206004820152602960248201527f52657075746174696f6e3a2053636f7265206d757374206265206265747765656044820152686e203120616e64203560b81b60648201526084016101d6565b60405162f53a4760e41b81526001600160a01b0383811660048301525f917f000000000000000000000000000000000000000000000000000000000000000090911690630f53a470906024015f60405180830381865afa1580156102b5573d5f5f3e3d5ffd5b505050506040513d5f823e601f3d908101601f191682016040526102dc919081019061062a565b90505f6102ea836064610727565b90505f8260a001515f036102ff57508061033b565b60a083015161030f906001610744565b828460a0015185608001516103249190610727565b61032e9190610744565b6103389190610757565b90505b604051631eb9234160e31b81526001600160a01b038681166004830152602482018390527f0000000000000000000000000000000000000000000000000000000000000000169063f5c91a08906044015f604051808303815f87803b1580156103a2575f5ffd5b505af11580156103b4573d5f5f3e3d5ffd5b50505050846001600160a01b0316866001600160a01b03167fdcba9448b55b807611f7e3ece24acdc6afaec1d8c5a16f3e70c571758f606654866040516103fd91815260200190565b60405180910390a3505050505050565b61041561045d565b61041e5f610489565b565b61042861045d565b6001600160a01b03811661045157604051631e4fbdf760e01b81525f60048201526024016101d6565b61045a81610489565b50565b5f546001600160a01b0316331461041e5760405163118cdaa760e01b81523360048201526024016101d6565b5f80546001600160a01b038381166001600160a01b0319831681178455604051919092169283917f8be0079c531659141344cd1fd0a4f28419497f9722a3daafe3b4186f6b6457e09190a35050565b6001600160a01b038116811461045a575f5ffd5b5f602082840312156104fc575f5ffd5b8135610507816104d8565b9392505050565b5f5f5f60608486031215610520575f5ffd5b833561052b816104d8565b9250602084013561053b816104d8565b929592945050506040919091013590565b634e487b7160e01b5f52604160045260245ffd5b60405160c0810167ffffffffffffffff811182821017156105835761058361054c565b60405290565b8051610594816104d8565b919050565b5f82601f8301126105a8575f5ffd5b8151602083015f5f67ffffffffffffffff8411156105c8576105c861054c565b50604051601f19601f85018116603f0116810181811067ffffffffffffffff821117156105f7576105f761054c565b60405283815290508082840187101561060e575f5ffd5b8383602083015e5f602085830101528094505050505092915050565b5f6020828403121561063a575f5ffd5b815167ffffffffffffffff811115610650575f5ffd5b820160c08185031215610661575f5ffd5b610669610560565b61067282610589565b8152602082015167ffffffffffffffff81111561068d575f5ffd5b61069986828501610599565b602083015250604082015167ffffffffffffffff8111156106b8575f5ffd5b6106c486828501610599565b604083015250606082015167ffffffffffffffff8111156106e3575f5ffd5b6106ef86828501610599565b6060830152506080828101519082015260a091820151918101919091529392505050565b634e487b7160e01b5f52601160045260245ffd5b808202811582820484141761073e5761073e610713565b92915050565b8082018082111561073e5761073e610713565b5f8261077157634e487b7160e01b5f52601260045260245ffd5b50049056fea26469706673582212203ef9134fbf548ea2dd4bd8fc8cfcb14de83e44ddd49eb36e8ee80e7c3bb182c864736f6c634300081e0033",
					"opcodes": "PUSH1 0xA0 PUSH1 0x40 MSTORE CALLVALUE DUP1 ISZERO PUSH2 0xF JUMPI PUSH0 PUSH0 REVERT JUMPDEST POP PUSH1 0x40 MLOAD PUSH2 0x8E4 CODESIZE SUB DUP1 PUSH2 0x8E4 DUP4 CODECOPY DUP2 ADD PUSH1 0x40 DUP2 SWAP1 MSTORE PUSH2 0x2E SWAP2 PUSH2 0xE2 JUMP JUMPDEST DUP2 PUSH1 0x1 PUSH1 0x1 PUSH1 0xA0 SHL SUB DUP2 AND PUSH2 0x5C JUMPI PUSH1 0x40 MLOAD PUSH4 0x1E4FBDF7 PUSH1 0xE0 SHL DUP2 MSTORE PUSH0 PUSH1 0x4 DUP3 ADD MSTORE PUSH1 0x24 ADD PUSH1 0x40 MLOAD DUP1 SWAP2 SUB SWAP1 REVERT JUMPDEST PUSH2 0x65 DUP2 PUSH2 0x78 JUMP JUMPDEST POP PUSH1 0x1 PUSH1 0x1 PUSH1 0xA0 SHL SUB AND PUSH1 0x80 MSTORE POP PUSH2 0x113 JUMP JUMPDEST PUSH0 DUP1 SLOAD PUSH1 0x1 PUSH1 0x1 PUSH1 0xA0 SHL SUB DUP4 DUP2 AND PUSH1 0x1 PUSH1 0x1 PUSH1 0xA0 SHL SUB NOT DUP4 AND DUP2 OR DUP5 SSTORE PUSH1 0x40 MLOAD SWAP2 SWAP1 SWAP3 AND SWAP3 DUP4 SWAP2 PUSH32 0x8BE0079C531659141344CD1FD0A4F28419497F9722A3DAAFE3B4186F6B6457E0 SWAP2 SWAP1 LOG3 POP POP JUMP JUMPDEST DUP1 MLOAD PUSH1 0x1 PUSH1 0x1 PUSH1 0xA0 SHL SUB DUP2 AND DUP2 EQ PUSH2 0xDD JUMPI PUSH0 PUSH0 REVERT JUMPDEST SWAP2 SWAP1 POP JUMP JUMPDEST PUSH0 PUSH0 PUSH1 0x40 DUP4 DUP6 SUB SLT ISZERO PUSH2 0xF3 JUMPI PUSH0 PUSH0 REVERT JUMPDEST PUSH2 0xFC DUP4 PUSH2 0xC7 JUMP JUMPDEST SWAP2 POP PUSH2 0x10A PUSH1 0x20 DUP5 ADD PUSH2 0xC7 JUMP JUMPDEST SWAP1 POP SWAP3 POP SWAP3 SWAP1 POP JUMP JUMPDEST PUSH1 0x80 MLOAD PUSH2 0x7AC PUSH2 0x138 PUSH0 CODECOPY PUSH0 DUP2 DUP2 PUSH1 0xEE ADD MSTORE DUP2 DUP2 PUSH2 0x26F ADD MSTORE PUSH2 0x361 ADD MSTORE PUSH2 0x7AC PUSH0 RETURN INVALID PUSH1 0x80 PUSH1 0x40 MSTORE CALLVALUE DUP1 ISZERO PUSH2 0xF JUMPI PUSH0 PUSH0 REVERT JUMPDEST POP PUSH1 0x4 CALLDATASIZE LT PUSH2 0x7A JUMPI PUSH0 CALLDATALOAD PUSH1 0xE0 SHR DUP1 PUSH4 0x8DA5CB5B GT PUSH2 0x58 JUMPI DUP1 PUSH4 0x8DA5CB5B EQ PUSH2 0xAE JUMPI DUP1 PUSH4 0xB0087CFA EQ PUSH2 0xD6 JUMPI DUP1 PUSH4 0xE6007BED EQ PUSH2 0xE9 JUMPI DUP1 PUSH4 0xF2FDE38B EQ PUSH2 0x110 JUMPI PUSH0 PUSH0 REVERT JUMPDEST DUP1 PUSH4 0x139746C EQ PUSH2 0x7E JUMPI DUP1 PUSH4 0x5435029A EQ PUSH2 0x93 JUMPI DUP1 PUSH4 0x715018A6 EQ PUSH2 0xA6 JUMPI JUMPDEST PUSH0 PUSH0 REVERT JUMPDEST PUSH2 0x91 PUSH2 0x8C CALLDATASIZE PUSH1 0x4 PUSH2 0x4EC JUMP JUMPDEST PUSH2 0x123 JUMP JUMPDEST STOP JUMPDEST PUSH2 0x91 PUSH2 0xA1 CALLDATASIZE PUSH1 0x4 PUSH2 0x50E JUMP JUMPDEST PUSH2 0x174 JUMP JUMPDEST PUSH2 0x91 PUSH2 0x40D JUMP JUMPDEST PUSH0 SLOAD PUSH1 0x1 PUSH1 0x1 PUSH1 0xA0 SHL SUB AND JUMPDEST PUSH1 0x40 MLOAD PUSH1 0x1 PUSH1 0x1 PUSH1 0xA0 SHL SUB SWAP1 SWAP2 AND DUP2 MSTORE PUSH1 0x20 ADD PUSH1 0x40 MLOAD DUP1 SWAP2 SUB SWAP1 RETURN JUMPDEST PUSH1 0x1 SLOAD PUSH2 0xBA SWAP1 PUSH1 0x1 PUSH1 0x1 PUSH1 0xA0 SHL SUB AND DUP2 JUMP JUMPDEST PUSH2 0xBA PUSH32 0x0 DUP2 JUMP JUMPDEST PUSH2 0x91 PUSH2 0x11E CALLDATASIZE PUSH1 0x4 PUSH2 0x4EC JUMP JUMPDEST PUSH2 0x420 JUMP JUMPDEST PUSH2 0x12B PUSH2 0x45D JUMP JUMPDEST PUSH1 0x1 DUP1 SLOAD PUSH1 0x1 PUSH1 0x1 PUSH1 0xA0 SHL SUB NOT AND PUSH1 0x1 PUSH1 0x1 PUSH1 0xA0 SHL SUB DUP4 AND SWAP1 DUP2 OR SWAP1 SWAP2 SSTORE PUSH1 0x40 MLOAD PUSH32 0x2F658B440C35314F52658EA8A740E05B284CDC84DC9AE01E891F21B8933E7CAD SWAP1 PUSH0 SWAP1 LOG2 POP JUMP JUMPDEST PUSH1 0x1 SLOAD PUSH1 0x1 PUSH1 0x1 PUSH1 0xA0 SHL SUB AND CALLER EQ PUSH2 0x1DF JUMPI PUSH1 0x40 MLOAD PUSH3 0x461BCD PUSH1 0xE5 SHL DUP2 MSTORE PUSH1 0x20 PUSH1 0x4 DUP3 ADD MSTORE PUSH1 0x24 DUP1 DUP3 ADD MSTORE PUSH32 0x52657075746174696F6E3A204E6F7420616E20617574686F72697A6564206361 PUSH1 0x44 DUP3 ADD MSTORE PUSH4 0x363632B9 PUSH1 0xE1 SHL PUSH1 0x64 DUP3 ADD MSTORE PUSH1 0x84 ADD JUMPDEST PUSH1 0x40 MLOAD DUP1 SWAP2 SUB SWAP1 REVERT JUMPDEST PUSH1 0x1 DUP2 LT ISZERO DUP1 ISZERO PUSH2 0x1F1 JUMPI POP PUSH1 0x5 DUP2 GT ISZERO JUMPDEST PUSH2 0x24F JUMPI PUSH1 0x40 MLOAD PUSH3 0x461BCD PUSH1 0xE5 SHL DUP2 MSTORE PUSH1 0x20 PUSH1 0x4 DUP3 ADD MSTORE PUSH1 0x29 PUSH1 0x24 DUP3 ADD MSTORE PUSH32 0x52657075746174696F6E3A2053636F7265206D75737420626520626574776565 PUSH1 0x44 DUP3 ADD MSTORE PUSH9 0x6E203120616E642035 PUSH1 0xB8 SHL PUSH1 0x64 DUP3 ADD MSTORE PUSH1 0x84 ADD PUSH2 0x1D6 JUMP JUMPDEST PUSH1 0x40 MLOAD PUSH3 0xF53A47 PUSH1 0xE4 SHL DUP2 MSTORE PUSH1 0x1 PUSH1 0x1 PUSH1 0xA0 SHL SUB DUP4 DUP2 AND PUSH1 0x4 DUP4 ADD MSTORE PUSH0 SWAP2 PUSH32 0x0 SWAP1 SWAP2 AND SWAP1 PUSH4 0xF53A470 SWAP1 PUSH1 0x24 ADD PUSH0 PUSH1 0x40 MLOAD DUP1 DUP4 SUB DUP2 DUP7 GAS STATICCALL ISZERO DUP1 ISZERO PUSH2 0x2B5 JUMPI RETURNDATASIZE PUSH0 PUSH0 RETURNDATACOPY RETURNDATASIZE PUSH0 REVERT JUMPDEST POP POP POP POP PUSH1 0x40 MLOAD RETURNDATASIZE PUSH0 DUP3 RETURNDATACOPY PUSH1 0x1F RETURNDATASIZE SWAP1 DUP2 ADD PUSH1 0x1F NOT AND DUP3 ADD PUSH1 0x40 MSTORE PUSH2 0x2DC SWAP2 SWAP1 DUP2 ADD SWAP1 PUSH2 0x62A JUMP JUMPDEST SWAP1 POP PUSH0 PUSH2 0x2EA DUP4 PUSH1 0x64 PUSH2 0x727 JUMP JUMPDEST SWAP1 POP PUSH0 DUP3 PUSH1 0xA0 ADD MLOAD PUSH0 SUB PUSH2 0x2FF JUMPI POP DUP1 PUSH2 0x33B JUMP JUMPDEST PUSH1 0xA0 DUP4 ADD MLOAD PUSH2 0x30F SWAP1 PUSH1 0x1 PUSH2 0x744 JUMP JUMPDEST DUP3 DUP5 PUSH1 0xA0 ADD MLOAD DUP6 PUSH1 0x80 ADD MLOAD PUSH2 0x324 SWAP2 SWAP1 PUSH2 0x727 JUMP JUMPDEST PUSH2 0x32E SWAP2 SWAP1 PUSH2 0x744 JUMP JUMPDEST PUSH2 0x338 SWAP2 SWAP1 PUSH2 0x757 JUMP JUMPDEST SWAP1 POP JUMPDEST PUSH1 0x40 MLOAD PUSH4 0x1EB92341 PUSH1 0xE3 SHL DUP2 MSTORE PUSH1 0x1 PUSH1 0x1 PUSH1 0xA0 SHL SUB DUP7 DUP2 AND PUSH1 0x4 DUP4 ADD MSTORE PUSH1 0x24 DUP3 ADD DUP4 SWAP1 MSTORE PUSH32 0x0 AND SWAP1 PUSH4 0xF5C91A08 SWAP1 PUSH1 0x44 ADD PUSH0 PUSH1 0x40 MLOAD DUP1 DUP4 SUB DUP2 PUSH0 DUP8 DUP1 EXTCODESIZE ISZERO DUP1 ISZERO PUSH2 0x3A2 JUMPI PUSH0 PUSH0 REVERT JUMPDEST POP GAS CALL ISZERO DUP1 ISZERO PUSH2 0x3B4 JUMPI RETURNDATASIZE PUSH0 PUSH0 RETURNDATACOPY RETURNDATASIZE PUSH0 REVERT JUMPDEST POP POP POP POP DUP5 PUSH1 0x1 PUSH1 0x1 PUSH1 0xA0 SHL SUB AND DUP7 PUSH1 0x1 PUSH1 0x1 PUSH1 0xA0 SHL SUB AND PUSH32 0xDCBA9448B55B807611F7E3ECE24ACDC6AFAEC1D8C5A16F3E70C571758F606654 DUP7 PUSH1 0x40 MLOAD PUSH2 0x3FD SWAP2 DUP2 MSTORE PUSH1 0x20 ADD SWAP1 JUMP JUMPDEST PUSH1 0x40 MLOAD DUP1 SWAP2 SUB SWAP1 LOG3 POP POP POP POP POP POP JUMP JUMPDEST PUSH2 0x415 PUSH2 0x45D JUMP JUMPDEST PUSH2 0x41E PUSH0 PUSH2 0x489 JUMP JUMPDEST JUMP JUMPDEST PUSH2 0x428 PUSH2 0x45D JUMP JUMPDEST PUSH1 0x1 PUSH1 0x1 PUSH1 0xA0 SHL SUB DUP2 AND PUSH2 0x451 JUMPI PUSH1 0x40 MLOAD PUSH4 0x1E4FBDF7 PUSH1 0xE0 SHL DUP2 MSTORE PUSH0 PUSH1 0x4 DUP3 ADD MSTORE PUSH1 0x24 ADD PUSH2 0x1D6 JUMP JUMPDEST PUSH2 0x45A DUP2 PUSH2 0x489 JUMP JUMPDEST POP JUMP JUMPDEST PUSH0 SLOAD PUSH1 0x1 PUSH1 0x1 PUSH1 0xA0 SHL SUB AND CALLER EQ PUSH2 0x41E JUMPI PUSH1 0x40 MLOAD PUSH4 0x118CDAA7 PUSH1 0xE0 SHL DUP2 MSTORE CALLER PUSH1 0x4 DUP3 ADD MSTORE PUSH1 0x24 ADD PUSH2 0x1D6 JUMP JUMPDEST PUSH0 DUP1 SLOAD PUSH1 0x1 PUSH1 0x1 PUSH1 0xA0 SHL SUB DUP4 DUP2 AND PUSH1 0x1 PUSH1 0x1 PUSH1 0xA0 SHL SUB NOT DUP4 AND DUP2 OR DUP5 SSTORE PUSH1 0x40 MLOAD SWAP2 SWAP1 SWAP3 AND SWAP3 DUP4 SWAP2 PUSH32 0x8BE0079C531659141344CD1FD0A4F28419497F9722A3DAAFE3B4186F6B6457E0 SWAP2 SWAP1 LOG3 POP POP JUMP JUMPDEST PUSH1 0x1 PUSH1 0x1 PUSH1 0xA0 SHL SUB DUP2 AND DUP2 EQ PUSH2 0x45A JUMPI PUSH0 PUSH0 REVERT JUMPDEST PUSH0 PUSH1 0x20 DUP3 DUP5 SUB SLT ISZERO PUSH2 0x4FC JUMPI PUSH0 PUSH0 REVERT JUMPDEST DUP2 CALLDATALOAD PUSH2 0x507 DUP2 PUSH2 0x4D8 JUMP JUMPDEST SWAP4 SWAP3 POP POP POP JUMP JUMPDEST PUSH0 PUSH0 PUSH0 PUSH1 0x60 DUP5 DUP7 SUB SLT ISZERO PUSH2 0x520 JUMPI PUSH0 PUSH0 REVERT JUMPDEST DUP4 CALLDATALOAD PUSH2 0x52B DUP2 PUSH2 0x4D8 JUMP JUMPDEST SWAP3 POP PUSH1 0x20 DUP5 ADD CALLDATALOAD PUSH2 0x53B DUP2 PUSH2 0x4D8 JUMP JUMPDEST SWAP3 SWAP6 SWAP3 SWAP5 POP POP POP PUSH1 0x40 SWAP2 SWAP1 SWAP2 ADD CALLDATALOAD SWAP1 JUMP JUMPDEST PUSH4 0x4E487B71 PUSH1 0xE0 SHL PUSH0 MSTORE PUSH1 0x41 PUSH1 0x4 MSTORE PUSH1 0x24 PUSH0 REVERT JUMPDEST PUSH1 0x40 MLOAD PUSH1 0xC0 DUP2 ADD PUSH8 0xFFFFFFFFFFFFFFFF DUP2 GT DUP3 DUP3 LT OR ISZERO PUSH2 0x583 JUMPI PUSH2 0x583 PUSH2 0x54C JUMP JUMPDEST PUSH1 0x40 MSTORE SWAP1 JUMP JUMPDEST DUP1 MLOAD PUSH2 0x594 DUP2 PUSH2 0x4D8 JUMP JUMPDEST SWAP2 SWAP1 POP JUMP JUMPDEST PUSH0 DUP3 PUSH1 0x1F DUP4 ADD SLT PUSH2 0x5A8 JUMPI PUSH0 PUSH0 REVERT JUMPDEST DUP2 MLOAD PUSH1 0x20 DUP4 ADD PUSH0 PUSH0 PUSH8 0xFFFFFFFFFFFFFFFF DUP5 GT ISZERO PUSH2 0x5C8 JUMPI PUSH2 0x5C8 PUSH2 0x54C JUMP JUMPDEST POP PUSH1 0x40 MLOAD PUSH1 0x1F NOT PUSH1 0x1F DUP6 ADD DUP2 AND PUSH1 0x3F ADD AND DUP2 ADD DUP2 DUP2 LT PUSH8 0xFFFFFFFFFFFFFFFF DUP3 GT OR ISZERO PUSH2 0x5F7 JUMPI PUSH2 0x5F7 PUSH2 0x54C JUMP JUMPDEST PUSH1 0x40 MSTORE DUP4 DUP2 MSTORE SWAP1 POP DUP1 DUP3 DUP5 ADD DUP8 LT ISZERO PUSH2 0x60E JUMPI PUSH0 PUSH0 REVERT JUMPDEST DUP4 DUP4 PUSH1 0x20 DUP4 ADD MCOPY PUSH0 PUSH1 0x20 DUP6 DUP4 ADD ADD MSTORE DUP1 SWAP5 POP POP POP POP POP SWAP3 SWAP2 POP POP JUMP JUMPDEST PUSH0 PUSH1 0x20 DUP3 DUP5 SUB SLT ISZERO PUSH2 0x63A JUMPI PUSH0 PUSH0 REVERT JUMPDEST DUP2 MLOAD PUSH8 0xFFFFFFFFFFFFFFFF DUP2 GT ISZERO PUSH2 0x650 JUMPI PUSH0 PUSH0 REVERT JUMPDEST DUP3 ADD PUSH1 0xC0 DUP2 DUP6 SUB SLT ISZERO PUSH2 0x661 JUMPI PUSH0 PUSH0 REVERT JUMPDEST PUSH2 0x669 PUSH2 0x560 JUMP JUMPDEST PUSH2 0x672 DUP3 PUSH2 0x589 JUMP JUMPDEST DUP2 MSTORE PUSH1 0x20 DUP3 ADD MLOAD PUSH8 0xFFFFFFFFFFFFFFFF DUP2 GT ISZERO PUSH2 0x68D JUMPI PUSH0 PUSH0 REVERT JUMPDEST PUSH2 0x699 DUP7 DUP3 DUP6 ADD PUSH2 0x599 JUMP JUMPDEST PUSH1 0x20 DUP4 ADD MSTORE POP PUSH1 0x40 DUP3 ADD MLOAD PUSH8 0xFFFFFFFFFFFFFFFF DUP2 GT ISZERO PUSH2 0x6B8 JUMPI PUSH0 PUSH0 REVERT JUMPDEST PUSH2 0x6C4 DUP7 DUP3 DUP6 ADD PUSH2 0x599 JUMP JUMPDEST PUSH1 0x40 DUP4 ADD MSTORE POP PUSH1 0x60 DUP3 ADD MLOAD PUSH8 0xFFFFFFFFFFFFFFFF DUP2 GT ISZERO PUSH2 0x6E3 JUMPI PUSH0 PUSH0 REVERT JUMPDEST PUSH2 0x6EF DUP7 DUP3 DUP6 ADD PUSH2 0x599 JUMP JUMPDEST PUSH1 0x60 DUP4 ADD MSTORE POP PUSH1 0x80 DUP3 DUP2 ADD MLOAD SWAP1 DUP3 ADD MSTORE PUSH1 0xA0 SWAP2 DUP3 ADD MLOAD SWAP2 DUP2 ADD SWAP2 SWAP1 SWAP2 MSTORE SWAP4 SWAP3 POP POP POP JUMP JUMPDEST PUSH4 0x4E487B71 PUSH1 0xE0 SHL PUSH0 MSTORE PUSH1 0x11 PUSH1 0x4 MSTORE PUSH1 0x24 PUSH0 REVERT JUMPDEST DUP1 DUP3 MUL DUP2 ISZERO DUP3 DUP3 DIV DUP5 EQ OR PUSH2 0x73E JUMPI PUSH2 0x73E PUSH2 0x713 JUMP JUMPDEST SWAP3 SWAP2 POP POP JUMP JUMPDEST DUP1 DUP3 ADD DUP1 DUP3 GT ISZERO PUSH2 0x73E JUMPI PUSH2 0x73E PUSH2 0x713 JUMP JUMPDEST PUSH0 DUP3 PUSH2 0x771 JUMPI PUSH4 0x4E487B71 PUSH1 0xE0 SHL PUSH0 MSTORE PUSH1 0x12 PUSH1 0x4 MSTORE PUSH1 0x24 PUSH0 REVERT JUMPDEST POP DIV SWAP1 JUMP INVALID LOG2 PUSH5 0x6970667358 0x22 SLT KECCAK256 RETURNDATACOPY EXTDELEGATECALL SGT 0x4F 0xBF SLOAD DUP15 LOG2 0xDD 0x4B 0xD8 0xFC DUP13 0xFC 0xB1 0x4D 0xE8 RETURNDATACOPY PREVRANDAO 0xDD 0xD4 SWAP15 0xB3 PUSH15 0x8EE80E7C3BB182C864736F6C634300 ADDMOD 0x1E STOP CALLER "
				},
				"gasEstimates": {
					"creation": {
						"codeDepositCost": "392800",
						"executionCost": "infinite",
						"totalCost": "infinite"
					},
					"external": {
						"owner()": "2306",
						"projectAuthority()": "2346",
						"renounceOwnership()": "infinite",
						"setProjectAuthority(address)": "27865",
						"submitRating(address,address,uint256)": "infinite",
						"transferOwnership(address)": "infinite",
						"userIdentity()": "infinite"
					}
				},
				"methodIdentifiers": {
					"owner()": "8da5cb5b",
					"projectAuthority()": "b0087cfa",
					"renounceOwnership()": "715018a6",
					"setProjectAuthority(address)": "0139746c",
					"submitRating(address,address,uint256)": "5435029a",
					"transferOwnership(address)": "f2fde38b",
					"userIdentity()": "e6007bed"
				}
			},
			"storageLayout": {
				"storage": [
					{
						"astId": 8,
						"contract": "contracts/Governance/Reputation.sol:Reputation",
						"label": "_owner",
						"offset": 0,
						"slot": "0",
						"type": "t_address"
					},
					{
						"astId": 188,
						"contract": "contracts/Governance/Reputation.sol:Reputation",
						"label": "projectAuthority",
						"offset": 0,
						"slot": "1",
						"type": "t_address"
					}
				],
				"types": {
					"t_address": {
						"encoding": "inplace",
						"label": "address",
						"numberOfBytes": "20"
					}
				}
			},
			"userdoc": {
				"kind": "user",
				"methods": {},
				"version": 1
			}
		}
	}
}