{
	"contracts/Governance/Reputation.sol": {
		"Reputation": {
			"abi": [
				{
					"inputs": [
						{
							"internalType": "address",
							"name": "_userIdentityAddress",
							"type": "address"
						}
					],
					"stateMutability": "nonpayable",
					"type": "constructor"
				},
				{
					"anonymous": false,
					"inputs": [
						{
							"indexed": true,
							"internalType": "address",
							"name": "rater",
							"type": "address"
						},
						{
							"indexed": true,
							"internalType": "address",
							"name": "ratee",
							"type": "address"
						},
						{
							"indexed": false,
							"internalType": "uint256",
							"name": "score",
							"type": "uint256"
						}
					],
					"name": "RatingSubmitted",
					"type": "event"
				},
				{
					"inputs": [],
					"name": "projectAuthority",
					"outputs": [
						{
							"internalType": "address",
							"name": "",
							"type": "address"
						}
					],
					"stateMutability": "view",
					"type": "function"
				},
				{
					"inputs": [
						{
							"internalType": "address",
							"name": "_authority",
							"type": "address"
						}
					],
					"name": "setProjectAuthority",
					"outputs": [],
					"stateMutability": "nonpayable",
					"type": "function"
				},
				{
					"inputs": [
						{
							"internalType": "address",
							"name": "_rater",
							"type": "address"
						},
						{
							"internalType": "address",
							"name": "_ratee",
							"type": "address"
						},
						{
							"internalType": "uint256",
							"name": "_score",
							"type": "uint256"
						}
					],
					"name": "submitRating",
					"outputs": [],
					"stateMutability": "nonpayable",
					"type": "function"
				},
				{
					"inputs": [],
					"name": "userIdentity",
					"outputs": [
						{
							"internalType": "contract IUserIdentity",
							"name": "",
							"type": "address"
						}
					],
					"stateMutability": "view",
					"type": "function"
				}
			],
			"devdoc": {
				"kind": "dev",
				"methods": {
					"setProjectAuthority(address)": {
						"details": "Should be owned/controlled by governance."
					},
					"submitRating(address,address,uint256)": {
						"details": "This should be called by an authorized contract (e.g., Project).",
						"params": {
							"_ratee": "The address of the user being rated.",
							"_rater": "The address of the user giving the rating.",
							"_score": "A score from 1 to 5."
						}
					}
				},
				"version": 1
			},
			"evm": {
				"assembly": "    /* \"contracts/Governance/Reputation.sol\":106:2395  contract Reputation {... */\n  mstore(0x40, 0xa0)\n    /* \"contracts/Governance/Reputation.sol\":504:615  constructor(address _userIdentityAddress) {... */\n  callvalue\n  dup1\n  iszero\n  tag_1\n  jumpi\n  revert(0x00, 0x00)\ntag_1:\n  pop\n  mload(0x40)\n  sub(codesize, bytecodeSize)\n  dup1\n  bytecodeSize\n  dup4\n  codecopy\n  dup2\n  dup2\n  add\n  0x40\n  mstore\n  dup2\n  add\n  swap1\n  tag_2\n  swap2\n  swap1\n  tag_3\n  jump\t// in\ntag_2:\n    /* \"contracts/Governance/Reputation.sol\":586:606  _userIdentityAddress */\n  dup1\n    /* \"contracts/Governance/Reputation.sol\":557:607  userIdentity = IUserIdentity(_userIdentityAddress) */\n  0xffffffffffffffffffffffffffffffffffffffff\n  and\n  0x80\n  dup2\n  0xffffffffffffffffffffffffffffffffffffffff\n  and\n  dup2\n  mstore\n  pop\n  pop\n    /* \"contracts/Governance/Reputation.sol\":504:615  constructor(address _userIdentityAddress) {... */\n  pop\n    /* \"contracts/Governance/Reputation.sol\":106:2395  contract Reputation {... */\n  jump(tag_6)\n    /* \"#utility.yul\":88:205   */\ntag_8:\n    /* \"#utility.yul\":197:198   */\n  0x00\n    /* \"#utility.yul\":194:195   */\n  0x00\n    /* \"#utility.yul\":187:199   */\n  revert\n    /* \"#utility.yul\":334:460   */\ntag_10:\n    /* \"#utility.yul\":371:378   */\n  0x00\n    /* \"#utility.yul\":411:453   */\n  0xffffffffffffffffffffffffffffffffffffffff\n    /* \"#utility.yul\":404:409   */\n  dup3\n    /* \"#utility.yul\":400:454   */\n  and\n    /* \"#utility.yul\":389:454   */\n  swap1\n  pop\n    /* \"#utility.yul\":334:460   */\n  swap2\n  swap1\n  pop\n  jump\t// out\n    /* \"#utility.yul\":466:562   */\ntag_11:\n    /* \"#utility.yul\":503:510   */\n  0x00\n    /* \"#utility.yul\":532:556   */\n  tag_20\n    /* \"#utility.yul\":550:555   */\n  dup3\n    /* \"#utility.yul\":532:556   */\n  tag_10\n  jump\t// in\ntag_20:\n    /* \"#utility.yul\":521:556   */\n  swap1\n  pop\n    /* \"#utility.yul\":466:562   */\n  swap2\n  swap1\n  pop\n  jump\t// out\n    /* \"#utility.yul\":568:690   */\ntag_12:\n    /* \"#utility.yul\":641:665   */\n  tag_22\n    /* \"#utility.yul\":659:664   */\n  dup2\n    /* \"#utility.yul\":641:665   */\n  tag_11\n  jump\t// in\ntag_22:\n    /* \"#utility.yul\":634:639   */\n  dup2\n    /* \"#utility.yul\":631:666   */\n  eq\n    /* \"#utility.yul\":621:684   */\n  tag_23\n  jumpi\n    /* \"#utility.yul\":680:681   */\n  0x00\n    /* \"#utility.yul\":677:678   */\n  0x00\n    /* \"#utility.yul\":670:682   */\n  revert\n    /* \"#utility.yul\":621:684   */\ntag_23:\n    /* \"#utility.yul\":568:690   */\n  pop\n  jump\t// out\n    /* \"#utility.yul\":696:839   */\ntag_13:\n    /* \"#utility.yul\":753:758   */\n  0x00\n    /* \"#utility.yul\":784:790   */\n  dup2\n    /* \"#utility.yul\":778:791   */\n  mload\n    /* \"#utility.yul\":769:791   */\n  swap1\n  pop\n    /* \"#utility.yul\":800:833   */\n  tag_25\n    /* \"#utility.yul\":827:832   */\n  dup2\n    /* \"#utility.yul\":800:833   */\n  tag_12\n  jump\t// in\ntag_25:\n    /* \"#utility.yul\":696:839   */\n  swap3\n  swap2\n  pop\n  pop\n  jump\t// out\n    /* \"#utility.yul\":845:1196   */\ntag_3:\n    /* \"#utility.yul\":915:921   */\n  0x00\n    /* \"#utility.yul\":964:966   */\n  0x20\n    /* \"#utility.yul\":952:961   */\n  dup3\n    /* \"#utility.yul\":943:950   */\n  dup5\n    /* \"#utility.yul\":939:962   */\n  sub\n    /* \"#utility.yul\":935:967   */\n  slt\n    /* \"#utility.yul\":932:1051   */\n  iszero\n  tag_27\n  jumpi\n    /* \"#utility.yul\":970:1049   */\n  tag_28\n  tag_8\n  jump\t// in\ntag_28:\n    /* \"#utility.yul\":932:1051   */\ntag_27:\n    /* \"#utility.yul\":1090:1091   */\n  0x00\n    /* \"#utility.yul\":1115:1179   */\n  tag_29\n    /* \"#utility.yul\":1171:1178   */\n  dup5\n    /* \"#utility.yul\":1162:1168   */\n  dup3\n    /* \"#utility.yul\":1151:1160   */\n  dup6\n    /* \"#utility.yul\":1147:1169   */\n  add\n    /* \"#utility.yul\":1115:1179   */\n  tag_13\n  jump\t// in\ntag_29:\n    /* \"#utility.yul\":1105:1179   */\n  swap2\n  pop\n    /* \"#utility.yul\":1061:1189   */\n  pop\n    /* \"#utility.yul\":845:1196   */\n  swap3\n  swap2\n  pop\n  pop\n  jump\t// out\n    /* \"contracts/Governance/Reputation.sol\":106:2395  contract Reputation {... */\ntag_6:\n  mload(0x80)\n  codecopy(0x00, dataOffset(sub_0), dataSize(sub_0))\n  0x00\n  assignImmutable(\"0xceebf77a833b30520287ddd9478ff51abbdffa30aa90a8d655dba0e8a79ce0c1\")\n  return(0x00, dataSize(sub_0))\nstop\n\nsub_0: assembly {\n        /* \"contracts/Governance/Reputation.sol\":106:2395  contract Reputation {... */\n      mstore(0x40, 0x80)\n      callvalue\n      dup1\n      iszero\n      tag_1\n      jumpi\n      revert(0x00, 0x00)\n    tag_1:\n      pop\n      jumpi(tag_2, lt(calldatasize, 0x04))\n      shr(0xe0, calldataload(0x00))\n      dup1\n      0x0139746c\n      eq\n      tag_3\n      jumpi\n      dup1\n      0x5435029a\n      eq\n      tag_4\n      jumpi\n      dup1\n      0xb0087cfa\n      eq\n      tag_5\n      jumpi\n      dup1\n      0xe6007bed\n      eq\n      tag_6\n      jumpi\n    tag_2:\n      revert(0x00, 0x00)\n        /* \"contracts/Governance/Reputation.sol\":2220:2392  function setProjectAuthority(address _authority) external {... */\n    tag_3:\n      tag_7\n      0x04\n      dup1\n      calldatasize\n      sub\n      dup2\n      add\n      swap1\n      tag_8\n      swap2\n      swap1\n      tag_9\n      jump\t// in\n    tag_8:\n      tag_10\n      jump\t// in\n    tag_7:\n      stop\n        /* \"contracts/Governance/Reputation.sol\":960:2062  function submitRating(address _rater, address _ratee, uint256 _score) external onlyAuthorized {... */\n    tag_4:\n      tag_11\n      0x04\n      dup1\n      calldatasize\n      sub\n      dup2\n      add\n      swap1\n      tag_12\n      swap2\n      swap1\n      tag_13\n      jump\t// in\n    tag_12:\n      tag_14\n      jump\t// in\n    tag_11:\n      stop\n        /* \"contracts/Governance/Reputation.sol\":183:214  address public projectAuthority */\n    tag_5:\n      tag_15\n      tag_16\n      jump\t// in\n    tag_15:\n      mload(0x40)\n      tag_17\n      swap2\n      swap1\n      tag_18\n      jump\t// in\n    tag_17:\n      mload(0x40)\n      dup1\n      swap2\n      sub\n      swap1\n      return\n        /* \"contracts/Governance/Reputation.sol\":133:176  IUserIdentity public immutable userIdentity */\n    tag_6:\n      tag_19\n      tag_20\n      jump\t// in\n    tag_19:\n      mload(0x40)\n      tag_21\n      swap2\n      swap1\n      tag_22\n      jump\t// in\n    tag_21:\n      mload(0x40)\n      dup1\n      swap2\n      sub\n      swap1\n      return\n        /* \"contracts/Governance/Reputation.sol\":2220:2392  function setProjectAuthority(address _authority) external {... */\n    tag_10:\n        /* \"contracts/Governance/Reputation.sol\":2374:2384  _authority */\n      dup1\n        /* \"contracts/Governance/Reputation.sol\":2355:2371  projectAuthority */\n      0x00\n      0x00\n        /* \"contracts/Governance/Reputation.sol\":2355:2384  projectAuthority = _authority */\n      0x0100\n      exp\n      dup2\n      sload\n      dup2\n      0xffffffffffffffffffffffffffffffffffffffff\n      mul\n      not\n      and\n      swap1\n      dup4\n      0xffffffffffffffffffffffffffffffffffffffff\n      and\n      mul\n      or\n      swap1\n      sstore\n      pop\n        /* \"contracts/Governance/Reputation.sol\":2220:2392  function setProjectAuthority(address _authority) external {... */\n      pop\n      jump\t// out\n        /* \"contracts/Governance/Reputation.sol\":960:2062  function submitRating(address _rater, address _ratee, uint256 _score) external onlyAuthorized {... */\n    tag_14:\n        /* \"contracts/Governance/Reputation.sol\":419:435  projectAuthority */\n      0x00\n      0x00\n      swap1\n      sload\n      swap1\n      0x0100\n      exp\n      swap1\n      div\n      0xffffffffffffffffffffffffffffffffffffffff\n      and\n        /* \"contracts/Governance/Reputation.sol\":405:435  msg.sender == projectAuthority */\n      0xffffffffffffffffffffffffffffffffffffffff\n      and\n        /* \"contracts/Governance/Reputation.sol\":405:415  msg.sender */\n      caller\n        /* \"contracts/Governance/Reputation.sol\":405:435  msg.sender == projectAuthority */\n      0xffffffffffffffffffffffffffffffffffffffff\n      and\n      eq\n        /* \"contracts/Governance/Reputation.sol\":397:476  require(msg.sender == projectAuthority, \"Reputation: Not an authorized caller\") */\n      tag_25\n      jumpi\n      mload(0x40)\n      0x08c379a000000000000000000000000000000000000000000000000000000000\n      dup2\n      mstore\n      0x04\n      add\n      tag_26\n      swap1\n      tag_27\n      jump\t// in\n    tag_26:\n      mload(0x40)\n      dup1\n      swap2\n      sub\n      swap1\n      revert\n    tag_25:\n        /* \"contracts/Governance/Reputation.sol\":1083:1084  1 */\n      0x01\n        /* \"contracts/Governance/Reputation.sol\":1073:1079  _score */\n      dup2\n        /* \"contracts/Governance/Reputation.sol\":1073:1084  _score >= 1 */\n      lt\n      iszero\n        /* \"contracts/Governance/Reputation.sol\":1073:1099  _score >= 1 && _score <= 5 */\n      dup1\n      iszero\n      tag_29\n      jumpi\n      pop\n        /* \"contracts/Governance/Reputation.sol\":1098:1099  5 */\n      0x05\n        /* \"contracts/Governance/Reputation.sol\":1088:1094  _score */\n      dup2\n        /* \"contracts/Governance/Reputation.sol\":1088:1099  _score <= 5 */\n      gt\n      iszero\n        /* \"contracts/Governance/Reputation.sol\":1073:1099  _score >= 1 && _score <= 5 */\n    tag_29:\n        /* \"contracts/Governance/Reputation.sol\":1065:1145  require(_score >= 1 && _score <= 5, \"Reputation: Score must be between 1 and 5\") */\n      tag_30\n      jumpi\n      mload(0x40)\n      0x08c379a000000000000000000000000000000000000000000000000000000000\n      dup2\n      mstore\n      0x04\n      add\n      tag_31\n      swap1\n      tag_32\n      jump\t// in\n    tag_31:\n      mload(0x40)\n      dup1\n      swap2\n      sub\n      swap1\n      revert\n    tag_30:\n        /* \"contracts/Governance/Reputation.sol\":1166:1206  IUserIdentity.UserProfile memory profile */\n      0x00\n        /* \"contracts/Governance/Reputation.sol\":1209:1221  userIdentity */\n      immutable(\"0xceebf77a833b30520287ddd9478ff51abbdffa30aa90a8d655dba0e8a79ce0c1\")\n        /* \"contracts/Governance/Reputation.sol\":1209:1232  userIdentity.getProfile */\n      0xffffffffffffffffffffffffffffffffffffffff\n      and\n      0x0f53a470\n        /* \"contracts/Governance/Reputation.sol\":1233:1239  _ratee */\n      dup5\n        /* \"contracts/Governance/Reputation.sol\":1209:1240  userIdentity.getProfile(_ratee) */\n      mload(0x40)\n      dup3\n      0xffffffff\n      and\n      0xe0\n      shl\n      dup2\n      mstore\n      0x04\n      add\n      tag_33\n      swap2\n      swap1\n      tag_18\n      jump\t// in\n    tag_33:\n      0x00\n      mload(0x40)\n      dup1\n      dup4\n      sub\n      dup2\n      dup7\n      gas\n      staticcall\n      iszero\n      dup1\n      iszero\n      tag_35\n      jumpi\n      returndatacopy(0x00, 0x00, returndatasize)\n      revert(0x00, returndatasize)\n    tag_35:\n      pop\n      pop\n      pop\n      pop\n      mload(0x40)\n      returndatasize\n      0x00\n      dup3\n      returndatacopy\n      returndatasize\n      not(0x1f)\n      0x1f\n      dup3\n      add\n      and\n      dup3\n      add\n      dup1\n      0x40\n      mstore\n      pop\n      dup2\n      add\n      swap1\n      tag_36\n      swap2\n      swap1\n      tag_37\n      jump\t// in\n    tag_36:\n        /* \"contracts/Governance/Reputation.sol\":1166:1240  IUserIdentity.UserProfile memory profile = userIdentity.getProfile(_ratee) */\n      swap1\n      pop\n        /* \"contracts/Governance/Reputation.sol\":1251:1271  uint256 currentScore */\n      0x00\n        /* \"contracts/Governance/Reputation.sol\":1274:1281  profile */\n      dup2\n        /* \"contracts/Governance/Reputation.sol\":1274:1297  profile.reputationScore */\n      0x80\n      add\n      mload\n        /* \"contracts/Governance/Reputation.sol\":1251:1297  uint256 currentScore = profile.reputationScore */\n      swap1\n      pop\n        /* \"contracts/Governance/Reputation.sol\":1308:1333  uint256 projectsCompleted */\n      0x00\n        /* \"contracts/Governance/Reputation.sol\":1336:1343  profile */\n      dup3\n        /* \"contracts/Governance/Reputation.sol\":1336:1361  profile.projectsCompleted */\n      0xa0\n      add\n      mload\n        /* \"contracts/Governance/Reputation.sol\":1308:1361  uint256 projectsCompleted = profile.projectsCompleted */\n      swap1\n      pop\n        /* \"contracts/Governance/Reputation.sol\":1502:1521  uint256 scaledScore */\n      0x00\n        /* \"contracts/Governance/Reputation.sol\":1533:1536  100 */\n      0x64\n        /* \"contracts/Governance/Reputation.sol\":1524:1530  _score */\n      dup6\n        /* \"contracts/Governance/Reputation.sol\":1524:1536  _score * 100 */\n      tag_38\n      swap2\n      swap1\n      tag_39\n      jump\t// in\n    tag_38:\n        /* \"contracts/Governance/Reputation.sol\":1502:1536  uint256 scaledScore = _score * 100 */\n      swap1\n      pop\n        /* \"contracts/Governance/Reputation.sol\":1698:1714  uint256 newScore */\n      0x00\n        /* \"contracts/Governance/Reputation.sol\":1750:1751  0 */\n      0x00\n        /* \"contracts/Governance/Reputation.sol\":1729:1746  projectsCompleted */\n      dup4\n        /* \"contracts/Governance/Reputation.sol\":1729:1751  projectsCompleted == 0 */\n      sub\n        /* \"contracts/Governance/Reputation.sol\":1725:1922  if (projectsCompleted == 0) {... */\n      tag_40\n      jumpi\n        /* \"contracts/Governance/Reputation.sol\":1779:1790  scaledScore */\n      dup2\n        /* \"contracts/Governance/Reputation.sol\":1768:1790  newScore = scaledScore */\n      swap1\n      pop\n        /* \"contracts/Governance/Reputation.sol\":1725:1922  if (projectsCompleted == 0) {... */\n      jump(tag_41)\n    tag_40:\n        /* \"contracts/Governance/Reputation.sol\":1908:1909  1 */\n      0x01\n        /* \"contracts/Governance/Reputation.sol\":1888:1905  projectsCompleted */\n      dup4\n        /* \"contracts/Governance/Reputation.sol\":1888:1909  projectsCompleted + 1 */\n      tag_42\n      swap2\n      swap1\n      tag_43\n      jump\t// in\n    tag_42:\n        /* \"contracts/Governance/Reputation.sol\":1872:1883  scaledScore */\n      dup3\n        /* \"contracts/Governance/Reputation.sol\":1851:1868  projectsCompleted */\n      dup5\n        /* \"contracts/Governance/Reputation.sol\":1836:1848  currentScore */\n      dup7\n        /* \"contracts/Governance/Reputation.sol\":1836:1868  currentScore * projectsCompleted */\n      tag_44\n      swap2\n      swap1\n      tag_39\n      jump\t// in\n    tag_44:\n        /* \"contracts/Governance/Reputation.sol\":1835:1883  (currentScore * projectsCompleted) + scaledScore */\n      tag_45\n      swap2\n      swap1\n      tag_43\n      jump\t// in\n    tag_45:\n        /* \"contracts/Governance/Reputation.sol\":1834:1910  ((currentScore * projectsCompleted) + scaledScore) / (projectsCompleted + 1) */\n      tag_46\n      swap2\n      swap1\n      tag_47\n      jump\t// in\n    tag_46:\n        /* \"contracts/Governance/Reputation.sol\":1823:1910  newScore = ((currentScore * projectsCompleted) + scaledScore) / (projectsCompleted + 1) */\n      swap1\n      pop\n        /* \"contracts/Governance/Reputation.sol\":1725:1922  if (projectsCompleted == 0) {... */\n    tag_41:\n        /* \"contracts/Governance/Reputation.sol\":1942:1954  userIdentity */\n      immutable(\"0xceebf77a833b30520287ddd9478ff51abbdffa30aa90a8d655dba0e8a79ce0c1\")\n        /* \"contracts/Governance/Reputation.sol\":1942:1971  userIdentity.updateReputation */\n      0xffffffffffffffffffffffffffffffffffffffff\n      and\n      0xf5c91a08\n        /* \"contracts/Governance/Reputation.sol\":1972:1978  _ratee */\n      dup9\n        /* \"contracts/Governance/Reputation.sol\":1980:1988  newScore */\n      dup4\n        /* \"contracts/Governance/Reputation.sol\":1942:1989  userIdentity.updateReputation(_ratee, newScore) */\n      mload(0x40)\n      dup4\n      0xffffffff\n      and\n      0xe0\n      shl\n      dup2\n      mstore\n      0x04\n      add\n      tag_48\n      swap3\n      swap2\n      swap1\n      tag_49\n      jump\t// in\n    tag_48:\n      0x00\n      mload(0x40)\n      dup1\n      dup4\n      sub\n      dup2\n      0x00\n      dup8\n      dup1\n      extcodesize\n      iszero\n      dup1\n      iszero\n      tag_50\n      jumpi\n      revert(0x00, 0x00)\n    tag_50:\n      pop\n      gas\n      call\n      iszero\n      dup1\n      iszero\n      tag_52\n      jumpi\n      returndatacopy(0x00, 0x00, returndatasize)\n      revert(0x00, returndatasize)\n    tag_52:\n      pop\n      pop\n      pop\n      pop\n        /* \"contracts/Governance/Reputation.sol\":2039:2045  _ratee */\n      dup7\n        /* \"contracts/Governance/Reputation.sol\":2015:2054  RatingSubmitted(_rater, _ratee, _score) */\n      0xffffffffffffffffffffffffffffffffffffffff\n      and\n        /* \"contracts/Governance/Reputation.sol\":2031:2037  _rater */\n      dup9\n        /* \"contracts/Governance/Reputation.sol\":2015:2054  RatingSubmitted(_rater, _ratee, _score) */\n      0xffffffffffffffffffffffffffffffffffffffff\n      and\n      0xdcba9448b55b807611f7e3ece24acdc6afaec1d8c5a16f3e70c571758f606654\n        /* \"contracts/Governance/Reputation.sol\":2047:2053  _score */\n      dup9\n        /* \"contracts/Governance/Reputation.sol\":2015:2054  RatingSubmitted(_rater, _ratee, _score) */\n      mload(0x40)\n      tag_53\n      swap2\n      swap1\n      tag_54\n      jump\t// in\n    tag_53:\n      mload(0x40)\n      dup1\n      swap2\n      sub\n      swap1\n      log3\n        /* \"contracts/Governance/Reputation.sol\":1054:2062  {... */\n      pop\n      pop\n      pop\n      pop\n      pop\n        /* \"contracts/Governance/Reputation.sol\":960:2062  function submitRating(address _rater, address _ratee, uint256 _score) external onlyAuthorized {... */\n      pop\n      pop\n      pop\n      jump\t// out\n        /* \"contracts/Governance/Reputation.sol\":183:214  address public projectAuthority */\n    tag_16:\n      0x00\n      0x00\n      swap1\n      sload\n      swap1\n      0x0100\n      exp\n      swap1\n      div\n      0xffffffffffffffffffffffffffffffffffffffff\n      and\n      dup2\n      jump\t// out\n        /* \"contracts/Governance/Reputation.sol\":133:176  IUserIdentity public immutable userIdentity */\n    tag_20:\n      immutable(\"0xceebf77a833b30520287ddd9478ff51abbdffa30aa90a8d655dba0e8a79ce0c1\")\n      dup2\n      jump\t// out\n        /* \"#utility.yul\":7:82   */\n    tag_55:\n        /* \"#utility.yul\":40:46   */\n      0x00\n        /* \"#utility.yul\":73:75   */\n      0x40\n        /* \"#utility.yul\":67:76   */\n      mload\n        /* \"#utility.yul\":57:76   */\n      swap1\n      pop\n        /* \"#utility.yul\":7:82   */\n      swap1\n      jump\t// out\n        /* \"#utility.yul\":88:205   */\n    tag_56:\n        /* \"#utility.yul\":197:198   */\n      0x00\n        /* \"#utility.yul\":194:195   */\n      0x00\n        /* \"#utility.yul\":187:199   */\n      revert\n        /* \"#utility.yul\":211:328   */\n    tag_57:\n        /* \"#utility.yul\":320:321   */\n      0x00\n        /* \"#utility.yul\":317:318   */\n      0x00\n        /* \"#utility.yul\":310:322   */\n      revert\n        /* \"#utility.yul\":334:460   */\n    tag_58:\n        /* \"#utility.yul\":371:378   */\n      0x00\n        /* \"#utility.yul\":411:453   */\n      0xffffffffffffffffffffffffffffffffffffffff\n        /* \"#utility.yul\":404:409   */\n      dup3\n        /* \"#utility.yul\":400:454   */\n      and\n        /* \"#utility.yul\":389:454   */\n      swap1\n      pop\n        /* \"#utility.yul\":334:460   */\n      swap2\n      swap1\n      pop\n      jump\t// out\n        /* \"#utility.yul\":466:562   */\n    tag_59:\n        /* \"#utility.yul\":503:510   */\n      0x00\n        /* \"#utility.yul\":532:556   */\n      tag_103\n        /* \"#utility.yul\":550:555   */\n      dup3\n        /* \"#utility.yul\":532:556   */\n      tag_58\n      jump\t// in\n    tag_103:\n        /* \"#utility.yul\":521:556   */\n      swap1\n      pop\n        /* \"#utility.yul\":466:562   */\n      swap2\n      swap1\n      pop\n      jump\t// out\n        /* \"#utility.yul\":568:690   */\n    tag_60:\n        /* \"#utility.yul\":641:665   */\n      tag_105\n        /* \"#utility.yul\":659:664   */\n      dup2\n        /* \"#utility.yul\":641:665   */\n      tag_59\n      jump\t// in\n    tag_105:\n        /* \"#utility.yul\":634:639   */\n      dup2\n        /* \"#utility.yul\":631:666   */\n      eq\n        /* \"#utility.yul\":621:684   */\n      tag_106\n      jumpi\n        /* \"#utility.yul\":680:681   */\n      0x00\n        /* \"#utility.yul\":677:678   */\n      0x00\n        /* \"#utility.yul\":670:682   */\n      revert\n        /* \"#utility.yul\":621:684   */\n    tag_106:\n        /* \"#utility.yul\":568:690   */\n      pop\n      jump\t// out\n        /* \"#utility.yul\":696:835   */\n    tag_61:\n        /* \"#utility.yul\":742:747   */\n      0x00\n        /* \"#utility.yul\":780:786   */\n      dup2\n        /* \"#utility.yul\":767:787   */\n      calldataload\n        /* \"#utility.yul\":758:787   */\n      swap1\n      pop\n        /* \"#utility.yul\":796:829   */\n      tag_108\n        /* \"#utility.yul\":823:828   */\n      dup2\n        /* \"#utility.yul\":796:829   */\n      tag_60\n      jump\t// in\n    tag_108:\n        /* \"#utility.yul\":696:835   */\n      swap3\n      swap2\n      pop\n      pop\n      jump\t// out\n        /* \"#utility.yul\":841:1170   */\n    tag_9:\n        /* \"#utility.yul\":900:906   */\n      0x00\n        /* \"#utility.yul\":949:951   */\n      0x20\n        /* \"#utility.yul\":937:946   */\n      dup3\n        /* \"#utility.yul\":928:935   */\n      dup5\n        /* \"#utility.yul\":924:947   */\n      sub\n        /* \"#utility.yul\":920:952   */\n      slt\n        /* \"#utility.yul\":917:1036   */\n      iszero\n      tag_110\n      jumpi\n        /* \"#utility.yul\":955:1034   */\n      tag_111\n      tag_56\n      jump\t// in\n    tag_111:\n        /* \"#utility.yul\":917:1036   */\n    tag_110:\n        /* \"#utility.yul\":1075:1076   */\n      0x00\n        /* \"#utility.yul\":1100:1153   */\n      tag_112\n        /* \"#utility.yul\":1145:1152   */\n      dup5\n        /* \"#utility.yul\":1136:1142   */\n      dup3\n        /* \"#utility.yul\":1125:1134   */\n      dup6\n        /* \"#utility.yul\":1121:1143   */\n      add\n        /* \"#utility.yul\":1100:1153   */\n      tag_61\n      jump\t// in\n    tag_112:\n        /* \"#utility.yul\":1090:1153   */\n      swap2\n      pop\n        /* \"#utility.yul\":1046:1163   */\n      pop\n        /* \"#utility.yul\":841:1170   */\n      swap3\n      swap2\n      pop\n      pop\n      jump\t// out\n        /* \"#utility.yul\":1176:1253   */\n    tag_62:\n        /* \"#utility.yul\":1213:1220   */\n      0x00\n        /* \"#utility.yul\":1242:1247   */\n      dup2\n        /* \"#utility.yul\":1231:1247   */\n      swap1\n      pop\n        /* \"#utility.yul\":1176:1253   */\n      swap2\n      swap1\n      pop\n      jump\t// out\n        /* \"#utility.yul\":1259:1381   */\n    tag_63:\n        /* \"#utility.yul\":1332:1356   */\n      tag_115\n        /* \"#utility.yul\":1350:1355   */\n      dup2\n        /* \"#utility.yul\":1332:1356   */\n      tag_62\n      jump\t// in\n    tag_115:\n        /* \"#utility.yul\":1325:1330   */\n      dup2\n        /* \"#utility.yul\":1322:1357   */\n      eq\n        /* \"#utility.yul\":1312:1375   */\n      tag_116\n      jumpi\n        /* \"#utility.yul\":1371:1372   */\n      0x00\n        /* \"#utility.yul\":1368:1369   */\n      0x00\n        /* \"#utility.yul\":1361:1373   */\n      revert\n        /* \"#utility.yul\":1312:1375   */\n    tag_116:\n        /* \"#utility.yul\":1259:1381   */\n      pop\n      jump\t// out\n        /* \"#utility.yul\":1387:1526   */\n    tag_64:\n        /* \"#utility.yul\":1433:1438   */\n      0x00\n        /* \"#utility.yul\":1471:1477   */\n      dup2\n        /* \"#utility.yul\":1458:1478   */\n      calldataload\n        /* \"#utility.yul\":1449:1478   */\n      swap1\n      pop\n        /* \"#utility.yul\":1487:1520   */\n      tag_118\n        /* \"#utility.yul\":1514:1519   */\n      dup2\n        /* \"#utility.yul\":1487:1520   */\n      tag_63\n      jump\t// in\n    tag_118:\n        /* \"#utility.yul\":1387:1526   */\n      swap3\n      swap2\n      pop\n      pop\n      jump\t// out\n        /* \"#utility.yul\":1532:2151   */\n    tag_13:\n        /* \"#utility.yul\":1609:1615   */\n      0x00\n        /* \"#utility.yul\":1617:1623   */\n      0x00\n        /* \"#utility.yul\":1625:1631   */\n      0x00\n        /* \"#utility.yul\":1674:1676   */\n      0x60\n        /* \"#utility.yul\":1662:1671   */\n      dup5\n        /* \"#utility.yul\":1653:1660   */\n      dup7\n        /* \"#utility.yul\":1649:1672   */\n      sub\n        /* \"#utility.yul\":1645:1677   */\n      slt\n        /* \"#utility.yul\":1642:1761   */\n      iszero\n      tag_120\n      jumpi\n        /* \"#utility.yul\":1680:1759   */\n      tag_121\n      tag_56\n      jump\t// in\n    tag_121:\n        /* \"#utility.yul\":1642:1761   */\n    tag_120:\n        /* \"#utility.yul\":1800:1801   */\n      0x00\n        /* \"#utility.yul\":1825:1878   */\n      tag_122\n        /* \"#utility.yul\":1870:1877   */\n      dup7\n        /* \"#utility.yul\":1861:1867   */\n      dup3\n        /* \"#utility.yul\":1850:1859   */\n      dup8\n        /* \"#utility.yul\":1846:1868   */\n      add\n        /* \"#utility.yul\":1825:1878   */\n      tag_61\n      jump\t// in\n    tag_122:\n        /* \"#utility.yul\":1815:1878   */\n      swap4\n      pop\n        /* \"#utility.yul\":1771:1888   */\n      pop\n        /* \"#utility.yul\":1927:1929   */\n      0x20\n        /* \"#utility.yul\":1953:2006   */\n      tag_123\n        /* \"#utility.yul\":1998:2005   */\n      dup7\n        /* \"#utility.yul\":1989:1995   */\n      dup3\n        /* \"#utility.yul\":1978:1987   */\n      dup8\n        /* \"#utility.yul\":1974:1996   */\n      add\n        /* \"#utility.yul\":1953:2006   */\n      tag_61\n      jump\t// in\n    tag_123:\n        /* \"#utility.yul\":1943:2006   */\n      swap3\n      pop\n        /* \"#utility.yul\":1898:2016   */\n      pop\n        /* \"#utility.yul\":2055:2057   */\n      0x40\n        /* \"#utility.yul\":2081:2134   */\n      tag_124\n        /* \"#utility.yul\":2126:2133   */\n      dup7\n        /* \"#utility.yul\":2117:2123   */\n      dup3\n        /* \"#utility.yul\":2106:2115   */\n      dup8\n        /* \"#utility.yul\":2102:2124   */\n      add\n        /* \"#utility.yul\":2081:2134   */\n      tag_64\n      jump\t// in\n    tag_124:\n        /* \"#utility.yul\":2071:2134   */\n      swap2\n      pop\n        /* \"#utility.yul\":2026:2144   */\n      pop\n        /* \"#utility.yul\":1532:2151   */\n      swap3\n      pop\n      swap3\n      pop\n      swap3\n      jump\t// out\n        /* \"#utility.yul\":2157:2275   */\n    tag_65:\n        /* \"#utility.yul\":2244:2268   */\n      tag_126\n        /* \"#utility.yul\":2262:2267   */\n      dup2\n        /* \"#utility.yul\":2244:2268   */\n      tag_59\n      jump\t// in\n    tag_126:\n        /* \"#utility.yul\":2239:2242   */\n      dup3\n        /* \"#utility.yul\":2232:2269   */\n      mstore\n        /* \"#utility.yul\":2157:2275   */\n      pop\n      pop\n      jump\t// out\n        /* \"#utility.yul\":2281:2503   */\n    tag_18:\n        /* \"#utility.yul\":2374:2378   */\n      0x00\n        /* \"#utility.yul\":2412:2414   */\n      0x20\n        /* \"#utility.yul\":2401:2410   */\n      dup3\n        /* \"#utility.yul\":2397:2415   */\n      add\n        /* \"#utility.yul\":2389:2415   */\n      swap1\n      pop\n        /* \"#utility.yul\":2425:2496   */\n      tag_128\n        /* \"#utility.yul\":2493:2494   */\n      0x00\n        /* \"#utility.yul\":2482:2491   */\n      dup4\n        /* \"#utility.yul\":2478:2495   */\n      add\n        /* \"#utility.yul\":2469:2475   */\n      dup5\n        /* \"#utility.yul\":2425:2496   */\n      tag_65\n      jump\t// in\n    tag_128:\n        /* \"#utility.yul\":2281:2503   */\n      swap3\n      swap2\n      pop\n      pop\n      jump\t// out\n        /* \"#utility.yul\":2509:2569   */\n    tag_66:\n        /* \"#utility.yul\":2537:2540   */\n      0x00\n        /* \"#utility.yul\":2558:2563   */\n      dup2\n        /* \"#utility.yul\":2551:2563   */\n      swap1\n      pop\n        /* \"#utility.yul\":2509:2569   */\n      swap2\n      swap1\n      pop\n      jump\t// out\n        /* \"#utility.yul\":2575:2717   */\n    tag_67:\n        /* \"#utility.yul\":2625:2634   */\n      0x00\n        /* \"#utility.yul\":2658:2711   */\n      tag_131\n        /* \"#utility.yul\":2676:2710   */\n      tag_132\n        /* \"#utility.yul\":2685:2709   */\n      tag_133\n        /* \"#utility.yul\":2703:2708   */\n      dup5\n        /* \"#utility.yul\":2685:2709   */\n      tag_58\n      jump\t// in\n    tag_133:\n        /* \"#utility.yul\":2676:2710   */\n      tag_66\n      jump\t// in\n    tag_132:\n        /* \"#utility.yul\":2658:2711   */\n      tag_58\n      jump\t// in\n    tag_131:\n        /* \"#utility.yul\":2645:2711   */\n      swap1\n      pop\n        /* \"#utility.yul\":2575:2717   */\n      swap2\n      swap1\n      pop\n      jump\t// out\n        /* \"#utility.yul\":2723:2849   */\n    tag_68:\n        /* \"#utility.yul\":2773:2782   */\n      0x00\n        /* \"#utility.yul\":2806:2843   */\n      tag_135\n        /* \"#utility.yul\":2837:2842   */\n      dup3\n        /* \"#utility.yul\":2806:2843   */\n      tag_67\n      jump\t// in\n    tag_135:\n        /* \"#utility.yul\":2793:2843   */\n      swap1\n      pop\n        /* \"#utility.yul\":2723:2849   */\n      swap2\n      swap1\n      pop\n      jump\t// out\n        /* \"#utility.yul\":2855:3002   */\n    tag_69:\n        /* \"#utility.yul\":2926:2935   */\n      0x00\n        /* \"#utility.yul\":2959:2996   */\n      tag_137\n        /* \"#utility.yul\":2990:2995   */\n      dup3\n        /* \"#utility.yul\":2959:2996   */\n      tag_68\n      jump\t// in\n    tag_137:\n        /* \"#utility.yul\":2946:2996   */\n      swap1\n      pop\n        /* \"#utility.yul\":2855:3002   */\n      swap2\n      swap1\n      pop\n      jump\t// out\n        /* \"#utility.yul\":3008:3181   */\n    tag_70:\n        /* \"#utility.yul\":3116:3174   */\n      tag_139\n        /* \"#utility.yul\":3168:3173   */\n      dup2\n        /* \"#utility.yul\":3116:3174   */\n      tag_69\n      jump\t// in\n    tag_139:\n        /* \"#utility.yul\":3111:3114   */\n      dup3\n        /* \"#utility.yul\":3104:3175   */\n      mstore\n        /* \"#utility.yul\":3008:3181   */\n      pop\n      pop\n      jump\t// out\n        /* \"#utility.yul\":3187:3451   */\n    tag_22:\n        /* \"#utility.yul\":3301:3305   */\n      0x00\n        /* \"#utility.yul\":3339:3341   */\n      0x20\n        /* \"#utility.yul\":3328:3337   */\n      dup3\n        /* \"#utility.yul\":3324:3342   */\n      add\n        /* \"#utility.yul\":3316:3342   */\n      swap1\n      pop\n        /* \"#utility.yul\":3352:3444   */\n      tag_141\n        /* \"#utility.yul\":3441:3442   */\n      0x00\n        /* \"#utility.yul\":3430:3439   */\n      dup4\n        /* \"#utility.yul\":3426:3443   */\n      add\n        /* \"#utility.yul\":3417:3423   */\n      dup5\n        /* \"#utility.yul\":3352:3444   */\n      tag_70\n      jump\t// in\n    tag_141:\n        /* \"#utility.yul\":3187:3451   */\n      swap3\n      swap2\n      pop\n      pop\n      jump\t// out\n        /* \"#utility.yul\":3457:3626   */\n    tag_71:\n        /* \"#utility.yul\":3541:3552   */\n      0x00\n        /* \"#utility.yul\":3575:3581   */\n      dup3\n        /* \"#utility.yul\":3570:3573   */\n      dup3\n        /* \"#utility.yul\":3563:3582   */\n      mstore\n        /* \"#utility.yul\":3615:3619   */\n      0x20\n        /* \"#utility.yul\":3610:3613   */\n      dup3\n        /* \"#utility.yul\":3606:3620   */\n      add\n        /* \"#utility.yul\":3591:3620   */\n      swap1\n      pop\n        /* \"#utility.yul\":3457:3626   */\n      swap3\n      swap2\n      pop\n      pop\n      jump\t// out\n        /* \"#utility.yul\":3632:3855   */\n    tag_72:\n        /* \"#utility.yul\":3772:3806   */\n      0x52657075746174696f6e3a204e6f7420616e20617574686f72697a6564206361\n        /* \"#utility.yul\":3768:3769   */\n      0x00\n        /* \"#utility.yul\":3760:3766   */\n      dup3\n        /* \"#utility.yul\":3756:3770   */\n      add\n        /* \"#utility.yul\":3749:3807   */\n      mstore\n        /* \"#utility.yul\":3841:3847   */\n      0x6c6c657200000000000000000000000000000000000000000000000000000000\n        /* \"#utility.yul\":3836:3838   */\n      0x20\n        /* \"#utility.yul\":3828:3834   */\n      dup3\n        /* \"#utility.yul\":3824:3839   */\n      add\n        /* \"#utility.yul\":3817:3848   */\n      mstore\n        /* \"#utility.yul\":3632:3855   */\n      pop\n      jump\t// out\n        /* \"#utility.yul\":3861:4227   */\n    tag_73:\n        /* \"#utility.yul\":4003:4006   */\n      0x00\n        /* \"#utility.yul\":4024:4091   */\n      tag_145\n        /* \"#utility.yul\":4088:4090   */\n      0x24\n        /* \"#utility.yul\":4083:4086   */\n      dup4\n        /* \"#utility.yul\":4024:4091   */\n      tag_71\n      jump\t// in\n    tag_145:\n        /* \"#utility.yul\":4017:4091   */\n      swap2\n      pop\n        /* \"#utility.yul\":4100:4193   */\n      tag_146\n        /* \"#utility.yul\":4189:4192   */\n      dup3\n        /* \"#utility.yul\":4100:4193   */\n      tag_72\n      jump\t// in\n    tag_146:\n        /* \"#utility.yul\":4218:4220   */\n      0x40\n        /* \"#utility.yul\":4213:4216   */\n      dup3\n        /* \"#utility.yul\":4209:4221   */\n      add\n        /* \"#utility.yul\":4202:4221   */\n      swap1\n      pop\n        /* \"#utility.yul\":3861:4227   */\n      swap2\n      swap1\n      pop\n      jump\t// out\n        /* \"#utility.yul\":4233:4652   */\n    tag_27:\n        /* \"#utility.yul\":4399:4403   */\n      0x00\n        /* \"#utility.yul\":4437:4439   */\n      0x20\n        /* \"#utility.yul\":4426:4435   */\n      dup3\n        /* \"#utility.yul\":4422:4440   */\n      add\n        /* \"#utility.yul\":4414:4440   */\n      swap1\n      pop\n        /* \"#utility.yul\":4486:4495   */\n      dup2\n        /* \"#utility.yul\":4480:4484   */\n      dup2\n        /* \"#utility.yul\":4476:4496   */\n      sub\n        /* \"#utility.yul\":4472:4473   */\n      0x00\n        /* \"#utility.yul\":4461:4470   */\n      dup4\n        /* \"#utility.yul\":4457:4474   */\n      add\n        /* \"#utility.yul\":4450:4497   */\n      mstore\n        /* \"#utility.yul\":4514:4645   */\n      tag_148\n        /* \"#utility.yul\":4640:4644   */\n      dup2\n        /* \"#utility.yul\":4514:4645   */\n      tag_73\n      jump\t// in\n    tag_148:\n        /* \"#utility.yul\":4506:4645   */\n      swap1\n      pop\n        /* \"#utility.yul\":4233:4652   */\n      swap2\n      swap1\n      pop\n      jump\t// out\n        /* \"#utility.yul\":4658:4886   */\n    tag_74:\n        /* \"#utility.yul\":4798:4832   */\n      0x52657075746174696f6e3a2053636f7265206d75737420626520626574776565\n        /* \"#utility.yul\":4794:4795   */\n      0x00\n        /* \"#utility.yul\":4786:4792   */\n      dup3\n        /* \"#utility.yul\":4782:4796   */\n      add\n        /* \"#utility.yul\":4775:4833   */\n      mstore\n        /* \"#utility.yul\":4867:4878   */\n      0x6e203120616e6420350000000000000000000000000000000000000000000000\n        /* \"#utility.yul\":4862:4864   */\n      0x20\n        /* \"#utility.yul\":4854:4860   */\n      dup3\n        /* \"#utility.yul\":4850:4865   */\n      add\n        /* \"#utility.yul\":4843:4879   */\n      mstore\n        /* \"#utility.yul\":4658:4886   */\n      pop\n      jump\t// out\n        /* \"#utility.yul\":4892:5258   */\n    tag_75:\n        /* \"#utility.yul\":5034:5037   */\n      0x00\n        /* \"#utility.yul\":5055:5122   */\n      tag_151\n        /* \"#utility.yul\":5119:5121   */\n      0x29\n        /* \"#utility.yul\":5114:5117   */\n      dup4\n        /* \"#utility.yul\":5055:5122   */\n      tag_71\n      jump\t// in\n    tag_151:\n        /* \"#utility.yul\":5048:5122   */\n      swap2\n      pop\n        /* \"#utility.yul\":5131:5224   */\n      tag_152\n        /* \"#utility.yul\":5220:5223   */\n      dup3\n        /* \"#utility.yul\":5131:5224   */\n      tag_74\n      jump\t// in\n    tag_152:\n        /* \"#utility.yul\":5249:5251   */\n      0x40\n        /* \"#utility.yul\":5244:5247   */\n      dup3\n        /* \"#utility.yul\":5240:5252   */\n      add\n        /* \"#utility.yul\":5233:5252   */\n      swap1\n      pop\n        /* \"#utility.yul\":4892:5258   */\n      swap2\n      swap1\n      pop\n      jump\t// out\n        /* \"#utility.yul\":5264:5683   */\n    tag_32:\n        /* \"#utility.yul\":5430:5434   */\n      0x00\n        /* \"#utility.yul\":5468:5470   */\n      0x20\n        /* \"#utility.yul\":5457:5466   */\n      dup3\n        /* \"#utility.yul\":5453:5471   */\n      add\n        /* \"#utility.yul\":5445:5471   */\n      swap1\n      pop\n        /* \"#utility.yul\":5517:5526   */\n      dup2\n        /* \"#utility.yul\":5511:5515   */\n      dup2\n        /* \"#utility.yul\":5507:5527   */\n      sub\n        /* \"#utility.yul\":5503:5504   */\n      0x00\n        /* \"#utility.yul\":5492:5501   */\n      dup4\n        /* \"#utility.yul\":5488:5505   */\n      add\n        /* \"#utility.yul\":5481:5528   */\n      mstore\n        /* \"#utility.yul\":5545:5676   */\n      tag_154\n        /* \"#utility.yul\":5671:5675   */\n      dup2\n        /* \"#utility.yul\":5545:5676   */\n      tag_75\n      jump\t// in\n    tag_154:\n        /* \"#utility.yul\":5537:5676   */\n      swap1\n      pop\n        /* \"#utility.yul\":5264:5683   */\n      swap2\n      swap1\n      pop\n      jump\t// out\n        /* \"#utility.yul\":5689:5806   */\n    tag_76:\n        /* \"#utility.yul\":5798:5799   */\n      0x00\n        /* \"#utility.yul\":5795:5796   */\n      0x00\n        /* \"#utility.yul\":5788:5800   */\n      revert\n        /* \"#utility.yul\":5812:5914   */\n    tag_77:\n        /* \"#utility.yul\":5853:5859   */\n      0x00\n        /* \"#utility.yul\":5904:5906   */\n      0x1f\n        /* \"#utility.yul\":5900:5907   */\n      not\n        /* \"#utility.yul\":5895:5897   */\n      0x1f\n        /* \"#utility.yul\":5888:5893   */\n      dup4\n        /* \"#utility.yul\":5884:5898   */\n      add\n        /* \"#utility.yul\":5880:5908   */\n      and\n        /* \"#utility.yul\":5870:5908   */\n      swap1\n      pop\n        /* \"#utility.yul\":5812:5914   */\n      swap2\n      swap1\n      pop\n      jump\t// out\n        /* \"#utility.yul\":5920:6100   */\n    tag_78:\n        /* \"#utility.yul\":5968:6045   */\n      0x4e487b7100000000000000000000000000000000000000000000000000000000\n        /* \"#utility.yul\":5965:5966   */\n      0x00\n        /* \"#utility.yul\":5958:6046   */\n      mstore\n        /* \"#utility.yul\":6065:6069   */\n      0x41\n        /* \"#utility.yul\":6062:6063   */\n      0x04\n        /* \"#utility.yul\":6055:6070   */\n      mstore\n        /* \"#utility.yul\":6089:6093   */\n      0x24\n        /* \"#utility.yul\":6086:6087   */\n      0x00\n        /* \"#utility.yul\":6079:6094   */\n      revert\n        /* \"#utility.yul\":6106:6387   */\n    tag_79:\n        /* \"#utility.yul\":6189:6216   */\n      tag_159\n        /* \"#utility.yul\":6211:6215   */\n      dup3\n        /* \"#utility.yul\":6189:6216   */\n      tag_77\n      jump\t// in\n    tag_159:\n        /* \"#utility.yul\":6181:6187   */\n      dup2\n        /* \"#utility.yul\":6177:6217   */\n      add\n        /* \"#utility.yul\":6319:6325   */\n      dup2\n        /* \"#utility.yul\":6307:6317   */\n      dup2\n        /* \"#utility.yul\":6304:6326   */\n      lt\n        /* \"#utility.yul\":6283:6301   */\n      0xffffffffffffffff\n        /* \"#utility.yul\":6271:6281   */\n      dup3\n        /* \"#utility.yul\":6268:6302   */\n      gt\n        /* \"#utility.yul\":6265:6327   */\n      or\n        /* \"#utility.yul\":6262:6350   */\n      iszero\n      tag_160\n      jumpi\n        /* \"#utility.yul\":6330:6348   */\n      tag_161\n      tag_78\n      jump\t// in\n    tag_161:\n        /* \"#utility.yul\":6262:6350   */\n    tag_160:\n        /* \"#utility.yul\":6370:6380   */\n      dup1\n        /* \"#utility.yul\":6366:6368   */\n      0x40\n        /* \"#utility.yul\":6359:6381   */\n      mstore\n        /* \"#utility.yul\":6149:6387   */\n      pop\n        /* \"#utility.yul\":6106:6387   */\n      pop\n      pop\n      jump\t// out\n        /* \"#utility.yul\":6393:6522   */\n    tag_80:\n        /* \"#utility.yul\":6427:6433   */\n      0x00\n        /* \"#utility.yul\":6454:6474   */\n      tag_163\n      tag_55\n      jump\t// in\n    tag_163:\n        /* \"#utility.yul\":6444:6474   */\n      swap1\n      pop\n        /* \"#utility.yul\":6483:6516   */\n      tag_164\n        /* \"#utility.yul\":6511:6515   */\n      dup3\n        /* \"#utility.yul\":6503:6509   */\n      dup3\n        /* \"#utility.yul\":6483:6516   */\n      tag_79\n      jump\t// in\n    tag_164:\n        /* \"#utility.yul\":6393:6522   */\n      swap2\n      swap1\n      pop\n      jump\t// out\n        /* \"#utility.yul\":6528:6645   */\n    tag_81:\n        /* \"#utility.yul\":6637:6638   */\n      0x00\n        /* \"#utility.yul\":6634:6635   */\n      0x00\n        /* \"#utility.yul\":6627:6639   */\n      revert\n        /* \"#utility.yul\":6651:6794   */\n    tag_82:\n        /* \"#utility.yul\":6708:6713   */\n      0x00\n        /* \"#utility.yul\":6739:6745   */\n      dup2\n        /* \"#utility.yul\":6733:6746   */\n      mload\n        /* \"#utility.yul\":6724:6746   */\n      swap1\n      pop\n        /* \"#utility.yul\":6755:6788   */\n      tag_167\n        /* \"#utility.yul\":6782:6787   */\n      dup2\n        /* \"#utility.yul\":6755:6788   */\n      tag_60\n      jump\t// in\n    tag_167:\n        /* \"#utility.yul\":6651:6794   */\n      swap3\n      swap2\n      pop\n      pop\n      jump\t// out\n        /* \"#utility.yul\":6800:6917   */\n    tag_83:\n        /* \"#utility.yul\":6909:6910   */\n      0x00\n        /* \"#utility.yul\":6906:6907   */\n      0x00\n        /* \"#utility.yul\":6899:6911   */\n      revert\n        /* \"#utility.yul\":6923:7040   */\n    tag_84:\n        /* \"#utility.yul\":7032:7033   */\n      0x00\n        /* \"#utility.yul\":7029:7030   */\n      0x00\n        /* \"#utility.yul\":7022:7034   */\n      revert\n        /* \"#utility.yul\":7046:7354   */\n    tag_85:\n        /* \"#utility.yul\":7108:7112   */\n      0x00\n        /* \"#utility.yul\":7198:7216   */\n      0xffffffffffffffff\n        /* \"#utility.yul\":7190:7196   */\n      dup3\n        /* \"#utility.yul\":7187:7217   */\n      gt\n        /* \"#utility.yul\":7184:7240   */\n      iszero\n      tag_171\n      jumpi\n        /* \"#utility.yul\":7220:7238   */\n      tag_172\n      tag_78\n      jump\t// in\n    tag_172:\n        /* \"#utility.yul\":7184:7240   */\n    tag_171:\n        /* \"#utility.yul\":7258:7287   */\n      tag_173\n        /* \"#utility.yul\":7280:7286   */\n      dup3\n        /* \"#utility.yul\":7258:7287   */\n      tag_77\n      jump\t// in\n    tag_173:\n        /* \"#utility.yul\":7250:7287   */\n      swap1\n      pop\n        /* \"#utility.yul\":7342:7346   */\n      0x20\n        /* \"#utility.yul\":7336:7340   */\n      dup2\n        /* \"#utility.yul\":7332:7347   */\n      add\n        /* \"#utility.yul\":7324:7347   */\n      swap1\n      pop\n        /* \"#utility.yul\":7046:7354   */\n      swap2\n      swap1\n      pop\n      jump\t// out\n        /* \"#utility.yul\":7360:7499   */\n    tag_86:\n        /* \"#utility.yul\":7449:7455   */\n      dup3\n        /* \"#utility.yul\":7444:7447   */\n      dup2\n        /* \"#utility.yul\":7439:7442   */\n      dup4\n        /* \"#utility.yul\":7433:7456   */\n      mcopy\n        /* \"#utility.yul\":7490:7491   */\n      0x00\n        /* \"#utility.yul\":7481:7487   */\n      dup4\n        /* \"#utility.yul\":7476:7479   */\n      dup4\n        /* \"#utility.yul\":7472:7488   */\n      add\n        /* \"#utility.yul\":7465:7492   */\n      mstore\n        /* \"#utility.yul\":7360:7499   */\n      pop\n      pop\n      pop\n      jump\t// out\n        /* \"#utility.yul\":7505:7939   */\n    tag_87:\n        /* \"#utility.yul\":7594:7599   */\n      0x00\n        /* \"#utility.yul\":7619:7685   */\n      tag_176\n        /* \"#utility.yul\":7635:7684   */\n      tag_177\n        /* \"#utility.yul\":7677:7683   */\n      dup5\n        /* \"#utility.yul\":7635:7684   */\n      tag_85\n      jump\t// in\n    tag_177:\n        /* \"#utility.yul\":7619:7685   */\n      tag_80\n      jump\t// in\n    tag_176:\n        /* \"#utility.yul\":7610:7685   */\n      swap1\n      pop\n        /* \"#utility.yul\":7708:7714   */\n      dup3\n        /* \"#utility.yul\":7701:7706   */\n      dup2\n        /* \"#utility.yul\":7694:7715   */\n      mstore\n        /* \"#utility.yul\":7746:7750   */\n      0x20\n        /* \"#utility.yul\":7739:7744   */\n      dup2\n        /* \"#utility.yul\":7735:7751   */\n      add\n        /* \"#utility.yul\":7784:7787   */\n      dup5\n        /* \"#utility.yul\":7775:7781   */\n      dup5\n        /* \"#utility.yul\":7770:7773   */\n      dup5\n        /* \"#utility.yul\":7766:7782   */\n      add\n        /* \"#utility.yul\":7763:7788   */\n      gt\n        /* \"#utility.yul\":7760:7872   */\n      iszero\n      tag_178\n      jumpi\n        /* \"#utility.yul\":7791:7870   */\n      tag_179\n      tag_84\n      jump\t// in\n    tag_179:\n        /* \"#utility.yul\":7760:7872   */\n    tag_178:\n        /* \"#utility.yul\":7881:7933   */\n      tag_180\n        /* \"#utility.yul\":7926:7932   */\n      dup5\n        /* \"#utility.yul\":7921:7924   */\n      dup3\n        /* \"#utility.yul\":7916:7919   */\n      dup6\n        /* \"#utility.yul\":7881:7933   */\n      tag_86\n      jump\t// in\n    tag_180:\n        /* \"#utility.yul\":7600:7939   */\n      pop\n        /* \"#utility.yul\":7505:7939   */\n      swap4\n      swap3\n      pop\n      pop\n      pop\n      jump\t// out\n        /* \"#utility.yul\":7959:8314   */\n    tag_88:\n        /* \"#utility.yul\":8026:8031   */\n      0x00\n        /* \"#utility.yul\":8075:8078   */\n      dup3\n        /* \"#utility.yul\":8068:8072   */\n      0x1f\n        /* \"#utility.yul\":8060:8066   */\n      dup4\n        /* \"#utility.yul\":8056:8073   */\n      add\n        /* \"#utility.yul\":8052:8079   */\n      slt\n        /* \"#utility.yul\":8042:8164   */\n      tag_182\n      jumpi\n        /* \"#utility.yul\":8083:8162   */\n      tag_183\n      tag_83\n      jump\t// in\n    tag_183:\n        /* \"#utility.yul\":8042:8164   */\n    tag_182:\n        /* \"#utility.yul\":8193:8199   */\n      dup2\n        /* \"#utility.yul\":8187:8200   */\n      mload\n        /* \"#utility.yul\":8218:8308   */\n      tag_184\n        /* \"#utility.yul\":8304:8307   */\n      dup5\n        /* \"#utility.yul\":8296:8302   */\n      dup3\n        /* \"#utility.yul\":8289:8293   */\n      0x20\n        /* \"#utility.yul\":8281:8287   */\n      dup7\n        /* \"#utility.yul\":8277:8294   */\n      add\n        /* \"#utility.yul\":8218:8308   */\n      tag_87\n      jump\t// in\n    tag_184:\n        /* \"#utility.yul\":8209:8308   */\n      swap2\n      pop\n        /* \"#utility.yul\":8032:8314   */\n      pop\n        /* \"#utility.yul\":7959:8314   */\n      swap3\n      swap2\n      pop\n      pop\n      jump\t// out\n        /* \"#utility.yul\":8320:8627   */\n    tag_89:\n        /* \"#utility.yul\":8381:8385   */\n      0x00\n        /* \"#utility.yul\":8471:8489   */\n      0xffffffffffffffff\n        /* \"#utility.yul\":8463:8469   */\n      dup3\n        /* \"#utility.yul\":8460:8490   */\n      gt\n        /* \"#utility.yul\":8457:8513   */\n      iszero\n      tag_186\n      jumpi\n        /* \"#utility.yul\":8493:8511   */\n      tag_187\n      tag_78\n      jump\t// in\n    tag_187:\n        /* \"#utility.yul\":8457:8513   */\n    tag_186:\n        /* \"#utility.yul\":8531:8560   */\n      tag_188\n        /* \"#utility.yul\":8553:8559   */\n      dup3\n        /* \"#utility.yul\":8531:8560   */\n      tag_77\n      jump\t// in\n    tag_188:\n        /* \"#utility.yul\":8523:8560   */\n      swap1\n      pop\n        /* \"#utility.yul\":8615:8619   */\n      0x20\n        /* \"#utility.yul\":8609:8613   */\n      dup2\n        /* \"#utility.yul\":8605:8620   */\n      add\n        /* \"#utility.yul\":8597:8620   */\n      swap1\n      pop\n        /* \"#utility.yul\":8320:8627   */\n      swap2\n      swap1\n      pop\n      jump\t// out\n        /* \"#utility.yul\":8633:9065   */\n    tag_90:\n        /* \"#utility.yul\":8721:8726   */\n      0x00\n        /* \"#utility.yul\":8746:8811   */\n      tag_190\n        /* \"#utility.yul\":8762:8810   */\n      tag_191\n        /* \"#utility.yul\":8803:8809   */\n      dup5\n        /* \"#utility.yul\":8762:8810   */\n      tag_89\n      jump\t// in\n    tag_191:\n        /* \"#utility.yul\":8746:8811   */\n      tag_80\n      jump\t// in\n    tag_190:\n        /* \"#utility.yul\":8737:8811   */\n      swap1\n      pop\n        /* \"#utility.yul\":8834:8840   */\n      dup3\n        /* \"#utility.yul\":8827:8832   */\n      dup2\n        /* \"#utility.yul\":8820:8841   */\n      mstore\n        /* \"#utility.yul\":8872:8876   */\n      0x20\n        /* \"#utility.yul\":8865:8870   */\n      dup2\n        /* \"#utility.yul\":8861:8877   */\n      add\n        /* \"#utility.yul\":8910:8913   */\n      dup5\n        /* \"#utility.yul\":8901:8907   */\n      dup5\n        /* \"#utility.yul\":8896:8899   */\n      dup5\n        /* \"#utility.yul\":8892:8908   */\n      add\n        /* \"#utility.yul\":8889:8914   */\n      gt\n        /* \"#utility.yul\":8886:8998   */\n      iszero\n      tag_192\n      jumpi\n        /* \"#utility.yul\":8917:8996   */\n      tag_193\n      tag_84\n      jump\t// in\n    tag_193:\n        /* \"#utility.yul\":8886:8998   */\n    tag_192:\n        /* \"#utility.yul\":9007:9059   */\n      tag_194\n        /* \"#utility.yul\":9052:9058   */\n      dup5\n        /* \"#utility.yul\":9047:9050   */\n      dup3\n        /* \"#utility.yul\":9042:9045   */\n      dup6\n        /* \"#utility.yul\":9007:9059   */\n      tag_86\n      jump\t// in\n    tag_194:\n        /* \"#utility.yul\":8727:9065   */\n      pop\n        /* \"#utility.yul\":8633:9065   */\n      swap4\n      swap3\n      pop\n      pop\n      pop\n      jump\t// out\n        /* \"#utility.yul\":9084:9437   */\n    tag_91:\n        /* \"#utility.yul\":9150:9155   */\n      0x00\n        /* \"#utility.yul\":9199:9202   */\n      dup3\n        /* \"#utility.yul\":9192:9196   */\n      0x1f\n        /* \"#utility.yul\":9184:9190   */\n      dup4\n        /* \"#utility.yul\":9180:9197   */\n      add\n        /* \"#utility.yul\":9176:9203   */\n      slt\n        /* \"#utility.yul\":9166:9288   */\n      tag_196\n      jumpi\n        /* \"#utility.yul\":9207:9286   */\n      tag_197\n      tag_83\n      jump\t// in\n    tag_197:\n        /* \"#utility.yul\":9166:9288   */\n    tag_196:\n        /* \"#utility.yul\":9317:9323   */\n      dup2\n        /* \"#utility.yul\":9311:9324   */\n      mload\n        /* \"#utility.yul\":9342:9431   */\n      tag_198\n        /* \"#utility.yul\":9427:9430   */\n      dup5\n        /* \"#utility.yul\":9419:9425   */\n      dup3\n        /* \"#utility.yul\":9412:9416   */\n      0x20\n        /* \"#utility.yul\":9404:9410   */\n      dup7\n        /* \"#utility.yul\":9400:9417   */\n      add\n        /* \"#utility.yul\":9342:9431   */\n      tag_90\n      jump\t// in\n    tag_198:\n        /* \"#utility.yul\":9333:9431   */\n      swap2\n      pop\n        /* \"#utility.yul\":9156:9437   */\n      pop\n        /* \"#utility.yul\":9084:9437   */\n      swap3\n      swap2\n      pop\n      pop\n      jump\t// out\n        /* \"#utility.yul\":9443:9586   */\n    tag_92:\n        /* \"#utility.yul\":9500:9505   */\n      0x00\n        /* \"#utility.yul\":9531:9537   */\n      dup2\n        /* \"#utility.yul\":9525:9538   */\n      mload\n        /* \"#utility.yul\":9516:9538   */\n      swap1\n      pop\n        /* \"#utility.yul\":9547:9580   */\n      tag_200\n        /* \"#utility.yul\":9574:9579   */\n      dup2\n        /* \"#utility.yul\":9547:9580   */\n      tag_63\n      jump\t// in\n    tag_200:\n        /* \"#utility.yul\":9443:9586   */\n      swap3\n      swap2\n      pop\n      pop\n      jump\t// out\n        /* \"#utility.yul\":9632:11470   */\n    tag_93:\n        /* \"#utility.yul\":9720:9725   */\n      0x00\n        /* \"#utility.yul\":9764:9768   */\n      0xc0\n        /* \"#utility.yul\":9752:9761   */\n      dup3\n        /* \"#utility.yul\":9747:9750   */\n      dup5\n        /* \"#utility.yul\":9743:9762   */\n      sub\n        /* \"#utility.yul\":9739:9769   */\n      slt\n        /* \"#utility.yul\":9736:9853   */\n      iszero\n      tag_202\n      jumpi\n        /* \"#utility.yul\":9772:9851   */\n      tag_203\n      tag_76\n      jump\t// in\n    tag_203:\n        /* \"#utility.yul\":9736:9853   */\n    tag_202:\n        /* \"#utility.yul\":9871:9892   */\n      tag_204\n        /* \"#utility.yul\":9887:9891   */\n      0xc0\n        /* \"#utility.yul\":9871:9892   */\n      tag_80\n      jump\t// in\n    tag_204:\n        /* \"#utility.yul\":9862:9892   */\n      swap1\n      pop\n        /* \"#utility.yul\":9958:9959   */\n      0x00\n        /* \"#utility.yul\":9998:10058   */\n      tag_205\n        /* \"#utility.yul\":10054:10057   */\n      dup5\n        /* \"#utility.yul\":10045:10051   */\n      dup3\n        /* \"#utility.yul\":10034:10043   */\n      dup6\n        /* \"#utility.yul\":10030:10052   */\n      add\n        /* \"#utility.yul\":9998:10058   */\n      tag_82\n      jump\t// in\n    tag_205:\n        /* \"#utility.yul\":9991:9995   */\n      0x00\n        /* \"#utility.yul\":9984:9989   */\n      dup4\n        /* \"#utility.yul\":9980:9996   */\n      add\n        /* \"#utility.yul\":9973:10059   */\n      mstore\n        /* \"#utility.yul\":9902:10070   */\n      pop\n        /* \"#utility.yul\":10154:10156   */\n      0x20\n        /* \"#utility.yul\":10143:10152   */\n      dup3\n        /* \"#utility.yul\":10139:10157   */\n      add\n        /* \"#utility.yul\":10133:10158   */\n      mload\n        /* \"#utility.yul\":10185:10203   */\n      0xffffffffffffffff\n        /* \"#utility.yul\":10177:10183   */\n      dup2\n        /* \"#utility.yul\":10174:10204   */\n      gt\n        /* \"#utility.yul\":10171:10288   */\n      iszero\n      tag_206\n      jumpi\n        /* \"#utility.yul\":10207:10286   */\n      tag_207\n      tag_81\n      jump\t// in\n    tag_207:\n        /* \"#utility.yul\":10171:10288   */\n    tag_206:\n        /* \"#utility.yul\":10327:10397   */\n      tag_208\n        /* \"#utility.yul\":10393:10396   */\n      dup5\n        /* \"#utility.yul\":10384:10390   */\n      dup3\n        /* \"#utility.yul\":10373:10382   */\n      dup6\n        /* \"#utility.yul\":10369:10391   */\n      add\n        /* \"#utility.yul\":10327:10397   */\n      tag_88\n      jump\t// in\n    tag_208:\n        /* \"#utility.yul\":10320:10324   */\n      0x20\n        /* \"#utility.yul\":10313:10318   */\n      dup4\n        /* \"#utility.yul\":10309:10325   */\n      add\n        /* \"#utility.yul\":10302:10398   */\n      mstore\n        /* \"#utility.yul\":10080:10409   */\n      pop\n        /* \"#utility.yul\":10491:10493   */\n      0x40\n        /* \"#utility.yul\":10480:10489   */\n      dup3\n        /* \"#utility.yul\":10476:10494   */\n      add\n        /* \"#utility.yul\":10470:10495   */\n      mload\n        /* \"#utility.yul\":10522:10540   */\n      0xffffffffffffffff\n        /* \"#utility.yul\":10514:10520   */\n      dup2\n        /* \"#utility.yul\":10511:10541   */\n      gt\n        /* \"#utility.yul\":10508:10625   */\n      iszero\n      tag_209\n      jumpi\n        /* \"#utility.yul\":10544:10623   */\n      tag_210\n      tag_81\n      jump\t// in\n    tag_210:\n        /* \"#utility.yul\":10508:10625   */\n    tag_209:\n        /* \"#utility.yul\":10664:10734   */\n      tag_211\n        /* \"#utility.yul\":10730:10733   */\n      dup5\n        /* \"#utility.yul\":10721:10727   */\n      dup3\n        /* \"#utility.yul\":10710:10719   */\n      dup6\n        /* \"#utility.yul\":10706:10728   */\n      add\n        /* \"#utility.yul\":10664:10734   */\n      tag_88\n      jump\t// in\n    tag_211:\n        /* \"#utility.yul\":10657:10661   */\n      0x40\n        /* \"#utility.yul\":10650:10655   */\n      dup4\n        /* \"#utility.yul\":10646:10662   */\n      add\n        /* \"#utility.yul\":10639:10735   */\n      mstore\n        /* \"#utility.yul\":10419:10746   */\n      pop\n        /* \"#utility.yul\":10839:10841   */\n      0x60\n        /* \"#utility.yul\":10828:10837   */\n      dup3\n        /* \"#utility.yul\":10824:10842   */\n      add\n        /* \"#utility.yul\":10818:10843   */\n      mload\n        /* \"#utility.yul\":10870:10888   */\n      0xffffffffffffffff\n        /* \"#utility.yul\":10862:10868   */\n      dup2\n        /* \"#utility.yul\":10859:10889   */\n      gt\n        /* \"#utility.yul\":10856:10973   */\n      iszero\n      tag_212\n      jumpi\n        /* \"#utility.yul\":10892:10971   */\n      tag_213\n      tag_81\n      jump\t// in\n    tag_213:\n        /* \"#utility.yul\":10856:10973   */\n    tag_212:\n        /* \"#utility.yul\":11012:11081   */\n      tag_214\n        /* \"#utility.yul\":11077:11080   */\n      dup5\n        /* \"#utility.yul\":11068:11074   */\n      dup3\n        /* \"#utility.yul\":11057:11066   */\n      dup6\n        /* \"#utility.yul\":11053:11075   */\n      add\n        /* \"#utility.yul\":11012:11081   */\n      tag_91\n      jump\t// in\n    tag_214:\n        /* \"#utility.yul\":11005:11009   */\n      0x60\n        /* \"#utility.yul\":10998:11003   */\n      dup4\n        /* \"#utility.yul\":10994:11010   */\n      add\n        /* \"#utility.yul\":10987:11082   */\n      mstore\n        /* \"#utility.yul\":10756:11093   */\n      pop\n        /* \"#utility.yul\":11163:11166   */\n      0x80\n        /* \"#utility.yul\":11205:11265   */\n      tag_215\n        /* \"#utility.yul\":11261:11264   */\n      dup5\n        /* \"#utility.yul\":11252:11258   */\n      dup3\n        /* \"#utility.yul\":11241:11250   */\n      dup6\n        /* \"#utility.yul\":11237:11259   */\n      add\n        /* \"#utility.yul\":11205:11265   */\n      tag_92\n      jump\t// in\n    tag_215:\n        /* \"#utility.yul\":11198:11202   */\n      0x80\n        /* \"#utility.yul\":11191:11196   */\n      dup4\n        /* \"#utility.yul\":11187:11203   */\n      add\n        /* \"#utility.yul\":11180:11266   */\n      mstore\n        /* \"#utility.yul\":11103:11277   */\n      pop\n        /* \"#utility.yul\":11349:11352   */\n      0xa0\n        /* \"#utility.yul\":11391:11451   */\n      tag_216\n        /* \"#utility.yul\":11447:11450   */\n      dup5\n        /* \"#utility.yul\":11438:11444   */\n      dup3\n        /* \"#utility.yul\":11427:11436   */\n      dup6\n        /* \"#utility.yul\":11423:11445   */\n      add\n        /* \"#utility.yul\":11391:11451   */\n      tag_92\n      jump\t// in\n    tag_216:\n        /* \"#utility.yul\":11384:11388   */\n      0xa0\n        /* \"#utility.yul\":11377:11382   */\n      dup4\n        /* \"#utility.yul\":11373:11389   */\n      add\n        /* \"#utility.yul\":11366:11452   */\n      mstore\n        /* \"#utility.yul\":11287:11463   */\n      pop\n        /* \"#utility.yul\":9632:11470   */\n      swap3\n      swap2\n      pop\n      pop\n      jump\t// out\n        /* \"#utility.yul\":11476:12036   */\n    tag_37:\n        /* \"#utility.yul\":11574:11580   */\n      0x00\n        /* \"#utility.yul\":11623:11625   */\n      0x20\n        /* \"#utility.yul\":11611:11620   */\n      dup3\n        /* \"#utility.yul\":11602:11609   */\n      dup5\n        /* \"#utility.yul\":11598:11621   */\n      sub\n        /* \"#utility.yul\":11594:11626   */\n      slt\n        /* \"#utility.yul\":11591:11710   */\n      iszero\n      tag_218\n      jumpi\n        /* \"#utility.yul\":11629:11708   */\n      tag_219\n      tag_56\n      jump\t// in\n    tag_219:\n        /* \"#utility.yul\":11591:11710   */\n    tag_218:\n        /* \"#utility.yul\":11770:11771   */\n      0x00\n        /* \"#utility.yul\":11759:11768   */\n      dup3\n        /* \"#utility.yul\":11755:11772   */\n      add\n        /* \"#utility.yul\":11749:11773   */\n      mload\n        /* \"#utility.yul\":11800:11818   */\n      0xffffffffffffffff\n        /* \"#utility.yul\":11792:11798   */\n      dup2\n        /* \"#utility.yul\":11789:11819   */\n      gt\n        /* \"#utility.yul\":11786:11903   */\n      iszero\n      tag_220\n      jumpi\n        /* \"#utility.yul\":11822:11901   */\n      tag_221\n      tag_57\n      jump\t// in\n    tag_221:\n        /* \"#utility.yul\":11786:11903   */\n    tag_220:\n        /* \"#utility.yul\":11927:12019   */\n      tag_222\n        /* \"#utility.yul\":12011:12018   */\n      dup5\n        /* \"#utility.yul\":12002:12008   */\n      dup3\n        /* \"#utility.yul\":11991:12000   */\n      dup6\n        /* \"#utility.yul\":11987:12009   */\n      add\n        /* \"#utility.yul\":11927:12019   */\n      tag_93\n      jump\t// in\n    tag_222:\n        /* \"#utility.yul\":11917:12019   */\n      swap2\n      pop\n        /* \"#utility.yul\":11720:12029   */\n      pop\n        /* \"#utility.yul\":11476:12036   */\n      swap3\n      swap2\n      pop\n      pop\n      jump\t// out\n        /* \"#utility.yul\":12042:12222   */\n    tag_94:\n        /* \"#utility.yul\":12090:12167   */\n      0x4e487b7100000000000000000000000000000000000000000000000000000000\n        /* \"#utility.yul\":12087:12088   */\n      0x00\n        /* \"#utility.yul\":12080:12168   */\n      mstore\n        /* \"#utility.yul\":12187:12191   */\n      0x11\n        /* \"#utility.yul\":12184:12185   */\n      0x04\n        /* \"#utility.yul\":12177:12192   */\n      mstore\n        /* \"#utility.yul\":12211:12215   */\n      0x24\n        /* \"#utility.yul\":12208:12209   */\n      0x00\n        /* \"#utility.yul\":12201:12216   */\n      revert\n        /* \"#utility.yul\":12228:12638   */\n    tag_39:\n        /* \"#utility.yul\":12268:12275   */\n      0x00\n        /* \"#utility.yul\":12291:12311   */\n      tag_225\n        /* \"#utility.yul\":12309:12310   */\n      dup3\n        /* \"#utility.yul\":12291:12311   */\n      tag_62\n      jump\t// in\n    tag_225:\n        /* \"#utility.yul\":12286:12311   */\n      swap2\n      pop\n        /* \"#utility.yul\":12325:12345   */\n      tag_226\n        /* \"#utility.yul\":12343:12344   */\n      dup4\n        /* \"#utility.yul\":12325:12345   */\n      tag_62\n      jump\t// in\n    tag_226:\n        /* \"#utility.yul\":12320:12345   */\n      swap3\n      pop\n        /* \"#utility.yul\":12380:12381   */\n      dup3\n        /* \"#utility.yul\":12377:12378   */\n      dup3\n        /* \"#utility.yul\":12373:12382   */\n      mul\n        /* \"#utility.yul\":12402:12432   */\n      tag_227\n        /* \"#utility.yul\":12420:12431   */\n      dup2\n        /* \"#utility.yul\":12402:12432   */\n      tag_62\n      jump\t// in\n    tag_227:\n        /* \"#utility.yul\":12391:12432   */\n      swap2\n      pop\n        /* \"#utility.yul\":12581:12582   */\n      dup3\n        /* \"#utility.yul\":12572:12579   */\n      dup3\n        /* \"#utility.yul\":12568:12583   */\n      div\n        /* \"#utility.yul\":12565:12566   */\n      dup5\n        /* \"#utility.yul\":12562:12584   */\n      eq\n        /* \"#utility.yul\":12542:12543   */\n      dup4\n        /* \"#utility.yul\":12535:12544   */\n      iszero\n        /* \"#utility.yul\":12515:12598   */\n      or\n        /* \"#utility.yul\":12492:12631   */\n      tag_228\n      jumpi\n        /* \"#utility.yul\":12611:12629   */\n      tag_229\n      tag_94\n      jump\t// in\n    tag_229:\n        /* \"#utility.yul\":12492:12631   */\n    tag_228:\n        /* \"#utility.yul\":12276:12638   */\n      pop\n        /* \"#utility.yul\":12228:12638   */\n      swap3\n      swap2\n      pop\n      pop\n      jump\t// out\n        /* \"#utility.yul\":12644:12835   */\n    tag_43:\n        /* \"#utility.yul\":12684:12687   */\n      0x00\n        /* \"#utility.yul\":12703:12723   */\n      tag_231\n        /* \"#utility.yul\":12721:12722   */\n      dup3\n        /* \"#utility.yul\":12703:12723   */\n      tag_62\n      jump\t// in\n    tag_231:\n        /* \"#utility.yul\":12698:12723   */\n      swap2\n      pop\n        /* \"#utility.yul\":12737:12757   */\n      tag_232\n        /* \"#utility.yul\":12755:12756   */\n      dup4\n        /* \"#utility.yul\":12737:12757   */\n      tag_62\n      jump\t// in\n    tag_232:\n        /* \"#utility.yul\":12732:12757   */\n      swap3\n      pop\n        /* \"#utility.yul\":12780:12781   */\n      dup3\n        /* \"#utility.yul\":12777:12778   */\n      dup3\n        /* \"#utility.yul\":12773:12782   */\n      add\n        /* \"#utility.yul\":12766:12782   */\n      swap1\n      pop\n        /* \"#utility.yul\":12801:12804   */\n      dup1\n        /* \"#utility.yul\":12798:12799   */\n      dup3\n        /* \"#utility.yul\":12795:12805   */\n      gt\n        /* \"#utility.yul\":12792:12828   */\n      iszero\n      tag_233\n      jumpi\n        /* \"#utility.yul\":12808:12826   */\n      tag_234\n      tag_94\n      jump\t// in\n    tag_234:\n        /* \"#utility.yul\":12792:12828   */\n    tag_233:\n        /* \"#utility.yul\":12644:12835   */\n      swap3\n      swap2\n      pop\n      pop\n      jump\t// out\n        /* \"#utility.yul\":12841:13021   */\n    tag_95:\n        /* \"#utility.yul\":12889:12966   */\n      0x4e487b7100000000000000000000000000000000000000000000000000000000\n        /* \"#utility.yul\":12886:12887   */\n      0x00\n        /* \"#utility.yul\":12879:12967   */\n      mstore\n        /* \"#utility.yul\":12986:12990   */\n      0x12\n        /* \"#utility.yul\":12983:12984   */\n      0x04\n        /* \"#utility.yul\":12976:12991   */\n      mstore\n        /* \"#utility.yul\":13010:13014   */\n      0x24\n        /* \"#utility.yul\":13007:13008   */\n      0x00\n        /* \"#utility.yul\":13000:13015   */\n      revert\n        /* \"#utility.yul\":13027:13212   */\n    tag_47:\n        /* \"#utility.yul\":13067:13068   */\n      0x00\n        /* \"#utility.yul\":13084:13104   */\n      tag_237\n        /* \"#utility.yul\":13102:13103   */\n      dup3\n        /* \"#utility.yul\":13084:13104   */\n      tag_62\n      jump\t// in\n    tag_237:\n        /* \"#utility.yul\":13079:13104   */\n      swap2\n      pop\n        /* \"#utility.yul\":13118:13138   */\n      tag_238\n        /* \"#utility.yul\":13136:13137   */\n      dup4\n        /* \"#utility.yul\":13118:13138   */\n      tag_62\n      jump\t// in\n    tag_238:\n        /* \"#utility.yul\":13113:13138   */\n      swap3\n      pop\n        /* \"#utility.yul\":13157:13158   */\n      dup3\n        /* \"#utility.yul\":13147:13182   */\n      tag_239\n      jumpi\n        /* \"#utility.yul\":13162:13180   */\n      tag_240\n      tag_95\n      jump\t// in\n    tag_240:\n        /* \"#utility.yul\":13147:13182   */\n    tag_239:\n        /* \"#utility.yul\":13204:13205   */\n      dup3\n        /* \"#utility.yul\":13201:13202   */\n      dup3\n        /* \"#utility.yul\":13197:13206   */\n      div\n        /* \"#utility.yul\":13192:13206   */\n      swap1\n      pop\n        /* \"#utility.yul\":13027:13212   */\n      swap3\n      swap2\n      pop\n      pop\n      jump\t// out\n        /* \"#utility.yul\":13218:13336   */\n    tag_96:\n        /* \"#utility.yul\":13305:13329   */\n      tag_242\n        /* \"#utility.yul\":13323:13328   */\n      dup2\n        /* \"#utility.yul\":13305:13329   */\n      tag_62\n      jump\t// in\n    tag_242:\n        /* \"#utility.yul\":13300:13303   */\n      dup3\n        /* \"#utility.yul\":13293:13330   */\n      mstore\n        /* \"#utility.yul\":13218:13336   */\n      pop\n      pop\n      jump\t// out\n        /* \"#utility.yul\":13342:13674   */\n    tag_49:\n        /* \"#utility.yul\":13463:13467   */\n      0x00\n        /* \"#utility.yul\":13501:13503   */\n      0x40\n        /* \"#utility.yul\":13490:13499   */\n      dup3\n        /* \"#utility.yul\":13486:13504   */\n      add\n        /* \"#utility.yul\":13478:13504   */\n      swap1\n      pop\n        /* \"#utility.yul\":13514:13585   */\n      tag_244\n        /* \"#utility.yul\":13582:13583   */\n      0x00\n        /* \"#utility.yul\":13571:13580   */\n      dup4\n        /* \"#utility.yul\":13567:13584   */\n      add\n        /* \"#utility.yul\":13558:13564   */\n      dup6\n        /* \"#utility.yul\":13514:13585   */\n      tag_65\n      jump\t// in\n    tag_244:\n        /* \"#utility.yul\":13595:13667   */\n      tag_245\n        /* \"#utility.yul\":13663:13665   */\n      0x20\n        /* \"#utility.yul\":13652:13661   */\n      dup4\n        /* \"#utility.yul\":13648:13666   */\n      add\n        /* \"#utility.yul\":13639:13645   */\n      dup5\n        /* \"#utility.yul\":13595:13667   */\n      tag_96\n      jump\t// in\n    tag_245:\n        /* \"#utility.yul\":13342:13674   */\n      swap4\n      swap3\n      pop\n      pop\n      pop\n      jump\t// out\n        /* \"#utility.yul\":13680:13902   */\n    tag_54:\n        /* \"#utility.yul\":13773:13777   */\n      0x00\n        /* \"#utility.yul\":13811:13813   */\n      0x20\n        /* \"#utility.yul\":13800:13809   */\n      dup3\n        /* \"#utility.yul\":13796:13814   */\n      add\n        /* \"#utility.yul\":13788:13814   */\n      swap1\n      pop\n        /* \"#utility.yul\":13824:13895   */\n      tag_247\n        /* \"#utility.yul\":13892:13893   */\n      0x00\n        /* \"#utility.yul\":13881:13890   */\n      dup4\n        /* \"#utility.yul\":13877:13894   */\n      add\n        /* \"#utility.yul\":13868:13874   */\n      dup5\n        /* \"#utility.yul\":13824:13895   */\n      tag_96\n      jump\t// in\n    tag_247:\n        /* \"#utility.yul\":13680:13902   */\n      swap3\n      swap2\n      pop\n      pop\n      jump\t// out\n\n    auxdata: 0xa2646970667358221220f099ea40e79a72bbe818f5f1fb73178b0177ec56938b2288e1c9ade68cd6b2e064736f6c634300081e0033\n}\n",
				"bytecode": {
					"linkReferences": {},
					"object": "60a060405234801561000f575f5ffd5b50604051610ce1380380610ce1833981810160405281019061003191906100c9565b8073ffffffffffffffffffffffffffffffffffffffff1660808173ffffffffffffffffffffffffffffffffffffffff1681525050506100f4565b5f5ffd5b5f73ffffffffffffffffffffffffffffffffffffffff82169050919050565b5f6100988261006f565b9050919050565b6100a88161008e565b81146100b2575f5ffd5b50565b5f815190506100c38161009f565b92915050565b5f602082840312156100de576100dd61006b565b5b5f6100eb848285016100b5565b91505092915050565b608051610bc761011a5f395f81816101e6015281816102e401526103ff0152610bc75ff3fe608060405234801561000f575f5ffd5b506004361061004a575f3560e01c80630139746c1461004e5780635435029a1461006a578063b0087cfa14610086578063e6007bed146100a4575b5f5ffd5b6100686004803603810190610063919061048c565b6100c2565b005b610084600480360381019061007f91906104ea565b610104565b005b61008e6103d9565b60405161009b9190610549565b60405180910390f35b6100ac6103fd565b6040516100b991906105bd565b60405180910390f35b805f5f6101000a81548173ffffffffffffffffffffffffffffffffffffffff021916908373ffffffffffffffffffffffffffffffffffffffff16021790555050565b5f5f9054906101000a900473ffffffffffffffffffffffffffffffffffffffff1673ffffffffffffffffffffffffffffffffffffffff163373ffffffffffffffffffffffffffffffffffffffff1614610192576040517f08c379a000000000000000000000000000000000000000000000000000000000815260040161018990610656565b60405180910390fd5b600181101580156101a4575060058111155b6101e3576040517f08c379a00000000000000000000000000000000000000000000000000000000081526004016101da906106e4565b60405180910390fd5b5f7f000000000000000000000000000000000000000000000000000000000000000073ffffffffffffffffffffffffffffffffffffffff16630f53a470846040518263ffffffff1660e01b815260040161023d9190610549565b5f60405180830381865afa158015610257573d5f5f3e3d5ffd5b505050506040513d5f823e3d601f19601f8201168201806040525081019061027f91906109fd565b90505f816080015190505f8260a0015190505f60648561029f9190610a71565b90505f5f83036102b1578190506102e2565b6001836102be9190610ab2565b8284866102cb9190610a71565b6102d59190610ab2565b6102df9190610b12565b90505b7f000000000000000000000000000000000000000000000000000000000000000073ffffffffffffffffffffffffffffffffffffffff1663f5c91a0888836040518363ffffffff1660e01b815260040161033d929190610b51565b5f604051808303815f87803b158015610354575f5ffd5b505af1158015610366573d5f5f3e3d5ffd5b505050508673ffffffffffffffffffffffffffffffffffffffff168873ffffffffffffffffffffffffffffffffffffffff167fdcba9448b55b807611f7e3ece24acdc6afaec1d8c5a16f3e70c571758f606654886040516103c79190610b78565b60405180910390a35050505050505050565b5f5f9054906101000a900473ffffffffffffffffffffffffffffffffffffffff1681565b7f000000000000000000000000000000000000000000000000000000000000000081565b5f604051905090565b5f5ffd5b5f5ffd5b5f73ffffffffffffffffffffffffffffffffffffffff82169050919050565b5f61045b82610432565b9050919050565b61046b81610451565b8114610475575f5ffd5b50565b5f8135905061048681610462565b92915050565b5f602082840312156104a1576104a061042a565b5b5f6104ae84828501610478565b91505092915050565b5f819050919050565b6104c9816104b7565b81146104d3575f5ffd5b50565b5f813590506104e4816104c0565b92915050565b5f5f5f606084860312156105015761050061042a565b5b5f61050e86828701610478565b935050602061051f86828701610478565b9250506040610530868287016104d6565b9150509250925092565b61054381610451565b82525050565b5f60208201905061055c5f83018461053a565b92915050565b5f819050919050565b5f61058561058061057b84610432565b610562565b610432565b9050919050565b5f6105968261056b565b9050919050565b5f6105a78261058c565b9050919050565b6105b78161059d565b82525050565b5f6020820190506105d05f8301846105ae565b92915050565b5f82825260208201905092915050565b7f52657075746174696f6e3a204e6f7420616e20617574686f72697a65642063615f8201527f6c6c657200000000000000000000000000000000000000000000000000000000602082015250565b5f6106406024836105d6565b915061064b826105e6565b604082019050919050565b5f6020820190508181035f83015261066d81610634565b9050919050565b7f52657075746174696f6e3a2053636f7265206d757374206265206265747765655f8201527f6e203120616e6420350000000000000000000000000000000000000000000000602082015250565b5f6106ce6029836105d6565b91506106d982610674565b604082019050919050565b5f6020820190508181035f8301526106fb816106c2565b9050919050565b5f5ffd5b5f601f19601f8301169050919050565b7f4e487b71000000000000000000000000000000000000000000000000000000005f52604160045260245ffd5b61074c82610706565b810181811067ffffffffffffffff8211171561076b5761076a610716565b5b80604052505050565b5f61077d610421565b90506107898282610743565b919050565b5f5ffd5b5f815190506107a081610462565b92915050565b5f5ffd5b5f5ffd5b5f67ffffffffffffffff8211156107c8576107c7610716565b5b6107d182610706565b9050602081019050919050565b8281835e5f83830152505050565b5f6107fe6107f9846107ae565b610774565b90508281526020810184848401111561081a576108196107aa565b5b6108258482856107de565b509392505050565b5f82601f830112610841576108406107a6565b5b81516108518482602086016107ec565b91505092915050565b5f67ffffffffffffffff82111561087457610873610716565b5b61087d82610706565b9050602081019050919050565b5f61089c6108978461085a565b610774565b9050828152602081018484840111156108b8576108b76107aa565b5b6108c38482856107de565b509392505050565b5f82601f8301126108df576108de6107a6565b5b81516108ef84826020860161088a565b91505092915050565b5f81519050610906816104c0565b92915050565b5f60c0828403121561092157610920610702565b5b61092b60c0610774565b90505f61093a84828501610792565b5f83015250602082015167ffffffffffffffff81111561095d5761095c61078e565b5b6109698482850161082d565b602083015250604082015167ffffffffffffffff81111561098d5761098c61078e565b5b6109998482850161082d565b604083015250606082015167ffffffffffffffff8111156109bd576109bc61078e565b5b6109c9848285016108cb565b60608301525060806109dd848285016108f8565b60808301525060a06109f1848285016108f8565b60a08301525092915050565b5f60208284031215610a1257610a1161042a565b5b5f82015167ffffffffffffffff811115610a2f57610a2e61042e565b5b610a3b8482850161090c565b91505092915050565b7f4e487b71000000000000000000000000000000000000000000000000000000005f52601160045260245ffd5b5f610a7b826104b7565b9150610a86836104b7565b9250828202610a94816104b7565b91508282048414831517610aab57610aaa610a44565b5b5092915050565b5f610abc826104b7565b9150610ac7836104b7565b9250828201905080821115610adf57610ade610a44565b5b92915050565b7f4e487b71000000000000000000000000000000000000000000000000000000005f52601260045260245ffd5b5f610b1c826104b7565b9150610b27836104b7565b925082610b3757610b36610ae5565b5b828204905092915050565b610b4b816104b7565b82525050565b5f604082019050610b645f83018561053a565b610b716020830184610b42565b9392505050565b5f602082019050610b8b5f830184610b42565b9291505056fea2646970667358221220f099ea40e79a72bbe818f5f1fb73178b0177ec56938b2288e1c9ade68cd6b2e064736f6c634300081e0033",
					"opcodes": "PUSH1 0xA0 PUSH1 0x40 MSTORE CALLVALUE DUP1 ISZERO PUSH2 0xF JUMPI PUSH0 PUSH0 REVERT JUMPDEST POP PUSH1 0x40 MLOAD PUSH2 0xCE1 CODESIZE SUB DUP1 PUSH2 0xCE1 DUP4 CODECOPY DUP2 DUP2 ADD PUSH1 0x40 MSTORE DUP2 ADD SWAP1 PUSH2 0x31 SWAP2 SWAP1 PUSH2 0xC9 JUMP JUMPDEST DUP1 PUSH20 0xFFFFFFFFFFFFFFFFFFFFFFFFFFFFFFFFFFFFFFFF AND PUSH1 0x80 DUP2 PUSH20 0xFFFFFFFFFFFFFFFFFFFFFFFFFFFFFFFFFFFFFFFF AND DUP2 MSTORE POP POP POP PUSH2 0xF4 JUMP JUMPDEST PUSH0 PUSH0 REVERT JUMPDEST PUSH0 PUSH20 0xFFFFFFFFFFFFFFFFFFFFFFFFFFFFFFFFFFFFFFFF DUP3 AND SWAP1 POP SWAP2 SWAP1 POP JUMP JUMPDEST PUSH0 PUSH2 0x98 DUP3 PUSH2 0x6F JUMP JUMPDEST SWAP1 POP SWAP2 SWAP1 POP JUMP JUMPDEST PUSH2 0xA8 DUP2 PUSH2 0x8E JUMP JUMPDEST DUP2 EQ PUSH2 0xB2 JUMPI PUSH0 PUSH0 REVERT JUMPDEST POP JUMP JUMPDEST PUSH0 DUP2 MLOAD SWAP1 POP PUSH2 0xC3 DUP2 PUSH2 0x9F JUMP JUMPDEST SWAP3 SWAP2 POP POP JUMP JUMPDEST PUSH0 PUSH1 0x20 DUP3 DUP5 SUB SLT ISZERO PUSH2 0xDE JUMPI PUSH2 0xDD PUSH2 0x6B JUMP JUMPDEST JUMPDEST PUSH0 PUSH2 0xEB DUP5 DUP3 DUP6 ADD PUSH2 0xB5 JUMP JUMPDEST SWAP2 POP POP SWAP3 SWAP2 POP POP JUMP JUMPDEST PUSH1 0x80 MLOAD PUSH2 0xBC7 PUSH2 0x11A PUSH0 CODECOPY PUSH0 DUP2 DUP2 PUSH2 0x1E6 ADD MSTORE DUP2 DUP2 PUSH2 0x2E4 ADD MSTORE PUSH2 0x3FF ADD MSTORE PUSH2 0xBC7 PUSH0 RETURN INVALID PUSH1 0x80 PUSH1 0x40 MSTORE CALLVALUE DUP1 ISZERO PUSH2 0xF JUMPI PUSH0 PUSH0 REVERT JUMPDEST POP PUSH1 0x4 CALLDATASIZE LT PUSH2 0x4A JUMPI PUSH0 CALLDATALOAD PUSH1 0xE0 SHR DUP1 PUSH4 0x139746C EQ PUSH2 0x4E JUMPI DUP1 PUSH4 0x5435029A EQ PUSH2 0x6A JUMPI DUP1 PUSH4 0xB0087CFA EQ PUSH2 0x86 JUMPI DUP1 PUSH4 0xE6007BED EQ PUSH2 0xA4 JUMPI JUMPDEST PUSH0 PUSH0 REVERT JUMPDEST PUSH2 0x68 PUSH1 0x4 DUP1 CALLDATASIZE SUB DUP2 ADD SWAP1 PUSH2 0x63 SWAP2 SWAP1 PUSH2 0x48C JUMP JUMPDEST PUSH2 0xC2 JUMP JUMPDEST STOP JUMPDEST PUSH2 0x84 PUSH1 0x4 DUP1 CALLDATASIZE SUB DUP2 ADD SWAP1 PUSH2 0x7F SWAP2 SWAP1 PUSH2 0x4EA JUMP JUMPDEST PUSH2 0x104 JUMP JUMPDEST STOP JUMPDEST PUSH2 0x8E PUSH2 0x3D9 JUMP JUMPDEST PUSH1 0x40 MLOAD PUSH2 0x9B SWAP2 SWAP1 PUSH2 0x549 JUMP JUMPDEST PUSH1 0x40 MLOAD DUP1 SWAP2 SUB SWAP1 RETURN JUMPDEST PUSH2 0xAC PUSH2 0x3FD JUMP JUMPDEST PUSH1 0x40 MLOAD PUSH2 0xB9 SWAP2 SWAP1 PUSH2 0x5BD JUMP JUMPDEST PUSH1 0x40 MLOAD DUP1 SWAP2 SUB SWAP1 RETURN JUMPDEST DUP1 PUSH0 PUSH0 PUSH2 0x100 EXP DUP2 SLOAD DUP2 PUSH20 0xFFFFFFFFFFFFFFFFFFFFFFFFFFFFFFFFFFFFFFFF MUL NOT AND SWAP1 DUP4 PUSH20 0xFFFFFFFFFFFFFFFFFFFFFFFFFFFFFFFFFFFFFFFF AND MUL OR SWAP1 SSTORE POP POP JUMP JUMPDEST PUSH0 PUSH0 SWAP1 SLOAD SWAP1 PUSH2 0x100 EXP SWAP1 DIV PUSH20 0xFFFFFFFFFFFFFFFFFFFFFFFFFFFFFFFFFFFFFFFF AND PUSH20 0xFFFFFFFFFFFFFFFFFFFFFFFFFFFFFFFFFFFFFFFF AND CALLER PUSH20 0xFFFFFFFFFFFFFFFFFFFFFFFFFFFFFFFFFFFFFFFF AND EQ PUSH2 0x192 JUMPI PUSH1 0x40 MLOAD PUSH32 0x8C379A000000000000000000000000000000000000000000000000000000000 DUP2 MSTORE PUSH1 0x4 ADD PUSH2 0x189 SWAP1 PUSH2 0x656 JUMP JUMPDEST PUSH1 0x40 MLOAD DUP1 SWAP2 SUB SWAP1 REVERT JUMPDEST PUSH1 0x1 DUP2 LT ISZERO DUP1 ISZERO PUSH2 0x1A4 JUMPI POP PUSH1 0x5 DUP2 GT ISZERO JUMPDEST PUSH2 0x1E3 JUMPI PUSH1 0x40 MLOAD PUSH32 0x8C379A000000000000000000000000000000000000000000000000000000000 DUP2 MSTORE PUSH1 0x4 ADD PUSH2 0x1DA SWAP1 PUSH2 0x6E4 JUMP JUMPDEST PUSH1 0x40 MLOAD DUP1 SWAP2 SUB SWAP1 REVERT JUMPDEST PUSH0 PUSH32 0x0 PUSH20 0xFFFFFFFFFFFFFFFFFFFFFFFFFFFFFFFFFFFFFFFF AND PUSH4 0xF53A470 DUP5 PUSH1 0x40 MLOAD DUP3 PUSH4 0xFFFFFFFF AND PUSH1 0xE0 SHL DUP2 MSTORE PUSH1 0x4 ADD PUSH2 0x23D SWAP2 SWAP1 PUSH2 0x549 JUMP JUMPDEST PUSH0 PUSH1 0x40 MLOAD DUP1 DUP4 SUB DUP2 DUP7 GAS STATICCALL ISZERO DUP1 ISZERO PUSH2 0x257 JUMPI RETURNDATASIZE PUSH0 PUSH0 RETURNDATACOPY RETURNDATASIZE PUSH0 REVERT JUMPDEST POP POP POP POP PUSH1 0x40 MLOAD RETURNDATASIZE PUSH0 DUP3 RETURNDATACOPY RETURNDATASIZE PUSH1 0x1F NOT PUSH1 0x1F DUP3 ADD AND DUP3 ADD DUP1 PUSH1 0x40 MSTORE POP DUP2 ADD SWAP1 PUSH2 0x27F SWAP2 SWAP1 PUSH2 0x9FD JUMP JUMPDEST SWAP1 POP PUSH0 DUP2 PUSH1 0x80 ADD MLOAD SWAP1 POP PUSH0 DUP3 PUSH1 0xA0 ADD MLOAD SWAP1 POP PUSH0 PUSH1 0x64 DUP6 PUSH2 0x29F SWAP2 SWAP1 PUSH2 0xA71 JUMP JUMPDEST SWAP1 POP PUSH0 PUSH0 DUP4 SUB PUSH2 0x2B1 JUMPI DUP2 SWAP1 POP PUSH2 0x2E2 JUMP JUMPDEST PUSH1 0x1 DUP4 PUSH2 0x2BE SWAP2 SWAP1 PUSH2 0xAB2 JUMP JUMPDEST DUP3 DUP5 DUP7 PUSH2 0x2CB SWAP2 SWAP1 PUSH2 0xA71 JUMP JUMPDEST PUSH2 0x2D5 SWAP2 SWAP1 PUSH2 0xAB2 JUMP JUMPDEST PUSH2 0x2DF SWAP2 SWAP1 PUSH2 0xB12 JUMP JUMPDEST SWAP1 POP JUMPDEST PUSH32 0x0 PUSH20 0xFFFFFFFFFFFFFFFFFFFFFFFFFFFFFFFFFFFFFFFF AND PUSH4 0xF5C91A08 DUP9 DUP4 PUSH1 0x40 MLOAD DUP4 PUSH4 0xFFFFFFFF AND PUSH1 0xE0 SHL DUP2 MSTORE PUSH1 0x4 ADD PUSH2 0x33D SWAP3 SWAP2 SWAP1 PUSH2 0xB51 JUMP JUMPDEST PUSH0 PUSH1 0x40 MLOAD DUP1 DUP4 SUB DUP2 PUSH0 DUP8 DUP1 EXTCODESIZE ISZERO DUP1 ISZERO PUSH2 0x354 JUMPI PUSH0 PUSH0 REVERT JUMPDEST POP GAS CALL ISZERO DUP1 ISZERO PUSH2 0x366 JUMPI RETURNDATASIZE PUSH0 PUSH0 RETURNDATACOPY RETURNDATASIZE PUSH0 REVERT JUMPDEST POP POP POP POP DUP7 PUSH20 0xFFFFFFFFFFFFFFFFFFFFFFFFFFFFFFFFFFFFFFFF AND DUP9 PUSH20 0xFFFFFFFFFFFFFFFFFFFFFFFFFFFFFFFFFFFFFFFF AND PUSH32 0xDCBA9448B55B807611F7E3ECE24ACDC6AFAEC1D8C5A16F3E70C571758F606654 DUP9 PUSH1 0x40 MLOAD PUSH2 0x3C7 SWAP2 SWAP1 PUSH2 0xB78 JUMP JUMPDEST PUSH1 0x40 MLOAD DUP1 SWAP2 SUB SWAP1 LOG3 POP POP POP POP POP POP POP POP JUMP JUMPDEST PUSH0 PUSH0 SWAP1 SLOAD SWAP1 PUSH2 0x100 EXP SWAP1 DIV PUSH20 0xFFFFFFFFFFFFFFFFFFFFFFFFFFFFFFFFFFFFFFFF AND DUP2 JUMP JUMPDEST PUSH32 0x0 DUP2 JUMP JUMPDEST PUSH0 PUSH1 0x40 MLOAD SWAP1 POP SWAP1 JUMP JUMPDEST PUSH0 PUSH0 REVERT JUMPDEST PUSH0 PUSH0 REVERT JUMPDEST PUSH0 PUSH20 0xFFFFFFFFFFFFFFFFFFFFFFFFFFFFFFFFFFFFFFFF DUP3 AND SWAP1 POP SWAP2 SWAP1 POP JUMP JUMPDEST PUSH0 PUSH2 0x45B DUP3 PUSH2 0x432 JUMP JUMPDEST SWAP1 POP SWAP2 SWAP1 POP JUMP JUMPDEST PUSH2 0x46B DUP2 PUSH2 0x451 JUMP JUMPDEST DUP2 EQ PUSH2 0x475 JUMPI PUSH0 PUSH0 REVERT JUMPDEST POP JUMP JUMPDEST PUSH0 DUP2 CALLDATALOAD SWAP1 POP PUSH2 0x486 DUP2 PUSH2 0x462 JUMP JUMPDEST SWAP3 SWAP2 POP POP JUMP JUMPDEST PUSH0 PUSH1 0x20 DUP3 DUP5 SUB SLT ISZERO PUSH2 0x4A1 JUMPI PUSH2 0x4A0 PUSH2 0x42A JUMP JUMPDEST JUMPDEST PUSH0 PUSH2 0x4AE DUP5 DUP3 DUP6 ADD PUSH2 0x478 JUMP JUMPDEST SWAP2 POP POP SWAP3 SWAP2 POP POP JUMP JUMPDEST PUSH0 DUP2 SWAP1 POP SWAP2 SWAP1 POP JUMP JUMPDEST PUSH2 0x4C9 DUP2 PUSH2 0x4B7 JUMP JUMPDEST DUP2 EQ PUSH2 0x4D3 JUMPI PUSH0 PUSH0 REVERT JUMPDEST POP JUMP JUMPDEST PUSH0 DUP2 CALLDATALOAD SWAP1 POP PUSH2 0x4E4 DUP2 PUSH2 0x4C0 JUMP JUMPDEST SWAP3 SWAP2 POP POP JUMP JUMPDEST PUSH0 PUSH0 PUSH0 PUSH1 0x60 DUP5 DUP7 SUB SLT ISZERO PUSH2 0x501 JUMPI PUSH2 0x500 PUSH2 0x42A JUMP JUMPDEST JUMPDEST PUSH0 PUSH2 0x50E DUP7 DUP3 DUP8 ADD PUSH2 0x478 JUMP JUMPDEST SWAP4 POP POP PUSH1 0x20 PUSH2 0x51F DUP7 DUP3 DUP8 ADD PUSH2 0x478 JUMP JUMPDEST SWAP3 POP POP PUSH1 0x40 PUSH2 0x530 DUP7 DUP3 DUP8 ADD PUSH2 0x4D6 JUMP JUMPDEST SWAP2 POP POP SWAP3 POP SWAP3 POP SWAP3 JUMP JUMPDEST PUSH2 0x543 DUP2 PUSH2 0x451 JUMP JUMPDEST DUP3 MSTORE POP POP JUMP JUMPDEST PUSH0 PUSH1 0x20 DUP3 ADD SWAP1 POP PUSH2 0x55C PUSH0 DUP4 ADD DUP5 PUSH2 0x53A JUMP JUMPDEST SWAP3 SWAP2 POP POP JUMP JUMPDEST PUSH0 DUP2 SWAP1 POP SWAP2 SWAP1 POP JUMP JUMPDEST PUSH0 PUSH2 0x585 PUSH2 0x580 PUSH2 0x57B DUP5 PUSH2 0x432 JUMP JUMPDEST PUSH2 0x562 JUMP JUMPDEST PUSH2 0x432 JUMP JUMPDEST SWAP1 POP SWAP2 SWAP1 POP JUMP JUMPDEST PUSH0 PUSH2 0x596 DUP3 PUSH2 0x56B JUMP JUMPDEST SWAP1 POP SWAP2 SWAP1 POP JUMP JUMPDEST PUSH0 PUSH2 0x5A7 DUP3 PUSH2 0x58C JUMP JUMPDEST SWAP1 POP SWAP2 SWAP1 POP JUMP JUMPDEST PUSH2 0x5B7 DUP2 PUSH2 0x59D JUMP JUMPDEST DUP3 MSTORE POP POP JUMP JUMPDEST PUSH0 PUSH1 0x20 DUP3 ADD SWAP1 POP PUSH2 0x5D0 PUSH0 DUP4 ADD DUP5 PUSH2 0x5AE JUMP JUMPDEST SWAP3 SWAP2 POP POP JUMP JUMPDEST PUSH0 DUP3 DUP3 MSTORE PUSH1 0x20 DUP3 ADD SWAP1 POP SWAP3 SWAP2 POP POP JUMP JUMPDEST PUSH32 0x52657075746174696F6E3A204E6F7420616E20617574686F72697A6564206361 PUSH0 DUP3 ADD MSTORE PUSH32 0x6C6C657200000000000000000000000000000000000000000000000000000000 PUSH1 0x20 DUP3 ADD MSTORE POP JUMP JUMPDEST PUSH0 PUSH2 0x640 PUSH1 0x24 DUP4 PUSH2 0x5D6 JUMP JUMPDEST SWAP2 POP PUSH2 0x64B DUP3 PUSH2 0x5E6 JUMP JUMPDEST PUSH1 0x40 DUP3 ADD SWAP1 POP SWAP2 SWAP1 POP JUMP JUMPDEST PUSH0 PUSH1 0x20 DUP3 ADD SWAP1 POP DUP2 DUP2 SUB PUSH0 DUP4 ADD MSTORE PUSH2 0x66D DUP2 PUSH2 0x634 JUMP JUMPDEST SWAP1 POP SWAP2 SWAP1 POP JUMP JUMPDEST PUSH32 0x52657075746174696F6E3A2053636F7265206D75737420626520626574776565 PUSH0 DUP3 ADD MSTORE PUSH32 0x6E203120616E6420350000000000000000000000000000000000000000000000 PUSH1 0x20 DUP3 ADD MSTORE POP JUMP JUMPDEST PUSH0 PUSH2 0x6CE PUSH1 0x29 DUP4 PUSH2 0x5D6 JUMP JUMPDEST SWAP2 POP PUSH2 0x6D9 DUP3 PUSH2 0x674 JUMP JUMPDEST PUSH1 0x40 DUP3 ADD SWAP1 POP SWAP2 SWAP1 POP JUMP JUMPDEST PUSH0 PUSH1 0x20 DUP3 ADD SWAP1 POP DUP2 DUP2 SUB PUSH0 DUP4 ADD MSTORE PUSH2 0x6FB DUP2 PUSH2 0x6C2 JUMP JUMPDEST SWAP1 POP SWAP2 SWAP1 POP JUMP JUMPDEST PUSH0 PUSH0 REVERT JUMPDEST PUSH0 PUSH1 0x1F NOT PUSH1 0x1F DUP4 ADD AND SWAP1 POP SWAP2 SWAP1 POP JUMP JUMPDEST PUSH32 0x4E487B7100000000000000000000000000000000000000000000000000000000 PUSH0 MSTORE PUSH1 0x41 PUSH1 0x4 MSTORE PUSH1 0x24 PUSH0 REVERT JUMPDEST PUSH2 0x74C DUP3 PUSH2 0x706 JUMP JUMPDEST DUP2 ADD DUP2 DUP2 LT PUSH8 0xFFFFFFFFFFFFFFFF DUP3 GT OR ISZERO PUSH2 0x76B JUMPI PUSH2 0x76A PUSH2 0x716 JUMP JUMPDEST JUMPDEST DUP1 PUSH1 0x40 MSTORE POP POP POP JUMP JUMPDEST PUSH0 PUSH2 0x77D PUSH2 0x421 JUMP JUMPDEST SWAP1 POP PUSH2 0x789 DUP3 DUP3 PUSH2 0x743 JUMP JUMPDEST SWAP2 SWAP1 POP JUMP JUMPDEST PUSH0 PUSH0 REVERT JUMPDEST PUSH0 DUP2 MLOAD SWAP1 POP PUSH2 0x7A0 DUP2 PUSH2 0x462 JUMP JUMPDEST SWAP3 SWAP2 POP POP JUMP JUMPDEST PUSH0 PUSH0 REVERT JUMPDEST PUSH0 PUSH0 REVERT JUMPDEST PUSH0 PUSH8 0xFFFFFFFFFFFFFFFF DUP3 GT ISZERO PUSH2 0x7C8 JUMPI PUSH2 0x7C7 PUSH2 0x716 JUMP JUMPDEST JUMPDEST PUSH2 0x7D1 DUP3 PUSH2 0x706 JUMP JUMPDEST SWAP1 POP PUSH1 0x20 DUP2 ADD SWAP1 POP SWAP2 SWAP1 POP JUMP JUMPDEST DUP3 DUP2 DUP4 MCOPY PUSH0 DUP4 DUP4 ADD MSTORE POP POP POP JUMP JUMPDEST PUSH0 PUSH2 0x7FE PUSH2 0x7F9 DUP5 PUSH2 0x7AE JUMP JUMPDEST PUSH2 0x774 JUMP JUMPDEST SWAP1 POP DUP3 DUP2 MSTORE PUSH1 0x20 DUP2 ADD DUP5 DUP5 DUP5 ADD GT ISZERO PUSH2 0x81A JUMPI PUSH2 0x819 PUSH2 0x7AA JUMP JUMPDEST JUMPDEST PUSH2 0x825 DUP5 DUP3 DUP6 PUSH2 0x7DE JUMP JUMPDEST POP SWAP4 SWAP3 POP POP POP JUMP JUMPDEST PUSH0 DUP3 PUSH1 0x1F DUP4 ADD SLT PUSH2 0x841 JUMPI PUSH2 0x840 PUSH2 0x7A6 JUMP JUMPDEST JUMPDEST DUP2 MLOAD PUSH2 0x851 DUP5 DUP3 PUSH1 0x20 DUP7 ADD PUSH2 0x7EC JUMP JUMPDEST SWAP2 POP POP SWAP3 SWAP2 POP POP JUMP JUMPDEST PUSH0 PUSH8 0xFFFFFFFFFFFFFFFF DUP3 GT ISZERO PUSH2 0x874 JUMPI PUSH2 0x873 PUSH2 0x716 JUMP JUMPDEST JUMPDEST PUSH2 0x87D DUP3 PUSH2 0x706 JUMP JUMPDEST SWAP1 POP PUSH1 0x20 DUP2 ADD SWAP1 POP SWAP2 SWAP1 POP JUMP JUMPDEST PUSH0 PUSH2 0x89C PUSH2 0x897 DUP5 PUSH2 0x85A JUMP JUMPDEST PUSH2 0x774 JUMP JUMPDEST SWAP1 POP DUP3 DUP2 MSTORE PUSH1 0x20 DUP2 ADD DUP5 DUP5 DUP5 ADD GT ISZERO PUSH2 0x8B8 JUMPI PUSH2 0x8B7 PUSH2 0x7AA JUMP JUMPDEST JUMPDEST PUSH2 0x8C3 DUP5 DUP3 DUP6 PUSH2 0x7DE JUMP JUMPDEST POP SWAP4 SWAP3 POP POP POP JUMP JUMPDEST PUSH0 DUP3 PUSH1 0x1F DUP4 ADD SLT PUSH2 0x8DF JUMPI PUSH2 0x8DE PUSH2 0x7A6 JUMP JUMPDEST JUMPDEST DUP2 MLOAD PUSH2 0x8EF DUP5 DUP3 PUSH1 0x20 DUP7 ADD PUSH2 0x88A JUMP JUMPDEST SWAP2 POP POP SWAP3 SWAP2 POP POP JUMP JUMPDEST PUSH0 DUP2 MLOAD SWAP1 POP PUSH2 0x906 DUP2 PUSH2 0x4C0 JUMP JUMPDEST SWAP3 SWAP2 POP POP JUMP JUMPDEST PUSH0 PUSH1 0xC0 DUP3 DUP5 SUB SLT ISZERO PUSH2 0x921 JUMPI PUSH2 0x920 PUSH2 0x702 JUMP JUMPDEST JUMPDEST PUSH2 0x92B PUSH1 0xC0 PUSH2 0x774 JUMP JUMPDEST SWAP1 POP PUSH0 PUSH2 0x93A DUP5 DUP3 DUP6 ADD PUSH2 0x792 JUMP JUMPDEST PUSH0 DUP4 ADD MSTORE POP PUSH1 0x20 DUP3 ADD MLOAD PUSH8 0xFFFFFFFFFFFFFFFF DUP2 GT ISZERO PUSH2 0x95D JUMPI PUSH2 0x95C PUSH2 0x78E JUMP JUMPDEST JUMPDEST PUSH2 0x969 DUP5 DUP3 DUP6 ADD PUSH2 0x82D JUMP JUMPDEST PUSH1 0x20 DUP4 ADD MSTORE POP PUSH1 0x40 DUP3 ADD MLOAD PUSH8 0xFFFFFFFFFFFFFFFF DUP2 GT ISZERO PUSH2 0x98D JUMPI PUSH2 0x98C PUSH2 0x78E JUMP JUMPDEST JUMPDEST PUSH2 0x999 DUP5 DUP3 DUP6 ADD PUSH2 0x82D JUMP JUMPDEST PUSH1 0x40 DUP4 ADD MSTORE POP PUSH1 0x60 DUP3 ADD MLOAD PUSH8 0xFFFFFFFFFFFFFFFF DUP2 GT ISZERO PUSH2 0x9BD JUMPI PUSH2 0x9BC PUSH2 0x78E JUMP JUMPDEST JUMPDEST PUSH2 0x9C9 DUP5 DUP3 DUP6 ADD PUSH2 0x8CB JUMP JUMPDEST PUSH1 0x60 DUP4 ADD MSTORE POP PUSH1 0x80 PUSH2 0x9DD DUP5 DUP3 DUP6 ADD PUSH2 0x8F8 JUMP JUMPDEST PUSH1 0x80 DUP4 ADD MSTORE POP PUSH1 0xA0 PUSH2 0x9F1 DUP5 DUP3 DUP6 ADD PUSH2 0x8F8 JUMP JUMPDEST PUSH1 0xA0 DUP4 ADD MSTORE POP SWAP3 SWAP2 POP POP JUMP JUMPDEST PUSH0 PUSH1 0x20 DUP3 DUP5 SUB SLT ISZERO PUSH2 0xA12 JUMPI PUSH2 0xA11 PUSH2 0x42A JUMP JUMPDEST JUMPDEST PUSH0 DUP3 ADD MLOAD PUSH8 0xFFFFFFFFFFFFFFFF DUP2 GT ISZERO PUSH2 0xA2F JUMPI PUSH2 0xA2E PUSH2 0x42E JUMP JUMPDEST JUMPDEST PUSH2 0xA3B DUP5 DUP3 DUP6 ADD PUSH2 0x90C JUMP JUMPDEST SWAP2 POP POP SWAP3 SWAP2 POP POP JUMP JUMPDEST PUSH32 0x4E487B7100000000000000000000000000000000000000000000000000000000 PUSH0 MSTORE PUSH1 0x11 PUSH1 0x4 MSTORE PUSH1 0x24 PUSH0 REVERT JUMPDEST PUSH0 PUSH2 0xA7B DUP3 PUSH2 0x4B7 JUMP JUMPDEST SWAP2 POP PUSH2 0xA86 DUP4 PUSH2 0x4B7 JUMP JUMPDEST SWAP3 POP DUP3 DUP3 MUL PUSH2 0xA94 DUP2 PUSH2 0x4B7 JUMP JUMPDEST SWAP2 POP DUP3 DUP3 DIV DUP5 EQ DUP4 ISZERO OR PUSH2 0xAAB JUMPI PUSH2 0xAAA PUSH2 0xA44 JUMP JUMPDEST JUMPDEST POP SWAP3 SWAP2 POP POP JUMP JUMPDEST PUSH0 PUSH2 0xABC DUP3 PUSH2 0x4B7 JUMP JUMPDEST SWAP2 POP PUSH2 0xAC7 DUP4 PUSH2 0x4B7 JUMP JUMPDEST SWAP3 POP DUP3 DUP3 ADD SWAP1 POP DUP1 DUP3 GT ISZERO PUSH2 0xADF JUMPI PUSH2 0xADE PUSH2 0xA44 JUMP JUMPDEST JUMPDEST SWAP3 SWAP2 POP POP JUMP JUMPDEST PUSH32 0x4E487B7100000000000000000000000000000000000000000000000000000000 PUSH0 MSTORE PUSH1 0x12 PUSH1 0x4 MSTORE PUSH1 0x24 PUSH0 REVERT JUMPDEST PUSH0 PUSH2 0xB1C DUP3 PUSH2 0x4B7 JUMP JUMPDEST SWAP2 POP PUSH2 0xB27 DUP4 PUSH2 0x4B7 JUMP JUMPDEST SWAP3 POP DUP3 PUSH2 0xB37 JUMPI PUSH2 0xB36 PUSH2 0xAE5 JUMP JUMPDEST JUMPDEST DUP3 DUP3 DIV SWAP1 POP SWAP3 SWAP2 POP POP JUMP JUMPDEST PUSH2 0xB4B DUP2 PUSH2 0x4B7 JUMP JUMPDEST DUP3 MSTORE POP POP JUMP JUMPDEST PUSH0 PUSH1 0x40 DUP3 ADD SWAP1 POP PUSH2 0xB64 PUSH0 DUP4 ADD DUP6 PUSH2 0x53A JUMP JUMPDEST PUSH2 0xB71 PUSH1 0x20 DUP4 ADD DUP5 PUSH2 0xB42 JUMP JUMPDEST SWAP4 SWAP3 POP POP POP JUMP JUMPDEST PUSH0 PUSH1 0x20 DUP3 ADD SWAP1 POP PUSH2 0xB8B PUSH0 DUP4 ADD DUP5 PUSH2 0xB42 JUMP JUMPDEST SWAP3 SWAP2 POP POP JUMP INVALID LOG2 PUSH5 0x6970667358 0x22 SLT KECCAK256 CREATE SWAP10 0xEA BLOCKHASH SWAPN 0x9A PUSH19 0xBBE818F5F1FB73178B0177EC56938B2288E1C9 0xAD DUPN 0x8C 0xD6 0xB2 RJUMP 0x6473 PUSH16 0x6C634300081E00330000000000000000 "
				},
				"gasEstimates": {
					"creation": {
						"codeDepositCost": "603000",
						"executionCost": "infinite",
						"totalCost": "infinite"
					},
					"external": {
						"projectAuthority()": "2529",
						"setProjectAuthority(address)": "24692",
						"submitRating(address,address,uint256)": "infinite",
						"userIdentity()": "infinite"
					}
				},
				"methodIdentifiers": {
					"projectAuthority()": "b0087cfa",
					"setProjectAuthority(address)": "0139746c",
					"submitRating(address,address,uint256)": "5435029a",
					"userIdentity()": "e6007bed"
				}
			},
			"storageLayout": {
				"storage": [
					{
						"astId": 7,
						"contract": "contracts/Governance/Reputation.sol:Reputation",
						"label": "projectAuthority",
						"offset": 0,
						"slot": "0",
						"type": "t_address"
					}
				],
				"types": {
					"t_address": {
						"encoding": "inplace",
						"label": "address",
						"numberOfBytes": "20"
					}
				}
			},
			"userdoc": {
				"kind": "user",
				"methods": {
					"setProjectAuthority(address)": {
						"notice": "Sets the authorized address that can trigger rating updates."
					},
					"submitRating(address,address,uint256)": {
						"notice": "Submits a rating for a user after a project is completed."
					}
				},
				"version": 1
			}
		}
	}
}