{
	"contracts/Financial/PaymentGateway_flattened.sol": {
		"PaymentGateway": {
			"abi": [
				{
					"inputs": [
						{
							"internalType": "address",
							"name": "initialOwner",
							"type": "address"
						},
						{
							"internalType": "address",
							"name": "_initialFeeRecipient",
							"type": "address"
						},
						{
							"internalType": "uint256",
							"name": "_initialFeeBps",
							"type": "uint256"
						}
					],
					"stateMutability": "nonpayable",
					"type": "constructor"
				},
				{
					"inputs": [
						{
							"internalType": "address",
							"name": "owner",
							"type": "address"
						}
					],
					"name": "OwnableInvalidOwner",
					"type": "error"
				},
				{
					"inputs": [
						{
							"internalType": "address",
							"name": "account",
							"type": "address"
						}
					],
					"name": "OwnableUnauthorizedAccount",
					"type": "error"
				},
				{
					"anonymous": false,
					"inputs": [
						{
							"indexed": true,
							"internalType": "address",
							"name": "caller",
							"type": "address"
						},
						{
							"indexed": false,
							"internalType": "bool",
							"name": "authorized",
							"type": "bool"
						}
					],
					"name": "AuthorityUpdated",
					"type": "event"
				},
				{
					"anonymous": false,
					"inputs": [
						{
							"indexed": true,
							"internalType": "address",
							"name": "source",
							"type": "address"
						},
						{
							"indexed": true,
							"internalType": "address",
							"name": "token",
							"type": "address"
						},
						{
							"indexed": false,
							"internalType": "uint256",
							"name": "amount",
							"type": "uint256"
						}
					],
					"name": "FeeTaken",
					"type": "event"
				},
				{
					"anonymous": false,
					"inputs": [
						{
							"indexed": false,
							"internalType": "uint256",
							"name": "newFeeBps",
							"type": "uint256"
						}
					],
					"name": "FeeUpdated",
					"type": "event"
				},
				{
					"anonymous": false,
					"inputs": [
						{
							"indexed": true,
							"internalType": "address",
							"name": "previousOwner",
							"type": "address"
						},
						{
							"indexed": true,
							"internalType": "address",
							"name": "newOwner",
							"type": "address"
						}
					],
					"name": "OwnershipTransferred",
					"type": "event"
				},
				{
					"anonymous": false,
					"inputs": [
						{
							"indexed": false,
							"internalType": "address",
							"name": "newRecipient",
							"type": "address"
						}
					],
					"name": "RecipientUpdated",
					"type": "event"
				},
				{
					"inputs": [],
					"name": "feeRecipient",
					"outputs": [
						{
							"internalType": "address",
							"name": "",
							"type": "address"
						}
					],
					"stateMutability": "view",
					"type": "function"
				},
				{
					"inputs": [
						{
							"internalType": "address",
							"name": "",
							"type": "address"
						}
					],
					"name": "isAuthorizedCaller",
					"outputs": [
						{
							"internalType": "bool",
							"name": "",
							"type": "bool"
						}
					],
					"stateMutability": "view",
					"type": "function"
				},
				{
					"inputs": [],
					"name": "owner",
					"outputs": [
						{
							"internalType": "address",
							"name": "",
							"type": "address"
						}
					],
					"stateMutability": "view",
					"type": "function"
				},
				{
					"inputs": [],
					"name": "platformFeeBps",
					"outputs": [
						{
							"internalType": "uint256",
							"name": "",
							"type": "uint256"
						}
					],
					"stateMutability": "view",
					"type": "function"
				},
				{
					"inputs": [],
					"name": "renounceOwnership",
					"outputs": [],
					"stateMutability": "nonpayable",
					"type": "function"
				},
				{
					"inputs": [
						{
							"internalType": "address",
							"name": "_caller",
							"type": "address"
						},
						{
							"internalType": "bool",
							"name": "_authorized",
							"type": "bool"
						}
					],
					"name": "setCallerAuthority",
					"outputs": [],
					"stateMutability": "nonpayable",
					"type": "function"
				},
				{
					"inputs": [
						{
							"internalType": "uint256",
							"name": "_newFeeBps",
							"type": "uint256"
						}
					],
					"name": "setFeeBps",
					"outputs": [],
					"stateMutability": "nonpayable",
					"type": "function"
				},
				{
					"inputs": [
						{
							"internalType": "address",
							"name": "_newRecipient",
							"type": "address"
						}
					],
					"name": "setFeeRecipient",
					"outputs": [],
					"stateMutability": "nonpayable",
					"type": "function"
				},
				{
					"inputs": [
						{
							"internalType": "address",
							"name": "_token",
							"type": "address"
						},
						{
							"internalType": "address",
							"name": "_from",
							"type": "address"
						},
						{
							"internalType": "uint256",
							"name": "_totalAmount",
							"type": "uint256"
						}
					],
					"name": "takeFee",
					"outputs": [],
					"stateMutability": "nonpayable",
					"type": "function"
				},
				{
					"inputs": [
						{
							"internalType": "address",
							"name": "newOwner",
							"type": "address"
						}
					],
					"name": "transferOwnership",
					"outputs": [],
					"stateMutability": "nonpayable",
					"type": "function"
				}
			],
			"devdoc": {
				"errors": {
					"OwnableInvalidOwner(address)": [
						{
							"details": "The owner is not a valid owner account. (eg. `address(0)`)"
						}
					],
					"OwnableUnauthorizedAccount(address)": [
						{
							"details": "The caller account is not authorized to perform an operation."
						}
					]
				},
				"kind": "dev",
				"methods": {
					"owner()": {
						"details": "Returns the address of the current owner."
					},
					"renounceOwnership()": {
						"details": "Leaves the contract without owner. It will not be possible to call `onlyOwner` functions. Can only be called by the current owner. NOTE: Renouncing ownership will leave the contract without an owner, thereby disabling any functionality that is only available to the owner."
					},
					"transferOwnership(address)": {
						"details": "Transfers ownership of the contract to a new account (`newOwner`). Can only be called by the current owner."
					}
				},
				"version": 1
			},
			"evm": {
				"assembly": "    /* \"contracts/Financial/PaymentGateway_flattened.sol\":6950:8582  contract PaymentGateway is Ownable {... */\n  mstore(0x40, 0x80)\n    /* \"contracts/Financial/PaymentGateway_flattened.sol\":7342:7664  constructor(address initialOwner, address _initialFeeRecipient, uint256 _initialFeeBps) Ownable(initialOwner) { require(_initialFeeRecipient != address(0), \"Recipient cannot be zero address\"); require(_initialFeeBps <= 1000, \"Fee cannot exceed 10%\"); feeRecipient = _initialFeeRecipient; platformFeeBps = _initialFeeBps; } */\n  callvalue\n  dup1\n  iszero\n  tag_1\n  jumpi\n  revert(0x00, 0x00)\ntag_1:\n  pop\n  mload(0x40)\n  sub(codesize, bytecodeSize)\n  dup1\n  bytecodeSize\n  dup4\n  codecopy\n  dup2\n  dup2\n  add\n  0x40\n  mstore\n  dup2\n  add\n  swap1\n  tag_2\n  swap2\n  swap1\n  tag_3\n  jump\t// in\ntag_2:\n    /* \"contracts/Financial/PaymentGateway_flattened.sol\":7438:7450  initialOwner */\n  dup3\n    /* \"contracts/Financial/PaymentGateway_flattened.sol\":2259:2260  0 */\n  0x00\n    /* \"contracts/Financial/PaymentGateway_flattened.sol\":2235:2261  initialOwner == address(0) */\n  0xffffffffffffffffffffffffffffffffffffffff\n  and\n    /* \"contracts/Financial/PaymentGateway_flattened.sol\":2235:2247  initialOwner */\n  dup2\n    /* \"contracts/Financial/PaymentGateway_flattened.sol\":2235:2261  initialOwner == address(0) */\n  0xffffffffffffffffffffffffffffffffffffffff\n  and\n  sub\n    /* \"contracts/Financial/PaymentGateway_flattened.sol\":2231:2326  if (initialOwner == address(0)) {... */\n  tag_7\n  jumpi\n    /* \"contracts/Financial/PaymentGateway_flattened.sol\":2312:2313  0 */\n  0x00\n    /* \"contracts/Financial/PaymentGateway_flattened.sol\":2284:2315  OwnableInvalidOwner(address(0)) */\n  mload(0x40)\n  0x1e4fbdf700000000000000000000000000000000000000000000000000000000\n  dup2\n  mstore\n  0x04\n  add\n  tag_8\n  swap2\n  swap1\n  tag_9\n  jump\t// in\ntag_8:\n  mload(0x40)\n  dup1\n  swap2\n  sub\n  swap1\n  revert\n    /* \"contracts/Financial/PaymentGateway_flattened.sol\":2231:2326  if (initialOwner == address(0)) {... */\ntag_7:\n    /* \"contracts/Financial/PaymentGateway_flattened.sol\":2335:2367  _transferOwnership(initialOwner) */\n  tag_10\n    /* \"contracts/Financial/PaymentGateway_flattened.sol\":2354:2366  initialOwner */\n  dup2\n    /* \"contracts/Financial/PaymentGateway_flattened.sol\":2335:2353  _transferOwnership */\n  shl(0x20, tag_11)\n    /* \"contracts/Financial/PaymentGateway_flattened.sol\":2335:2367  _transferOwnership(initialOwner) */\n  0x20\n  shr\n  jump\t// in\ntag_10:\n    /* \"contracts/Financial/PaymentGateway_flattened.sol\":2187:2374  constructor(address initialOwner) {... */\n  pop\n    /* \"contracts/Financial/PaymentGateway_flattened.sol\":7494:7495  0 */\n  0x00\n    /* \"contracts/Financial/PaymentGateway_flattened.sol\":7462:7496  _initialFeeRecipient != address(0) */\n  0xffffffffffffffffffffffffffffffffffffffff\n  and\n    /* \"contracts/Financial/PaymentGateway_flattened.sol\":7462:7482  _initialFeeRecipient */\n  dup3\n    /* \"contracts/Financial/PaymentGateway_flattened.sol\":7462:7496  _initialFeeRecipient != address(0) */\n  0xffffffffffffffffffffffffffffffffffffffff\n  and\n  sub\n    /* \"contracts/Financial/PaymentGateway_flattened.sol\":7454:7533  require(_initialFeeRecipient != address(0), \"Recipient cannot be zero address\") */\n  tag_13\n  jumpi\n  mload(0x40)\n  0x08c379a000000000000000000000000000000000000000000000000000000000\n  dup2\n  mstore\n  0x04\n  add\n  tag_14\n  swap1\n  tag_15\n  jump\t// in\ntag_14:\n  mload(0x40)\n  dup1\n  swap2\n  sub\n  swap1\n  revert\ntag_13:\n    /* \"contracts/Financial/PaymentGateway_flattened.sol\":7561:7565  1000 */\n  0x03e8\n    /* \"contracts/Financial/PaymentGateway_flattened.sol\":7543:7557  _initialFeeBps */\n  dup2\n    /* \"contracts/Financial/PaymentGateway_flattened.sol\":7543:7565  _initialFeeBps <= 1000 */\n  gt\n  iszero\n    /* \"contracts/Financial/PaymentGateway_flattened.sol\":7535:7591  require(_initialFeeBps <= 1000, \"Fee cannot exceed 10%\") */\n  tag_16\n  jumpi\n  mload(0x40)\n  0x08c379a000000000000000000000000000000000000000000000000000000000\n  dup2\n  mstore\n  0x04\n  add\n  tag_17\n  swap1\n  tag_18\n  jump\t// in\ntag_17:\n  mload(0x40)\n  dup1\n  swap2\n  sub\n  swap1\n  revert\ntag_16:\n    /* \"contracts/Financial/PaymentGateway_flattened.sol\":7608:7628  _initialFeeRecipient */\n  dup2\n    /* \"contracts/Financial/PaymentGateway_flattened.sol\":7593:7605  feeRecipient */\n  0x01\n  0x00\n    /* \"contracts/Financial/PaymentGateway_flattened.sol\":7593:7628  feeRecipient = _initialFeeRecipient */\n  0x0100\n  exp\n  dup2\n  sload\n  dup2\n  0xffffffffffffffffffffffffffffffffffffffff\n  mul\n  not\n  and\n  swap1\n  dup4\n  0xffffffffffffffffffffffffffffffffffffffff\n  and\n  mul\n  or\n  swap1\n  sstore\n  pop\n    /* \"contracts/Financial/PaymentGateway_flattened.sol\":7647:7661  _initialFeeBps */\n  dup1\n    /* \"contracts/Financial/PaymentGateway_flattened.sol\":7630:7644  platformFeeBps */\n  0x02\n    /* \"contracts/Financial/PaymentGateway_flattened.sol\":7630:7661  platformFeeBps = _initialFeeBps */\n  dup2\n  swap1\n  sstore\n  pop\n    /* \"contracts/Financial/PaymentGateway_flattened.sol\":7342:7664  constructor(address initialOwner, address _initialFeeRecipient, uint256 _initialFeeBps) Ownable(initialOwner) { require(_initialFeeRecipient != address(0), \"Recipient cannot be zero address\"); require(_initialFeeBps <= 1000, \"Fee cannot exceed 10%\"); feeRecipient = _initialFeeRecipient; platformFeeBps = _initialFeeBps; } */\n  pop\n  pop\n  pop\n    /* \"contracts/Financial/PaymentGateway_flattened.sol\":6950:8582  contract PaymentGateway is Ownable {... */\n  jump(tag_19)\n    /* \"contracts/Financial/PaymentGateway_flattened.sol\":3874:4061  function _transferOwnership(address newOwner) internal virtual {... */\ntag_11:\n    /* \"contracts/Financial/PaymentGateway_flattened.sol\":3947:3963  address oldOwner */\n  0x00\n    /* \"contracts/Financial/PaymentGateway_flattened.sol\":3966:3972  _owner */\n  0x00\n  0x00\n  swap1\n  sload\n  swap1\n  0x0100\n  exp\n  swap1\n  div\n  0xffffffffffffffffffffffffffffffffffffffff\n  and\n    /* \"contracts/Financial/PaymentGateway_flattened.sol\":3947:3972  address oldOwner = _owner */\n  swap1\n  pop\n    /* \"contracts/Financial/PaymentGateway_flattened.sol\":3991:3999  newOwner */\n  dup2\n    /* \"contracts/Financial/PaymentGateway_flattened.sol\":3982:3988  _owner */\n  0x00\n  0x00\n    /* \"contracts/Financial/PaymentGateway_flattened.sol\":3982:3999  _owner = newOwner */\n  0x0100\n  exp\n  dup2\n  sload\n  dup2\n  0xffffffffffffffffffffffffffffffffffffffff\n  mul\n  not\n  and\n  swap1\n  dup4\n  0xffffffffffffffffffffffffffffffffffffffff\n  and\n  mul\n  or\n  swap1\n  sstore\n  pop\n    /* \"contracts/Financial/PaymentGateway_flattened.sol\":4045:4053  newOwner */\n  dup2\n    /* \"contracts/Financial/PaymentGateway_flattened.sol\":4014:4054  OwnershipTransferred(oldOwner, newOwner) */\n  0xffffffffffffffffffffffffffffffffffffffff\n  and\n    /* \"contracts/Financial/PaymentGateway_flattened.sol\":4035:4043  oldOwner */\n  dup2\n    /* \"contracts/Financial/PaymentGateway_flattened.sol\":4014:4054  OwnershipTransferred(oldOwner, newOwner) */\n  0xffffffffffffffffffffffffffffffffffffffff\n  and\n  0x8be0079c531659141344cd1fd0a4f28419497f9722a3daafe3b4186f6b6457e0\n  mload(0x40)\n  mload(0x40)\n  dup1\n  swap2\n  sub\n  swap1\n  log3\n    /* \"contracts/Financial/PaymentGateway_flattened.sol\":3937:4061  {... */\n  pop\n    /* \"contracts/Financial/PaymentGateway_flattened.sol\":3874:4061  function _transferOwnership(address newOwner) internal virtual {... */\n  pop\n  jump\t// out\n    /* \"#utility.yul\":88:205   */\ntag_22:\n    /* \"#utility.yul\":197:198   */\n  0x00\n    /* \"#utility.yul\":194:195   */\n  0x00\n    /* \"#utility.yul\":187:199   */\n  revert\n    /* \"#utility.yul\":334:460   */\ntag_24:\n    /* \"#utility.yul\":371:378   */\n  0x00\n    /* \"#utility.yul\":411:453   */\n  0xffffffffffffffffffffffffffffffffffffffff\n    /* \"#utility.yul\":404:409   */\n  dup3\n    /* \"#utility.yul\":400:454   */\n  and\n    /* \"#utility.yul\":389:454   */\n  swap1\n  pop\n    /* \"#utility.yul\":334:460   */\n  swap2\n  swap1\n  pop\n  jump\t// out\n    /* \"#utility.yul\":466:562   */\ntag_25:\n    /* \"#utility.yul\":503:510   */\n  0x00\n    /* \"#utility.yul\":532:556   */\n  tag_43\n    /* \"#utility.yul\":550:555   */\n  dup3\n    /* \"#utility.yul\":532:556   */\n  tag_24\n  jump\t// in\ntag_43:\n    /* \"#utility.yul\":521:556   */\n  swap1\n  pop\n    /* \"#utility.yul\":466:562   */\n  swap2\n  swap1\n  pop\n  jump\t// out\n    /* \"#utility.yul\":568:690   */\ntag_26:\n    /* \"#utility.yul\":641:665   */\n  tag_45\n    /* \"#utility.yul\":659:664   */\n  dup2\n    /* \"#utility.yul\":641:665   */\n  tag_25\n  jump\t// in\ntag_45:\n    /* \"#utility.yul\":634:639   */\n  dup2\n    /* \"#utility.yul\":631:666   */\n  eq\n    /* \"#utility.yul\":621:684   */\n  tag_46\n  jumpi\n    /* \"#utility.yul\":680:681   */\n  0x00\n    /* \"#utility.yul\":677:678   */\n  0x00\n    /* \"#utility.yul\":670:682   */\n  revert\n    /* \"#utility.yul\":621:684   */\ntag_46:\n    /* \"#utility.yul\":568:690   */\n  pop\n  jump\t// out\n    /* \"#utility.yul\":696:839   */\ntag_27:\n    /* \"#utility.yul\":753:758   */\n  0x00\n    /* \"#utility.yul\":784:790   */\n  dup2\n    /* \"#utility.yul\":778:791   */\n  mload\n    /* \"#utility.yul\":769:791   */\n  swap1\n  pop\n    /* \"#utility.yul\":800:833   */\n  tag_48\n    /* \"#utility.yul\":827:832   */\n  dup2\n    /* \"#utility.yul\":800:833   */\n  tag_26\n  jump\t// in\ntag_48:\n    /* \"#utility.yul\":696:839   */\n  swap3\n  swap2\n  pop\n  pop\n  jump\t// out\n    /* \"#utility.yul\":845:922   */\ntag_28:\n    /* \"#utility.yul\":882:889   */\n  0x00\n    /* \"#utility.yul\":911:916   */\n  dup2\n    /* \"#utility.yul\":900:916   */\n  swap1\n  pop\n    /* \"#utility.yul\":845:922   */\n  swap2\n  swap1\n  pop\n  jump\t// out\n    /* \"#utility.yul\":928:1050   */\ntag_29:\n    /* \"#utility.yul\":1001:1025   */\n  tag_51\n    /* \"#utility.yul\":1019:1024   */\n  dup2\n    /* \"#utility.yul\":1001:1025   */\n  tag_28\n  jump\t// in\ntag_51:\n    /* \"#utility.yul\":994:999   */\n  dup2\n    /* \"#utility.yul\":991:1026   */\n  eq\n    /* \"#utility.yul\":981:1044   */\n  tag_52\n  jumpi\n    /* \"#utility.yul\":1040:1041   */\n  0x00\n    /* \"#utility.yul\":1037:1038   */\n  0x00\n    /* \"#utility.yul\":1030:1042   */\n  revert\n    /* \"#utility.yul\":981:1044   */\ntag_52:\n    /* \"#utility.yul\":928:1050   */\n  pop\n  jump\t// out\n    /* \"#utility.yul\":1056:1199   */\ntag_30:\n    /* \"#utility.yul\":1113:1118   */\n  0x00\n    /* \"#utility.yul\":1144:1150   */\n  dup2\n    /* \"#utility.yul\":1138:1151   */\n  mload\n    /* \"#utility.yul\":1129:1151   */\n  swap1\n  pop\n    /* \"#utility.yul\":1160:1193   */\n  tag_54\n    /* \"#utility.yul\":1187:1192   */\n  dup2\n    /* \"#utility.yul\":1160:1193   */\n  tag_29\n  jump\t// in\ntag_54:\n    /* \"#utility.yul\":1056:1199   */\n  swap3\n  swap2\n  pop\n  pop\n  jump\t// out\n    /* \"#utility.yul\":1205:1868   */\ntag_3:\n    /* \"#utility.yul\":1293:1299   */\n  0x00\n    /* \"#utility.yul\":1301:1307   */\n  0x00\n    /* \"#utility.yul\":1309:1315   */\n  0x00\n    /* \"#utility.yul\":1358:1360   */\n  0x60\n    /* \"#utility.yul\":1346:1355   */\n  dup5\n    /* \"#utility.yul\":1337:1344   */\n  dup7\n    /* \"#utility.yul\":1333:1356   */\n  sub\n    /* \"#utility.yul\":1329:1361   */\n  slt\n    /* \"#utility.yul\":1326:1445   */\n  iszero\n  tag_56\n  jumpi\n    /* \"#utility.yul\":1364:1443   */\n  tag_57\n  tag_22\n  jump\t// in\ntag_57:\n    /* \"#utility.yul\":1326:1445   */\ntag_56:\n    /* \"#utility.yul\":1484:1485   */\n  0x00\n    /* \"#utility.yul\":1509:1573   */\n  tag_58\n    /* \"#utility.yul\":1565:1572   */\n  dup7\n    /* \"#utility.yul\":1556:1562   */\n  dup3\n    /* \"#utility.yul\":1545:1554   */\n  dup8\n    /* \"#utility.yul\":1541:1563   */\n  add\n    /* \"#utility.yul\":1509:1573   */\n  tag_27\n  jump\t// in\ntag_58:\n    /* \"#utility.yul\":1499:1573   */\n  swap4\n  pop\n    /* \"#utility.yul\":1455:1583   */\n  pop\n    /* \"#utility.yul\":1622:1624   */\n  0x20\n    /* \"#utility.yul\":1648:1712   */\n  tag_59\n    /* \"#utility.yul\":1704:1711   */\n  dup7\n    /* \"#utility.yul\":1695:1701   */\n  dup3\n    /* \"#utility.yul\":1684:1693   */\n  dup8\n    /* \"#utility.yul\":1680:1702   */\n  add\n    /* \"#utility.yul\":1648:1712   */\n  tag_27\n  jump\t// in\ntag_59:\n    /* \"#utility.yul\":1638:1712   */\n  swap3\n  pop\n    /* \"#utility.yul\":1593:1722   */\n  pop\n    /* \"#utility.yul\":1761:1763   */\n  0x40\n    /* \"#utility.yul\":1787:1851   */\n  tag_60\n    /* \"#utility.yul\":1843:1850   */\n  dup7\n    /* \"#utility.yul\":1834:1840   */\n  dup3\n    /* \"#utility.yul\":1823:1832   */\n  dup8\n    /* \"#utility.yul\":1819:1841   */\n  add\n    /* \"#utility.yul\":1787:1851   */\n  tag_30\n  jump\t// in\ntag_60:\n    /* \"#utility.yul\":1777:1851   */\n  swap2\n  pop\n    /* \"#utility.yul\":1732:1861   */\n  pop\n    /* \"#utility.yul\":1205:1868   */\n  swap3\n  pop\n  swap3\n  pop\n  swap3\n  jump\t// out\n    /* \"#utility.yul\":1874:1992   */\ntag_31:\n    /* \"#utility.yul\":1961:1985   */\n  tag_62\n    /* \"#utility.yul\":1979:1984   */\n  dup2\n    /* \"#utility.yul\":1961:1985   */\n  tag_25\n  jump\t// in\ntag_62:\n    /* \"#utility.yul\":1956:1959   */\n  dup3\n    /* \"#utility.yul\":1949:1986   */\n  mstore\n    /* \"#utility.yul\":1874:1992   */\n  pop\n  pop\n  jump\t// out\n    /* \"#utility.yul\":1998:2220   */\ntag_9:\n    /* \"#utility.yul\":2091:2095   */\n  0x00\n    /* \"#utility.yul\":2129:2131   */\n  0x20\n    /* \"#utility.yul\":2118:2127   */\n  dup3\n    /* \"#utility.yul\":2114:2132   */\n  add\n    /* \"#utility.yul\":2106:2132   */\n  swap1\n  pop\n    /* \"#utility.yul\":2142:2213   */\n  tag_64\n    /* \"#utility.yul\":2210:2211   */\n  0x00\n    /* \"#utility.yul\":2199:2208   */\n  dup4\n    /* \"#utility.yul\":2195:2212   */\n  add\n    /* \"#utility.yul\":2186:2192   */\n  dup5\n    /* \"#utility.yul\":2142:2213   */\n  tag_31\n  jump\t// in\ntag_64:\n    /* \"#utility.yul\":1998:2220   */\n  swap3\n  swap2\n  pop\n  pop\n  jump\t// out\n    /* \"#utility.yul\":2226:2395   */\ntag_32:\n    /* \"#utility.yul\":2310:2321   */\n  0x00\n    /* \"#utility.yul\":2344:2350   */\n  dup3\n    /* \"#utility.yul\":2339:2342   */\n  dup3\n    /* \"#utility.yul\":2332:2351   */\n  mstore\n    /* \"#utility.yul\":2384:2388   */\n  0x20\n    /* \"#utility.yul\":2379:2382   */\n  dup3\n    /* \"#utility.yul\":2375:2389   */\n  add\n    /* \"#utility.yul\":2360:2389   */\n  swap1\n  pop\n    /* \"#utility.yul\":2226:2395   */\n  swap3\n  swap2\n  pop\n  pop\n  jump\t// out\n    /* \"#utility.yul\":2401:2583   */\ntag_33:\n    /* \"#utility.yul\":2541:2575   */\n  0x526563697069656e742063616e6e6f74206265207a65726f2061646472657373\n    /* \"#utility.yul\":2537:2538   */\n  0x00\n    /* \"#utility.yul\":2529:2535   */\n  dup3\n    /* \"#utility.yul\":2525:2539   */\n  add\n    /* \"#utility.yul\":2518:2576   */\n  mstore\n    /* \"#utility.yul\":2401:2583   */\n  pop\n  jump\t// out\n    /* \"#utility.yul\":2589:2955   */\ntag_34:\n    /* \"#utility.yul\":2731:2734   */\n  0x00\n    /* \"#utility.yul\":2752:2819   */\n  tag_68\n    /* \"#utility.yul\":2816:2818   */\n  0x20\n    /* \"#utility.yul\":2811:2814   */\n  dup4\n    /* \"#utility.yul\":2752:2819   */\n  tag_32\n  jump\t// in\ntag_68:\n    /* \"#utility.yul\":2745:2819   */\n  swap2\n  pop\n    /* \"#utility.yul\":2828:2921   */\n  tag_69\n    /* \"#utility.yul\":2917:2920   */\n  dup3\n    /* \"#utility.yul\":2828:2921   */\n  tag_33\n  jump\t// in\ntag_69:\n    /* \"#utility.yul\":2946:2948   */\n  0x20\n    /* \"#utility.yul\":2941:2944   */\n  dup3\n    /* \"#utility.yul\":2937:2949   */\n  add\n    /* \"#utility.yul\":2930:2949   */\n  swap1\n  pop\n    /* \"#utility.yul\":2589:2955   */\n  swap2\n  swap1\n  pop\n  jump\t// out\n    /* \"#utility.yul\":2961:3380   */\ntag_15:\n    /* \"#utility.yul\":3127:3131   */\n  0x00\n    /* \"#utility.yul\":3165:3167   */\n  0x20\n    /* \"#utility.yul\":3154:3163   */\n  dup3\n    /* \"#utility.yul\":3150:3168   */\n  add\n    /* \"#utility.yul\":3142:3168   */\n  swap1\n  pop\n    /* \"#utility.yul\":3214:3223   */\n  dup2\n    /* \"#utility.yul\":3208:3212   */\n  dup2\n    /* \"#utility.yul\":3204:3224   */\n  sub\n    /* \"#utility.yul\":3200:3201   */\n  0x00\n    /* \"#utility.yul\":3189:3198   */\n  dup4\n    /* \"#utility.yul\":3185:3202   */\n  add\n    /* \"#utility.yul\":3178:3225   */\n  mstore\n    /* \"#utility.yul\":3242:3373   */\n  tag_71\n    /* \"#utility.yul\":3368:3372   */\n  dup2\n    /* \"#utility.yul\":3242:3373   */\n  tag_34\n  jump\t// in\ntag_71:\n    /* \"#utility.yul\":3234:3373   */\n  swap1\n  pop\n    /* \"#utility.yul\":2961:3380   */\n  swap2\n  swap1\n  pop\n  jump\t// out\n    /* \"#utility.yul\":3386:3557   */\ntag_35:\n    /* \"#utility.yul\":3526:3549   */\n  0x4665652063616e6e6f7420657863656564203130250000000000000000000000\n    /* \"#utility.yul\":3522:3523   */\n  0x00\n    /* \"#utility.yul\":3514:3520   */\n  dup3\n    /* \"#utility.yul\":3510:3524   */\n  add\n    /* \"#utility.yul\":3503:3550   */\n  mstore\n    /* \"#utility.yul\":3386:3557   */\n  pop\n  jump\t// out\n    /* \"#utility.yul\":3563:3929   */\ntag_36:\n    /* \"#utility.yul\":3705:3708   */\n  0x00\n    /* \"#utility.yul\":3726:3793   */\n  tag_74\n    /* \"#utility.yul\":3790:3792   */\n  0x15\n    /* \"#utility.yul\":3785:3788   */\n  dup4\n    /* \"#utility.yul\":3726:3793   */\n  tag_32\n  jump\t// in\ntag_74:\n    /* \"#utility.yul\":3719:3793   */\n  swap2\n  pop\n    /* \"#utility.yul\":3802:3895   */\n  tag_75\n    /* \"#utility.yul\":3891:3894   */\n  dup3\n    /* \"#utility.yul\":3802:3895   */\n  tag_35\n  jump\t// in\ntag_75:\n    /* \"#utility.yul\":3920:3922   */\n  0x20\n    /* \"#utility.yul\":3915:3918   */\n  dup3\n    /* \"#utility.yul\":3911:3923   */\n  add\n    /* \"#utility.yul\":3904:3923   */\n  swap1\n  pop\n    /* \"#utility.yul\":3563:3929   */\n  swap2\n  swap1\n  pop\n  jump\t// out\n    /* \"#utility.yul\":3935:4354   */\ntag_18:\n    /* \"#utility.yul\":4101:4105   */\n  0x00\n    /* \"#utility.yul\":4139:4141   */\n  0x20\n    /* \"#utility.yul\":4128:4137   */\n  dup3\n    /* \"#utility.yul\":4124:4142   */\n  add\n    /* \"#utility.yul\":4116:4142   */\n  swap1\n  pop\n    /* \"#utility.yul\":4188:4197   */\n  dup2\n    /* \"#utility.yul\":4182:4186   */\n  dup2\n    /* \"#utility.yul\":4178:4198   */\n  sub\n    /* \"#utility.yul\":4174:4175   */\n  0x00\n    /* \"#utility.yul\":4163:4172   */\n  dup4\n    /* \"#utility.yul\":4159:4176   */\n  add\n    /* \"#utility.yul\":4152:4199   */\n  mstore\n    /* \"#utility.yul\":4216:4347   */\n  tag_77\n    /* \"#utility.yul\":4342:4346   */\n  dup2\n    /* \"#utility.yul\":4216:4347   */\n  tag_36\n  jump\t// in\ntag_77:\n    /* \"#utility.yul\":4208:4347   */\n  swap1\n  pop\n    /* \"#utility.yul\":3935:4354   */\n  swap2\n  swap1\n  pop\n  jump\t// out\n    /* \"contracts/Financial/PaymentGateway_flattened.sol\":6950:8582  contract PaymentGateway is Ownable {... */\ntag_19:\n  dataSize(sub_0)\n  dup1\n  dataOffset(sub_0)\n  0x00\n  codecopy\n  0x00\n  return\nstop\n\nsub_0: assembly {\n        /* \"contracts/Financial/PaymentGateway_flattened.sol\":6950:8582  contract PaymentGateway is Ownable {... */\n      mstore(0x40, 0x80)\n      callvalue\n      dup1\n      iszero\n      tag_1\n      jumpi\n      revert(0x00, 0x00)\n    tag_1:\n      pop\n      jumpi(tag_2, lt(calldatasize, 0x04))\n      shr(0xe0, calldataload(0x00))\n      dup1\n      0x715018a6\n      gt\n      tag_13\n      jumpi\n      dup1\n      0x715018a6\n      eq\n      tag_8\n      jumpi\n      dup1\n      0x72c27b62\n      eq\n      tag_9\n      jumpi\n      dup1\n      0x8da5cb5b\n      eq\n      tag_10\n      jumpi\n      dup1\n      0xe74b981b\n      eq\n      tag_11\n      jumpi\n      dup1\n      0xf2fde38b\n      eq\n      tag_12\n      jumpi\n      jump(tag_2)\n    tag_13:\n      dup1\n      0x20cb7bce\n      eq\n      tag_3\n      jumpi\n      dup1\n      0x22dcd13e\n      eq\n      tag_4\n      jumpi\n      dup1\n      0x46904840\n      eq\n      tag_5\n      jumpi\n      dup1\n      0x4a98af54\n      eq\n      tag_6\n      jumpi\n      dup1\n      0x59d14b41\n      eq\n      tag_7\n      jumpi\n    tag_2:\n      revert(0x00, 0x00)\n        /* \"contracts/Financial/PaymentGateway_flattened.sol\":7669:8003  function takeFee(address _token, address _from, uint256 _totalAmount) external { require(isAuthorizedCaller[msg.sender], \"PaymentGateway: Not an authorized caller\"); uint256 fee = (_totalAmount * platformFeeBps) / 10000; if (fee > 0) { IERC20(_token).transferFrom(_from, feeRecipient, fee); emit FeeTaken(msg.sender, _token, fee); } } */\n    tag_3:\n      tag_14\n      0x04\n      dup1\n      calldatasize\n      sub\n      dup2\n      add\n      swap1\n      tag_15\n      swap2\n      swap1\n      tag_16\n      jump\t// in\n    tag_15:\n      tag_17\n      jump\t// in\n    tag_14:\n      stop\n        /* \"contracts/Financial/PaymentGateway_flattened.sol\":7020:7049  uint256 public platformFeeBps */\n    tag_4:\n      tag_18\n      tag_19\n      jump\t// in\n    tag_18:\n      mload(0x40)\n      tag_20\n      swap2\n      swap1\n      tag_21\n      jump\t// in\n    tag_20:\n      mload(0x40)\n      dup1\n      swap2\n      sub\n      swap1\n      return\n        /* \"contracts/Financial/PaymentGateway_flattened.sol\":6991:7018  address public feeRecipient */\n    tag_5:\n      tag_22\n      tag_23\n      jump\t// in\n    tag_22:\n      mload(0x40)\n      tag_24\n      swap2\n      swap1\n      tag_25\n      jump\t// in\n    tag_24:\n      mload(0x40)\n      dup1\n      swap2\n      sub\n      swap1\n      return\n        /* \"contracts/Financial/PaymentGateway_flattened.sol\":8407:8580  function setCallerAuthority(address _caller, bool _authorized) external onlyOwner { isAuthorizedCaller[_caller] = _authorized; emit AuthorityUpdated(_caller, _authorized); } */\n    tag_6:\n      tag_26\n      0x04\n      dup1\n      calldatasize\n      sub\n      dup2\n      add\n      swap1\n      tag_27\n      swap2\n      swap1\n      tag_28\n      jump\t// in\n    tag_27:\n      tag_29\n      jump\t// in\n    tag_26:\n      stop\n        /* \"contracts/Financial/PaymentGateway_flattened.sol\":7055:7105  mapping(address => bool) public isAuthorizedCaller */\n    tag_7:\n      tag_30\n      0x04\n      dup1\n      calldatasize\n      sub\n      dup2\n      add\n      swap1\n      tag_31\n      swap2\n      swap1\n      tag_32\n      jump\t// in\n    tag_31:\n      tag_33\n      jump\t// in\n    tag_30:\n      mload(0x40)\n      tag_34\n      swap2\n      swap1\n      tag_35\n      jump\t// in\n    tag_34:\n      mload(0x40)\n      dup1\n      swap2\n      sub\n      swap1\n      return\n        /* \"contracts/Financial/PaymentGateway_flattened.sol\":3255:3356  function renounceOwnership() public virtual onlyOwner {... */\n    tag_8:\n      tag_36\n      tag_37\n      jump\t// in\n    tag_36:\n      stop\n        /* \"contracts/Financial/PaymentGateway_flattened.sol\":8008:8181  function setFeeBps(uint256 _newFeeBps) external onlyOwner { require(_newFeeBps <= 1000, \"Fee cannot exceed 10%\"); platformFeeBps = _newFeeBps; emit FeeUpdated(_newFeeBps); } */\n    tag_9:\n      tag_38\n      0x04\n      dup1\n      calldatasize\n      sub\n      dup2\n      add\n      swap1\n      tag_39\n      swap2\n      swap1\n      tag_40\n      jump\t// in\n    tag_39:\n      tag_41\n      jump\t// in\n    tag_38:\n      stop\n        /* \"contracts/Financial/PaymentGateway_flattened.sol\":2600:2685  function owner() public view virtual returns (address) {... */\n    tag_10:\n      tag_42\n      tag_43\n      jump\t// in\n    tag_42:\n      mload(0x40)\n      tag_44\n      swap2\n      swap1\n      tag_25\n      jump\t// in\n    tag_44:\n      mload(0x40)\n      dup1\n      swap2\n      sub\n      swap1\n      return\n        /* \"contracts/Financial/PaymentGateway_flattened.sol\":8186:8402  function setFeeRecipient(address _newRecipient) external onlyOwner { require(_newRecipient != address(0), \"Cannot set recipient to zero address\"); feeRecipient = _newRecipient; emit RecipientUpdated(_newRecipient); } */\n    tag_11:\n      tag_45\n      0x04\n      dup1\n      calldatasize\n      sub\n      dup2\n      add\n      swap1\n      tag_46\n      swap2\n      swap1\n      tag_32\n      jump\t// in\n    tag_46:\n      tag_47\n      jump\t// in\n    tag_45:\n      stop\n        /* \"contracts/Financial/PaymentGateway_flattened.sol\":3505:3720  function transferOwnership(address newOwner) public virtual onlyOwner {... */\n    tag_12:\n      tag_48\n      0x04\n      dup1\n      calldatasize\n      sub\n      dup2\n      add\n      swap1\n      tag_49\n      swap2\n      swap1\n      tag_32\n      jump\t// in\n    tag_49:\n      tag_50\n      jump\t// in\n    tag_48:\n      stop\n        /* \"contracts/Financial/PaymentGateway_flattened.sol\":7669:8003  function takeFee(address _token, address _from, uint256 _totalAmount) external { require(isAuthorizedCaller[msg.sender], \"PaymentGateway: Not an authorized caller\"); uint256 fee = (_totalAmount * platformFeeBps) / 10000; if (fee > 0) { IERC20(_token).transferFrom(_from, feeRecipient, fee); emit FeeTaken(msg.sender, _token, fee); } } */\n    tag_17:\n        /* \"contracts/Financial/PaymentGateway_flattened.sol\":7758:7776  isAuthorizedCaller */\n      0x03\n        /* \"contracts/Financial/PaymentGateway_flattened.sol\":7758:7788  isAuthorizedCaller[msg.sender] */\n      0x00\n        /* \"contracts/Financial/PaymentGateway_flattened.sol\":7777:7787  msg.sender */\n      caller\n        /* \"contracts/Financial/PaymentGateway_flattened.sol\":7758:7788  isAuthorizedCaller[msg.sender] */\n      0xffffffffffffffffffffffffffffffffffffffff\n      and\n      0xffffffffffffffffffffffffffffffffffffffff\n      and\n      dup2\n      mstore\n      0x20\n      add\n      swap1\n      dup2\n      mstore\n      0x20\n      add\n      0x00\n      keccak256\n      0x00\n      swap1\n      sload\n      swap1\n      0x0100\n      exp\n      swap1\n      div\n      0xff\n      and\n        /* \"contracts/Financial/PaymentGateway_flattened.sol\":7750:7833  require(isAuthorizedCaller[msg.sender], \"PaymentGateway: Not an authorized caller\") */\n      tag_52\n      jumpi\n      mload(0x40)\n      0x08c379a000000000000000000000000000000000000000000000000000000000\n      dup2\n      mstore\n      0x04\n      add\n      tag_53\n      swap1\n      tag_54\n      jump\t// in\n    tag_53:\n      mload(0x40)\n      dup1\n      swap2\n      sub\n      swap1\n      revert\n    tag_52:\n        /* \"contracts/Financial/PaymentGateway_flattened.sol\":7835:7846  uint256 fee */\n      0x00\n        /* \"contracts/Financial/PaymentGateway_flattened.sol\":7883:7888  10000 */\n      0x2710\n        /* \"contracts/Financial/PaymentGateway_flattened.sol\":7865:7879  platformFeeBps */\n      sload(0x02)\n        /* \"contracts/Financial/PaymentGateway_flattened.sol\":7850:7862  _totalAmount */\n      dup4\n        /* \"contracts/Financial/PaymentGateway_flattened.sol\":7850:7879  _totalAmount * platformFeeBps */\n      tag_55\n      swap2\n      swap1\n      tag_56\n      jump\t// in\n    tag_55:\n        /* \"contracts/Financial/PaymentGateway_flattened.sol\":7849:7888  (_totalAmount * platformFeeBps) / 10000 */\n      tag_57\n      swap2\n      swap1\n      tag_58\n      jump\t// in\n    tag_57:\n        /* \"contracts/Financial/PaymentGateway_flattened.sol\":7835:7888  uint256 fee = (_totalAmount * platformFeeBps) / 10000 */\n      swap1\n      pop\n        /* \"contracts/Financial/PaymentGateway_flattened.sol\":7900:7901  0 */\n      0x00\n        /* \"contracts/Financial/PaymentGateway_flattened.sol\":7894:7897  fee */\n      dup2\n        /* \"contracts/Financial/PaymentGateway_flattened.sol\":7894:7901  fee > 0 */\n      gt\n        /* \"contracts/Financial/PaymentGateway_flattened.sol\":7890:8001  if (fee > 0) { IERC20(_token).transferFrom(_from, feeRecipient, fee); emit FeeTaken(msg.sender, _token, fee); } */\n      iszero\n      tag_59\n      jumpi\n        /* \"contracts/Financial/PaymentGateway_flattened.sol\":7912:7918  _token */\n      dup4\n        /* \"contracts/Financial/PaymentGateway_flattened.sol\":7905:7932  IERC20(_token).transferFrom */\n      0xffffffffffffffffffffffffffffffffffffffff\n      and\n      0x23b872dd\n        /* \"contracts/Financial/PaymentGateway_flattened.sol\":7933:7938  _from */\n      dup5\n        /* \"contracts/Financial/PaymentGateway_flattened.sol\":7940:7952  feeRecipient */\n      0x01\n      0x00\n      swap1\n      sload\n      swap1\n      0x0100\n      exp\n      swap1\n      div\n      0xffffffffffffffffffffffffffffffffffffffff\n      and\n        /* \"contracts/Financial/PaymentGateway_flattened.sol\":7954:7957  fee */\n      dup5\n        /* \"contracts/Financial/PaymentGateway_flattened.sol\":7905:7958  IERC20(_token).transferFrom(_from, feeRecipient, fee) */\n      mload(0x40)\n      dup5\n      0xffffffff\n      and\n      0xe0\n      shl\n      dup2\n      mstore\n      0x04\n      add\n      tag_60\n      swap4\n      swap3\n      swap2\n      swap1\n      tag_61\n      jump\t// in\n    tag_60:\n      0x20\n      mload(0x40)\n      dup1\n      dup4\n      sub\n      dup2\n      0x00\n      dup8\n      gas\n      call\n      iszero\n      dup1\n      iszero\n      tag_63\n      jumpi\n      returndatacopy(0x00, 0x00, returndatasize)\n      revert(0x00, returndatasize)\n    tag_63:\n      pop\n      pop\n      pop\n      pop\n      mload(0x40)\n      returndatasize\n      not(0x1f)\n      0x1f\n      dup3\n      add\n      and\n      dup3\n      add\n      dup1\n      0x40\n      mstore\n      pop\n      dup2\n      add\n      swap1\n      tag_64\n      swap2\n      swap1\n      tag_65\n      jump\t// in\n    tag_64:\n      pop\n        /* \"contracts/Financial/PaymentGateway_flattened.sol\":7986:7992  _token */\n      dup4\n        /* \"contracts/Financial/PaymentGateway_flattened.sol\":7965:7998  FeeTaken(msg.sender, _token, fee) */\n      0xffffffffffffffffffffffffffffffffffffffff\n      and\n        /* \"contracts/Financial/PaymentGateway_flattened.sol\":7974:7984  msg.sender */\n      caller\n        /* \"contracts/Financial/PaymentGateway_flattened.sol\":7965:7998  FeeTaken(msg.sender, _token, fee) */\n      0xffffffffffffffffffffffffffffffffffffffff\n      and\n      0xe0e765ab26c1caf691c510426951246128b96830e49cc81d8c093fd551abac35\n        /* \"contracts/Financial/PaymentGateway_flattened.sol\":7994:7997  fee */\n      dup4\n        /* \"contracts/Financial/PaymentGateway_flattened.sol\":7965:7998  FeeTaken(msg.sender, _token, fee) */\n      mload(0x40)\n      tag_66\n      swap2\n      swap1\n      tag_21\n      jump\t// in\n    tag_66:\n      mload(0x40)\n      dup1\n      swap2\n      sub\n      swap1\n      log3\n        /* \"contracts/Financial/PaymentGateway_flattened.sol\":7890:8001  if (fee > 0) { IERC20(_token).transferFrom(_from, feeRecipient, fee); emit FeeTaken(msg.sender, _token, fee); } */\n    tag_59:\n        /* \"contracts/Financial/PaymentGateway_flattened.sol\":7748:8003  { require(isAuthorizedCaller[msg.sender], \"PaymentGateway: Not an authorized caller\"); uint256 fee = (_totalAmount * platformFeeBps) / 10000; if (fee > 0) { IERC20(_token).transferFrom(_from, feeRecipient, fee); emit FeeTaken(msg.sender, _token, fee); } } */\n      pop\n        /* \"contracts/Financial/PaymentGateway_flattened.sol\":7669:8003  function takeFee(address _token, address _from, uint256 _totalAmount) external { require(isAuthorizedCaller[msg.sender], \"PaymentGateway: Not an authorized caller\"); uint256 fee = (_totalAmount * platformFeeBps) / 10000; if (fee > 0) { IERC20(_token).transferFrom(_from, feeRecipient, fee); emit FeeTaken(msg.sender, _token, fee); } } */\n      pop\n      pop\n      pop\n      jump\t// out\n        /* \"contracts/Financial/PaymentGateway_flattened.sol\":7020:7049  uint256 public platformFeeBps */\n    tag_19:\n      sload(0x02)\n      dup2\n      jump\t// out\n        /* \"contracts/Financial/PaymentGateway_flattened.sol\":6991:7018  address public feeRecipient */\n    tag_23:\n      0x01\n      0x00\n      swap1\n      sload\n      swap1\n      0x0100\n      exp\n      swap1\n      div\n      0xffffffffffffffffffffffffffffffffffffffff\n      and\n      dup2\n      jump\t// out\n        /* \"contracts/Financial/PaymentGateway_flattened.sol\":8407:8580  function setCallerAuthority(address _caller, bool _authorized) external onlyOwner { isAuthorizedCaller[_caller] = _authorized; emit AuthorityUpdated(_caller, _authorized); } */\n    tag_29:\n        /* \"contracts/Financial/PaymentGateway_flattened.sol\":2493:2506  _checkOwner() */\n      tag_68\n        /* \"contracts/Financial/PaymentGateway_flattened.sol\":2493:2504  _checkOwner */\n      tag_69\n        /* \"contracts/Financial/PaymentGateway_flattened.sol\":2493:2506  _checkOwner() */\n      jump\t// in\n    tag_68:\n        /* \"contracts/Financial/PaymentGateway_flattened.sol\":8521:8532  _authorized */\n      dup1\n        /* \"contracts/Financial/PaymentGateway_flattened.sol\":8491:8509  isAuthorizedCaller */\n      0x03\n        /* \"contracts/Financial/PaymentGateway_flattened.sol\":8491:8518  isAuthorizedCaller[_caller] */\n      0x00\n        /* \"contracts/Financial/PaymentGateway_flattened.sol\":8510:8517  _caller */\n      dup5\n        /* \"contracts/Financial/PaymentGateway_flattened.sol\":8491:8518  isAuthorizedCaller[_caller] */\n      0xffffffffffffffffffffffffffffffffffffffff\n      and\n      0xffffffffffffffffffffffffffffffffffffffff\n      and\n      dup2\n      mstore\n      0x20\n      add\n      swap1\n      dup2\n      mstore\n      0x20\n      add\n      0x00\n      keccak256\n      0x00\n        /* \"contracts/Financial/PaymentGateway_flattened.sol\":8491:8532  isAuthorizedCaller[_caller] = _authorized */\n      0x0100\n      exp\n      dup2\n      sload\n      dup2\n      0xff\n      mul\n      not\n      and\n      swap1\n      dup4\n      iszero\n      iszero\n      mul\n      or\n      swap1\n      sstore\n      pop\n        /* \"contracts/Financial/PaymentGateway_flattened.sol\":8556:8563  _caller */\n      dup2\n        /* \"contracts/Financial/PaymentGateway_flattened.sol\":8539:8577  AuthorityUpdated(_caller, _authorized) */\n      0xffffffffffffffffffffffffffffffffffffffff\n      and\n      0xc5238a63fa205f95e98807f6cbc91d2ad8555a2250075e47491f11d9c69db3bc\n        /* \"contracts/Financial/PaymentGateway_flattened.sol\":8565:8576  _authorized */\n      dup3\n        /* \"contracts/Financial/PaymentGateway_flattened.sol\":8539:8577  AuthorityUpdated(_caller, _authorized) */\n      mload(0x40)\n      tag_71\n      swap2\n      swap1\n      tag_35\n      jump\t// in\n    tag_71:\n      mload(0x40)\n      dup1\n      swap2\n      sub\n      swap1\n      log2\n        /* \"contracts/Financial/PaymentGateway_flattened.sol\":8407:8580  function setCallerAuthority(address _caller, bool _authorized) external onlyOwner { isAuthorizedCaller[_caller] = _authorized; emit AuthorityUpdated(_caller, _authorized); } */\n      pop\n      pop\n      jump\t// out\n        /* \"contracts/Financial/PaymentGateway_flattened.sol\":7055:7105  mapping(address => bool) public isAuthorizedCaller */\n    tag_33:\n      mstore(0x20, 0x03)\n      dup1\n      0x00\n      mstore\n      keccak256(0x00, 0x40)\n      0x00\n      swap2\n      pop\n      sload\n      swap1\n      0x0100\n      exp\n      swap1\n      div\n      0xff\n      and\n      dup2\n      jump\t// out\n        /* \"contracts/Financial/PaymentGateway_flattened.sol\":3255:3356  function renounceOwnership() public virtual onlyOwner {... */\n    tag_37:\n        /* \"contracts/Financial/PaymentGateway_flattened.sol\":2493:2506  _checkOwner() */\n      tag_73\n        /* \"contracts/Financial/PaymentGateway_flattened.sol\":2493:2504  _checkOwner */\n      tag_69\n        /* \"contracts/Financial/PaymentGateway_flattened.sol\":2493:2506  _checkOwner() */\n      jump\t// in\n    tag_73:\n        /* \"contracts/Financial/PaymentGateway_flattened.sol\":3319:3349  _transferOwnership(address(0)) */\n      tag_75\n        /* \"contracts/Financial/PaymentGateway_flattened.sol\":3346:3347  0 */\n      0x00\n        /* \"contracts/Financial/PaymentGateway_flattened.sol\":3319:3337  _transferOwnership */\n      tag_76\n        /* \"contracts/Financial/PaymentGateway_flattened.sol\":3319:3349  _transferOwnership(address(0)) */\n      jump\t// in\n    tag_75:\n        /* \"contracts/Financial/PaymentGateway_flattened.sol\":3255:3356  function renounceOwnership() public virtual onlyOwner {... */\n      jump\t// out\n        /* \"contracts/Financial/PaymentGateway_flattened.sol\":8008:8181  function setFeeBps(uint256 _newFeeBps) external onlyOwner { require(_newFeeBps <= 1000, \"Fee cannot exceed 10%\"); platformFeeBps = _newFeeBps; emit FeeUpdated(_newFeeBps); } */\n    tag_41:\n        /* \"contracts/Financial/PaymentGateway_flattened.sol\":2493:2506  _checkOwner() */\n      tag_78\n        /* \"contracts/Financial/PaymentGateway_flattened.sol\":2493:2504  _checkOwner */\n      tag_69\n        /* \"contracts/Financial/PaymentGateway_flattened.sol\":2493:2506  _checkOwner() */\n      jump\t// in\n    tag_78:\n        /* \"contracts/Financial/PaymentGateway_flattened.sol\":8090:8094  1000 */\n      0x03e8\n        /* \"contracts/Financial/PaymentGateway_flattened.sol\":8076:8086  _newFeeBps */\n      dup2\n        /* \"contracts/Financial/PaymentGateway_flattened.sol\":8076:8094  _newFeeBps <= 1000 */\n      gt\n      iszero\n        /* \"contracts/Financial/PaymentGateway_flattened.sol\":8068:8120  require(_newFeeBps <= 1000, \"Fee cannot exceed 10%\") */\n      tag_80\n      jumpi\n      mload(0x40)\n      0x08c379a000000000000000000000000000000000000000000000000000000000\n      dup2\n      mstore\n      0x04\n      add\n      tag_81\n      swap1\n      tag_82\n      jump\t// in\n    tag_81:\n      mload(0x40)\n      dup1\n      swap2\n      sub\n      swap1\n      revert\n    tag_80:\n        /* \"contracts/Financial/PaymentGateway_flattened.sol\":8139:8149  _newFeeBps */\n      dup1\n        /* \"contracts/Financial/PaymentGateway_flattened.sol\":8122:8136  platformFeeBps */\n      0x02\n        /* \"contracts/Financial/PaymentGateway_flattened.sol\":8122:8149  platformFeeBps = _newFeeBps */\n      dup2\n      swap1\n      sstore\n      pop\n        /* \"contracts/Financial/PaymentGateway_flattened.sol\":8156:8178  FeeUpdated(_newFeeBps) */\n      0x8c4d35e54a3f2ef1134138fd8ea3daee6a3c89e10d2665996babdf70261e2c76\n        /* \"contracts/Financial/PaymentGateway_flattened.sol\":8167:8177  _newFeeBps */\n      dup2\n        /* \"contracts/Financial/PaymentGateway_flattened.sol\":8156:8178  FeeUpdated(_newFeeBps) */\n      mload(0x40)\n      tag_83\n      swap2\n      swap1\n      tag_21\n      jump\t// in\n    tag_83:\n      mload(0x40)\n      dup1\n      swap2\n      sub\n      swap1\n      log1\n        /* \"contracts/Financial/PaymentGateway_flattened.sol\":8008:8181  function setFeeBps(uint256 _newFeeBps) external onlyOwner { require(_newFeeBps <= 1000, \"Fee cannot exceed 10%\"); platformFeeBps = _newFeeBps; emit FeeUpdated(_newFeeBps); } */\n      pop\n      jump\t// out\n        /* \"contracts/Financial/PaymentGateway_flattened.sol\":2600:2685  function owner() public view virtual returns (address) {... */\n    tag_43:\n        /* \"contracts/Financial/PaymentGateway_flattened.sol\":2646:2653  address */\n      0x00\n        /* \"contracts/Financial/PaymentGateway_flattened.sol\":2672:2678  _owner */\n      0x00\n      0x00\n      swap1\n      sload\n      swap1\n      0x0100\n      exp\n      swap1\n      div\n      0xffffffffffffffffffffffffffffffffffffffff\n      and\n        /* \"contracts/Financial/PaymentGateway_flattened.sol\":2665:2678  return _owner */\n      swap1\n      pop\n        /* \"contracts/Financial/PaymentGateway_flattened.sol\":2600:2685  function owner() public view virtual returns (address) {... */\n      swap1\n      jump\t// out\n        /* \"contracts/Financial/PaymentGateway_flattened.sol\":8186:8402  function setFeeRecipient(address _newRecipient) external onlyOwner { require(_newRecipient != address(0), \"Cannot set recipient to zero address\"); feeRecipient = _newRecipient; emit RecipientUpdated(_newRecipient); } */\n    tag_47:\n        /* \"contracts/Financial/PaymentGateway_flattened.sol\":2493:2506  _checkOwner() */\n      tag_86\n        /* \"contracts/Financial/PaymentGateway_flattened.sol\":2493:2504  _checkOwner */\n      tag_69\n        /* \"contracts/Financial/PaymentGateway_flattened.sol\":2493:2506  _checkOwner() */\n      jump\t// in\n    tag_86:\n        /* \"contracts/Financial/PaymentGateway_flattened.sol\":8288:8289  0 */\n      0x00\n        /* \"contracts/Financial/PaymentGateway_flattened.sol\":8263:8290  _newRecipient != address(0) */\n      0xffffffffffffffffffffffffffffffffffffffff\n      and\n        /* \"contracts/Financial/PaymentGateway_flattened.sol\":8263:8276  _newRecipient */\n      dup2\n        /* \"contracts/Financial/PaymentGateway_flattened.sol\":8263:8290  _newRecipient != address(0) */\n      0xffffffffffffffffffffffffffffffffffffffff\n      and\n      sub\n        /* \"contracts/Financial/PaymentGateway_flattened.sol\":8255:8331  require(_newRecipient != address(0), \"Cannot set recipient to zero address\") */\n      tag_88\n      jumpi\n      mload(0x40)\n      0x08c379a000000000000000000000000000000000000000000000000000000000\n      dup2\n      mstore\n      0x04\n      add\n      tag_89\n      swap1\n      tag_90\n      jump\t// in\n    tag_89:\n      mload(0x40)\n      dup1\n      swap2\n      sub\n      swap1\n      revert\n    tag_88:\n        /* \"contracts/Financial/PaymentGateway_flattened.sol\":8348:8361  _newRecipient */\n      dup1\n        /* \"contracts/Financial/PaymentGateway_flattened.sol\":8333:8345  feeRecipient */\n      0x01\n      0x00\n        /* \"contracts/Financial/PaymentGateway_flattened.sol\":8333:8361  feeRecipient = _newRecipient */\n      0x0100\n      exp\n      dup2\n      sload\n      dup2\n      0xffffffffffffffffffffffffffffffffffffffff\n      mul\n      not\n      and\n      swap1\n      dup4\n      0xffffffffffffffffffffffffffffffffffffffff\n      and\n      mul\n      or\n      swap1\n      sstore\n      pop\n        /* \"contracts/Financial/PaymentGateway_flattened.sol\":8368:8399  RecipientUpdated(_newRecipient) */\n      0x566f16f5ede69bb6f837d5da3a6cf41c863ba95621d677ff3c931aa687da6466\n        /* \"contracts/Financial/PaymentGateway_flattened.sol\":8385:8398  _newRecipient */\n      dup2\n        /* \"contracts/Financial/PaymentGateway_flattened.sol\":8368:8399  RecipientUpdated(_newRecipient) */\n      mload(0x40)\n      tag_91\n      swap2\n      swap1\n      tag_25\n      jump\t// in\n    tag_91:\n      mload(0x40)\n      dup1\n      swap2\n      sub\n      swap1\n      log1\n        /* \"contracts/Financial/PaymentGateway_flattened.sol\":8186:8402  function setFeeRecipient(address _newRecipient) external onlyOwner { require(_newRecipient != address(0), \"Cannot set recipient to zero address\"); feeRecipient = _newRecipient; emit RecipientUpdated(_newRecipient); } */\n      pop\n      jump\t// out\n        /* \"contracts/Financial/PaymentGateway_flattened.sol\":3505:3720  function transferOwnership(address newOwner) public virtual onlyOwner {... */\n    tag_50:\n        /* \"contracts/Financial/PaymentGateway_flattened.sol\":2493:2506  _checkOwner() */\n      tag_93\n        /* \"contracts/Financial/PaymentGateway_flattened.sol\":2493:2504  _checkOwner */\n      tag_69\n        /* \"contracts/Financial/PaymentGateway_flattened.sol\":2493:2506  _checkOwner() */\n      jump\t// in\n    tag_93:\n        /* \"contracts/Financial/PaymentGateway_flattened.sol\":3609:3610  0 */\n      0x00\n        /* \"contracts/Financial/PaymentGateway_flattened.sol\":3589:3611  newOwner == address(0) */\n      0xffffffffffffffffffffffffffffffffffffffff\n      and\n        /* \"contracts/Financial/PaymentGateway_flattened.sol\":3589:3597  newOwner */\n      dup2\n        /* \"contracts/Financial/PaymentGateway_flattened.sol\":3589:3611  newOwner == address(0) */\n      0xffffffffffffffffffffffffffffffffffffffff\n      and\n      sub\n        /* \"contracts/Financial/PaymentGateway_flattened.sol\":3585:3676  if (newOwner == address(0)) {... */\n      tag_95\n      jumpi\n        /* \"contracts/Financial/PaymentGateway_flattened.sol\":3662:3663  0 */\n      0x00\n        /* \"contracts/Financial/PaymentGateway_flattened.sol\":3634:3665  OwnableInvalidOwner(address(0)) */\n      mload(0x40)\n      0x1e4fbdf700000000000000000000000000000000000000000000000000000000\n      dup2\n      mstore\n      0x04\n      add\n      tag_96\n      swap2\n      swap1\n      tag_25\n      jump\t// in\n    tag_96:\n      mload(0x40)\n      dup1\n      swap2\n      sub\n      swap1\n      revert\n        /* \"contracts/Financial/PaymentGateway_flattened.sol\":3585:3676  if (newOwner == address(0)) {... */\n    tag_95:\n        /* \"contracts/Financial/PaymentGateway_flattened.sol\":3685:3713  _transferOwnership(newOwner) */\n      tag_97\n        /* \"contracts/Financial/PaymentGateway_flattened.sol\":3704:3712  newOwner */\n      dup2\n        /* \"contracts/Financial/PaymentGateway_flattened.sol\":3685:3703  _transferOwnership */\n      tag_76\n        /* \"contracts/Financial/PaymentGateway_flattened.sol\":3685:3713  _transferOwnership(newOwner) */\n      jump\t// in\n    tag_97:\n        /* \"contracts/Financial/PaymentGateway_flattened.sol\":3505:3720  function transferOwnership(address newOwner) public virtual onlyOwner {... */\n      pop\n      jump\t// out\n        /* \"contracts/Financial/PaymentGateway_flattened.sol\":2758:2920  function _checkOwner() internal view virtual {... */\n    tag_69:\n        /* \"contracts/Financial/PaymentGateway_flattened.sol\":2828:2840  _msgSender() */\n      tag_99\n        /* \"contracts/Financial/PaymentGateway_flattened.sol\":2828:2838  _msgSender */\n      tag_100\n        /* \"contracts/Financial/PaymentGateway_flattened.sol\":2828:2840  _msgSender() */\n      jump\t// in\n    tag_99:\n        /* \"contracts/Financial/PaymentGateway_flattened.sol\":2817:2840  owner() != _msgSender() */\n      0xffffffffffffffffffffffffffffffffffffffff\n      and\n        /* \"contracts/Financial/PaymentGateway_flattened.sol\":2817:2824  owner() */\n      tag_101\n        /* \"contracts/Financial/PaymentGateway_flattened.sol\":2817:2822  owner */\n      tag_43\n        /* \"contracts/Financial/PaymentGateway_flattened.sol\":2817:2824  owner() */\n      jump\t// in\n    tag_101:\n        /* \"contracts/Financial/PaymentGateway_flattened.sol\":2817:2840  owner() != _msgSender() */\n      0xffffffffffffffffffffffffffffffffffffffff\n      and\n      eq\n        /* \"contracts/Financial/PaymentGateway_flattened.sol\":2813:2914  if (owner() != _msgSender()) {... */\n      tag_102\n      jumpi\n        /* \"contracts/Financial/PaymentGateway_flattened.sol\":2890:2902  _msgSender() */\n      tag_103\n        /* \"contracts/Financial/PaymentGateway_flattened.sol\":2890:2900  _msgSender */\n      tag_100\n        /* \"contracts/Financial/PaymentGateway_flattened.sol\":2890:2902  _msgSender() */\n      jump\t// in\n    tag_103:\n        /* \"contracts/Financial/PaymentGateway_flattened.sol\":2863:2903  OwnableUnauthorizedAccount(_msgSender()) */\n      mload(0x40)\n      0x118cdaa700000000000000000000000000000000000000000000000000000000\n      dup2\n      mstore\n      0x04\n      add\n      tag_104\n      swap2\n      swap1\n      tag_25\n      jump\t// in\n    tag_104:\n      mload(0x40)\n      dup1\n      swap2\n      sub\n      swap1\n      revert\n        /* \"contracts/Financial/PaymentGateway_flattened.sol\":2813:2914  if (owner() != _msgSender()) {... */\n    tag_102:\n        /* \"contracts/Financial/PaymentGateway_flattened.sol\":2758:2920  function _checkOwner() internal view virtual {... */\n      jump\t// out\n        /* \"contracts/Financial/PaymentGateway_flattened.sol\":3874:4061  function _transferOwnership(address newOwner) internal virtual {... */\n    tag_76:\n        /* \"contracts/Financial/PaymentGateway_flattened.sol\":3947:3963  address oldOwner */\n      0x00\n        /* \"contracts/Financial/PaymentGateway_flattened.sol\":3966:3972  _owner */\n      0x00\n      0x00\n      swap1\n      sload\n      swap1\n      0x0100\n      exp\n      swap1\n      div\n      0xffffffffffffffffffffffffffffffffffffffff\n      and\n        /* \"contracts/Financial/PaymentGateway_flattened.sol\":3947:3972  address oldOwner = _owner */\n      swap1\n      pop\n        /* \"contracts/Financial/PaymentGateway_flattened.sol\":3991:3999  newOwner */\n      dup2\n        /* \"contracts/Financial/PaymentGateway_flattened.sol\":3982:3988  _owner */\n      0x00\n      0x00\n        /* \"contracts/Financial/PaymentGateway_flattened.sol\":3982:3999  _owner = newOwner */\n      0x0100\n      exp\n      dup2\n      sload\n      dup2\n      0xffffffffffffffffffffffffffffffffffffffff\n      mul\n      not\n      and\n      swap1\n      dup4\n      0xffffffffffffffffffffffffffffffffffffffff\n      and\n      mul\n      or\n      swap1\n      sstore\n      pop\n        /* \"contracts/Financial/PaymentGateway_flattened.sol\":4045:4053  newOwner */\n      dup2\n        /* \"contracts/Financial/PaymentGateway_flattened.sol\":4014:4054  OwnershipTransferred(oldOwner, newOwner) */\n      0xffffffffffffffffffffffffffffffffffffffff\n      and\n        /* \"contracts/Financial/PaymentGateway_flattened.sol\":4035:4043  oldOwner */\n      dup2\n        /* \"contracts/Financial/PaymentGateway_flattened.sol\":4014:4054  OwnershipTransferred(oldOwner, newOwner) */\n      0xffffffffffffffffffffffffffffffffffffffff\n      and\n      0x8be0079c531659141344cd1fd0a4f28419497f9722a3daafe3b4186f6b6457e0\n      mload(0x40)\n      mload(0x40)\n      dup1\n      swap2\n      sub\n      swap1\n      log3\n        /* \"contracts/Financial/PaymentGateway_flattened.sol\":3937:4061  {... */\n      pop\n        /* \"contracts/Financial/PaymentGateway_flattened.sol\":3874:4061  function _transferOwnership(address newOwner) internal virtual {... */\n      pop\n      jump\t// out\n        /* \"contracts/Financial/PaymentGateway_flattened.sol\":678:774  function _msgSender() internal view virtual returns (address) {... */\n    tag_100:\n        /* \"contracts/Financial/PaymentGateway_flattened.sol\":731:738  address */\n      0x00\n        /* \"contracts/Financial/PaymentGateway_flattened.sol\":757:767  msg.sender */\n      caller\n        /* \"contracts/Financial/PaymentGateway_flattened.sol\":750:767  return msg.sender */\n      swap1\n      pop\n        /* \"contracts/Financial/PaymentGateway_flattened.sol\":678:774  function _msgSender() internal view virtual returns (address) {... */\n      swap1\n      jump\t// out\n        /* \"#utility.yul\":88:205   */\n    tag_108:\n        /* \"#utility.yul\":197:198   */\n      0x00\n        /* \"#utility.yul\":194:195   */\n      0x00\n        /* \"#utility.yul\":187:199   */\n      revert\n        /* \"#utility.yul\":334:460   */\n    tag_110:\n        /* \"#utility.yul\":371:378   */\n      0x00\n        /* \"#utility.yul\":411:453   */\n      0xffffffffffffffffffffffffffffffffffffffff\n        /* \"#utility.yul\":404:409   */\n      dup3\n        /* \"#utility.yul\":400:454   */\n      and\n        /* \"#utility.yul\":389:454   */\n      swap1\n      pop\n        /* \"#utility.yul\":334:460   */\n      swap2\n      swap1\n      pop\n      jump\t// out\n        /* \"#utility.yul\":466:562   */\n    tag_111:\n        /* \"#utility.yul\":503:510   */\n      0x00\n        /* \"#utility.yul\":532:556   */\n      tag_139\n        /* \"#utility.yul\":550:555   */\n      dup3\n        /* \"#utility.yul\":532:556   */\n      tag_110\n      jump\t// in\n    tag_139:\n        /* \"#utility.yul\":521:556   */\n      swap1\n      pop\n        /* \"#utility.yul\":466:562   */\n      swap2\n      swap1\n      pop\n      jump\t// out\n        /* \"#utility.yul\":568:690   */\n    tag_112:\n        /* \"#utility.yul\":641:665   */\n      tag_141\n        /* \"#utility.yul\":659:664   */\n      dup2\n        /* \"#utility.yul\":641:665   */\n      tag_111\n      jump\t// in\n    tag_141:\n        /* \"#utility.yul\":634:639   */\n      dup2\n        /* \"#utility.yul\":631:666   */\n      eq\n        /* \"#utility.yul\":621:684   */\n      tag_142\n      jumpi\n        /* \"#utility.yul\":680:681   */\n      0x00\n        /* \"#utility.yul\":677:678   */\n      0x00\n        /* \"#utility.yul\":670:682   */\n      revert\n        /* \"#utility.yul\":621:684   */\n    tag_142:\n        /* \"#utility.yul\":568:690   */\n      pop\n      jump\t// out\n        /* \"#utility.yul\":696:835   */\n    tag_113:\n        /* \"#utility.yul\":742:747   */\n      0x00\n        /* \"#utility.yul\":780:786   */\n      dup2\n        /* \"#utility.yul\":767:787   */\n      calldataload\n        /* \"#utility.yul\":758:787   */\n      swap1\n      pop\n        /* \"#utility.yul\":796:829   */\n      tag_144\n        /* \"#utility.yul\":823:828   */\n      dup2\n        /* \"#utility.yul\":796:829   */\n      tag_112\n      jump\t// in\n    tag_144:\n        /* \"#utility.yul\":696:835   */\n      swap3\n      swap2\n      pop\n      pop\n      jump\t// out\n        /* \"#utility.yul\":841:918   */\n    tag_114:\n        /* \"#utility.yul\":878:885   */\n      0x00\n        /* \"#utility.yul\":907:912   */\n      dup2\n        /* \"#utility.yul\":896:912   */\n      swap1\n      pop\n        /* \"#utility.yul\":841:918   */\n      swap2\n      swap1\n      pop\n      jump\t// out\n        /* \"#utility.yul\":924:1046   */\n    tag_115:\n        /* \"#utility.yul\":997:1021   */\n      tag_147\n        /* \"#utility.yul\":1015:1020   */\n      dup2\n        /* \"#utility.yul\":997:1021   */\n      tag_114\n      jump\t// in\n    tag_147:\n        /* \"#utility.yul\":990:995   */\n      dup2\n        /* \"#utility.yul\":987:1022   */\n      eq\n        /* \"#utility.yul\":977:1040   */\n      tag_148\n      jumpi\n        /* \"#utility.yul\":1036:1037   */\n      0x00\n        /* \"#utility.yul\":1033:1034   */\n      0x00\n        /* \"#utility.yul\":1026:1038   */\n      revert\n        /* \"#utility.yul\":977:1040   */\n    tag_148:\n        /* \"#utility.yul\":924:1046   */\n      pop\n      jump\t// out\n        /* \"#utility.yul\":1052:1191   */\n    tag_116:\n        /* \"#utility.yul\":1098:1103   */\n      0x00\n        /* \"#utility.yul\":1136:1142   */\n      dup2\n        /* \"#utility.yul\":1123:1143   */\n      calldataload\n        /* \"#utility.yul\":1114:1143   */\n      swap1\n      pop\n        /* \"#utility.yul\":1152:1185   */\n      tag_150\n        /* \"#utility.yul\":1179:1184   */\n      dup2\n        /* \"#utility.yul\":1152:1185   */\n      tag_115\n      jump\t// in\n    tag_150:\n        /* \"#utility.yul\":1052:1191   */\n      swap3\n      swap2\n      pop\n      pop\n      jump\t// out\n        /* \"#utility.yul\":1197:1816   */\n    tag_16:\n        /* \"#utility.yul\":1274:1280   */\n      0x00\n        /* \"#utility.yul\":1282:1288   */\n      0x00\n        /* \"#utility.yul\":1290:1296   */\n      0x00\n        /* \"#utility.yul\":1339:1341   */\n      0x60\n        /* \"#utility.yul\":1327:1336   */\n      dup5\n        /* \"#utility.yul\":1318:1325   */\n      dup7\n        /* \"#utility.yul\":1314:1337   */\n      sub\n        /* \"#utility.yul\":1310:1342   */\n      slt\n        /* \"#utility.yul\":1307:1426   */\n      iszero\n      tag_152\n      jumpi\n        /* \"#utility.yul\":1345:1424   */\n      tag_153\n      tag_108\n      jump\t// in\n    tag_153:\n        /* \"#utility.yul\":1307:1426   */\n    tag_152:\n        /* \"#utility.yul\":1465:1466   */\n      0x00\n        /* \"#utility.yul\":1490:1543   */\n      tag_154\n        /* \"#utility.yul\":1535:1542   */\n      dup7\n        /* \"#utility.yul\":1526:1532   */\n      dup3\n        /* \"#utility.yul\":1515:1524   */\n      dup8\n        /* \"#utility.yul\":1511:1533   */\n      add\n        /* \"#utility.yul\":1490:1543   */\n      tag_113\n      jump\t// in\n    tag_154:\n        /* \"#utility.yul\":1480:1543   */\n      swap4\n      pop\n        /* \"#utility.yul\":1436:1553   */\n      pop\n        /* \"#utility.yul\":1592:1594   */\n      0x20\n        /* \"#utility.yul\":1618:1671   */\n      tag_155\n        /* \"#utility.yul\":1663:1670   */\n      dup7\n        /* \"#utility.yul\":1654:1660   */\n      dup3\n        /* \"#utility.yul\":1643:1652   */\n      dup8\n        /* \"#utility.yul\":1639:1661   */\n      add\n        /* \"#utility.yul\":1618:1671   */\n      tag_113\n      jump\t// in\n    tag_155:\n        /* \"#utility.yul\":1608:1671   */\n      swap3\n      pop\n        /* \"#utility.yul\":1563:1681   */\n      pop\n        /* \"#utility.yul\":1720:1722   */\n      0x40\n        /* \"#utility.yul\":1746:1799   */\n      tag_156\n        /* \"#utility.yul\":1791:1798   */\n      dup7\n        /* \"#utility.yul\":1782:1788   */\n      dup3\n        /* \"#utility.yul\":1771:1780   */\n      dup8\n        /* \"#utility.yul\":1767:1789   */\n      add\n        /* \"#utility.yul\":1746:1799   */\n      tag_116\n      jump\t// in\n    tag_156:\n        /* \"#utility.yul\":1736:1799   */\n      swap2\n      pop\n        /* \"#utility.yul\":1691:1809   */\n      pop\n        /* \"#utility.yul\":1197:1816   */\n      swap3\n      pop\n      swap3\n      pop\n      swap3\n      jump\t// out\n        /* \"#utility.yul\":1822:1940   */\n    tag_117:\n        /* \"#utility.yul\":1909:1933   */\n      tag_158\n        /* \"#utility.yul\":1927:1932   */\n      dup2\n        /* \"#utility.yul\":1909:1933   */\n      tag_114\n      jump\t// in\n    tag_158:\n        /* \"#utility.yul\":1904:1907   */\n      dup3\n        /* \"#utility.yul\":1897:1934   */\n      mstore\n        /* \"#utility.yul\":1822:1940   */\n      pop\n      pop\n      jump\t// out\n        /* \"#utility.yul\":1946:2168   */\n    tag_21:\n        /* \"#utility.yul\":2039:2043   */\n      0x00\n        /* \"#utility.yul\":2077:2079   */\n      0x20\n        /* \"#utility.yul\":2066:2075   */\n      dup3\n        /* \"#utility.yul\":2062:2080   */\n      add\n        /* \"#utility.yul\":2054:2080   */\n      swap1\n      pop\n        /* \"#utility.yul\":2090:2161   */\n      tag_160\n        /* \"#utility.yul\":2158:2159   */\n      0x00\n        /* \"#utility.yul\":2147:2156   */\n      dup4\n        /* \"#utility.yul\":2143:2160   */\n      add\n        /* \"#utility.yul\":2134:2140   */\n      dup5\n        /* \"#utility.yul\":2090:2161   */\n      tag_117\n      jump\t// in\n    tag_160:\n        /* \"#utility.yul\":1946:2168   */\n      swap3\n      swap2\n      pop\n      pop\n      jump\t// out\n        /* \"#utility.yul\":2174:2292   */\n    tag_118:\n        /* \"#utility.yul\":2261:2285   */\n      tag_162\n        /* \"#utility.yul\":2279:2284   */\n      dup2\n        /* \"#utility.yul\":2261:2285   */\n      tag_111\n      jump\t// in\n    tag_162:\n        /* \"#utility.yul\":2256:2259   */\n      dup3\n        /* \"#utility.yul\":2249:2286   */\n      mstore\n        /* \"#utility.yul\":2174:2292   */\n      pop\n      pop\n      jump\t// out\n        /* \"#utility.yul\":2298:2520   */\n    tag_25:\n        /* \"#utility.yul\":2391:2395   */\n      0x00\n        /* \"#utility.yul\":2429:2431   */\n      0x20\n        /* \"#utility.yul\":2418:2427   */\n      dup3\n        /* \"#utility.yul\":2414:2432   */\n      add\n        /* \"#utility.yul\":2406:2432   */\n      swap1\n      pop\n        /* \"#utility.yul\":2442:2513   */\n      tag_164\n        /* \"#utility.yul\":2510:2511   */\n      0x00\n        /* \"#utility.yul\":2499:2508   */\n      dup4\n        /* \"#utility.yul\":2495:2512   */\n      add\n        /* \"#utility.yul\":2486:2492   */\n      dup5\n        /* \"#utility.yul\":2442:2513   */\n      tag_118\n      jump\t// in\n    tag_164:\n        /* \"#utility.yul\":2298:2520   */\n      swap3\n      swap2\n      pop\n      pop\n      jump\t// out\n        /* \"#utility.yul\":2526:2616   */\n    tag_119:\n        /* \"#utility.yul\":2560:2567   */\n      0x00\n        /* \"#utility.yul\":2603:2608   */\n      dup2\n        /* \"#utility.yul\":2596:2609   */\n      iszero\n        /* \"#utility.yul\":2589:2610   */\n      iszero\n        /* \"#utility.yul\":2578:2610   */\n      swap1\n      pop\n        /* \"#utility.yul\":2526:2616   */\n      swap2\n      swap1\n      pop\n      jump\t// out\n        /* \"#utility.yul\":2622:2738   */\n    tag_120:\n        /* \"#utility.yul\":2692:2713   */\n      tag_167\n        /* \"#utility.yul\":2707:2712   */\n      dup2\n        /* \"#utility.yul\":2692:2713   */\n      tag_119\n      jump\t// in\n    tag_167:\n        /* \"#utility.yul\":2685:2690   */\n      dup2\n        /* \"#utility.yul\":2682:2714   */\n      eq\n        /* \"#utility.yul\":2672:2732   */\n      tag_168\n      jumpi\n        /* \"#utility.yul\":2728:2729   */\n      0x00\n        /* \"#utility.yul\":2725:2726   */\n      0x00\n        /* \"#utility.yul\":2718:2730   */\n      revert\n        /* \"#utility.yul\":2672:2732   */\n    tag_168:\n        /* \"#utility.yul\":2622:2738   */\n      pop\n      jump\t// out\n        /* \"#utility.yul\":2744:2877   */\n    tag_121:\n        /* \"#utility.yul\":2787:2792   */\n      0x00\n        /* \"#utility.yul\":2825:2831   */\n      dup2\n        /* \"#utility.yul\":2812:2832   */\n      calldataload\n        /* \"#utility.yul\":2803:2832   */\n      swap1\n      pop\n        /* \"#utility.yul\":2841:2871   */\n      tag_170\n        /* \"#utility.yul\":2865:2870   */\n      dup2\n        /* \"#utility.yul\":2841:2871   */\n      tag_120\n      jump\t// in\n    tag_170:\n        /* \"#utility.yul\":2744:2877   */\n      swap3\n      swap2\n      pop\n      pop\n      jump\t// out\n        /* \"#utility.yul\":2883:3351   */\n    tag_28:\n        /* \"#utility.yul\":2948:2954   */\n      0x00\n        /* \"#utility.yul\":2956:2962   */\n      0x00\n        /* \"#utility.yul\":3005:3007   */\n      0x40\n        /* \"#utility.yul\":2993:3002   */\n      dup4\n        /* \"#utility.yul\":2984:2991   */\n      dup6\n        /* \"#utility.yul\":2980:3003   */\n      sub\n        /* \"#utility.yul\":2976:3008   */\n      slt\n        /* \"#utility.yul\":2973:3092   */\n      iszero\n      tag_172\n      jumpi\n        /* \"#utility.yul\":3011:3090   */\n      tag_173\n      tag_108\n      jump\t// in\n    tag_173:\n        /* \"#utility.yul\":2973:3092   */\n    tag_172:\n        /* \"#utility.yul\":3131:3132   */\n      0x00\n        /* \"#utility.yul\":3156:3209   */\n      tag_174\n        /* \"#utility.yul\":3201:3208   */\n      dup6\n        /* \"#utility.yul\":3192:3198   */\n      dup3\n        /* \"#utility.yul\":3181:3190   */\n      dup7\n        /* \"#utility.yul\":3177:3199   */\n      add\n        /* \"#utility.yul\":3156:3209   */\n      tag_113\n      jump\t// in\n    tag_174:\n        /* \"#utility.yul\":3146:3209   */\n      swap3\n      pop\n        /* \"#utility.yul\":3102:3219   */\n      pop\n        /* \"#utility.yul\":3258:3260   */\n      0x20\n        /* \"#utility.yul\":3284:3334   */\n      tag_175\n        /* \"#utility.yul\":3326:3333   */\n      dup6\n        /* \"#utility.yul\":3317:3323   */\n      dup3\n        /* \"#utility.yul\":3306:3315   */\n      dup7\n        /* \"#utility.yul\":3302:3324   */\n      add\n        /* \"#utility.yul\":3284:3334   */\n      tag_121\n      jump\t// in\n    tag_175:\n        /* \"#utility.yul\":3274:3334   */\n      swap2\n      pop\n        /* \"#utility.yul\":3229:3344   */\n      pop\n        /* \"#utility.yul\":2883:3351   */\n      swap3\n      pop\n      swap3\n      swap1\n      pop\n      jump\t// out\n        /* \"#utility.yul\":3357:3686   */\n    tag_32:\n        /* \"#utility.yul\":3416:3422   */\n      0x00\n        /* \"#utility.yul\":3465:3467   */\n      0x20\n        /* \"#utility.yul\":3453:3462   */\n      dup3\n        /* \"#utility.yul\":3444:3451   */\n      dup5\n        /* \"#utility.yul\":3440:3463   */\n      sub\n        /* \"#utility.yul\":3436:3468   */\n      slt\n        /* \"#utility.yul\":3433:3552   */\n      iszero\n      tag_177\n      jumpi\n        /* \"#utility.yul\":3471:3550   */\n      tag_178\n      tag_108\n      jump\t// in\n    tag_178:\n        /* \"#utility.yul\":3433:3552   */\n    tag_177:\n        /* \"#utility.yul\":3591:3592   */\n      0x00\n        /* \"#utility.yul\":3616:3669   */\n      tag_179\n        /* \"#utility.yul\":3661:3668   */\n      dup5\n        /* \"#utility.yul\":3652:3658   */\n      dup3\n        /* \"#utility.yul\":3641:3650   */\n      dup6\n        /* \"#utility.yul\":3637:3659   */\n      add\n        /* \"#utility.yul\":3616:3669   */\n      tag_113\n      jump\t// in\n    tag_179:\n        /* \"#utility.yul\":3606:3669   */\n      swap2\n      pop\n        /* \"#utility.yul\":3562:3679   */\n      pop\n        /* \"#utility.yul\":3357:3686   */\n      swap3\n      swap2\n      pop\n      pop\n      jump\t// out\n        /* \"#utility.yul\":3692:3801   */\n    tag_122:\n        /* \"#utility.yul\":3773:3794   */\n      tag_181\n        /* \"#utility.yul\":3788:3793   */\n      dup2\n        /* \"#utility.yul\":3773:3794   */\n      tag_119\n      jump\t// in\n    tag_181:\n        /* \"#utility.yul\":3768:3771   */\n      dup3\n        /* \"#utility.yul\":3761:3795   */\n      mstore\n        /* \"#utility.yul\":3692:3801   */\n      pop\n      pop\n      jump\t// out\n        /* \"#utility.yul\":3807:4017   */\n    tag_35:\n        /* \"#utility.yul\":3894:3898   */\n      0x00\n        /* \"#utility.yul\":3932:3934   */\n      0x20\n        /* \"#utility.yul\":3921:3930   */\n      dup3\n        /* \"#utility.yul\":3917:3935   */\n      add\n        /* \"#utility.yul\":3909:3935   */\n      swap1\n      pop\n        /* \"#utility.yul\":3945:4010   */\n      tag_183\n        /* \"#utility.yul\":4007:4008   */\n      0x00\n        /* \"#utility.yul\":3996:4005   */\n      dup4\n        /* \"#utility.yul\":3992:4009   */\n      add\n        /* \"#utility.yul\":3983:3989   */\n      dup5\n        /* \"#utility.yul\":3945:4010   */\n      tag_122\n      jump\t// in\n    tag_183:\n        /* \"#utility.yul\":3807:4017   */\n      swap3\n      swap2\n      pop\n      pop\n      jump\t// out\n        /* \"#utility.yul\":4023:4352   */\n    tag_40:\n        /* \"#utility.yul\":4082:4088   */\n      0x00\n        /* \"#utility.yul\":4131:4133   */\n      0x20\n        /* \"#utility.yul\":4119:4128   */\n      dup3\n        /* \"#utility.yul\":4110:4117   */\n      dup5\n        /* \"#utility.yul\":4106:4129   */\n      sub\n        /* \"#utility.yul\":4102:4134   */\n      slt\n        /* \"#utility.yul\":4099:4218   */\n      iszero\n      tag_185\n      jumpi\n        /* \"#utility.yul\":4137:4216   */\n      tag_186\n      tag_108\n      jump\t// in\n    tag_186:\n        /* \"#utility.yul\":4099:4218   */\n    tag_185:\n        /* \"#utility.yul\":4257:4258   */\n      0x00\n        /* \"#utility.yul\":4282:4335   */\n      tag_187\n        /* \"#utility.yul\":4327:4334   */\n      dup5\n        /* \"#utility.yul\":4318:4324   */\n      dup3\n        /* \"#utility.yul\":4307:4316   */\n      dup6\n        /* \"#utility.yul\":4303:4325   */\n      add\n        /* \"#utility.yul\":4282:4335   */\n      tag_116\n      jump\t// in\n    tag_187:\n        /* \"#utility.yul\":4272:4335   */\n      swap2\n      pop\n        /* \"#utility.yul\":4228:4345   */\n      pop\n        /* \"#utility.yul\":4023:4352   */\n      swap3\n      swap2\n      pop\n      pop\n      jump\t// out\n        /* \"#utility.yul\":4358:4527   */\n    tag_123:\n        /* \"#utility.yul\":4442:4453   */\n      0x00\n        /* \"#utility.yul\":4476:4482   */\n      dup3\n        /* \"#utility.yul\":4471:4474   */\n      dup3\n        /* \"#utility.yul\":4464:4483   */\n      mstore\n        /* \"#utility.yul\":4516:4520   */\n      0x20\n        /* \"#utility.yul\":4511:4514   */\n      dup3\n        /* \"#utility.yul\":4507:4521   */\n      add\n        /* \"#utility.yul\":4492:4521   */\n      swap1\n      pop\n        /* \"#utility.yul\":4358:4527   */\n      swap3\n      swap2\n      pop\n      pop\n      jump\t// out\n        /* \"#utility.yul\":4533:4760   */\n    tag_124:\n        /* \"#utility.yul\":4673:4707   */\n      0x5061796d656e74476174657761793a204e6f7420616e20617574686f72697a65\n        /* \"#utility.yul\":4669:4670   */\n      0x00\n        /* \"#utility.yul\":4661:4667   */\n      dup3\n        /* \"#utility.yul\":4657:4671   */\n      add\n        /* \"#utility.yul\":4650:4708   */\n      mstore\n        /* \"#utility.yul\":4742:4752   */\n      0x642063616c6c6572000000000000000000000000000000000000000000000000\n        /* \"#utility.yul\":4737:4739   */\n      0x20\n        /* \"#utility.yul\":4729:4735   */\n      dup3\n        /* \"#utility.yul\":4725:4740   */\n      add\n        /* \"#utility.yul\":4718:4753   */\n      mstore\n        /* \"#utility.yul\":4533:4760   */\n      pop\n      jump\t// out\n        /* \"#utility.yul\":4766:5132   */\n    tag_125:\n        /* \"#utility.yul\":4908:4911   */\n      0x00\n        /* \"#utility.yul\":4929:4996   */\n      tag_191\n        /* \"#utility.yul\":4993:4995   */\n      0x28\n        /* \"#utility.yul\":4988:4991   */\n      dup4\n        /* \"#utility.yul\":4929:4996   */\n      tag_123\n      jump\t// in\n    tag_191:\n        /* \"#utility.yul\":4922:4996   */\n      swap2\n      pop\n        /* \"#utility.yul\":5005:5098   */\n      tag_192\n        /* \"#utility.yul\":5094:5097   */\n      dup3\n        /* \"#utility.yul\":5005:5098   */\n      tag_124\n      jump\t// in\n    tag_192:\n        /* \"#utility.yul\":5123:5125   */\n      0x40\n        /* \"#utility.yul\":5118:5121   */\n      dup3\n        /* \"#utility.yul\":5114:5126   */\n      add\n        /* \"#utility.yul\":5107:5126   */\n      swap1\n      pop\n        /* \"#utility.yul\":4766:5132   */\n      swap2\n      swap1\n      pop\n      jump\t// out\n        /* \"#utility.yul\":5138:5557   */\n    tag_54:\n        /* \"#utility.yul\":5304:5308   */\n      0x00\n        /* \"#utility.yul\":5342:5344   */\n      0x20\n        /* \"#utility.yul\":5331:5340   */\n      dup3\n        /* \"#utility.yul\":5327:5345   */\n      add\n        /* \"#utility.yul\":5319:5345   */\n      swap1\n      pop\n        /* \"#utility.yul\":5391:5400   */\n      dup2\n        /* \"#utility.yul\":5385:5389   */\n      dup2\n        /* \"#utility.yul\":5381:5401   */\n      sub\n        /* \"#utility.yul\":5377:5378   */\n      0x00\n        /* \"#utility.yul\":5366:5375   */\n      dup4\n        /* \"#utility.yul\":5362:5379   */\n      add\n        /* \"#utility.yul\":5355:5402   */\n      mstore\n        /* \"#utility.yul\":5419:5550   */\n      tag_194\n        /* \"#utility.yul\":5545:5549   */\n      dup2\n        /* \"#utility.yul\":5419:5550   */\n      tag_125\n      jump\t// in\n    tag_194:\n        /* \"#utility.yul\":5411:5550   */\n      swap1\n      pop\n        /* \"#utility.yul\":5138:5557   */\n      swap2\n      swap1\n      pop\n      jump\t// out\n        /* \"#utility.yul\":5563:5743   */\n    tag_126:\n        /* \"#utility.yul\":5611:5688   */\n      0x4e487b7100000000000000000000000000000000000000000000000000000000\n        /* \"#utility.yul\":5608:5609   */\n      0x00\n        /* \"#utility.yul\":5601:5689   */\n      mstore\n        /* \"#utility.yul\":5708:5712   */\n      0x11\n        /* \"#utility.yul\":5705:5706   */\n      0x04\n        /* \"#utility.yul\":5698:5713   */\n      mstore\n        /* \"#utility.yul\":5732:5736   */\n      0x24\n        /* \"#utility.yul\":5729:5730   */\n      0x00\n        /* \"#utility.yul\":5722:5737   */\n      revert\n        /* \"#utility.yul\":5749:6159   */\n    tag_56:\n        /* \"#utility.yul\":5789:5796   */\n      0x00\n        /* \"#utility.yul\":5812:5832   */\n      tag_197\n        /* \"#utility.yul\":5830:5831   */\n      dup3\n        /* \"#utility.yul\":5812:5832   */\n      tag_114\n      jump\t// in\n    tag_197:\n        /* \"#utility.yul\":5807:5832   */\n      swap2\n      pop\n        /* \"#utility.yul\":5846:5866   */\n      tag_198\n        /* \"#utility.yul\":5864:5865   */\n      dup4\n        /* \"#utility.yul\":5846:5866   */\n      tag_114\n      jump\t// in\n    tag_198:\n        /* \"#utility.yul\":5841:5866   */\n      swap3\n      pop\n        /* \"#utility.yul\":5901:5902   */\n      dup3\n        /* \"#utility.yul\":5898:5899   */\n      dup3\n        /* \"#utility.yul\":5894:5903   */\n      mul\n        /* \"#utility.yul\":5923:5953   */\n      tag_199\n        /* \"#utility.yul\":5941:5952   */\n      dup2\n        /* \"#utility.yul\":5923:5953   */\n      tag_114\n      jump\t// in\n    tag_199:\n        /* \"#utility.yul\":5912:5953   */\n      swap2\n      pop\n        /* \"#utility.yul\":6102:6103   */\n      dup3\n        /* \"#utility.yul\":6093:6100   */\n      dup3\n        /* \"#utility.yul\":6089:6104   */\n      div\n        /* \"#utility.yul\":6086:6087   */\n      dup5\n        /* \"#utility.yul\":6083:6105   */\n      eq\n        /* \"#utility.yul\":6063:6064   */\n      dup4\n        /* \"#utility.yul\":6056:6065   */\n      iszero\n        /* \"#utility.yul\":6036:6119   */\n      or\n        /* \"#utility.yul\":6013:6152   */\n      tag_200\n      jumpi\n        /* \"#utility.yul\":6132:6150   */\n      tag_201\n      tag_126\n      jump\t// in\n    tag_201:\n        /* \"#utility.yul\":6013:6152   */\n    tag_200:\n        /* \"#utility.yul\":5797:6159   */\n      pop\n        /* \"#utility.yul\":5749:6159   */\n      swap3\n      swap2\n      pop\n      pop\n      jump\t// out\n        /* \"#utility.yul\":6165:6345   */\n    tag_127:\n        /* \"#utility.yul\":6213:6290   */\n      0x4e487b7100000000000000000000000000000000000000000000000000000000\n        /* \"#utility.yul\":6210:6211   */\n      0x00\n        /* \"#utility.yul\":6203:6291   */\n      mstore\n        /* \"#utility.yul\":6310:6314   */\n      0x12\n        /* \"#utility.yul\":6307:6308   */\n      0x04\n        /* \"#utility.yul\":6300:6315   */\n      mstore\n        /* \"#utility.yul\":6334:6338   */\n      0x24\n        /* \"#utility.yul\":6331:6332   */\n      0x00\n        /* \"#utility.yul\":6324:6339   */\n      revert\n        /* \"#utility.yul\":6351:6536   */\n    tag_58:\n        /* \"#utility.yul\":6391:6392   */\n      0x00\n        /* \"#utility.yul\":6408:6428   */\n      tag_204\n        /* \"#utility.yul\":6426:6427   */\n      dup3\n        /* \"#utility.yul\":6408:6428   */\n      tag_114\n      jump\t// in\n    tag_204:\n        /* \"#utility.yul\":6403:6428   */\n      swap2\n      pop\n        /* \"#utility.yul\":6442:6462   */\n      tag_205\n        /* \"#utility.yul\":6460:6461   */\n      dup4\n        /* \"#utility.yul\":6442:6462   */\n      tag_114\n      jump\t// in\n    tag_205:\n        /* \"#utility.yul\":6437:6462   */\n      swap3\n      pop\n        /* \"#utility.yul\":6481:6482   */\n      dup3\n        /* \"#utility.yul\":6471:6506   */\n      tag_206\n      jumpi\n        /* \"#utility.yul\":6486:6504   */\n      tag_207\n      tag_127\n      jump\t// in\n    tag_207:\n        /* \"#utility.yul\":6471:6506   */\n    tag_206:\n        /* \"#utility.yul\":6528:6529   */\n      dup3\n        /* \"#utility.yul\":6525:6526   */\n      dup3\n        /* \"#utility.yul\":6521:6530   */\n      div\n        /* \"#utility.yul\":6516:6530   */\n      swap1\n      pop\n        /* \"#utility.yul\":6351:6536   */\n      swap3\n      swap2\n      pop\n      pop\n      jump\t// out\n        /* \"#utility.yul\":6542:6984   */\n    tag_61:\n        /* \"#utility.yul\":6691:6695   */\n      0x00\n        /* \"#utility.yul\":6729:6731   */\n      0x60\n        /* \"#utility.yul\":6718:6727   */\n      dup3\n        /* \"#utility.yul\":6714:6732   */\n      add\n        /* \"#utility.yul\":6706:6732   */\n      swap1\n      pop\n        /* \"#utility.yul\":6742:6813   */\n      tag_209\n        /* \"#utility.yul\":6810:6811   */\n      0x00\n        /* \"#utility.yul\":6799:6808   */\n      dup4\n        /* \"#utility.yul\":6795:6812   */\n      add\n        /* \"#utility.yul\":6786:6792   */\n      dup7\n        /* \"#utility.yul\":6742:6813   */\n      tag_118\n      jump\t// in\n    tag_209:\n        /* \"#utility.yul\":6823:6895   */\n      tag_210\n        /* \"#utility.yul\":6891:6893   */\n      0x20\n        /* \"#utility.yul\":6880:6889   */\n      dup4\n        /* \"#utility.yul\":6876:6894   */\n      add\n        /* \"#utility.yul\":6867:6873   */\n      dup6\n        /* \"#utility.yul\":6823:6895   */\n      tag_118\n      jump\t// in\n    tag_210:\n        /* \"#utility.yul\":6905:6977   */\n      tag_211\n        /* \"#utility.yul\":6973:6975   */\n      0x40\n        /* \"#utility.yul\":6962:6971   */\n      dup4\n        /* \"#utility.yul\":6958:6976   */\n      add\n        /* \"#utility.yul\":6949:6955   */\n      dup5\n        /* \"#utility.yul\":6905:6977   */\n      tag_117\n      jump\t// in\n    tag_211:\n        /* \"#utility.yul\":6542:6984   */\n      swap5\n      swap4\n      pop\n      pop\n      pop\n      pop\n      jump\t// out\n        /* \"#utility.yul\":6990:7127   */\n    tag_128:\n        /* \"#utility.yul\":7044:7049   */\n      0x00\n        /* \"#utility.yul\":7075:7081   */\n      dup2\n        /* \"#utility.yul\":7069:7082   */\n      mload\n        /* \"#utility.yul\":7060:7082   */\n      swap1\n      pop\n        /* \"#utility.yul\":7091:7121   */\n      tag_213\n        /* \"#utility.yul\":7115:7120   */\n      dup2\n        /* \"#utility.yul\":7091:7121   */\n      tag_120\n      jump\t// in\n    tag_213:\n        /* \"#utility.yul\":6990:7127   */\n      swap3\n      swap2\n      pop\n      pop\n      jump\t// out\n        /* \"#utility.yul\":7133:7478   */\n    tag_65:\n        /* \"#utility.yul\":7200:7206   */\n      0x00\n        /* \"#utility.yul\":7249:7251   */\n      0x20\n        /* \"#utility.yul\":7237:7246   */\n      dup3\n        /* \"#utility.yul\":7228:7235   */\n      dup5\n        /* \"#utility.yul\":7224:7247   */\n      sub\n        /* \"#utility.yul\":7220:7252   */\n      slt\n        /* \"#utility.yul\":7217:7336   */\n      iszero\n      tag_215\n      jumpi\n        /* \"#utility.yul\":7255:7334   */\n      tag_216\n      tag_108\n      jump\t// in\n    tag_216:\n        /* \"#utility.yul\":7217:7336   */\n    tag_215:\n        /* \"#utility.yul\":7375:7376   */\n      0x00\n        /* \"#utility.yul\":7400:7461   */\n      tag_217\n        /* \"#utility.yul\":7453:7460   */\n      dup5\n        /* \"#utility.yul\":7444:7450   */\n      dup3\n        /* \"#utility.yul\":7433:7442   */\n      dup6\n        /* \"#utility.yul\":7429:7451   */\n      add\n        /* \"#utility.yul\":7400:7461   */\n      tag_128\n      jump\t// in\n    tag_217:\n        /* \"#utility.yul\":7390:7461   */\n      swap2\n      pop\n        /* \"#utility.yul\":7346:7471   */\n      pop\n        /* \"#utility.yul\":7133:7478   */\n      swap3\n      swap2\n      pop\n      pop\n      jump\t// out\n        /* \"#utility.yul\":7484:7655   */\n    tag_129:\n        /* \"#utility.yul\":7624:7647   */\n      0x4665652063616e6e6f7420657863656564203130250000000000000000000000\n        /* \"#utility.yul\":7620:7621   */\n      0x00\n        /* \"#utility.yul\":7612:7618   */\n      dup3\n        /* \"#utility.yul\":7608:7622   */\n      add\n        /* \"#utility.yul\":7601:7648   */\n      mstore\n        /* \"#utility.yul\":7484:7655   */\n      pop\n      jump\t// out\n        /* \"#utility.yul\":7661:8027   */\n    tag_130:\n        /* \"#utility.yul\":7803:7806   */\n      0x00\n        /* \"#utility.yul\":7824:7891   */\n      tag_220\n        /* \"#utility.yul\":7888:7890   */\n      0x15\n        /* \"#utility.yul\":7883:7886   */\n      dup4\n        /* \"#utility.yul\":7824:7891   */\n      tag_123\n      jump\t// in\n    tag_220:\n        /* \"#utility.yul\":7817:7891   */\n      swap2\n      pop\n        /* \"#utility.yul\":7900:7993   */\n      tag_221\n        /* \"#utility.yul\":7989:7992   */\n      dup3\n        /* \"#utility.yul\":7900:7993   */\n      tag_129\n      jump\t// in\n    tag_221:\n        /* \"#utility.yul\":8018:8020   */\n      0x20\n        /* \"#utility.yul\":8013:8016   */\n      dup3\n        /* \"#utility.yul\":8009:8021   */\n      add\n        /* \"#utility.yul\":8002:8021   */\n      swap1\n      pop\n        /* \"#utility.yul\":7661:8027   */\n      swap2\n      swap1\n      pop\n      jump\t// out\n        /* \"#utility.yul\":8033:8452   */\n    tag_82:\n        /* \"#utility.yul\":8199:8203   */\n      0x00\n        /* \"#utility.yul\":8237:8239   */\n      0x20\n        /* \"#utility.yul\":8226:8235   */\n      dup3\n        /* \"#utility.yul\":8222:8240   */\n      add\n        /* \"#utility.yul\":8214:8240   */\n      swap1\n      pop\n        /* \"#utility.yul\":8286:8295   */\n      dup2\n        /* \"#utility.yul\":8280:8284   */\n      dup2\n        /* \"#utility.yul\":8276:8296   */\n      sub\n        /* \"#utility.yul\":8272:8273   */\n      0x00\n        /* \"#utility.yul\":8261:8270   */\n      dup4\n        /* \"#utility.yul\":8257:8274   */\n      add\n        /* \"#utility.yul\":8250:8297   */\n      mstore\n        /* \"#utility.yul\":8314:8445   */\n      tag_223\n        /* \"#utility.yul\":8440:8444   */\n      dup2\n        /* \"#utility.yul\":8314:8445   */\n      tag_130\n      jump\t// in\n    tag_223:\n        /* \"#utility.yul\":8306:8445   */\n      swap1\n      pop\n        /* \"#utility.yul\":8033:8452   */\n      swap2\n      swap1\n      pop\n      jump\t// out\n        /* \"#utility.yul\":8458:8681   */\n    tag_131:\n        /* \"#utility.yul\":8598:8632   */\n      0x43616e6e6f742073657420726563697069656e7420746f207a65726f20616464\n        /* \"#utility.yul\":8594:8595   */\n      0x00\n        /* \"#utility.yul\":8586:8592   */\n      dup3\n        /* \"#utility.yul\":8582:8596   */\n      add\n        /* \"#utility.yul\":8575:8633   */\n      mstore\n        /* \"#utility.yul\":8667:8673   */\n      0x7265737300000000000000000000000000000000000000000000000000000000\n        /* \"#utility.yul\":8662:8664   */\n      0x20\n        /* \"#utility.yul\":8654:8660   */\n      dup3\n        /* \"#utility.yul\":8650:8665   */\n      add\n        /* \"#utility.yul\":8643:8674   */\n      mstore\n        /* \"#utility.yul\":8458:8681   */\n      pop\n      jump\t// out\n        /* \"#utility.yul\":8687:9053   */\n    tag_132:\n        /* \"#utility.yul\":8829:8832   */\n      0x00\n        /* \"#utility.yul\":8850:8917   */\n      tag_226\n        /* \"#utility.yul\":8914:8916   */\n      0x24\n        /* \"#utility.yul\":8909:8912   */\n      dup4\n        /* \"#utility.yul\":8850:8917   */\n      tag_123\n      jump\t// in\n    tag_226:\n        /* \"#utility.yul\":8843:8917   */\n      swap2\n      pop\n        /* \"#utility.yul\":8926:9019   */\n      tag_227\n        /* \"#utility.yul\":9015:9018   */\n      dup3\n        /* \"#utility.yul\":8926:9019   */\n      tag_131\n      jump\t// in\n    tag_227:\n        /* \"#utility.yul\":9044:9046   */\n      0x40\n        /* \"#utility.yul\":9039:9042   */\n      dup3\n        /* \"#utility.yul\":9035:9047   */\n      add\n        /* \"#utility.yul\":9028:9047   */\n      swap1\n      pop\n        /* \"#utility.yul\":8687:9053   */\n      swap2\n      swap1\n      pop\n      jump\t// out\n        /* \"#utility.yul\":9059:9478   */\n    tag_90:\n        /* \"#utility.yul\":9225:9229   */\n      0x00\n        /* \"#utility.yul\":9263:9265   */\n      0x20\n        /* \"#utility.yul\":9252:9261   */\n      dup3\n        /* \"#utility.yul\":9248:9266   */\n      add\n        /* \"#utility.yul\":9240:9266   */\n      swap1\n      pop\n        /* \"#utility.yul\":9312:9321   */\n      dup2\n        /* \"#utility.yul\":9306:9310   */\n      dup2\n        /* \"#utility.yul\":9302:9322   */\n      sub\n        /* \"#utility.yul\":9298:9299   */\n      0x00\n        /* \"#utility.yul\":9287:9296   */\n      dup4\n        /* \"#utility.yul\":9283:9300   */\n      add\n        /* \"#utility.yul\":9276:9323   */\n      mstore\n        /* \"#utility.yul\":9340:9471   */\n      tag_229\n        /* \"#utility.yul\":9466:9470   */\n      dup2\n        /* \"#utility.yul\":9340:9471   */\n      tag_132\n      jump\t// in\n    tag_229:\n        /* \"#utility.yul\":9332:9471   */\n      swap1\n      pop\n        /* \"#utility.yul\":9059:9478   */\n      swap2\n      swap1\n      pop\n      jump\t// out\n\n    auxdata: 0xa2646970667358221220021fbb2346c3a27efa4a3ca1cd5d810cc37aabedda4b6d6c050f5010d33a46e364736f6c634300081e0033\n}\n",
				"bytecode": {
					"linkReferences": {},
					"object": "608060405234801561000f575f5ffd5b5060405161119138038061119183398181016040528101906100319190610306565b825f73ffffffffffffffffffffffffffffffffffffffff168173ffffffffffffffffffffffffffffffffffffffff16036100a2575f6040517f1e4fbdf70000000000000000000000000000000000000000000000000000000081526004016100999190610365565b60405180910390fd5b6100b1816101b460201b60201c565b505f73ffffffffffffffffffffffffffffffffffffffff168273ffffffffffffffffffffffffffffffffffffffff1603610120576040517f08c379a0000000000000000000000000000000000000000000000000000000008152600401610117906103d8565b60405180910390fd5b6103e8811115610165576040517f08c379a000000000000000000000000000000000000000000000000000000000815260040161015c90610440565b60405180910390fd5b8160015f6101000a81548173ffffffffffffffffffffffffffffffffffffffff021916908373ffffffffffffffffffffffffffffffffffffffff1602179055508060028190555050505061045e565b5f5f5f9054906101000a900473ffffffffffffffffffffffffffffffffffffffff169050815f5f6101000a81548173ffffffffffffffffffffffffffffffffffffffff021916908373ffffffffffffffffffffffffffffffffffffffff1602179055508173ffffffffffffffffffffffffffffffffffffffff168173ffffffffffffffffffffffffffffffffffffffff167f8be0079c531659141344cd1fd0a4f28419497f9722a3daafe3b4186f6b6457e060405160405180910390a35050565b5f5ffd5b5f73ffffffffffffffffffffffffffffffffffffffff82169050919050565b5f6102a282610279565b9050919050565b6102b281610298565b81146102bc575f5ffd5b50565b5f815190506102cd816102a9565b92915050565b5f819050919050565b6102e5816102d3565b81146102ef575f5ffd5b50565b5f81519050610300816102dc565b92915050565b5f5f5f6060848603121561031d5761031c610275565b5b5f61032a868287016102bf565b935050602061033b868287016102bf565b925050604061034c868287016102f2565b9150509250925092565b61035f81610298565b82525050565b5f6020820190506103785f830184610356565b92915050565b5f82825260208201905092915050565b7f526563697069656e742063616e6e6f74206265207a65726f20616464726573735f82015250565b5f6103c260208361037e565b91506103cd8261038e565b602082019050919050565b5f6020820190508181035f8301526103ef816103b6565b9050919050565b7f4665652063616e6e6f74206578636565642031302500000000000000000000005f82015250565b5f61042a60158361037e565b9150610435826103f6565b602082019050919050565b5f6020820190508181035f8301526104578161041e565b9050919050565b610d268061046b5f395ff3fe608060405234801561000f575f5ffd5b506004361061009c575f3560e01c8063715018a611610064578063715018a61461014457806372c27b621461014e5780638da5cb5b1461016a578063e74b981b14610188578063f2fde38b146101a45761009c565b806320cb7bce146100a057806322dcd13e146100bc57806346904840146100da5780634a98af54146100f857806359d14b4114610114575b5f5ffd5b6100ba60048036038101906100b5919061088c565b6101c0565b005b6100c461037a565b6040516100d191906108eb565b60405180910390f35b6100e2610380565b6040516100ef9190610913565b60405180910390f35b610112600480360381019061010d9190610961565b6103a5565b005b61012e6004803603810190610129919061099f565b610453565b60405161013b91906109d9565b60405180910390f35b61014c610470565b005b610168600480360381019061016391906109f2565b610483565b005b610172610511565b60405161017f9190610913565b60405180910390f35b6101a2600480360381019061019d919061099f565b610538565b005b6101be60048036038101906101b9919061099f565b610628565b005b60035f3373ffffffffffffffffffffffffffffffffffffffff1673ffffffffffffffffffffffffffffffffffffffff1681526020019081526020015f205f9054906101000a900460ff16610249576040517f08c379a000000000000000000000000000000000000000000000000000000000815260040161024090610a9d565b60405180910390fd5b5f6127106002548361025b9190610ae8565b6102659190610b56565b90505f811115610374578373ffffffffffffffffffffffffffffffffffffffff166323b872dd8460015f9054906101000a900473ffffffffffffffffffffffffffffffffffffffff16846040518463ffffffff1660e01b81526004016102cd93929190610b86565b6020604051808303815f875af11580156102e9573d5f5f3e3d5ffd5b505050506040513d601f19601f8201168201806040525081019061030d9190610bcf565b508373ffffffffffffffffffffffffffffffffffffffff163373ffffffffffffffffffffffffffffffffffffffff167fe0e765ab26c1caf691c510426951246128b96830e49cc81d8c093fd551abac358360405161036b91906108eb565b60405180910390a35b50505050565b60025481565b60015f9054906101000a900473ffffffffffffffffffffffffffffffffffffffff1681565b6103ad6106ac565b8060035f8473ffffffffffffffffffffffffffffffffffffffff1673ffffffffffffffffffffffffffffffffffffffff1681526020019081526020015f205f6101000a81548160ff0219169083151502179055508173ffffffffffffffffffffffffffffffffffffffff167fc5238a63fa205f95e98807f6cbc91d2ad8555a2250075e47491f11d9c69db3bc8260405161044791906109d9565b60405180910390a25050565b6003602052805f5260405f205f915054906101000a900460ff1681565b6104786106ac565b6104815f610733565b565b61048b6106ac565b6103e88111156104d0576040517f08c379a00000000000000000000000000000000000000000000000000000000081526004016104c790610c44565b60405180910390fd5b806002819055507f8c4d35e54a3f2ef1134138fd8ea3daee6a3c89e10d2665996babdf70261e2c768160405161050691906108eb565b60405180910390a150565b5f5f5f9054906101000a900473ffffffffffffffffffffffffffffffffffffffff16905090565b6105406106ac565b5f73ffffffffffffffffffffffffffffffffffffffff168173ffffffffffffffffffffffffffffffffffffffff16036105ae576040517f08c379a00000000000000000000000000000000000000000000000000000000081526004016105a590610cd2565b60405180910390fd5b8060015f6101000a81548173ffffffffffffffffffffffffffffffffffffffff021916908373ffffffffffffffffffffffffffffffffffffffff1602179055507f566f16f5ede69bb6f837d5da3a6cf41c863ba95621d677ff3c931aa687da64668160405161061d9190610913565b60405180910390a150565b6106306106ac565b5f73ffffffffffffffffffffffffffffffffffffffff168173ffffffffffffffffffffffffffffffffffffffff16036106a0575f6040517f1e4fbdf70000000000000000000000000000000000000000000000000000000081526004016106979190610913565b60405180910390fd5b6106a981610733565b50565b6106b46107f4565b73ffffffffffffffffffffffffffffffffffffffff166106d2610511565b73ffffffffffffffffffffffffffffffffffffffff1614610731576106f56107f4565b6040517f118cdaa70000000000000000000000000000000000000000000000000000000081526004016107289190610913565b60405180910390fd5b565b5f5f5f9054906101000a900473ffffffffffffffffffffffffffffffffffffffff169050815f5f6101000a81548173ffffffffffffffffffffffffffffffffffffffff021916908373ffffffffffffffffffffffffffffffffffffffff1602179055508173ffffffffffffffffffffffffffffffffffffffff168173ffffffffffffffffffffffffffffffffffffffff167f8be0079c531659141344cd1fd0a4f28419497f9722a3daafe3b4186f6b6457e060405160405180910390a35050565b5f33905090565b5f5ffd5b5f73ffffffffffffffffffffffffffffffffffffffff82169050919050565b5f610828826107ff565b9050919050565b6108388161081e565b8114610842575f5ffd5b50565b5f813590506108538161082f565b92915050565b5f819050919050565b61086b81610859565b8114610875575f5ffd5b50565b5f8135905061088681610862565b92915050565b5f5f5f606084860312156108a3576108a26107fb565b5b5f6108b086828701610845565b93505060206108c186828701610845565b92505060406108d286828701610878565b9150509250925092565b6108e581610859565b82525050565b5f6020820190506108fe5f8301846108dc565b92915050565b61090d8161081e565b82525050565b5f6020820190506109265f830184610904565b92915050565b5f8115159050919050565b6109408161092c565b811461094a575f5ffd5b50565b5f8135905061095b81610937565b92915050565b5f5f60408385031215610977576109766107fb565b5b5f61098485828601610845565b92505060206109958582860161094d565b9150509250929050565b5f602082840312156109b4576109b36107fb565b5b5f6109c184828501610845565b91505092915050565b6109d38161092c565b82525050565b5f6020820190506109ec5f8301846109ca565b92915050565b5f60208284031215610a0757610a066107fb565b5b5f610a1484828501610878565b91505092915050565b5f82825260208201905092915050565b7f5061796d656e74476174657761793a204e6f7420616e20617574686f72697a655f8201527f642063616c6c6572000000000000000000000000000000000000000000000000602082015250565b5f610a87602883610a1d565b9150610a9282610a2d565b604082019050919050565b5f6020820190508181035f830152610ab481610a7b565b9050919050565b7f4e487b71000000000000000000000000000000000000000000000000000000005f52601160045260245ffd5b5f610af282610859565b9150610afd83610859565b9250828202610b0b81610859565b91508282048414831517610b2257610b21610abb565b5b5092915050565b7f4e487b71000000000000000000000000000000000000000000000000000000005f52601260045260245ffd5b5f610b6082610859565b9150610b6b83610859565b925082610b7b57610b7a610b29565b5b828204905092915050565b5f606082019050610b995f830186610904565b610ba66020830185610904565b610bb360408301846108dc565b949350505050565b5f81519050610bc981610937565b92915050565b5f60208284031215610be457610be36107fb565b5b5f610bf184828501610bbb565b91505092915050565b7f4665652063616e6e6f74206578636565642031302500000000000000000000005f82015250565b5f610c2e601583610a1d565b9150610c3982610bfa565b602082019050919050565b5f6020820190508181035f830152610c5b81610c22565b9050919050565b7f43616e6e6f742073657420726563697069656e7420746f207a65726f206164645f8201527f7265737300000000000000000000000000000000000000000000000000000000602082015250565b5f610cbc602483610a1d565b9150610cc782610c62565b604082019050919050565b5f6020820190508181035f830152610ce981610cb0565b905091905056fea2646970667358221220021fbb2346c3a27efa4a3ca1cd5d810cc37aabedda4b6d6c050f5010d33a46e364736f6c634300081e0033",
					"opcodes": "PUSH1 0x80 PUSH1 0x40 MSTORE CALLVALUE DUP1 ISZERO PUSH2 0xF JUMPI PUSH0 PUSH0 REVERT JUMPDEST POP PUSH1 0x40 MLOAD PUSH2 0x1191 CODESIZE SUB DUP1 PUSH2 0x1191 DUP4 CODECOPY DUP2 DUP2 ADD PUSH1 0x40 MSTORE DUP2 ADD SWAP1 PUSH2 0x31 SWAP2 SWAP1 PUSH2 0x306 JUMP JUMPDEST DUP3 PUSH0 PUSH20 0xFFFFFFFFFFFFFFFFFFFFFFFFFFFFFFFFFFFFFFFF AND DUP2 PUSH20 0xFFFFFFFFFFFFFFFFFFFFFFFFFFFFFFFFFFFFFFFF AND SUB PUSH2 0xA2 JUMPI PUSH0 PUSH1 0x40 MLOAD PUSH32 0x1E4FBDF700000000000000000000000000000000000000000000000000000000 DUP2 MSTORE PUSH1 0x4 ADD PUSH2 0x99 SWAP2 SWAP1 PUSH2 0x365 JUMP JUMPDEST PUSH1 0x40 MLOAD DUP1 SWAP2 SUB SWAP1 REVERT JUMPDEST PUSH2 0xB1 DUP2 PUSH2 0x1B4 PUSH1 0x20 SHL PUSH1 0x20 SHR JUMP JUMPDEST POP PUSH0 PUSH20 0xFFFFFFFFFFFFFFFFFFFFFFFFFFFFFFFFFFFFFFFF AND DUP3 PUSH20 0xFFFFFFFFFFFFFFFFFFFFFFFFFFFFFFFFFFFFFFFF AND SUB PUSH2 0x120 JUMPI PUSH1 0x40 MLOAD PUSH32 0x8C379A000000000000000000000000000000000000000000000000000000000 DUP2 MSTORE PUSH1 0x4 ADD PUSH2 0x117 SWAP1 PUSH2 0x3D8 JUMP JUMPDEST PUSH1 0x40 MLOAD DUP1 SWAP2 SUB SWAP1 REVERT JUMPDEST PUSH2 0x3E8 DUP2 GT ISZERO PUSH2 0x165 JUMPI PUSH1 0x40 MLOAD PUSH32 0x8C379A000000000000000000000000000000000000000000000000000000000 DUP2 MSTORE PUSH1 0x4 ADD PUSH2 0x15C SWAP1 PUSH2 0x440 JUMP JUMPDEST PUSH1 0x40 MLOAD DUP1 SWAP2 SUB SWAP1 REVERT JUMPDEST DUP2 PUSH1 0x1 PUSH0 PUSH2 0x100 EXP DUP2 SLOAD DUP2 PUSH20 0xFFFFFFFFFFFFFFFFFFFFFFFFFFFFFFFFFFFFFFFF MUL NOT AND SWAP1 DUP4 PUSH20 0xFFFFFFFFFFFFFFFFFFFFFFFFFFFFFFFFFFFFFFFF AND MUL OR SWAP1 SSTORE POP DUP1 PUSH1 0x2 DUP2 SWAP1 SSTORE POP POP POP POP PUSH2 0x45E JUMP JUMPDEST PUSH0 PUSH0 PUSH0 SWAP1 SLOAD SWAP1 PUSH2 0x100 EXP SWAP1 DIV PUSH20 0xFFFFFFFFFFFFFFFFFFFFFFFFFFFFFFFFFFFFFFFF AND SWAP1 POP DUP2 PUSH0 PUSH0 PUSH2 0x100 EXP DUP2 SLOAD DUP2 PUSH20 0xFFFFFFFFFFFFFFFFFFFFFFFFFFFFFFFFFFFFFFFF MUL NOT AND SWAP1 DUP4 PUSH20 0xFFFFFFFFFFFFFFFFFFFFFFFFFFFFFFFFFFFFFFFF AND MUL OR SWAP1 SSTORE POP DUP2 PUSH20 0xFFFFFFFFFFFFFFFFFFFFFFFFFFFFFFFFFFFFFFFF AND DUP2 PUSH20 0xFFFFFFFFFFFFFFFFFFFFFFFFFFFFFFFFFFFFFFFF AND PUSH32 0x8BE0079C531659141344CD1FD0A4F28419497F9722A3DAAFE3B4186F6B6457E0 PUSH1 0x40 MLOAD PUSH1 0x40 MLOAD DUP1 SWAP2 SUB SWAP1 LOG3 POP POP JUMP JUMPDEST PUSH0 PUSH0 REVERT JUMPDEST PUSH0 PUSH20 0xFFFFFFFFFFFFFFFFFFFFFFFFFFFFFFFFFFFFFFFF DUP3 AND SWAP1 POP SWAP2 SWAP1 POP JUMP JUMPDEST PUSH0 PUSH2 0x2A2 DUP3 PUSH2 0x279 JUMP JUMPDEST SWAP1 POP SWAP2 SWAP1 POP JUMP JUMPDEST PUSH2 0x2B2 DUP2 PUSH2 0x298 JUMP JUMPDEST DUP2 EQ PUSH2 0x2BC JUMPI PUSH0 PUSH0 REVERT JUMPDEST POP JUMP JUMPDEST PUSH0 DUP2 MLOAD SWAP1 POP PUSH2 0x2CD DUP2 PUSH2 0x2A9 JUMP JUMPDEST SWAP3 SWAP2 POP POP JUMP JUMPDEST PUSH0 DUP2 SWAP1 POP SWAP2 SWAP1 POP JUMP JUMPDEST PUSH2 0x2E5 DUP2 PUSH2 0x2D3 JUMP JUMPDEST DUP2 EQ PUSH2 0x2EF JUMPI PUSH0 PUSH0 REVERT JUMPDEST POP JUMP JUMPDEST PUSH0 DUP2 MLOAD SWAP1 POP PUSH2 0x300 DUP2 PUSH2 0x2DC JUMP JUMPDEST SWAP3 SWAP2 POP POP JUMP JUMPDEST PUSH0 PUSH0 PUSH0 PUSH1 0x60 DUP5 DUP7 SUB SLT ISZERO PUSH2 0x31D JUMPI PUSH2 0x31C PUSH2 0x275 JUMP JUMPDEST JUMPDEST PUSH0 PUSH2 0x32A DUP7 DUP3 DUP8 ADD PUSH2 0x2BF JUMP JUMPDEST SWAP4 POP POP PUSH1 0x20 PUSH2 0x33B DUP7 DUP3 DUP8 ADD PUSH2 0x2BF JUMP JUMPDEST SWAP3 POP POP PUSH1 0x40 PUSH2 0x34C DUP7 DUP3 DUP8 ADD PUSH2 0x2F2 JUMP JUMPDEST SWAP2 POP POP SWAP3 POP SWAP3 POP SWAP3 JUMP JUMPDEST PUSH2 0x35F DUP2 PUSH2 0x298 JUMP JUMPDEST DUP3 MSTORE POP POP JUMP JUMPDEST PUSH0 PUSH1 0x20 DUP3 ADD SWAP1 POP PUSH2 0x378 PUSH0 DUP4 ADD DUP5 PUSH2 0x356 JUMP JUMPDEST SWAP3 SWAP2 POP POP JUMP JUMPDEST PUSH0 DUP3 DUP3 MSTORE PUSH1 0x20 DUP3 ADD SWAP1 POP SWAP3 SWAP2 POP POP JUMP JUMPDEST PUSH32 0x526563697069656E742063616E6E6F74206265207A65726F2061646472657373 PUSH0 DUP3 ADD MSTORE POP JUMP JUMPDEST PUSH0 PUSH2 0x3C2 PUSH1 0x20 DUP4 PUSH2 0x37E JUMP JUMPDEST SWAP2 POP PUSH2 0x3CD DUP3 PUSH2 0x38E JUMP JUMPDEST PUSH1 0x20 DUP3 ADD SWAP1 POP SWAP2 SWAP1 POP JUMP JUMPDEST PUSH0 PUSH1 0x20 DUP3 ADD SWAP1 POP DUP2 DUP2 SUB PUSH0 DUP4 ADD MSTORE PUSH2 0x3EF DUP2 PUSH2 0x3B6 JUMP JUMPDEST SWAP1 POP SWAP2 SWAP1 POP JUMP JUMPDEST PUSH32 0x4665652063616E6E6F7420657863656564203130250000000000000000000000 PUSH0 DUP3 ADD MSTORE POP JUMP JUMPDEST PUSH0 PUSH2 0x42A PUSH1 0x15 DUP4 PUSH2 0x37E JUMP JUMPDEST SWAP2 POP PUSH2 0x435 DUP3 PUSH2 0x3F6 JUMP JUMPDEST PUSH1 0x20 DUP3 ADD SWAP1 POP SWAP2 SWAP1 POP JUMP JUMPDEST PUSH0 PUSH1 0x20 DUP3 ADD SWAP1 POP DUP2 DUP2 SUB PUSH0 DUP4 ADD MSTORE PUSH2 0x457 DUP2 PUSH2 0x41E JUMP JUMPDEST SWAP1 POP SWAP2 SWAP1 POP JUMP JUMPDEST PUSH2 0xD26 DUP1 PUSH2 0x46B PUSH0 CODECOPY PUSH0 RETURN INVALID PUSH1 0x80 PUSH1 0x40 MSTORE CALLVALUE DUP1 ISZERO PUSH2 0xF JUMPI PUSH0 PUSH0 REVERT JUMPDEST POP PUSH1 0x4 CALLDATASIZE LT PUSH2 0x9C JUMPI PUSH0 CALLDATALOAD PUSH1 0xE0 SHR DUP1 PUSH4 0x715018A6 GT PUSH2 0x64 JUMPI DUP1 PUSH4 0x715018A6 EQ PUSH2 0x144 JUMPI DUP1 PUSH4 0x72C27B62 EQ PUSH2 0x14E JUMPI DUP1 PUSH4 0x8DA5CB5B EQ PUSH2 0x16A JUMPI DUP1 PUSH4 0xE74B981B EQ PUSH2 0x188 JUMPI DUP1 PUSH4 0xF2FDE38B EQ PUSH2 0x1A4 JUMPI PUSH2 0x9C JUMP JUMPDEST DUP1 PUSH4 0x20CB7BCE EQ PUSH2 0xA0 JUMPI DUP1 PUSH4 0x22DCD13E EQ PUSH2 0xBC JUMPI DUP1 PUSH4 0x46904840 EQ PUSH2 0xDA JUMPI DUP1 PUSH4 0x4A98AF54 EQ PUSH2 0xF8 JUMPI DUP1 PUSH4 0x59D14B41 EQ PUSH2 0x114 JUMPI JUMPDEST PUSH0 PUSH0 REVERT JUMPDEST PUSH2 0xBA PUSH1 0x4 DUP1 CALLDATASIZE SUB DUP2 ADD SWAP1 PUSH2 0xB5 SWAP2 SWAP1 PUSH2 0x88C JUMP JUMPDEST PUSH2 0x1C0 JUMP JUMPDEST STOP JUMPDEST PUSH2 0xC4 PUSH2 0x37A JUMP JUMPDEST PUSH1 0x40 MLOAD PUSH2 0xD1 SWAP2 SWAP1 PUSH2 0x8EB JUMP JUMPDEST PUSH1 0x40 MLOAD DUP1 SWAP2 SUB SWAP1 RETURN JUMPDEST PUSH2 0xE2 PUSH2 0x380 JUMP JUMPDEST PUSH1 0x40 MLOAD PUSH2 0xEF SWAP2 SWAP1 PUSH2 0x913 JUMP JUMPDEST PUSH1 0x40 MLOAD DUP1 SWAP2 SUB SWAP1 RETURN JUMPDEST PUSH2 0x112 PUSH1 0x4 DUP1 CALLDATASIZE SUB DUP2 ADD SWAP1 PUSH2 0x10D SWAP2 SWAP1 PUSH2 0x961 JUMP JUMPDEST PUSH2 0x3A5 JUMP JUMPDEST STOP JUMPDEST PUSH2 0x12E PUSH1 0x4 DUP1 CALLDATASIZE SUB DUP2 ADD SWAP1 PUSH2 0x129 SWAP2 SWAP1 PUSH2 0x99F JUMP JUMPDEST PUSH2 0x453 JUMP JUMPDEST PUSH1 0x40 MLOAD PUSH2 0x13B SWAP2 SWAP1 PUSH2 0x9D9 JUMP JUMPDEST PUSH1 0x40 MLOAD DUP1 SWAP2 SUB SWAP1 RETURN JUMPDEST PUSH2 0x14C PUSH2 0x470 JUMP JUMPDEST STOP JUMPDEST PUSH2 0x168 PUSH1 0x4 DUP1 CALLDATASIZE SUB DUP2 ADD SWAP1 PUSH2 0x163 SWAP2 SWAP1 PUSH2 0x9F2 JUMP JUMPDEST PUSH2 0x483 JUMP JUMPDEST STOP JUMPDEST PUSH2 0x172 PUSH2 0x511 JUMP JUMPDEST PUSH1 0x40 MLOAD PUSH2 0x17F SWAP2 SWAP1 PUSH2 0x913 JUMP JUMPDEST PUSH1 0x40 MLOAD DUP1 SWAP2 SUB SWAP1 RETURN JUMPDEST PUSH2 0x1A2 PUSH1 0x4 DUP1 CALLDATASIZE SUB DUP2 ADD SWAP1 PUSH2 0x19D SWAP2 SWAP1 PUSH2 0x99F JUMP JUMPDEST PUSH2 0x538 JUMP JUMPDEST STOP JUMPDEST PUSH2 0x1BE PUSH1 0x4 DUP1 CALLDATASIZE SUB DUP2 ADD SWAP1 PUSH2 0x1B9 SWAP2 SWAP1 PUSH2 0x99F JUMP JUMPDEST PUSH2 0x628 JUMP JUMPDEST STOP JUMPDEST PUSH1 0x3 PUSH0 CALLER PUSH20 0xFFFFFFFFFFFFFFFFFFFFFFFFFFFFFFFFFFFFFFFF AND PUSH20 0xFFFFFFFFFFFFFFFFFFFFFFFFFFFFFFFFFFFFFFFF AND DUP2 MSTORE PUSH1 0x20 ADD SWAP1 DUP2 MSTORE PUSH1 0x20 ADD PUSH0 KECCAK256 PUSH0 SWAP1 SLOAD SWAP1 PUSH2 0x100 EXP SWAP1 DIV PUSH1 0xFF AND PUSH2 0x249 JUMPI PUSH1 0x40 MLOAD PUSH32 0x8C379A000000000000000000000000000000000000000000000000000000000 DUP2 MSTORE PUSH1 0x4 ADD PUSH2 0x240 SWAP1 PUSH2 0xA9D JUMP JUMPDEST PUSH1 0x40 MLOAD DUP1 SWAP2 SUB SWAP1 REVERT JUMPDEST PUSH0 PUSH2 0x2710 PUSH1 0x2 SLOAD DUP4 PUSH2 0x25B SWAP2 SWAP1 PUSH2 0xAE8 JUMP JUMPDEST PUSH2 0x265 SWAP2 SWAP1 PUSH2 0xB56 JUMP JUMPDEST SWAP1 POP PUSH0 DUP2 GT ISZERO PUSH2 0x374 JUMPI DUP4 PUSH20 0xFFFFFFFFFFFFFFFFFFFFFFFFFFFFFFFFFFFFFFFF AND PUSH4 0x23B872DD DUP5 PUSH1 0x1 PUSH0 SWAP1 SLOAD SWAP1 PUSH2 0x100 EXP SWAP1 DIV PUSH20 0xFFFFFFFFFFFFFFFFFFFFFFFFFFFFFFFFFFFFFFFF AND DUP5 PUSH1 0x40 MLOAD DUP5 PUSH4 0xFFFFFFFF AND PUSH1 0xE0 SHL DUP2 MSTORE PUSH1 0x4 ADD PUSH2 0x2CD SWAP4 SWAP3 SWAP2 SWAP1 PUSH2 0xB86 JUMP JUMPDEST PUSH1 0x20 PUSH1 0x40 MLOAD DUP1 DUP4 SUB DUP2 PUSH0 DUP8 GAS CALL ISZERO DUP1 ISZERO PUSH2 0x2E9 JUMPI RETURNDATASIZE PUSH0 PUSH0 RETURNDATACOPY RETURNDATASIZE PUSH0 REVERT JUMPDEST POP POP POP POP PUSH1 0x40 MLOAD RETURNDATASIZE PUSH1 0x1F NOT PUSH1 0x1F DUP3 ADD AND DUP3 ADD DUP1 PUSH1 0x40 MSTORE POP DUP2 ADD SWAP1 PUSH2 0x30D SWAP2 SWAP1 PUSH2 0xBCF JUMP JUMPDEST POP DUP4 PUSH20 0xFFFFFFFFFFFFFFFFFFFFFFFFFFFFFFFFFFFFFFFF AND CALLER PUSH20 0xFFFFFFFFFFFFFFFFFFFFFFFFFFFFFFFFFFFFFFFF AND PUSH32 0xE0E765AB26C1CAF691C510426951246128B96830E49CC81D8C093FD551ABAC35 DUP4 PUSH1 0x40 MLOAD PUSH2 0x36B SWAP2 SWAP1 PUSH2 0x8EB JUMP JUMPDEST PUSH1 0x40 MLOAD DUP1 SWAP2 SUB SWAP1 LOG3 JUMPDEST POP POP POP POP JUMP JUMPDEST PUSH1 0x2 SLOAD DUP2 JUMP JUMPDEST PUSH1 0x1 PUSH0 SWAP1 SLOAD SWAP1 PUSH2 0x100 EXP SWAP1 DIV PUSH20 0xFFFFFFFFFFFFFFFFFFFFFFFFFFFFFFFFFFFFFFFF AND DUP2 JUMP JUMPDEST PUSH2 0x3AD PUSH2 0x6AC JUMP JUMPDEST DUP1 PUSH1 0x3 PUSH0 DUP5 PUSH20 0xFFFFFFFFFFFFFFFFFFFFFFFFFFFFFFFFFFFFFFFF AND PUSH20 0xFFFFFFFFFFFFFFFFFFFFFFFFFFFFFFFFFFFFFFFF AND DUP2 MSTORE PUSH1 0x20 ADD SWAP1 DUP2 MSTORE PUSH1 0x20 ADD PUSH0 KECCAK256 PUSH0 PUSH2 0x100 EXP DUP2 SLOAD DUP2 PUSH1 0xFF MUL NOT AND SWAP1 DUP4 ISZERO ISZERO MUL OR SWAP1 SSTORE POP DUP2 PUSH20 0xFFFFFFFFFFFFFFFFFFFFFFFFFFFFFFFFFFFFFFFF AND PUSH32 0xC5238A63FA205F95E98807F6CBC91D2AD8555A2250075E47491F11D9C69DB3BC DUP3 PUSH1 0x40 MLOAD PUSH2 0x447 SWAP2 SWAP1 PUSH2 0x9D9 JUMP JUMPDEST PUSH1 0x40 MLOAD DUP1 SWAP2 SUB SWAP1 LOG2 POP POP JUMP JUMPDEST PUSH1 0x3 PUSH1 0x20 MSTORE DUP1 PUSH0 MSTORE PUSH1 0x40 PUSH0 KECCAK256 PUSH0 SWAP2 POP SLOAD SWAP1 PUSH2 0x100 EXP SWAP1 DIV PUSH1 0xFF AND DUP2 JUMP JUMPDEST PUSH2 0x478 PUSH2 0x6AC JUMP JUMPDEST PUSH2 0x481 PUSH0 PUSH2 0x733 JUMP JUMPDEST JUMP JUMPDEST PUSH2 0x48B PUSH2 0x6AC JUMP JUMPDEST PUSH2 0x3E8 DUP2 GT ISZERO PUSH2 0x4D0 JUMPI PUSH1 0x40 MLOAD PUSH32 0x8C379A000000000000000000000000000000000000000000000000000000000 DUP2 MSTORE PUSH1 0x4 ADD PUSH2 0x4C7 SWAP1 PUSH2 0xC44 JUMP JUMPDEST PUSH1 0x40 MLOAD DUP1 SWAP2 SUB SWAP1 REVERT JUMPDEST DUP1 PUSH1 0x2 DUP2 SWAP1 SSTORE POP PUSH32 0x8C4D35E54A3F2EF1134138FD8EA3DAEE6A3C89E10D2665996BABDF70261E2C76 DUP2 PUSH1 0x40 MLOAD PUSH2 0x506 SWAP2 SWAP1 PUSH2 0x8EB JUMP JUMPDEST PUSH1 0x40 MLOAD DUP1 SWAP2 SUB SWAP1 LOG1 POP JUMP JUMPDEST PUSH0 PUSH0 PUSH0 SWAP1 SLOAD SWAP1 PUSH2 0x100 EXP SWAP1 DIV PUSH20 0xFFFFFFFFFFFFFFFFFFFFFFFFFFFFFFFFFFFFFFFF AND SWAP1 POP SWAP1 JUMP JUMPDEST PUSH2 0x540 PUSH2 0x6AC JUMP JUMPDEST PUSH0 PUSH20 0xFFFFFFFFFFFFFFFFFFFFFFFFFFFFFFFFFFFFFFFF AND DUP2 PUSH20 0xFFFFFFFFFFFFFFFFFFFFFFFFFFFFFFFFFFFFFFFF AND SUB PUSH2 0x5AE JUMPI PUSH1 0x40 MLOAD PUSH32 0x8C379A000000000000000000000000000000000000000000000000000000000 DUP2 MSTORE PUSH1 0x4 ADD PUSH2 0x5A5 SWAP1 PUSH2 0xCD2 JUMP JUMPDEST PUSH1 0x40 MLOAD DUP1 SWAP2 SUB SWAP1 REVERT JUMPDEST DUP1 PUSH1 0x1 PUSH0 PUSH2 0x100 EXP DUP2 SLOAD DUP2 PUSH20 0xFFFFFFFFFFFFFFFFFFFFFFFFFFFFFFFFFFFFFFFF MUL NOT AND SWAP1 DUP4 PUSH20 0xFFFFFFFFFFFFFFFFFFFFFFFFFFFFFFFFFFFFFFFF AND MUL OR SWAP1 SSTORE POP PUSH32 0x566F16F5EDE69BB6F837D5DA3A6CF41C863BA95621D677FF3C931AA687DA6466 DUP2 PUSH1 0x40 MLOAD PUSH2 0x61D SWAP2 SWAP1 PUSH2 0x913 JUMP JUMPDEST PUSH1 0x40 MLOAD DUP1 SWAP2 SUB SWAP1 LOG1 POP JUMP JUMPDEST PUSH2 0x630 PUSH2 0x6AC JUMP JUMPDEST PUSH0 PUSH20 0xFFFFFFFFFFFFFFFFFFFFFFFFFFFFFFFFFFFFFFFF AND DUP2 PUSH20 0xFFFFFFFFFFFFFFFFFFFFFFFFFFFFFFFFFFFFFFFF AND SUB PUSH2 0x6A0 JUMPI PUSH0 PUSH1 0x40 MLOAD PUSH32 0x1E4FBDF700000000000000000000000000000000000000000000000000000000 DUP2 MSTORE PUSH1 0x4 ADD PUSH2 0x697 SWAP2 SWAP1 PUSH2 0x913 JUMP JUMPDEST PUSH1 0x40 MLOAD DUP1 SWAP2 SUB SWAP1 REVERT JUMPDEST PUSH2 0x6A9 DUP2 PUSH2 0x733 JUMP JUMPDEST POP JUMP JUMPDEST PUSH2 0x6B4 PUSH2 0x7F4 JUMP JUMPDEST PUSH20 0xFFFFFFFFFFFFFFFFFFFFFFFFFFFFFFFFFFFFFFFF AND PUSH2 0x6D2 PUSH2 0x511 JUMP JUMPDEST PUSH20 0xFFFFFFFFFFFFFFFFFFFFFFFFFFFFFFFFFFFFFFFF AND EQ PUSH2 0x731 JUMPI PUSH2 0x6F5 PUSH2 0x7F4 JUMP JUMPDEST PUSH1 0x40 MLOAD PUSH32 0x118CDAA700000000000000000000000000000000000000000000000000000000 DUP2 MSTORE PUSH1 0x4 ADD PUSH2 0x728 SWAP2 SWAP1 PUSH2 0x913 JUMP JUMPDEST PUSH1 0x40 MLOAD DUP1 SWAP2 SUB SWAP1 REVERT JUMPDEST JUMP JUMPDEST PUSH0 PUSH0 PUSH0 SWAP1 SLOAD SWAP1 PUSH2 0x100 EXP SWAP1 DIV PUSH20 0xFFFFFFFFFFFFFFFFFFFFFFFFFFFFFFFFFFFFFFFF AND SWAP1 POP DUP2 PUSH0 PUSH0 PUSH2 0x100 EXP DUP2 SLOAD DUP2 PUSH20 0xFFFFFFFFFFFFFFFFFFFFFFFFFFFFFFFFFFFFFFFF MUL NOT AND SWAP1 DUP4 PUSH20 0xFFFFFFFFFFFFFFFFFFFFFFFFFFFFFFFFFFFFFFFF AND MUL OR SWAP1 SSTORE POP DUP2 PUSH20 0xFFFFFFFFFFFFFFFFFFFFFFFFFFFFFFFFFFFFFFFF AND DUP2 PUSH20 0xFFFFFFFFFFFFFFFFFFFFFFFFFFFFFFFFFFFFFFFF AND PUSH32 0x8BE0079C531659141344CD1FD0A4F28419497F9722A3DAAFE3B4186F6B6457E0 PUSH1 0x40 MLOAD PUSH1 0x40 MLOAD DUP1 SWAP2 SUB SWAP1 LOG3 POP POP JUMP JUMPDEST PUSH0 CALLER SWAP1 POP SWAP1 JUMP JUMPDEST PUSH0 PUSH0 REVERT JUMPDEST PUSH0 PUSH20 0xFFFFFFFFFFFFFFFFFFFFFFFFFFFFFFFFFFFFFFFF DUP3 AND SWAP1 POP SWAP2 SWAP1 POP JUMP JUMPDEST PUSH0 PUSH2 0x828 DUP3 PUSH2 0x7FF JUMP JUMPDEST SWAP1 POP SWAP2 SWAP1 POP JUMP JUMPDEST PUSH2 0x838 DUP2 PUSH2 0x81E JUMP JUMPDEST DUP2 EQ PUSH2 0x842 JUMPI PUSH0 PUSH0 REVERT JUMPDEST POP JUMP JUMPDEST PUSH0 DUP2 CALLDATALOAD SWAP1 POP PUSH2 0x853 DUP2 PUSH2 0x82F JUMP JUMPDEST SWAP3 SWAP2 POP POP JUMP JUMPDEST PUSH0 DUP2 SWAP1 POP SWAP2 SWAP1 POP JUMP JUMPDEST PUSH2 0x86B DUP2 PUSH2 0x859 JUMP JUMPDEST DUP2 EQ PUSH2 0x875 JUMPI PUSH0 PUSH0 REVERT JUMPDEST POP JUMP JUMPDEST PUSH0 DUP2 CALLDATALOAD SWAP1 POP PUSH2 0x886 DUP2 PUSH2 0x862 JUMP JUMPDEST SWAP3 SWAP2 POP POP JUMP JUMPDEST PUSH0 PUSH0 PUSH0 PUSH1 0x60 DUP5 DUP7 SUB SLT ISZERO PUSH2 0x8A3 JUMPI PUSH2 0x8A2 PUSH2 0x7FB JUMP JUMPDEST JUMPDEST PUSH0 PUSH2 0x8B0 DUP7 DUP3 DUP8 ADD PUSH2 0x845 JUMP JUMPDEST SWAP4 POP POP PUSH1 0x20 PUSH2 0x8C1 DUP7 DUP3 DUP8 ADD PUSH2 0x845 JUMP JUMPDEST SWAP3 POP POP PUSH1 0x40 PUSH2 0x8D2 DUP7 DUP3 DUP8 ADD PUSH2 0x878 JUMP JUMPDEST SWAP2 POP POP SWAP3 POP SWAP3 POP SWAP3 JUMP JUMPDEST PUSH2 0x8E5 DUP2 PUSH2 0x859 JUMP JUMPDEST DUP3 MSTORE POP POP JUMP JUMPDEST PUSH0 PUSH1 0x20 DUP3 ADD SWAP1 POP PUSH2 0x8FE PUSH0 DUP4 ADD DUP5 PUSH2 0x8DC JUMP JUMPDEST SWAP3 SWAP2 POP POP JUMP JUMPDEST PUSH2 0x90D DUP2 PUSH2 0x81E JUMP JUMPDEST DUP3 MSTORE POP POP JUMP JUMPDEST PUSH0 PUSH1 0x20 DUP3 ADD SWAP1 POP PUSH2 0x926 PUSH0 DUP4 ADD DUP5 PUSH2 0x904 JUMP JUMPDEST SWAP3 SWAP2 POP POP JUMP JUMPDEST PUSH0 DUP2 ISZERO ISZERO SWAP1 POP SWAP2 SWAP1 POP JUMP JUMPDEST PUSH2 0x940 DUP2 PUSH2 0x92C JUMP JUMPDEST DUP2 EQ PUSH2 0x94A JUMPI PUSH0 PUSH0 REVERT JUMPDEST POP JUMP JUMPDEST PUSH0 DUP2 CALLDATALOAD SWAP1 POP PUSH2 0x95B DUP2 PUSH2 0x937 JUMP JUMPDEST SWAP3 SWAP2 POP POP JUMP JUMPDEST PUSH0 PUSH0 PUSH1 0x40 DUP4 DUP6 SUB SLT ISZERO PUSH2 0x977 JUMPI PUSH2 0x976 PUSH2 0x7FB JUMP JUMPDEST JUMPDEST PUSH0 PUSH2 0x984 DUP6 DUP3 DUP7 ADD PUSH2 0x845 JUMP JUMPDEST SWAP3 POP POP PUSH1 0x20 PUSH2 0x995 DUP6 DUP3 DUP7 ADD PUSH2 0x94D JUMP JUMPDEST SWAP2 POP POP SWAP3 POP SWAP3 SWAP1 POP JUMP JUMPDEST PUSH0 PUSH1 0x20 DUP3 DUP5 SUB SLT ISZERO PUSH2 0x9B4 JUMPI PUSH2 0x9B3 PUSH2 0x7FB JUMP JUMPDEST JUMPDEST PUSH0 PUSH2 0x9C1 DUP5 DUP3 DUP6 ADD PUSH2 0x845 JUMP JUMPDEST SWAP2 POP POP SWAP3 SWAP2 POP POP JUMP JUMPDEST PUSH2 0x9D3 DUP2 PUSH2 0x92C JUMP JUMPDEST DUP3 MSTORE POP POP JUMP JUMPDEST PUSH0 PUSH1 0x20 DUP3 ADD SWAP1 POP PUSH2 0x9EC PUSH0 DUP4 ADD DUP5 PUSH2 0x9CA JUMP JUMPDEST SWAP3 SWAP2 POP POP JUMP JUMPDEST PUSH0 PUSH1 0x20 DUP3 DUP5 SUB SLT ISZERO PUSH2 0xA07 JUMPI PUSH2 0xA06 PUSH2 0x7FB JUMP JUMPDEST JUMPDEST PUSH0 PUSH2 0xA14 DUP5 DUP3 DUP6 ADD PUSH2 0x878 JUMP JUMPDEST SWAP2 POP POP SWAP3 SWAP2 POP POP JUMP JUMPDEST PUSH0 DUP3 DUP3 MSTORE PUSH1 0x20 DUP3 ADD SWAP1 POP SWAP3 SWAP2 POP POP JUMP JUMPDEST PUSH32 0x5061796D656E74476174657761793A204E6F7420616E20617574686F72697A65 PUSH0 DUP3 ADD MSTORE PUSH32 0x642063616C6C6572000000000000000000000000000000000000000000000000 PUSH1 0x20 DUP3 ADD MSTORE POP JUMP JUMPDEST PUSH0 PUSH2 0xA87 PUSH1 0x28 DUP4 PUSH2 0xA1D JUMP JUMPDEST SWAP2 POP PUSH2 0xA92 DUP3 PUSH2 0xA2D JUMP JUMPDEST PUSH1 0x40 DUP3 ADD SWAP1 POP SWAP2 SWAP1 POP JUMP JUMPDEST PUSH0 PUSH1 0x20 DUP3 ADD SWAP1 POP DUP2 DUP2 SUB PUSH0 DUP4 ADD MSTORE PUSH2 0xAB4 DUP2 PUSH2 0xA7B JUMP JUMPDEST SWAP1 POP SWAP2 SWAP1 POP JUMP JUMPDEST PUSH32 0x4E487B7100000000000000000000000000000000000000000000000000000000 PUSH0 MSTORE PUSH1 0x11 PUSH1 0x4 MSTORE PUSH1 0x24 PUSH0 REVERT JUMPDEST PUSH0 PUSH2 0xAF2 DUP3 PUSH2 0x859 JUMP JUMPDEST SWAP2 POP PUSH2 0xAFD DUP4 PUSH2 0x859 JUMP JUMPDEST SWAP3 POP DUP3 DUP3 MUL PUSH2 0xB0B DUP2 PUSH2 0x859 JUMP JUMPDEST SWAP2 POP DUP3 DUP3 DIV DUP5 EQ DUP4 ISZERO OR PUSH2 0xB22 JUMPI PUSH2 0xB21 PUSH2 0xABB JUMP JUMPDEST JUMPDEST POP SWAP3 SWAP2 POP POP JUMP JUMPDEST PUSH32 0x4E487B7100000000000000000000000000000000000000000000000000000000 PUSH0 MSTORE PUSH1 0x12 PUSH1 0x4 MSTORE PUSH1 0x24 PUSH0 REVERT JUMPDEST PUSH0 PUSH2 0xB60 DUP3 PUSH2 0x859 JUMP JUMPDEST SWAP2 POP PUSH2 0xB6B DUP4 PUSH2 0x859 JUMP JUMPDEST SWAP3 POP DUP3 PUSH2 0xB7B JUMPI PUSH2 0xB7A PUSH2 0xB29 JUMP JUMPDEST JUMPDEST DUP3 DUP3 DIV SWAP1 POP SWAP3 SWAP2 POP POP JUMP JUMPDEST PUSH0 PUSH1 0x60 DUP3 ADD SWAP1 POP PUSH2 0xB99 PUSH0 DUP4 ADD DUP7 PUSH2 0x904 JUMP JUMPDEST PUSH2 0xBA6 PUSH1 0x20 DUP4 ADD DUP6 PUSH2 0x904 JUMP JUMPDEST PUSH2 0xBB3 PUSH1 0x40 DUP4 ADD DUP5 PUSH2 0x8DC JUMP JUMPDEST SWAP5 SWAP4 POP POP POP POP JUMP JUMPDEST PUSH0 DUP2 MLOAD SWAP1 POP PUSH2 0xBC9 DUP2 PUSH2 0x937 JUMP JUMPDEST SWAP3 SWAP2 POP POP JUMP JUMPDEST PUSH0 PUSH1 0x20 DUP3 DUP5 SUB SLT ISZERO PUSH2 0xBE4 JUMPI PUSH2 0xBE3 PUSH2 0x7FB JUMP JUMPDEST JUMPDEST PUSH0 PUSH2 0xBF1 DUP5 DUP3 DUP6 ADD PUSH2 0xBBB JUMP JUMPDEST SWAP2 POP POP SWAP3 SWAP2 POP POP JUMP JUMPDEST PUSH32 0x4665652063616E6E6F7420657863656564203130250000000000000000000000 PUSH0 DUP3 ADD MSTORE POP JUMP JUMPDEST PUSH0 PUSH2 0xC2E PUSH1 0x15 DUP4 PUSH2 0xA1D JUMP JUMPDEST SWAP2 POP PUSH2 0xC39 DUP3 PUSH2 0xBFA JUMP JUMPDEST PUSH1 0x20 DUP3 ADD SWAP1 POP SWAP2 SWAP1 POP JUMP JUMPDEST PUSH0 PUSH1 0x20 DUP3 ADD SWAP1 POP DUP2 DUP2 SUB PUSH0 DUP4 ADD MSTORE PUSH2 0xC5B DUP2 PUSH2 0xC22 JUMP JUMPDEST SWAP1 POP SWAP2 SWAP1 POP JUMP JUMPDEST PUSH32 0x43616E6E6F742073657420726563697069656E7420746F207A65726F20616464 PUSH0 DUP3 ADD MSTORE PUSH32 0x7265737300000000000000000000000000000000000000000000000000000000 PUSH1 0x20 DUP3 ADD MSTORE POP JUMP JUMPDEST PUSH0 PUSH2 0xCBC PUSH1 0x24 DUP4 PUSH2 0xA1D JUMP JUMPDEST SWAP2 POP PUSH2 0xCC7 DUP3 PUSH2 0xC62 JUMP JUMPDEST PUSH1 0x40 DUP3 ADD SWAP1 POP SWAP2 SWAP1 POP JUMP JUMPDEST PUSH0 PUSH1 0x20 DUP3 ADD SWAP1 POP DUP2 DUP2 SUB PUSH0 DUP4 ADD MSTORE PUSH2 0xCE9 DUP2 PUSH2 0xCB0 JUMP JUMPDEST SWAP1 POP SWAP2 SWAP1 POP JUMP INVALID LOG2 PUSH5 0x6970667358 0x22 SLT KECCAK256 MUL 0x1F 0xBB 0x23 CHAINID 0xC3 LOG2 PUSH31 0xFA4A3CA1CD5D810CC37AABEDDA4B6D6C050F5010D33A46E364736F6C634300 ADDMOD 0x1E STOP CALLER "
				},
				"gasEstimates": {
					"creation": {
						"codeDepositCost": "673200",
						"executionCost": "infinite",
						"totalCost": "infinite"
					},
					"external": {
						"feeRecipient()": "2553",
						"isAuthorizedCaller(address)": "2922",
						"owner()": "2558",
						"platformFeeBps()": "2448",
						"renounceOwnership()": "infinite",
						"setCallerAuthority(address,bool)": "infinite",
						"setFeeBps(uint256)": "infinite",
						"setFeeRecipient(address)": "infinite",
						"takeFee(address,address,uint256)": "infinite",
						"transferOwnership(address)": "infinite"
					}
				},
				"methodIdentifiers": {
					"feeRecipient()": "46904840",
					"isAuthorizedCaller(address)": "59d14b41",
					"owner()": "8da5cb5b",
					"platformFeeBps()": "22dcd13e",
					"renounceOwnership()": "715018a6",
					"setCallerAuthority(address,bool)": "4a98af54",
					"setFeeBps(uint256)": "72c27b62",
					"setFeeRecipient(address)": "e74b981b",
					"takeFee(address,address,uint256)": "20cb7bce",
					"transferOwnership(address)": "f2fde38b"
				}
			},
			"storageLayout": {
				"storage": [
					{
						"astId": 35,
						"contract": "contracts/Financial/PaymentGateway_flattened.sol:PaymentGateway",
						"label": "_owner",
						"offset": 0,
						"slot": "0",
						"type": "t_address"
					},
					{
						"astId": 256,
						"contract": "contracts/Financial/PaymentGateway_flattened.sol:PaymentGateway",
						"label": "feeRecipient",
						"offset": 0,
						"slot": "1",
						"type": "t_address"
					},
					{
						"astId": 258,
						"contract": "contracts/Financial/PaymentGateway_flattened.sol:PaymentGateway",
						"label": "platformFeeBps",
						"offset": 0,
						"slot": "2",
						"type": "t_uint256"
					},
					{
						"astId": 262,
						"contract": "contracts/Financial/PaymentGateway_flattened.sol:PaymentGateway",
						"label": "isAuthorizedCaller",
						"offset": 0,
						"slot": "3",
						"type": "t_mapping(t_address,t_bool)"
					}
				],
				"types": {
					"t_address": {
						"encoding": "inplace",
						"label": "address",
						"numberOfBytes": "20"
					},
					"t_bool": {
						"encoding": "inplace",
						"label": "bool",
						"numberOfBytes": "1"
					},
					"t_mapping(t_address,t_bool)": {
						"encoding": "mapping",
						"key": "t_address",
						"label": "mapping(address => bool)",
						"numberOfBytes": "32",
						"value": "t_bool"
					},
					"t_uint256": {
						"encoding": "inplace",
						"label": "uint256",
						"numberOfBytes": "32"
					}
				}
			},
			"userdoc": {
				"kind": "user",
				"methods": {},
				"version": 1
			}
		}
	}
}