{
	"contracts/utils/Invoicing.sol": {
		"Invoicing": {
			"abi": [
				{
					"inputs": [
						{
							"internalType": "address",
							"name": "_projectContract",
							"type": "address"
						}
					],
					"stateMutability": "nonpayable",
					"type": "constructor"
				},
				{
					"inputs": [
						{
							"internalType": "address",
							"name": "owner",
							"type": "address"
						}
					],
					"name": "OwnableInvalidOwner",
					"type": "error"
				},
				{
					"inputs": [
						{
							"internalType": "address",
							"name": "account",
							"type": "address"
						}
					],
					"name": "OwnableUnauthorizedAccount",
					"type": "error"
				},
				{
					"anonymous": false,
					"inputs": [
						{
							"indexed": true,
							"internalType": "uint256",
							"name": "id",
							"type": "uint256"
						},
						{
							"indexed": false,
							"internalType": "string",
							"name": "description",
							"type": "string"
						},
						{
							"indexed": false,
							"internalType": "uint256",
							"name": "amount",
							"type": "uint256"
						}
					],
					"name": "InvoiceCreated",
					"type": "event"
				},
				{
					"anonymous": false,
					"inputs": [
						{
							"indexed": true,
							"internalType": "uint256",
							"name": "id",
							"type": "uint256"
						},
						{
							"indexed": false,
							"internalType": "enum Invoicing.InvoiceStatus",
							"name": "status",
							"type": "uint8"
						}
					],
					"name": "InvoiceStatusChanged",
					"type": "event"
				},
				{
					"anonymous": false,
					"inputs": [
						{
							"indexed": true,
							"internalType": "address",
							"name": "previousOwner",
							"type": "address"
						},
						{
							"indexed": true,
							"internalType": "address",
							"name": "newOwner",
							"type": "address"
						}
					],
					"name": "OwnershipTransferred",
					"type": "event"
				},
				{
					"inputs": [
						{
							"internalType": "uint256",
							"name": "_invoiceId",
							"type": "uint256"
						}
					],
					"name": "approveInvoice",
					"outputs": [],
					"stateMutability": "nonpayable",
					"type": "function"
				},
				{
					"inputs": [
						{
							"internalType": "string",
							"name": "_desc",
							"type": "string"
						},
						{
							"internalType": "uint256",
							"name": "_amount",
							"type": "uint256"
						}
					],
					"name": "createInvoice",
					"outputs": [],
					"stateMutability": "nonpayable",
					"type": "function"
				},
				{
					"inputs": [],
					"name": "invoiceCounter",
					"outputs": [
						{
							"internalType": "uint256",
							"name": "",
							"type": "uint256"
						}
					],
					"stateMutability": "view",
					"type": "function"
				},
				{
					"inputs": [
						{
							"internalType": "uint256",
							"name": "",
							"type": "uint256"
						}
					],
					"name": "invoices",
					"outputs": [
						{
							"internalType": "uint256",
							"name": "id",
							"type": "uint256"
						},
						{
							"internalType": "string",
							"name": "description",
							"type": "string"
						},
						{
							"internalType": "uint256",
							"name": "amount",
							"type": "uint256"
						},
						{
							"internalType": "enum Invoicing.InvoiceStatus",
							"name": "status",
							"type": "uint8"
						}
					],
					"stateMutability": "view",
					"type": "function"
				},
				{
					"inputs": [],
					"name": "owner",
					"outputs": [
						{
							"internalType": "address",
							"name": "",
							"type": "address"
						}
					],
					"stateMutability": "view",
					"type": "function"
				},
				{
					"inputs": [
						{
							"internalType": "uint256",
							"name": "_invoiceId",
							"type": "uint256"
						}
					],
					"name": "rejectInvoice",
					"outputs": [],
					"stateMutability": "nonpayable",
					"type": "function"
				},
				{
					"inputs": [],
					"name": "renounceOwnership",
					"outputs": [],
					"stateMutability": "nonpayable",
					"type": "function"
				},
				{
					"inputs": [
						{
							"internalType": "address",
							"name": "newOwner",
							"type": "address"
						}
					],
					"name": "transferOwnership",
					"outputs": [],
					"stateMutability": "nonpayable",
					"type": "function"
				}
			],
			"devdoc": {
				"errors": {
					"OwnableInvalidOwner(address)": [
						{
							"details": "The owner is not a valid owner account. (eg. `address(0)`)"
						}
					],
					"OwnableUnauthorizedAccount(address)": [
						{
							"details": "The caller account is not authorized to perform an operation."
						}
					]
				},
				"kind": "dev",
				"methods": {
					"approveInvoice(uint256)": {
						"details": "Can only be called by the owner (the Project contract)."
					},
					"createInvoice(string,uint256)": {
						"details": "Should be callable only by the freelancer of the project. This would require      passing the freelancer's address to the constructor and adding a modifier.",
						"params": {
							"_amount": "The amount requested for this milestone.",
							"_desc": "A description of the work completed for the invoice."
						}
					},
					"owner()": {
						"details": "Returns the address of the current owner."
					},
					"renounceOwnership()": {
						"details": "Leaves the contract without owner. It will not be possible to call `onlyOwner` functions. Can only be called by the current owner. NOTE: Renouncing ownership will leave the contract without an owner, thereby disabling any functionality that is only available to the owner."
					},
					"transferOwnership(address)": {
						"details": "Transfers ownership of the contract to a new account (`newOwner`). Can only be called by the current owner."
					}
				},
				"version": 1
			},
			"evm": {
				"assembly": "    /* \"contracts/utils/Invoicing.sol\":164:2356  contract Invoicing is Ownable {... */\n  mstore(0x40, 0x80)\n    /* \"contracts/utils/Invoicing.sol\":631:697  constructor(address _projectContract) Ownable(_projectContract) {} */\n  callvalue\n  dup1\n  iszero\n  tag_1\n  jumpi\n  revert(0x00, 0x00)\ntag_1:\n  pop\n  mload(0x40)\n  sub(codesize, bytecodeSize)\n  dup1\n  bytecodeSize\n  dup4\n  codecopy\n  dup2\n  dup2\n  add\n  0x40\n  mstore\n  dup2\n  add\n  swap1\n  tag_2\n  swap2\n  swap1\n  tag_3\n  jump\t// in\ntag_2:\n    /* \"contracts/utils/Invoicing.sol\":677:693  _projectContract */\n  dup1\n    /* \"@openzeppelin/contracts/access/Ownable.sol\":1297:1298  0 */\n  0x00\n    /* \"@openzeppelin/contracts/access/Ownable.sol\":1273:1299  initialOwner == address(0) */\n  0xffffffffffffffffffffffffffffffffffffffff\n  and\n    /* \"@openzeppelin/contracts/access/Ownable.sol\":1273:1285  initialOwner */\n  dup2\n    /* \"@openzeppelin/contracts/access/Ownable.sol\":1273:1299  initialOwner == address(0) */\n  0xffffffffffffffffffffffffffffffffffffffff\n  and\n  sub\n    /* \"@openzeppelin/contracts/access/Ownable.sol\":1269:1364  if (initialOwner == address(0)) {... */\n  tag_7\n  jumpi\n    /* \"@openzeppelin/contracts/access/Ownable.sol\":1350:1351  0 */\n  0x00\n    /* \"@openzeppelin/contracts/access/Ownable.sol\":1322:1353  OwnableInvalidOwner(address(0)) */\n  mload(0x40)\n  0x1e4fbdf700000000000000000000000000000000000000000000000000000000\n  dup2\n  mstore\n  0x04\n  add\n  tag_8\n  swap2\n  swap1\n  tag_9\n  jump\t// in\ntag_8:\n  mload(0x40)\n  dup1\n  swap2\n  sub\n  swap1\n  revert\n    /* \"@openzeppelin/contracts/access/Ownable.sol\":1269:1364  if (initialOwner == address(0)) {... */\ntag_7:\n    /* \"@openzeppelin/contracts/access/Ownable.sol\":1373:1405  _transferOwnership(initialOwner) */\n  tag_10\n    /* \"@openzeppelin/contracts/access/Ownable.sol\":1392:1404  initialOwner */\n  dup2\n    /* \"@openzeppelin/contracts/access/Ownable.sol\":1373:1391  _transferOwnership */\n  shl(0x20, tag_11)\n    /* \"@openzeppelin/contracts/access/Ownable.sol\":1373:1405  _transferOwnership(initialOwner) */\n  0x20\n  shr\n  jump\t// in\ntag_10:\n    /* \"@openzeppelin/contracts/access/Ownable.sol\":1225:1412  constructor(address initialOwner) {... */\n  pop\n    /* \"contracts/utils/Invoicing.sol\":631:697  constructor(address _projectContract) Ownable(_projectContract) {} */\n  pop\n    /* \"contracts/utils/Invoicing.sol\":164:2356  contract Invoicing is Ownable {... */\n  jump(tag_13)\n    /* \"@openzeppelin/contracts/access/Ownable.sol\":2912:3099  function _transferOwnership(address newOwner) internal virtual {... */\ntag_11:\n    /* \"@openzeppelin/contracts/access/Ownable.sol\":2985:3001  address oldOwner */\n  0x00\n    /* \"@openzeppelin/contracts/access/Ownable.sol\":3004:3010  _owner */\n  0x00\n  0x00\n  swap1\n  sload\n  swap1\n  0x0100\n  exp\n  swap1\n  div\n  0xffffffffffffffffffffffffffffffffffffffff\n  and\n    /* \"@openzeppelin/contracts/access/Ownable.sol\":2985:3010  address oldOwner = _owner */\n  swap1\n  pop\n    /* \"@openzeppelin/contracts/access/Ownable.sol\":3029:3037  newOwner */\n  dup2\n    /* \"@openzeppelin/contracts/access/Ownable.sol\":3020:3026  _owner */\n  0x00\n  0x00\n    /* \"@openzeppelin/contracts/access/Ownable.sol\":3020:3037  _owner = newOwner */\n  0x0100\n  exp\n  dup2\n  sload\n  dup2\n  0xffffffffffffffffffffffffffffffffffffffff\n  mul\n  not\n  and\n  swap1\n  dup4\n  0xffffffffffffffffffffffffffffffffffffffff\n  and\n  mul\n  or\n  swap1\n  sstore\n  pop\n    /* \"@openzeppelin/contracts/access/Ownable.sol\":3083:3091  newOwner */\n  dup2\n    /* \"@openzeppelin/contracts/access/Ownable.sol\":3052:3092  OwnershipTransferred(oldOwner, newOwner) */\n  0xffffffffffffffffffffffffffffffffffffffff\n  and\n    /* \"@openzeppelin/contracts/access/Ownable.sol\":3073:3081  oldOwner */\n  dup2\n    /* \"@openzeppelin/contracts/access/Ownable.sol\":3052:3092  OwnershipTransferred(oldOwner, newOwner) */\n  0xffffffffffffffffffffffffffffffffffffffff\n  and\n  0x8be0079c531659141344cd1fd0a4f28419497f9722a3daafe3b4186f6b6457e0\n  mload(0x40)\n  mload(0x40)\n  dup1\n  swap2\n  sub\n  swap1\n  log3\n    /* \"@openzeppelin/contracts/access/Ownable.sol\":2975:3099  {... */\n  pop\n    /* \"@openzeppelin/contracts/access/Ownable.sol\":2912:3099  function _transferOwnership(address newOwner) internal virtual {... */\n  pop\n  jump\t// out\n    /* \"#utility.yul\":88:205   */\ntag_16:\n    /* \"#utility.yul\":197:198   */\n  0x00\n    /* \"#utility.yul\":194:195   */\n  0x00\n    /* \"#utility.yul\":187:199   */\n  revert\n    /* \"#utility.yul\":334:460   */\ntag_18:\n    /* \"#utility.yul\":371:378   */\n  0x00\n    /* \"#utility.yul\":411:453   */\n  0xffffffffffffffffffffffffffffffffffffffff\n    /* \"#utility.yul\":404:409   */\n  dup3\n    /* \"#utility.yul\":400:454   */\n  and\n    /* \"#utility.yul\":389:454   */\n  swap1\n  pop\n    /* \"#utility.yul\":334:460   */\n  swap2\n  swap1\n  pop\n  jump\t// out\n    /* \"#utility.yul\":466:562   */\ntag_19:\n    /* \"#utility.yul\":503:510   */\n  0x00\n    /* \"#utility.yul\":532:556   */\n  tag_29\n    /* \"#utility.yul\":550:555   */\n  dup3\n    /* \"#utility.yul\":532:556   */\n  tag_18\n  jump\t// in\ntag_29:\n    /* \"#utility.yul\":521:556   */\n  swap1\n  pop\n    /* \"#utility.yul\":466:562   */\n  swap2\n  swap1\n  pop\n  jump\t// out\n    /* \"#utility.yul\":568:690   */\ntag_20:\n    /* \"#utility.yul\":641:665   */\n  tag_31\n    /* \"#utility.yul\":659:664   */\n  dup2\n    /* \"#utility.yul\":641:665   */\n  tag_19\n  jump\t// in\ntag_31:\n    /* \"#utility.yul\":634:639   */\n  dup2\n    /* \"#utility.yul\":631:666   */\n  eq\n    /* \"#utility.yul\":621:684   */\n  tag_32\n  jumpi\n    /* \"#utility.yul\":680:681   */\n  0x00\n    /* \"#utility.yul\":677:678   */\n  0x00\n    /* \"#utility.yul\":670:682   */\n  revert\n    /* \"#utility.yul\":621:684   */\ntag_32:\n    /* \"#utility.yul\":568:690   */\n  pop\n  jump\t// out\n    /* \"#utility.yul\":696:839   */\ntag_21:\n    /* \"#utility.yul\":753:758   */\n  0x00\n    /* \"#utility.yul\":784:790   */\n  dup2\n    /* \"#utility.yul\":778:791   */\n  mload\n    /* \"#utility.yul\":769:791   */\n  swap1\n  pop\n    /* \"#utility.yul\":800:833   */\n  tag_34\n    /* \"#utility.yul\":827:832   */\n  dup2\n    /* \"#utility.yul\":800:833   */\n  tag_20\n  jump\t// in\ntag_34:\n    /* \"#utility.yul\":696:839   */\n  swap3\n  swap2\n  pop\n  pop\n  jump\t// out\n    /* \"#utility.yul\":845:1196   */\ntag_3:\n    /* \"#utility.yul\":915:921   */\n  0x00\n    /* \"#utility.yul\":964:966   */\n  0x20\n    /* \"#utility.yul\":952:961   */\n  dup3\n    /* \"#utility.yul\":943:950   */\n  dup5\n    /* \"#utility.yul\":939:962   */\n  sub\n    /* \"#utility.yul\":935:967   */\n  slt\n    /* \"#utility.yul\":932:1051   */\n  iszero\n  tag_36\n  jumpi\n    /* \"#utility.yul\":970:1049   */\n  tag_37\n  tag_16\n  jump\t// in\ntag_37:\n    /* \"#utility.yul\":932:1051   */\ntag_36:\n    /* \"#utility.yul\":1090:1091   */\n  0x00\n    /* \"#utility.yul\":1115:1179   */\n  tag_38\n    /* \"#utility.yul\":1171:1178   */\n  dup5\n    /* \"#utility.yul\":1162:1168   */\n  dup3\n    /* \"#utility.yul\":1151:1160   */\n  dup6\n    /* \"#utility.yul\":1147:1169   */\n  add\n    /* \"#utility.yul\":1115:1179   */\n  tag_21\n  jump\t// in\ntag_38:\n    /* \"#utility.yul\":1105:1179   */\n  swap2\n  pop\n    /* \"#utility.yul\":1061:1189   */\n  pop\n    /* \"#utility.yul\":845:1196   */\n  swap3\n  swap2\n  pop\n  pop\n  jump\t// out\n    /* \"#utility.yul\":1202:1320   */\ntag_22:\n    /* \"#utility.yul\":1289:1313   */\n  tag_40\n    /* \"#utility.yul\":1307:1312   */\n  dup2\n    /* \"#utility.yul\":1289:1313   */\n  tag_19\n  jump\t// in\ntag_40:\n    /* \"#utility.yul\":1284:1287   */\n  dup3\n    /* \"#utility.yul\":1277:1314   */\n  mstore\n    /* \"#utility.yul\":1202:1320   */\n  pop\n  pop\n  jump\t// out\n    /* \"#utility.yul\":1326:1548   */\ntag_9:\n    /* \"#utility.yul\":1419:1423   */\n  0x00\n    /* \"#utility.yul\":1457:1459   */\n  0x20\n    /* \"#utility.yul\":1446:1455   */\n  dup3\n    /* \"#utility.yul\":1442:1460   */\n  add\n    /* \"#utility.yul\":1434:1460   */\n  swap1\n  pop\n    /* \"#utility.yul\":1470:1541   */\n  tag_42\n    /* \"#utility.yul\":1538:1539   */\n  0x00\n    /* \"#utility.yul\":1527:1536   */\n  dup4\n    /* \"#utility.yul\":1523:1540   */\n  add\n    /* \"#utility.yul\":1514:1520   */\n  dup5\n    /* \"#utility.yul\":1470:1541   */\n  tag_22\n  jump\t// in\ntag_42:\n    /* \"#utility.yul\":1326:1548   */\n  swap3\n  swap2\n  pop\n  pop\n  jump\t// out\n    /* \"contracts/utils/Invoicing.sol\":164:2356  contract Invoicing is Ownable {... */\ntag_13:\n  dataSize(sub_0)\n  dup1\n  dataOffset(sub_0)\n  0x00\n  codecopy\n  0x00\n  return\nstop\n\nsub_0: assembly {\n        /* \"contracts/utils/Invoicing.sol\":164:2356  contract Invoicing is Ownable {... */\n      mstore(0x40, 0x80)\n      callvalue\n      dup1\n      iszero\n      tag_1\n      jumpi\n      revert(0x00, 0x00)\n    tag_1:\n      pop\n      jumpi(tag_2, lt(calldatasize, 0x04))\n      shr(0xe0, calldataload(0x00))\n      dup1\n      0xa57b381c\n      gt\n      tag_11\n      jumpi\n      dup1\n      0xa57b381c\n      eq\n      tag_7\n      jumpi\n      dup1\n      0xb32413b7\n      eq\n      tag_8\n      jumpi\n      dup1\n      0xd4280d5a\n      eq\n      tag_9\n      jumpi\n      dup1\n      0xf2fde38b\n      eq\n      tag_10\n      jumpi\n      jump(tag_2)\n    tag_11:\n      dup1\n      0x0f9a715e\n      eq\n      tag_3\n      jumpi\n      dup1\n      0x4e6d1405\n      eq\n      tag_4\n      jumpi\n      dup1\n      0x715018a6\n      eq\n      tag_5\n      jumpi\n      dup1\n      0x8da5cb5b\n      eq\n      tag_6\n      jumpi\n    tag_2:\n      revert(0x00, 0x00)\n        /* \"contracts/utils/Invoicing.sol\":2014:2353  function rejectInvoice(uint _invoiceId) external onlyOwner {... */\n    tag_3:\n      tag_12\n      0x04\n      dup1\n      calldatasize\n      sub\n      dup2\n      add\n      swap1\n      tag_13\n      swap2\n      swap1\n      tag_14\n      jump\t// in\n    tag_13:\n      tag_15\n      jump\t// in\n    tag_12:\n      stop\n        /* \"contracts/utils/Invoicing.sol\":394:434  mapping(uint => Invoice) public invoices */\n    tag_4:\n      tag_16\n      0x04\n      dup1\n      calldatasize\n      sub\n      dup2\n      add\n      swap1\n      tag_17\n      swap2\n      swap1\n      tag_14\n      jump\t// in\n    tag_17:\n      tag_18\n      jump\t// in\n    tag_16:\n      mload(0x40)\n      tag_19\n      swap5\n      swap4\n      swap3\n      swap2\n      swap1\n      tag_20\n      jump\t// in\n    tag_19:\n      mload(0x40)\n      dup1\n      swap2\n      sub\n      swap1\n      return\n        /* \"@openzeppelin/contracts/access/Ownable.sol\":2293:2394  function renounceOwnership() public virtual onlyOwner {... */\n    tag_5:\n      tag_21\n      tag_22\n      jump\t// in\n    tag_21:\n      stop\n        /* \"@openzeppelin/contracts/access/Ownable.sol\":1638:1723  function owner() public view virtual returns (address) {... */\n    tag_6:\n      tag_23\n      tag_24\n      jump\t// in\n    tag_23:\n      mload(0x40)\n      tag_25\n      swap2\n      swap1\n      tag_26\n      jump\t// in\n    tag_25:\n      mload(0x40)\n      dup1\n      swap2\n      sub\n      swap1\n      return\n        /* \"contracts/utils/Invoicing.sol\":441:467  uint public invoiceCounter */\n    tag_7:\n      tag_27\n      tag_28\n      jump\t// in\n    tag_27:\n      mload(0x40)\n      tag_29\n      swap2\n      swap1\n      tag_30\n      jump\t// in\n    tag_29:\n      mload(0x40)\n      dup1\n      swap2\n      sub\n      swap1\n      return\n        /* \"contracts/utils/Invoicing.sol\":1573:2006  function approveInvoice(uint _invoiceId) external onlyOwner {... */\n    tag_8:\n      tag_31\n      0x04\n      dup1\n      calldatasize\n      sub\n      dup2\n      add\n      swap1\n      tag_32\n      swap2\n      swap1\n      tag_14\n      jump\t// in\n    tag_32:\n      tag_33\n      jump\t// in\n    tag_31:\n      stop\n        /* \"contracts/utils/Invoicing.sol\":1102:1434  function createInvoice(string memory _desc, uint _amount) external {... */\n    tag_9:\n      tag_34\n      0x04\n      dup1\n      calldatasize\n      sub\n      dup2\n      add\n      swap1\n      tag_35\n      swap2\n      swap1\n      tag_36\n      jump\t// in\n    tag_35:\n      tag_37\n      jump\t// in\n    tag_34:\n      stop\n        /* \"@openzeppelin/contracts/access/Ownable.sol\":2543:2758  function transferOwnership(address newOwner) public virtual onlyOwner {... */\n    tag_10:\n      tag_38\n      0x04\n      dup1\n      calldatasize\n      sub\n      dup2\n      add\n      swap1\n      tag_39\n      swap2\n      swap1\n      tag_40\n      jump\t// in\n    tag_39:\n      tag_41\n      jump\t// in\n    tag_38:\n      stop\n        /* \"contracts/utils/Invoicing.sol\":2014:2353  function rejectInvoice(uint _invoiceId) external onlyOwner {... */\n    tag_15:\n        /* \"@openzeppelin/contracts/access/Ownable.sol\":1531:1544  _checkOwner() */\n      tag_43\n        /* \"@openzeppelin/contracts/access/Ownable.sol\":1531:1542  _checkOwner */\n      tag_44\n        /* \"@openzeppelin/contracts/access/Ownable.sol\":1531:1544  _checkOwner() */\n      jump\t// in\n    tag_43:\n        /* \"contracts/utils/Invoicing.sol\":2084:2107  Invoice storage invoice */\n      0x00\n        /* \"contracts/utils/Invoicing.sol\":2110:2118  invoices */\n      0x01\n        /* \"contracts/utils/Invoicing.sol\":2110:2130  invoices[_invoiceId] */\n      0x00\n        /* \"contracts/utils/Invoicing.sol\":2119:2129  _invoiceId */\n      dup4\n        /* \"contracts/utils/Invoicing.sol\":2110:2130  invoices[_invoiceId] */\n      dup2\n      mstore\n      0x20\n      add\n      swap1\n      dup2\n      mstore\n      0x20\n      add\n      0x00\n      keccak256\n        /* \"contracts/utils/Invoicing.sol\":2084:2130  Invoice storage invoice = invoices[_invoiceId] */\n      swap1\n      pop\n        /* \"contracts/utils/Invoicing.sol\":2167:2188  InvoiceStatus.Pending */\n      0x00\n        /* \"contracts/utils/Invoicing.sol\":2149:2188  invoice.status == InvoiceStatus.Pending */\n      0x02\n      dup2\n      gt\n      iszero\n      tag_46\n      jumpi\n      tag_47\n      tag_48\n      jump\t// in\n    tag_47:\n    tag_46:\n        /* \"contracts/utils/Invoicing.sol\":2149:2156  invoice */\n      dup2\n        /* \"contracts/utils/Invoicing.sol\":2149:2163  invoice.status */\n      0x03\n      add\n      0x00\n      swap1\n      sload\n      swap1\n      0x0100\n      exp\n      swap1\n      div\n      0xff\n      and\n        /* \"contracts/utils/Invoicing.sol\":2149:2188  invoice.status == InvoiceStatus.Pending */\n      0x02\n      dup2\n      gt\n      iszero\n      tag_49\n      jumpi\n      tag_50\n      tag_48\n      jump\t// in\n    tag_50:\n    tag_49:\n      eq\n        /* \"contracts/utils/Invoicing.sol\":2141:2223  require(invoice.status == InvoiceStatus.Pending, \"Invoicing: Invoice not pending\") */\n      tag_51\n      jumpi\n      mload(0x40)\n      0x08c379a000000000000000000000000000000000000000000000000000000000\n      dup2\n      mstore\n      0x04\n      add\n      tag_52\n      swap1\n      tag_53\n      jump\t// in\n    tag_52:\n      mload(0x40)\n      dup1\n      swap2\n      sub\n      swap1\n      revert\n    tag_51:\n        /* \"contracts/utils/Invoicing.sol\":2251:2273  InvoiceStatus.Rejected */\n      0x02\n        /* \"contracts/utils/Invoicing.sol\":2234:2241  invoice */\n      dup2\n        /* \"contracts/utils/Invoicing.sol\":2234:2248  invoice.status */\n      0x03\n      add\n      0x00\n        /* \"contracts/utils/Invoicing.sol\":2234:2273  invoice.status = InvoiceStatus.Rejected */\n      0x0100\n      exp\n      dup2\n      sload\n      dup2\n      0xff\n      mul\n      not\n      and\n      swap1\n      dup4\n      0x02\n      dup2\n      gt\n      iszero\n      tag_54\n      jumpi\n      tag_55\n      tag_48\n      jump\t// in\n    tag_55:\n    tag_54:\n      mul\n      or\n      swap1\n      sstore\n      pop\n        /* \"contracts/utils/Invoicing.sol\":2310:2320  _invoiceId */\n      dup2\n        /* \"contracts/utils/Invoicing.sol\":2289:2345  InvoiceStatusChanged(_invoiceId, InvoiceStatus.Rejected) */\n      0x63186546e41a4082c1fa29562d179c8a9f175e2136c3f5f39504f67117f781fb\n        /* \"contracts/utils/Invoicing.sol\":2322:2344  InvoiceStatus.Rejected */\n      0x02\n        /* \"contracts/utils/Invoicing.sol\":2289:2345  InvoiceStatusChanged(_invoiceId, InvoiceStatus.Rejected) */\n      mload(0x40)\n      tag_56\n      swap2\n      swap1\n      tag_57\n      jump\t// in\n    tag_56:\n      mload(0x40)\n      dup1\n      swap2\n      sub\n      swap1\n      log2\n        /* \"contracts/utils/Invoicing.sol\":2073:2353  {... */\n      pop\n        /* \"contracts/utils/Invoicing.sol\":2014:2353  function rejectInvoice(uint _invoiceId) external onlyOwner {... */\n      pop\n      jump\t// out\n        /* \"contracts/utils/Invoicing.sol\":394:434  mapping(uint => Invoice) public invoices */\n    tag_18:\n      mstore(0x20, 0x01)\n      dup1\n      0x00\n      mstore\n      keccak256(0x00, 0x40)\n      0x00\n      swap2\n      pop\n      swap1\n      pop\n      dup1\n      0x00\n      add\n      sload\n      swap1\n      dup1\n      0x01\n      add\n      dup1\n      sload\n      tag_58\n      swap1\n      tag_59\n      jump\t// in\n    tag_58:\n      dup1\n      0x1f\n      add\n      0x20\n      dup1\n      swap2\n      div\n      mul\n      0x20\n      add\n      mload(0x40)\n      swap1\n      dup2\n      add\n      0x40\n      mstore\n      dup1\n      swap3\n      swap2\n      swap1\n      dup2\n      dup2\n      mstore\n      0x20\n      add\n      dup3\n      dup1\n      sload\n      tag_60\n      swap1\n      tag_59\n      jump\t// in\n    tag_60:\n      dup1\n      iszero\n      tag_61\n      jumpi\n      dup1\n      0x1f\n      lt\n      tag_62\n      jumpi\n      0x0100\n      dup1\n      dup4\n      sload\n      div\n      mul\n      dup4\n      mstore\n      swap2\n      0x20\n      add\n      swap2\n      jump(tag_61)\n    tag_62:\n      dup3\n      add\n      swap2\n      swap1\n      0x00\n      mstore\n      keccak256(0x00, 0x20)\n      swap1\n    tag_63:\n      dup2\n      sload\n      dup2\n      mstore\n      swap1\n      0x01\n      add\n      swap1\n      0x20\n      add\n      dup1\n      dup4\n      gt\n      tag_63\n      jumpi\n      dup3\n      swap1\n      sub\n      0x1f\n      and\n      dup3\n      add\n      swap2\n    tag_61:\n      pop\n      pop\n      pop\n      pop\n      pop\n      swap1\n      dup1\n      0x02\n      add\n      sload\n      swap1\n      dup1\n      0x03\n      add\n      0x00\n      swap1\n      sload\n      swap1\n      0x0100\n      exp\n      swap1\n      div\n      0xff\n      and\n      swap1\n      pop\n      dup5\n      jump\t// out\n        /* \"@openzeppelin/contracts/access/Ownable.sol\":2293:2394  function renounceOwnership() public virtual onlyOwner {... */\n    tag_22:\n        /* \"@openzeppelin/contracts/access/Ownable.sol\":1531:1544  _checkOwner() */\n      tag_65\n        /* \"@openzeppelin/contracts/access/Ownable.sol\":1531:1542  _checkOwner */\n      tag_44\n        /* \"@openzeppelin/contracts/access/Ownable.sol\":1531:1544  _checkOwner() */\n      jump\t// in\n    tag_65:\n        /* \"@openzeppelin/contracts/access/Ownable.sol\":2357:2387  _transferOwnership(address(0)) */\n      tag_67\n        /* \"@openzeppelin/contracts/access/Ownable.sol\":2384:2385  0 */\n      0x00\n        /* \"@openzeppelin/contracts/access/Ownable.sol\":2357:2375  _transferOwnership */\n      tag_68\n        /* \"@openzeppelin/contracts/access/Ownable.sol\":2357:2387  _transferOwnership(address(0)) */\n      jump\t// in\n    tag_67:\n        /* \"@openzeppelin/contracts/access/Ownable.sol\":2293:2394  function renounceOwnership() public virtual onlyOwner {... */\n      jump\t// out\n        /* \"@openzeppelin/contracts/access/Ownable.sol\":1638:1723  function owner() public view virtual returns (address) {... */\n    tag_24:\n        /* \"@openzeppelin/contracts/access/Ownable.sol\":1684:1691  address */\n      0x00\n        /* \"@openzeppelin/contracts/access/Ownable.sol\":1710:1716  _owner */\n      0x00\n      0x00\n      swap1\n      sload\n      swap1\n      0x0100\n      exp\n      swap1\n      div\n      0xffffffffffffffffffffffffffffffffffffffff\n      and\n        /* \"@openzeppelin/contracts/access/Ownable.sol\":1703:1716  return _owner */\n      swap1\n      pop\n        /* \"@openzeppelin/contracts/access/Ownable.sol\":1638:1723  function owner() public view virtual returns (address) {... */\n      swap1\n      jump\t// out\n        /* \"contracts/utils/Invoicing.sol\":441:467  uint public invoiceCounter */\n    tag_28:\n      sload(0x02)\n      dup2\n      jump\t// out\n        /* \"contracts/utils/Invoicing.sol\":1573:2006  function approveInvoice(uint _invoiceId) external onlyOwner {... */\n    tag_33:\n        /* \"@openzeppelin/contracts/access/Ownable.sol\":1531:1544  _checkOwner() */\n      tag_71\n        /* \"@openzeppelin/contracts/access/Ownable.sol\":1531:1542  _checkOwner */\n      tag_44\n        /* \"@openzeppelin/contracts/access/Ownable.sol\":1531:1544  _checkOwner() */\n      jump\t// in\n    tag_71:\n        /* \"contracts/utils/Invoicing.sol\":1644:1667  Invoice storage invoice */\n      0x00\n        /* \"contracts/utils/Invoicing.sol\":1670:1678  invoices */\n      0x01\n        /* \"contracts/utils/Invoicing.sol\":1670:1690  invoices[_invoiceId] */\n      0x00\n        /* \"contracts/utils/Invoicing.sol\":1679:1689  _invoiceId */\n      dup4\n        /* \"contracts/utils/Invoicing.sol\":1670:1690  invoices[_invoiceId] */\n      dup2\n      mstore\n      0x20\n      add\n      swap1\n      dup2\n      mstore\n      0x20\n      add\n      0x00\n      keccak256\n        /* \"contracts/utils/Invoicing.sol\":1644:1690  Invoice storage invoice = invoices[_invoiceId] */\n      swap1\n      pop\n        /* \"contracts/utils/Invoicing.sol\":1727:1748  InvoiceStatus.Pending */\n      0x00\n        /* \"contracts/utils/Invoicing.sol\":1709:1748  invoice.status == InvoiceStatus.Pending */\n      0x02\n      dup2\n      gt\n      iszero\n      tag_73\n      jumpi\n      tag_74\n      tag_48\n      jump\t// in\n    tag_74:\n    tag_73:\n        /* \"contracts/utils/Invoicing.sol\":1709:1716  invoice */\n      dup2\n        /* \"contracts/utils/Invoicing.sol\":1709:1723  invoice.status */\n      0x03\n      add\n      0x00\n      swap1\n      sload\n      swap1\n      0x0100\n      exp\n      swap1\n      div\n      0xff\n      and\n        /* \"contracts/utils/Invoicing.sol\":1709:1748  invoice.status == InvoiceStatus.Pending */\n      0x02\n      dup2\n      gt\n      iszero\n      tag_75\n      jumpi\n      tag_76\n      tag_48\n      jump\t// in\n    tag_76:\n    tag_75:\n      eq\n        /* \"contracts/utils/Invoicing.sol\":1701:1783  require(invoice.status == InvoiceStatus.Pending, \"Invoicing: Invoice not pending\") */\n      tag_77\n      jumpi\n      mload(0x40)\n      0x08c379a000000000000000000000000000000000000000000000000000000000\n      dup2\n      mstore\n      0x04\n      add\n      tag_78\n      swap1\n      tag_53\n      jump\t// in\n    tag_78:\n      mload(0x40)\n      dup1\n      swap2\n      sub\n      swap1\n      revert\n    tag_77:\n        /* \"contracts/utils/Invoicing.sol\":1811:1833  InvoiceStatus.Approved */\n      0x01\n        /* \"contracts/utils/Invoicing.sol\":1794:1801  invoice */\n      dup2\n        /* \"contracts/utils/Invoicing.sol\":1794:1808  invoice.status */\n      0x03\n      add\n      0x00\n        /* \"contracts/utils/Invoicing.sol\":1794:1833  invoice.status = InvoiceStatus.Approved */\n      0x0100\n      exp\n      dup2\n      sload\n      dup2\n      0xff\n      mul\n      not\n      and\n      swap1\n      dup4\n      0x02\n      dup2\n      gt\n      iszero\n      tag_79\n      jumpi\n      tag_80\n      tag_48\n      jump\t// in\n    tag_80:\n    tag_79:\n      mul\n      or\n      swap1\n      sstore\n      pop\n        /* \"contracts/utils/Invoicing.sol\":1963:1973  _invoiceId */\n      dup2\n        /* \"contracts/utils/Invoicing.sol\":1942:1998  InvoiceStatusChanged(_invoiceId, InvoiceStatus.Approved) */\n      0x63186546e41a4082c1fa29562d179c8a9f175e2136c3f5f39504f67117f781fb\n        /* \"contracts/utils/Invoicing.sol\":1975:1997  InvoiceStatus.Approved */\n      0x01\n        /* \"contracts/utils/Invoicing.sol\":1942:1998  InvoiceStatusChanged(_invoiceId, InvoiceStatus.Approved) */\n      mload(0x40)\n      tag_81\n      swap2\n      swap1\n      tag_57\n      jump\t// in\n    tag_81:\n      mload(0x40)\n      dup1\n      swap2\n      sub\n      swap1\n      log2\n        /* \"contracts/utils/Invoicing.sol\":1633:2006  {... */\n      pop\n        /* \"contracts/utils/Invoicing.sol\":1573:2006  function approveInvoice(uint _invoiceId) external onlyOwner {... */\n      pop\n      jump\t// out\n        /* \"contracts/utils/Invoicing.sol\":1102:1434  function createInvoice(string memory _desc, uint _amount) external {... */\n    tag_37:\n        /* \"contracts/utils/Invoicing.sol\":1248:1262  invoiceCounter */\n      0x02\n      0x00\n        /* \"contracts/utils/Invoicing.sol\":1248:1264  invoiceCounter++ */\n      dup2\n      sload\n      dup1\n      swap3\n      swap2\n      swap1\n      tag_83\n      swap1\n      tag_84\n      jump\t// in\n    tag_83:\n      swap2\n      swap1\n      pop\n      sstore\n      pop\n        /* \"contracts/utils/Invoicing.sol\":1302:1364  Invoice(invoiceCounter, _desc, _amount, InvoiceStatus.Pending) */\n      mload(0x40)\n      dup1\n      0x80\n      add\n      0x40\n      mstore\n      dup1\n        /* \"contracts/utils/Invoicing.sol\":1310:1324  invoiceCounter */\n      sload(0x02)\n        /* \"contracts/utils/Invoicing.sol\":1302:1364  Invoice(invoiceCounter, _desc, _amount, InvoiceStatus.Pending) */\n      dup2\n      mstore\n      0x20\n      add\n        /* \"contracts/utils/Invoicing.sol\":1326:1331  _desc */\n      dup4\n        /* \"contracts/utils/Invoicing.sol\":1302:1364  Invoice(invoiceCounter, _desc, _amount, InvoiceStatus.Pending) */\n      dup2\n      mstore\n      0x20\n      add\n        /* \"contracts/utils/Invoicing.sol\":1333:1340  _amount */\n      dup3\n        /* \"contracts/utils/Invoicing.sol\":1302:1364  Invoice(invoiceCounter, _desc, _amount, InvoiceStatus.Pending) */\n      dup2\n      mstore\n      0x20\n      add\n        /* \"contracts/utils/Invoicing.sol\":1342:1363  InvoiceStatus.Pending */\n      0x00\n        /* \"contracts/utils/Invoicing.sol\":1302:1364  Invoice(invoiceCounter, _desc, _amount, InvoiceStatus.Pending) */\n      0x02\n      dup2\n      gt\n      iszero\n      tag_85\n      jumpi\n      tag_86\n      tag_48\n      jump\t// in\n    tag_86:\n    tag_85:\n      dup2\n      mstore\n      pop\n        /* \"contracts/utils/Invoicing.sol\":1275:1283  invoices */\n      0x01\n        /* \"contracts/utils/Invoicing.sol\":1275:1299  invoices[invoiceCounter] */\n      0x00\n        /* \"contracts/utils/Invoicing.sol\":1284:1298  invoiceCounter */\n      sload(0x02)\n        /* \"contracts/utils/Invoicing.sol\":1275:1299  invoices[invoiceCounter] */\n      dup2\n      mstore\n      0x20\n      add\n      swap1\n      dup2\n      mstore\n      0x20\n      add\n      0x00\n      keccak256\n        /* \"contracts/utils/Invoicing.sol\":1275:1364  invoices[invoiceCounter] = Invoice(invoiceCounter, _desc, _amount, InvoiceStatus.Pending) */\n      0x00\n      dup3\n      add\n      mload\n      dup2\n      0x00\n      add\n      sstore\n      0x20\n      dup3\n      add\n      mload\n      dup2\n      0x01\n      add\n      swap1\n      dup2\n      tag_87\n      swap2\n      swap1\n      tag_88\n      jump\t// in\n    tag_87:\n      pop\n      0x40\n      dup3\n      add\n      mload\n      dup2\n      0x02\n      add\n      sstore\n      0x60\n      dup3\n      add\n      mload\n      dup2\n      0x03\n      add\n      exp(0x0100, 0x00)\n      dup2\n      sload\n      dup2\n      0xff\n      mul\n      not\n      and\n      swap1\n      dup4\n      0x02\n      dup2\n      gt\n      iszero\n      tag_89\n      jumpi\n      tag_90\n      tag_48\n      jump\t// in\n    tag_90:\n    tag_89:\n      mul\n      or\n      swap1\n      sstore\n      pop\n      swap1\n      pop\n      pop\n        /* \"contracts/utils/Invoicing.sol\":1395:1409  invoiceCounter */\n      sload(0x02)\n        /* \"contracts/utils/Invoicing.sol\":1380:1426  InvoiceCreated(invoiceCounter, _desc, _amount) */\n      0x7a7ddaccb026ceb5b95e8c35cacf01335336c5be6e99ba75ad63bcf811824d38\n        /* \"contracts/utils/Invoicing.sol\":1411:1416  _desc */\n      dup4\n        /* \"contracts/utils/Invoicing.sol\":1418:1425  _amount */\n      dup4\n        /* \"contracts/utils/Invoicing.sol\":1380:1426  InvoiceCreated(invoiceCounter, _desc, _amount) */\n      mload(0x40)\n      tag_91\n      swap3\n      swap2\n      swap1\n      tag_92\n      jump\t// in\n    tag_91:\n      mload(0x40)\n      dup1\n      swap2\n      sub\n      swap1\n      log2\n        /* \"contracts/utils/Invoicing.sol\":1102:1434  function createInvoice(string memory _desc, uint _amount) external {... */\n      pop\n      pop\n      jump\t// out\n        /* \"@openzeppelin/contracts/access/Ownable.sol\":2543:2758  function transferOwnership(address newOwner) public virtual onlyOwner {... */\n    tag_41:\n        /* \"@openzeppelin/contracts/access/Ownable.sol\":1531:1544  _checkOwner() */\n      tag_94\n        /* \"@openzeppelin/contracts/access/Ownable.sol\":1531:1542  _checkOwner */\n      tag_44\n        /* \"@openzeppelin/contracts/access/Ownable.sol\":1531:1544  _checkOwner() */\n      jump\t// in\n    tag_94:\n        /* \"@openzeppelin/contracts/access/Ownable.sol\":2647:2648  0 */\n      0x00\n        /* \"@openzeppelin/contracts/access/Ownable.sol\":2627:2649  newOwner == address(0) */\n      0xffffffffffffffffffffffffffffffffffffffff\n      and\n        /* \"@openzeppelin/contracts/access/Ownable.sol\":2627:2635  newOwner */\n      dup2\n        /* \"@openzeppelin/contracts/access/Ownable.sol\":2627:2649  newOwner == address(0) */\n      0xffffffffffffffffffffffffffffffffffffffff\n      and\n      sub\n        /* \"@openzeppelin/contracts/access/Ownable.sol\":2623:2714  if (newOwner == address(0)) {... */\n      tag_96\n      jumpi\n        /* \"@openzeppelin/contracts/access/Ownable.sol\":2700:2701  0 */\n      0x00\n        /* \"@openzeppelin/contracts/access/Ownable.sol\":2672:2703  OwnableInvalidOwner(address(0)) */\n      mload(0x40)\n      0x1e4fbdf700000000000000000000000000000000000000000000000000000000\n      dup2\n      mstore\n      0x04\n      add\n      tag_97\n      swap2\n      swap1\n      tag_26\n      jump\t// in\n    tag_97:\n      mload(0x40)\n      dup1\n      swap2\n      sub\n      swap1\n      revert\n        /* \"@openzeppelin/contracts/access/Ownable.sol\":2623:2714  if (newOwner == address(0)) {... */\n    tag_96:\n        /* \"@openzeppelin/contracts/access/Ownable.sol\":2723:2751  _transferOwnership(newOwner) */\n      tag_98\n        /* \"@openzeppelin/contracts/access/Ownable.sol\":2742:2750  newOwner */\n      dup2\n        /* \"@openzeppelin/contracts/access/Ownable.sol\":2723:2741  _transferOwnership */\n      tag_68\n        /* \"@openzeppelin/contracts/access/Ownable.sol\":2723:2751  _transferOwnership(newOwner) */\n      jump\t// in\n    tag_98:\n        /* \"@openzeppelin/contracts/access/Ownable.sol\":2543:2758  function transferOwnership(address newOwner) public virtual onlyOwner {... */\n      pop\n      jump\t// out\n        /* \"@openzeppelin/contracts/access/Ownable.sol\":1796:1958  function _checkOwner() internal view virtual {... */\n    tag_44:\n        /* \"@openzeppelin/contracts/access/Ownable.sol\":1866:1878  _msgSender() */\n      tag_100\n        /* \"@openzeppelin/contracts/access/Ownable.sol\":1866:1876  _msgSender */\n      tag_101\n        /* \"@openzeppelin/contracts/access/Ownable.sol\":1866:1878  _msgSender() */\n      jump\t// in\n    tag_100:\n        /* \"@openzeppelin/contracts/access/Ownable.sol\":1855:1878  owner() != _msgSender() */\n      0xffffffffffffffffffffffffffffffffffffffff\n      and\n        /* \"@openzeppelin/contracts/access/Ownable.sol\":1855:1862  owner() */\n      tag_102\n        /* \"@openzeppelin/contracts/access/Ownable.sol\":1855:1860  owner */\n      tag_24\n        /* \"@openzeppelin/contracts/access/Ownable.sol\":1855:1862  owner() */\n      jump\t// in\n    tag_102:\n        /* \"@openzeppelin/contracts/access/Ownable.sol\":1855:1878  owner() != _msgSender() */\n      0xffffffffffffffffffffffffffffffffffffffff\n      and\n      eq\n        /* \"@openzeppelin/contracts/access/Ownable.sol\":1851:1952  if (owner() != _msgSender()) {... */\n      tag_103\n      jumpi\n        /* \"@openzeppelin/contracts/access/Ownable.sol\":1928:1940  _msgSender() */\n      tag_104\n        /* \"@openzeppelin/contracts/access/Ownable.sol\":1928:1938  _msgSender */\n      tag_101\n        /* \"@openzeppelin/contracts/access/Ownable.sol\":1928:1940  _msgSender() */\n      jump\t// in\n    tag_104:\n        /* \"@openzeppelin/contracts/access/Ownable.sol\":1901:1941  OwnableUnauthorizedAccount(_msgSender()) */\n      mload(0x40)\n      0x118cdaa700000000000000000000000000000000000000000000000000000000\n      dup2\n      mstore\n      0x04\n      add\n      tag_105\n      swap2\n      swap1\n      tag_26\n      jump\t// in\n    tag_105:\n      mload(0x40)\n      dup1\n      swap2\n      sub\n      swap1\n      revert\n        /* \"@openzeppelin/contracts/access/Ownable.sol\":1851:1952  if (owner() != _msgSender()) {... */\n    tag_103:\n        /* \"@openzeppelin/contracts/access/Ownable.sol\":1796:1958  function _checkOwner() internal view virtual {... */\n      jump\t// out\n        /* \"@openzeppelin/contracts/access/Ownable.sol\":2912:3099  function _transferOwnership(address newOwner) internal virtual {... */\n    tag_68:\n        /* \"@openzeppelin/contracts/access/Ownable.sol\":2985:3001  address oldOwner */\n      0x00\n        /* \"@openzeppelin/contracts/access/Ownable.sol\":3004:3010  _owner */\n      0x00\n      0x00\n      swap1\n      sload\n      swap1\n      0x0100\n      exp\n      swap1\n      div\n      0xffffffffffffffffffffffffffffffffffffffff\n      and\n        /* \"@openzeppelin/contracts/access/Ownable.sol\":2985:3010  address oldOwner = _owner */\n      swap1\n      pop\n        /* \"@openzeppelin/contracts/access/Ownable.sol\":3029:3037  newOwner */\n      dup2\n        /* \"@openzeppelin/contracts/access/Ownable.sol\":3020:3026  _owner */\n      0x00\n      0x00\n        /* \"@openzeppelin/contracts/access/Ownable.sol\":3020:3037  _owner = newOwner */\n      0x0100\n      exp\n      dup2\n      sload\n      dup2\n      0xffffffffffffffffffffffffffffffffffffffff\n      mul\n      not\n      and\n      swap1\n      dup4\n      0xffffffffffffffffffffffffffffffffffffffff\n      and\n      mul\n      or\n      swap1\n      sstore\n      pop\n        /* \"@openzeppelin/contracts/access/Ownable.sol\":3083:3091  newOwner */\n      dup2\n        /* \"@openzeppelin/contracts/access/Ownable.sol\":3052:3092  OwnershipTransferred(oldOwner, newOwner) */\n      0xffffffffffffffffffffffffffffffffffffffff\n      and\n        /* \"@openzeppelin/contracts/access/Ownable.sol\":3073:3081  oldOwner */\n      dup2\n        /* \"@openzeppelin/contracts/access/Ownable.sol\":3052:3092  OwnershipTransferred(oldOwner, newOwner) */\n      0xffffffffffffffffffffffffffffffffffffffff\n      and\n      0x8be0079c531659141344cd1fd0a4f28419497f9722a3daafe3b4186f6b6457e0\n      mload(0x40)\n      mload(0x40)\n      dup1\n      swap2\n      sub\n      swap1\n      log3\n        /* \"@openzeppelin/contracts/access/Ownable.sol\":2975:3099  {... */\n      pop\n        /* \"@openzeppelin/contracts/access/Ownable.sol\":2912:3099  function _transferOwnership(address newOwner) internal virtual {... */\n      pop\n      jump\t// out\n        /* \"@openzeppelin/contracts/utils/Context.sol\":656:752  function _msgSender() internal view virtual returns (address) {... */\n    tag_101:\n        /* \"@openzeppelin/contracts/utils/Context.sol\":709:716  address */\n      0x00\n        /* \"@openzeppelin/contracts/utils/Context.sol\":735:745  msg.sender */\n      caller\n        /* \"@openzeppelin/contracts/utils/Context.sol\":728:745  return msg.sender */\n      swap1\n      pop\n        /* \"@openzeppelin/contracts/utils/Context.sol\":656:752  function _msgSender() internal view virtual returns (address) {... */\n      swap1\n      jump\t// out\n        /* \"#utility.yul\":7:82   */\n    tag_108:\n        /* \"#utility.yul\":40:46   */\n      0x00\n        /* \"#utility.yul\":73:75   */\n      0x40\n        /* \"#utility.yul\":67:76   */\n      mload\n        /* \"#utility.yul\":57:76   */\n      swap1\n      pop\n        /* \"#utility.yul\":7:82   */\n      swap1\n      jump\t// out\n        /* \"#utility.yul\":88:205   */\n    tag_109:\n        /* \"#utility.yul\":197:198   */\n      0x00\n        /* \"#utility.yul\":194:195   */\n      0x00\n        /* \"#utility.yul\":187:199   */\n      revert\n        /* \"#utility.yul\":211:328   */\n    tag_110:\n        /* \"#utility.yul\":320:321   */\n      0x00\n        /* \"#utility.yul\":317:318   */\n      0x00\n        /* \"#utility.yul\":310:322   */\n      revert\n        /* \"#utility.yul\":334:411   */\n    tag_111:\n        /* \"#utility.yul\":371:378   */\n      0x00\n        /* \"#utility.yul\":400:405   */\n      dup2\n        /* \"#utility.yul\":389:405   */\n      swap1\n      pop\n        /* \"#utility.yul\":334:411   */\n      swap2\n      swap1\n      pop\n      jump\t// out\n        /* \"#utility.yul\":417:539   */\n    tag_112:\n        /* \"#utility.yul\":490:514   */\n      tag_163\n        /* \"#utility.yul\":508:513   */\n      dup2\n        /* \"#utility.yul\":490:514   */\n      tag_111\n      jump\t// in\n    tag_163:\n        /* \"#utility.yul\":483:488   */\n      dup2\n        /* \"#utility.yul\":480:515   */\n      eq\n        /* \"#utility.yul\":470:533   */\n      tag_164\n      jumpi\n        /* \"#utility.yul\":529:530   */\n      0x00\n        /* \"#utility.yul\":526:527   */\n      0x00\n        /* \"#utility.yul\":519:531   */\n      revert\n        /* \"#utility.yul\":470:533   */\n    tag_164:\n        /* \"#utility.yul\":417:539   */\n      pop\n      jump\t// out\n        /* \"#utility.yul\":545:684   */\n    tag_113:\n        /* \"#utility.yul\":591:596   */\n      0x00\n        /* \"#utility.yul\":629:635   */\n      dup2\n        /* \"#utility.yul\":616:636   */\n      calldataload\n        /* \"#utility.yul\":607:636   */\n      swap1\n      pop\n        /* \"#utility.yul\":645:678   */\n      tag_166\n        /* \"#utility.yul\":672:677   */\n      dup2\n        /* \"#utility.yul\":645:678   */\n      tag_112\n      jump\t// in\n    tag_166:\n        /* \"#utility.yul\":545:684   */\n      swap3\n      swap2\n      pop\n      pop\n      jump\t// out\n        /* \"#utility.yul\":690:1019   */\n    tag_14:\n        /* \"#utility.yul\":749:755   */\n      0x00\n        /* \"#utility.yul\":798:800   */\n      0x20\n        /* \"#utility.yul\":786:795   */\n      dup3\n        /* \"#utility.yul\":777:784   */\n      dup5\n        /* \"#utility.yul\":773:796   */\n      sub\n        /* \"#utility.yul\":769:801   */\n      slt\n        /* \"#utility.yul\":766:885   */\n      iszero\n      tag_168\n      jumpi\n        /* \"#utility.yul\":804:883   */\n      tag_169\n      tag_109\n      jump\t// in\n    tag_169:\n        /* \"#utility.yul\":766:885   */\n    tag_168:\n        /* \"#utility.yul\":924:925   */\n      0x00\n        /* \"#utility.yul\":949:1002   */\n      tag_170\n        /* \"#utility.yul\":994:1001   */\n      dup5\n        /* \"#utility.yul\":985:991   */\n      dup3\n        /* \"#utility.yul\":974:983   */\n      dup6\n        /* \"#utility.yul\":970:992   */\n      add\n        /* \"#utility.yul\":949:1002   */\n      tag_113\n      jump\t// in\n    tag_170:\n        /* \"#utility.yul\":939:1002   */\n      swap2\n      pop\n        /* \"#utility.yul\":895:1012   */\n      pop\n        /* \"#utility.yul\":690:1019   */\n      swap3\n      swap2\n      pop\n      pop\n      jump\t// out\n        /* \"#utility.yul\":1025:1143   */\n    tag_114:\n        /* \"#utility.yul\":1112:1136   */\n      tag_172\n        /* \"#utility.yul\":1130:1135   */\n      dup2\n        /* \"#utility.yul\":1112:1136   */\n      tag_111\n      jump\t// in\n    tag_172:\n        /* \"#utility.yul\":1107:1110   */\n      dup3\n        /* \"#utility.yul\":1100:1137   */\n      mstore\n        /* \"#utility.yul\":1025:1143   */\n      pop\n      pop\n      jump\t// out\n        /* \"#utility.yul\":1149:1248   */\n    tag_115:\n        /* \"#utility.yul\":1201:1207   */\n      0x00\n        /* \"#utility.yul\":1235:1240   */\n      dup2\n        /* \"#utility.yul\":1229:1241   */\n      mload\n        /* \"#utility.yul\":1219:1241   */\n      swap1\n      pop\n        /* \"#utility.yul\":1149:1248   */\n      swap2\n      swap1\n      pop\n      jump\t// out\n        /* \"#utility.yul\":1254:1423   */\n    tag_116:\n        /* \"#utility.yul\":1338:1349   */\n      0x00\n        /* \"#utility.yul\":1372:1378   */\n      dup3\n        /* \"#utility.yul\":1367:1370   */\n      dup3\n        /* \"#utility.yul\":1360:1379   */\n      mstore\n        /* \"#utility.yul\":1412:1416   */\n      0x20\n        /* \"#utility.yul\":1407:1410   */\n      dup3\n        /* \"#utility.yul\":1403:1417   */\n      add\n        /* \"#utility.yul\":1388:1417   */\n      swap1\n      pop\n        /* \"#utility.yul\":1254:1423   */\n      swap3\n      swap2\n      pop\n      pop\n      jump\t// out\n        /* \"#utility.yul\":1429:1568   */\n    tag_117:\n        /* \"#utility.yul\":1518:1524   */\n      dup3\n        /* \"#utility.yul\":1513:1516   */\n      dup2\n        /* \"#utility.yul\":1508:1511   */\n      dup4\n        /* \"#utility.yul\":1502:1525   */\n      mcopy\n        /* \"#utility.yul\":1559:1560   */\n      0x00\n        /* \"#utility.yul\":1550:1556   */\n      dup4\n        /* \"#utility.yul\":1545:1548   */\n      dup4\n        /* \"#utility.yul\":1541:1557   */\n      add\n        /* \"#utility.yul\":1534:1561   */\n      mstore\n        /* \"#utility.yul\":1429:1568   */\n      pop\n      pop\n      pop\n      jump\t// out\n        /* \"#utility.yul\":1574:1676   */\n    tag_118:\n        /* \"#utility.yul\":1615:1621   */\n      0x00\n        /* \"#utility.yul\":1666:1668   */\n      0x1f\n        /* \"#utility.yul\":1662:1669   */\n      not\n        /* \"#utility.yul\":1657:1659   */\n      0x1f\n        /* \"#utility.yul\":1650:1655   */\n      dup4\n        /* \"#utility.yul\":1646:1660   */\n      add\n        /* \"#utility.yul\":1642:1670   */\n      and\n        /* \"#utility.yul\":1632:1670   */\n      swap1\n      pop\n        /* \"#utility.yul\":1574:1676   */\n      swap2\n      swap1\n      pop\n      jump\t// out\n        /* \"#utility.yul\":1682:2059   */\n    tag_119:\n        /* \"#utility.yul\":1770:1773   */\n      0x00\n        /* \"#utility.yul\":1798:1837   */\n      tag_178\n        /* \"#utility.yul\":1831:1836   */\n      dup3\n        /* \"#utility.yul\":1798:1837   */\n      tag_115\n      jump\t// in\n    tag_178:\n        /* \"#utility.yul\":1853:1924   */\n      tag_179\n        /* \"#utility.yul\":1917:1923   */\n      dup2\n        /* \"#utility.yul\":1912:1915   */\n      dup6\n        /* \"#utility.yul\":1853:1924   */\n      tag_116\n      jump\t// in\n    tag_179:\n        /* \"#utility.yul\":1846:1924   */\n      swap4\n      pop\n        /* \"#utility.yul\":1933:1998   */\n      tag_180\n        /* \"#utility.yul\":1991:1997   */\n      dup2\n        /* \"#utility.yul\":1986:1989   */\n      dup6\n        /* \"#utility.yul\":1979:1983   */\n      0x20\n        /* \"#utility.yul\":1972:1977   */\n      dup7\n        /* \"#utility.yul\":1968:1984   */\n      add\n        /* \"#utility.yul\":1933:1998   */\n      tag_117\n      jump\t// in\n    tag_180:\n        /* \"#utility.yul\":2023:2052   */\n      tag_181\n        /* \"#utility.yul\":2045:2051   */\n      dup2\n        /* \"#utility.yul\":2023:2052   */\n      tag_118\n      jump\t// in\n    tag_181:\n        /* \"#utility.yul\":2018:2021   */\n      dup5\n        /* \"#utility.yul\":2014:2053   */\n      add\n        /* \"#utility.yul\":2007:2053   */\n      swap2\n      pop\n        /* \"#utility.yul\":1774:2059   */\n      pop\n        /* \"#utility.yul\":1682:2059   */\n      swap3\n      swap2\n      pop\n      pop\n      jump\t// out\n        /* \"#utility.yul\":2065:2245   */\n    tag_48:\n        /* \"#utility.yul\":2113:2190   */\n      0x4e487b7100000000000000000000000000000000000000000000000000000000\n        /* \"#utility.yul\":2110:2111   */\n      0x00\n        /* \"#utility.yul\":2103:2191   */\n      mstore\n        /* \"#utility.yul\":2210:2214   */\n      0x21\n        /* \"#utility.yul\":2207:2208   */\n      0x04\n        /* \"#utility.yul\":2200:2215   */\n      mstore\n        /* \"#utility.yul\":2234:2238   */\n      0x24\n        /* \"#utility.yul\":2231:2232   */\n      0x00\n        /* \"#utility.yul\":2224:2239   */\n      revert\n        /* \"#utility.yul\":2251:2373   */\n    tag_120:\n        /* \"#utility.yul\":2341:2342   */\n      0x03\n        /* \"#utility.yul\":2334:2339   */\n      dup2\n        /* \"#utility.yul\":2331:2343   */\n      lt\n        /* \"#utility.yul\":2321:2367   */\n      tag_184\n      jumpi\n        /* \"#utility.yul\":2347:2365   */\n      tag_185\n      tag_48\n      jump\t// in\n    tag_185:\n        /* \"#utility.yul\":2321:2367   */\n    tag_184:\n        /* \"#utility.yul\":2251:2373   */\n      pop\n      jump\t// out\n        /* \"#utility.yul\":2379:2524   */\n    tag_121:\n        /* \"#utility.yul\":2433:2440   */\n      0x00\n        /* \"#utility.yul\":2462:2467   */\n      dup2\n        /* \"#utility.yul\":2451:2467   */\n      swap1\n      pop\n        /* \"#utility.yul\":2468:2518   */\n      tag_187\n        /* \"#utility.yul\":2512:2517   */\n      dup3\n        /* \"#utility.yul\":2468:2518   */\n      tag_120\n      jump\t// in\n    tag_187:\n        /* \"#utility.yul\":2379:2524   */\n      swap2\n      swap1\n      pop\n      jump\t// out\n        /* \"#utility.yul\":2530:2675   */\n    tag_122:\n        /* \"#utility.yul\":2595:2604   */\n      0x00\n        /* \"#utility.yul\":2628:2669   */\n      tag_189\n        /* \"#utility.yul\":2663:2668   */\n      dup3\n        /* \"#utility.yul\":2628:2669   */\n      tag_121\n      jump\t// in\n    tag_189:\n        /* \"#utility.yul\":2615:2669   */\n      swap1\n      pop\n        /* \"#utility.yul\":2530:2675   */\n      swap2\n      swap1\n      pop\n      jump\t// out\n        /* \"#utility.yul\":2681:2842   */\n    tag_123:\n        /* \"#utility.yul\":2783:2835   */\n      tag_191\n        /* \"#utility.yul\":2829:2834   */\n      dup2\n        /* \"#utility.yul\":2783:2835   */\n      tag_122\n      jump\t// in\n    tag_191:\n        /* \"#utility.yul\":2778:2781   */\n      dup3\n        /* \"#utility.yul\":2771:2836   */\n      mstore\n        /* \"#utility.yul\":2681:2842   */\n      pop\n      pop\n      jump\t// out\n        /* \"#utility.yul\":2848:3522   */\n    tag_20:\n        /* \"#utility.yul\":3060:3064   */\n      0x00\n        /* \"#utility.yul\":3098:3101   */\n      0x80\n        /* \"#utility.yul\":3087:3096   */\n      dup3\n        /* \"#utility.yul\":3083:3102   */\n      add\n        /* \"#utility.yul\":3075:3102   */\n      swap1\n      pop\n        /* \"#utility.yul\":3112:3183   */\n      tag_193\n        /* \"#utility.yul\":3180:3181   */\n      0x00\n        /* \"#utility.yul\":3169:3178   */\n      dup4\n        /* \"#utility.yul\":3165:3182   */\n      add\n        /* \"#utility.yul\":3156:3162   */\n      dup8\n        /* \"#utility.yul\":3112:3183   */\n      tag_114\n      jump\t// in\n    tag_193:\n        /* \"#utility.yul\":3230:3239   */\n      dup2\n        /* \"#utility.yul\":3224:3228   */\n      dup2\n        /* \"#utility.yul\":3220:3240   */\n      sub\n        /* \"#utility.yul\":3215:3217   */\n      0x20\n        /* \"#utility.yul\":3204:3213   */\n      dup4\n        /* \"#utility.yul\":3200:3218   */\n      add\n        /* \"#utility.yul\":3193:3241   */\n      mstore\n        /* \"#utility.yul\":3258:3336   */\n      tag_194\n        /* \"#utility.yul\":3331:3335   */\n      dup2\n        /* \"#utility.yul\":3322:3328   */\n      dup7\n        /* \"#utility.yul\":3258:3336   */\n      tag_119\n      jump\t// in\n    tag_194:\n        /* \"#utility.yul\":3250:3336   */\n      swap1\n      pop\n        /* \"#utility.yul\":3346:3418   */\n      tag_195\n        /* \"#utility.yul\":3414:3416   */\n      0x40\n        /* \"#utility.yul\":3403:3412   */\n      dup4\n        /* \"#utility.yul\":3399:3417   */\n      add\n        /* \"#utility.yul\":3390:3396   */\n      dup6\n        /* \"#utility.yul\":3346:3418   */\n      tag_114\n      jump\t// in\n    tag_195:\n        /* \"#utility.yul\":3428:3515   */\n      tag_196\n        /* \"#utility.yul\":3511:3513   */\n      0x60\n        /* \"#utility.yul\":3500:3509   */\n      dup4\n        /* \"#utility.yul\":3496:3514   */\n      add\n        /* \"#utility.yul\":3487:3493   */\n      dup5\n        /* \"#utility.yul\":3428:3515   */\n      tag_123\n      jump\t// in\n    tag_196:\n        /* \"#utility.yul\":2848:3522   */\n      swap6\n      swap5\n      pop\n      pop\n      pop\n      pop\n      pop\n      jump\t// out\n        /* \"#utility.yul\":3528:3654   */\n    tag_124:\n        /* \"#utility.yul\":3565:3572   */\n      0x00\n        /* \"#utility.yul\":3605:3647   */\n      0xffffffffffffffffffffffffffffffffffffffff\n        /* \"#utility.yul\":3598:3603   */\n      dup3\n        /* \"#utility.yul\":3594:3648   */\n      and\n        /* \"#utility.yul\":3583:3648   */\n      swap1\n      pop\n        /* \"#utility.yul\":3528:3654   */\n      swap2\n      swap1\n      pop\n      jump\t// out\n        /* \"#utility.yul\":3660:3756   */\n    tag_125:\n        /* \"#utility.yul\":3697:3704   */\n      0x00\n        /* \"#utility.yul\":3726:3750   */\n      tag_199\n        /* \"#utility.yul\":3744:3749   */\n      dup3\n        /* \"#utility.yul\":3726:3750   */\n      tag_124\n      jump\t// in\n    tag_199:\n        /* \"#utility.yul\":3715:3750   */\n      swap1\n      pop\n        /* \"#utility.yul\":3660:3756   */\n      swap2\n      swap1\n      pop\n      jump\t// out\n        /* \"#utility.yul\":3762:3880   */\n    tag_126:\n        /* \"#utility.yul\":3849:3873   */\n      tag_201\n        /* \"#utility.yul\":3867:3872   */\n      dup2\n        /* \"#utility.yul\":3849:3873   */\n      tag_125\n      jump\t// in\n    tag_201:\n        /* \"#utility.yul\":3844:3847   */\n      dup3\n        /* \"#utility.yul\":3837:3874   */\n      mstore\n        /* \"#utility.yul\":3762:3880   */\n      pop\n      pop\n      jump\t// out\n        /* \"#utility.yul\":3886:4108   */\n    tag_26:\n        /* \"#utility.yul\":3979:3983   */\n      0x00\n        /* \"#utility.yul\":4017:4019   */\n      0x20\n        /* \"#utility.yul\":4006:4015   */\n      dup3\n        /* \"#utility.yul\":4002:4020   */\n      add\n        /* \"#utility.yul\":3994:4020   */\n      swap1\n      pop\n        /* \"#utility.yul\":4030:4101   */\n      tag_203\n        /* \"#utility.yul\":4098:4099   */\n      0x00\n        /* \"#utility.yul\":4087:4096   */\n      dup4\n        /* \"#utility.yul\":4083:4100   */\n      add\n        /* \"#utility.yul\":4074:4080   */\n      dup5\n        /* \"#utility.yul\":4030:4101   */\n      tag_126\n      jump\t// in\n    tag_203:\n        /* \"#utility.yul\":3886:4108   */\n      swap3\n      swap2\n      pop\n      pop\n      jump\t// out\n        /* \"#utility.yul\":4114:4336   */\n    tag_30:\n        /* \"#utility.yul\":4207:4211   */\n      0x00\n        /* \"#utility.yul\":4245:4247   */\n      0x20\n        /* \"#utility.yul\":4234:4243   */\n      dup3\n        /* \"#utility.yul\":4230:4248   */\n      add\n        /* \"#utility.yul\":4222:4248   */\n      swap1\n      pop\n        /* \"#utility.yul\":4258:4329   */\n      tag_205\n        /* \"#utility.yul\":4326:4327   */\n      0x00\n        /* \"#utility.yul\":4315:4324   */\n      dup4\n        /* \"#utility.yul\":4311:4328   */\n      add\n        /* \"#utility.yul\":4302:4308   */\n      dup5\n        /* \"#utility.yul\":4258:4329   */\n      tag_114\n      jump\t// in\n    tag_205:\n        /* \"#utility.yul\":4114:4336   */\n      swap3\n      swap2\n      pop\n      pop\n      jump\t// out\n        /* \"#utility.yul\":4342:4459   */\n    tag_127:\n        /* \"#utility.yul\":4451:4452   */\n      0x00\n        /* \"#utility.yul\":4448:4449   */\n      0x00\n        /* \"#utility.yul\":4441:4453   */\n      revert\n        /* \"#utility.yul\":4465:4582   */\n    tag_128:\n        /* \"#utility.yul\":4574:4575   */\n      0x00\n        /* \"#utility.yul\":4571:4572   */\n      0x00\n        /* \"#utility.yul\":4564:4576   */\n      revert\n        /* \"#utility.yul\":4588:4768   */\n    tag_129:\n        /* \"#utility.yul\":4636:4713   */\n      0x4e487b7100000000000000000000000000000000000000000000000000000000\n        /* \"#utility.yul\":4633:4634   */\n      0x00\n        /* \"#utility.yul\":4626:4714   */\n      mstore\n        /* \"#utility.yul\":4733:4737   */\n      0x41\n        /* \"#utility.yul\":4730:4731   */\n      0x04\n        /* \"#utility.yul\":4723:4738   */\n      mstore\n        /* \"#utility.yul\":4757:4761   */\n      0x24\n        /* \"#utility.yul\":4754:4755   */\n      0x00\n        /* \"#utility.yul\":4747:4762   */\n      revert\n        /* \"#utility.yul\":4774:5055   */\n    tag_130:\n        /* \"#utility.yul\":4857:4884   */\n      tag_210\n        /* \"#utility.yul\":4879:4883   */\n      dup3\n        /* \"#utility.yul\":4857:4884   */\n      tag_118\n      jump\t// in\n    tag_210:\n        /* \"#utility.yul\":4849:4855   */\n      dup2\n        /* \"#utility.yul\":4845:4885   */\n      add\n        /* \"#utility.yul\":4987:4993   */\n      dup2\n        /* \"#utility.yul\":4975:4985   */\n      dup2\n        /* \"#utility.yul\":4972:4994   */\n      lt\n        /* \"#utility.yul\":4951:4969   */\n      0xffffffffffffffff\n        /* \"#utility.yul\":4939:4949   */\n      dup3\n        /* \"#utility.yul\":4936:4970   */\n      gt\n        /* \"#utility.yul\":4933:4995   */\n      or\n        /* \"#utility.yul\":4930:5018   */\n      iszero\n      tag_211\n      jumpi\n        /* \"#utility.yul\":4998:5016   */\n      tag_212\n      tag_129\n      jump\t// in\n    tag_212:\n        /* \"#utility.yul\":4930:5018   */\n    tag_211:\n        /* \"#utility.yul\":5038:5048   */\n      dup1\n        /* \"#utility.yul\":5034:5036   */\n      0x40\n        /* \"#utility.yul\":5027:5049   */\n      mstore\n        /* \"#utility.yul\":4817:5055   */\n      pop\n        /* \"#utility.yul\":4774:5055   */\n      pop\n      pop\n      jump\t// out\n        /* \"#utility.yul\":5061:5190   */\n    tag_131:\n        /* \"#utility.yul\":5095:5101   */\n      0x00\n        /* \"#utility.yul\":5122:5142   */\n      tag_214\n      tag_108\n      jump\t// in\n    tag_214:\n        /* \"#utility.yul\":5112:5142   */\n      swap1\n      pop\n        /* \"#utility.yul\":5151:5184   */\n      tag_215\n        /* \"#utility.yul\":5179:5183   */\n      dup3\n        /* \"#utility.yul\":5171:5177   */\n      dup3\n        /* \"#utility.yul\":5151:5184   */\n      tag_130\n      jump\t// in\n    tag_215:\n        /* \"#utility.yul\":5061:5190   */\n      swap2\n      swap1\n      pop\n      jump\t// out\n        /* \"#utility.yul\":5196:5504   */\n    tag_132:\n        /* \"#utility.yul\":5258:5262   */\n      0x00\n        /* \"#utility.yul\":5348:5366   */\n      0xffffffffffffffff\n        /* \"#utility.yul\":5340:5346   */\n      dup3\n        /* \"#utility.yul\":5337:5367   */\n      gt\n        /* \"#utility.yul\":5334:5390   */\n      iszero\n      tag_217\n      jumpi\n        /* \"#utility.yul\":5370:5388   */\n      tag_218\n      tag_129\n      jump\t// in\n    tag_218:\n        /* \"#utility.yul\":5334:5390   */\n    tag_217:\n        /* \"#utility.yul\":5408:5437   */\n      tag_219\n        /* \"#utility.yul\":5430:5436   */\n      dup3\n        /* \"#utility.yul\":5408:5437   */\n      tag_118\n      jump\t// in\n    tag_219:\n        /* \"#utility.yul\":5400:5437   */\n      swap1\n      pop\n        /* \"#utility.yul\":5492:5496   */\n      0x20\n        /* \"#utility.yul\":5486:5490   */\n      dup2\n        /* \"#utility.yul\":5482:5497   */\n      add\n        /* \"#utility.yul\":5474:5497   */\n      swap1\n      pop\n        /* \"#utility.yul\":5196:5504   */\n      swap2\n      swap1\n      pop\n      jump\t// out\n        /* \"#utility.yul\":5510:5658   */\n    tag_133:\n        /* \"#utility.yul\":5608:5614   */\n      dup3\n        /* \"#utility.yul\":5603:5606   */\n      dup2\n        /* \"#utility.yul\":5598:5601   */\n      dup4\n        /* \"#utility.yul\":5585:5615   */\n      calldatacopy\n        /* \"#utility.yul\":5649:5650   */\n      0x00\n        /* \"#utility.yul\":5640:5646   */\n      dup4\n        /* \"#utility.yul\":5635:5638   */\n      dup4\n        /* \"#utility.yul\":5631:5647   */\n      add\n        /* \"#utility.yul\":5624:5651   */\n      mstore\n        /* \"#utility.yul\":5510:5658   */\n      pop\n      pop\n      pop\n      jump\t// out\n        /* \"#utility.yul\":5664:6089   */\n    tag_134:\n        /* \"#utility.yul\":5742:5747   */\n      0x00\n        /* \"#utility.yul\":5767:5833   */\n      tag_222\n        /* \"#utility.yul\":5783:5832   */\n      tag_223\n        /* \"#utility.yul\":5825:5831   */\n      dup5\n        /* \"#utility.yul\":5783:5832   */\n      tag_132\n      jump\t// in\n    tag_223:\n        /* \"#utility.yul\":5767:5833   */\n      tag_131\n      jump\t// in\n    tag_222:\n        /* \"#utility.yul\":5758:5833   */\n      swap1\n      pop\n        /* \"#utility.yul\":5856:5862   */\n      dup3\n        /* \"#utility.yul\":5849:5854   */\n      dup2\n        /* \"#utility.yul\":5842:5863   */\n      mstore\n        /* \"#utility.yul\":5894:5898   */\n      0x20\n        /* \"#utility.yul\":5887:5892   */\n      dup2\n        /* \"#utility.yul\":5883:5899   */\n      add\n        /* \"#utility.yul\":5932:5935   */\n      dup5\n        /* \"#utility.yul\":5923:5929   */\n      dup5\n        /* \"#utility.yul\":5918:5921   */\n      dup5\n        /* \"#utility.yul\":5914:5930   */\n      add\n        /* \"#utility.yul\":5911:5936   */\n      gt\n        /* \"#utility.yul\":5908:6020   */\n      iszero\n      tag_224\n      jumpi\n        /* \"#utility.yul\":5939:6018   */\n      tag_225\n      tag_128\n      jump\t// in\n    tag_225:\n        /* \"#utility.yul\":5908:6020   */\n    tag_224:\n        /* \"#utility.yul\":6029:6083   */\n      tag_226\n        /* \"#utility.yul\":6076:6082   */\n      dup5\n        /* \"#utility.yul\":6071:6074   */\n      dup3\n        /* \"#utility.yul\":6066:6069   */\n      dup6\n        /* \"#utility.yul\":6029:6083   */\n      tag_133\n      jump\t// in\n    tag_226:\n        /* \"#utility.yul\":5748:6089   */\n      pop\n        /* \"#utility.yul\":5664:6089   */\n      swap4\n      swap3\n      pop\n      pop\n      pop\n      jump\t// out\n        /* \"#utility.yul\":6109:6449   */\n    tag_135:\n        /* \"#utility.yul\":6165:6170   */\n      0x00\n        /* \"#utility.yul\":6214:6217   */\n      dup3\n        /* \"#utility.yul\":6207:6211   */\n      0x1f\n        /* \"#utility.yul\":6199:6205   */\n      dup4\n        /* \"#utility.yul\":6195:6212   */\n      add\n        /* \"#utility.yul\":6191:6218   */\n      slt\n        /* \"#utility.yul\":6181:6303   */\n      tag_228\n      jumpi\n        /* \"#utility.yul\":6222:6301   */\n      tag_229\n      tag_127\n      jump\t// in\n    tag_229:\n        /* \"#utility.yul\":6181:6303   */\n    tag_228:\n        /* \"#utility.yul\":6339:6345   */\n      dup2\n        /* \"#utility.yul\":6326:6346   */\n      calldataload\n        /* \"#utility.yul\":6364:6443   */\n      tag_230\n        /* \"#utility.yul\":6439:6442   */\n      dup5\n        /* \"#utility.yul\":6431:6437   */\n      dup3\n        /* \"#utility.yul\":6424:6428   */\n      0x20\n        /* \"#utility.yul\":6416:6422   */\n      dup7\n        /* \"#utility.yul\":6412:6429   */\n      add\n        /* \"#utility.yul\":6364:6443   */\n      tag_134\n      jump\t// in\n    tag_230:\n        /* \"#utility.yul\":6355:6443   */\n      swap2\n      pop\n        /* \"#utility.yul\":6171:6449   */\n      pop\n        /* \"#utility.yul\":6109:6449   */\n      swap3\n      swap2\n      pop\n      pop\n      jump\t// out\n        /* \"#utility.yul\":6455:7109   */\n    tag_36:\n        /* \"#utility.yul\":6533:6539   */\n      0x00\n        /* \"#utility.yul\":6541:6547   */\n      0x00\n        /* \"#utility.yul\":6590:6592   */\n      0x40\n        /* \"#utility.yul\":6578:6587   */\n      dup4\n        /* \"#utility.yul\":6569:6576   */\n      dup6\n        /* \"#utility.yul\":6565:6588   */\n      sub\n        /* \"#utility.yul\":6561:6593   */\n      slt\n        /* \"#utility.yul\":6558:6677   */\n      iszero\n      tag_232\n      jumpi\n        /* \"#utility.yul\":6596:6675   */\n      tag_233\n      tag_109\n      jump\t// in\n    tag_233:\n        /* \"#utility.yul\":6558:6677   */\n    tag_232:\n        /* \"#utility.yul\":6744:6745   */\n      0x00\n        /* \"#utility.yul\":6733:6742   */\n      dup4\n        /* \"#utility.yul\":6729:6746   */\n      add\n        /* \"#utility.yul\":6716:6747   */\n      calldataload\n        /* \"#utility.yul\":6774:6792   */\n      0xffffffffffffffff\n        /* \"#utility.yul\":6766:6772   */\n      dup2\n        /* \"#utility.yul\":6763:6793   */\n      gt\n        /* \"#utility.yul\":6760:6877   */\n      iszero\n      tag_234\n      jumpi\n        /* \"#utility.yul\":6796:6875   */\n      tag_235\n      tag_110\n      jump\t// in\n    tag_235:\n        /* \"#utility.yul\":6760:6877   */\n    tag_234:\n        /* \"#utility.yul\":6901:6964   */\n      tag_236\n        /* \"#utility.yul\":6956:6963   */\n      dup6\n        /* \"#utility.yul\":6947:6953   */\n      dup3\n        /* \"#utility.yul\":6936:6945   */\n      dup7\n        /* \"#utility.yul\":6932:6954   */\n      add\n        /* \"#utility.yul\":6901:6964   */\n      tag_135\n      jump\t// in\n    tag_236:\n        /* \"#utility.yul\":6891:6964   */\n      swap3\n      pop\n        /* \"#utility.yul\":6687:6974   */\n      pop\n        /* \"#utility.yul\":7013:7015   */\n      0x20\n        /* \"#utility.yul\":7039:7092   */\n      tag_237\n        /* \"#utility.yul\":7084:7091   */\n      dup6\n        /* \"#utility.yul\":7075:7081   */\n      dup3\n        /* \"#utility.yul\":7064:7073   */\n      dup7\n        /* \"#utility.yul\":7060:7082   */\n      add\n        /* \"#utility.yul\":7039:7092   */\n      tag_113\n      jump\t// in\n    tag_237:\n        /* \"#utility.yul\":7029:7092   */\n      swap2\n      pop\n        /* \"#utility.yul\":6984:7102   */\n      pop\n        /* \"#utility.yul\":6455:7109   */\n      swap3\n      pop\n      swap3\n      swap1\n      pop\n      jump\t// out\n        /* \"#utility.yul\":7115:7237   */\n    tag_136:\n        /* \"#utility.yul\":7188:7212   */\n      tag_239\n        /* \"#utility.yul\":7206:7211   */\n      dup2\n        /* \"#utility.yul\":7188:7212   */\n      tag_125\n      jump\t// in\n    tag_239:\n        /* \"#utility.yul\":7181:7186   */\n      dup2\n        /* \"#utility.yul\":7178:7213   */\n      eq\n        /* \"#utility.yul\":7168:7231   */\n      tag_240\n      jumpi\n        /* \"#utility.yul\":7227:7228   */\n      0x00\n        /* \"#utility.yul\":7224:7225   */\n      0x00\n        /* \"#utility.yul\":7217:7229   */\n      revert\n        /* \"#utility.yul\":7168:7231   */\n    tag_240:\n        /* \"#utility.yul\":7115:7237   */\n      pop\n      jump\t// out\n        /* \"#utility.yul\":7243:7382   */\n    tag_137:\n        /* \"#utility.yul\":7289:7294   */\n      0x00\n        /* \"#utility.yul\":7327:7333   */\n      dup2\n        /* \"#utility.yul\":7314:7334   */\n      calldataload\n        /* \"#utility.yul\":7305:7334   */\n      swap1\n      pop\n        /* \"#utility.yul\":7343:7376   */\n      tag_242\n        /* \"#utility.yul\":7370:7375   */\n      dup2\n        /* \"#utility.yul\":7343:7376   */\n      tag_136\n      jump\t// in\n    tag_242:\n        /* \"#utility.yul\":7243:7382   */\n      swap3\n      swap2\n      pop\n      pop\n      jump\t// out\n        /* \"#utility.yul\":7388:7717   */\n    tag_40:\n        /* \"#utility.yul\":7447:7453   */\n      0x00\n        /* \"#utility.yul\":7496:7498   */\n      0x20\n        /* \"#utility.yul\":7484:7493   */\n      dup3\n        /* \"#utility.yul\":7475:7482   */\n      dup5\n        /* \"#utility.yul\":7471:7494   */\n      sub\n        /* \"#utility.yul\":7467:7499   */\n      slt\n        /* \"#utility.yul\":7464:7583   */\n      iszero\n      tag_244\n      jumpi\n        /* \"#utility.yul\":7502:7581   */\n      tag_245\n      tag_109\n      jump\t// in\n    tag_245:\n        /* \"#utility.yul\":7464:7583   */\n    tag_244:\n        /* \"#utility.yul\":7622:7623   */\n      0x00\n        /* \"#utility.yul\":7647:7700   */\n      tag_246\n        /* \"#utility.yul\":7692:7699   */\n      dup5\n        /* \"#utility.yul\":7683:7689   */\n      dup3\n        /* \"#utility.yul\":7672:7681   */\n      dup6\n        /* \"#utility.yul\":7668:7690   */\n      add\n        /* \"#utility.yul\":7647:7700   */\n      tag_137\n      jump\t// in\n    tag_246:\n        /* \"#utility.yul\":7637:7700   */\n      swap2\n      pop\n        /* \"#utility.yul\":7593:7710   */\n      pop\n        /* \"#utility.yul\":7388:7717   */\n      swap3\n      swap2\n      pop\n      pop\n      jump\t// out\n        /* \"#utility.yul\":7723:7903   */\n    tag_138:\n        /* \"#utility.yul\":7863:7895   */\n      0x496e766f6963696e673a20496e766f696365206e6f742070656e64696e670000\n        /* \"#utility.yul\":7859:7860   */\n      0x00\n        /* \"#utility.yul\":7851:7857   */\n      dup3\n        /* \"#utility.yul\":7847:7861   */\n      add\n        /* \"#utility.yul\":7840:7896   */\n      mstore\n        /* \"#utility.yul\":7723:7903   */\n      pop\n      jump\t// out\n        /* \"#utility.yul\":7909:8275   */\n    tag_139:\n        /* \"#utility.yul\":8051:8054   */\n      0x00\n        /* \"#utility.yul\":8072:8139   */\n      tag_249\n        /* \"#utility.yul\":8136:8138   */\n      0x1e\n        /* \"#utility.yul\":8131:8134   */\n      dup4\n        /* \"#utility.yul\":8072:8139   */\n      tag_116\n      jump\t// in\n    tag_249:\n        /* \"#utility.yul\":8065:8139   */\n      swap2\n      pop\n        /* \"#utility.yul\":8148:8241   */\n      tag_250\n        /* \"#utility.yul\":8237:8240   */\n      dup3\n        /* \"#utility.yul\":8148:8241   */\n      tag_138\n      jump\t// in\n    tag_250:\n        /* \"#utility.yul\":8266:8268   */\n      0x20\n        /* \"#utility.yul\":8261:8264   */\n      dup3\n        /* \"#utility.yul\":8257:8269   */\n      add\n        /* \"#utility.yul\":8250:8269   */\n      swap1\n      pop\n        /* \"#utility.yul\":7909:8275   */\n      swap2\n      swap1\n      pop\n      jump\t// out\n        /* \"#utility.yul\":8281:8700   */\n    tag_53:\n        /* \"#utility.yul\":8447:8451   */\n      0x00\n        /* \"#utility.yul\":8485:8487   */\n      0x20\n        /* \"#utility.yul\":8474:8483   */\n      dup3\n        /* \"#utility.yul\":8470:8488   */\n      add\n        /* \"#utility.yul\":8462:8488   */\n      swap1\n      pop\n        /* \"#utility.yul\":8534:8543   */\n      dup2\n        /* \"#utility.yul\":8528:8532   */\n      dup2\n        /* \"#utility.yul\":8524:8544   */\n      sub\n        /* \"#utility.yul\":8520:8521   */\n      0x00\n        /* \"#utility.yul\":8509:8518   */\n      dup4\n        /* \"#utility.yul\":8505:8522   */\n      add\n        /* \"#utility.yul\":8498:8545   */\n      mstore\n        /* \"#utility.yul\":8562:8693   */\n      tag_252\n        /* \"#utility.yul\":8688:8692   */\n      dup2\n        /* \"#utility.yul\":8562:8693   */\n      tag_139\n      jump\t// in\n    tag_252:\n        /* \"#utility.yul\":8554:8693   */\n      swap1\n      pop\n        /* \"#utility.yul\":8281:8700   */\n      swap2\n      swap1\n      pop\n      jump\t// out\n        /* \"#utility.yul\":8706:8958   */\n    tag_57:\n        /* \"#utility.yul\":8814:8818   */\n      0x00\n        /* \"#utility.yul\":8852:8854   */\n      0x20\n        /* \"#utility.yul\":8841:8850   */\n      dup3\n        /* \"#utility.yul\":8837:8855   */\n      add\n        /* \"#utility.yul\":8829:8855   */\n      swap1\n      pop\n        /* \"#utility.yul\":8865:8951   */\n      tag_254\n        /* \"#utility.yul\":8948:8949   */\n      0x00\n        /* \"#utility.yul\":8937:8946   */\n      dup4\n        /* \"#utility.yul\":8933:8950   */\n      add\n        /* \"#utility.yul\":8924:8930   */\n      dup5\n        /* \"#utility.yul\":8865:8951   */\n      tag_123\n      jump\t// in\n    tag_254:\n        /* \"#utility.yul\":8706:8958   */\n      swap3\n      swap2\n      pop\n      pop\n      jump\t// out\n        /* \"#utility.yul\":8964:9144   */\n    tag_140:\n        /* \"#utility.yul\":9012:9089   */\n      0x4e487b7100000000000000000000000000000000000000000000000000000000\n        /* \"#utility.yul\":9009:9010   */\n      0x00\n        /* \"#utility.yul\":9002:9090   */\n      mstore\n        /* \"#utility.yul\":9109:9113   */\n      0x22\n        /* \"#utility.yul\":9106:9107   */\n      0x04\n        /* \"#utility.yul\":9099:9114   */\n      mstore\n        /* \"#utility.yul\":9133:9137   */\n      0x24\n        /* \"#utility.yul\":9130:9131   */\n      0x00\n        /* \"#utility.yul\":9123:9138   */\n      revert\n        /* \"#utility.yul\":9150:9470   */\n    tag_59:\n        /* \"#utility.yul\":9194:9200   */\n      0x00\n        /* \"#utility.yul\":9231:9232   */\n      0x02\n        /* \"#utility.yul\":9225:9229   */\n      dup3\n        /* \"#utility.yul\":9221:9233   */\n      div\n        /* \"#utility.yul\":9211:9233   */\n      swap1\n      pop\n        /* \"#utility.yul\":9278:9279   */\n      0x01\n        /* \"#utility.yul\":9272:9276   */\n      dup3\n        /* \"#utility.yul\":9268:9280   */\n      and\n        /* \"#utility.yul\":9299:9317   */\n      dup1\n        /* \"#utility.yul\":9289:9370   */\n      tag_257\n      jumpi\n        /* \"#utility.yul\":9355:9359   */\n      0x7f\n        /* \"#utility.yul\":9347:9353   */\n      dup3\n        /* \"#utility.yul\":9343:9360   */\n      and\n        /* \"#utility.yul\":9333:9360   */\n      swap2\n      pop\n        /* \"#utility.yul\":9289:9370   */\n    tag_257:\n        /* \"#utility.yul\":9417:9419   */\n      0x20\n        /* \"#utility.yul\":9409:9415   */\n      dup3\n        /* \"#utility.yul\":9406:9420   */\n      lt\n        /* \"#utility.yul\":9386:9404   */\n      dup2\n        /* \"#utility.yul\":9383:9421   */\n      sub\n        /* \"#utility.yul\":9380:9464   */\n      tag_258\n      jumpi\n        /* \"#utility.yul\":9436:9454   */\n      tag_259\n      tag_140\n      jump\t// in\n    tag_259:\n        /* \"#utility.yul\":9380:9464   */\n    tag_258:\n        /* \"#utility.yul\":9201:9470   */\n      pop\n        /* \"#utility.yul\":9150:9470   */\n      swap2\n      swap1\n      pop\n      jump\t// out\n        /* \"#utility.yul\":9476:9656   */\n    tag_141:\n        /* \"#utility.yul\":9524:9601   */\n      0x4e487b7100000000000000000000000000000000000000000000000000000000\n        /* \"#utility.yul\":9521:9522   */\n      0x00\n        /* \"#utility.yul\":9514:9602   */\n      mstore\n        /* \"#utility.yul\":9621:9625   */\n      0x11\n        /* \"#utility.yul\":9618:9619   */\n      0x04\n        /* \"#utility.yul\":9611:9626   */\n      mstore\n        /* \"#utility.yul\":9645:9649   */\n      0x24\n        /* \"#utility.yul\":9642:9643   */\n      0x00\n        /* \"#utility.yul\":9635:9650   */\n      revert\n        /* \"#utility.yul\":9662:9895   */\n    tag_84:\n        /* \"#utility.yul\":9701:9704   */\n      0x00\n        /* \"#utility.yul\":9724:9748   */\n      tag_262\n        /* \"#utility.yul\":9742:9747   */\n      dup3\n        /* \"#utility.yul\":9724:9748   */\n      tag_111\n      jump\t// in\n    tag_262:\n        /* \"#utility.yul\":9715:9748   */\n      swap2\n      pop\n        /* \"#utility.yul\":9770:9836   */\n      0xffffffffffffffffffffffffffffffffffffffffffffffffffffffffffffffff\n        /* \"#utility.yul\":9763:9768   */\n      dup3\n        /* \"#utility.yul\":9760:9837   */\n      sub\n        /* \"#utility.yul\":9757:9860   */\n      tag_263\n      jumpi\n        /* \"#utility.yul\":9840:9858   */\n      tag_264\n      tag_141\n      jump\t// in\n    tag_264:\n        /* \"#utility.yul\":9757:9860   */\n    tag_263:\n        /* \"#utility.yul\":9887:9888   */\n      0x01\n        /* \"#utility.yul\":9880:9885   */\n      dup3\n        /* \"#utility.yul\":9876:9889   */\n      add\n        /* \"#utility.yul\":9869:9889   */\n      swap1\n      pop\n        /* \"#utility.yul\":9662:9895   */\n      swap2\n      swap1\n      pop\n      jump\t// out\n        /* \"#utility.yul\":9901:10042   */\n    tag_142:\n        /* \"#utility.yul\":9950:9954   */\n      0x00\n        /* \"#utility.yul\":9973:9976   */\n      dup2\n        /* \"#utility.yul\":9965:9976   */\n      swap1\n      pop\n        /* \"#utility.yul\":9996:9999   */\n      dup2\n        /* \"#utility.yul\":9993:9994   */\n      0x00\n        /* \"#utility.yul\":9986:10000   */\n      mstore\n        /* \"#utility.yul\":10030:10034   */\n      0x20\n        /* \"#utility.yul\":10027:10028   */\n      0x00\n        /* \"#utility.yul\":10017:10035   */\n      keccak256\n        /* \"#utility.yul\":10009:10035   */\n      swap1\n      pop\n        /* \"#utility.yul\":9901:10042   */\n      swap2\n      swap1\n      pop\n      jump\t// out\n        /* \"#utility.yul\":10048:10141   */\n    tag_143:\n        /* \"#utility.yul\":10085:10091   */\n      0x00\n        /* \"#utility.yul\":10132:10134   */\n      0x20\n        /* \"#utility.yul\":10127:10129   */\n      0x1f\n        /* \"#utility.yul\":10120:10125   */\n      dup4\n        /* \"#utility.yul\":10116:10130   */\n      add\n        /* \"#utility.yul\":10112:10135   */\n      div\n        /* \"#utility.yul\":10102:10135   */\n      swap1\n      pop\n        /* \"#utility.yul\":10048:10141   */\n      swap2\n      swap1\n      pop\n      jump\t// out\n        /* \"#utility.yul\":10147:10254   */\n    tag_144:\n        /* \"#utility.yul\":10191:10199   */\n      0x00\n        /* \"#utility.yul\":10241:10246   */\n      dup3\n        /* \"#utility.yul\":10235:10239   */\n      dup3\n        /* \"#utility.yul\":10231:10247   */\n      shl\n        /* \"#utility.yul\":10210:10247   */\n      swap1\n      pop\n        /* \"#utility.yul\":10147:10254   */\n      swap3\n      swap2\n      pop\n      pop\n      jump\t// out\n        /* \"#utility.yul\":10260:10653   */\n    tag_145:\n        /* \"#utility.yul\":10329:10335   */\n      0x00\n        /* \"#utility.yul\":10379:10380   */\n      0x08\n        /* \"#utility.yul\":10367:10377   */\n      dup4\n        /* \"#utility.yul\":10363:10381   */\n      mul\n        /* \"#utility.yul\":10402:10499   */\n      tag_269\n        /* \"#utility.yul\":10432:10498   */\n      0xffffffffffffffffffffffffffffffffffffffffffffffffffffffffffffffff\n        /* \"#utility.yul\":10421:10430   */\n      dup3\n        /* \"#utility.yul\":10402:10499   */\n      tag_144\n      jump\t// in\n    tag_269:\n        /* \"#utility.yul\":10520:10559   */\n      tag_270\n        /* \"#utility.yul\":10550:10558   */\n      dup7\n        /* \"#utility.yul\":10539:10548   */\n      dup4\n        /* \"#utility.yul\":10520:10559   */\n      tag_144\n      jump\t// in\n    tag_270:\n        /* \"#utility.yul\":10508:10559   */\n      swap6\n      pop\n        /* \"#utility.yul\":10592:10596   */\n      dup1\n        /* \"#utility.yul\":10588:10597   */\n      not\n        /* \"#utility.yul\":10581:10586   */\n      dup5\n        /* \"#utility.yul\":10577:10598   */\n      and\n        /* \"#utility.yul\":10568:10598   */\n      swap4\n      pop\n        /* \"#utility.yul\":10641:10645   */\n      dup1\n        /* \"#utility.yul\":10631:10639   */\n      dup7\n        /* \"#utility.yul\":10627:10646   */\n      and\n        /* \"#utility.yul\":10620:10625   */\n      dup5\n        /* \"#utility.yul\":10617:10647   */\n      or\n        /* \"#utility.yul\":10607:10647   */\n      swap3\n      pop\n        /* \"#utility.yul\":10336:10653   */\n      pop\n      pop\n        /* \"#utility.yul\":10260:10653   */\n      swap4\n      swap3\n      pop\n      pop\n      pop\n      jump\t// out\n        /* \"#utility.yul\":10659:10719   */\n    tag_146:\n        /* \"#utility.yul\":10687:10690   */\n      0x00\n        /* \"#utility.yul\":10708:10713   */\n      dup2\n        /* \"#utility.yul\":10701:10713   */\n      swap1\n      pop\n        /* \"#utility.yul\":10659:10719   */\n      swap2\n      swap1\n      pop\n      jump\t// out\n        /* \"#utility.yul\":10725:10867   */\n    tag_147:\n        /* \"#utility.yul\":10775:10784   */\n      0x00\n        /* \"#utility.yul\":10808:10861   */\n      tag_273\n        /* \"#utility.yul\":10826:10860   */\n      tag_274\n        /* \"#utility.yul\":10835:10859   */\n      tag_275\n        /* \"#utility.yul\":10853:10858   */\n      dup5\n        /* \"#utility.yul\":10835:10859   */\n      tag_111\n      jump\t// in\n    tag_275:\n        /* \"#utility.yul\":10826:10860   */\n      tag_146\n      jump\t// in\n    tag_274:\n        /* \"#utility.yul\":10808:10861   */\n      tag_111\n      jump\t// in\n    tag_273:\n        /* \"#utility.yul\":10795:10861   */\n      swap1\n      pop\n        /* \"#utility.yul\":10725:10867   */\n      swap2\n      swap1\n      pop\n      jump\t// out\n        /* \"#utility.yul\":10873:10948   */\n    tag_148:\n        /* \"#utility.yul\":10916:10919   */\n      0x00\n        /* \"#utility.yul\":10937:10942   */\n      dup2\n        /* \"#utility.yul\":10930:10942   */\n      swap1\n      pop\n        /* \"#utility.yul\":10873:10948   */\n      swap2\n      swap1\n      pop\n      jump\t// out\n        /* \"#utility.yul\":10954:11223   */\n    tag_149:\n        /* \"#utility.yul\":11064:11103   */\n      tag_278\n        /* \"#utility.yul\":11095:11102   */\n      dup4\n        /* \"#utility.yul\":11064:11103   */\n      tag_147\n      jump\t// in\n    tag_278:\n        /* \"#utility.yul\":11125:11216   */\n      tag_279\n        /* \"#utility.yul\":11174:11215   */\n      tag_280\n        /* \"#utility.yul\":11198:11214   */\n      dup3\n        /* \"#utility.yul\":11174:11215   */\n      tag_148\n      jump\t// in\n    tag_280:\n        /* \"#utility.yul\":11166:11172   */\n      dup5\n        /* \"#utility.yul\":11159:11163   */\n      dup5\n        /* \"#utility.yul\":11153:11164   */\n      sload\n        /* \"#utility.yul\":11125:11216   */\n      tag_145\n      jump\t// in\n    tag_279:\n        /* \"#utility.yul\":11119:11123   */\n      dup3\n        /* \"#utility.yul\":11112:11217   */\n      sstore\n        /* \"#utility.yul\":11030:11223   */\n      pop\n        /* \"#utility.yul\":10954:11223   */\n      pop\n      pop\n      pop\n      jump\t// out\n        /* \"#utility.yul\":11229:11302   */\n    tag_150:\n        /* \"#utility.yul\":11274:11277   */\n      0x00\n        /* \"#utility.yul\":11295:11296   */\n      0x00\n        /* \"#utility.yul\":11288:11296   */\n      swap1\n      pop\n        /* \"#utility.yul\":11229:11302   */\n      swap1\n      jump\t// out\n        /* \"#utility.yul\":11308:11497   */\n    tag_151:\n        /* \"#utility.yul\":11385:11417   */\n      tag_283\n      tag_150\n      jump\t// in\n    tag_283:\n        /* \"#utility.yul\":11426:11491   */\n      tag_284\n        /* \"#utility.yul\":11484:11490   */\n      dup2\n        /* \"#utility.yul\":11476:11482   */\n      dup5\n        /* \"#utility.yul\":11470:11474   */\n      dup5\n        /* \"#utility.yul\":11426:11491   */\n      tag_149\n      jump\t// in\n    tag_284:\n        /* \"#utility.yul\":11361:11497   */\n      pop\n        /* \"#utility.yul\":11308:11497   */\n      pop\n      pop\n      jump\t// out\n        /* \"#utility.yul\":11503:11689   */\n    tag_152:\n        /* \"#utility.yul\":11563:11683   */\n    tag_286:\n        /* \"#utility.yul\":11580:11583   */\n      dup2\n        /* \"#utility.yul\":11573:11578   */\n      dup2\n        /* \"#utility.yul\":11570:11584   */\n      lt\n        /* \"#utility.yul\":11563:11683   */\n      iszero\n      tag_288\n      jumpi\n        /* \"#utility.yul\":11634:11673   */\n      tag_289\n        /* \"#utility.yul\":11671:11672   */\n      0x00\n        /* \"#utility.yul\":11664:11669   */\n      dup3\n        /* \"#utility.yul\":11634:11673   */\n      tag_151\n      jump\t// in\n    tag_289:\n        /* \"#utility.yul\":11607:11608   */\n      0x01\n        /* \"#utility.yul\":11600:11605   */\n      dup2\n        /* \"#utility.yul\":11596:11609   */\n      add\n        /* \"#utility.yul\":11587:11609   */\n      swap1\n      pop\n        /* \"#utility.yul\":11563:11683   */\n      jump(tag_286)\n    tag_288:\n        /* \"#utility.yul\":11503:11689   */\n      pop\n      pop\n      jump\t// out\n        /* \"#utility.yul\":11695:12238   */\n    tag_153:\n        /* \"#utility.yul\":11796:11798   */\n      0x1f\n        /* \"#utility.yul\":11791:11794   */\n      dup3\n        /* \"#utility.yul\":11788:11799   */\n      gt\n        /* \"#utility.yul\":11785:12231   */\n      iszero\n      tag_291\n      jumpi\n        /* \"#utility.yul\":11830:11868   */\n      tag_292\n        /* \"#utility.yul\":11862:11867   */\n      dup2\n        /* \"#utility.yul\":11830:11868   */\n      tag_142\n      jump\t// in\n    tag_292:\n        /* \"#utility.yul\":11914:11943   */\n      tag_293\n        /* \"#utility.yul\":11932:11942   */\n      dup5\n        /* \"#utility.yul\":11914:11943   */\n      tag_143\n      jump\t// in\n    tag_293:\n        /* \"#utility.yul\":11904:11912   */\n      dup2\n        /* \"#utility.yul\":11900:11944   */\n      add\n        /* \"#utility.yul\":12097:12099   */\n      0x20\n        /* \"#utility.yul\":12085:12095   */\n      dup6\n        /* \"#utility.yul\":12082:12100   */\n      lt\n        /* \"#utility.yul\":12079:12128   */\n      iszero\n      tag_294\n      jumpi\n        /* \"#utility.yul\":12118:12126   */\n      dup2\n        /* \"#utility.yul\":12103:12126   */\n      swap1\n      pop\n        /* \"#utility.yul\":12079:12128   */\n    tag_294:\n        /* \"#utility.yul\":12141:12221   */\n      tag_295\n        /* \"#utility.yul\":12197:12219   */\n      tag_296\n        /* \"#utility.yul\":12215:12218   */\n      dup6\n        /* \"#utility.yul\":12197:12219   */\n      tag_143\n      jump\t// in\n    tag_296:\n        /* \"#utility.yul\":12187:12195   */\n      dup4\n        /* \"#utility.yul\":12183:12220   */\n      add\n        /* \"#utility.yul\":12170:12181   */\n      dup3\n        /* \"#utility.yul\":12141:12221   */\n      tag_152\n      jump\t// in\n    tag_295:\n        /* \"#utility.yul\":11800:12231   */\n      pop\n      pop\n        /* \"#utility.yul\":11785:12231   */\n    tag_291:\n        /* \"#utility.yul\":11695:12238   */\n      pop\n      pop\n      pop\n      jump\t// out\n        /* \"#utility.yul\":12244:12361   */\n    tag_154:\n        /* \"#utility.yul\":12298:12306   */\n      0x00\n        /* \"#utility.yul\":12348:12353   */\n      dup3\n        /* \"#utility.yul\":12342:12346   */\n      dup3\n        /* \"#utility.yul\":12338:12354   */\n      shr\n        /* \"#utility.yul\":12317:12354   */\n      swap1\n      pop\n        /* \"#utility.yul\":12244:12361   */\n      swap3\n      swap2\n      pop\n      pop\n      jump\t// out\n        /* \"#utility.yul\":12367:12536   */\n    tag_155:\n        /* \"#utility.yul\":12411:12417   */\n      0x00\n        /* \"#utility.yul\":12444:12495   */\n      tag_299\n        /* \"#utility.yul\":12492:12493   */\n      0x00\n        /* \"#utility.yul\":12488:12494   */\n      not\n        /* \"#utility.yul\":12480:12485   */\n      dup5\n        /* \"#utility.yul\":12477:12478   */\n      0x08\n        /* \"#utility.yul\":12473:12486   */\n      mul\n        /* \"#utility.yul\":12444:12495   */\n      tag_154\n      jump\t// in\n    tag_299:\n        /* \"#utility.yul\":12440:12496   */\n      not\n        /* \"#utility.yul\":12525:12529   */\n      dup1\n        /* \"#utility.yul\":12519:12523   */\n      dup4\n        /* \"#utility.yul\":12515:12530   */\n      and\n        /* \"#utility.yul\":12505:12530   */\n      swap2\n      pop\n        /* \"#utility.yul\":12418:12536   */\n      pop\n        /* \"#utility.yul\":12367:12536   */\n      swap3\n      swap2\n      pop\n      pop\n      jump\t// out\n        /* \"#utility.yul\":12541:12836   */\n    tag_156:\n        /* \"#utility.yul\":12617:12621   */\n      0x00\n        /* \"#utility.yul\":12763:12792   */\n      tag_301\n        /* \"#utility.yul\":12788:12791   */\n      dup4\n        /* \"#utility.yul\":12782:12786   */\n      dup4\n        /* \"#utility.yul\":12763:12792   */\n      tag_155\n      jump\t// in\n    tag_301:\n        /* \"#utility.yul\":12755:12792   */\n      swap2\n      pop\n        /* \"#utility.yul\":12825:12828   */\n      dup3\n        /* \"#utility.yul\":12822:12823   */\n      0x02\n        /* \"#utility.yul\":12818:12829   */\n      mul\n        /* \"#utility.yul\":12812:12816   */\n      dup3\n        /* \"#utility.yul\":12809:12830   */\n      or\n        /* \"#utility.yul\":12801:12830   */\n      swap1\n      pop\n        /* \"#utility.yul\":12541:12836   */\n      swap3\n      swap2\n      pop\n      pop\n      jump\t// out\n        /* \"#utility.yul\":12841:14236   */\n    tag_88:\n        /* \"#utility.yul\":12958:12995   */\n      tag_303\n        /* \"#utility.yul\":12991:12994   */\n      dup3\n        /* \"#utility.yul\":12958:12995   */\n      tag_115\n      jump\t// in\n    tag_303:\n        /* \"#utility.yul\":13060:13078   */\n      0xffffffffffffffff\n        /* \"#utility.yul\":13052:13058   */\n      dup2\n        /* \"#utility.yul\":13049:13079   */\n      gt\n        /* \"#utility.yul\":13046:13102   */\n      iszero\n      tag_304\n      jumpi\n        /* \"#utility.yul\":13082:13100   */\n      tag_305\n      tag_129\n      jump\t// in\n    tag_305:\n        /* \"#utility.yul\":13046:13102   */\n    tag_304:\n        /* \"#utility.yul\":13126:13164   */\n      tag_306\n        /* \"#utility.yul\":13158:13162   */\n      dup3\n        /* \"#utility.yul\":13152:13163   */\n      sload\n        /* \"#utility.yul\":13126:13164   */\n      tag_59\n      jump\t// in\n    tag_306:\n        /* \"#utility.yul\":13211:13278   */\n      tag_307\n        /* \"#utility.yul\":13271:13277   */\n      dup3\n        /* \"#utility.yul\":13263:13269   */\n      dup3\n        /* \"#utility.yul\":13257:13261   */\n      dup6\n        /* \"#utility.yul\":13211:13278   */\n      tag_153\n      jump\t// in\n    tag_307:\n        /* \"#utility.yul\":13305:13306   */\n      0x00\n        /* \"#utility.yul\":13329:13333   */\n      0x20\n        /* \"#utility.yul\":13316:13333   */\n      swap1\n      pop\n        /* \"#utility.yul\":13361:13363   */\n      0x1f\n        /* \"#utility.yul\":13353:13359   */\n      dup4\n        /* \"#utility.yul\":13350:13364   */\n      gt\n        /* \"#utility.yul\":13378:13379   */\n      0x01\n        /* \"#utility.yul\":13373:13991   */\n      dup2\n      eq\n      tag_309\n      jumpi\n        /* \"#utility.yul\":14035:14036   */\n      0x00\n        /* \"#utility.yul\":14052:14058   */\n      dup5\n        /* \"#utility.yul\":14049:14126   */\n      iszero\n      tag_310\n      jumpi\n        /* \"#utility.yul\":14101:14110   */\n      dup3\n        /* \"#utility.yul\":14096:14099   */\n      dup8\n        /* \"#utility.yul\":14092:14111   */\n      add\n        /* \"#utility.yul\":14086:14112   */\n      mload\n        /* \"#utility.yul\":14077:14112   */\n      swap1\n      pop\n        /* \"#utility.yul\":14049:14126   */\n    tag_310:\n        /* \"#utility.yul\":14152:14219   */\n      tag_311\n        /* \"#utility.yul\":14212:14218   */\n      dup6\n        /* \"#utility.yul\":14205:14210   */\n      dup3\n        /* \"#utility.yul\":14152:14219   */\n      tag_156\n      jump\t// in\n    tag_311:\n        /* \"#utility.yul\":14146:14150   */\n      dup7\n        /* \"#utility.yul\":14139:14220   */\n      sstore\n        /* \"#utility.yul\":14008:14230   */\n      pop\n        /* \"#utility.yul\":13343:14230   */\n      jump(tag_308)\n        /* \"#utility.yul\":13373:13991   */\n    tag_309:\n        /* \"#utility.yul\":13425:13429   */\n      0x1f\n        /* \"#utility.yul\":13421:13430   */\n      not\n        /* \"#utility.yul\":13413:13419   */\n      dup5\n        /* \"#utility.yul\":13409:13431   */\n      and\n        /* \"#utility.yul\":13459:13496   */\n      tag_312\n        /* \"#utility.yul\":13491:13495   */\n      dup7\n        /* \"#utility.yul\":13459:13496   */\n      tag_142\n      jump\t// in\n    tag_312:\n        /* \"#utility.yul\":13518:13519   */\n      0x00\n        /* \"#utility.yul\":13532:13740   */\n    tag_313:\n        /* \"#utility.yul\":13546:13553   */\n      dup3\n        /* \"#utility.yul\":13543:13544   */\n      dup2\n        /* \"#utility.yul\":13540:13554   */\n      lt\n        /* \"#utility.yul\":13532:13740   */\n      iszero\n      tag_315\n      jumpi\n        /* \"#utility.yul\":13625:13634   */\n      dup5\n        /* \"#utility.yul\":13620:13623   */\n      dup10\n        /* \"#utility.yul\":13616:13635   */\n      add\n        /* \"#utility.yul\":13610:13636   */\n      mload\n        /* \"#utility.yul\":13602:13608   */\n      dup3\n        /* \"#utility.yul\":13595:13637   */\n      sstore\n        /* \"#utility.yul\":13676:13677   */\n      0x01\n        /* \"#utility.yul\":13668:13674   */\n      dup3\n        /* \"#utility.yul\":13664:13678   */\n      add\n        /* \"#utility.yul\":13654:13678   */\n      swap2\n      pop\n        /* \"#utility.yul\":13723:13725   */\n      0x20\n        /* \"#utility.yul\":13712:13721   */\n      dup6\n        /* \"#utility.yul\":13708:13726   */\n      add\n        /* \"#utility.yul\":13695:13726   */\n      swap5\n      pop\n        /* \"#utility.yul\":13569:13573   */\n      0x20\n        /* \"#utility.yul\":13566:13567   */\n      dup2\n        /* \"#utility.yul\":13562:13574   */\n      add\n        /* \"#utility.yul\":13557:13574   */\n      swap1\n      pop\n        /* \"#utility.yul\":13532:13740   */\n      jump(tag_313)\n    tag_315:\n        /* \"#utility.yul\":13768:13774   */\n      dup7\n        /* \"#utility.yul\":13759:13766   */\n      dup4\n        /* \"#utility.yul\":13756:13775   */\n      lt\n        /* \"#utility.yul\":13753:13932   */\n      iszero\n      tag_316\n      jumpi\n        /* \"#utility.yul\":13826:13835   */\n      dup5\n        /* \"#utility.yul\":13821:13824   */\n      dup10\n        /* \"#utility.yul\":13817:13836   */\n      add\n        /* \"#utility.yul\":13811:13837   */\n      mload\n        /* \"#utility.yul\":13869:13917   */\n      tag_317\n        /* \"#utility.yul\":13911:13915   */\n      0x1f\n        /* \"#utility.yul\":13903:13909   */\n      dup10\n        /* \"#utility.yul\":13899:13916   */\n      and\n        /* \"#utility.yul\":13888:13897   */\n      dup3\n        /* \"#utility.yul\":13869:13917   */\n      tag_155\n      jump\t// in\n    tag_317:\n        /* \"#utility.yul\":13861:13867   */\n      dup4\n        /* \"#utility.yul\":13854:13918   */\n      sstore\n        /* \"#utility.yul\":13776:13932   */\n      pop\n        /* \"#utility.yul\":13753:13932   */\n    tag_316:\n        /* \"#utility.yul\":13978:13979   */\n      0x01\n        /* \"#utility.yul\":13974:13975   */\n      0x02\n        /* \"#utility.yul\":13966:13972   */\n      dup9\n        /* \"#utility.yul\":13962:13976   */\n      mul\n        /* \"#utility.yul\":13958:13980   */\n      add\n        /* \"#utility.yul\":13952:13956   */\n      dup9\n        /* \"#utility.yul\":13945:13981   */\n      sstore\n        /* \"#utility.yul\":13380:13991   */\n      pop\n      pop\n      pop\n        /* \"#utility.yul\":13343:14230   */\n    tag_308:\n      pop\n        /* \"#utility.yul\":12933:14236   */\n      pop\n      pop\n      pop\n        /* \"#utility.yul\":12841:14236   */\n      pop\n      pop\n      jump\t// out\n        /* \"#utility.yul\":14242:14665   */\n    tag_92:\n        /* \"#utility.yul\":14383:14387   */\n      0x00\n        /* \"#utility.yul\":14421:14423   */\n      0x40\n        /* \"#utility.yul\":14410:14419   */\n      dup3\n        /* \"#utility.yul\":14406:14424   */\n      add\n        /* \"#utility.yul\":14398:14424   */\n      swap1\n      pop\n        /* \"#utility.yul\":14470:14479   */\n      dup2\n        /* \"#utility.yul\":14464:14468   */\n      dup2\n        /* \"#utility.yul\":14460:14480   */\n      sub\n        /* \"#utility.yul\":14456:14457   */\n      0x00\n        /* \"#utility.yul\":14445:14454   */\n      dup4\n        /* \"#utility.yul\":14441:14458   */\n      add\n        /* \"#utility.yul\":14434:14481   */\n      mstore\n        /* \"#utility.yul\":14498:14576   */\n      tag_319\n        /* \"#utility.yul\":14571:14575   */\n      dup2\n        /* \"#utility.yul\":14562:14568   */\n      dup6\n        /* \"#utility.yul\":14498:14576   */\n      tag_119\n      jump\t// in\n    tag_319:\n        /* \"#utility.yul\":14490:14576   */\n      swap1\n      pop\n        /* \"#utility.yul\":14586:14658   */\n      tag_320\n        /* \"#utility.yul\":14654:14656   */\n      0x20\n        /* \"#utility.yul\":14643:14652   */\n      dup4\n        /* \"#utility.yul\":14639:14657   */\n      add\n        /* \"#utility.yul\":14630:14636   */\n      dup5\n        /* \"#utility.yul\":14586:14658   */\n      tag_114\n      jump\t// in\n    tag_320:\n        /* \"#utility.yul\":14242:14665   */\n      swap4\n      swap3\n      pop\n      pop\n      pop\n      jump\t// out\n\n    auxdata: 0xa2646970667358221220c374769dd419efa15a55063f8d278501bad4f262d7bed895c64e68274505c6a064736f6c634300081e0033\n}\n",
				"bytecode": {
					"linkReferences": {},
					"object": "608060405234801561000f575f5ffd5b50604051611186380380611186833981810160405281019061003191906101d7565b805f73ffffffffffffffffffffffffffffffffffffffff168173ffffffffffffffffffffffffffffffffffffffff16036100a2575f6040517f1e4fbdf70000000000000000000000000000000000000000000000000000000081526004016100999190610211565b60405180910390fd5b6100b1816100b860201b60201c565b505061022a565b5f5f5f9054906101000a900473ffffffffffffffffffffffffffffffffffffffff169050815f5f6101000a81548173ffffffffffffffffffffffffffffffffffffffff021916908373ffffffffffffffffffffffffffffffffffffffff1602179055508173ffffffffffffffffffffffffffffffffffffffff168173ffffffffffffffffffffffffffffffffffffffff167f8be0079c531659141344cd1fd0a4f28419497f9722a3daafe3b4186f6b6457e060405160405180910390a35050565b5f5ffd5b5f73ffffffffffffffffffffffffffffffffffffffff82169050919050565b5f6101a68261017d565b9050919050565b6101b68161019c565b81146101c0575f5ffd5b50565b5f815190506101d1816101ad565b92915050565b5f602082840312156101ec576101eb610179565b5b5f6101f9848285016101c3565b91505092915050565b61020b8161019c565b82525050565b5f6020820190506102245f830184610202565b92915050565b610f4f806102375f395ff3fe608060405234801561000f575f5ffd5b5060043610610086575f3560e01c8063a57b381c11610059578063a57b381c14610101578063b32413b71461011f578063d4280d5a1461013b578063f2fde38b1461015757610086565b80630f9a715e1461008a5780634e6d1405146100a6578063715018a6146100d95780638da5cb5b146100e3575b5f5ffd5b6100a4600480360381019061009f9190610777565b610173565b005b6100c060048036038101906100bb9190610777565b61026e565b6040516100d09493929190610894565b60405180910390f35b6100e161032c565b005b6100eb61033f565b6040516100f8919061091d565b60405180910390f35b610109610366565b6040516101169190610936565b60405180910390f35b61013960048036038101906101349190610777565b61036c565b005b61015560048036038101906101509190610a7b565b610467565b005b610171600480360381019061016c9190610aff565b610560565b005b61017b6105e4565b5f60015f8381526020019081526020015f2090505f60028111156101a2576101a1610821565b5b816003015f9054906101000a900460ff1660028111156101c5576101c4610821565b5b14610205576040517f08c379a00000000000000000000000000000000000000000000000000000000081526004016101fc90610b74565b60405180910390fd5b6002816003015f6101000a81548160ff0219169083600281111561022c5761022b610821565b5b0217905550817f63186546e41a4082c1fa29562d179c8a9f175e2136c3f5f39504f67117f781fb60026040516102629190610b92565b60405180910390a25050565b6001602052805f5260405f205f91509050805f01549080600101805461029390610bd8565b80601f01602080910402602001604051908101604052809291908181526020018280546102bf90610bd8565b801561030a5780601f106102e15761010080835404028352916020019161030a565b820191905f5260205f20905b8154815290600101906020018083116102ed57829003601f168201915b505050505090806002015490806003015f9054906101000a900460ff16905084565b6103346105e4565b61033d5f61066b565b565b5f5f5f9054906101000a900473ffffffffffffffffffffffffffffffffffffffff16905090565b60025481565b6103746105e4565b5f60015f8381526020019081526020015f2090505f600281111561039b5761039a610821565b5b816003015f9054906101000a900460ff1660028111156103be576103bd610821565b5b146103fe576040517f08c379a00000000000000000000000000000000000000000000000000000000081526004016103f590610b74565b60405180910390fd5b6001816003015f6101000a81548160ff0219169083600281111561042557610424610821565b5b0217905550817f63186546e41a4082c1fa29562d179c8a9f175e2136c3f5f39504f67117f781fb600160405161045b9190610b92565b60405180910390a25050565b60025f81548092919061047990610c35565b9190505550604051806080016040528060025481526020018381526020018281526020015f60028111156104b0576104af610821565b5b81525060015f60025481526020019081526020015f205f820151815f015560208201518160010190816104e39190610e1c565b50604082015181600201556060820151816003015f6101000a81548160ff0219169083600281111561051857610517610821565b5b02179055509050506002547f7a7ddaccb026ceb5b95e8c35cacf01335336c5be6e99ba75ad63bcf811824d388383604051610554929190610eeb565b60405180910390a25050565b6105686105e4565b5f73ffffffffffffffffffffffffffffffffffffffff168173ffffffffffffffffffffffffffffffffffffffff16036105d8575f6040517f1e4fbdf70000000000000000000000000000000000000000000000000000000081526004016105cf919061091d565b60405180910390fd5b6105e18161066b565b50565b6105ec61072c565b73ffffffffffffffffffffffffffffffffffffffff1661060a61033f565b73ffffffffffffffffffffffffffffffffffffffff16146106695761062d61072c565b6040517f118cdaa7000000000000000000000000000000000000000000000000000000008152600401610660919061091d565b60405180910390fd5b565b5f5f5f9054906101000a900473ffffffffffffffffffffffffffffffffffffffff169050815f5f6101000a81548173ffffffffffffffffffffffffffffffffffffffff021916908373ffffffffffffffffffffffffffffffffffffffff1602179055508173ffffffffffffffffffffffffffffffffffffffff168173ffffffffffffffffffffffffffffffffffffffff167f8be0079c531659141344cd1fd0a4f28419497f9722a3daafe3b4186f6b6457e060405160405180910390a35050565b5f33905090565b5f604051905090565b5f5ffd5b5f5ffd5b5f819050919050565b61075681610744565b8114610760575f5ffd5b50565b5f813590506107718161074d565b92915050565b5f6020828403121561078c5761078b61073c565b5b5f61079984828501610763565b91505092915050565b6107ab81610744565b82525050565b5f81519050919050565b5f82825260208201905092915050565b8281835e5f83830152505050565b5f601f19601f8301169050919050565b5f6107f3826107b1565b6107fd81856107bb565b935061080d8185602086016107cb565b610816816107d9565b840191505092915050565b7f4e487b71000000000000000000000000000000000000000000000000000000005f52602160045260245ffd5b6003811061085f5761085e610821565b5b50565b5f81905061086f8261084e565b919050565b5f61087e82610862565b9050919050565b61088e81610874565b82525050565b5f6080820190506108a75f8301876107a2565b81810360208301526108b981866107e9565b90506108c860408301856107a2565b6108d56060830184610885565b95945050505050565b5f73ffffffffffffffffffffffffffffffffffffffff82169050919050565b5f610907826108de565b9050919050565b610917816108fd565b82525050565b5f6020820190506109305f83018461090e565b92915050565b5f6020820190506109495f8301846107a2565b92915050565b5f5ffd5b5f5ffd5b7f4e487b71000000000000000000000000000000000000000000000000000000005f52604160045260245ffd5b61098d826107d9565b810181811067ffffffffffffffff821117156109ac576109ab610957565b5b80604052505050565b5f6109be610733565b90506109ca8282610984565b919050565b5f67ffffffffffffffff8211156109e9576109e8610957565b5b6109f2826107d9565b9050602081019050919050565b828183375f83830152505050565b5f610a1f610a1a846109cf565b6109b5565b905082815260208101848484011115610a3b57610a3a610953565b5b610a468482856109ff565b509392505050565b5f82601f830112610a6257610a6161094f565b5b8135610a72848260208601610a0d565b91505092915050565b5f5f60408385031215610a9157610a9061073c565b5b5f83013567ffffffffffffffff811115610aae57610aad610740565b5b610aba85828601610a4e565b9250506020610acb85828601610763565b9150509250929050565b610ade816108fd565b8114610ae8575f5ffd5b50565b5f81359050610af981610ad5565b92915050565b5f60208284031215610b1457610b1361073c565b5b5f610b2184828501610aeb565b91505092915050565b7f496e766f6963696e673a20496e766f696365206e6f742070656e64696e6700005f82015250565b5f610b5e601e836107bb565b9150610b6982610b2a565b602082019050919050565b5f6020820190508181035f830152610b8b81610b52565b9050919050565b5f602082019050610ba55f830184610885565b92915050565b7f4e487b71000000000000000000000000000000000000000000000000000000005f52602260045260245ffd5b5f6002820490506001821680610bef57607f821691505b602082108103610c0257610c01610bab565b5b50919050565b7f4e487b71000000000000000000000000000000000000000000000000000000005f52601160045260245ffd5b5f610c3f82610744565b91507fffffffffffffffffffffffffffffffffffffffffffffffffffffffffffffffff8203610c7157610c70610c08565b5b600182019050919050565b5f819050815f5260205f209050919050565b5f6020601f8301049050919050565b5f82821b905092915050565b5f60088302610cd87fffffffffffffffffffffffffffffffffffffffffffffffffffffffffffffffff82610c9d565b610ce28683610c9d565b95508019841693508086168417925050509392505050565b5f819050919050565b5f610d1d610d18610d1384610744565b610cfa565b610744565b9050919050565b5f819050919050565b610d3683610d03565b610d4a610d4282610d24565b848454610ca9565b825550505050565b5f5f905090565b610d61610d52565b610d6c818484610d2d565b505050565b5b81811015610d8f57610d845f82610d59565b600181019050610d72565b5050565b601f821115610dd457610da581610c7c565b610dae84610c8e565b81016020851015610dbd578190505b610dd1610dc985610c8e565b830182610d71565b50505b505050565b5f82821c905092915050565b5f610df45f1984600802610dd9565b1980831691505092915050565b5f610e0c8383610de5565b9150826002028217905092915050565b610e25826107b1565b67ffffffffffffffff811115610e3e57610e3d610957565b5b610e488254610bd8565b610e53828285610d93565b5f60209050601f831160018114610e84575f8415610e72578287015190505b610e7c8582610e01565b865550610ee3565b601f198416610e9286610c7c565b5f5b82811015610eb957848901518255600182019150602085019450602081019050610e94565b86831015610ed65784890151610ed2601f891682610de5565b8355505b6001600288020188555050505b505050505050565b5f6040820190508181035f830152610f0381856107e9565b9050610f1260208301846107a2565b939250505056fea2646970667358221220c374769dd419efa15a55063f8d278501bad4f262d7bed895c64e68274505c6a064736f6c634300081e0033",
					"opcodes": "PUSH1 0x80 PUSH1 0x40 MSTORE CALLVALUE DUP1 ISZERO PUSH2 0xF JUMPI PUSH0 PUSH0 REVERT JUMPDEST POP PUSH1 0x40 MLOAD PUSH2 0x1186 CODESIZE SUB DUP1 PUSH2 0x1186 DUP4 CODECOPY DUP2 DUP2 ADD PUSH1 0x40 MSTORE DUP2 ADD SWAP1 PUSH2 0x31 SWAP2 SWAP1 PUSH2 0x1D7 JUMP JUMPDEST DUP1 PUSH0 PUSH20 0xFFFFFFFFFFFFFFFFFFFFFFFFFFFFFFFFFFFFFFFF AND DUP2 PUSH20 0xFFFFFFFFFFFFFFFFFFFFFFFFFFFFFFFFFFFFFFFF AND SUB PUSH2 0xA2 JUMPI PUSH0 PUSH1 0x40 MLOAD PUSH32 0x1E4FBDF700000000000000000000000000000000000000000000000000000000 DUP2 MSTORE PUSH1 0x4 ADD PUSH2 0x99 SWAP2 SWAP1 PUSH2 0x211 JUMP JUMPDEST PUSH1 0x40 MLOAD DUP1 SWAP2 SUB SWAP1 REVERT JUMPDEST PUSH2 0xB1 DUP2 PUSH2 0xB8 PUSH1 0x20 SHL PUSH1 0x20 SHR JUMP JUMPDEST POP POP PUSH2 0x22A JUMP JUMPDEST PUSH0 PUSH0 PUSH0 SWAP1 SLOAD SWAP1 PUSH2 0x100 EXP SWAP1 DIV PUSH20 0xFFFFFFFFFFFFFFFFFFFFFFFFFFFFFFFFFFFFFFFF AND SWAP1 POP DUP2 PUSH0 PUSH0 PUSH2 0x100 EXP DUP2 SLOAD DUP2 PUSH20 0xFFFFFFFFFFFFFFFFFFFFFFFFFFFFFFFFFFFFFFFF MUL NOT AND SWAP1 DUP4 PUSH20 0xFFFFFFFFFFFFFFFFFFFFFFFFFFFFFFFFFFFFFFFF AND MUL OR SWAP1 SSTORE POP DUP2 PUSH20 0xFFFFFFFFFFFFFFFFFFFFFFFFFFFFFFFFFFFFFFFF AND DUP2 PUSH20 0xFFFFFFFFFFFFFFFFFFFFFFFFFFFFFFFFFFFFFFFF AND PUSH32 0x8BE0079C531659141344CD1FD0A4F28419497F9722A3DAAFE3B4186F6B6457E0 PUSH1 0x40 MLOAD PUSH1 0x40 MLOAD DUP1 SWAP2 SUB SWAP1 LOG3 POP POP JUMP JUMPDEST PUSH0 PUSH0 REVERT JUMPDEST PUSH0 PUSH20 0xFFFFFFFFFFFFFFFFFFFFFFFFFFFFFFFFFFFFFFFF DUP3 AND SWAP1 POP SWAP2 SWAP1 POP JUMP JUMPDEST PUSH0 PUSH2 0x1A6 DUP3 PUSH2 0x17D JUMP JUMPDEST SWAP1 POP SWAP2 SWAP1 POP JUMP JUMPDEST PUSH2 0x1B6 DUP2 PUSH2 0x19C JUMP JUMPDEST DUP2 EQ PUSH2 0x1C0 JUMPI PUSH0 PUSH0 REVERT JUMPDEST POP JUMP JUMPDEST PUSH0 DUP2 MLOAD SWAP1 POP PUSH2 0x1D1 DUP2 PUSH2 0x1AD JUMP JUMPDEST SWAP3 SWAP2 POP POP JUMP JUMPDEST PUSH0 PUSH1 0x20 DUP3 DUP5 SUB SLT ISZERO PUSH2 0x1EC JUMPI PUSH2 0x1EB PUSH2 0x179 JUMP JUMPDEST JUMPDEST PUSH0 PUSH2 0x1F9 DUP5 DUP3 DUP6 ADD PUSH2 0x1C3 JUMP JUMPDEST SWAP2 POP POP SWAP3 SWAP2 POP POP JUMP JUMPDEST PUSH2 0x20B DUP2 PUSH2 0x19C JUMP JUMPDEST DUP3 MSTORE POP POP JUMP JUMPDEST PUSH0 PUSH1 0x20 DUP3 ADD SWAP1 POP PUSH2 0x224 PUSH0 DUP4 ADD DUP5 PUSH2 0x202 JUMP JUMPDEST SWAP3 SWAP2 POP POP JUMP JUMPDEST PUSH2 0xF4F DUP1 PUSH2 0x237 PUSH0 CODECOPY PUSH0 RETURN INVALID PUSH1 0x80 PUSH1 0x40 MSTORE CALLVALUE DUP1 ISZERO PUSH2 0xF JUMPI PUSH0 PUSH0 REVERT JUMPDEST POP PUSH1 0x4 CALLDATASIZE LT PUSH2 0x86 JUMPI PUSH0 CALLDATALOAD PUSH1 0xE0 SHR DUP1 PUSH4 0xA57B381C GT PUSH2 0x59 JUMPI DUP1 PUSH4 0xA57B381C EQ PUSH2 0x101 JUMPI DUP1 PUSH4 0xB32413B7 EQ PUSH2 0x11F JUMPI DUP1 PUSH4 0xD4280D5A EQ PUSH2 0x13B JUMPI DUP1 PUSH4 0xF2FDE38B EQ PUSH2 0x157 JUMPI PUSH2 0x86 JUMP JUMPDEST DUP1 PUSH4 0xF9A715E EQ PUSH2 0x8A JUMPI DUP1 PUSH4 0x4E6D1405 EQ PUSH2 0xA6 JUMPI DUP1 PUSH4 0x715018A6 EQ PUSH2 0xD9 JUMPI DUP1 PUSH4 0x8DA5CB5B EQ PUSH2 0xE3 JUMPI JUMPDEST PUSH0 PUSH0 REVERT JUMPDEST PUSH2 0xA4 PUSH1 0x4 DUP1 CALLDATASIZE SUB DUP2 ADD SWAP1 PUSH2 0x9F SWAP2 SWAP1 PUSH2 0x777 JUMP JUMPDEST PUSH2 0x173 JUMP JUMPDEST STOP JUMPDEST PUSH2 0xC0 PUSH1 0x4 DUP1 CALLDATASIZE SUB DUP2 ADD SWAP1 PUSH2 0xBB SWAP2 SWAP1 PUSH2 0x777 JUMP JUMPDEST PUSH2 0x26E JUMP JUMPDEST PUSH1 0x40 MLOAD PUSH2 0xD0 SWAP5 SWAP4 SWAP3 SWAP2 SWAP1 PUSH2 0x894 JUMP JUMPDEST PUSH1 0x40 MLOAD DUP1 SWAP2 SUB SWAP1 RETURN JUMPDEST PUSH2 0xE1 PUSH2 0x32C JUMP JUMPDEST STOP JUMPDEST PUSH2 0xEB PUSH2 0x33F JUMP JUMPDEST PUSH1 0x40 MLOAD PUSH2 0xF8 SWAP2 SWAP1 PUSH2 0x91D JUMP JUMPDEST PUSH1 0x40 MLOAD DUP1 SWAP2 SUB SWAP1 RETURN JUMPDEST PUSH2 0x109 PUSH2 0x366 JUMP JUMPDEST PUSH1 0x40 MLOAD PUSH2 0x116 SWAP2 SWAP1 PUSH2 0x936 JUMP JUMPDEST PUSH1 0x40 MLOAD DUP1 SWAP2 SUB SWAP1 RETURN JUMPDEST PUSH2 0x139 PUSH1 0x4 DUP1 CALLDATASIZE SUB DUP2 ADD SWAP1 PUSH2 0x134 SWAP2 SWAP1 PUSH2 0x777 JUMP JUMPDEST PUSH2 0x36C JUMP JUMPDEST STOP JUMPDEST PUSH2 0x155 PUSH1 0x4 DUP1 CALLDATASIZE SUB DUP2 ADD SWAP1 PUSH2 0x150 SWAP2 SWAP1 PUSH2 0xA7B JUMP JUMPDEST PUSH2 0x467 JUMP JUMPDEST STOP JUMPDEST PUSH2 0x171 PUSH1 0x4 DUP1 CALLDATASIZE SUB DUP2 ADD SWAP1 PUSH2 0x16C SWAP2 SWAP1 PUSH2 0xAFF JUMP JUMPDEST PUSH2 0x560 JUMP JUMPDEST STOP JUMPDEST PUSH2 0x17B PUSH2 0x5E4 JUMP JUMPDEST PUSH0 PUSH1 0x1 PUSH0 DUP4 DUP2 MSTORE PUSH1 0x20 ADD SWAP1 DUP2 MSTORE PUSH1 0x20 ADD PUSH0 KECCAK256 SWAP1 POP PUSH0 PUSH1 0x2 DUP2 GT ISZERO PUSH2 0x1A2 JUMPI PUSH2 0x1A1 PUSH2 0x821 JUMP JUMPDEST JUMPDEST DUP2 PUSH1 0x3 ADD PUSH0 SWAP1 SLOAD SWAP1 PUSH2 0x100 EXP SWAP1 DIV PUSH1 0xFF AND PUSH1 0x2 DUP2 GT ISZERO PUSH2 0x1C5 JUMPI PUSH2 0x1C4 PUSH2 0x821 JUMP JUMPDEST JUMPDEST EQ PUSH2 0x205 JUMPI PUSH1 0x40 MLOAD PUSH32 0x8C379A000000000000000000000000000000000000000000000000000000000 DUP2 MSTORE PUSH1 0x4 ADD PUSH2 0x1FC SWAP1 PUSH2 0xB74 JUMP JUMPDEST PUSH1 0x40 MLOAD DUP1 SWAP2 SUB SWAP1 REVERT JUMPDEST PUSH1 0x2 DUP2 PUSH1 0x3 ADD PUSH0 PUSH2 0x100 EXP DUP2 SLOAD DUP2 PUSH1 0xFF MUL NOT AND SWAP1 DUP4 PUSH1 0x2 DUP2 GT ISZERO PUSH2 0x22C JUMPI PUSH2 0x22B PUSH2 0x821 JUMP JUMPDEST JUMPDEST MUL OR SWAP1 SSTORE POP DUP2 PUSH32 0x63186546E41A4082C1FA29562D179C8A9F175E2136C3F5F39504F67117F781FB PUSH1 0x2 PUSH1 0x40 MLOAD PUSH2 0x262 SWAP2 SWAP1 PUSH2 0xB92 JUMP JUMPDEST PUSH1 0x40 MLOAD DUP1 SWAP2 SUB SWAP1 LOG2 POP POP JUMP JUMPDEST PUSH1 0x1 PUSH1 0x20 MSTORE DUP1 PUSH0 MSTORE PUSH1 0x40 PUSH0 KECCAK256 PUSH0 SWAP2 POP SWAP1 POP DUP1 PUSH0 ADD SLOAD SWAP1 DUP1 PUSH1 0x1 ADD DUP1 SLOAD PUSH2 0x293 SWAP1 PUSH2 0xBD8 JUMP JUMPDEST DUP1 PUSH1 0x1F ADD PUSH1 0x20 DUP1 SWAP2 DIV MUL PUSH1 0x20 ADD PUSH1 0x40 MLOAD SWAP1 DUP2 ADD PUSH1 0x40 MSTORE DUP1 SWAP3 SWAP2 SWAP1 DUP2 DUP2 MSTORE PUSH1 0x20 ADD DUP3 DUP1 SLOAD PUSH2 0x2BF SWAP1 PUSH2 0xBD8 JUMP JUMPDEST DUP1 ISZERO PUSH2 0x30A JUMPI DUP1 PUSH1 0x1F LT PUSH2 0x2E1 JUMPI PUSH2 0x100 DUP1 DUP4 SLOAD DIV MUL DUP4 MSTORE SWAP2 PUSH1 0x20 ADD SWAP2 PUSH2 0x30A JUMP JUMPDEST DUP3 ADD SWAP2 SWAP1 PUSH0 MSTORE PUSH1 0x20 PUSH0 KECCAK256 SWAP1 JUMPDEST DUP2 SLOAD DUP2 MSTORE SWAP1 PUSH1 0x1 ADD SWAP1 PUSH1 0x20 ADD DUP1 DUP4 GT PUSH2 0x2ED JUMPI DUP3 SWAP1 SUB PUSH1 0x1F AND DUP3 ADD SWAP2 JUMPDEST POP POP POP POP POP SWAP1 DUP1 PUSH1 0x2 ADD SLOAD SWAP1 DUP1 PUSH1 0x3 ADD PUSH0 SWAP1 SLOAD SWAP1 PUSH2 0x100 EXP SWAP1 DIV PUSH1 0xFF AND SWAP1 POP DUP5 JUMP JUMPDEST PUSH2 0x334 PUSH2 0x5E4 JUMP JUMPDEST PUSH2 0x33D PUSH0 PUSH2 0x66B JUMP JUMPDEST JUMP JUMPDEST PUSH0 PUSH0 PUSH0 SWAP1 SLOAD SWAP1 PUSH2 0x100 EXP SWAP1 DIV PUSH20 0xFFFFFFFFFFFFFFFFFFFFFFFFFFFFFFFFFFFFFFFF AND SWAP1 POP SWAP1 JUMP JUMPDEST PUSH1 0x2 SLOAD DUP2 JUMP JUMPDEST PUSH2 0x374 PUSH2 0x5E4 JUMP JUMPDEST PUSH0 PUSH1 0x1 PUSH0 DUP4 DUP2 MSTORE PUSH1 0x20 ADD SWAP1 DUP2 MSTORE PUSH1 0x20 ADD PUSH0 KECCAK256 SWAP1 POP PUSH0 PUSH1 0x2 DUP2 GT ISZERO PUSH2 0x39B JUMPI PUSH2 0x39A PUSH2 0x821 JUMP JUMPDEST JUMPDEST DUP2 PUSH1 0x3 ADD PUSH0 SWAP1 SLOAD SWAP1 PUSH2 0x100 EXP SWAP1 DIV PUSH1 0xFF AND PUSH1 0x2 DUP2 GT ISZERO PUSH2 0x3BE JUMPI PUSH2 0x3BD PUSH2 0x821 JUMP JUMPDEST JUMPDEST EQ PUSH2 0x3FE JUMPI PUSH1 0x40 MLOAD PUSH32 0x8C379A000000000000000000000000000000000000000000000000000000000 DUP2 MSTORE PUSH1 0x4 ADD PUSH2 0x3F5 SWAP1 PUSH2 0xB74 JUMP JUMPDEST PUSH1 0x40 MLOAD DUP1 SWAP2 SUB SWAP1 REVERT JUMPDEST PUSH1 0x1 DUP2 PUSH1 0x3 ADD PUSH0 PUSH2 0x100 EXP DUP2 SLOAD DUP2 PUSH1 0xFF MUL NOT AND SWAP1 DUP4 PUSH1 0x2 DUP2 GT ISZERO PUSH2 0x425 JUMPI PUSH2 0x424 PUSH2 0x821 JUMP JUMPDEST JUMPDEST MUL OR SWAP1 SSTORE POP DUP2 PUSH32 0x63186546E41A4082C1FA29562D179C8A9F175E2136C3F5F39504F67117F781FB PUSH1 0x1 PUSH1 0x40 MLOAD PUSH2 0x45B SWAP2 SWAP1 PUSH2 0xB92 JUMP JUMPDEST PUSH1 0x40 MLOAD DUP1 SWAP2 SUB SWAP1 LOG2 POP POP JUMP JUMPDEST PUSH1 0x2 PUSH0 DUP2 SLOAD DUP1 SWAP3 SWAP2 SWAP1 PUSH2 0x479 SWAP1 PUSH2 0xC35 JUMP JUMPDEST SWAP2 SWAP1 POP SSTORE POP PUSH1 0x40 MLOAD DUP1 PUSH1 0x80 ADD PUSH1 0x40 MSTORE DUP1 PUSH1 0x2 SLOAD DUP2 MSTORE PUSH1 0x20 ADD DUP4 DUP2 MSTORE PUSH1 0x20 ADD DUP3 DUP2 MSTORE PUSH1 0x20 ADD PUSH0 PUSH1 0x2 DUP2 GT ISZERO PUSH2 0x4B0 JUMPI PUSH2 0x4AF PUSH2 0x821 JUMP JUMPDEST JUMPDEST DUP2 MSTORE POP PUSH1 0x1 PUSH0 PUSH1 0x2 SLOAD DUP2 MSTORE PUSH1 0x20 ADD SWAP1 DUP2 MSTORE PUSH1 0x20 ADD PUSH0 KECCAK256 PUSH0 DUP3 ADD MLOAD DUP2 PUSH0 ADD SSTORE PUSH1 0x20 DUP3 ADD MLOAD DUP2 PUSH1 0x1 ADD SWAP1 DUP2 PUSH2 0x4E3 SWAP2 SWAP1 PUSH2 0xE1C JUMP JUMPDEST POP PUSH1 0x40 DUP3 ADD MLOAD DUP2 PUSH1 0x2 ADD SSTORE PUSH1 0x60 DUP3 ADD MLOAD DUP2 PUSH1 0x3 ADD PUSH0 PUSH2 0x100 EXP DUP2 SLOAD DUP2 PUSH1 0xFF MUL NOT AND SWAP1 DUP4 PUSH1 0x2 DUP2 GT ISZERO PUSH2 0x518 JUMPI PUSH2 0x517 PUSH2 0x821 JUMP JUMPDEST JUMPDEST MUL OR SWAP1 SSTORE POP SWAP1 POP POP PUSH1 0x2 SLOAD PUSH32 0x7A7DDACCB026CEB5B95E8C35CACF01335336C5BE6E99BA75AD63BCF811824D38 DUP4 DUP4 PUSH1 0x40 MLOAD PUSH2 0x554 SWAP3 SWAP2 SWAP1 PUSH2 0xEEB JUMP JUMPDEST PUSH1 0x40 MLOAD DUP1 SWAP2 SUB SWAP1 LOG2 POP POP JUMP JUMPDEST PUSH2 0x568 PUSH2 0x5E4 JUMP JUMPDEST PUSH0 PUSH20 0xFFFFFFFFFFFFFFFFFFFFFFFFFFFFFFFFFFFFFFFF AND DUP2 PUSH20 0xFFFFFFFFFFFFFFFFFFFFFFFFFFFFFFFFFFFFFFFF AND SUB PUSH2 0x5D8 JUMPI PUSH0 PUSH1 0x40 MLOAD PUSH32 0x1E4FBDF700000000000000000000000000000000000000000000000000000000 DUP2 MSTORE PUSH1 0x4 ADD PUSH2 0x5CF SWAP2 SWAP1 PUSH2 0x91D JUMP JUMPDEST PUSH1 0x40 MLOAD DUP1 SWAP2 SUB SWAP1 REVERT JUMPDEST PUSH2 0x5E1 DUP2 PUSH2 0x66B JUMP JUMPDEST POP JUMP JUMPDEST PUSH2 0x5EC PUSH2 0x72C JUMP JUMPDEST PUSH20 0xFFFFFFFFFFFFFFFFFFFFFFFFFFFFFFFFFFFFFFFF AND PUSH2 0x60A PUSH2 0x33F JUMP JUMPDEST PUSH20 0xFFFFFFFFFFFFFFFFFFFFFFFFFFFFFFFFFFFFFFFF AND EQ PUSH2 0x669 JUMPI PUSH2 0x62D PUSH2 0x72C JUMP JUMPDEST PUSH1 0x40 MLOAD PUSH32 0x118CDAA700000000000000000000000000000000000000000000000000000000 DUP2 MSTORE PUSH1 0x4 ADD PUSH2 0x660 SWAP2 SWAP1 PUSH2 0x91D JUMP JUMPDEST PUSH1 0x40 MLOAD DUP1 SWAP2 SUB SWAP1 REVERT JUMPDEST JUMP JUMPDEST PUSH0 PUSH0 PUSH0 SWAP1 SLOAD SWAP1 PUSH2 0x100 EXP SWAP1 DIV PUSH20 0xFFFFFFFFFFFFFFFFFFFFFFFFFFFFFFFFFFFFFFFF AND SWAP1 POP DUP2 PUSH0 PUSH0 PUSH2 0x100 EXP DUP2 SLOAD DUP2 PUSH20 0xFFFFFFFFFFFFFFFFFFFFFFFFFFFFFFFFFFFFFFFF MUL NOT AND SWAP1 DUP4 PUSH20 0xFFFFFFFFFFFFFFFFFFFFFFFFFFFFFFFFFFFFFFFF AND MUL OR SWAP1 SSTORE POP DUP2 PUSH20 0xFFFFFFFFFFFFFFFFFFFFFFFFFFFFFFFFFFFFFFFF AND DUP2 PUSH20 0xFFFFFFFFFFFFFFFFFFFFFFFFFFFFFFFFFFFFFFFF AND PUSH32 0x8BE0079C531659141344CD1FD0A4F28419497F9722A3DAAFE3B4186F6B6457E0 PUSH1 0x40 MLOAD PUSH1 0x40 MLOAD DUP1 SWAP2 SUB SWAP1 LOG3 POP POP JUMP JUMPDEST PUSH0 CALLER SWAP1 POP SWAP1 JUMP JUMPDEST PUSH0 PUSH1 0x40 MLOAD SWAP1 POP SWAP1 JUMP JUMPDEST PUSH0 PUSH0 REVERT JUMPDEST PUSH0 PUSH0 REVERT JUMPDEST PUSH0 DUP2 SWAP1 POP SWAP2 SWAP1 POP JUMP JUMPDEST PUSH2 0x756 DUP2 PUSH2 0x744 JUMP JUMPDEST DUP2 EQ PUSH2 0x760 JUMPI PUSH0 PUSH0 REVERT JUMPDEST POP JUMP JUMPDEST PUSH0 DUP2 CALLDATALOAD SWAP1 POP PUSH2 0x771 DUP2 PUSH2 0x74D JUMP JUMPDEST SWAP3 SWAP2 POP POP JUMP JUMPDEST PUSH0 PUSH1 0x20 DUP3 DUP5 SUB SLT ISZERO PUSH2 0x78C JUMPI PUSH2 0x78B PUSH2 0x73C JUMP JUMPDEST JUMPDEST PUSH0 PUSH2 0x799 DUP5 DUP3 DUP6 ADD PUSH2 0x763 JUMP JUMPDEST SWAP2 POP POP SWAP3 SWAP2 POP POP JUMP JUMPDEST PUSH2 0x7AB DUP2 PUSH2 0x744 JUMP JUMPDEST DUP3 MSTORE POP POP JUMP JUMPDEST PUSH0 DUP2 MLOAD SWAP1 POP SWAP2 SWAP1 POP JUMP JUMPDEST PUSH0 DUP3 DUP3 MSTORE PUSH1 0x20 DUP3 ADD SWAP1 POP SWAP3 SWAP2 POP POP JUMP JUMPDEST DUP3 DUP2 DUP4 MCOPY PUSH0 DUP4 DUP4 ADD MSTORE POP POP POP JUMP JUMPDEST PUSH0 PUSH1 0x1F NOT PUSH1 0x1F DUP4 ADD AND SWAP1 POP SWAP2 SWAP1 POP JUMP JUMPDEST PUSH0 PUSH2 0x7F3 DUP3 PUSH2 0x7B1 JUMP JUMPDEST PUSH2 0x7FD DUP2 DUP6 PUSH2 0x7BB JUMP JUMPDEST SWAP4 POP PUSH2 0x80D DUP2 DUP6 PUSH1 0x20 DUP7 ADD PUSH2 0x7CB JUMP JUMPDEST PUSH2 0x816 DUP2 PUSH2 0x7D9 JUMP JUMPDEST DUP5 ADD SWAP2 POP POP SWAP3 SWAP2 POP POP JUMP JUMPDEST PUSH32 0x4E487B7100000000000000000000000000000000000000000000000000000000 PUSH0 MSTORE PUSH1 0x21 PUSH1 0x4 MSTORE PUSH1 0x24 PUSH0 REVERT JUMPDEST PUSH1 0x3 DUP2 LT PUSH2 0x85F JUMPI PUSH2 0x85E PUSH2 0x821 JUMP JUMPDEST JUMPDEST POP JUMP JUMPDEST PUSH0 DUP2 SWAP1 POP PUSH2 0x86F DUP3 PUSH2 0x84E JUMP JUMPDEST SWAP2 SWAP1 POP JUMP JUMPDEST PUSH0 PUSH2 0x87E DUP3 PUSH2 0x862 JUMP JUMPDEST SWAP1 POP SWAP2 SWAP1 POP JUMP JUMPDEST PUSH2 0x88E DUP2 PUSH2 0x874 JUMP JUMPDEST DUP3 MSTORE POP POP JUMP JUMPDEST PUSH0 PUSH1 0x80 DUP3 ADD SWAP1 POP PUSH2 0x8A7 PUSH0 DUP4 ADD DUP8 PUSH2 0x7A2 JUMP JUMPDEST DUP2 DUP2 SUB PUSH1 0x20 DUP4 ADD MSTORE PUSH2 0x8B9 DUP2 DUP7 PUSH2 0x7E9 JUMP JUMPDEST SWAP1 POP PUSH2 0x8C8 PUSH1 0x40 DUP4 ADD DUP6 PUSH2 0x7A2 JUMP JUMPDEST PUSH2 0x8D5 PUSH1 0x60 DUP4 ADD DUP5 PUSH2 0x885 JUMP JUMPDEST SWAP6 SWAP5 POP POP POP POP POP JUMP JUMPDEST PUSH0 PUSH20 0xFFFFFFFFFFFFFFFFFFFFFFFFFFFFFFFFFFFFFFFF DUP3 AND SWAP1 POP SWAP2 SWAP1 POP JUMP JUMPDEST PUSH0 PUSH2 0x907 DUP3 PUSH2 0x8DE JUMP JUMPDEST SWAP1 POP SWAP2 SWAP1 POP JUMP JUMPDEST PUSH2 0x917 DUP2 PUSH2 0x8FD JUMP JUMPDEST DUP3 MSTORE POP POP JUMP JUMPDEST PUSH0 PUSH1 0x20 DUP3 ADD SWAP1 POP PUSH2 0x930 PUSH0 DUP4 ADD DUP5 PUSH2 0x90E JUMP JUMPDEST SWAP3 SWAP2 POP POP JUMP JUMPDEST PUSH0 PUSH1 0x20 DUP3 ADD SWAP1 POP PUSH2 0x949 PUSH0 DUP4 ADD DUP5 PUSH2 0x7A2 JUMP JUMPDEST SWAP3 SWAP2 POP POP JUMP JUMPDEST PUSH0 PUSH0 REVERT JUMPDEST PUSH0 PUSH0 REVERT JUMPDEST PUSH32 0x4E487B7100000000000000000000000000000000000000000000000000000000 PUSH0 MSTORE PUSH1 0x41 PUSH1 0x4 MSTORE PUSH1 0x24 PUSH0 REVERT JUMPDEST PUSH2 0x98D DUP3 PUSH2 0x7D9 JUMP JUMPDEST DUP2 ADD DUP2 DUP2 LT PUSH8 0xFFFFFFFFFFFFFFFF DUP3 GT OR ISZERO PUSH2 0x9AC JUMPI PUSH2 0x9AB PUSH2 0x957 JUMP JUMPDEST JUMPDEST DUP1 PUSH1 0x40 MSTORE POP POP POP JUMP JUMPDEST PUSH0 PUSH2 0x9BE PUSH2 0x733 JUMP JUMPDEST SWAP1 POP PUSH2 0x9CA DUP3 DUP3 PUSH2 0x984 JUMP JUMPDEST SWAP2 SWAP1 POP JUMP JUMPDEST PUSH0 PUSH8 0xFFFFFFFFFFFFFFFF DUP3 GT ISZERO PUSH2 0x9E9 JUMPI PUSH2 0x9E8 PUSH2 0x957 JUMP JUMPDEST JUMPDEST PUSH2 0x9F2 DUP3 PUSH2 0x7D9 JUMP JUMPDEST SWAP1 POP PUSH1 0x20 DUP2 ADD SWAP1 POP SWAP2 SWAP1 POP JUMP JUMPDEST DUP3 DUP2 DUP4 CALLDATACOPY PUSH0 DUP4 DUP4 ADD MSTORE POP POP POP JUMP JUMPDEST PUSH0 PUSH2 0xA1F PUSH2 0xA1A DUP5 PUSH2 0x9CF JUMP JUMPDEST PUSH2 0x9B5 JUMP JUMPDEST SWAP1 POP DUP3 DUP2 MSTORE PUSH1 0x20 DUP2 ADD DUP5 DUP5 DUP5 ADD GT ISZERO PUSH2 0xA3B JUMPI PUSH2 0xA3A PUSH2 0x953 JUMP JUMPDEST JUMPDEST PUSH2 0xA46 DUP5 DUP3 DUP6 PUSH2 0x9FF JUMP JUMPDEST POP SWAP4 SWAP3 POP POP POP JUMP JUMPDEST PUSH0 DUP3 PUSH1 0x1F DUP4 ADD SLT PUSH2 0xA62 JUMPI PUSH2 0xA61 PUSH2 0x94F JUMP JUMPDEST JUMPDEST DUP2 CALLDATALOAD PUSH2 0xA72 DUP5 DUP3 PUSH1 0x20 DUP7 ADD PUSH2 0xA0D JUMP JUMPDEST SWAP2 POP POP SWAP3 SWAP2 POP POP JUMP JUMPDEST PUSH0 PUSH0 PUSH1 0x40 DUP4 DUP6 SUB SLT ISZERO PUSH2 0xA91 JUMPI PUSH2 0xA90 PUSH2 0x73C JUMP JUMPDEST JUMPDEST PUSH0 DUP4 ADD CALLDATALOAD PUSH8 0xFFFFFFFFFFFFFFFF DUP2 GT ISZERO PUSH2 0xAAE JUMPI PUSH2 0xAAD PUSH2 0x740 JUMP JUMPDEST JUMPDEST PUSH2 0xABA DUP6 DUP3 DUP7 ADD PUSH2 0xA4E JUMP JUMPDEST SWAP3 POP POP PUSH1 0x20 PUSH2 0xACB DUP6 DUP3 DUP7 ADD PUSH2 0x763 JUMP JUMPDEST SWAP2 POP POP SWAP3 POP SWAP3 SWAP1 POP JUMP JUMPDEST PUSH2 0xADE DUP2 PUSH2 0x8FD JUMP JUMPDEST DUP2 EQ PUSH2 0xAE8 JUMPI PUSH0 PUSH0 REVERT JUMPDEST POP JUMP JUMPDEST PUSH0 DUP2 CALLDATALOAD SWAP1 POP PUSH2 0xAF9 DUP2 PUSH2 0xAD5 JUMP JUMPDEST SWAP3 SWAP2 POP POP JUMP JUMPDEST PUSH0 PUSH1 0x20 DUP3 DUP5 SUB SLT ISZERO PUSH2 0xB14 JUMPI PUSH2 0xB13 PUSH2 0x73C JUMP JUMPDEST JUMPDEST PUSH0 PUSH2 0xB21 DUP5 DUP3 DUP6 ADD PUSH2 0xAEB JUMP JUMPDEST SWAP2 POP POP SWAP3 SWAP2 POP POP JUMP JUMPDEST PUSH32 0x496E766F6963696E673A20496E766F696365206E6F742070656E64696E670000 PUSH0 DUP3 ADD MSTORE POP JUMP JUMPDEST PUSH0 PUSH2 0xB5E PUSH1 0x1E DUP4 PUSH2 0x7BB JUMP JUMPDEST SWAP2 POP PUSH2 0xB69 DUP3 PUSH2 0xB2A JUMP JUMPDEST PUSH1 0x20 DUP3 ADD SWAP1 POP SWAP2 SWAP1 POP JUMP JUMPDEST PUSH0 PUSH1 0x20 DUP3 ADD SWAP1 POP DUP2 DUP2 SUB PUSH0 DUP4 ADD MSTORE PUSH2 0xB8B DUP2 PUSH2 0xB52 JUMP JUMPDEST SWAP1 POP SWAP2 SWAP1 POP JUMP JUMPDEST PUSH0 PUSH1 0x20 DUP3 ADD SWAP1 POP PUSH2 0xBA5 PUSH0 DUP4 ADD DUP5 PUSH2 0x885 JUMP JUMPDEST SWAP3 SWAP2 POP POP JUMP JUMPDEST PUSH32 0x4E487B7100000000000000000000000000000000000000000000000000000000 PUSH0 MSTORE PUSH1 0x22 PUSH1 0x4 MSTORE PUSH1 0x24 PUSH0 REVERT JUMPDEST PUSH0 PUSH1 0x2 DUP3 DIV SWAP1 POP PUSH1 0x1 DUP3 AND DUP1 PUSH2 0xBEF JUMPI PUSH1 0x7F DUP3 AND SWAP2 POP JUMPDEST PUSH1 0x20 DUP3 LT DUP2 SUB PUSH2 0xC02 JUMPI PUSH2 0xC01 PUSH2 0xBAB JUMP JUMPDEST JUMPDEST POP SWAP2 SWAP1 POP JUMP JUMPDEST PUSH32 0x4E487B7100000000000000000000000000000000000000000000000000000000 PUSH0 MSTORE PUSH1 0x11 PUSH1 0x4 MSTORE PUSH1 0x24 PUSH0 REVERT JUMPDEST PUSH0 PUSH2 0xC3F DUP3 PUSH2 0x744 JUMP JUMPDEST SWAP2 POP PUSH32 0xFFFFFFFFFFFFFFFFFFFFFFFFFFFFFFFFFFFFFFFFFFFFFFFFFFFFFFFFFFFFFFFF DUP3 SUB PUSH2 0xC71 JUMPI PUSH2 0xC70 PUSH2 0xC08 JUMP JUMPDEST JUMPDEST PUSH1 0x1 DUP3 ADD SWAP1 POP SWAP2 SWAP1 POP JUMP JUMPDEST PUSH0 DUP2 SWAP1 POP DUP2 PUSH0 MSTORE PUSH1 0x20 PUSH0 KECCAK256 SWAP1 POP SWAP2 SWAP1 POP JUMP JUMPDEST PUSH0 PUSH1 0x20 PUSH1 0x1F DUP4 ADD DIV SWAP1 POP SWAP2 SWAP1 POP JUMP JUMPDEST PUSH0 DUP3 DUP3 SHL SWAP1 POP SWAP3 SWAP2 POP POP JUMP JUMPDEST PUSH0 PUSH1 0x8 DUP4 MUL PUSH2 0xCD8 PUSH32 0xFFFFFFFFFFFFFFFFFFFFFFFFFFFFFFFFFFFFFFFFFFFFFFFFFFFFFFFFFFFFFFFF DUP3 PUSH2 0xC9D JUMP JUMPDEST PUSH2 0xCE2 DUP7 DUP4 PUSH2 0xC9D JUMP JUMPDEST SWAP6 POP DUP1 NOT DUP5 AND SWAP4 POP DUP1 DUP7 AND DUP5 OR SWAP3 POP POP POP SWAP4 SWAP3 POP POP POP JUMP JUMPDEST PUSH0 DUP2 SWAP1 POP SWAP2 SWAP1 POP JUMP JUMPDEST PUSH0 PUSH2 0xD1D PUSH2 0xD18 PUSH2 0xD13 DUP5 PUSH2 0x744 JUMP JUMPDEST PUSH2 0xCFA JUMP JUMPDEST PUSH2 0x744 JUMP JUMPDEST SWAP1 POP SWAP2 SWAP1 POP JUMP JUMPDEST PUSH0 DUP2 SWAP1 POP SWAP2 SWAP1 POP JUMP JUMPDEST PUSH2 0xD36 DUP4 PUSH2 0xD03 JUMP JUMPDEST PUSH2 0xD4A PUSH2 0xD42 DUP3 PUSH2 0xD24 JUMP JUMPDEST DUP5 DUP5 SLOAD PUSH2 0xCA9 JUMP JUMPDEST DUP3 SSTORE POP POP POP POP JUMP JUMPDEST PUSH0 PUSH0 SWAP1 POP SWAP1 JUMP JUMPDEST PUSH2 0xD61 PUSH2 0xD52 JUMP JUMPDEST PUSH2 0xD6C DUP2 DUP5 DUP5 PUSH2 0xD2D JUMP JUMPDEST POP POP POP JUMP JUMPDEST JUMPDEST DUP2 DUP2 LT ISZERO PUSH2 0xD8F JUMPI PUSH2 0xD84 PUSH0 DUP3 PUSH2 0xD59 JUMP JUMPDEST PUSH1 0x1 DUP2 ADD SWAP1 POP PUSH2 0xD72 JUMP JUMPDEST POP POP JUMP JUMPDEST PUSH1 0x1F DUP3 GT ISZERO PUSH2 0xDD4 JUMPI PUSH2 0xDA5 DUP2 PUSH2 0xC7C JUMP JUMPDEST PUSH2 0xDAE DUP5 PUSH2 0xC8E JUMP JUMPDEST DUP2 ADD PUSH1 0x20 DUP6 LT ISZERO PUSH2 0xDBD JUMPI DUP2 SWAP1 POP JUMPDEST PUSH2 0xDD1 PUSH2 0xDC9 DUP6 PUSH2 0xC8E JUMP JUMPDEST DUP4 ADD DUP3 PUSH2 0xD71 JUMP JUMPDEST POP POP JUMPDEST POP POP POP JUMP JUMPDEST PUSH0 DUP3 DUP3 SHR SWAP1 POP SWAP3 SWAP2 POP POP JUMP JUMPDEST PUSH0 PUSH2 0xDF4 PUSH0 NOT DUP5 PUSH1 0x8 MUL PUSH2 0xDD9 JUMP JUMPDEST NOT DUP1 DUP4 AND SWAP2 POP POP SWAP3 SWAP2 POP POP JUMP JUMPDEST PUSH0 PUSH2 0xE0C DUP4 DUP4 PUSH2 0xDE5 JUMP JUMPDEST SWAP2 POP DUP3 PUSH1 0x2 MUL DUP3 OR SWAP1 POP SWAP3 SWAP2 POP POP JUMP JUMPDEST PUSH2 0xE25 DUP3 PUSH2 0x7B1 JUMP JUMPDEST PUSH8 0xFFFFFFFFFFFFFFFF DUP2 GT ISZERO PUSH2 0xE3E JUMPI PUSH2 0xE3D PUSH2 0x957 JUMP JUMPDEST JUMPDEST PUSH2 0xE48 DUP3 SLOAD PUSH2 0xBD8 JUMP JUMPDEST PUSH2 0xE53 DUP3 DUP3 DUP6 PUSH2 0xD93 JUMP JUMPDEST PUSH0 PUSH1 0x20 SWAP1 POP PUSH1 0x1F DUP4 GT PUSH1 0x1 DUP2 EQ PUSH2 0xE84 JUMPI PUSH0 DUP5 ISZERO PUSH2 0xE72 JUMPI DUP3 DUP8 ADD MLOAD SWAP1 POP JUMPDEST PUSH2 0xE7C DUP6 DUP3 PUSH2 0xE01 JUMP JUMPDEST DUP7 SSTORE POP PUSH2 0xEE3 JUMP JUMPDEST PUSH1 0x1F NOT DUP5 AND PUSH2 0xE92 DUP7 PUSH2 0xC7C JUMP JUMPDEST PUSH0 JUMPDEST DUP3 DUP2 LT ISZERO PUSH2 0xEB9 JUMPI DUP5 DUP10 ADD MLOAD DUP3 SSTORE PUSH1 0x1 DUP3 ADD SWAP2 POP PUSH1 0x20 DUP6 ADD SWAP5 POP PUSH1 0x20 DUP2 ADD SWAP1 POP PUSH2 0xE94 JUMP JUMPDEST DUP7 DUP4 LT ISZERO PUSH2 0xED6 JUMPI DUP5 DUP10 ADD MLOAD PUSH2 0xED2 PUSH1 0x1F DUP10 AND DUP3 PUSH2 0xDE5 JUMP JUMPDEST DUP4 SSTORE POP JUMPDEST PUSH1 0x1 PUSH1 0x2 DUP9 MUL ADD DUP9 SSTORE POP POP POP JUMPDEST POP POP POP POP POP POP JUMP JUMPDEST PUSH0 PUSH1 0x40 DUP3 ADD SWAP1 POP DUP2 DUP2 SUB PUSH0 DUP4 ADD MSTORE PUSH2 0xF03 DUP2 DUP6 PUSH2 0x7E9 JUMP JUMPDEST SWAP1 POP PUSH2 0xF12 PUSH1 0x20 DUP4 ADD DUP5 PUSH2 0x7A2 JUMP JUMPDEST SWAP4 SWAP3 POP POP POP JUMP INVALID LOG2 PUSH5 0x6970667358 0x22 SLT KECCAK256 0xC3 PUSH21 0x769DD419EFA15A55063F8D278501BAD4F262D7BED8 SWAP6 0xC6 0x4E PUSH9 0x274505C6A064736F6C PUSH4 0x4300081E STOP CALLER "
				},
				"gasEstimates": {
					"creation": {
						"codeDepositCost": "783800",
						"executionCost": "infinite",
						"totalCost": "infinite"
					},
					"external": {
						"approveInvoice(uint256)": "infinite",
						"createInvoice(string,uint256)": "infinite",
						"invoiceCounter()": "2425",
						"invoices(uint256)": "infinite",
						"owner()": "2581",
						"rejectInvoice(uint256)": "infinite",
						"renounceOwnership()": "infinite",
						"transferOwnership(address)": "infinite"
					}
				},
				"methodIdentifiers": {
					"approveInvoice(uint256)": "b32413b7",
					"createInvoice(string,uint256)": "d4280d5a",
					"invoiceCounter()": "a57b381c",
					"invoices(uint256)": "4e6d1405",
					"owner()": "8da5cb5b",
					"rejectInvoice(uint256)": "0f9a715e",
					"renounceOwnership()": "715018a6",
					"transferOwnership(address)": "f2fde38b"
				}
			},
			"storageLayout": {
				"storage": [
					{
						"astId": 8,
						"contract": "contracts/utils/Invoicing.sol:Invoicing",
						"label": "_owner",
						"offset": 0,
						"slot": "0",
						"type": "t_address"
					},
					{
						"astId": 201,
						"contract": "contracts/utils/Invoicing.sol:Invoicing",
						"label": "invoices",
						"offset": 0,
						"slot": "1",
						"type": "t_mapping(t_uint256,t_struct(Invoice)196_storage)"
					},
					{
						"astId": 203,
						"contract": "contracts/utils/Invoicing.sol:Invoicing",
						"label": "invoiceCounter",
						"offset": 0,
						"slot": "2",
						"type": "t_uint256"
					}
				],
				"types": {
					"t_address": {
						"encoding": "inplace",
						"label": "address",
						"numberOfBytes": "20"
					},
					"t_enum(InvoiceStatus)186": {
						"encoding": "inplace",
						"label": "enum Invoicing.InvoiceStatus",
						"numberOfBytes": "1"
					},
					"t_mapping(t_uint256,t_struct(Invoice)196_storage)": {
						"encoding": "mapping",
						"key": "t_uint256",
						"label": "mapping(uint256 => struct Invoicing.Invoice)",
						"numberOfBytes": "32",
						"value": "t_struct(Invoice)196_storage"
					},
					"t_string_storage": {
						"encoding": "bytes",
						"label": "string",
						"numberOfBytes": "32"
					},
					"t_struct(Invoice)196_storage": {
						"encoding": "inplace",
						"label": "struct Invoicing.Invoice",
						"members": [
							{
								"astId": 188,
								"contract": "contracts/utils/Invoicing.sol:Invoicing",
								"label": "id",
								"offset": 0,
								"slot": "0",
								"type": "t_uint256"
							},
							{
								"astId": 190,
								"contract": "contracts/utils/Invoicing.sol:Invoicing",
								"label": "description",
								"offset": 0,
								"slot": "1",
								"type": "t_string_storage"
							},
							{
								"astId": 192,
								"contract": "contracts/utils/Invoicing.sol:Invoicing",
								"label": "amount",
								"offset": 0,
								"slot": "2",
								"type": "t_uint256"
							},
							{
								"astId": 195,
								"contract": "contracts/utils/Invoicing.sol:Invoicing",
								"label": "status",
								"offset": 0,
								"slot": "3",
								"type": "t_enum(InvoiceStatus)186"
							}
						],
						"numberOfBytes": "128"
					},
					"t_uint256": {
						"encoding": "inplace",
						"label": "uint256",
						"numberOfBytes": "32"
					}
				}
			},
			"userdoc": {
				"kind": "user",
				"methods": {
					"approveInvoice(uint256)": {
						"notice": "Approves a pending invoice."
					},
					"createInvoice(string,uint256)": {
						"notice": "Creates a new invoice for a project milestone."
					}
				},
				"version": 1
			}
		}
	}
}