{
	"data": {
		"bytecode": {
			"linkReferences": {},
			"object": "60a060405234801561000f575f5ffd5b5060405161255338038061255383398181016040528101906100319190610257565b835f73ffffffffffffffffffffffffffffffffffffffff168173ffffffffffffffffffffffffffffffffffffffff16036100a2575f6040517f1e4fbdf700000000000000000000000000000000000000000000000000000000815260040161009991906102dd565b60405180910390fd5b6100b18161010560201b60201c565b508473ffffffffffffffffffffffffffffffffffffffff1660808173ffffffffffffffffffffffffffffffffffffffff168152505082600181905550816002819055508060038190555050505050506102f6565b5f5f5f9054906101000a900473ffffffffffffffffffffffffffffffffffffffff169050815f5f6101000a81548173ffffffffffffffffffffffffffffffffffffffff021916908373ffffffffffffffffffffffffffffffffffffffff1602179055508173ffffffffffffffffffffffffffffffffffffffff168173ffffffffffffffffffffffffffffffffffffffff167f8be0079c531659141344cd1fd0a4f28419497f9722a3daafe3b4186f6b6457e060405160405180910390a35050565b5f5ffd5b5f73ffffffffffffffffffffffffffffffffffffffff82169050919050565b5f6101f3826101ca565b9050919050565b610203816101e9565b811461020d575f5ffd5b50565b5f8151905061021e816101fa565b92915050565b5f819050919050565b61023681610224565b8114610240575f5ffd5b50565b5f815190506102518161022d565b92915050565b5f5f5f5f5f60a086880312156102705761026f6101c6565b5b5f61027d88828901610210565b955050602061028e88828901610210565b945050604061029f88828901610243565b93505060606102b088828901610243565b92505060806102c188828901610243565b9150509295509295909350565b6102d7816101e9565b82525050565b5f6020820190506102f05f8301846102ce565b92915050565b60805161223761031c5f395f81816104f6015281816107b80152610af701526122375ff3fe6080604052600436106100dc575f3560e01c80637d5e81e21161007e578063da35c66411610058578063da35c664146102bd578063f2fde38b146102e7578063fc0c546a1461030f578063fe0d94c114610339576100dc565b80637d5e81e21461022d5780638da5cb5b14610269578063b58131b014610293576100dc565b80633932abb1116100ba5780633932abb114610175578063438596321461019f57806344c9af28146101db578063715018a614610217576100dc565b8063013cf08b146100e057806302a251a31461012357806315373e3d1461014d575b5f5ffd5b3480156100eb575f5ffd5b5061010660048036038101906101019190611039565b610355565b60405161011a9897969594939291906110cc565b60405180910390f35b34801561012e575f5ffd5b506101376103d1565b6040516101449190611148565b60405180910390f35b348015610158575f5ffd5b50610173600480360381019061016e919061118b565b6103d7565b005b348015610180575f5ffd5b506101896106cb565b6040516101969190611148565b60405180910390f35b3480156101aa575f5ffd5b506101c560048036038101906101c091906111f3565b6106d1565b6040516101d29190611231565b60405180910390f35b3480156101e6575f5ffd5b5061020160048036038101906101fc9190611039565b6106fb565b60405161020e91906112bd565b60405180910390f35b348015610222575f5ffd5b5061022b61079f565b005b348015610238575f5ffd5b50610253600480360381019061024e9190611712565b6107b2565b6040516102609190611148565b60405180910390f35b348015610274575f5ffd5b5061027d610a3e565b60405161028a91906117e6565b60405180910390f35b34801561029e575f5ffd5b506102a7610a65565b6040516102b49190611148565b60405180910390f35b3480156102c8575f5ffd5b506102d1610a6b565b6040516102de9190611148565b60405180910390f35b3480156102f2575f5ffd5b5061030d600480360381019061030891906117ff565b610a71565b005b34801561031a575f5ffd5b50610323610af5565b6040516103309190611885565b60405180910390f35b610353600480360381019061034e9190611039565b610b19565b005b6005602052805f5260405f205f91509050805f015490806001015f9054906101000a900473ffffffffffffffffffffffffffffffffffffffff1690806005015490806006015490806007015490806008015490806009015f9054906101000a900460ff16908060090160019054906101000a900460ff16905088565b60025481565b5f60055f8481526020019081526020015f209050600160058111156103ff576103fe61124a565b5b610408846106fb565b600581111561041a5761041961124a565b5b1461045a576040517f08c379a0000000000000000000000000000000000000000000000000000000008152600401610451906118f8565b60405180910390fd5b60065f8481526020019081526020015f205f3373ffffffffffffffffffffffffffffffffffffffff1673ffffffffffffffffffffffffffffffffffffffff1681526020019081526020015f205f9054906101000a900460ff16156104f3576040517f08c379a00000000000000000000000000000000000000000000000000000000081526004016104ea90611986565b60405180910390fd5b5f7f000000000000000000000000000000000000000000000000000000000000000073ffffffffffffffffffffffffffffffffffffffff16639ab24eb0336040518263ffffffff1660e01b815260040161054d91906117e6565b602060405180830381865afa158015610568573d5f5f3e3d5ffd5b505050506040513d601f19601f8201168201806040525081019061058c91906119b8565b90505f81116105d0576040517f08c379a00000000000000000000000000000000000000000000000000000000081526004016105c790611a2d565b60405180910390fd5b82156105f55780826007015f8282546105e99190611a78565b92505081905550610610565b80826008015f8282546106089190611a78565b925050819055505b600160065f8681526020019081526020015f205f3373ffffffffffffffffffffffffffffffffffffffff1673ffffffffffffffffffffffffffffffffffffffff1681526020019081526020015f205f6101000a81548160ff021916908315150217905550833373ffffffffffffffffffffffffffffffffffffffff167f877856338e13f63d0c36822ff0ef736b80934cd90574a3a5bc9262c39d217c4685846040516106bd929190611aab565b60405180910390a350505050565b60015481565b6006602052815f5260405f20602052805f5260405f205f915091509054906101000a900460ff1681565b5f5f60055f8481526020019081526020015f2090508060090160019054906101000a900460ff161561073157600491505061079a565b806009015f9054906101000a900460ff161561075157600591505061079a565b80600501544311610765575f91505061079a565b8060060154431161077a57600191505061079a565b80600801548160070154111561079457600291505061079a565b60039150505b919050565b6107a7610d02565b6107b05f610d89565b565b5f6003547f000000000000000000000000000000000000000000000000000000000000000073ffffffffffffffffffffffffffffffffffffffff16639ab24eb0336040518263ffffffff1660e01b815260040161080f91906117e6565b602060405180830381865afa15801561082a573d5f5f3e3d5ffd5b505050506040513d601f19601f8201168201806040525081019061084e91906119b8565b101561088f576040517f08c379a000000000000000000000000000000000000000000000000000000000815260040161088690611b42565b60405180910390fd5b835185511480156108a1575082518551145b6108e0576040517f08c379a00000000000000000000000000000000000000000000000000000000081526004016108d790611bd0565b60405180910390fd5b60045f8154809291906108f290611bee565b91905055505f60055f60045481526020019081526020015f209050600454815f018190555033816001015f6101000a81548173ffffffffffffffffffffffffffffffffffffffff021916908373ffffffffffffffffffffffffffffffffffffffff16021790555085816002019080519060200190610971929190610e51565b508481600301908051906020019061098a929190610ed8565b50838160040190805190602001906109a3929190610f23565b50600154436109b29190611a78565b8160050181905550600254600154436109cb9190611a78565b6109d59190611a78565b81600601819055503373ffffffffffffffffffffffffffffffffffffffff166004547f6f6c9c63e4bcafb25f5e4cfc3bd4a29f1d33adf0f567187b0b6dc5fb4b9a3e698886604051610a28929190611d3c565b60405180910390a3600454915050949350505050565b5f5f5f9054906101000a900473ffffffffffffffffffffffffffffffffffffffff16905090565b60035481565b60045481565b610a79610d02565b5f73ffffffffffffffffffffffffffffffffffffffff168173ffffffffffffffffffffffffffffffffffffffff1603610ae9575f6040517f1e4fbdf7000000000000000000000000000000000000000000000000000000008152600401610ae091906117e6565b60405180910390fd5b610af281610d89565b50565b7f000000000000000000000000000000000000000000000000000000000000000081565b5f60055f8381526020019081526020015f20905060026005811115610b4157610b4061124a565b5b610b4a836106fb565b6005811115610b5c57610b5b61124a565b5b14610b9c576040517f08c379a0000000000000000000000000000000000000000000000000000000008152600401610b9390611de1565b60405180910390fd5b60018160090160016101000a81548160ff0219169083151502179055505f5f90505b8160020180549050811015610cfd575f826002018281548110610be457610be3611dff565b5b905f5260205f20015f9054906101000a900473ffffffffffffffffffffffffffffffffffffffff1673ffffffffffffffffffffffffffffffffffffffff16836003018381548110610c3857610c37611dff565b5b905f5260205f200154846004018481548110610c5757610c56611dff565b5b905f5260205f2001604051610c6c9190611f25565b5f6040518083038185875af1925050503d805f8114610ca6576040519150601f19603f3d011682016040523d82523d5f602084013e610cab565b606091505b5050905080610cef576040517f08c379a0000000000000000000000000000000000000000000000000000000008152600401610ce690611f85565b60405180910390fd5b508080600101915050610bbe565b505050565b610d0a610e4a565b73ffffffffffffffffffffffffffffffffffffffff16610d28610a3e565b73ffffffffffffffffffffffffffffffffffffffff1614610d8757610d4b610e4a565b6040517f118cdaa7000000000000000000000000000000000000000000000000000000008152600401610d7e91906117e6565b60405180910390fd5b565b5f5f5f9054906101000a900473ffffffffffffffffffffffffffffffffffffffff169050815f5f6101000a81548173ffffffffffffffffffffffffffffffffffffffff021916908373ffffffffffffffffffffffffffffffffffffffff1602179055508173ffffffffffffffffffffffffffffffffffffffff168173ffffffffffffffffffffffffffffffffffffffff167f8be0079c531659141344cd1fd0a4f28419497f9722a3daafe3b4186f6b6457e060405160405180910390a35050565b5f33905090565b828054828255905f5260205f20908101928215610ec7579160200282015b82811115610ec6578251825f6101000a81548173ffffffffffffffffffffffffffffffffffffffff021916908373ffffffffffffffffffffffffffffffffffffffff16021790555091602001919060010190610e6f565b5b509050610ed49190610f7a565b5090565b828054828255905f5260205f20908101928215610f12579160200282015b82811115610f11578251825591602001919060010190610ef6565b5b509050610f1f9190610f7a565b5090565b828054828255905f5260205f20908101928215610f69579160200282015b82811115610f68578251829081610f589190612132565b5091602001919060010190610f41565b5b509050610f769190610f95565b5090565b5b80821115610f91575f815f905550600101610f7b565b5090565b5b80821115610fb4575f8181610fab9190610fb8565b50600101610f96565b5090565b508054610fc490611e59565b5f825580601f10610fd55750610ff2565b601f0160209004905f5260205f2090810190610ff19190610f7a565b5b50565b5f604051905090565b5f5ffd5b5f5ffd5b5f819050919050565b61101881611006565b8114611022575f5ffd5b50565b5f813590506110338161100f565b92915050565b5f6020828403121561104e5761104d610ffe565b5b5f61105b84828501611025565b91505092915050565b61106d81611006565b82525050565b5f73ffffffffffffffffffffffffffffffffffffffff82169050919050565b5f61109c82611073565b9050919050565b6110ac81611092565b82525050565b5f8115159050919050565b6110c6816110b2565b82525050565b5f610100820190506110e05f83018b611064565b6110ed602083018a6110a3565b6110fa6040830189611064565b6111076060830188611064565b6111146080830187611064565b61112160a0830186611064565b61112e60c08301856110bd565b61113b60e08301846110bd565b9998505050505050505050565b5f60208201905061115b5f830184611064565b92915050565b61116a816110b2565b8114611174575f5ffd5b50565b5f8135905061118581611161565b92915050565b5f5f604083850312156111a1576111a0610ffe565b5b5f6111ae85828601611025565b92505060206111bf85828601611177565b9150509250929050565b6111d281611092565b81146111dc575f5ffd5b50565b5f813590506111ed816111c9565b92915050565b5f5f6040838503121561120957611208610ffe565b5b5f61121685828601611025565b9250506020611227858286016111df565b9150509250929050565b5f6020820190506112445f8301846110bd565b92915050565b7f4e487b71000000000000000000000000000000000000000000000000000000005f52602160045260245ffd5b600681106112885761128761124a565b5b50565b5f81905061129882611277565b919050565b5f6112a78261128b565b9050919050565b6112b78161129d565b82525050565b5f6020820190506112d05f8301846112ae565b92915050565b5f5ffd5b5f601f19601f8301169050919050565b7f4e487b71000000000000000000000000000000000000000000000000000000005f52604160045260245ffd5b611320826112da565b810181811067ffffffffffffffff8211171561133f5761133e6112ea565b5b80604052505050565b5f611351610ff5565b905061135d8282611317565b919050565b5f67ffffffffffffffff82111561137c5761137b6112ea565b5b602082029050602081019050919050565b5f5ffd5b5f6113a361139e84611362565b611348565b905080838252602082019050602084028301858111156113c6576113c561138d565b5b835b818110156113ef57806113db88826111df565b8452602084019350506020810190506113c8565b5050509392505050565b5f82601f83011261140d5761140c6112d6565b5b813561141d848260208601611391565b91505092915050565b5f67ffffffffffffffff8211156114405761143f6112ea565b5b602082029050602081019050919050565b5f61146361145e84611426565b611348565b905080838252602082019050602084028301858111156114865761148561138d565b5b835b818110156114af578061149b8882611025565b845260208401935050602081019050611488565b5050509392505050565b5f82601f8301126114cd576114cc6112d6565b5b81356114dd848260208601611451565b91505092915050565b5f67ffffffffffffffff821115611500576114ff6112ea565b5b602082029050602081019050919050565b5f5ffd5b5f67ffffffffffffffff82111561152f5761152e6112ea565b5b611538826112da565b9050602081019050919050565b828183375f83830152505050565b5f61156561156084611515565b611348565b90508281526020810184848401111561158157611580611511565b5b61158c848285611545565b509392505050565b5f82601f8301126115a8576115a76112d6565b5b81356115b8848260208601611553565b91505092915050565b5f6115d36115ce846114e6565b611348565b905080838252602082019050602084028301858111156115f6576115f561138d565b5b835b8181101561163d57803567ffffffffffffffff81111561161b5761161a6112d6565b5b8086016116288982611594565b855260208501945050506020810190506115f8565b5050509392505050565b5f82601f83011261165b5761165a6112d6565b5b813561166b8482602086016115c1565b91505092915050565b5f67ffffffffffffffff82111561168e5761168d6112ea565b5b611697826112da565b9050602081019050919050565b5f6116b66116b184611674565b611348565b9050828152602081018484840111156116d2576116d1611511565b5b6116dd848285611545565b509392505050565b5f82601f8301126116f9576116f86112d6565b5b81356117098482602086016116a4565b91505092915050565b5f5f5f5f6080858703121561172a57611729610ffe565b5b5f85013567ffffffffffffffff81111561174757611746611002565b5b611753878288016113f9565b945050602085013567ffffffffffffffff81111561177457611773611002565b5b611780878288016114b9565b935050604085013567ffffffffffffffff8111156117a1576117a0611002565b5b6117ad87828801611647565b925050606085013567ffffffffffffffff8111156117ce576117cd611002565b5b6117da878288016116e5565b91505092959194509250565b5f6020820190506117f95f8301846110a3565b92915050565b5f6020828403121561181457611813610ffe565b5b5f611821848285016111df565b91505092915050565b5f819050919050565b5f61184d61184861184384611073565b61182a565b611073565b9050919050565b5f61185e82611833565b9050919050565b5f61186f82611854565b9050919050565b61187f81611865565b82525050565b5f6020820190506118985f830184611876565b92915050565b5f82825260208201905092915050565b7f476f7665726e616e63653a20566f74696e67206973206e6f74206163746976655f82015250565b5f6118e260208361189e565b91506118ed826118ae565b602082019050919050565b5f6020820190508181035f83015261190f816118d6565b9050919050565b7f476f7665726e616e63653a20566f7465722068617320616c726561647920766f5f8201527f7465640000000000000000000000000000000000000000000000000000000000602082015250565b5f61197060238361189e565b915061197b82611916565b604082019050919050565b5f6020820190508181035f83015261199d81611964565b9050919050565b5f815190506119b28161100f565b92915050565b5f602082840312156119cd576119cc610ffe565b5b5f6119da848285016119a4565b91505092915050565b7f476f7665726e616e63653a204e6f20766f74696e6720706f77657200000000005f82015250565b5f611a17601b8361189e565b9150611a22826119e3565b602082019050919050565b5f6020820190508181035f830152611a4481611a0b565b9050919050565b7f4e487b71000000000000000000000000000000000000000000000000000000005f52601160045260245ffd5b5f611a8282611006565b9150611a8d83611006565b9250828201905080821115611aa557611aa4611a4b565b5b92915050565b5f604082019050611abe5f8301856110bd565b611acb6020830184611064565b9392505050565b7f476f7665726e616e63653a2050726f706f7365722068617320696e73756666695f8201527f6369656e7420766f74696e6720706f7765720000000000000000000000000000602082015250565b5f611b2c60328361189e565b9150611b3782611ad2565b604082019050919050565b5f6020820190508181035f830152611b5981611b20565b9050919050565b7f476f7665726e616e63653a20496e76616c69642070726f706f73616c207061725f8201527f616d657465727300000000000000000000000000000000000000000000000000602082015250565b5f611bba60278361189e565b9150611bc582611b60565b604082019050919050565b5f6020820190508181035f830152611be781611bae565b9050919050565b5f611bf882611006565b91507fffffffffffffffffffffffffffffffffffffffffffffffffffffffffffffffff8203611c2a57611c29611a4b565b5b600182019050919050565b5f81519050919050565b5f82825260208201905092915050565b5f819050602082019050919050565b611c6781611092565b82525050565b5f611c788383611c5e565b60208301905092915050565b5f602082019050919050565b5f611c9a82611c35565b611ca48185611c3f565b9350611caf83611c4f565b805f5b83811015611cdf578151611cc68882611c6d565b9750611cd183611c84565b925050600181019050611cb2565b5085935050505092915050565b5f81519050919050565b8281835e5f83830152505050565b5f611d0e82611cec565b611d18818561189e565b9350611d28818560208601611cf6565b611d31816112da565b840191505092915050565b5f6040820190508181035f830152611d548185611c90565b90508181036020830152611d688184611d04565b90509392505050565b7f476f7665726e616e63653a2050726f706f73616c206e6f7420737563636573735f8201527f66756c0000000000000000000000000000000000000000000000000000000000602082015250565b5f611dcb60238361189e565b9150611dd682611d71565b604082019050919050565b5f6020820190508181035f830152611df881611dbf565b9050919050565b7f4e487b71000000000000000000000000000000000000000000000000000000005f52603260045260245ffd5b7f4e487b71000000000000000000000000000000000000000000000000000000005f52602260045260245ffd5b5f6002820490506001821680611e7057607f821691505b602082108103611e8357611e82611e2c565b5b50919050565b5f81905092915050565b5f819050815f5260205f209050919050565b5f8154611eb181611e59565b611ebb8186611e89565b9450600182165f8114611ed55760018114611eea57611f1c565b60ff1983168652811515820286019350611f1c565b611ef385611e93565b5f5b83811015611f1457815481890152600182019150602081019050611ef5565b838801955050505b50505092915050565b5f611f308284611ea5565b915081905092915050565b7f476f7665726e616e63653a20457865637574696f6e206661696c6564000000005f82015250565b5f611f6f601c8361189e565b9150611f7a82611f3b565b602082019050919050565b5f6020820190508181035f830152611f9c81611f63565b9050919050565b5f81519050919050565b5f6020601f8301049050919050565b5f82821b905092915050565b5f60088302611ff77fffffffffffffffffffffffffffffffffffffffffffffffffffffffffffffffff82611fbc565b6120018683611fbc565b95508019841693508086168417925050509392505050565b5f61203361202e61202984611006565b61182a565b611006565b9050919050565b5f819050919050565b61204c83612019565b6120606120588261203a565b848454611fc8565b825550505050565b5f5f905090565b612077612068565b612082818484612043565b505050565b5b818110156120a55761209a5f8261206f565b600181019050612088565b5050565b601f8211156120ea576120bb81611e93565b6120c484611fad565b810160208510156120d3578190505b6120e76120df85611fad565b830182612087565b50505b505050565b5f82821c905092915050565b5f61210a5f19846008026120ef565b1980831691505092915050565b5f61212283836120fb565b9150826002028217905092915050565b61213b82611fa3565b67ffffffffffffffff811115612154576121536112ea565b5b61215e8254611e59565b6121698282856120a9565b5f60209050601f83116001811461219a575f8415612188578287015190505b6121928582612117565b8655506121f9565b601f1984166121a886611e93565b5f5b828110156121cf578489015182556001820191506020850194506020810190506121aa565b868310156121ec57848901516121e8601f8916826120fb565b8355505b6001600288020188555050505b50505050505056fea2646970667358221220a1f58f797fefad5b1ab5a40b5cfcf82c58ac85b6e3c43a35b8e7c3b2662b183864736f6c634300081e0033",
			"opcodes": "PUSH1 0xA0 PUSH1 0x40 MSTORE CALLVALUE DUP1 ISZERO PUSH2 0xF JUMPI PUSH0 PUSH0 REVERT JUMPDEST POP PUSH1 0x40 MLOAD PUSH2 0x2553 CODESIZE SUB DUP1 PUSH2 0x2553 DUP4 CODECOPY DUP2 DUP2 ADD PUSH1 0x40 MSTORE DUP2 ADD SWAP1 PUSH2 0x31 SWAP2 SWAP1 PUSH2 0x257 JUMP JUMPDEST DUP4 PUSH0 PUSH20 0xFFFFFFFFFFFFFFFFFFFFFFFFFFFFFFFFFFFFFFFF AND DUP2 PUSH20 0xFFFFFFFFFFFFFFFFFFFFFFFFFFFFFFFFFFFFFFFF AND SUB PUSH2 0xA2 JUMPI PUSH0 PUSH1 0x40 MLOAD PUSH32 0x1E4FBDF700000000000000000000000000000000000000000000000000000000 DUP2 MSTORE PUSH1 0x4 ADD PUSH2 0x99 SWAP2 SWAP1 PUSH2 0x2DD JUMP JUMPDEST PUSH1 0x40 MLOAD DUP1 SWAP2 SUB SWAP1 REVERT JUMPDEST PUSH2 0xB1 DUP2 PUSH2 0x105 PUSH1 0x20 SHL PUSH1 0x20 SHR JUMP JUMPDEST POP DUP5 PUSH20 0xFFFFFFFFFFFFFFFFFFFFFFFFFFFFFFFFFFFFFFFF AND PUSH1 0x80 DUP2 PUSH20 0xFFFFFFFFFFFFFFFFFFFFFFFFFFFFFFFFFFFFFFFF AND DUP2 MSTORE POP POP DUP3 PUSH1 0x1 DUP2 SWAP1 SSTORE POP DUP2 PUSH1 0x2 DUP2 SWAP1 SSTORE POP DUP1 PUSH1 0x3 DUP2 SWAP1 SSTORE POP POP POP POP POP POP PUSH2 0x2F6 JUMP JUMPDEST PUSH0 PUSH0 PUSH0 SWAP1 SLOAD SWAP1 PUSH2 0x100 EXP SWAP1 DIV PUSH20 0xFFFFFFFFFFFFFFFFFFFFFFFFFFFFFFFFFFFFFFFF AND SWAP1 POP DUP2 PUSH0 PUSH0 PUSH2 0x100 EXP DUP2 SLOAD DUP2 PUSH20 0xFFFFFFFFFFFFFFFFFFFFFFFFFFFFFFFFFFFFFFFF MUL NOT AND SWAP1 DUP4 PUSH20 0xFFFFFFFFFFFFFFFFFFFFFFFFFFFFFFFFFFFFFFFF AND MUL OR SWAP1 SSTORE POP DUP2 PUSH20 0xFFFFFFFFFFFFFFFFFFFFFFFFFFFFFFFFFFFFFFFF AND DUP2 PUSH20 0xFFFFFFFFFFFFFFFFFFFFFFFFFFFFFFFFFFFFFFFF AND PUSH32 0x8BE0079C531659141344CD1FD0A4F28419497F9722A3DAAFE3B4186F6B6457E0 PUSH1 0x40 MLOAD PUSH1 0x40 MLOAD DUP1 SWAP2 SUB SWAP1 LOG3 POP POP JUMP JUMPDEST PUSH0 PUSH0 REVERT JUMPDEST PUSH0 PUSH20 0xFFFFFFFFFFFFFFFFFFFFFFFFFFFFFFFFFFFFFFFF DUP3 AND SWAP1 POP SWAP2 SWAP1 POP JUMP JUMPDEST PUSH0 PUSH2 0x1F3 DUP3 PUSH2 0x1CA JUMP JUMPDEST SWAP1 POP SWAP2 SWAP1 POP JUMP JUMPDEST PUSH2 0x203 DUP2 PUSH2 0x1E9 JUMP JUMPDEST DUP2 EQ PUSH2 0x20D JUMPI PUSH0 PUSH0 REVERT JUMPDEST POP JUMP JUMPDEST PUSH0 DUP2 MLOAD SWAP1 POP PUSH2 0x21E DUP2 PUSH2 0x1FA JUMP JUMPDEST SWAP3 SWAP2 POP POP JUMP JUMPDEST PUSH0 DUP2 SWAP1 POP SWAP2 SWAP1 POP JUMP JUMPDEST PUSH2 0x236 DUP2 PUSH2 0x224 JUMP JUMPDEST DUP2 EQ PUSH2 0x240 JUMPI PUSH0 PUSH0 REVERT JUMPDEST POP JUMP JUMPDEST PUSH0 DUP2 MLOAD SWAP1 POP PUSH2 0x251 DUP2 PUSH2 0x22D JUMP JUMPDEST SWAP3 SWAP2 POP POP JUMP JUMPDEST PUSH0 PUSH0 PUSH0 PUSH0 PUSH0 PUSH1 0xA0 DUP7 DUP9 SUB SLT ISZERO PUSH2 0x270 JUMPI PUSH2 0x26F PUSH2 0x1C6 JUMP JUMPDEST JUMPDEST PUSH0 PUSH2 0x27D DUP9 DUP3 DUP10 ADD PUSH2 0x210 JUMP JUMPDEST SWAP6 POP POP PUSH1 0x20 PUSH2 0x28E DUP9 DUP3 DUP10 ADD PUSH2 0x210 JUMP JUMPDEST SWAP5 POP POP PUSH1 0x40 PUSH2 0x29F DUP9 DUP3 DUP10 ADD PUSH2 0x243 JUMP JUMPDEST SWAP4 POP POP PUSH1 0x60 PUSH2 0x2B0 DUP9 DUP3 DUP10 ADD PUSH2 0x243 JUMP JUMPDEST SWAP3 POP POP PUSH1 0x80 PUSH2 0x2C1 DUP9 DUP3 DUP10 ADD PUSH2 0x243 JUMP JUMPDEST SWAP2 POP POP SWAP3 SWAP6 POP SWAP3 SWAP6 SWAP1 SWAP4 POP JUMP JUMPDEST PUSH2 0x2D7 DUP2 PUSH2 0x1E9 JUMP JUMPDEST DUP3 MSTORE POP POP JUMP JUMPDEST PUSH0 PUSH1 0x20 DUP3 ADD SWAP1 POP PUSH2 0x2F0 PUSH0 DUP4 ADD DUP5 PUSH2 0x2CE JUMP JUMPDEST SWAP3 SWAP2 POP POP JUMP JUMPDEST PUSH1 0x80 MLOAD PUSH2 0x2237 PUSH2 0x31C PUSH0 CODECOPY PUSH0 DUP2 DUP2 PUSH2 0x4F6 ADD MSTORE DUP2 DUP2 PUSH2 0x7B8 ADD MSTORE PUSH2 0xAF7 ADD MSTORE PUSH2 0x2237 PUSH0 RETURN INVALID PUSH1 0x80 PUSH1 0x40 MSTORE PUSH1 0x4 CALLDATASIZE LT PUSH2 0xDC JUMPI PUSH0 CALLDATALOAD PUSH1 0xE0 SHR DUP1 PUSH4 0x7D5E81E2 GT PUSH2 0x7E JUMPI DUP1 PUSH4 0xDA35C664 GT PUSH2 0x58 JUMPI DUP1 PUSH4 0xDA35C664 EQ PUSH2 0x2BD JUMPI DUP1 PUSH4 0xF2FDE38B EQ PUSH2 0x2E7 JUMPI DUP1 PUSH4 0xFC0C546A EQ PUSH2 0x30F JUMPI DUP1 PUSH4 0xFE0D94C1 EQ PUSH2 0x339 JUMPI PUSH2 0xDC JUMP JUMPDEST DUP1 PUSH4 0x7D5E81E2 EQ PUSH2 0x22D JUMPI DUP1 PUSH4 0x8DA5CB5B EQ PUSH2 0x269 JUMPI DUP1 PUSH4 0xB58131B0 EQ PUSH2 0x293 JUMPI PUSH2 0xDC JUMP JUMPDEST DUP1 PUSH4 0x3932ABB1 GT PUSH2 0xBA JUMPI DUP1 PUSH4 0x3932ABB1 EQ PUSH2 0x175 JUMPI DUP1 PUSH4 0x43859632 EQ PUSH2 0x19F JUMPI DUP1 PUSH4 0x44C9AF28 EQ PUSH2 0x1DB JUMPI DUP1 PUSH4 0x715018A6 EQ PUSH2 0x217 JUMPI PUSH2 0xDC JUMP JUMPDEST DUP1 PUSH4 0x13CF08B EQ PUSH2 0xE0 JUMPI DUP1 PUSH4 0x2A251A3 EQ PUSH2 0x123 JUMPI DUP1 PUSH4 0x15373E3D EQ PUSH2 0x14D JUMPI JUMPDEST PUSH0 PUSH0 REVERT JUMPDEST CALLVALUE DUP1 ISZERO PUSH2 0xEB JUMPI PUSH0 PUSH0 REVERT JUMPDEST POP PUSH2 0x106 PUSH1 0x4 DUP1 CALLDATASIZE SUB DUP2 ADD SWAP1 PUSH2 0x101 SWAP2 SWAP1 PUSH2 0x1039 JUMP JUMPDEST PUSH2 0x355 JUMP JUMPDEST PUSH1 0x40 MLOAD PUSH2 0x11A SWAP9 SWAP8 SWAP7 SWAP6 SWAP5 SWAP4 SWAP3 SWAP2 SWAP1 PUSH2 0x10CC JUMP JUMPDEST PUSH1 0x40 MLOAD DUP1 SWAP2 SUB SWAP1 RETURN JUMPDEST CALLVALUE DUP1 ISZERO PUSH2 0x12E JUMPI PUSH0 PUSH0 REVERT JUMPDEST POP PUSH2 0x137 PUSH2 0x3D1 JUMP JUMPDEST PUSH1 0x40 MLOAD PUSH2 0x144 SWAP2 SWAP1 PUSH2 0x1148 JUMP JUMPDEST PUSH1 0x40 MLOAD DUP1 SWAP2 SUB SWAP1 RETURN JUMPDEST CALLVALUE DUP1 ISZERO PUSH2 0x158 JUMPI PUSH0 PUSH0 REVERT JUMPDEST POP PUSH2 0x173 PUSH1 0x4 DUP1 CALLDATASIZE SUB DUP2 ADD SWAP1 PUSH2 0x16E SWAP2 SWAP1 PUSH2 0x118B JUMP JUMPDEST PUSH2 0x3D7 JUMP JUMPDEST STOP JUMPDEST CALLVALUE DUP1 ISZERO PUSH2 0x180 JUMPI PUSH0 PUSH0 REVERT JUMPDEST POP PUSH2 0x189 PUSH2 0x6CB JUMP JUMPDEST PUSH1 0x40 MLOAD PUSH2 0x196 SWAP2 SWAP1 PUSH2 0x1148 JUMP JUMPDEST PUSH1 0x40 MLOAD DUP1 SWAP2 SUB SWAP1 RETURN JUMPDEST CALLVALUE DUP1 ISZERO PUSH2 0x1AA JUMPI PUSH0 PUSH0 REVERT JUMPDEST POP PUSH2 0x1C5 PUSH1 0x4 DUP1 CALLDATASIZE SUB DUP2 ADD SWAP1 PUSH2 0x1C0 SWAP2 SWAP1 PUSH2 0x11F3 JUMP JUMPDEST PUSH2 0x6D1 JUMP JUMPDEST PUSH1 0x40 MLOAD PUSH2 0x1D2 SWAP2 SWAP1 PUSH2 0x1231 JUMP JUMPDEST PUSH1 0x40 MLOAD DUP1 SWAP2 SUB SWAP1 RETURN JUMPDEST CALLVALUE DUP1 ISZERO PUSH2 0x1E6 JUMPI PUSH0 PUSH0 REVERT JUMPDEST POP PUSH2 0x201 PUSH1 0x4 DUP1 CALLDATASIZE SUB DUP2 ADD SWAP1 PUSH2 0x1FC SWAP2 SWAP1 PUSH2 0x1039 JUMP JUMPDEST PUSH2 0x6FB JUMP JUMPDEST PUSH1 0x40 MLOAD PUSH2 0x20E SWAP2 SWAP1 PUSH2 0x12BD JUMP JUMPDEST PUSH1 0x40 MLOAD DUP1 SWAP2 SUB SWAP1 RETURN JUMPDEST CALLVALUE DUP1 ISZERO PUSH2 0x222 JUMPI PUSH0 PUSH0 REVERT JUMPDEST POP PUSH2 0x22B PUSH2 0x79F JUMP JUMPDEST STOP JUMPDEST CALLVALUE DUP1 ISZERO PUSH2 0x238 JUMPI PUSH0 PUSH0 REVERT JUMPDEST POP PUSH2 0x253 PUSH1 0x4 DUP1 CALLDATASIZE SUB DUP2 ADD SWAP1 PUSH2 0x24E SWAP2 SWAP1 PUSH2 0x1712 JUMP JUMPDEST PUSH2 0x7B2 JUMP JUMPDEST PUSH1 0x40 MLOAD PUSH2 0x260 SWAP2 SWAP1 PUSH2 0x1148 JUMP JUMPDEST PUSH1 0x40 MLOAD DUP1 SWAP2 SUB SWAP1 RETURN JUMPDEST CALLVALUE DUP1 ISZERO PUSH2 0x274 JUMPI PUSH0 PUSH0 REVERT JUMPDEST POP PUSH2 0x27D PUSH2 0xA3E JUMP JUMPDEST PUSH1 0x40 MLOAD PUSH2 0x28A SWAP2 SWAP1 PUSH2 0x17E6 JUMP JUMPDEST PUSH1 0x40 MLOAD DUP1 SWAP2 SUB SWAP1 RETURN JUMPDEST CALLVALUE DUP1 ISZERO PUSH2 0x29E JUMPI PUSH0 PUSH0 REVERT JUMPDEST POP PUSH2 0x2A7 PUSH2 0xA65 JUMP JUMPDEST PUSH1 0x40 MLOAD PUSH2 0x2B4 SWAP2 SWAP1 PUSH2 0x1148 JUMP JUMPDEST PUSH1 0x40 MLOAD DUP1 SWAP2 SUB SWAP1 RETURN JUMPDEST CALLVALUE DUP1 ISZERO PUSH2 0x2C8 JUMPI PUSH0 PUSH0 REVERT JUMPDEST POP PUSH2 0x2D1 PUSH2 0xA6B JUMP JUMPDEST PUSH1 0x40 MLOAD PUSH2 0x2DE SWAP2 SWAP1 PUSH2 0x1148 JUMP JUMPDEST PUSH1 0x40 MLOAD DUP1 SWAP2 SUB SWAP1 RETURN JUMPDEST CALLVALUE DUP1 ISZERO PUSH2 0x2F2 JUMPI PUSH0 PUSH0 REVERT JUMPDEST POP PUSH2 0x30D PUSH1 0x4 DUP1 CALLDATASIZE SUB DUP2 ADD SWAP1 PUSH2 0x308 SWAP2 SWAP1 PUSH2 0x17FF JUMP JUMPDEST PUSH2 0xA71 JUMP JUMPDEST STOP JUMPDEST CALLVALUE DUP1 ISZERO PUSH2 0x31A JUMPI PUSH0 PUSH0 REVERT JUMPDEST POP PUSH2 0x323 PUSH2 0xAF5 JUMP JUMPDEST PUSH1 0x40 MLOAD PUSH2 0x330 SWAP2 SWAP1 PUSH2 0x1885 JUMP JUMPDEST PUSH1 0x40 MLOAD DUP1 SWAP2 SUB SWAP1 RETURN JUMPDEST PUSH2 0x353 PUSH1 0x4 DUP1 CALLDATASIZE SUB DUP2 ADD SWAP1 PUSH2 0x34E SWAP2 SWAP1 PUSH2 0x1039 JUMP JUMPDEST PUSH2 0xB19 JUMP JUMPDEST STOP JUMPDEST PUSH1 0x5 PUSH1 0x20 MSTORE DUP1 PUSH0 MSTORE PUSH1 0x40 PUSH0 KECCAK256 PUSH0 SWAP2 POP SWAP1 POP DUP1 PUSH0 ADD SLOAD SWAP1 DUP1 PUSH1 0x1 ADD PUSH0 SWAP1 SLOAD SWAP1 PUSH2 0x100 EXP SWAP1 DIV PUSH20 0xFFFFFFFFFFFFFFFFFFFFFFFFFFFFFFFFFFFFFFFF AND SWAP1 DUP1 PUSH1 0x5 ADD SLOAD SWAP1 DUP1 PUSH1 0x6 ADD SLOAD SWAP1 DUP1 PUSH1 0x7 ADD SLOAD SWAP1 DUP1 PUSH1 0x8 ADD SLOAD SWAP1 DUP1 PUSH1 0x9 ADD PUSH0 SWAP1 SLOAD SWAP1 PUSH2 0x100 EXP SWAP1 DIV PUSH1 0xFF AND SWAP1 DUP1 PUSH1 0x9 ADD PUSH1 0x1 SWAP1 SLOAD SWAP1 PUSH2 0x100 EXP SWAP1 DIV PUSH1 0xFF AND SWAP1 POP DUP9 JUMP JUMPDEST PUSH1 0x2 SLOAD DUP2 JUMP JUMPDEST PUSH0 PUSH1 0x5 PUSH0 DUP5 DUP2 MSTORE PUSH1 0x20 ADD SWAP1 DUP2 MSTORE PUSH1 0x20 ADD PUSH0 KECCAK256 SWAP1 POP PUSH1 0x1 PUSH1 0x5 DUP2 GT ISZERO PUSH2 0x3FF JUMPI PUSH2 0x3FE PUSH2 0x124A JUMP JUMPDEST JUMPDEST PUSH2 0x408 DUP5 PUSH2 0x6FB JUMP JUMPDEST PUSH1 0x5 DUP2 GT ISZERO PUSH2 0x41A JUMPI PUSH2 0x419 PUSH2 0x124A JUMP JUMPDEST JUMPDEST EQ PUSH2 0x45A JUMPI PUSH1 0x40 MLOAD PUSH32 0x8C379A000000000000000000000000000000000000000000000000000000000 DUP2 MSTORE PUSH1 0x4 ADD PUSH2 0x451 SWAP1 PUSH2 0x18F8 JUMP JUMPDEST PUSH1 0x40 MLOAD DUP1 SWAP2 SUB SWAP1 REVERT JUMPDEST PUSH1 0x6 PUSH0 DUP5 DUP2 MSTORE PUSH1 0x20 ADD SWAP1 DUP2 MSTORE PUSH1 0x20 ADD PUSH0 KECCAK256 PUSH0 CALLER PUSH20 0xFFFFFFFFFFFFFFFFFFFFFFFFFFFFFFFFFFFFFFFF AND PUSH20 0xFFFFFFFFFFFFFFFFFFFFFFFFFFFFFFFFFFFFFFFF AND DUP2 MSTORE PUSH1 0x20 ADD SWAP1 DUP2 MSTORE PUSH1 0x20 ADD PUSH0 KECCAK256 PUSH0 SWAP1 SLOAD SWAP1 PUSH2 0x100 EXP SWAP1 DIV PUSH1 0xFF AND ISZERO PUSH2 0x4F3 JUMPI PUSH1 0x40 MLOAD PUSH32 0x8C379A000000000000000000000000000000000000000000000000000000000 DUP2 MSTORE PUSH1 0x4 ADD PUSH2 0x4EA SWAP1 PUSH2 0x1986 JUMP JUMPDEST PUSH1 0x40 MLOAD DUP1 SWAP2 SUB SWAP1 REVERT JUMPDEST PUSH0 PUSH32 0x0 PUSH20 0xFFFFFFFFFFFFFFFFFFFFFFFFFFFFFFFFFFFFFFFF AND PUSH4 0x9AB24EB0 CALLER PUSH1 0x40 MLOAD DUP3 PUSH4 0xFFFFFFFF AND PUSH1 0xE0 SHL DUP2 MSTORE PUSH1 0x4 ADD PUSH2 0x54D SWAP2 SWAP1 PUSH2 0x17E6 JUMP JUMPDEST PUSH1 0x20 PUSH1 0x40 MLOAD DUP1 DUP4 SUB DUP2 DUP7 GAS STATICCALL ISZERO DUP1 ISZERO PUSH2 0x568 JUMPI RETURNDATASIZE PUSH0 PUSH0 RETURNDATACOPY RETURNDATASIZE PUSH0 REVERT JUMPDEST POP POP POP POP PUSH1 0x40 MLOAD RETURNDATASIZE PUSH1 0x1F NOT PUSH1 0x1F DUP3 ADD AND DUP3 ADD DUP1 PUSH1 0x40 MSTORE POP DUP2 ADD SWAP1 PUSH2 0x58C SWAP2 SWAP1 PUSH2 0x19B8 JUMP JUMPDEST SWAP1 POP PUSH0 DUP2 GT PUSH2 0x5D0 JUMPI PUSH1 0x40 MLOAD PUSH32 0x8C379A000000000000000000000000000000000000000000000000000000000 DUP2 MSTORE PUSH1 0x4 ADD PUSH2 0x5C7 SWAP1 PUSH2 0x1A2D JUMP JUMPDEST PUSH1 0x40 MLOAD DUP1 SWAP2 SUB SWAP1 REVERT JUMPDEST DUP3 ISZERO PUSH2 0x5F5 JUMPI DUP1 DUP3 PUSH1 0x7 ADD PUSH0 DUP3 DUP3 SLOAD PUSH2 0x5E9 SWAP2 SWAP1 PUSH2 0x1A78 JUMP JUMPDEST SWAP3 POP POP DUP2 SWAP1 SSTORE POP PUSH2 0x610 JUMP JUMPDEST DUP1 DUP3 PUSH1 0x8 ADD PUSH0 DUP3 DUP3 SLOAD PUSH2 0x608 SWAP2 SWAP1 PUSH2 0x1A78 JUMP JUMPDEST SWAP3 POP POP DUP2 SWAP1 SSTORE POP JUMPDEST PUSH1 0x1 PUSH1 0x6 PUSH0 DUP7 DUP2 MSTORE PUSH1 0x20 ADD SWAP1 DUP2 MSTORE PUSH1 0x20 ADD PUSH0 KECCAK256 PUSH0 CALLER PUSH20 0xFFFFFFFFFFFFFFFFFFFFFFFFFFFFFFFFFFFFFFFF AND PUSH20 0xFFFFFFFFFFFFFFFFFFFFFFFFFFFFFFFFFFFFFFFF AND DUP2 MSTORE PUSH1 0x20 ADD SWAP1 DUP2 MSTORE PUSH1 0x20 ADD PUSH0 KECCAK256 PUSH0 PUSH2 0x100 EXP DUP2 SLOAD DUP2 PUSH1 0xFF MUL NOT AND SWAP1 DUP4 ISZERO ISZERO MUL OR SWAP1 SSTORE POP DUP4 CALLER PUSH20 0xFFFFFFFFFFFFFFFFFFFFFFFFFFFFFFFFFFFFFFFF AND PUSH32 0x877856338E13F63D0C36822FF0EF736B80934CD90574A3A5BC9262C39D217C46 DUP6 DUP5 PUSH1 0x40 MLOAD PUSH2 0x6BD SWAP3 SWAP2 SWAP1 PUSH2 0x1AAB JUMP JUMPDEST PUSH1 0x40 MLOAD DUP1 SWAP2 SUB SWAP1 LOG3 POP POP POP POP JUMP JUMPDEST PUSH1 0x1 SLOAD DUP2 JUMP JUMPDEST PUSH1 0x6 PUSH1 0x20 MSTORE DUP2 PUSH0 MSTORE PUSH1 0x40 PUSH0 KECCAK256 PUSH1 0x20 MSTORE DUP1 PUSH0 MSTORE PUSH1 0x40 PUSH0 KECCAK256 PUSH0 SWAP2 POP SWAP2 POP SWAP1 SLOAD SWAP1 PUSH2 0x100 EXP SWAP1 DIV PUSH1 0xFF AND DUP2 JUMP JUMPDEST PUSH0 PUSH0 PUSH1 0x5 PUSH0 DUP5 DUP2 MSTORE PUSH1 0x20 ADD SWAP1 DUP2 MSTORE PUSH1 0x20 ADD PUSH0 KECCAK256 SWAP1 POP DUP1 PUSH1 0x9 ADD PUSH1 0x1 SWAP1 SLOAD SWAP1 PUSH2 0x100 EXP SWAP1 DIV PUSH1 0xFF AND ISZERO PUSH2 0x731 JUMPI PUSH1 0x4 SWAP2 POP POP PUSH2 0x79A JUMP JUMPDEST DUP1 PUSH1 0x9 ADD PUSH0 SWAP1 SLOAD SWAP1 PUSH2 0x100 EXP SWAP1 DIV PUSH1 0xFF AND ISZERO PUSH2 0x751 JUMPI PUSH1 0x5 SWAP2 POP POP PUSH2 0x79A JUMP JUMPDEST DUP1 PUSH1 0x5 ADD SLOAD NUMBER GT PUSH2 0x765 JUMPI PUSH0 SWAP2 POP POP PUSH2 0x79A JUMP JUMPDEST DUP1 PUSH1 0x6 ADD SLOAD NUMBER GT PUSH2 0x77A JUMPI PUSH1 0x1 SWAP2 POP POP PUSH2 0x79A JUMP JUMPDEST DUP1 PUSH1 0x8 ADD SLOAD DUP2 PUSH1 0x7 ADD SLOAD GT ISZERO PUSH2 0x794 JUMPI PUSH1 0x2 SWAP2 POP POP PUSH2 0x79A JUMP JUMPDEST PUSH1 0x3 SWAP2 POP POP JUMPDEST SWAP2 SWAP1 POP JUMP JUMPDEST PUSH2 0x7A7 PUSH2 0xD02 JUMP JUMPDEST PUSH2 0x7B0 PUSH0 PUSH2 0xD89 JUMP JUMPDEST JUMP JUMPDEST PUSH0 PUSH1 0x3 SLOAD PUSH32 0x0 PUSH20 0xFFFFFFFFFFFFFFFFFFFFFFFFFFFFFFFFFFFFFFFF AND PUSH4 0x9AB24EB0 CALLER PUSH1 0x40 MLOAD DUP3 PUSH4 0xFFFFFFFF AND PUSH1 0xE0 SHL DUP2 MSTORE PUSH1 0x4 ADD PUSH2 0x80F SWAP2 SWAP1 PUSH2 0x17E6 JUMP JUMPDEST PUSH1 0x20 PUSH1 0x40 MLOAD DUP1 DUP4 SUB DUP2 DUP7 GAS STATICCALL ISZERO DUP1 ISZERO PUSH2 0x82A JUMPI RETURNDATASIZE PUSH0 PUSH0 RETURNDATACOPY RETURNDATASIZE PUSH0 REVERT JUMPDEST POP POP POP POP PUSH1 0x40 MLOAD RETURNDATASIZE PUSH1 0x1F NOT PUSH1 0x1F DUP3 ADD AND DUP3 ADD DUP1 PUSH1 0x40 MSTORE POP DUP2 ADD SWAP1 PUSH2 0x84E SWAP2 SWAP1 PUSH2 0x19B8 JUMP JUMPDEST LT ISZERO PUSH2 0x88F JUMPI PUSH1 0x40 MLOAD PUSH32 0x8C379A000000000000000000000000000000000000000000000000000000000 DUP2 MSTORE PUSH1 0x4 ADD PUSH2 0x886 SWAP1 PUSH2 0x1B42 JUMP JUMPDEST PUSH1 0x40 MLOAD DUP1 SWAP2 SUB SWAP1 REVERT JUMPDEST DUP4 MLOAD DUP6 MLOAD EQ DUP1 ISZERO PUSH2 0x8A1 JUMPI POP DUP3 MLOAD DUP6 MLOAD EQ JUMPDEST PUSH2 0x8E0 JUMPI PUSH1 0x40 MLOAD PUSH32 0x8C379A000000000000000000000000000000000000000000000000000000000 DUP2 MSTORE PUSH1 0x4 ADD PUSH2 0x8D7 SWAP1 PUSH2 0x1BD0 JUMP JUMPDEST PUSH1 0x40 MLOAD DUP1 SWAP2 SUB SWAP1 REVERT JUMPDEST PUSH1 0x4 PUSH0 DUP2 SLOAD DUP1 SWAP3 SWAP2 SWAP1 PUSH2 0x8F2 SWAP1 PUSH2 0x1BEE JUMP JUMPDEST SWAP2 SWAP1 POP SSTORE POP PUSH0 PUSH1 0x5 PUSH0 PUSH1 0x4 SLOAD DUP2 MSTORE PUSH1 0x20 ADD SWAP1 DUP2 MSTORE PUSH1 0x20 ADD PUSH0 KECCAK256 SWAP1 POP PUSH1 0x4 SLOAD DUP2 PUSH0 ADD DUP2 SWAP1 SSTORE POP CALLER DUP2 PUSH1 0x1 ADD PUSH0 PUSH2 0x100 EXP DUP2 SLOAD DUP2 PUSH20 0xFFFFFFFFFFFFFFFFFFFFFFFFFFFFFFFFFFFFFFFF MUL NOT AND SWAP1 DUP4 PUSH20 0xFFFFFFFFFFFFFFFFFFFFFFFFFFFFFFFFFFFFFFFF AND MUL OR SWAP1 SSTORE POP DUP6 DUP2 PUSH1 0x2 ADD SWAP1 DUP1 MLOAD SWAP1 PUSH1 0x20 ADD SWAP1 PUSH2 0x971 SWAP3 SWAP2 SWAP1 PUSH2 0xE51 JUMP JUMPDEST POP DUP5 DUP2 PUSH1 0x3 ADD SWAP1 DUP1 MLOAD SWAP1 PUSH1 0x20 ADD SWAP1 PUSH2 0x98A SWAP3 SWAP2 SWAP1 PUSH2 0xED8 JUMP JUMPDEST POP DUP4 DUP2 PUSH1 0x4 ADD SWAP1 DUP1 MLOAD SWAP1 PUSH1 0x20 ADD SWAP1 PUSH2 0x9A3 SWAP3 SWAP2 SWAP1 PUSH2 0xF23 JUMP JUMPDEST POP PUSH1 0x1 SLOAD NUMBER PUSH2 0x9B2 SWAP2 SWAP1 PUSH2 0x1A78 JUMP JUMPDEST DUP2 PUSH1 0x5 ADD DUP2 SWAP1 SSTORE POP PUSH1 0x2 SLOAD PUSH1 0x1 SLOAD NUMBER PUSH2 0x9CB SWAP2 SWAP1 PUSH2 0x1A78 JUMP JUMPDEST PUSH2 0x9D5 SWAP2 SWAP1 PUSH2 0x1A78 JUMP JUMPDEST DUP2 PUSH1 0x6 ADD DUP2 SWAP1 SSTORE POP CALLER PUSH20 0xFFFFFFFFFFFFFFFFFFFFFFFFFFFFFFFFFFFFFFFF AND PUSH1 0x4 SLOAD PUSH32 0x6F6C9C63E4BCAFB25F5E4CFC3BD4A29F1D33ADF0F567187B0B6DC5FB4B9A3E69 DUP9 DUP7 PUSH1 0x40 MLOAD PUSH2 0xA28 SWAP3 SWAP2 SWAP1 PUSH2 0x1D3C JUMP JUMPDEST PUSH1 0x40 MLOAD DUP1 SWAP2 SUB SWAP1 LOG3 PUSH1 0x4 SLOAD SWAP2 POP POP SWAP5 SWAP4 POP POP POP POP JUMP JUMPDEST PUSH0 PUSH0 PUSH0 SWAP1 SLOAD SWAP1 PUSH2 0x100 EXP SWAP1 DIV PUSH20 0xFFFFFFFFFFFFFFFFFFFFFFFFFFFFFFFFFFFFFFFF AND SWAP1 POP SWAP1 JUMP JUMPDEST PUSH1 0x3 SLOAD DUP2 JUMP JUMPDEST PUSH1 0x4 SLOAD DUP2 JUMP JUMPDEST PUSH2 0xA79 PUSH2 0xD02 JUMP JUMPDEST PUSH0 PUSH20 0xFFFFFFFFFFFFFFFFFFFFFFFFFFFFFFFFFFFFFFFF AND DUP2 PUSH20 0xFFFFFFFFFFFFFFFFFFFFFFFFFFFFFFFFFFFFFFFF AND SUB PUSH2 0xAE9 JUMPI PUSH0 PUSH1 0x40 MLOAD PUSH32 0x1E4FBDF700000000000000000000000000000000000000000000000000000000 DUP2 MSTORE PUSH1 0x4 ADD PUSH2 0xAE0 SWAP2 SWAP1 PUSH2 0x17E6 JUMP JUMPDEST PUSH1 0x40 MLOAD DUP1 SWAP2 SUB SWAP1 REVERT JUMPDEST PUSH2 0xAF2 DUP2 PUSH2 0xD89 JUMP JUMPDEST POP JUMP JUMPDEST PUSH32 0x0 DUP2 JUMP JUMPDEST PUSH0 PUSH1 0x5 PUSH0 DUP4 DUP2 MSTORE PUSH1 0x20 ADD SWAP1 DUP2 MSTORE PUSH1 0x20 ADD PUSH0 KECCAK256 SWAP1 POP PUSH1 0x2 PUSH1 0x5 DUP2 GT ISZERO PUSH2 0xB41 JUMPI PUSH2 0xB40 PUSH2 0x124A JUMP JUMPDEST JUMPDEST PUSH2 0xB4A DUP4 PUSH2 0x6FB JUMP JUMPDEST PUSH1 0x5 DUP2 GT ISZERO PUSH2 0xB5C JUMPI PUSH2 0xB5B PUSH2 0x124A JUMP JUMPDEST JUMPDEST EQ PUSH2 0xB9C JUMPI PUSH1 0x40 MLOAD PUSH32 0x8C379A000000000000000000000000000000000000000000000000000000000 DUP2 MSTORE PUSH1 0x4 ADD PUSH2 0xB93 SWAP1 PUSH2 0x1DE1 JUMP JUMPDEST PUSH1 0x40 MLOAD DUP1 SWAP2 SUB SWAP1 REVERT JUMPDEST PUSH1 0x1 DUP2 PUSH1 0x9 ADD PUSH1 0x1 PUSH2 0x100 EXP DUP2 SLOAD DUP2 PUSH1 0xFF MUL NOT AND SWAP1 DUP4 ISZERO ISZERO MUL OR SWAP1 SSTORE POP PUSH0 PUSH0 SWAP1 POP JUMPDEST DUP2 PUSH1 0x2 ADD DUP1 SLOAD SWAP1 POP DUP2 LT ISZERO PUSH2 0xCFD JUMPI PUSH0 DUP3 PUSH1 0x2 ADD DUP3 DUP2 SLOAD DUP2 LT PUSH2 0xBE4 JUMPI PUSH2 0xBE3 PUSH2 0x1DFF JUMP JUMPDEST JUMPDEST SWAP1 PUSH0 MSTORE PUSH1 0x20 PUSH0 KECCAK256 ADD PUSH0 SWAP1 SLOAD SWAP1 PUSH2 0x100 EXP SWAP1 DIV PUSH20 0xFFFFFFFFFFFFFFFFFFFFFFFFFFFFFFFFFFFFFFFF AND PUSH20 0xFFFFFFFFFFFFFFFFFFFFFFFFFFFFFFFFFFFFFFFF AND DUP4 PUSH1 0x3 ADD DUP4 DUP2 SLOAD DUP2 LT PUSH2 0xC38 JUMPI PUSH2 0xC37 PUSH2 0x1DFF JUMP JUMPDEST JUMPDEST SWAP1 PUSH0 MSTORE PUSH1 0x20 PUSH0 KECCAK256 ADD SLOAD DUP5 PUSH1 0x4 ADD DUP5 DUP2 SLOAD DUP2 LT PUSH2 0xC57 JUMPI PUSH2 0xC56 PUSH2 0x1DFF JUMP JUMPDEST JUMPDEST SWAP1 PUSH0 MSTORE PUSH1 0x20 PUSH0 KECCAK256 ADD PUSH1 0x40 MLOAD PUSH2 0xC6C SWAP2 SWAP1 PUSH2 0x1F25 JUMP JUMPDEST PUSH0 PUSH1 0x40 MLOAD DUP1 DUP4 SUB DUP2 DUP6 DUP8 GAS CALL SWAP3 POP POP POP RETURNDATASIZE DUP1 PUSH0 DUP2 EQ PUSH2 0xCA6 JUMPI PUSH1 0x40 MLOAD SWAP2 POP PUSH1 0x1F NOT PUSH1 0x3F RETURNDATASIZE ADD AND DUP3 ADD PUSH1 0x40 MSTORE RETURNDATASIZE DUP3 MSTORE RETURNDATASIZE PUSH0 PUSH1 0x20 DUP5 ADD RETURNDATACOPY PUSH2 0xCAB JUMP JUMPDEST PUSH1 0x60 SWAP2 POP JUMPDEST POP POP SWAP1 POP DUP1 PUSH2 0xCEF JUMPI PUSH1 0x40 MLOAD PUSH32 0x8C379A000000000000000000000000000000000000000000000000000000000 DUP2 MSTORE PUSH1 0x4 ADD PUSH2 0xCE6 SWAP1 PUSH2 0x1F85 JUMP JUMPDEST PUSH1 0x40 MLOAD DUP1 SWAP2 SUB SWAP1 REVERT JUMPDEST POP DUP1 DUP1 PUSH1 0x1 ADD SWAP2 POP POP PUSH2 0xBBE JUMP JUMPDEST POP POP POP JUMP JUMPDEST PUSH2 0xD0A PUSH2 0xE4A JUMP JUMPDEST PUSH20 0xFFFFFFFFFFFFFFFFFFFFFFFFFFFFFFFFFFFFFFFF AND PUSH2 0xD28 PUSH2 0xA3E JUMP JUMPDEST PUSH20 0xFFFFFFFFFFFFFFFFFFFFFFFFFFFFFFFFFFFFFFFF AND EQ PUSH2 0xD87 JUMPI PUSH2 0xD4B PUSH2 0xE4A JUMP JUMPDEST PUSH1 0x40 MLOAD PUSH32 0x118CDAA700000000000000000000000000000000000000000000000000000000 DUP2 MSTORE PUSH1 0x4 ADD PUSH2 0xD7E SWAP2 SWAP1 PUSH2 0x17E6 JUMP JUMPDEST PUSH1 0x40 MLOAD DUP1 SWAP2 SUB SWAP1 REVERT JUMPDEST JUMP JUMPDEST PUSH0 PUSH0 PUSH0 SWAP1 SLOAD SWAP1 PUSH2 0x100 EXP SWAP1 DIV PUSH20 0xFFFFFFFFFFFFFFFFFFFFFFFFFFFFFFFFFFFFFFFF AND SWAP1 POP DUP2 PUSH0 PUSH0 PUSH2 0x100 EXP DUP2 SLOAD DUP2 PUSH20 0xFFFFFFFFFFFFFFFFFFFFFFFFFFFFFFFFFFFFFFFF MUL NOT AND SWAP1 DUP4 PUSH20 0xFFFFFFFFFFFFFFFFFFFFFFFFFFFFFFFFFFFFFFFF AND MUL OR SWAP1 SSTORE POP DUP2 PUSH20 0xFFFFFFFFFFFFFFFFFFFFFFFFFFFFFFFFFFFFFFFF AND DUP2 PUSH20 0xFFFFFFFFFFFFFFFFFFFFFFFFFFFFFFFFFFFFFFFF AND PUSH32 0x8BE0079C531659141344CD1FD0A4F28419497F9722A3DAAFE3B4186F6B6457E0 PUSH1 0x40 MLOAD PUSH1 0x40 MLOAD DUP1 SWAP2 SUB SWAP1 LOG3 POP POP JUMP JUMPDEST PUSH0 CALLER SWAP1 POP SWAP1 JUMP JUMPDEST DUP3 DUP1 SLOAD DUP3 DUP3 SSTORE SWAP1 PUSH0 MSTORE PUSH1 0x20 PUSH0 KECCAK256 SWAP1 DUP2 ADD SWAP3 DUP3 ISZERO PUSH2 0xEC7 JUMPI SWAP2 PUSH1 0x20 MUL DUP3 ADD JUMPDEST DUP3 DUP2 GT ISZERO PUSH2 0xEC6 JUMPI DUP3 MLOAD DUP3 PUSH0 PUSH2 0x100 EXP DUP2 SLOAD DUP2 PUSH20 0xFFFFFFFFFFFFFFFFFFFFFFFFFFFFFFFFFFFFFFFF MUL NOT AND SWAP1 DUP4 PUSH20 0xFFFFFFFFFFFFFFFFFFFFFFFFFFFFFFFFFFFFFFFF AND MUL OR SWAP1 SSTORE POP SWAP2 PUSH1 0x20 ADD SWAP2 SWAP1 PUSH1 0x1 ADD SWAP1 PUSH2 0xE6F JUMP JUMPDEST JUMPDEST POP SWAP1 POP PUSH2 0xED4 SWAP2 SWAP1 PUSH2 0xF7A JUMP JUMPDEST POP SWAP1 JUMP JUMPDEST DUP3 DUP1 SLOAD DUP3 DUP3 SSTORE SWAP1 PUSH0 MSTORE PUSH1 0x20 PUSH0 KECCAK256 SWAP1 DUP2 ADD SWAP3 DUP3 ISZERO PUSH2 0xF12 JUMPI SWAP2 PUSH1 0x20 MUL DUP3 ADD JUMPDEST DUP3 DUP2 GT ISZERO PUSH2 0xF11 JUMPI DUP3 MLOAD DUP3 SSTORE SWAP2 PUSH1 0x20 ADD SWAP2 SWAP1 PUSH1 0x1 ADD SWAP1 PUSH2 0xEF6 JUMP JUMPDEST JUMPDEST POP SWAP1 POP PUSH2 0xF1F SWAP2 SWAP1 PUSH2 0xF7A JUMP JUMPDEST POP SWAP1 JUMP JUMPDEST DUP3 DUP1 SLOAD DUP3 DUP3 SSTORE SWAP1 PUSH0 MSTORE PUSH1 0x20 PUSH0 KECCAK256 SWAP1 DUP2 ADD SWAP3 DUP3 ISZERO PUSH2 0xF69 JUMPI SWAP2 PUSH1 0x20 MUL DUP3 ADD JUMPDEST DUP3 DUP2 GT ISZERO PUSH2 0xF68 JUMPI DUP3 MLOAD DUP3 SWAP1 DUP2 PUSH2 0xF58 SWAP2 SWAP1 PUSH2 0x2132 JUMP JUMPDEST POP SWAP2 PUSH1 0x20 ADD SWAP2 SWAP1 PUSH1 0x1 ADD SWAP1 PUSH2 0xF41 JUMP JUMPDEST JUMPDEST POP SWAP1 POP PUSH2 0xF76 SWAP2 SWAP1 PUSH2 0xF95 JUMP JUMPDEST POP SWAP1 JUMP JUMPDEST JUMPDEST DUP1 DUP3 GT ISZERO PUSH2 0xF91 JUMPI PUSH0 DUP2 PUSH0 SWAP1 SSTORE POP PUSH1 0x1 ADD PUSH2 0xF7B JUMP JUMPDEST POP SWAP1 JUMP JUMPDEST JUMPDEST DUP1 DUP3 GT ISZERO PUSH2 0xFB4 JUMPI PUSH0 DUP2 DUP2 PUSH2 0xFAB SWAP2 SWAP1 PUSH2 0xFB8 JUMP JUMPDEST POP PUSH1 0x1 ADD PUSH2 0xF96 JUMP JUMPDEST POP SWAP1 JUMP JUMPDEST POP DUP1 SLOAD PUSH2 0xFC4 SWAP1 PUSH2 0x1E59 JUMP JUMPDEST PUSH0 DUP3 SSTORE DUP1 PUSH1 0x1F LT PUSH2 0xFD5 JUMPI POP PUSH2 0xFF2 JUMP JUMPDEST PUSH1 0x1F ADD PUSH1 0x20 SWAP1 DIV SWAP1 PUSH0 MSTORE PUSH1 0x20 PUSH0 KECCAK256 SWAP1 DUP2 ADD SWAP1 PUSH2 0xFF1 SWAP2 SWAP1 PUSH2 0xF7A JUMP JUMPDEST JUMPDEST POP JUMP JUMPDEST PUSH0 PUSH1 0x40 MLOAD SWAP1 POP SWAP1 JUMP JUMPDEST PUSH0 PUSH0 REVERT JUMPDEST PUSH0 PUSH0 REVERT JUMPDEST PUSH0 DUP2 SWAP1 POP SWAP2 SWAP1 POP JUMP JUMPDEST PUSH2 0x1018 DUP2 PUSH2 0x1006 JUMP JUMPDEST DUP2 EQ PUSH2 0x1022 JUMPI PUSH0 PUSH0 REVERT JUMPDEST POP JUMP JUMPDEST PUSH0 DUP2 CALLDATALOAD SWAP1 POP PUSH2 0x1033 DUP2 PUSH2 0x100F JUMP JUMPDEST SWAP3 SWAP2 POP POP JUMP JUMPDEST PUSH0 PUSH1 0x20 DUP3 DUP5 SUB SLT ISZERO PUSH2 0x104E JUMPI PUSH2 0x104D PUSH2 0xFFE JUMP JUMPDEST JUMPDEST PUSH0 PUSH2 0x105B DUP5 DUP3 DUP6 ADD PUSH2 0x1025 JUMP JUMPDEST SWAP2 POP POP SWAP3 SWAP2 POP POP JUMP JUMPDEST PUSH2 0x106D DUP2 PUSH2 0x1006 JUMP JUMPDEST DUP3 MSTORE POP POP JUMP JUMPDEST PUSH0 PUSH20 0xFFFFFFFFFFFFFFFFFFFFFFFFFFFFFFFFFFFFFFFF DUP3 AND SWAP1 POP SWAP2 SWAP1 POP JUMP JUMPDEST PUSH0 PUSH2 0x109C DUP3 PUSH2 0x1073 JUMP JUMPDEST SWAP1 POP SWAP2 SWAP1 POP JUMP JUMPDEST PUSH2 0x10AC DUP2 PUSH2 0x1092 JUMP JUMPDEST DUP3 MSTORE POP POP JUMP JUMPDEST PUSH0 DUP2 ISZERO ISZERO SWAP1 POP SWAP2 SWAP1 POP JUMP JUMPDEST PUSH2 0x10C6 DUP2 PUSH2 0x10B2 JUMP JUMPDEST DUP3 MSTORE POP POP JUMP JUMPDEST PUSH0 PUSH2 0x100 DUP3 ADD SWAP1 POP PUSH2 0x10E0 PUSH0 DUP4 ADD DUP12 PUSH2 0x1064 JUMP JUMPDEST PUSH2 0x10ED PUSH1 0x20 DUP4 ADD DUP11 PUSH2 0x10A3 JUMP JUMPDEST PUSH2 0x10FA PUSH1 0x40 DUP4 ADD DUP10 PUSH2 0x1064 JUMP JUMPDEST PUSH2 0x1107 PUSH1 0x60 DUP4 ADD DUP9 PUSH2 0x1064 JUMP JUMPDEST PUSH2 0x1114 PUSH1 0x80 DUP4 ADD DUP8 PUSH2 0x1064 JUMP JUMPDEST PUSH2 0x1121 PUSH1 0xA0 DUP4 ADD DUP7 PUSH2 0x1064 JUMP JUMPDEST PUSH2 0x112E PUSH1 0xC0 DUP4 ADD DUP6 PUSH2 0x10BD JUMP JUMPDEST PUSH2 0x113B PUSH1 0xE0 DUP4 ADD DUP5 PUSH2 0x10BD JUMP JUMPDEST SWAP10 SWAP9 POP POP POP POP POP POP POP POP POP JUMP JUMPDEST PUSH0 PUSH1 0x20 DUP3 ADD SWAP1 POP PUSH2 0x115B PUSH0 DUP4 ADD DUP5 PUSH2 0x1064 JUMP JUMPDEST SWAP3 SWAP2 POP POP JUMP JUMPDEST PUSH2 0x116A DUP2 PUSH2 0x10B2 JUMP JUMPDEST DUP2 EQ PUSH2 0x1174 JUMPI PUSH0 PUSH0 REVERT JUMPDEST POP JUMP JUMPDEST PUSH0 DUP2 CALLDATALOAD SWAP1 POP PUSH2 0x1185 DUP2 PUSH2 0x1161 JUMP JUMPDEST SWAP3 SWAP2 POP POP JUMP JUMPDEST PUSH0 PUSH0 PUSH1 0x40 DUP4 DUP6 SUB SLT ISZERO PUSH2 0x11A1 JUMPI PUSH2 0x11A0 PUSH2 0xFFE JUMP JUMPDEST JUMPDEST PUSH0 PUSH2 0x11AE DUP6 DUP3 DUP7 ADD PUSH2 0x1025 JUMP JUMPDEST SWAP3 POP POP PUSH1 0x20 PUSH2 0x11BF DUP6 DUP3 DUP7 ADD PUSH2 0x1177 JUMP JUMPDEST SWAP2 POP POP SWAP3 POP SWAP3 SWAP1 POP JUMP JUMPDEST PUSH2 0x11D2 DUP2 PUSH2 0x1092 JUMP JUMPDEST DUP2 EQ PUSH2 0x11DC JUMPI PUSH0 PUSH0 REVERT JUMPDEST POP JUMP JUMPDEST PUSH0 DUP2 CALLDATALOAD SWAP1 POP PUSH2 0x11ED DUP2 PUSH2 0x11C9 JUMP JUMPDEST SWAP3 SWAP2 POP POP JUMP JUMPDEST PUSH0 PUSH0 PUSH1 0x40 DUP4 DUP6 SUB SLT ISZERO PUSH2 0x1209 JUMPI PUSH2 0x1208 PUSH2 0xFFE JUMP JUMPDEST JUMPDEST PUSH0 PUSH2 0x1216 DUP6 DUP3 DUP7 ADD PUSH2 0x1025 JUMP JUMPDEST SWAP3 POP POP PUSH1 0x20 PUSH2 0x1227 DUP6 DUP3 DUP7 ADD PUSH2 0x11DF JUMP JUMPDEST SWAP2 POP POP SWAP3 POP SWAP3 SWAP1 POP JUMP JUMPDEST PUSH0 PUSH1 0x20 DUP3 ADD SWAP1 POP PUSH2 0x1244 PUSH0 DUP4 ADD DUP5 PUSH2 0x10BD JUMP JUMPDEST SWAP3 SWAP2 POP POP JUMP JUMPDEST PUSH32 0x4E487B7100000000000000000000000000000000000000000000000000000000 PUSH0 MSTORE PUSH1 0x21 PUSH1 0x4 MSTORE PUSH1 0x24 PUSH0 REVERT JUMPDEST PUSH1 0x6 DUP2 LT PUSH2 0x1288 JUMPI PUSH2 0x1287 PUSH2 0x124A JUMP JUMPDEST JUMPDEST POP JUMP JUMPDEST PUSH0 DUP2 SWAP1 POP PUSH2 0x1298 DUP3 PUSH2 0x1277 JUMP JUMPDEST SWAP2 SWAP1 POP JUMP JUMPDEST PUSH0 PUSH2 0x12A7 DUP3 PUSH2 0x128B JUMP JUMPDEST SWAP1 POP SWAP2 SWAP1 POP JUMP JUMPDEST PUSH2 0x12B7 DUP2 PUSH2 0x129D JUMP JUMPDEST DUP3 MSTORE POP POP JUMP JUMPDEST PUSH0 PUSH1 0x20 DUP3 ADD SWAP1 POP PUSH2 0x12D0 PUSH0 DUP4 ADD DUP5 PUSH2 0x12AE JUMP JUMPDEST SWAP3 SWAP2 POP POP JUMP JUMPDEST PUSH0 PUSH0 REVERT JUMPDEST PUSH0 PUSH1 0x1F NOT PUSH1 0x1F DUP4 ADD AND SWAP1 POP SWAP2 SWAP1 POP JUMP JUMPDEST PUSH32 0x4E487B7100000000000000000000000000000000000000000000000000000000 PUSH0 MSTORE PUSH1 0x41 PUSH1 0x4 MSTORE PUSH1 0x24 PUSH0 REVERT JUMPDEST PUSH2 0x1320 DUP3 PUSH2 0x12DA JUMP JUMPDEST DUP2 ADD DUP2 DUP2 LT PUSH8 0xFFFFFFFFFFFFFFFF DUP3 GT OR ISZERO PUSH2 0x133F JUMPI PUSH2 0x133E PUSH2 0x12EA JUMP JUMPDEST JUMPDEST DUP1 PUSH1 0x40 MSTORE POP POP POP JUMP JUMPDEST PUSH0 PUSH2 0x1351 PUSH2 0xFF5 JUMP JUMPDEST SWAP1 POP PUSH2 0x135D DUP3 DUP3 PUSH2 0x1317 JUMP JUMPDEST SWAP2 SWAP1 POP JUMP JUMPDEST PUSH0 PUSH8 0xFFFFFFFFFFFFFFFF DUP3 GT ISZERO PUSH2 0x137C JUMPI PUSH2 0x137B PUSH2 0x12EA JUMP JUMPDEST JUMPDEST PUSH1 0x20 DUP3 MUL SWAP1 POP PUSH1 0x20 DUP2 ADD SWAP1 POP SWAP2 SWAP1 POP JUMP JUMPDEST PUSH0 PUSH0 REVERT JUMPDEST PUSH0 PUSH2 0x13A3 PUSH2 0x139E DUP5 PUSH2 0x1362 JUMP JUMPDEST PUSH2 0x1348 JUMP JUMPDEST SWAP1 POP DUP1 DUP4 DUP3 MSTORE PUSH1 0x20 DUP3 ADD SWAP1 POP PUSH1 0x20 DUP5 MUL DUP4 ADD DUP6 DUP2 GT ISZERO PUSH2 0x13C6 JUMPI PUSH2 0x13C5 PUSH2 0x138D JUMP JUMPDEST JUMPDEST DUP4 JUMPDEST DUP2 DUP2 LT ISZERO PUSH2 0x13EF JUMPI DUP1 PUSH2 0x13DB DUP9 DUP3 PUSH2 0x11DF JUMP JUMPDEST DUP5 MSTORE PUSH1 0x20 DUP5 ADD SWAP4 POP POP PUSH1 0x20 DUP2 ADD SWAP1 POP PUSH2 0x13C8 JUMP JUMPDEST POP POP POP SWAP4 SWAP3 POP POP POP JUMP JUMPDEST PUSH0 DUP3 PUSH1 0x1F DUP4 ADD SLT PUSH2 0x140D JUMPI PUSH2 0x140C PUSH2 0x12D6 JUMP JUMPDEST JUMPDEST DUP2 CALLDATALOAD PUSH2 0x141D DUP5 DUP3 PUSH1 0x20 DUP7 ADD PUSH2 0x1391 JUMP JUMPDEST SWAP2 POP POP SWAP3 SWAP2 POP POP JUMP JUMPDEST PUSH0 PUSH8 0xFFFFFFFFFFFFFFFF DUP3 GT ISZERO PUSH2 0x1440 JUMPI PUSH2 0x143F PUSH2 0x12EA JUMP JUMPDEST JUMPDEST PUSH1 0x20 DUP3 MUL SWAP1 POP PUSH1 0x20 DUP2 ADD SWAP1 POP SWAP2 SWAP1 POP JUMP JUMPDEST PUSH0 PUSH2 0x1463 PUSH2 0x145E DUP5 PUSH2 0x1426 JUMP JUMPDEST PUSH2 0x1348 JUMP JUMPDEST SWAP1 POP DUP1 DUP4 DUP3 MSTORE PUSH1 0x20 DUP3 ADD SWAP1 POP PUSH1 0x20 DUP5 MUL DUP4 ADD DUP6 DUP2 GT ISZERO PUSH2 0x1486 JUMPI PUSH2 0x1485 PUSH2 0x138D JUMP JUMPDEST JUMPDEST DUP4 JUMPDEST DUP2 DUP2 LT ISZERO PUSH2 0x14AF JUMPI DUP1 PUSH2 0x149B DUP9 DUP3 PUSH2 0x1025 JUMP JUMPDEST DUP5 MSTORE PUSH1 0x20 DUP5 ADD SWAP4 POP POP PUSH1 0x20 DUP2 ADD SWAP1 POP PUSH2 0x1488 JUMP JUMPDEST POP POP POP SWAP4 SWAP3 POP POP POP JUMP JUMPDEST PUSH0 DUP3 PUSH1 0x1F DUP4 ADD SLT PUSH2 0x14CD JUMPI PUSH2 0x14CC PUSH2 0x12D6 JUMP JUMPDEST JUMPDEST DUP2 CALLDATALOAD PUSH2 0x14DD DUP5 DUP3 PUSH1 0x20 DUP7 ADD PUSH2 0x1451 JUMP JUMPDEST SWAP2 POP POP SWAP3 SWAP2 POP POP JUMP JUMPDEST PUSH0 PUSH8 0xFFFFFFFFFFFFFFFF DUP3 GT ISZERO PUSH2 0x1500 JUMPI PUSH2 0x14FF PUSH2 0x12EA JUMP JUMPDEST JUMPDEST PUSH1 0x20 DUP3 MUL SWAP1 POP PUSH1 0x20 DUP2 ADD SWAP1 POP SWAP2 SWAP1 POP JUMP JUMPDEST PUSH0 PUSH0 REVERT JUMPDEST PUSH0 PUSH8 0xFFFFFFFFFFFFFFFF DUP3 GT ISZERO PUSH2 0x152F JUMPI PUSH2 0x152E PUSH2 0x12EA JUMP JUMPDEST JUMPDEST PUSH2 0x1538 DUP3 PUSH2 0x12DA JUMP JUMPDEST SWAP1 POP PUSH1 0x20 DUP2 ADD SWAP1 POP SWAP2 SWAP1 POP JUMP JUMPDEST DUP3 DUP2 DUP4 CALLDATACOPY PUSH0 DUP4 DUP4 ADD MSTORE POP POP POP JUMP JUMPDEST PUSH0 PUSH2 0x1565 PUSH2 0x1560 DUP5 PUSH2 0x1515 JUMP JUMPDEST PUSH2 0x1348 JUMP JUMPDEST SWAP1 POP DUP3 DUP2 MSTORE PUSH1 0x20 DUP2 ADD DUP5 DUP5 DUP5 ADD GT ISZERO PUSH2 0x1581 JUMPI PUSH2 0x1580 PUSH2 0x1511 JUMP JUMPDEST JUMPDEST PUSH2 0x158C DUP5 DUP3 DUP6 PUSH2 0x1545 JUMP JUMPDEST POP SWAP4 SWAP3 POP POP POP JUMP JUMPDEST PUSH0 DUP3 PUSH1 0x1F DUP4 ADD SLT PUSH2 0x15A8 JUMPI PUSH2 0x15A7 PUSH2 0x12D6 JUMP JUMPDEST JUMPDEST DUP2 CALLDATALOAD PUSH2 0x15B8 DUP5 DUP3 PUSH1 0x20 DUP7 ADD PUSH2 0x1553 JUMP JUMPDEST SWAP2 POP POP SWAP3 SWAP2 POP POP JUMP JUMPDEST PUSH0 PUSH2 0x15D3 PUSH2 0x15CE DUP5 PUSH2 0x14E6 JUMP JUMPDEST PUSH2 0x1348 JUMP JUMPDEST SWAP1 POP DUP1 DUP4 DUP3 MSTORE PUSH1 0x20 DUP3 ADD SWAP1 POP PUSH1 0x20 DUP5 MUL DUP4 ADD DUP6 DUP2 GT ISZERO PUSH2 0x15F6 JUMPI PUSH2 0x15F5 PUSH2 0x138D JUMP JUMPDEST JUMPDEST DUP4 JUMPDEST DUP2 DUP2 LT ISZERO PUSH2 0x163D JUMPI DUP1 CALLDATALOAD PUSH8 0xFFFFFFFFFFFFFFFF DUP2 GT ISZERO PUSH2 0x161B JUMPI PUSH2 0x161A PUSH2 0x12D6 JUMP JUMPDEST JUMPDEST DUP1 DUP7 ADD PUSH2 0x1628 DUP10 DUP3 PUSH2 0x1594 JUMP JUMPDEST DUP6 MSTORE PUSH1 0x20 DUP6 ADD SWAP5 POP POP POP PUSH1 0x20 DUP2 ADD SWAP1 POP PUSH2 0x15F8 JUMP JUMPDEST POP POP POP SWAP4 SWAP3 POP POP POP JUMP JUMPDEST PUSH0 DUP3 PUSH1 0x1F DUP4 ADD SLT PUSH2 0x165B JUMPI PUSH2 0x165A PUSH2 0x12D6 JUMP JUMPDEST JUMPDEST DUP2 CALLDATALOAD PUSH2 0x166B DUP5 DUP3 PUSH1 0x20 DUP7 ADD PUSH2 0x15C1 JUMP JUMPDEST SWAP2 POP POP SWAP3 SWAP2 POP POP JUMP JUMPDEST PUSH0 PUSH8 0xFFFFFFFFFFFFFFFF DUP3 GT ISZERO PUSH2 0x168E JUMPI PUSH2 0x168D PUSH2 0x12EA JUMP JUMPDEST JUMPDEST PUSH2 0x1697 DUP3 PUSH2 0x12DA JUMP JUMPDEST SWAP1 POP PUSH1 0x20 DUP2 ADD SWAP1 POP SWAP2 SWAP1 POP JUMP JUMPDEST PUSH0 PUSH2 0x16B6 PUSH2 0x16B1 DUP5 PUSH2 0x1674 JUMP JUMPDEST PUSH2 0x1348 JUMP JUMPDEST SWAP1 POP DUP3 DUP2 MSTORE PUSH1 0x20 DUP2 ADD DUP5 DUP5 DUP5 ADD GT ISZERO PUSH2 0x16D2 JUMPI PUSH2 0x16D1 PUSH2 0x1511 JUMP JUMPDEST JUMPDEST PUSH2 0x16DD DUP5 DUP3 DUP6 PUSH2 0x1545 JUMP JUMPDEST POP SWAP4 SWAP3 POP POP POP JUMP JUMPDEST PUSH0 DUP3 PUSH1 0x1F DUP4 ADD SLT PUSH2 0x16F9 JUMPI PUSH2 0x16F8 PUSH2 0x12D6 JUMP JUMPDEST JUMPDEST DUP2 CALLDATALOAD PUSH2 0x1709 DUP5 DUP3 PUSH1 0x20 DUP7 ADD PUSH2 0x16A4 JUMP JUMPDEST SWAP2 POP POP SWAP3 SWAP2 POP POP JUMP JUMPDEST PUSH0 PUSH0 PUSH0 PUSH0 PUSH1 0x80 DUP6 DUP8 SUB SLT ISZERO PUSH2 0x172A JUMPI PUSH2 0x1729 PUSH2 0xFFE JUMP JUMPDEST JUMPDEST PUSH0 DUP6 ADD CALLDATALOAD PUSH8 0xFFFFFFFFFFFFFFFF DUP2 GT ISZERO PUSH2 0x1747 JUMPI PUSH2 0x1746 PUSH2 0x1002 JUMP JUMPDEST JUMPDEST PUSH2 0x1753 DUP8 DUP3 DUP9 ADD PUSH2 0x13F9 JUMP JUMPDEST SWAP5 POP POP PUSH1 0x20 DUP6 ADD CALLDATALOAD PUSH8 0xFFFFFFFFFFFFFFFF DUP2 GT ISZERO PUSH2 0x1774 JUMPI PUSH2 0x1773 PUSH2 0x1002 JUMP JUMPDEST JUMPDEST PUSH2 0x1780 DUP8 DUP3 DUP9 ADD PUSH2 0x14B9 JUMP JUMPDEST SWAP4 POP POP PUSH1 0x40 DUP6 ADD CALLDATALOAD PUSH8 0xFFFFFFFFFFFFFFFF DUP2 GT ISZERO PUSH2 0x17A1 JUMPI PUSH2 0x17A0 PUSH2 0x1002 JUMP JUMPDEST JUMPDEST PUSH2 0x17AD DUP8 DUP3 DUP9 ADD PUSH2 0x1647 JUMP JUMPDEST SWAP3 POP POP PUSH1 0x60 DUP6 ADD CALLDATALOAD PUSH8 0xFFFFFFFFFFFFFFFF DUP2 GT ISZERO PUSH2 0x17CE JUMPI PUSH2 0x17CD PUSH2 0x1002 JUMP JUMPDEST JUMPDEST PUSH2 0x17DA DUP8 DUP3 DUP9 ADD PUSH2 0x16E5 JUMP JUMPDEST SWAP2 POP POP SWAP3 SWAP6 SWAP2 SWAP5 POP SWAP3 POP JUMP JUMPDEST PUSH0 PUSH1 0x20 DUP3 ADD SWAP1 POP PUSH2 0x17F9 PUSH0 DUP4 ADD DUP5 PUSH2 0x10A3 JUMP JUMPDEST SWAP3 SWAP2 POP POP JUMP JUMPDEST PUSH0 PUSH1 0x20 DUP3 DUP5 SUB SLT ISZERO PUSH2 0x1814 JUMPI PUSH2 0x1813 PUSH2 0xFFE JUMP JUMPDEST JUMPDEST PUSH0 PUSH2 0x1821 DUP5 DUP3 DUP6 ADD PUSH2 0x11DF JUMP JUMPDEST SWAP2 POP POP SWAP3 SWAP2 POP POP JUMP JUMPDEST PUSH0 DUP2 SWAP1 POP SWAP2 SWAP1 POP JUMP JUMPDEST PUSH0 PUSH2 0x184D PUSH2 0x1848 PUSH2 0x1843 DUP5 PUSH2 0x1073 JUMP JUMPDEST PUSH2 0x182A JUMP JUMPDEST PUSH2 0x1073 JUMP JUMPDEST SWAP1 POP SWAP2 SWAP1 POP JUMP JUMPDEST PUSH0 PUSH2 0x185E DUP3 PUSH2 0x1833 JUMP JUMPDEST SWAP1 POP SWAP2 SWAP1 POP JUMP JUMPDEST PUSH0 PUSH2 0x186F DUP3 PUSH2 0x1854 JUMP JUMPDEST SWAP1 POP SWAP2 SWAP1 POP JUMP JUMPDEST PUSH2 0x187F DUP2 PUSH2 0x1865 JUMP JUMPDEST DUP3 MSTORE POP POP JUMP JUMPDEST PUSH0 PUSH1 0x20 DUP3 ADD SWAP1 POP PUSH2 0x1898 PUSH0 DUP4 ADD DUP5 PUSH2 0x1876 JUMP JUMPDEST SWAP3 SWAP2 POP POP JUMP JUMPDEST PUSH0 DUP3 DUP3 MSTORE PUSH1 0x20 DUP3 ADD SWAP1 POP SWAP3 SWAP2 POP POP JUMP JUMPDEST PUSH32 0x476F7665726E616E63653A20566F74696E67206973206E6F7420616374697665 PUSH0 DUP3 ADD MSTORE POP JUMP JUMPDEST PUSH0 PUSH2 0x18E2 PUSH1 0x20 DUP4 PUSH2 0x189E JUMP JUMPDEST SWAP2 POP PUSH2 0x18ED DUP3 PUSH2 0x18AE JUMP JUMPDEST PUSH1 0x20 DUP3 ADD SWAP1 POP SWAP2 SWAP1 POP JUMP JUMPDEST PUSH0 PUSH1 0x20 DUP3 ADD SWAP1 POP DUP2 DUP2 SUB PUSH0 DUP4 ADD MSTORE PUSH2 0x190F DUP2 PUSH2 0x18D6 JUMP JUMPDEST SWAP1 POP SWAP2 SWAP1 POP JUMP JUMPDEST PUSH32 0x476F7665726E616E63653A20566F7465722068617320616C726561647920766F PUSH0 DUP3 ADD MSTORE PUSH32 0x7465640000000000000000000000000000000000000000000000000000000000 PUSH1 0x20 DUP3 ADD MSTORE POP JUMP JUMPDEST PUSH0 PUSH2 0x1970 PUSH1 0x23 DUP4 PUSH2 0x189E JUMP JUMPDEST SWAP2 POP PUSH2 0x197B DUP3 PUSH2 0x1916 JUMP JUMPDEST PUSH1 0x40 DUP3 ADD SWAP1 POP SWAP2 SWAP1 POP JUMP JUMPDEST PUSH0 PUSH1 0x20 DUP3 ADD SWAP1 POP DUP2 DUP2 SUB PUSH0 DUP4 ADD MSTORE PUSH2 0x199D DUP2 PUSH2 0x1964 JUMP JUMPDEST SWAP1 POP SWAP2 SWAP1 POP JUMP JUMPDEST PUSH0 DUP2 MLOAD SWAP1 POP PUSH2 0x19B2 DUP2 PUSH2 0x100F JUMP JUMPDEST SWAP3 SWAP2 POP POP JUMP JUMPDEST PUSH0 PUSH1 0x20 DUP3 DUP5 SUB SLT ISZERO PUSH2 0x19CD JUMPI PUSH2 0x19CC PUSH2 0xFFE JUMP JUMPDEST JUMPDEST PUSH0 PUSH2 0x19DA DUP5 DUP3 DUP6 ADD PUSH2 0x19A4 JUMP JUMPDEST SWAP2 POP POP SWAP3 SWAP2 POP POP JUMP JUMPDEST PUSH32 0x476F7665726E616E63653A204E6F20766F74696E6720706F7765720000000000 PUSH0 DUP3 ADD MSTORE POP JUMP JUMPDEST PUSH0 PUSH2 0x1A17 PUSH1 0x1B DUP4 PUSH2 0x189E JUMP JUMPDEST SWAP2 POP PUSH2 0x1A22 DUP3 PUSH2 0x19E3 JUMP JUMPDEST PUSH1 0x20 DUP3 ADD SWAP1 POP SWAP2 SWAP1 POP JUMP JUMPDEST PUSH0 PUSH1 0x20 DUP3 ADD SWAP1 POP DUP2 DUP2 SUB PUSH0 DUP4 ADD MSTORE PUSH2 0x1A44 DUP2 PUSH2 0x1A0B JUMP JUMPDEST SWAP1 POP SWAP2 SWAP1 POP JUMP JUMPDEST PUSH32 0x4E487B7100000000000000000000000000000000000000000000000000000000 PUSH0 MSTORE PUSH1 0x11 PUSH1 0x4 MSTORE PUSH1 0x24 PUSH0 REVERT JUMPDEST PUSH0 PUSH2 0x1A82 DUP3 PUSH2 0x1006 JUMP JUMPDEST SWAP2 POP PUSH2 0x1A8D DUP4 PUSH2 0x1006 JUMP JUMPDEST SWAP3 POP DUP3 DUP3 ADD SWAP1 POP DUP1 DUP3 GT ISZERO PUSH2 0x1AA5 JUMPI PUSH2 0x1AA4 PUSH2 0x1A4B JUMP JUMPDEST JUMPDEST SWAP3 SWAP2 POP POP JUMP JUMPDEST PUSH0 PUSH1 0x40 DUP3 ADD SWAP1 POP PUSH2 0x1ABE PUSH0 DUP4 ADD DUP6 PUSH2 0x10BD JUMP JUMPDEST PUSH2 0x1ACB PUSH1 0x20 DUP4 ADD DUP5 PUSH2 0x1064 JUMP JUMPDEST SWAP4 SWAP3 POP POP POP JUMP JUMPDEST PUSH32 0x476F7665726E616E63653A2050726F706F7365722068617320696E7375666669 PUSH0 DUP3 ADD MSTORE PUSH32 0x6369656E7420766F74696E6720706F7765720000000000000000000000000000 PUSH1 0x20 DUP3 ADD MSTORE POP JUMP JUMPDEST PUSH0 PUSH2 0x1B2C PUSH1 0x32 DUP4 PUSH2 0x189E JUMP JUMPDEST SWAP2 POP PUSH2 0x1B37 DUP3 PUSH2 0x1AD2 JUMP JUMPDEST PUSH1 0x40 DUP3 ADD SWAP1 POP SWAP2 SWAP1 POP JUMP JUMPDEST PUSH0 PUSH1 0x20 DUP3 ADD SWAP1 POP DUP2 DUP2 SUB PUSH0 DUP4 ADD MSTORE PUSH2 0x1B59 DUP2 PUSH2 0x1B20 JUMP JUMPDEST SWAP1 POP SWAP2 SWAP1 POP JUMP JUMPDEST PUSH32 0x476F7665726E616E63653A20496E76616C69642070726F706F73616C20706172 PUSH0 DUP3 ADD MSTORE PUSH32 0x616D657465727300000000000000000000000000000000000000000000000000 PUSH1 0x20 DUP3 ADD MSTORE POP JUMP JUMPDEST PUSH0 PUSH2 0x1BBA PUSH1 0x27 DUP4 PUSH2 0x189E JUMP JUMPDEST SWAP2 POP PUSH2 0x1BC5 DUP3 PUSH2 0x1B60 JUMP JUMPDEST PUSH1 0x40 DUP3 ADD SWAP1 POP SWAP2 SWAP1 POP JUMP JUMPDEST PUSH0 PUSH1 0x20 DUP3 ADD SWAP1 POP DUP2 DUP2 SUB PUSH0 DUP4 ADD MSTORE PUSH2 0x1BE7 DUP2 PUSH2 0x1BAE JUMP JUMPDEST SWAP1 POP SWAP2 SWAP1 POP JUMP JUMPDEST PUSH0 PUSH2 0x1BF8 DUP3 PUSH2 0x1006 JUMP JUMPDEST SWAP2 POP PUSH32 0xFFFFFFFFFFFFFFFFFFFFFFFFFFFFFFFFFFFFFFFFFFFFFFFFFFFFFFFFFFFFFFFF DUP3 SUB PUSH2 0x1C2A JUMPI PUSH2 0x1C29 PUSH2 0x1A4B JUMP JUMPDEST JUMPDEST PUSH1 0x1 DUP3 ADD SWAP1 POP SWAP2 SWAP1 POP JUMP JUMPDEST PUSH0 DUP2 MLOAD SWAP1 POP SWAP2 SWAP1 POP JUMP JUMPDEST PUSH0 DUP3 DUP3 MSTORE PUSH1 0x20 DUP3 ADD SWAP1 POP SWAP3 SWAP2 POP POP JUMP JUMPDEST PUSH0 DUP2 SWAP1 POP PUSH1 0x20 DUP3 ADD SWAP1 POP SWAP2 SWAP1 POP JUMP JUMPDEST PUSH2 0x1C67 DUP2 PUSH2 0x1092 JUMP JUMPDEST DUP3 MSTORE POP POP JUMP JUMPDEST PUSH0 PUSH2 0x1C78 DUP4 DUP4 PUSH2 0x1C5E JUMP JUMPDEST PUSH1 0x20 DUP4 ADD SWAP1 POP SWAP3 SWAP2 POP POP JUMP JUMPDEST PUSH0 PUSH1 0x20 DUP3 ADD SWAP1 POP SWAP2 SWAP1 POP JUMP JUMPDEST PUSH0 PUSH2 0x1C9A DUP3 PUSH2 0x1C35 JUMP JUMPDEST PUSH2 0x1CA4 DUP2 DUP6 PUSH2 0x1C3F JUMP JUMPDEST SWAP4 POP PUSH2 0x1CAF DUP4 PUSH2 0x1C4F JUMP JUMPDEST DUP1 PUSH0 JUMPDEST DUP4 DUP2 LT ISZERO PUSH2 0x1CDF JUMPI DUP2 MLOAD PUSH2 0x1CC6 DUP9 DUP3 PUSH2 0x1C6D JUMP JUMPDEST SWAP8 POP PUSH2 0x1CD1 DUP4 PUSH2 0x1C84 JUMP JUMPDEST SWAP3 POP POP PUSH1 0x1 DUP2 ADD SWAP1 POP PUSH2 0x1CB2 JUMP JUMPDEST POP DUP6 SWAP4 POP POP POP POP SWAP3 SWAP2 POP POP JUMP JUMPDEST PUSH0 DUP2 MLOAD SWAP1 POP SWAP2 SWAP1 POP JUMP JUMPDEST DUP3 DUP2 DUP4 MCOPY PUSH0 DUP4 DUP4 ADD MSTORE POP POP POP JUMP JUMPDEST PUSH0 PUSH2 0x1D0E DUP3 PUSH2 0x1CEC JUMP JUMPDEST PUSH2 0x1D18 DUP2 DUP6 PUSH2 0x189E JUMP JUMPDEST SWAP4 POP PUSH2 0x1D28 DUP2 DUP6 PUSH1 0x20 DUP7 ADD PUSH2 0x1CF6 JUMP JUMPDEST PUSH2 0x1D31 DUP2 PUSH2 0x12DA JUMP JUMPDEST DUP5 ADD SWAP2 POP POP SWAP3 SWAP2 POP POP JUMP JUMPDEST PUSH0 PUSH1 0x40 DUP3 ADD SWAP1 POP DUP2 DUP2 SUB PUSH0 DUP4 ADD MSTORE PUSH2 0x1D54 DUP2 DUP6 PUSH2 0x1C90 JUMP JUMPDEST SWAP1 POP DUP2 DUP2 SUB PUSH1 0x20 DUP4 ADD MSTORE PUSH2 0x1D68 DUP2 DUP5 PUSH2 0x1D04 JUMP JUMPDEST SWAP1 POP SWAP4 SWAP3 POP POP POP JUMP JUMPDEST PUSH32 0x476F7665726E616E63653A2050726F706F73616C206E6F742073756363657373 PUSH0 DUP3 ADD MSTORE PUSH32 0x66756C0000000000000000000000000000000000000000000000000000000000 PUSH1 0x20 DUP3 ADD MSTORE POP JUMP JUMPDEST PUSH0 PUSH2 0x1DCB PUSH1 0x23 DUP4 PUSH2 0x189E JUMP JUMPDEST SWAP2 POP PUSH2 0x1DD6 DUP3 PUSH2 0x1D71 JUMP JUMPDEST PUSH1 0x40 DUP3 ADD SWAP1 POP SWAP2 SWAP1 POP JUMP JUMPDEST PUSH0 PUSH1 0x20 DUP3 ADD SWAP1 POP DUP2 DUP2 SUB PUSH0 DUP4 ADD MSTORE PUSH2 0x1DF8 DUP2 PUSH2 0x1DBF JUMP JUMPDEST SWAP1 POP SWAP2 SWAP1 POP JUMP JUMPDEST PUSH32 0x4E487B7100000000000000000000000000000000000000000000000000000000 PUSH0 MSTORE PUSH1 0x32 PUSH1 0x4 MSTORE PUSH1 0x24 PUSH0 REVERT JUMPDEST PUSH32 0x4E487B7100000000000000000000000000000000000000000000000000000000 PUSH0 MSTORE PUSH1 0x22 PUSH1 0x4 MSTORE PUSH1 0x24 PUSH0 REVERT JUMPDEST PUSH0 PUSH1 0x2 DUP3 DIV SWAP1 POP PUSH1 0x1 DUP3 AND DUP1 PUSH2 0x1E70 JUMPI PUSH1 0x7F DUP3 AND SWAP2 POP JUMPDEST PUSH1 0x20 DUP3 LT DUP2 SUB PUSH2 0x1E83 JUMPI PUSH2 0x1E82 PUSH2 0x1E2C JUMP JUMPDEST JUMPDEST POP SWAP2 SWAP1 POP JUMP JUMPDEST PUSH0 DUP2 SWAP1 POP SWAP3 SWAP2 POP POP JUMP JUMPDEST PUSH0 DUP2 SWAP1 POP DUP2 PUSH0 MSTORE PUSH1 0x20 PUSH0 KECCAK256 SWAP1 POP SWAP2 SWAP1 POP JUMP JUMPDEST PUSH0 DUP2 SLOAD PUSH2 0x1EB1 DUP2 PUSH2 0x1E59 JUMP JUMPDEST PUSH2 0x1EBB DUP2 DUP7 PUSH2 0x1E89 JUMP JUMPDEST SWAP5 POP PUSH1 0x1 DUP3 AND PUSH0 DUP2 EQ PUSH2 0x1ED5 JUMPI PUSH1 0x1 DUP2 EQ PUSH2 0x1EEA JUMPI PUSH2 0x1F1C JUMP JUMPDEST PUSH1 0xFF NOT DUP4 AND DUP7 MSTORE DUP2 ISZERO ISZERO DUP3 MUL DUP7 ADD SWAP4 POP PUSH2 0x1F1C JUMP JUMPDEST PUSH2 0x1EF3 DUP6 PUSH2 0x1E93 JUMP JUMPDEST PUSH0 JUMPDEST DUP4 DUP2 LT ISZERO PUSH2 0x1F14 JUMPI DUP2 SLOAD DUP2 DUP10 ADD MSTORE PUSH1 0x1 DUP3 ADD SWAP2 POP PUSH1 0x20 DUP2 ADD SWAP1 POP PUSH2 0x1EF5 JUMP JUMPDEST DUP4 DUP9 ADD SWAP6 POP POP POP JUMPDEST POP POP POP SWAP3 SWAP2 POP POP JUMP JUMPDEST PUSH0 PUSH2 0x1F30 DUP3 DUP5 PUSH2 0x1EA5 JUMP JUMPDEST SWAP2 POP DUP2 SWAP1 POP SWAP3 SWAP2 POP POP JUMP JUMPDEST PUSH32 0x476F7665726E616E63653A20457865637574696F6E206661696C656400000000 PUSH0 DUP3 ADD MSTORE POP JUMP JUMPDEST PUSH0 PUSH2 0x1F6F PUSH1 0x1C DUP4 PUSH2 0x189E JUMP JUMPDEST SWAP2 POP PUSH2 0x1F7A DUP3 PUSH2 0x1F3B JUMP JUMPDEST PUSH1 0x20 DUP3 ADD SWAP1 POP SWAP2 SWAP1 POP JUMP JUMPDEST PUSH0 PUSH1 0x20 DUP3 ADD SWAP1 POP DUP2 DUP2 SUB PUSH0 DUP4 ADD MSTORE PUSH2 0x1F9C DUP2 PUSH2 0x1F63 JUMP JUMPDEST SWAP1 POP SWAP2 SWAP1 POP JUMP JUMPDEST PUSH0 DUP2 MLOAD SWAP1 POP SWAP2 SWAP1 POP JUMP JUMPDEST PUSH0 PUSH1 0x20 PUSH1 0x1F DUP4 ADD DIV SWAP1 POP SWAP2 SWAP1 POP JUMP JUMPDEST PUSH0 DUP3 DUP3 SHL SWAP1 POP SWAP3 SWAP2 POP POP JUMP JUMPDEST PUSH0 PUSH1 0x8 DUP4 MUL PUSH2 0x1FF7 PUSH32 0xFFFFFFFFFFFFFFFFFFFFFFFFFFFFFFFFFFFFFFFFFFFFFFFFFFFFFFFFFFFFFFFF DUP3 PUSH2 0x1FBC JUMP JUMPDEST PUSH2 0x2001 DUP7 DUP4 PUSH2 0x1FBC JUMP JUMPDEST SWAP6 POP DUP1 NOT DUP5 AND SWAP4 POP DUP1 DUP7 AND DUP5 OR SWAP3 POP POP POP SWAP4 SWAP3 POP POP POP JUMP JUMPDEST PUSH0 PUSH2 0x2033 PUSH2 0x202E PUSH2 0x2029 DUP5 PUSH2 0x1006 JUMP JUMPDEST PUSH2 0x182A JUMP JUMPDEST PUSH2 0x1006 JUMP JUMPDEST SWAP1 POP SWAP2 SWAP1 POP JUMP JUMPDEST PUSH0 DUP2 SWAP1 POP SWAP2 SWAP1 POP JUMP JUMPDEST PUSH2 0x204C DUP4 PUSH2 0x2019 JUMP JUMPDEST PUSH2 0x2060 PUSH2 0x2058 DUP3 PUSH2 0x203A JUMP JUMPDEST DUP5 DUP5 SLOAD PUSH2 0x1FC8 JUMP JUMPDEST DUP3 SSTORE POP POP POP POP JUMP JUMPDEST PUSH0 PUSH0 SWAP1 POP SWAP1 JUMP JUMPDEST PUSH2 0x2077 PUSH2 0x2068 JUMP JUMPDEST PUSH2 0x2082 DUP2 DUP5 DUP5 PUSH2 0x2043 JUMP JUMPDEST POP POP POP JUMP JUMPDEST JUMPDEST DUP2 DUP2 LT ISZERO PUSH2 0x20A5 JUMPI PUSH2 0x209A PUSH0 DUP3 PUSH2 0x206F JUMP JUMPDEST PUSH1 0x1 DUP2 ADD SWAP1 POP PUSH2 0x2088 JUMP JUMPDEST POP POP JUMP JUMPDEST PUSH1 0x1F DUP3 GT ISZERO PUSH2 0x20EA JUMPI PUSH2 0x20BB DUP2 PUSH2 0x1E93 JUMP JUMPDEST PUSH2 0x20C4 DUP5 PUSH2 0x1FAD JUMP JUMPDEST DUP2 ADD PUSH1 0x20 DUP6 LT ISZERO PUSH2 0x20D3 JUMPI DUP2 SWAP1 POP JUMPDEST PUSH2 0x20E7 PUSH2 0x20DF DUP6 PUSH2 0x1FAD JUMP JUMPDEST DUP4 ADD DUP3 PUSH2 0x2087 JUMP JUMPDEST POP POP JUMPDEST POP POP POP JUMP JUMPDEST PUSH0 DUP3 DUP3 SHR SWAP1 POP SWAP3 SWAP2 POP POP JUMP JUMPDEST PUSH0 PUSH2 0x210A PUSH0 NOT DUP5 PUSH1 0x8 MUL PUSH2 0x20EF JUMP JUMPDEST NOT DUP1 DUP4 AND SWAP2 POP POP SWAP3 SWAP2 POP POP JUMP JUMPDEST PUSH0 PUSH2 0x2122 DUP4 DUP4 PUSH2 0x20FB JUMP JUMPDEST SWAP2 POP DUP3 PUSH1 0x2 MUL DUP3 OR SWAP1 POP SWAP3 SWAP2 POP POP JUMP JUMPDEST PUSH2 0x213B DUP3 PUSH2 0x1FA3 JUMP JUMPDEST PUSH8 0xFFFFFFFFFFFFFFFF DUP2 GT ISZERO PUSH2 0x2154 JUMPI PUSH2 0x2153 PUSH2 0x12EA JUMP JUMPDEST JUMPDEST PUSH2 0x215E DUP3 SLOAD PUSH2 0x1E59 JUMP JUMPDEST PUSH2 0x2169 DUP3 DUP3 DUP6 PUSH2 0x20A9 JUMP JUMPDEST PUSH0 PUSH1 0x20 SWAP1 POP PUSH1 0x1F DUP4 GT PUSH1 0x1 DUP2 EQ PUSH2 0x219A JUMPI PUSH0 DUP5 ISZERO PUSH2 0x2188 JUMPI DUP3 DUP8 ADD MLOAD SWAP1 POP JUMPDEST PUSH2 0x2192 DUP6 DUP3 PUSH2 0x2117 JUMP JUMPDEST DUP7 SSTORE POP PUSH2 0x21F9 JUMP JUMPDEST PUSH1 0x1F NOT DUP5 AND PUSH2 0x21A8 DUP7 PUSH2 0x1E93 JUMP JUMPDEST PUSH0 JUMPDEST DUP3 DUP2 LT ISZERO PUSH2 0x21CF JUMPI DUP5 DUP10 ADD MLOAD DUP3 SSTORE PUSH1 0x1 DUP3 ADD SWAP2 POP PUSH1 0x20 DUP6 ADD SWAP5 POP PUSH1 0x20 DUP2 ADD SWAP1 POP PUSH2 0x21AA JUMP JUMPDEST DUP7 DUP4 LT ISZERO PUSH2 0x21EC JUMPI DUP5 DUP10 ADD MLOAD PUSH2 0x21E8 PUSH1 0x1F DUP10 AND DUP3 PUSH2 0x20FB JUMP JUMPDEST DUP4 SSTORE POP JUMPDEST PUSH1 0x1 PUSH1 0x2 DUP9 MUL ADD DUP9 SSTORE POP POP POP JUMPDEST POP POP POP POP POP POP JUMP INVALID LOG2 PUSH5 0x6970667358 0x22 SLT KECCAK256 LOG1 CREATE2 DUP16 PUSH26 0x7FEFAD5B1AB5A40B5CFCF82C58AC85B6E3C43A35B8E7C3B2662B XOR CODESIZE PUSH5 0x736F6C6343 STOP ADDMOD 0x1E STOP CALLER "
		},
		"gasEstimates": {
			"creation": {
				"codeDepositCost": "1751800",
				"executionCost": "infinite",
				"totalCost": "infinite"
			},
			"external": {
				"castVote(uint256,bool)": "14094",
				"execute(uint256)": "infinite",
				"getState(uint256)": "13720",
				"hasVoted(uint256,address)": "3115",
				"owner()": "2559",
				"proposalCount()": "2447",
				"proposalThreshold()": "2492",
				"proposals(uint256)": "infinite",
				"propose(address[],uint256[],bytes[],string)": "infinite",
				"renounceOwnership()": "infinite",
				"token()": "infinite",
				"transferOwnership(address)": "infinite",
				"votingDelay()": "2448",
				"votingPeriod()": "2471"
			}
		},
		"methodIdentifiers": {
			"castVote(uint256,bool)": "15373e3d",
			"execute(uint256)": "fe0d94c1",
			"getState(uint256)": "44c9af28",
			"hasVoted(uint256,address)": "43859632",
			"owner()": "8da5cb5b",
			"proposalCount()": "da35c664",
			"proposalThreshold()": "b58131b0",
			"proposals(uint256)": "013cf08b",
			"propose(address[],uint256[],bytes[],string)": "7d5e81e2",
			"renounceOwnership()": "715018a6",
			"token()": "fc0c546a",
			"transferOwnership(address)": "f2fde38b",
			"votingDelay()": "3932abb1",
			"votingPeriod()": "02a251a3"
		}
	},
	"abi": [
		{
			"inputs": [
				{
					"internalType": "address",
					"name": "_tokenAddress",
					"type": "address"
				},
				{
					"internalType": "address",
					"name": "_initialOwner",
					"type": "address"
				},
				{
					"internalType": "uint256",
					"name": "_votingDelay",
					"type": "uint256"
				},
				{
					"internalType": "uint256",
					"name": "_votingPeriod",
					"type": "uint256"
				},
				{
					"internalType": "uint256",
					"name": "_proposalThreshold",
					"type": "uint256"
				}
			],
			"stateMutability": "nonpayable",
			"type": "constructor"
		},
		{
			"inputs": [
				{
					"internalType": "address",
					"name": "owner",
					"type": "address"
				}
			],
			"name": "OwnableInvalidOwner",
			"type": "error"
		},
		{
			"inputs": [
				{
					"internalType": "address",
					"name": "account",
					"type": "address"
				}
			],
			"name": "OwnableUnauthorizedAccount",
			"type": "error"
		},
		{
			"anonymous": false,
			"inputs": [
				{
					"indexed": true,
					"internalType": "address",
					"name": "previousOwner",
					"type": "address"
				},
				{
					"indexed": true,
					"internalType": "address",
					"name": "newOwner",
					"type": "address"
				}
			],
			"name": "OwnershipTransferred",
			"type": "event"
		},
		{
			"anonymous": false,
			"inputs": [
				{
					"indexed": true,
					"internalType": "uint256",
					"name": "proposalId",
					"type": "uint256"
				},
				{
					"indexed": true,
					"internalType": "address",
					"name": "proposer",
					"type": "address"
				},
				{
					"indexed": false,
					"internalType": "address[]",
					"name": "targets",
					"type": "address[]"
				},
				{
					"indexed": false,
					"internalType": "string",
					"name": "description",
					"type": "string"
				}
			],
			"name": "ProposalCreated",
			"type": "event"
		},
		{
			"anonymous": false,
			"inputs": [
				{
					"indexed": true,
					"internalType": "address",
					"name": "voter",
					"type": "address"
				},
				{
					"indexed": true,
					"internalType": "uint256",
					"name": "proposalId",
					"type": "uint256"
				},
				{
					"indexed": false,
					"internalType": "bool",
					"name": "inFavor",
					"type": "bool"
				},
				{
					"indexed": false,
					"internalType": "uint256",
					"name": "weight",
					"type": "uint256"
				}
			],
			"name": "VoteCast",
			"type": "event"
		},
		{
			"inputs": [
				{
					"internalType": "uint256",
					"name": "_proposalId",
					"type": "uint256"
				},
				{
					"internalType": "bool",
					"name": "_support",
					"type": "bool"
				}
			],
			"name": "castVote",
			"outputs": [],
			"stateMutability": "nonpayable",
			"type": "function"
		},
		{
			"inputs": [
				{
					"internalType": "uint256",
					"name": "_proposalId",
					"type": "uint256"
				}
			],
			"name": "execute",
			"outputs": [],
			"stateMutability": "payable",
			"type": "function"
		},
		{
			"inputs": [
				{
					"internalType": "uint256",
					"name": "_proposalId",
					"type": "uint256"
				}
			],
			"name": "getState",
			"outputs": [
				{
					"internalType": "enum Governance.ProposalState",
					"name": "",
					"type": "uint8"
				}
			],
			"stateMutability": "view",
			"type": "function"
		},
		{
			"inputs": [
				{
					"internalType": "uint256",
					"name": "",
					"type": "uint256"
				},
				{
					"internalType": "address",
					"name": "",
					"type": "address"
				}
			],
			"name": "hasVoted",
			"outputs": [
				{
					"internalType": "bool",
					"name": "",
					"type": "bool"
				}
			],
			"stateMutability": "view",
			"type": "function"
		},
		{
			"inputs": [],
			"name": "owner",
			"outputs": [
				{
					"internalType": "address",
					"name": "",
					"type": "address"
				}
			],
			"stateMutability": "view",
			"type": "function"
		},
		{
			"inputs": [],
			"name": "proposalCount",
			"outputs": [
				{
					"internalType": "uint256",
					"name": "",
					"type": "uint256"
				}
			],
			"stateMutability": "view",
			"type": "function"
		},
		{
			"inputs": [],
			"name": "proposalThreshold",
			"outputs": [
				{
					"internalType": "uint256",
					"name": "",
					"type": "uint256"
				}
			],
			"stateMutability": "view",
			"type": "function"
		},
		{
			"inputs": [
				{
					"internalType": "uint256",
					"name": "",
					"type": "uint256"
				}
			],
			"name": "proposals",
			"outputs": [
				{
					"internalType": "uint256",
					"name": "id",
					"type": "uint256"
				},
				{
					"internalType": "address",
					"name": "proposer",
					"type": "address"
				},
				{
					"internalType": "uint256",
					"name": "voteStart",
					"type": "uint256"
				},
				{
					"internalType": "uint256",
					"name": "voteEnd",
					"type": "uint256"
				},
				{
					"internalType": "uint256",
					"name": "forVotes",
					"type": "uint256"
				},
				{
					"internalType": "uint256",
					"name": "againstVotes",
					"type": "uint256"
				},
				{
					"internalType": "bool",
					"name": "canceled",
					"type": "bool"
				},
				{
					"internalType": "bool",
					"name": "executed",
					"type": "bool"
				}
			],
			"stateMutability": "view",
			"type": "function"
		},
		{
			"inputs": [
				{
					"internalType": "address[]",
					"name": "_targets",
					"type": "address[]"
				},
				{
					"internalType": "uint256[]",
					"name": "_values",
					"type": "uint256[]"
				},
				{
					"internalType": "bytes[]",
					"name": "_calldatas",
					"type": "bytes[]"
				},
				{
					"internalType": "string",
					"name": "_description",
					"type": "string"
				}
			],
			"name": "propose",
			"outputs": [
				{
					"internalType": "uint256",
					"name": "",
					"type": "uint256"
				}
			],
			"stateMutability": "nonpayable",
			"type": "function"
		},
		{
			"inputs": [],
			"name": "renounceOwnership",
			"outputs": [],
			"stateMutability": "nonpayable",
			"type": "function"
		},
		{
			"inputs": [],
			"name": "token",
			"outputs": [
				{
					"internalType": "contract PlatformToken",
					"name": "",
					"type": "address"
				}
			],
			"stateMutability": "view",
			"type": "function"
		},
		{
			"inputs": [
				{
					"internalType": "address",
					"name": "newOwner",
					"type": "address"
				}
			],
			"name": "transferOwnership",
			"outputs": [],
			"stateMutability": "nonpayable",
			"type": "function"
		},
		{
			"inputs": [],
			"name": "votingDelay",
			"outputs": [
				{
					"internalType": "uint256",
					"name": "",
					"type": "uint256"
				}
			],
			"stateMutability": "view",
			"type": "function"
		},
		{
			"inputs": [],
			"name": "votingPeriod",
			"outputs": [
				{
					"internalType": "uint256",
					"name": "",
					"type": "uint256"
				}
			],
			"stateMutability": "view",
			"type": "function"
		}
	]
}