{
	"data": {
		"bytecode": {
			"linkReferences": {},
			"object": "610180604052348015610010575f5ffd5b5060405161823838038061823883398181016040528101906100329190610d29565b8481878686866040518060400160405280600c81526020017f41726368697465637444414f00000000000000000000000000000000000000008152508061007d6101c860201b60201c565b6100905f8361020560201b90919060201c565b61012081815250506100ac60018261020560201b90919060201c565b6101408181525050818051906020012060e08181525050808051906020012061010081815250504660a081815250506100e961025260201b60201c565b608081815250503073ffffffffffffffffffffffffffffffffffffffff1660c08173ffffffffffffffffffffffffffffffffffffffff1681525050505080600390816101359190610fe6565b5050610146836102ac60201b60201c565b6101558261031f60201b60201c565b610164816103d860201b60201c565b5050508073ffffffffffffffffffffffffffffffffffffffff166101608173ffffffffffffffffffffffffffffffffffffffff1681525050506101ac8161041d60201b60201c565b506101bc816104f760201b60201c565b505050505050506114fa565b60606040518060400160405280600181526020017f3100000000000000000000000000000000000000000000000000000000000000815250905090565b5f6020835110156102265761021f8361059460201b60201c565b905061024c565b82610236836105f960201b60201c565b5f0190816102449190610fe6565b5060ff5f1b90505b92915050565b5f7f8b73c3c69bb8fe3d512ecc4cf759cc79239f7b179b0ffacaa9a75d522b39400f60e0516101005146306040516020016102919594939291906110eb565b60405160208183030381529060405280519060200120905090565b7fc565b045403dc03c2eea82b81a0465edad9e2e7fc4d97e11421c209da93d7a9360085f9054906101000a900465ffffffffffff16826040516102f092919061116c565b60405180910390a18060085f6101000a81548165ffffffffffff021916908365ffffffffffff16021790555050565b5f8163ffffffff1603610369575f6040517ff1cfbf0500000000000000000000000000000000000000000000000000000000815260040161036091906111cc565b60405180910390fd5b7f7e3f7f0708a84de9203036abaa450dccc85ad5ff52f78c170f3edb55cf5e8828600860069054906101000a900463ffffffff16826040516103ac929190611215565b60405180910390a180600860066101000a81548163ffffffff021916908363ffffffff16021790555050565b7fccb45da8d5717e6c4544694297c4ba5cf151d455c9bb0ed4fc7a38411bc054616007548260405161040b92919061123c565b60405180910390a18060078190555050565b5f61042c61060260201b60201c565b9050808211156104755781816040517f243e544500000000000000000000000000000000000000000000000000000000815260040161046c92919061123c565b60405180910390fd5b5f61048461060a60201b60201c565b90506104b761049761063c60201b60201c565b6104a6856106d360201b60201c565b600a61074060201b9092919060201c565b50507f0553476bf02ef2726e8ce5ced78d63e26e602e4a2257b1f559418e24b463399781846040516104ea92919061123c565b60405180910390a1505050565b7f08f74ea46ef7894f65eabfb5e6e695de773a000b47c529ab559178069b226401600b5f9054906101000a900473ffffffffffffffffffffffffffffffffffffffff1682604051610549929190611263565b60405180910390a180600b5f6101000a81548173ffffffffffffffffffffffffffffffffffffffff021916908373ffffffffffffffffffffffffffffffffffffffff16021790555050565b5f5f829050601f815111156105e057826040517f305a27a90000000000000000000000000000000000000000000000000000000081526004016105d791906112f0565b60405180910390fd5b8051816105ec9061133d565b5f1c175f1b915050919050565b5f819050919050565b5f6064905090565b5f61061b600a61076160201b60201c565b79ffffffffffffffffffffffffffffffffffffffffffffffffffff16905090565b5f61064b6107c960201b60201c565b73ffffffffffffffffffffffffffffffffffffffff166391ddadf46040518163ffffffff1660e01b8152600401602060405180830381865afa9250505080156106b257506040513d601f19601f820116820180604052508101906106af91906113a3565b60015b6106cb576106c46107d360201b60201c565b90506106d0565b809150505b90565b5f79ffffffffffffffffffffffffffffffffffffffffffffffffffff80168211156107385760d0826040517f6dfcc65000000000000000000000000000000000000000000000000000000000815260040161072f929190611413565b60405180910390fd5b819050919050565b5f5f610755855f0185856107e860201b60201c565b91509150935093915050565b5f5f825f018054905090505f81146107bf57610791835f016001836107869190611467565b610b5c60201b60201c565b5f0160069054906101000a900479ffffffffffffffffffffffffffffffffffffffffffffffffffff166107c1565b5f5b915050919050565b5f61016051905090565b5f6107e343610b6e60201b60201c565b905090565b5f5f5f858054905090505f811115610a74575f6108178760018461080c9190611467565b610b5c60201b60201c565b6040518060400160405290815f82015f9054906101000a900465ffffffffffff1665ffffffffffff1665ffffffffffff1681526020015f820160069054906101000a900479ffffffffffffffffffffffffffffffffffffffffffffffffffff1679ffffffffffffffffffffffffffffffffffffffffffffffffffff1679ffffffffffffffffffffffffffffffffffffffffffffffffffff168152505090508565ffffffffffff16815f015165ffffffffffff161115610902576040517f2520601d00000000000000000000000000000000000000000000000000000000815260040160405180910390fd5b8565ffffffffffff16815f015165ffffffffffff160361098a57846109398860018561092e9190611467565b610b5c60201b60201c565b5f0160066101000a81548179ffffffffffffffffffffffffffffffffffffffffffffffffffff021916908379ffffffffffffffffffffffffffffffffffffffffffffffffffff160217905550610a63565b8660405180604001604052808865ffffffffffff1681526020018779ffffffffffffffffffffffffffffffffffffffffffffffffffff16815250908060018154018082558091505060019003905f5260205f20015f909190919091505f820151815f015f6101000a81548165ffffffffffff021916908365ffffffffffff1602179055506020820151815f0160066101000a81548179ffffffffffffffffffffffffffffffffffffffffffffffffffff021916908379ffffffffffffffffffffffffffffffffffffffffffffffffffff16021790555050505b806020015185935093505050610b54565b8560405180604001604052808765ffffffffffff1681526020018679ffffffffffffffffffffffffffffffffffffffffffffffffffff16815250908060018154018082558091505060019003905f5260205f20015f909190919091505f820151815f015f6101000a81548165ffffffffffff021916908365ffffffffffff1602179055506020820151815f0160066101000a81548179ffffffffffffffffffffffffffffffffffffffffffffffffffff021916908379ffffffffffffffffffffffffffffffffffffffffffffffffffff16021790555050505f8492509250505b935093915050565b5f825f528160205f2001905092915050565b5f65ffffffffffff8016821115610bbf576030826040517f6dfcc650000000000000000000000000000000000000000000000000000000008152600401610bb69291906114d3565b60405180910390fd5b819050919050565b5f5ffd5b5f73ffffffffffffffffffffffffffffffffffffffff82169050919050565b5f610bf482610bcb565b9050919050565b5f610c0582610bea565b9050919050565b610c1581610bfb565b8114610c1f575f5ffd5b50565b5f81519050610c3081610c0c565b92915050565b5f610c4082610bcb565b9050919050565b5f610c5182610c36565b9050919050565b610c6181610c47565b8114610c6b575f5ffd5b50565b5f81519050610c7c81610c58565b92915050565b5f65ffffffffffff82169050919050565b610c9c81610c82565b8114610ca6575f5ffd5b50565b5f81519050610cb781610c93565b92915050565b5f63ffffffff82169050919050565b610cd581610cbd565b8114610cdf575f5ffd5b50565b5f81519050610cf081610ccc565b92915050565b5f819050919050565b610d0881610cf6565b8114610d12575f5ffd5b50565b5f81519050610d2381610cff565b92915050565b5f5f5f5f5f5f60c08789031215610d4357610d42610bc7565b5b5f610d5089828a01610c22565b9650506020610d6189828a01610c6e565b9550506040610d7289828a01610ca9565b9450506060610d8389828a01610ce2565b9350506080610d9489828a01610d15565b92505060a0610da589828a01610d15565b9150509295509295509295565b5f81519050919050565b7f4e487b71000000000000000000000000000000000000000000000000000000005f52604160045260245ffd5b7f4e487b71000000000000000000000000000000000000000000000000000000005f52602260045260245ffd5b5f6002820490506001821680610e2d57607f821691505b602082108103610e4057610e3f610de9565b5b50919050565b5f819050815f5260205f209050919050565b5f6020601f8301049050919050565b5f82821b905092915050565b5f60088302610ea27fffffffffffffffffffffffffffffffffffffffffffffffffffffffffffffffff82610e67565b610eac8683610e67565b95508019841693508086168417925050509392505050565b5f819050919050565b5f610ee7610ee2610edd84610cf6565b610ec4565b610cf6565b9050919050565b5f819050919050565b610f0083610ecd565b610f14610f0c82610eee565b848454610e73565b825550505050565b5f5f905090565b610f2b610f1c565b610f36818484610ef7565b505050565b5b81811015610f5957610f4e5f82610f23565b600181019050610f3c565b5050565b601f821115610f9e57610f6f81610e46565b610f7884610e58565b81016020851015610f87578190505b610f9b610f9385610e58565b830182610f3b565b50505b505050565b5f82821c905092915050565b5f610fbe5f1984600802610fa3565b1980831691505092915050565b5f610fd68383610faf565b9150826002028217905092915050565b610fef82610db2565b67ffffffffffffffff81111561100857611007610dbc565b5b6110128254610e16565b61101d828285610f5d565b5f60209050601f83116001811461104e575f841561103c578287015190505b6110468582610fcb565b8655506110ad565b601f19841661105c86610e46565b5f5b828110156110835784890151825560018201915060208501945060208101905061105e565b868310156110a0578489015161109c601f891682610faf565b8355505b6001600288020188555050505b505050505050565b5f819050919050565b6110c7816110b5565b82525050565b6110d681610cf6565b82525050565b6110e581610bea565b82525050565b5f60a0820190506110fe5f8301886110be565b61110b60208301876110be565b61111860408301866110be565b61112560608301856110cd565b61113260808301846110dc565b9695505050505050565b5f61115661115161114c84610c82565b610ec4565b610cf6565b9050919050565b6111668161113c565b82525050565b5f60408201905061117f5f83018561115d565b61118c602083018461115d565b9392505050565b5f819050919050565b5f6111b66111b16111ac84611193565b610ec4565b610cf6565b9050919050565b6111c68161119c565b82525050565b5f6020820190506111df5f8301846111bd565b92915050565b5f6111ff6111fa6111f584610cbd565b610ec4565b610cf6565b9050919050565b61120f816111e5565b82525050565b5f6040820190506112285f830185611206565b6112356020830184611206565b9392505050565b5f60408201905061124f5f8301856110cd565b61125c60208301846110cd565b9392505050565b5f6040820190506112765f8301856110dc565b61128360208301846110dc565b9392505050565b5f82825260208201905092915050565b8281835e5f83830152505050565b5f601f19601f8301169050919050565b5f6112c282610db2565b6112cc818561128a565b93506112dc81856020860161129a565b6112e5816112a8565b840191505092915050565b5f6020820190508181035f83015261130881846112b8565b905092915050565b5f81519050919050565b5f819050602082019050919050565b5f61133482516110b5565b80915050919050565b5f61134782611310565b826113518461131a565b905061135c81611329565b9250602082101561139c576113977fffffffffffffffffffffffffffffffffffffffffffffffffffffffffffffffff83602003600802610e67565b831692505b5050919050565b5f602082840312156113b8576113b7610bc7565b5b5f6113c584828501610ca9565b91505092915050565b5f819050919050565b5f60ff82169050919050565b5f6113fd6113f86113f3846113ce565b610ec4565b6113d7565b9050919050565b61140d816113e3565b82525050565b5f6040820190506114265f830185611404565b61143360208301846110cd565b9392505050565b7f4e487b71000000000000000000000000000000000000000000000000000000005f52601160045260245ffd5b5f61147182610cf6565b915061147c83610cf6565b92508282039050818111156114945761149361143a565b5b92915050565b5f819050919050565b5f6114bd6114b86114b38461149a565b610ec4565b6113d7565b9050919050565b6114cd816114a3565b82525050565b5f6040820190506114e65f8301856114c4565b6114f360208301846110cd565b9392505050565b60805160a05160c05160e05161010051610120516101405161016051616ce36115555f395f611f7a01525f612e9b01525f612e6001525f61454e01525f61452d01525f61388501525f6138db01525f6139040152616ce35ff3fe608060405260043610610296575f3560e01c80637ecebe0011610159578063c01f9e37116100c0578063e540d01d11610079578063e540d01d14610b89578063eb9019d414610bb1578063ece40cc114610bed578063f23a6e6114610c15578063f8ce560a14610c51578063fc0c546a14610c8d57610309565b8063c01f9e3714610a77578063c28bc2fa14610ab3578063c59057e414610acf578063d33219b414610b0b578063dd4e2ba514610b35578063deaaa7cc14610b5f57610309565b8063a7713a7011610112578063a7713a7014610947578063a890c91014610971578063a9a9529414610999578063ab58fb8e146109d5578063b58131b014610a11578063bc197c8114610a3b57610309565b80637ecebe001461080f57806384b0196e1461084b5780638ff262e31461087b57806391ddadf4146108b757806397c3d334146108e15780639a802a6d1461090b57610309565b806343859632116101fd5780635b8d0e0d116101b65780635b8d0e0d146106bb5780635f398a14146106f757806360c4247f14610733578063790518871461076f5780637b3c71d3146107975780637d5e81e2146107d357610309565b80634385963214610575578063452115d6146105b15780634bf5d7e9146105ed578063544ffc9c1461061757806354fd4d5014610655578063567813881461067f57610309565b8063160cbed71161024f578063160cbed71461043d5780632656227d146104795780632d63f693146104a95780632fe3e261146104e55780633932abb11461050f5780633e4f49e61461053957610309565b806301ffc9a71461030d57806302a251a31461034957806306f3f9e61461037357806306fdde031461039b578063143489d0146103c5578063150b7a021461040157610309565b36610309573073ffffffffffffffffffffffffffffffffffffffff166102ba610cb7565b73ffffffffffffffffffffffffffffffffffffffff1614610307576040517fe90a651e00000000000000000000000000000000000000000000000000000000815260040160405180910390fd5b005b5f5ffd5b348015610318575f5ffd5b50610333600480360381019061032e91906148bf565b610cc5565b6040516103409190614904565b60405180910390f35b348015610354575f5ffd5b5061035d610da6565b60405161036a9190614935565b60405180910390f35b34801561037e575f5ffd5b5061039960048036038101906103949190614978565b610db4565b005b3480156103a6575f5ffd5b506103af610dc8565b6040516103bc9190614a13565b60405180910390f35b3480156103d0575f5ffd5b506103eb60048036038101906103e69190614978565b610e58565b6040516103f89190614a72565b60405180910390f35b34801561040c575f5ffd5b5061042760048036038101906104229190614be1565b610e93565b6040516104349190614c70565b60405180910390f35b348015610448575f5ffd5b50610463600480360381019061045e9190614f1e565b610f12565b6040516104709190614935565b60405180910390f35b610493600480360381019061048e9190614f1e565b611008565b6040516104a09190614935565b60405180910390f35b3480156104b4575f5ffd5b506104cf60048036038101906104ca9190614978565b6111e5565b6040516104dc9190614935565b60405180910390f35b3480156104f0575f5ffd5b506104f961121b565b6040516105069190614fe5565b60405180910390f35b34801561051a575f5ffd5b5061052361123f565b6040516105309190614935565b60405180910390f35b348015610544575f5ffd5b5061055f600480360381019061055a9190614978565b61124d565b60405161056c9190615071565b60405180910390f35b348015610580575f5ffd5b5061059b6004803603810190610596919061508a565b61125e565b6040516105a89190614904565b60405180910390f35b3480156105bc575f5ffd5b506105d760048036038101906105d29190614f1e565b6112c3565b6040516105e49190614935565b60405180910390f35b3480156105f8575f5ffd5b50610601611383565b60405161060e9190614a13565b60405180910390f35b348015610622575f5ffd5b5061063d60048036038101906106389190614978565b611440565b60405161064c939291906150c8565b60405180910390f35b348015610660575f5ffd5b50610669611473565b6040516106769190614a13565b60405180910390f35b34801561068a575f5ffd5b506106a560048036038101906106a09190615133565b6114b0565b6040516106b29190614935565b60405180910390f35b3480156106c6575f5ffd5b506106e160048036038101906106dc91906151ca565b6114df565b6040516106ee9190614935565b60405180910390f35b348015610702575f5ffd5b5061071d600480360381019061071891906152ac565b61160e565b60405161072a9190614935565b60405180910390f35b34801561073e575f5ffd5b5061075960048036038101906107549190614978565b611676565b6040516107669190614935565b60405180910390f35b34801561077a575f5ffd5b5061079560048036038101906107909190615387565b61176f565b005b3480156107a2575f5ffd5b506107bd60048036038101906107b891906153b2565b611783565b6040516107ca9190614935565b60405180910390f35b3480156107de575f5ffd5b506107f960048036038101906107f491906154c1565b6117e9565b6040516108069190614935565b60405180910390f35b34801561081a575f5ffd5b5061083560048036038101906108309190615595565b6118d6565b6040516108429190614935565b60405180910390f35b348015610856575f5ffd5b5061085f61191c565b60405161087297969594939291906156b1565b60405180910390f35b348015610886575f5ffd5b506108a1600480360381019061089c9190615733565b6119c1565b6040516108ae9190614935565b60405180910390f35b3480156108c2575f5ffd5b506108cb611a95565b6040516108d891906157c2565b60405180910390f35b3480156108ec575f5ffd5b506108f5611b20565b6040516109029190614935565b60405180910390f35b348015610916575f5ffd5b50610931600480360381019061092c91906157db565b611b28565b60405161093e9190614935565b60405180910390f35b348015610952575f5ffd5b5061095b611b3d565b6040516109689190614935565b60405180910390f35b34801561097c575f5ffd5b5061099760048036038101906109929190615893565b611b69565b005b3480156109a4575f5ffd5b506109bf60048036038101906109ba9190614978565b611b7d565b6040516109cc9190614904565b60405180910390f35b3480156109e0575f5ffd5b506109fb60048036038101906109f69190614978565b611b8e565b604051610a089190614935565b60405180910390f35b348015610a1c575f5ffd5b50610a25611bc4565b604051610a329190614935565b60405180910390f35b348015610a46575f5ffd5b50610a616004803603810190610a5c91906158be565b611bd2565b604051610a6e9190614c70565b60405180910390f35b348015610a82575f5ffd5b50610a9d6004803603810190610a989190614978565b611c52565b604051610aaa9190614935565b60405180910390f35b610acd6004803603810190610ac891906159de565b611cbc565b005b348015610ada575f5ffd5b50610af56004803603810190610af09190614f1e565b611d45565b604051610b029190614935565b60405180910390f35b348015610b16575f5ffd5b50610b1f611d7f565b604051610b2c9190614a72565b60405180910390f35b348015610b40575f5ffd5b50610b49611da7565b604051610b569190614a13565b60405180910390f35b348015610b6a575f5ffd5b50610b73611de4565b604051610b809190614fe5565b60405180910390f35b348015610b94575f5ffd5b50610baf6004803603810190610baa9190615a88565b611e08565b005b348015610bbc575f5ffd5b50610bd76004803603810190610bd29190615ab3565b611e1c565b604051610be49190614935565b60405180910390f35b348015610bf8575f5ffd5b50610c136004803603810190610c0e9190614978565b611e37565b005b348015610c20575f5ffd5b50610c3b6004803603810190610c369190615af1565b611e4b565b604051610c489190614c70565b60405180910390f35b348015610c5c575f5ffd5b50610c776004803603810190610c729190614978565b611ecb565b604051610c849190614935565b60405180910390f35b348015610c98575f5ffd5b50610ca1611f77565b604051610cae9190615bdf565b60405180910390f35b5f610cc0611f9e565b905090565b5f7f65455a86000000000000000000000000000000000000000000000000000000007bffffffffffffffffffffffffffffffffffffffffffffffffffffffff1916827bffffffffffffffffffffffffffffffffffffffffffffffffffffffff19161480610d8f57507f4e2312e0000000000000000000000000000000000000000000000000000000007bffffffffffffffffffffffffffffffffffffffffffffffffffffffff1916827bffffffffffffffffffffffffffffffffffffffffffffffffffffffff1916145b80610d9f5750610d9e82611fc6565b5b9050919050565b5f610daf61202f565b905090565b610dbc61204e565b610dc581612143565b50565b606060038054610dd790615c25565b80601f0160208091040260200160405190810160405280929190818152602001828054610e0390615c25565b8015610e4e5780601f10610e2557610100808354040283529160200191610e4e565b820191905f5260205f20905b815481529060010190602001808311610e3157829003601f168201915b5050505050905090565b5f60045f8381526020019081526020015f205f015f9054906101000a900473ffffffffffffffffffffffffffffffffffffffff169050919050565b5f3073ffffffffffffffffffffffffffffffffffffffff16610eb3610cb7565b73ffffffffffffffffffffffffffffffffffffffff1614610f00576040517fe90a651e00000000000000000000000000000000000000000000000000000000815260040160405180910390fd5b63150b7a0260e01b9050949350505050565b5f5f610f2086868686611d45565b9050610f3581610f306004612205565b612229565b505f610f448288888888612294565b90505f8165ffffffffffff1614610fc9578060045f8481526020019081526020015f206001015f6101000a81548165ffffffffffff021916908365ffffffffffff1602179055507f9a2e42fd6722813d69113e7d0079d3d940171428df7373df9c7f7617cfda28928282604051610fbc929190615c85565b60405180910390a1610ffb565b6040517f90884a4600000000000000000000000000000000000000000000000000000000815260040160405180910390fd5b8192505050949350505050565b5f5f61101686868686611d45565b9050611036816110266005612205565b6110306004612205565b17612229565b50600160045f8381526020019081526020015f205f01601e6101000a81548160ff0219169083151502179055503073ffffffffffffffffffffffffffffffffffffffff16611082610cb7565b73ffffffffffffffffffffffffffffffffffffffff161461113b575f5f90505b8651811015611139573073ffffffffffffffffffffffffffffffffffffffff168782815181106110d5576110d4615cac565b5b602002602001015173ffffffffffffffffffffffffffffffffffffffff160361112e5761112d85828151811061110e5761110d615cac565b5b60200260200101518051906020012060056122ad90919063ffffffff16565b5b8060010190506110a2565b505b61114881878787876123cc565b3073ffffffffffffffffffffffffffffffffffffffff16611167610cb7565b73ffffffffffffffffffffffffffffffffffffffff1614158015611192575061119060056123e0565b155b156111a2576111a1600561244c565b5b7f712ae1383f79ac853f8d882153778e0260ef8f03b504e2866e0593e04d2b291f816040516111d19190614935565b60405180910390a180915050949350505050565b5f60045f8381526020019081526020015f205f0160149054906101000a900465ffffffffffff1665ffffffffffff169050919050565b7f3e83946653575f9a39005e1545185629e92736b7528ab20ca3816f315424a81181565b5f6112486124c2565b905090565b5f611257826124e4565b9050919050565b5f60095f8481526020019081526020015f206003015f8373ffffffffffffffffffffffffffffffffffffffff1673ffffffffffffffffffffffffffffffffffffffff1681526020019081526020015f205f9054906101000a900460ff16905092915050565b5f5f6112d186868686611d45565b90506112e5816112e05f612205565b612229565b506112ef81610e58565b73ffffffffffffffffffffffffffffffffffffffff1661130d612699565b73ffffffffffffffffffffffffffffffffffffffff161461136c57611330612699565b6040517f233d98e30000000000000000000000000000000000000000000000000000000081526004016113639190614a72565b60405180910390fd5b611378868686866126a0565b915050949350505050565b606061138d611f77565b73ffffffffffffffffffffffffffffffffffffffff16634bf5d7e96040518163ffffffff1660e01b81526004015f60405180830381865afa9250505080156113f757506040513d5f823e3d601f19601f820116820180604052508101906113f49190615d47565b60015b611438576040518060400160405280601d81526020017f6d6f64653d626c6f636b6e756d6265722666726f6d3d64656661756c74000000815250905061143d565b809150505b90565b5f5f5f5f60095f8681526020019081526020015f209050805f015481600101548260020154935093509350509193909250565b60606040518060400160405280600181526020017f3100000000000000000000000000000000000000000000000000000000000000815250905090565b5f5f6114ba612699565b90506114d684828560405180602001604052805f8152506126b7565b91505092915050565b5f5f61156c876115667f3e83946653575f9a39005e1545185629e92736b7528ab20ca3816f315424a8118c8c8c6115158e6126d6565b8d8d604051611525929190615dbc565b60405180910390208c8051906020012060405160200161154b9796959493929190615de3565b60405160208183030381529060405280519060200120612729565b85612742565b9050806115b057866040517f94ab6c070000000000000000000000000000000000000000000000000000000081526004016115a79190614a72565b60405180910390fd5b61160089888a89898080601f0160208091040260200160405190810160405280939291908181526020018383808284375f81840152601f19601f82011690508083019250505050505050886127cf565b915050979650505050505050565b5f5f611618612699565b905061166a87828888888080601f0160208091040260200160405190810160405280939291908181526020018383808284375f81840152601f19601f82011690508083019250505050505050876127cf565b91505095945050505050565b5f5f600a5f018054905090505f600a5f016001836116949190615e7d565b815481106116a5576116a4615cac565b5b905f5260205f200190505f815f015f9054906101000a900465ffffffffffff1690505f825f0160069054906101000a900479ffffffffffffffffffffffffffffffffffffffffffffffffffff169050858265ffffffffffff161161172b578079ffffffffffffffffffffffffffffffffffffffffffffffffffff1694505050505061176a565b611747611737876128cc565b600a61292590919063ffffffff16565b79ffffffffffffffffffffffffffffffffffffffffffffffffffff169450505050505b919050565b61177761204e565b61178081612a15565b50565b5f5f61178d612699565b90506117de86828787878080601f0160208091040260200160405190810160405280939291908181526020018383808284375f81840152601f19601f820116905080830192505050505050506126b7565b915050949350505050565b5f5f6117f3612699565b90506117ff8184612a88565b61184057806040517fd9b395570000000000000000000000000000000000000000000000000000000081526004016118379190614a72565b60405180910390fd5b5f61186682600161184f611a95565b6118599190615eb0565b65ffffffffffff16611e1c565b90505f611871611bc4565b9050808210156118bc578282826040517fc242ee160000000000000000000000000000000000000000000000000000000081526004016118b393929190615ee9565b60405180910390fd5b6118c98888888887612bd3565b9350505050949350505050565b5f60025f8373ffffffffffffffffffffffffffffffffffffffff1673ffffffffffffffffffffffffffffffffffffffff1681526020019081526020015f20549050919050565b5f6060805f5f5f606061192d612e58565b611935612e92565b46305f5f1b5f67ffffffffffffffff81111561195457611953614abd565b5b6040519080825280602002602001820160405280156119825781602001602082028036833780820191505090505b507f0f00000000000000000000000000000000000000000000000000000000000000959493929190965096509650965096509650965090919293949596565b5f5f611a2c84611a267ff2aad550cf55f045cb27e9c559f9889fdfb6e6cdaa032301d6ea397784ae51d78989896119f78b6126d6565b604051602001611a0b959493929190615f1e565b60405160208183030381529060405280519060200120612729565b85612742565b905080611a7057836040517f94ab6c07000000000000000000000000000000000000000000000000000000008152600401611a679190614a72565b60405180910390fd5b611a8a86858760405180602001604052805f8152506126b7565b915050949350505050565b5f611a9e611f77565b73ffffffffffffffffffffffffffffffffffffffff166391ddadf46040518163ffffffff1660e01b8152600401602060405180830381865afa925050508015611b0557506040513d601f19601f82011682018060405250810190611b029190615f83565b60015b611b1857611b11612ecd565b9050611b1d565b809150505b90565b5f6064905090565b5f611b34848484612edc565b90509392505050565b5f611b48600a612f67565b79ffffffffffffffffffffffffffffffffffffffffffffffffffff16905090565b611b7161204e565b611b7a81612fc9565b50565b5f611b8782613066565b9050919050565b5f60045f8381526020019081526020015f206001015f9054906101000a900465ffffffffffff1665ffffffffffff169050919050565b5f611bcd613070565b905090565b5f3073ffffffffffffffffffffffffffffffffffffffff16611bf2610cb7565b73ffffffffffffffffffffffffffffffffffffffff1614611c3f576040517fe90a651e00000000000000000000000000000000000000000000000000000000815260040160405180910390fd5b63bc197c8160e01b905095945050505050565b5f60045f8381526020019081526020015f205f01601a9054906101000a900463ffffffff1663ffffffff1660045f8481526020019081526020015f205f0160149054906101000a900465ffffffffffff16611cad9190615fae565b65ffffffffffff169050919050565b611cc461204e565b5f5f8573ffffffffffffffffffffffffffffffffffffffff16858585604051611cee929190615dbc565b5f6040518083038185875af1925050503d805f8114611d28576040519150601f19603f3d011682016040523d82523d5f602084013e611d2d565b606091505b5091509150611d3c8282613079565b50505050505050565b5f84848484604051602001611d5d94939291906161ab565b604051602081830303815290604052805190602001205f1c9050949350505050565b5f600b5f9054906101000a900473ffffffffffffffffffffffffffffffffffffffff16905090565b60606040518060400160405280602081526020017f737570706f72743d627261766f2671756f72756d3d666f722c6162737461696e815250905090565b7ff2aad550cf55f045cb27e9c559f9889fdfb6e6cdaa032301d6ea397784ae51d781565b611e1061204e565b611e198161309d565b50565b5f611e2f8383611e2a613156565b612edc565b905092915050565b611e3f61204e565b611e488161316c565b50565b5f3073ffffffffffffffffffffffffffffffffffffffff16611e6b610cb7565b73ffffffffffffffffffffffffffffffffffffffff1614611eb8576040517fe90a651e00000000000000000000000000000000000000000000000000000000815260040160405180910390fd5b63f23a6e6160e01b905095945050505050565b5f611ed4611b20565b611edd83611676565b611ee5611f77565b73ffffffffffffffffffffffffffffffffffffffff16638e539e8c856040518263ffffffff1660e01b8152600401611f1d9190614935565b602060405180830381865afa158015611f38573d5f5f3e3d5ffd5b505050506040513d601f19601f82011682018060405250810190611f5c9190616217565b611f669190616242565b611f7091906162b0565b9050919050565b5f7f0000000000000000000000000000000000000000000000000000000000000000905090565b5f600b5f9054906101000a900473ffffffffffffffffffffffffffffffffffffffff16905090565b5f7f01ffc9a7000000000000000000000000000000000000000000000000000000007bffffffffffffffffffffffffffffffffffffffffffffffffffffffff1916827bffffffffffffffffffffffffffffffffffffffffffffffffffffffff1916149050919050565b5f600860069054906101000a900463ffffffff1663ffffffff16905090565b612056612699565b73ffffffffffffffffffffffffffffffffffffffff16612074610cb7565b73ffffffffffffffffffffffffffffffffffffffff16146120d357612097612699565b6040517f47096e470000000000000000000000000000000000000000000000000000000081526004016120ca9190614a72565b60405180910390fd5b3073ffffffffffffffffffffffffffffffffffffffff166120f2610cb7565b73ffffffffffffffffffffffffffffffffffffffff1614612141575f6121166131b1565b604051612124929190615dbc565b604051809103902090505b8061213a60056131bd565b0361212f57505b565b5f61214c611b20565b9050808211156121955781816040517f243e544500000000000000000000000000000000000000000000000000000000815260040161218c9291906162e0565b60405180910390fd5b5f61219e611b3d565b90506121c56121ab611a95565b6121b485613312565b600a61337f9092919063ffffffff16565b50507f0553476bf02ef2726e8ce5ced78d63e26e602e4a2257b1f559418e24b463399781846040516121f89291906162e0565b60405180910390a1505050565b5f81600781111561221957612218614ffe565b5b60ff166001901b5f1b9050919050565b5f5f6122348461124d565b90505f5f1b8361224383612205565b160361228a578381846040517f31b75e4d00000000000000000000000000000000000000000000000000000000815260040161228193929190616307565b60405180910390fd5b8091505092915050565b5f6122a2868686868661339a565b905095945050505050565b5f825f0160109054906101000a90046fffffffffffffffffffffffffffffffff169050825f015f9054906101000a90046fffffffffffffffffffffffffffffffff166fffffffffffffffffffffffffffffffff16600182016fffffffffffffffffffffffffffffffff160361234e576040517f8acb5f2700000000000000000000000000000000000000000000000000000000815260040160405180910390fd5b81836001015f836fffffffffffffffffffffffffffffffff166fffffffffffffffffffffffffffffffff1681526020019081526020015f208190555060018101835f0160106101000a8154816fffffffffffffffffffffffffffffffff02191690836fffffffffffffffffffffffffffffffff160217905550505050565b6123d985858585856135a0565b5050505050565b5f815f015f9054906101000a90046fffffffffffffffffffffffffffffffff166fffffffffffffffffffffffffffffffff16825f0160109054906101000a90046fffffffffffffffffffffffffffffffff166fffffffffffffffffffffffffffffffff16149050919050565b5f815f015f6101000a8154816fffffffffffffffffffffffffffffffff02191690836fffffffffffffffffffffffffffffffff1602179055505f815f0160106101000a8154816fffffffffffffffffffffffffffffffff02191690836fffffffffffffffffffffffffffffffff16021790555050565b5f60085f9054906101000a900465ffffffffffff1665ffffffffffff16905090565b5f5f6124ef83613654565b90506005600781111561250557612504614ffe565b5b81600781111561251857612517614ffe565b5b146125265780915050612694565b5f600c5f8581526020019081526020015f20549050600b5f9054906101000a900473ffffffffffffffffffffffffffffffffffffffff1673ffffffffffffffffffffffffffffffffffffffff1663584b153e826040518263ffffffff1660e01b81526004016125959190614fe5565b602060405180830381865afa1580156125b0573d5f5f3e3d5ffd5b505050506040513d601f19601f820116820180604052508101906125d49190616366565b156125e457600592505050612694565b600b5f9054906101000a900473ffffffffffffffffffffffffffffffffffffffff1673ffffffffffffffffffffffffffffffffffffffff16632ab0f529826040518263ffffffff1660e01b815260040161263e9190614fe5565b602060405180830381865afa158015612659573d5f5f3e3d5ffd5b505050506040513d601f19601f8201168201806040525081019061267d9190616366565b1561268d57600792505050612694565b6002925050505b919050565b5f33905090565b5f6126ad858585856137ab565b9050949350505050565b5f6126cc858585856126c7613156565b6127cf565b9050949350505050565b5f60025f8373ffffffffffffffffffffffffffffffffffffffff1673ffffffffffffffffffffffffffffffffffffffff1681526020019081526020015f205f815480929190600101919050559050919050565b5f61273b612735613882565b83613938565b9050919050565b5f5f5f61274f8585613978565b50915091505f600381111561276757612766614ffe565b5b81600381111561277a57612779614ffe565b5b1480156127b257508573ffffffffffffffffffffffffffffffffffffffff168273ffffffffffffffffffffffffffffffffffffffff16145b806127c457506127c38686866139cd565b5b925050509392505050565b5f6127e3866127de6001612205565b612229565b505f6127f8866127f2896111e5565b85612edc565b90506128078787878487613aec565b5f835103612868578573ffffffffffffffffffffffffffffffffffffffff167fb8e138887d0aa13bab447e82de9d5c1777041ecd21ca36ba824ff1e6c07ddda48887848860405161285b9493929190616391565b60405180910390a26128bf565b8573ffffffffffffffffffffffffffffffffffffffff167fe2babfbac5889a709b63bb7f598b324e08bc5a4fb9ec647fb3cbc9ec07eb871288878488886040516128b6959493929190616423565b60405180910390a25b8091505095945050505050565b5f65ffffffffffff801682111561291d576030826040517f6dfcc6500000000000000000000000000000000000000000000000000000000081526004016129149291906164bb565b60405180910390fd5b819050919050565b5f5f835f018054905090505f5f90505f82905060058311156129a9575f61294b84613cdb565b846129569190615e7d565b9050612964875f0182613dd1565b5f015f9054906101000a900465ffffffffffff1665ffffffffffff168665ffffffffffff161015612997578091506129a7565b6001816129a491906164e2565b92505b505b5f6129b8875f01878585613de3565b90505f8114612a07576129d9875f016001836129d49190615e7d565b613dd1565b5f0160069054906101000a900479ffffffffffffffffffffffffffffffffffffffffffffffffffff16612a09565b5f5b94505050505092915050565b7fc565b045403dc03c2eea82b81a0465edad9e2e7fc4d97e11421c209da93d7a9360085f9054906101000a900465ffffffffffff1682604051612a59929190616515565b60405180910390a18060085f6101000a81548165ffffffffffff021916908365ffffffffffff16021790555050565b5f5f825190506034811015612aa1576001915050612bcd565b5f6014820384015190507f2370726f706f7365723d3078000000000000000000000000000000000000000073ffffffffffffffffffffffffffffffffffffffff19168173ffffffffffffffffffffffffffffffffffffffff191614612b0b57600192505050612bcd565b5f5f90505f602884612b1d9190615e7d565b90505b83811015612b97575f5f612b50888481518110612b4057612b3f615cac565b5b602001015160f81c60f81b613e58565b9150915081612b685760019650505050505050612bcd565b8060ff1660048573ffffffffffffffffffffffffffffffffffffffff16901b1793505050806001019050612b20565b508573ffffffffffffffffffffffffffffffffffffffff168173ffffffffffffffffffffffffffffffffffffffff161493505050505b92915050565b5f612be78686868680519060200120611d45565b905084518651141580612bfc57508351865114155b80612c0757505f8651145b15612c50578551845186516040517f447b05d0000000000000000000000000000000000000000000000000000000008152600401612c47939291906150c8565b60405180910390fd5b5f60045f8381526020019081526020015f205f0160149054906101000a900465ffffffffffff1665ffffffffffff1614612ccf5780612c8e8261124d565b5f5f1b6040517f31b75e4d000000000000000000000000000000000000000000000000000000008152600401612cc693929190616307565b60405180910390fd5b5f612cd861123f565b612ce0611a95565b65ffffffffffff16612cf291906164e2565b90505f612cfd610da6565b90505f60045f8581526020019081526020015f20905084815f015f6101000a81548173ffffffffffffffffffffffffffffffffffffffff021916908373ffffffffffffffffffffffffffffffffffffffff160217905550612d5d836128cc565b815f0160146101000a81548165ffffffffffff021916908365ffffffffffff160217905550612d8b82613eef565b815f01601a6101000a81548163ffffffff021916908363ffffffff1602179055507f7d84a6263ae0d98d3329bd7b46bb4e8d6f98cd35a7adb45c274c8b7fd5ebd5e084868b8b8d5167ffffffffffffffff811115612dec57612deb614abd565b5b604051908082528060200260200182016040528015612e1f57816020015b6060815260200190600190039081612e0a5790505b508c89898b612e2e91906164e2565b8e604051612e449998979695949392919061663f565b60405180910390a150505095945050505050565b6060612e8d5f7f0000000000000000000000000000000000000000000000000000000000000000613f4690919063ffffffff16565b905090565b6060612ec860017f0000000000000000000000000000000000000000000000000000000000000000613f4690919063ffffffff16565b905090565b5f612ed7436128cc565b905090565b5f612ee5611f77565b73ffffffffffffffffffffffffffffffffffffffff16633a46b1a885856040518363ffffffff1660e01b8152600401612f1f9291906166ed565b602060405180830381865afa158015612f3a573d5f5f3e3d5ffd5b505050506040513d601f19601f82011682018060405250810190612f5e9190616217565b90509392505050565b5f5f825f018054905090505f8114612fbf57612f91835f01600183612f8c9190615e7d565b613dd1565b5f0160069054906101000a900479ffffffffffffffffffffffffffffffffffffffffffffffffffff16612fc1565b5f5b915050919050565b7f08f74ea46ef7894f65eabfb5e6e695de773a000b47c529ab559178069b226401600b5f9054906101000a900473ffffffffffffffffffffffffffffffffffffffff168260405161301b929190616714565b60405180910390a180600b5f6101000a81548173ffffffffffffffffffffffffffffffffffffffff021916908373ffffffffffffffffffffffffffffffffffffffff16021790555050565b5f60019050919050565b5f600754905090565b60608261308e5761308982613ff3565b613096565b819050613097565b5b92915050565b5f8163ffffffff16036130e7575f6040517ff1cfbf050000000000000000000000000000000000000000000000000000000081526004016130de9190616774565b60405180910390fd5b7f7e3f7f0708a84de9203036abaa450dccc85ad5ff52f78c170f3edb55cf5e8828600860069054906101000a900463ffffffff168260405161312a9291906167bd565b60405180910390a180600860066101000a81548163ffffffff021916908363ffffffff16021790555050565b606060405180602001604052805f815250905090565b7fccb45da8d5717e6c4544694297c4ba5cf151d455c9bb0ed4fc7a38411bc054616007548260405161319f9291906162e0565b60405180910390a18060078190555050565b365f5f36915091509091565b5f5f825f015f9054906101000a90046fffffffffffffffffffffffffffffffff169050825f0160109054906101000a90046fffffffffffffffffffffffffffffffff166fffffffffffffffffffffffffffffffff16816fffffffffffffffffffffffffffffffff160361325c576040517f75e52f4f00000000000000000000000000000000000000000000000000000000815260040160405180910390fd5b826001015f826fffffffffffffffffffffffffffffffff166fffffffffffffffffffffffffffffffff1681526020019081526020015f20549150826001015f826fffffffffffffffffffffffffffffffff166fffffffffffffffffffffffffffffffff1681526020019081526020015f205f905560018101835f015f6101000a8154816fffffffffffffffffffffffffffffffff02191690836fffffffffffffffffffffffffffffffff16021790555050919050565b5f79ffffffffffffffffffffffffffffffffffffffffffffffffffff80168211156133775760d0826040517f6dfcc65000000000000000000000000000000000000000000000000000000000815260040161336e92919061681d565b60405180910390fd5b819050919050565b5f5f61338e855f018585614037565b91509150935093915050565b5f5f600b5f9054906101000a900473ffffffffffffffffffffffffffffffffffffffff1673ffffffffffffffffffffffffffffffffffffffff1663f27a0c926040518163ffffffff1660e01b8152600401602060405180830381865afa158015613406573d5f5f3e3d5ffd5b505050506040513d601f19601f8201168201806040525081019061342a9190616217565b90505f6134368461439f565b9050600b5f9054906101000a900473ffffffffffffffffffffffffffffffffffffffff1673ffffffffffffffffffffffffffffffffffffffff1663b1c5f4278888885f866040518663ffffffff1660e01b815260040161349a95949392919061687f565b602060405180830381865afa1580156134b5573d5f5f3e3d5ffd5b505050506040513d601f19601f820116820180604052508101906134d991906168f9565b600c5f8a81526020019081526020015f2081905550600b5f9054906101000a900473ffffffffffffffffffffffffffffffffffffffff1673ffffffffffffffffffffffffffffffffffffffff16638f2a0bb08888885f86886040518763ffffffff1660e01b815260040161355296959493929190616924565b5f604051808303815f87803b158015613569575f5ffd5b505af115801561357b573d5f5f3e3d5ffd5b50505050613593824261358e91906164e2565b6128cc565b9250505095945050505050565b600b5f9054906101000a900473ffffffffffffffffffffffffffffffffffffffff1673ffffffffffffffffffffffffffffffffffffffff1663e38335e5348686865f6135eb8861439f565b6040518763ffffffff1660e01b815260040161360b95949392919061687f565b5f604051808303818588803b158015613622575f5ffd5b505af1158015613634573d5f5f3e3d5ffd5b5050505050600c5f8681526020019081526020015f205f90555050505050565b5f5f60045f8481526020019081526020015f2090505f815f01601e9054906101000a900460ff1690505f825f01601f9054906101000a900460ff16905081156136a357600793505050506137a6565b80156136b557600293505050506137a6565b5f6136bf866111e5565b90505f810361370557856040517f6ad060750000000000000000000000000000000000000000000000000000000081526004016136fc9190614935565b60405180910390fd5b5f61370e611a95565b65ffffffffffff16905080821061372c575f955050505050506137a6565b5f61373688611c52565b905081811061374e57600196505050505050506137a6565b613757886143bc565b1580613769575061376788614400565b155b1561377d57600396505050505050506137a6565b5f61378789611b8e565b0361379b57600496505050505050506137a6565b600596505050505050505b919050565b5f5f6137b986868686614427565b90505f600c5f8381526020019081526020015f205490505f5f1b811461387557600b5f9054906101000a900473ffffffffffffffffffffffffffffffffffffffff1673ffffffffffffffffffffffffffffffffffffffff1663c4d252f5826040518263ffffffff1660e01b81526004016138339190614fe5565b5f604051808303815f87803b15801561384a575f5ffd5b505af115801561385c573d5f5f3e3d5ffd5b50505050600c5f8381526020019081526020015f205f90555b8192505050949350505050565b5f7f000000000000000000000000000000000000000000000000000000000000000073ffffffffffffffffffffffffffffffffffffffff163073ffffffffffffffffffffffffffffffffffffffff161480156138fd57507f000000000000000000000000000000000000000000000000000000000000000046145b1561392a577f00000000000000000000000000000000000000000000000000000000000000009050613935565b613932614509565b90505b90565b5f6040517f190100000000000000000000000000000000000000000000000000000000000081528360028201528260228201526042812091505092915050565b5f5f5f60418451036139b8575f5f5f602087015192506040870151915060608701515f1a90506139aa8882858561459e565b9550955095505050506139c6565b5f600285515f1b9250925092505b9250925092565b5f5f5f8573ffffffffffffffffffffffffffffffffffffffff1685856040516024016139fa929190616998565b604051602081830303815290604052631626ba7e60e01b6020820180517bffffffffffffffffffffffffffffffffffffffffffffffffffffffff8381831617835250505050604051613a4c91906169f6565b5f60405180830381855afa9150503d805f8114613a84576040519150601f19603f3d011682016040523d82523d5f602084013e613a89565b606091505b5091509150818015613a9d57506020815110155b8015613ae15750631626ba7e60e01b7bffffffffffffffffffffffffffffffffffffffffffffffffffffffff191681806020019051810190613adf91906168f9565b145b925050509392505050565b5f60095f8781526020019081526020015f209050806003015f8673ffffffffffffffffffffffffffffffffffffffff1673ffffffffffffffffffffffffffffffffffffffff1681526020019081526020015f205f9054906101000a900460ff1615613b8e57846040517f71c6af49000000000000000000000000000000000000000000000000000000008152600401613b859190614a72565b60405180910390fd5b6001816003015f8773ffffffffffffffffffffffffffffffffffffffff1673ffffffffffffffffffffffffffffffffffffffff1681526020019081526020015f205f6101000a81548160ff0219169083151502179055505f6002811115613bf857613bf7614ffe565b5b60ff168460ff1603613c225782815f015f828254613c1691906164e2565b92505081905550613cd3565b60016002811115613c3657613c35614ffe565b5b60ff168460ff1603613c615782816001015f828254613c5591906164e2565b92505081905550613cd2565b600280811115613c7457613c73614ffe565b5b60ff168460ff1603613c9f5782816002015f828254613c9391906164e2565b92505081905550613cd1565b6040517f06b337c200000000000000000000000000000000000000000000000000000000815260040160405180910390fd5b5b5b505050505050565b5f5f8203613ceb575f9050613dcc565b5f6001613cf784614685565b901c6001901b90506001818481613d1157613d10616283565b5b048201901c90506001818481613d2a57613d29616283565b5b048201901c90506001818481613d4357613d42616283565b5b048201901c90506001818481613d5c57613d5b616283565b5b048201901c90506001818481613d7557613d74616283565b5b048201901c90506001818481613d8e57613d8d616283565b5b048201901c90506001818481613da757613da6616283565b5b048201901c9050613dc881828581613dc257613dc1616283565b5b0461475c565b9150505b919050565b5f825f528160205f2001905092915050565b5f5b81831015613e4d575f613df88484614774565b90508465ffffffffffff16613e0d8783613dd1565b5f015f9054906101000a900465ffffffffffff1665ffffffffffff161115613e3757809250613e47565b600181613e4491906164e2565b93505b50613de5565b819050949350505050565b5f5f5f8360f81c90508060ff16602f108015613e775750603a8160ff16105b15613e8c576001603082039250925050613eea565b8060ff166040108015613ea2575060478160ff16105b15613eb7576001603782039250925050613eea565b8060ff166060108015613ecd575060678160ff16105b15613ee2576001605782039250925050613eea565b5f5f92509250505b915091565b5f63ffffffff8016821115613f3e576020826040517f6dfcc650000000000000000000000000000000000000000000000000000000008152600401613f35929190616a45565b60405180910390fd5b819050919050565b606060ff5f1b8314613f6257613f5b83614799565b9050613fed565b818054613f6e90615c25565b80601f0160208091040260200160405190810160405280929190818152602001828054613f9a90615c25565b8015613fe55780601f10613fbc57610100808354040283529160200191613fe5565b820191905f5260205f20905b815481529060010190602001808311613fc857829003601f168201915b505050505090505b92915050565b5f815111156140055780518082602001fd5b6040517f1425ea4200000000000000000000000000000000000000000000000000000000815260040160405180910390fd5b5f5f5f858054905090505f8111156142b7575f6140608760018461405b9190615e7d565b613dd1565b6040518060400160405290815f82015f9054906101000a900465ffffffffffff1665ffffffffffff1665ffffffffffff1681526020015f820160069054906101000a900479ffffffffffffffffffffffffffffffffffffffffffffffffffff1679ffffffffffffffffffffffffffffffffffffffffffffffffffff1679ffffffffffffffffffffffffffffffffffffffffffffffffffff168152505090508565ffffffffffff16815f015165ffffffffffff16111561414b576040517f2520601d00000000000000000000000000000000000000000000000000000000815260040160405180910390fd5b8565ffffffffffff16815f015165ffffffffffff16036141cd578461417c886001856141779190615e7d565b613dd1565b5f0160066101000a81548179ffffffffffffffffffffffffffffffffffffffffffffffffffff021916908379ffffffffffffffffffffffffffffffffffffffffffffffffffff1602179055506142a6565b8660405180604001604052808865ffffffffffff1681526020018779ffffffffffffffffffffffffffffffffffffffffffffffffffff16815250908060018154018082558091505060019003905f5260205f20015f909190919091505f820151815f015f6101000a81548165ffffffffffff021916908365ffffffffffff1602179055506020820151815f0160066101000a81548179ffffffffffffffffffffffffffffffffffffffffffffffffffff021916908379ffffffffffffffffffffffffffffffffffffffffffffffffffff16021790555050505b806020015185935093505050614397565b8560405180604001604052808765ffffffffffff1681526020018679ffffffffffffffffffffffffffffffffffffffffffffffffffff16815250908060018154018082558091505060019003905f5260205f20015f909190919091505f820151815f015f6101000a81548165ffffffffffff021916908365ffffffffffff1602179055506020820151815f0160066101000a81548179ffffffffffffffffffffffffffffffffffffffffffffffffffff021916908379ffffffffffffffffffffffffffffffffffffffffffffffffffff16021790555050505f8492509250505b935093915050565b5f813060601b6bffffffffffffffffffffffff1916189050919050565b5f5f60095f8481526020019081526020015f209050806002015481600101546143e591906164e2565b6143f66143f1856111e5565b611ecb565b1115915050919050565b5f5f60095f8481526020019081526020015f209050805f0154816001015411915050919050565b5f5f61443586868686611d45565b9050614499816144456007612205565b61444f6006612205565b6144596002612205565b60018060078081111561446f5761446e614ffe565b5b6144799190616a6c565b60026144859190616bcf565b61448f9190615e7d565b5f1b181818612229565b50600160045f8381526020019081526020015f205f01601f6101000a81548160ff0219169083151502179055507f789cf55be980739dad1d0699b93b58e806b51c9d96619bfa8fe0a28abaa7b30c816040516144f59190614935565b60405180910390a180915050949350505050565b5f7f8b73c3c69bb8fe3d512ecc4cf759cc79239f7b179b0ffacaa9a75d522b39400f7f00000000000000000000000000000000000000000000000000000000000000007f00000000000000000000000000000000000000000000000000000000000000004630604051602001614583959493929190616c19565b60405160208183030381529060405280519060200120905090565b5f5f5f7f7fffffffffffffffffffffffffffffff5d576e7357a4501ddfe92f46681b20a0845f1c11156145da575f60038592509250925061467b565b5f6001888888886040515f81526020016040526040516145fd9493929190616c6a565b6020604051602081039080840390855afa15801561461d573d5f5f3e3d5ffd5b5050506020604051035190505f73ffffffffffffffffffffffffffffffffffffffff168173ffffffffffffffffffffffffffffffffffffffff160361466e575f60015f5f1b9350935093505061467b565b805f5f5f1b935093509350505b9450945094915050565b5f5f5f90505f608084901c11156146a457608083901c92506080810190505b5f604084901c11156146be57604083901c92506040810190505b5f602084901c11156146d857602083901c92506020810190505b5f601084901c11156146f257601083901c92506010810190505b5f600884901c111561470c57600883901c92506008810190505b5f600484901c111561472657600483901c92506004810190505b5f600284901c111561474057600283901c92506002810190505b5f600184901c1115614753576001810190505b80915050919050565b5f81831061476a578161476c565b825b905092915050565b5f600282841861478491906162b0565b82841661479191906164e2565b905092915050565b60605f6147a58361480b565b90505f602067ffffffffffffffff8111156147c3576147c2614abd565b5b6040519080825280601f01601f1916602001820160405280156147f55781602001600182028036833780820191505090505b5090508181528360208201528092505050919050565b5f5f60ff835f1c169050601f811115614850576040517fb3512b0c00000000000000000000000000000000000000000000000000000000815260040160405180910390fd5b80915050919050565b5f604051905090565b5f5ffd5b5f5ffd5b5f7fffffffff0000000000000000000000000000000000000000000000000000000082169050919050565b61489e8161486a565b81146148a8575f5ffd5b50565b5f813590506148b981614895565b92915050565b5f602082840312156148d4576148d3614862565b5b5f6148e1848285016148ab565b91505092915050565b5f8115159050919050565b6148fe816148ea565b82525050565b5f6020820190506149175f8301846148f5565b92915050565b5f819050919050565b61492f8161491d565b82525050565b5f6020820190506149485f830184614926565b92915050565b6149578161491d565b8114614961575f5ffd5b50565b5f813590506149728161494e565b92915050565b5f6020828403121561498d5761498c614862565b5b5f61499a84828501614964565b91505092915050565b5f81519050919050565b5f82825260208201905092915050565b8281835e5f83830152505050565b5f601f19601f8301169050919050565b5f6149e5826149a3565b6149ef81856149ad565b93506149ff8185602086016149bd565b614a08816149cb565b840191505092915050565b5f6020820190508181035f830152614a2b81846149db565b905092915050565b5f73ffffffffffffffffffffffffffffffffffffffff82169050919050565b5f614a5c82614a33565b9050919050565b614a6c81614a52565b82525050565b5f602082019050614a855f830184614a63565b92915050565b614a9481614a52565b8114614a9e575f5ffd5b50565b5f81359050614aaf81614a8b565b92915050565b5f5ffd5b5f5ffd5b7f4e487b71000000000000000000000000000000000000000000000000000000005f52604160045260245ffd5b614af3826149cb565b810181811067ffffffffffffffff82111715614b1257614b11614abd565b5b80604052505050565b5f614b24614859565b9050614b308282614aea565b919050565b5f67ffffffffffffffff821115614b4f57614b4e614abd565b5b614b58826149cb565b9050602081019050919050565b828183375f83830152505050565b5f614b85614b8084614b35565b614b1b565b905082815260208101848484011115614ba157614ba0614ab9565b5b614bac848285614b65565b509392505050565b5f82601f830112614bc857614bc7614ab5565b5b8135614bd8848260208601614b73565b91505092915050565b5f5f5f5f60808587031215614bf957614bf8614862565b5b5f614c0687828801614aa1565b9450506020614c1787828801614aa1565b9350506040614c2887828801614964565b925050606085013567ffffffffffffffff811115614c4957614c48614866565b5b614c5587828801614bb4565b91505092959194509250565b614c6a8161486a565b82525050565b5f602082019050614c835f830184614c61565b92915050565b5f67ffffffffffffffff821115614ca357614ca2614abd565b5b602082029050602081019050919050565b5f5ffd5b5f614cca614cc584614c89565b614b1b565b90508083825260208201905060208402830185811115614ced57614cec614cb4565b5b835b81811015614d165780614d028882614aa1565b845260208401935050602081019050614cef565b5050509392505050565b5f82601f830112614d3457614d33614ab5565b5b8135614d44848260208601614cb8565b91505092915050565b5f67ffffffffffffffff821115614d6757614d66614abd565b5b602082029050602081019050919050565b5f614d8a614d8584614d4d565b614b1b565b90508083825260208201905060208402830185811115614dad57614dac614cb4565b5b835b81811015614dd65780614dc28882614964565b845260208401935050602081019050614daf565b5050509392505050565b5f82601f830112614df457614df3614ab5565b5b8135614e04848260208601614d78565b91505092915050565b5f67ffffffffffffffff821115614e2757614e26614abd565b5b602082029050602081019050919050565b5f614e4a614e4584614e0d565b614b1b565b90508083825260208201905060208402830185811115614e6d57614e6c614cb4565b5b835b81811015614eb457803567ffffffffffffffff811115614e9257614e91614ab5565b5b808601614e9f8982614bb4565b85526020850194505050602081019050614e6f565b5050509392505050565b5f82601f830112614ed257614ed1614ab5565b5b8135614ee2848260208601614e38565b91505092915050565b5f819050919050565b614efd81614eeb565b8114614f07575f5ffd5b50565b5f81359050614f1881614ef4565b92915050565b5f5f5f5f60808587031215614f3657614f35614862565b5b5f85013567ffffffffffffffff811115614f5357614f52614866565b5b614f5f87828801614d20565b945050602085013567ffffffffffffffff811115614f8057614f7f614866565b5b614f8c87828801614de0565b935050604085013567ffffffffffffffff811115614fad57614fac614866565b5b614fb987828801614ebe565b9250506060614fca87828801614f0a565b91505092959194509250565b614fdf81614eeb565b82525050565b5f602082019050614ff85f830184614fd6565b92915050565b7f4e487b71000000000000000000000000000000000000000000000000000000005f52602160045260245ffd5b6008811061503c5761503b614ffe565b5b50565b5f81905061504c8261502b565b919050565b5f61505b8261503f565b9050919050565b61506b81615051565b82525050565b5f6020820190506150845f830184615062565b92915050565b5f5f604083850312156150a05761509f614862565b5b5f6150ad85828601614964565b92505060206150be85828601614aa1565b9150509250929050565b5f6060820190506150db5f830186614926565b6150e86020830185614926565b6150f56040830184614926565b949350505050565b5f60ff82169050919050565b615112816150fd565b811461511c575f5ffd5b50565b5f8135905061512d81615109565b92915050565b5f5f6040838503121561514957615148614862565b5b5f61515685828601614964565b92505060206151678582860161511f565b9150509250929050565b5f5ffd5b5f5f83601f84011261518a57615189614ab5565b5b8235905067ffffffffffffffff8111156151a7576151a6615171565b5b6020830191508360018202830111156151c3576151c2614cb4565b5b9250929050565b5f5f5f5f5f5f5f60c0888a0312156151e5576151e4614862565b5b5f6151f28a828b01614964565b97505060206152038a828b0161511f565b96505060406152148a828b01614aa1565b955050606088013567ffffffffffffffff81111561523557615234614866565b5b6152418a828b01615175565b9450945050608088013567ffffffffffffffff81111561526457615263614866565b5b6152708a828b01614bb4565b92505060a088013567ffffffffffffffff81111561529157615290614866565b5b61529d8a828b01614bb4565b91505092959891949750929550565b5f5f5f5f5f608086880312156152c5576152c4614862565b5b5f6152d288828901614964565b95505060206152e38882890161511f565b945050604086013567ffffffffffffffff81111561530457615303614866565b5b61531088828901615175565b9350935050606086013567ffffffffffffffff81111561533357615332614866565b5b61533f88828901614bb4565b9150509295509295909350565b5f65ffffffffffff82169050919050565b6153668161534c565b8114615370575f5ffd5b50565b5f813590506153818161535d565b92915050565b5f6020828403121561539c5761539b614862565b5b5f6153a984828501615373565b91505092915050565b5f5f5f5f606085870312156153ca576153c9614862565b5b5f6153d787828801614964565b94505060206153e88782880161511f565b935050604085013567ffffffffffffffff81111561540957615408614866565b5b61541587828801615175565b925092505092959194509250565b5f67ffffffffffffffff82111561543d5761543c614abd565b5b615446826149cb565b9050602081019050919050565b5f61546561546084615423565b614b1b565b90508281526020810184848401111561548157615480614ab9565b5b61548c848285614b65565b509392505050565b5f82601f8301126154a8576154a7614ab5565b5b81356154b8848260208601615453565b91505092915050565b5f5f5f5f608085870312156154d9576154d8614862565b5b5f85013567ffffffffffffffff8111156154f6576154f5614866565b5b61550287828801614d20565b945050602085013567ffffffffffffffff81111561552357615522614866565b5b61552f87828801614de0565b935050604085013567ffffffffffffffff8111156155505761554f614866565b5b61555c87828801614ebe565b925050606085013567ffffffffffffffff81111561557d5761557c614866565b5b61558987828801615494565b91505092959194509250565b5f602082840312156155aa576155a9614862565b5b5f6155b784828501614aa1565b91505092915050565b5f7fff0000000000000000000000000000000000000000000000000000000000000082169050919050565b6155f4816155c0565b82525050565b5f81519050919050565b5f82825260208201905092915050565b5f819050602082019050919050565b61562c8161491d565b82525050565b5f61563d8383615623565b60208301905092915050565b5f602082019050919050565b5f61565f826155fa565b6156698185615604565b935061567483615614565b805f5b838110156156a457815161568b8882615632565b975061569683615649565b925050600181019050615677565b5085935050505092915050565b5f60e0820190506156c45f83018a6155eb565b81810360208301526156d681896149db565b905081810360408301526156ea81886149db565b90506156f96060830187614926565b6157066080830186614a63565b61571360a0830185614fd6565b81810360c08301526157258184615655565b905098975050505050505050565b5f5f5f5f6080858703121561574b5761574a614862565b5b5f61575887828801614964565b94505060206157698782880161511f565b935050604061577a87828801614aa1565b925050606085013567ffffffffffffffff81111561579b5761579a614866565b5b6157a787828801614bb4565b91505092959194509250565b6157bc8161534c565b82525050565b5f6020820190506157d55f8301846157b3565b92915050565b5f5f5f606084860312156157f2576157f1614862565b5b5f6157ff86828701614aa1565b935050602061581086828701614964565b925050604084013567ffffffffffffffff81111561583157615830614866565b5b61583d86828701614bb4565b9150509250925092565b5f61585182614a33565b9050919050565b5f61586282615847565b9050919050565b61587281615858565b811461587c575f5ffd5b50565b5f8135905061588d81615869565b92915050565b5f602082840312156158a8576158a7614862565b5b5f6158b58482850161587f565b91505092915050565b5f5f5f5f5f60a086880312156158d7576158d6614862565b5b5f6158e488828901614aa1565b95505060206158f588828901614aa1565b945050604086013567ffffffffffffffff81111561591657615915614866565b5b61592288828901614de0565b935050606086013567ffffffffffffffff81111561594357615942614866565b5b61594f88828901614de0565b925050608086013567ffffffffffffffff8111156159705761596f614866565b5b61597c88828901614bb4565b9150509295509295909350565b5f5f83601f84011261599e5761599d614ab5565b5b8235905067ffffffffffffffff8111156159bb576159ba615171565b5b6020830191508360018202830111156159d7576159d6614cb4565b5b9250929050565b5f5f5f5f606085870312156159f6576159f5614862565b5b5f615a0387828801614aa1565b9450506020615a1487828801614964565b935050604085013567ffffffffffffffff811115615a3557615a34614866565b5b615a4187828801615989565b925092505092959194509250565b5f63ffffffff82169050919050565b615a6781615a4f565b8114615a71575f5ffd5b50565b5f81359050615a8281615a5e565b92915050565b5f60208284031215615a9d57615a9c614862565b5b5f615aaa84828501615a74565b91505092915050565b5f5f60408385031215615ac957615ac8614862565b5b5f615ad685828601614aa1565b9250506020615ae785828601614964565b9150509250929050565b5f5f5f5f5f60a08688031215615b0a57615b09614862565b5b5f615b1788828901614aa1565b9550506020615b2888828901614aa1565b9450506040615b3988828901614964565b9350506060615b4a88828901614964565b925050608086013567ffffffffffffffff811115615b6b57615b6a614866565b5b615b7788828901614bb4565b9150509295509295909350565b5f819050919050565b5f615ba7615ba2615b9d84614a33565b615b84565b614a33565b9050919050565b5f615bb882615b8d565b9050919050565b5f615bc982615bae565b9050919050565b615bd981615bbf565b82525050565b5f602082019050615bf25f830184615bd0565b92915050565b7f4e487b71000000000000000000000000000000000000000000000000000000005f52602260045260245ffd5b5f6002820490506001821680615c3c57607f821691505b602082108103615c4f57615c4e615bf8565b5b50919050565b5f615c6f615c6a615c658461534c565b615b84565b61491d565b9050919050565b615c7f81615c55565b82525050565b5f604082019050615c985f830185614926565b615ca56020830184615c76565b9392505050565b7f4e487b71000000000000000000000000000000000000000000000000000000005f52603260045260245ffd5b5f615ceb615ce684615423565b614b1b565b905082815260208101848484011115615d0757615d06614ab9565b5b615d128482856149bd565b509392505050565b5f82601f830112615d2e57615d2d614ab5565b5b8151615d3e848260208601615cd9565b91505092915050565b5f60208284031215615d5c57615d5b614862565b5b5f82015167ffffffffffffffff811115615d7957615d78614866565b5b615d8584828501615d1a565b91505092915050565b5f81905092915050565b5f615da38385615d8e565b9350615db0838584614b65565b82840190509392505050565b5f615dc8828486615d98565b91508190509392505050565b615ddd816150fd565b82525050565b5f60e082019050615df65f83018a614fd6565b615e036020830189614926565b615e106040830188615dd4565b615e1d6060830187614a63565b615e2a6080830186614926565b615e3760a0830185614fd6565b615e4460c0830184614fd6565b98975050505050505050565b7f4e487b71000000000000000000000000000000000000000000000000000000005f52601160045260245ffd5b5f615e878261491d565b9150615e928361491d565b9250828203905081811115615eaa57615ea9615e50565b5b92915050565b5f615eba8261534c565b9150615ec58361534c565b9250828203905065ffffffffffff811115615ee357615ee2615e50565b5b92915050565b5f606082019050615efc5f830186614a63565b615f096020830185614926565b615f166040830184614926565b949350505050565b5f60a082019050615f315f830188614fd6565b615f3e6020830187614926565b615f4b6040830186615dd4565b615f586060830185614a63565b615f656080830184614926565b9695505050505050565b5f81519050615f7d8161535d565b92915050565b5f60208284031215615f9857615f97614862565b5b5f615fa584828501615f6f565b91505092915050565b5f615fb88261534c565b9150615fc38361534c565b9250828201905065ffffffffffff811115615fe157615fe0615e50565b5b92915050565b5f81519050919050565b5f82825260208201905092915050565b5f819050602082019050919050565b61601981614a52565b82525050565b5f61602a8383616010565b60208301905092915050565b5f602082019050919050565b5f61604c82615fe7565b6160568185615ff1565b935061606183616001565b805f5b83811015616091578151616078888261601f565b975061608383616036565b925050600181019050616064565b5085935050505092915050565b5f81519050919050565b5f82825260208201905092915050565b5f819050602082019050919050565b5f81519050919050565b5f82825260208201905092915050565b5f6160eb826160c7565b6160f581856160d1565b93506161058185602086016149bd565b61610e816149cb565b840191505092915050565b5f61612483836160e1565b905092915050565b5f602082019050919050565b5f6161428261609e565b61614c81856160a8565b93508360208202850161615e856160b8565b805f5b85811015616199578484038952815161617a8582616119565b94506161858361612c565b925060208a01995050600181019050616161565b50829750879550505050505092915050565b5f6080820190508181035f8301526161c38187616042565b905081810360208301526161d78186615655565b905081810360408301526161eb8185616138565b90506161fa6060830184614fd6565b95945050505050565b5f815190506162118161494e565b92915050565b5f6020828403121561622c5761622b614862565b5b5f61623984828501616203565b91505092915050565b5f61624c8261491d565b91506162578361491d565b92508282026162658161491d565b9150828204841483151761627c5761627b615e50565b5b5092915050565b7f4e487b71000000000000000000000000000000000000000000000000000000005f52601260045260245ffd5b5f6162ba8261491d565b91506162c58361491d565b9250826162d5576162d4616283565b5b828204905092915050565b5f6040820190506162f35f830185614926565b6163006020830184614926565b9392505050565b5f60608201905061631a5f830186614926565b6163276020830185615062565b6163346040830184614fd6565b949350505050565b616345816148ea565b811461634f575f5ffd5b50565b5f815190506163608161633c565b92915050565b5f6020828403121561637b5761637a614862565b5b5f61638884828501616352565b91505092915050565b5f6080820190506163a45f830187614926565b6163b16020830186615dd4565b6163be6040830185614926565b81810360608301526163d081846149db565b905095945050505050565b5f82825260208201905092915050565b5f6163f5826160c7565b6163ff81856163db565b935061640f8185602086016149bd565b616418816149cb565b840191505092915050565b5f60a0820190506164365f830188614926565b6164436020830187615dd4565b6164506040830186614926565b818103606083015261646281856149db565b9050818103608083015261647681846163eb565b90509695505050505050565b5f819050919050565b5f6164a56164a061649b84616482565b615b84565b6150fd565b9050919050565b6164b58161648b565b82525050565b5f6040820190506164ce5f8301856164ac565b6164db6020830184614926565b9392505050565b5f6164ec8261491d565b91506164f78361491d565b925082820190508082111561650f5761650e615e50565b5b92915050565b5f6040820190506165285f830185615c76565b6165356020830184615c76565b9392505050565b5f81519050919050565b5f82825260208201905092915050565b5f819050602082019050919050565b5f82825260208201905092915050565b5f61657f826149a3565b6165898185616565565b93506165998185602086016149bd565b6165a2816149cb565b840191505092915050565b5f6165b88383616575565b905092915050565b5f602082019050919050565b5f6165d68261653c565b6165e08185616546565b9350836020820285016165f285616556565b805f5b8581101561662d578484038952815161660e85826165ad565b9450616619836165c0565b925060208a019950506001810190506165f5565b50829750879550505050505092915050565b5f610120820190506166535f83018c614926565b616660602083018b614a63565b8181036040830152616672818a616042565b905081810360608301526166868189615655565b9050818103608083015261669a81886165cc565b905081810360a08301526166ae8187616138565b90506166bd60c0830186614926565b6166ca60e0830185614926565b8181036101008301526166dd81846149db565b90509a9950505050505050505050565b5f6040820190506167005f830185614a63565b61670d6020830184614926565b9392505050565b5f6040820190506167275f830185614a63565b6167346020830184614a63565b9392505050565b5f819050919050565b5f61675e6167596167548461673b565b615b84565b61491d565b9050919050565b61676e81616744565b82525050565b5f6020820190506167875f830184616765565b92915050565b5f6167a76167a261679d84615a4f565b615b84565b61491d565b9050919050565b6167b78161678d565b82525050565b5f6040820190506167d05f8301856167ae565b6167dd60208301846167ae565b9392505050565b5f819050919050565b5f6168076168026167fd846167e4565b615b84565b6150fd565b9050919050565b616817816167ed565b82525050565b5f6040820190506168305f83018561680e565b61683d6020830184614926565b9392505050565b5f815f1b9050919050565b5f61686961686461685f8461673b565b616844565b614eeb565b9050919050565b6168798161684f565b82525050565b5f60a0820190508181035f8301526168978188616042565b905081810360208301526168ab8187615655565b905081810360408301526168bf8186616138565b90506168ce6060830185616870565b6168db6080830184614fd6565b9695505050505050565b5f815190506168f381614ef4565b92915050565b5f6020828403121561690e5761690d614862565b5b5f61691b848285016168e5565b91505092915050565b5f60c0820190508181035f83015261693c8189616042565b905081810360208301526169508188615655565b905081810360408301526169648187616138565b90506169736060830186616870565b6169806080830185614fd6565b61698d60a0830184614926565b979650505050505050565b5f6040820190506169ab5f830185614fd6565b81810360208301526169bd81846163eb565b90509392505050565b5f6169d0826160c7565b6169da8185615d8e565b93506169ea8185602086016149bd565b80840191505092915050565b5f616a0182846169c6565b915081905092915050565b5f819050919050565b5f616a2f616a2a616a2584616a0c565b615b84565b6150fd565b9050919050565b616a3f81616a15565b82525050565b5f604082019050616a585f830185616a36565b616a656020830184614926565b9392505050565b5f616a76826150fd565b9150616a81836150fd565b9250828201905060ff811115616a9a57616a99615e50565b5b92915050565b5f8160011c9050919050565b5f5f8291508390505b6001851115616af557808604811115616ad157616ad0615e50565b5b6001851615616ae05780820291505b8081029050616aee85616aa0565b9450616ab5565b94509492505050565b5f82616b0d5760019050616bc8565b81616b1a575f9050616bc8565b8160018114616b305760028114616b3a57616b69565b6001915050616bc8565b60ff841115616b4c57616b4b615e50565b5b8360020a915084821115616b6357616b62615e50565b5b50616bc8565b5060208310610133831016604e8410600b8410161715616b9e5782820a905083811115616b9957616b98615e50565b5b616bc8565b616bab8484846001616aac565b92509050818404811115616bc257616bc1615e50565b5b81810290505b9392505050565b5f616bd98261491d565b9150616be4836150fd565b9250616c117fffffffffffffffffffffffffffffffffffffffffffffffffffffffffffffffff8484616afe565b905092915050565b5f60a082019050616c2c5f830188614fd6565b616c396020830187614fd6565b616c466040830186614fd6565b616c536060830185614926565b616c606080830184614a63565b9695505050505050565b5f608082019050616c7d5f830187614fd6565b616c8a6020830186615dd4565b616c976040830185614fd6565b616ca46060830184614fd6565b9594505050505056fea2646970667358221220d15852f01e2f86deb3b8ef577a21528114b63ac0eccf32696aea3db205a315ac64736f6c634300081e0033",
			"opcodes": "PUSH2 0x180 PUSH1 0x40 MSTORE CALLVALUE DUP1 ISZERO PUSH2 0x10 JUMPI PUSH0 PUSH0 REVERT JUMPDEST POP PUSH1 0x40 MLOAD PUSH2 0x8238 CODESIZE SUB DUP1 PUSH2 0x8238 DUP4 CODECOPY DUP2 DUP2 ADD PUSH1 0x40 MSTORE DUP2 ADD SWAP1 PUSH2 0x32 SWAP2 SWAP1 PUSH2 0xD29 JUMP JUMPDEST DUP5 DUP2 DUP8 DUP7 DUP7 DUP7 PUSH1 0x40 MLOAD DUP1 PUSH1 0x40 ADD PUSH1 0x40 MSTORE DUP1 PUSH1 0xC DUP2 MSTORE PUSH1 0x20 ADD PUSH32 0x41726368697465637444414F0000000000000000000000000000000000000000 DUP2 MSTORE POP DUP1 PUSH2 0x7D PUSH2 0x1C8 PUSH1 0x20 SHL PUSH1 0x20 SHR JUMP JUMPDEST PUSH2 0x90 PUSH0 DUP4 PUSH2 0x205 PUSH1 0x20 SHL SWAP1 SWAP2 SWAP1 PUSH1 0x20 SHR JUMP JUMPDEST PUSH2 0x120 DUP2 DUP2 MSTORE POP POP PUSH2 0xAC PUSH1 0x1 DUP3 PUSH2 0x205 PUSH1 0x20 SHL SWAP1 SWAP2 SWAP1 PUSH1 0x20 SHR JUMP JUMPDEST PUSH2 0x140 DUP2 DUP2 MSTORE POP POP DUP2 DUP1 MLOAD SWAP1 PUSH1 0x20 ADD KECCAK256 PUSH1 0xE0 DUP2 DUP2 MSTORE POP POP DUP1 DUP1 MLOAD SWAP1 PUSH1 0x20 ADD KECCAK256 PUSH2 0x100 DUP2 DUP2 MSTORE POP POP CHAINID PUSH1 0xA0 DUP2 DUP2 MSTORE POP POP PUSH2 0xE9 PUSH2 0x252 PUSH1 0x20 SHL PUSH1 0x20 SHR JUMP JUMPDEST PUSH1 0x80 DUP2 DUP2 MSTORE POP POP ADDRESS PUSH20 0xFFFFFFFFFFFFFFFFFFFFFFFFFFFFFFFFFFFFFFFF AND PUSH1 0xC0 DUP2 PUSH20 0xFFFFFFFFFFFFFFFFFFFFFFFFFFFFFFFFFFFFFFFF AND DUP2 MSTORE POP POP POP POP DUP1 PUSH1 0x3 SWAP1 DUP2 PUSH2 0x135 SWAP2 SWAP1 PUSH2 0xFE6 JUMP JUMPDEST POP POP PUSH2 0x146 DUP4 PUSH2 0x2AC PUSH1 0x20 SHL PUSH1 0x20 SHR JUMP JUMPDEST PUSH2 0x155 DUP3 PUSH2 0x31F PUSH1 0x20 SHL PUSH1 0x20 SHR JUMP JUMPDEST PUSH2 0x164 DUP2 PUSH2 0x3D8 PUSH1 0x20 SHL PUSH1 0x20 SHR JUMP JUMPDEST POP POP POP DUP1 PUSH20 0xFFFFFFFFFFFFFFFFFFFFFFFFFFFFFFFFFFFFFFFF AND PUSH2 0x160 DUP2 PUSH20 0xFFFFFFFFFFFFFFFFFFFFFFFFFFFFFFFFFFFFFFFF AND DUP2 MSTORE POP POP POP PUSH2 0x1AC DUP2 PUSH2 0x41D PUSH1 0x20 SHL PUSH1 0x20 SHR JUMP JUMPDEST POP PUSH2 0x1BC DUP2 PUSH2 0x4F7 PUSH1 0x20 SHL PUSH1 0x20 SHR JUMP JUMPDEST POP POP POP POP POP POP POP PUSH2 0x14FA JUMP JUMPDEST PUSH1 0x60 PUSH1 0x40 MLOAD DUP1 PUSH1 0x40 ADD PUSH1 0x40 MSTORE DUP1 PUSH1 0x1 DUP2 MSTORE PUSH1 0x20 ADD PUSH32 0x3100000000000000000000000000000000000000000000000000000000000000 DUP2 MSTORE POP SWAP1 POP SWAP1 JUMP JUMPDEST PUSH0 PUSH1 0x20 DUP4 MLOAD LT ISZERO PUSH2 0x226 JUMPI PUSH2 0x21F DUP4 PUSH2 0x594 PUSH1 0x20 SHL PUSH1 0x20 SHR JUMP JUMPDEST SWAP1 POP PUSH2 0x24C JUMP JUMPDEST DUP3 PUSH2 0x236 DUP4 PUSH2 0x5F9 PUSH1 0x20 SHL PUSH1 0x20 SHR JUMP JUMPDEST PUSH0 ADD SWAP1 DUP2 PUSH2 0x244 SWAP2 SWAP1 PUSH2 0xFE6 JUMP JUMPDEST POP PUSH1 0xFF PUSH0 SHL SWAP1 POP JUMPDEST SWAP3 SWAP2 POP POP JUMP JUMPDEST PUSH0 PUSH32 0x8B73C3C69BB8FE3D512ECC4CF759CC79239F7B179B0FFACAA9A75D522B39400F PUSH1 0xE0 MLOAD PUSH2 0x100 MLOAD CHAINID ADDRESS PUSH1 0x40 MLOAD PUSH1 0x20 ADD PUSH2 0x291 SWAP6 SWAP5 SWAP4 SWAP3 SWAP2 SWAP1 PUSH2 0x10EB JUMP JUMPDEST PUSH1 0x40 MLOAD PUSH1 0x20 DUP2 DUP4 SUB SUB DUP2 MSTORE SWAP1 PUSH1 0x40 MSTORE DUP1 MLOAD SWAP1 PUSH1 0x20 ADD KECCAK256 SWAP1 POP SWAP1 JUMP JUMPDEST PUSH32 0xC565B045403DC03C2EEA82B81A0465EDAD9E2E7FC4D97E11421C209DA93D7A93 PUSH1 0x8 PUSH0 SWAP1 SLOAD SWAP1 PUSH2 0x100 EXP SWAP1 DIV PUSH6 0xFFFFFFFFFFFF AND DUP3 PUSH1 0x40 MLOAD PUSH2 0x2F0 SWAP3 SWAP2 SWAP1 PUSH2 0x116C JUMP JUMPDEST PUSH1 0x40 MLOAD DUP1 SWAP2 SUB SWAP1 LOG1 DUP1 PUSH1 0x8 PUSH0 PUSH2 0x100 EXP DUP2 SLOAD DUP2 PUSH6 0xFFFFFFFFFFFF MUL NOT AND SWAP1 DUP4 PUSH6 0xFFFFFFFFFFFF AND MUL OR SWAP1 SSTORE POP POP JUMP JUMPDEST PUSH0 DUP2 PUSH4 0xFFFFFFFF AND SUB PUSH2 0x369 JUMPI PUSH0 PUSH1 0x40 MLOAD PUSH32 0xF1CFBF0500000000000000000000000000000000000000000000000000000000 DUP2 MSTORE PUSH1 0x4 ADD PUSH2 0x360 SWAP2 SWAP1 PUSH2 0x11CC JUMP JUMPDEST PUSH1 0x40 MLOAD DUP1 SWAP2 SUB SWAP1 REVERT JUMPDEST PUSH32 0x7E3F7F0708A84DE9203036ABAA450DCCC85AD5FF52F78C170F3EDB55CF5E8828 PUSH1 0x8 PUSH1 0x6 SWAP1 SLOAD SWAP1 PUSH2 0x100 EXP SWAP1 DIV PUSH4 0xFFFFFFFF AND DUP3 PUSH1 0x40 MLOAD PUSH2 0x3AC SWAP3 SWAP2 SWAP1 PUSH2 0x1215 JUMP JUMPDEST PUSH1 0x40 MLOAD DUP1 SWAP2 SUB SWAP1 LOG1 DUP1 PUSH1 0x8 PUSH1 0x6 PUSH2 0x100 EXP DUP2 SLOAD DUP2 PUSH4 0xFFFFFFFF MUL NOT AND SWAP1 DUP4 PUSH4 0xFFFFFFFF AND MUL OR SWAP1 SSTORE POP POP JUMP JUMPDEST PUSH32 0xCCB45DA8D5717E6C4544694297C4BA5CF151D455C9BB0ED4FC7A38411BC05461 PUSH1 0x7 SLOAD DUP3 PUSH1 0x40 MLOAD PUSH2 0x40B SWAP3 SWAP2 SWAP1 PUSH2 0x123C JUMP JUMPDEST PUSH1 0x40 MLOAD DUP1 SWAP2 SUB SWAP1 LOG1 DUP1 PUSH1 0x7 DUP2 SWAP1 SSTORE POP POP JUMP JUMPDEST PUSH0 PUSH2 0x42C PUSH2 0x602 PUSH1 0x20 SHL PUSH1 0x20 SHR JUMP JUMPDEST SWAP1 POP DUP1 DUP3 GT ISZERO PUSH2 0x475 JUMPI DUP2 DUP2 PUSH1 0x40 MLOAD PUSH32 0x243E544500000000000000000000000000000000000000000000000000000000 DUP2 MSTORE PUSH1 0x4 ADD PUSH2 0x46C SWAP3 SWAP2 SWAP1 PUSH2 0x123C JUMP JUMPDEST PUSH1 0x40 MLOAD DUP1 SWAP2 SUB SWAP1 REVERT JUMPDEST PUSH0 PUSH2 0x484 PUSH2 0x60A PUSH1 0x20 SHL PUSH1 0x20 SHR JUMP JUMPDEST SWAP1 POP PUSH2 0x4B7 PUSH2 0x497 PUSH2 0x63C PUSH1 0x20 SHL PUSH1 0x20 SHR JUMP JUMPDEST PUSH2 0x4A6 DUP6 PUSH2 0x6D3 PUSH1 0x20 SHL PUSH1 0x20 SHR JUMP JUMPDEST PUSH1 0xA PUSH2 0x740 PUSH1 0x20 SHL SWAP1 SWAP3 SWAP2 SWAP1 PUSH1 0x20 SHR JUMP JUMPDEST POP POP PUSH32 0x553476BF02EF2726E8CE5CED78D63E26E602E4A2257B1F559418E24B4633997 DUP2 DUP5 PUSH1 0x40 MLOAD PUSH2 0x4EA SWAP3 SWAP2 SWAP1 PUSH2 0x123C JUMP JUMPDEST PUSH1 0x40 MLOAD DUP1 SWAP2 SUB SWAP1 LOG1 POP POP POP JUMP JUMPDEST PUSH32 0x8F74EA46EF7894F65EABFB5E6E695DE773A000B47C529AB559178069B226401 PUSH1 0xB PUSH0 SWAP1 SLOAD SWAP1 PUSH2 0x100 EXP SWAP1 DIV PUSH20 0xFFFFFFFFFFFFFFFFFFFFFFFFFFFFFFFFFFFFFFFF AND DUP3 PUSH1 0x40 MLOAD PUSH2 0x549 SWAP3 SWAP2 SWAP1 PUSH2 0x1263 JUMP JUMPDEST PUSH1 0x40 MLOAD DUP1 SWAP2 SUB SWAP1 LOG1 DUP1 PUSH1 0xB PUSH0 PUSH2 0x100 EXP DUP2 SLOAD DUP2 PUSH20 0xFFFFFFFFFFFFFFFFFFFFFFFFFFFFFFFFFFFFFFFF MUL NOT AND SWAP1 DUP4 PUSH20 0xFFFFFFFFFFFFFFFFFFFFFFFFFFFFFFFFFFFFFFFF AND MUL OR SWAP1 SSTORE POP POP JUMP JUMPDEST PUSH0 PUSH0 DUP3 SWAP1 POP PUSH1 0x1F DUP2 MLOAD GT ISZERO PUSH2 0x5E0 JUMPI DUP3 PUSH1 0x40 MLOAD PUSH32 0x305A27A900000000000000000000000000000000000000000000000000000000 DUP2 MSTORE PUSH1 0x4 ADD PUSH2 0x5D7 SWAP2 SWAP1 PUSH2 0x12F0 JUMP JUMPDEST PUSH1 0x40 MLOAD DUP1 SWAP2 SUB SWAP1 REVERT JUMPDEST DUP1 MLOAD DUP2 PUSH2 0x5EC SWAP1 PUSH2 0x133D JUMP JUMPDEST PUSH0 SHR OR PUSH0 SHL SWAP2 POP POP SWAP2 SWAP1 POP JUMP JUMPDEST PUSH0 DUP2 SWAP1 POP SWAP2 SWAP1 POP JUMP JUMPDEST PUSH0 PUSH1 0x64 SWAP1 POP SWAP1 JUMP JUMPDEST PUSH0 PUSH2 0x61B PUSH1 0xA PUSH2 0x761 PUSH1 0x20 SHL PUSH1 0x20 SHR JUMP JUMPDEST PUSH26 0xFFFFFFFFFFFFFFFFFFFFFFFFFFFFFFFFFFFFFFFFFFFFFFFFFFFF AND SWAP1 POP SWAP1 JUMP JUMPDEST PUSH0 PUSH2 0x64B PUSH2 0x7C9 PUSH1 0x20 SHL PUSH1 0x20 SHR JUMP JUMPDEST PUSH20 0xFFFFFFFFFFFFFFFFFFFFFFFFFFFFFFFFFFFFFFFF AND PUSH4 0x91DDADF4 PUSH1 0x40 MLOAD DUP2 PUSH4 0xFFFFFFFF AND PUSH1 0xE0 SHL DUP2 MSTORE PUSH1 0x4 ADD PUSH1 0x20 PUSH1 0x40 MLOAD DUP1 DUP4 SUB DUP2 DUP7 GAS STATICCALL SWAP3 POP POP POP DUP1 ISZERO PUSH2 0x6B2 JUMPI POP PUSH1 0x40 MLOAD RETURNDATASIZE PUSH1 0x1F NOT PUSH1 0x1F DUP3 ADD AND DUP3 ADD DUP1 PUSH1 0x40 MSTORE POP DUP2 ADD SWAP1 PUSH2 0x6AF SWAP2 SWAP1 PUSH2 0x13A3 JUMP JUMPDEST PUSH1 0x1 JUMPDEST PUSH2 0x6CB JUMPI PUSH2 0x6C4 PUSH2 0x7D3 PUSH1 0x20 SHL PUSH1 0x20 SHR JUMP JUMPDEST SWAP1 POP PUSH2 0x6D0 JUMP JUMPDEST DUP1 SWAP2 POP POP JUMPDEST SWAP1 JUMP JUMPDEST PUSH0 PUSH26 0xFFFFFFFFFFFFFFFFFFFFFFFFFFFFFFFFFFFFFFFFFFFFFFFFFFFF DUP1 AND DUP3 GT ISZERO PUSH2 0x738 JUMPI PUSH1 0xD0 DUP3 PUSH1 0x40 MLOAD PUSH32 0x6DFCC65000000000000000000000000000000000000000000000000000000000 DUP2 MSTORE PUSH1 0x4 ADD PUSH2 0x72F SWAP3 SWAP2 SWAP1 PUSH2 0x1413 JUMP JUMPDEST PUSH1 0x40 MLOAD DUP1 SWAP2 SUB SWAP1 REVERT JUMPDEST DUP2 SWAP1 POP SWAP2 SWAP1 POP JUMP JUMPDEST PUSH0 PUSH0 PUSH2 0x755 DUP6 PUSH0 ADD DUP6 DUP6 PUSH2 0x7E8 PUSH1 0x20 SHL PUSH1 0x20 SHR JUMP JUMPDEST SWAP2 POP SWAP2 POP SWAP4 POP SWAP4 SWAP2 POP POP JUMP JUMPDEST PUSH0 PUSH0 DUP3 PUSH0 ADD DUP1 SLOAD SWAP1 POP SWAP1 POP PUSH0 DUP2 EQ PUSH2 0x7BF JUMPI PUSH2 0x791 DUP4 PUSH0 ADD PUSH1 0x1 DUP4 PUSH2 0x786 SWAP2 SWAP1 PUSH2 0x1467 JUMP JUMPDEST PUSH2 0xB5C PUSH1 0x20 SHL PUSH1 0x20 SHR JUMP JUMPDEST PUSH0 ADD PUSH1 0x6 SWAP1 SLOAD SWAP1 PUSH2 0x100 EXP SWAP1 DIV PUSH26 0xFFFFFFFFFFFFFFFFFFFFFFFFFFFFFFFFFFFFFFFFFFFFFFFFFFFF AND PUSH2 0x7C1 JUMP JUMPDEST PUSH0 JUMPDEST SWAP2 POP POP SWAP2 SWAP1 POP JUMP JUMPDEST PUSH0 PUSH2 0x160 MLOAD SWAP1 POP SWAP1 JUMP JUMPDEST PUSH0 PUSH2 0x7E3 NUMBER PUSH2 0xB6E PUSH1 0x20 SHL PUSH1 0x20 SHR JUMP JUMPDEST SWAP1 POP SWAP1 JUMP JUMPDEST PUSH0 PUSH0 PUSH0 DUP6 DUP1 SLOAD SWAP1 POP SWAP1 POP PUSH0 DUP2 GT ISZERO PUSH2 0xA74 JUMPI PUSH0 PUSH2 0x817 DUP8 PUSH1 0x1 DUP5 PUSH2 0x80C SWAP2 SWAP1 PUSH2 0x1467 JUMP JUMPDEST PUSH2 0xB5C PUSH1 0x20 SHL PUSH1 0x20 SHR JUMP JUMPDEST PUSH1 0x40 MLOAD DUP1 PUSH1 0x40 ADD PUSH1 0x40 MSTORE SWAP1 DUP2 PUSH0 DUP3 ADD PUSH0 SWAP1 SLOAD SWAP1 PUSH2 0x100 EXP SWAP1 DIV PUSH6 0xFFFFFFFFFFFF AND PUSH6 0xFFFFFFFFFFFF AND PUSH6 0xFFFFFFFFFFFF AND DUP2 MSTORE PUSH1 0x20 ADD PUSH0 DUP3 ADD PUSH1 0x6 SWAP1 SLOAD SWAP1 PUSH2 0x100 EXP SWAP1 DIV PUSH26 0xFFFFFFFFFFFFFFFFFFFFFFFFFFFFFFFFFFFFFFFFFFFFFFFFFFFF AND PUSH26 0xFFFFFFFFFFFFFFFFFFFFFFFFFFFFFFFFFFFFFFFFFFFFFFFFFFFF AND PUSH26 0xFFFFFFFFFFFFFFFFFFFFFFFFFFFFFFFFFFFFFFFFFFFFFFFFFFFF AND DUP2 MSTORE POP POP SWAP1 POP DUP6 PUSH6 0xFFFFFFFFFFFF AND DUP2 PUSH0 ADD MLOAD PUSH6 0xFFFFFFFFFFFF AND GT ISZERO PUSH2 0x902 JUMPI PUSH1 0x40 MLOAD PUSH32 0x2520601D00000000000000000000000000000000000000000000000000000000 DUP2 MSTORE PUSH1 0x4 ADD PUSH1 0x40 MLOAD DUP1 SWAP2 SUB SWAP1 REVERT JUMPDEST DUP6 PUSH6 0xFFFFFFFFFFFF AND DUP2 PUSH0 ADD MLOAD PUSH6 0xFFFFFFFFFFFF AND SUB PUSH2 0x98A JUMPI DUP5 PUSH2 0x939 DUP9 PUSH1 0x1 DUP6 PUSH2 0x92E SWAP2 SWAP1 PUSH2 0x1467 JUMP JUMPDEST PUSH2 0xB5C PUSH1 0x20 SHL PUSH1 0x20 SHR JUMP JUMPDEST PUSH0 ADD PUSH1 0x6 PUSH2 0x100 EXP DUP2 SLOAD DUP2 PUSH26 0xFFFFFFFFFFFFFFFFFFFFFFFFFFFFFFFFFFFFFFFFFFFFFFFFFFFF MUL NOT AND SWAP1 DUP4 PUSH26 0xFFFFFFFFFFFFFFFFFFFFFFFFFFFFFFFFFFFFFFFFFFFFFFFFFFFF AND MUL OR SWAP1 SSTORE POP PUSH2 0xA63 JUMP JUMPDEST DUP7 PUSH1 0x40 MLOAD DUP1 PUSH1 0x40 ADD PUSH1 0x40 MSTORE DUP1 DUP9 PUSH6 0xFFFFFFFFFFFF AND DUP2 MSTORE PUSH1 0x20 ADD DUP8 PUSH26 0xFFFFFFFFFFFFFFFFFFFFFFFFFFFFFFFFFFFFFFFFFFFFFFFFFFFF AND DUP2 MSTORE POP SWAP1 DUP1 PUSH1 0x1 DUP2 SLOAD ADD DUP1 DUP3 SSTORE DUP1 SWAP2 POP POP PUSH1 0x1 SWAP1 SUB SWAP1 PUSH0 MSTORE PUSH1 0x20 PUSH0 KECCAK256 ADD PUSH0 SWAP1 SWAP2 SWAP1 SWAP2 SWAP1 SWAP2 POP PUSH0 DUP3 ADD MLOAD DUP2 PUSH0 ADD PUSH0 PUSH2 0x100 EXP DUP2 SLOAD DUP2 PUSH6 0xFFFFFFFFFFFF MUL NOT AND SWAP1 DUP4 PUSH6 0xFFFFFFFFFFFF AND MUL OR SWAP1 SSTORE POP PUSH1 0x20 DUP3 ADD MLOAD DUP2 PUSH0 ADD PUSH1 0x6 PUSH2 0x100 EXP DUP2 SLOAD DUP2 PUSH26 0xFFFFFFFFFFFFFFFFFFFFFFFFFFFFFFFFFFFFFFFFFFFFFFFFFFFF MUL NOT AND SWAP1 DUP4 PUSH26 0xFFFFFFFFFFFFFFFFFFFFFFFFFFFFFFFFFFFFFFFFFFFFFFFFFFFF AND MUL OR SWAP1 SSTORE POP POP POP JUMPDEST DUP1 PUSH1 0x20 ADD MLOAD DUP6 SWAP4 POP SWAP4 POP POP POP PUSH2 0xB54 JUMP JUMPDEST DUP6 PUSH1 0x40 MLOAD DUP1 PUSH1 0x40 ADD PUSH1 0x40 MSTORE DUP1 DUP8 PUSH6 0xFFFFFFFFFFFF AND DUP2 MSTORE PUSH1 0x20 ADD DUP7 PUSH26 0xFFFFFFFFFFFFFFFFFFFFFFFFFFFFFFFFFFFFFFFFFFFFFFFFFFFF AND DUP2 MSTORE POP SWAP1 DUP1 PUSH1 0x1 DUP2 SLOAD ADD DUP1 DUP3 SSTORE DUP1 SWAP2 POP POP PUSH1 0x1 SWAP1 SUB SWAP1 PUSH0 MSTORE PUSH1 0x20 PUSH0 KECCAK256 ADD PUSH0 SWAP1 SWAP2 SWAP1 SWAP2 SWAP1 SWAP2 POP PUSH0 DUP3 ADD MLOAD DUP2 PUSH0 ADD PUSH0 PUSH2 0x100 EXP DUP2 SLOAD DUP2 PUSH6 0xFFFFFFFFFFFF MUL NOT AND SWAP1 DUP4 PUSH6 0xFFFFFFFFFFFF AND MUL OR SWAP1 SSTORE POP PUSH1 0x20 DUP3 ADD MLOAD DUP2 PUSH0 ADD PUSH1 0x6 PUSH2 0x100 EXP DUP2 SLOAD DUP2 PUSH26 0xFFFFFFFFFFFFFFFFFFFFFFFFFFFFFFFFFFFFFFFFFFFFFFFFFFFF MUL NOT AND SWAP1 DUP4 PUSH26 0xFFFFFFFFFFFFFFFFFFFFFFFFFFFFFFFFFFFFFFFFFFFFFFFFFFFF AND MUL OR SWAP1 SSTORE POP POP POP PUSH0 DUP5 SWAP3 POP SWAP3 POP POP JUMPDEST SWAP4 POP SWAP4 SWAP2 POP POP JUMP JUMPDEST PUSH0 DUP3 PUSH0 MSTORE DUP2 PUSH1 0x20 PUSH0 KECCAK256 ADD SWAP1 POP SWAP3 SWAP2 POP POP JUMP JUMPDEST PUSH0 PUSH6 0xFFFFFFFFFFFF DUP1 AND DUP3 GT ISZERO PUSH2 0xBBF JUMPI PUSH1 0x30 DUP3 PUSH1 0x40 MLOAD PUSH32 0x6DFCC65000000000000000000000000000000000000000000000000000000000 DUP2 MSTORE PUSH1 0x4 ADD PUSH2 0xBB6 SWAP3 SWAP2 SWAP1 PUSH2 0x14D3 JUMP JUMPDEST PUSH1 0x40 MLOAD DUP1 SWAP2 SUB SWAP1 REVERT JUMPDEST DUP2 SWAP1 POP SWAP2 SWAP1 POP JUMP JUMPDEST PUSH0 PUSH0 REVERT JUMPDEST PUSH0 PUSH20 0xFFFFFFFFFFFFFFFFFFFFFFFFFFFFFFFFFFFFFFFF DUP3 AND SWAP1 POP SWAP2 SWAP1 POP JUMP JUMPDEST PUSH0 PUSH2 0xBF4 DUP3 PUSH2 0xBCB JUMP JUMPDEST SWAP1 POP SWAP2 SWAP1 POP JUMP JUMPDEST PUSH0 PUSH2 0xC05 DUP3 PUSH2 0xBEA JUMP JUMPDEST SWAP1 POP SWAP2 SWAP1 POP JUMP JUMPDEST PUSH2 0xC15 DUP2 PUSH2 0xBFB JUMP JUMPDEST DUP2 EQ PUSH2 0xC1F JUMPI PUSH0 PUSH0 REVERT JUMPDEST POP JUMP JUMPDEST PUSH0 DUP2 MLOAD SWAP1 POP PUSH2 0xC30 DUP2 PUSH2 0xC0C JUMP JUMPDEST SWAP3 SWAP2 POP POP JUMP JUMPDEST PUSH0 PUSH2 0xC40 DUP3 PUSH2 0xBCB JUMP JUMPDEST SWAP1 POP SWAP2 SWAP1 POP JUMP JUMPDEST PUSH0 PUSH2 0xC51 DUP3 PUSH2 0xC36 JUMP JUMPDEST SWAP1 POP SWAP2 SWAP1 POP JUMP JUMPDEST PUSH2 0xC61 DUP2 PUSH2 0xC47 JUMP JUMPDEST DUP2 EQ PUSH2 0xC6B JUMPI PUSH0 PUSH0 REVERT JUMPDEST POP JUMP JUMPDEST PUSH0 DUP2 MLOAD SWAP1 POP PUSH2 0xC7C DUP2 PUSH2 0xC58 JUMP JUMPDEST SWAP3 SWAP2 POP POP JUMP JUMPDEST PUSH0 PUSH6 0xFFFFFFFFFFFF DUP3 AND SWAP1 POP SWAP2 SWAP1 POP JUMP JUMPDEST PUSH2 0xC9C DUP2 PUSH2 0xC82 JUMP JUMPDEST DUP2 EQ PUSH2 0xCA6 JUMPI PUSH0 PUSH0 REVERT JUMPDEST POP JUMP JUMPDEST PUSH0 DUP2 MLOAD SWAP1 POP PUSH2 0xCB7 DUP2 PUSH2 0xC93 JUMP JUMPDEST SWAP3 SWAP2 POP POP JUMP JUMPDEST PUSH0 PUSH4 0xFFFFFFFF DUP3 AND SWAP1 POP SWAP2 SWAP1 POP JUMP JUMPDEST PUSH2 0xCD5 DUP2 PUSH2 0xCBD JUMP JUMPDEST DUP2 EQ PUSH2 0xCDF JUMPI PUSH0 PUSH0 REVERT JUMPDEST POP JUMP JUMPDEST PUSH0 DUP2 MLOAD SWAP1 POP PUSH2 0xCF0 DUP2 PUSH2 0xCCC JUMP JUMPDEST SWAP3 SWAP2 POP POP JUMP JUMPDEST PUSH0 DUP2 SWAP1 POP SWAP2 SWAP1 POP JUMP JUMPDEST PUSH2 0xD08 DUP2 PUSH2 0xCF6 JUMP JUMPDEST DUP2 EQ PUSH2 0xD12 JUMPI PUSH0 PUSH0 REVERT JUMPDEST POP JUMP JUMPDEST PUSH0 DUP2 MLOAD SWAP1 POP PUSH2 0xD23 DUP2 PUSH2 0xCFF JUMP JUMPDEST SWAP3 SWAP2 POP POP JUMP JUMPDEST PUSH0 PUSH0 PUSH0 PUSH0 PUSH0 PUSH0 PUSH1 0xC0 DUP8 DUP10 SUB SLT ISZERO PUSH2 0xD43 JUMPI PUSH2 0xD42 PUSH2 0xBC7 JUMP JUMPDEST JUMPDEST PUSH0 PUSH2 0xD50 DUP10 DUP3 DUP11 ADD PUSH2 0xC22 JUMP JUMPDEST SWAP7 POP POP PUSH1 0x20 PUSH2 0xD61 DUP10 DUP3 DUP11 ADD PUSH2 0xC6E JUMP JUMPDEST SWAP6 POP POP PUSH1 0x40 PUSH2 0xD72 DUP10 DUP3 DUP11 ADD PUSH2 0xCA9 JUMP JUMPDEST SWAP5 POP POP PUSH1 0x60 PUSH2 0xD83 DUP10 DUP3 DUP11 ADD PUSH2 0xCE2 JUMP JUMPDEST SWAP4 POP POP PUSH1 0x80 PUSH2 0xD94 DUP10 DUP3 DUP11 ADD PUSH2 0xD15 JUMP JUMPDEST SWAP3 POP POP PUSH1 0xA0 PUSH2 0xDA5 DUP10 DUP3 DUP11 ADD PUSH2 0xD15 JUMP JUMPDEST SWAP2 POP POP SWAP3 SWAP6 POP SWAP3 SWAP6 POP SWAP3 SWAP6 JUMP JUMPDEST PUSH0 DUP2 MLOAD SWAP1 POP SWAP2 SWAP1 POP JUMP JUMPDEST PUSH32 0x4E487B7100000000000000000000000000000000000000000000000000000000 PUSH0 MSTORE PUSH1 0x41 PUSH1 0x4 MSTORE PUSH1 0x24 PUSH0 REVERT JUMPDEST PUSH32 0x4E487B7100000000000000000000000000000000000000000000000000000000 PUSH0 MSTORE PUSH1 0x22 PUSH1 0x4 MSTORE PUSH1 0x24 PUSH0 REVERT JUMPDEST PUSH0 PUSH1 0x2 DUP3 DIV SWAP1 POP PUSH1 0x1 DUP3 AND DUP1 PUSH2 0xE2D JUMPI PUSH1 0x7F DUP3 AND SWAP2 POP JUMPDEST PUSH1 0x20 DUP3 LT DUP2 SUB PUSH2 0xE40 JUMPI PUSH2 0xE3F PUSH2 0xDE9 JUMP JUMPDEST JUMPDEST POP SWAP2 SWAP1 POP JUMP JUMPDEST PUSH0 DUP2 SWAP1 POP DUP2 PUSH0 MSTORE PUSH1 0x20 PUSH0 KECCAK256 SWAP1 POP SWAP2 SWAP1 POP JUMP JUMPDEST PUSH0 PUSH1 0x20 PUSH1 0x1F DUP4 ADD DIV SWAP1 POP SWAP2 SWAP1 POP JUMP JUMPDEST PUSH0 DUP3 DUP3 SHL SWAP1 POP SWAP3 SWAP2 POP POP JUMP JUMPDEST PUSH0 PUSH1 0x8 DUP4 MUL PUSH2 0xEA2 PUSH32 0xFFFFFFFFFFFFFFFFFFFFFFFFFFFFFFFFFFFFFFFFFFFFFFFFFFFFFFFFFFFFFFFF DUP3 PUSH2 0xE67 JUMP JUMPDEST PUSH2 0xEAC DUP7 DUP4 PUSH2 0xE67 JUMP JUMPDEST SWAP6 POP DUP1 NOT DUP5 AND SWAP4 POP DUP1 DUP7 AND DUP5 OR SWAP3 POP POP POP SWAP4 SWAP3 POP POP POP JUMP JUMPDEST PUSH0 DUP2 SWAP1 POP SWAP2 SWAP1 POP JUMP JUMPDEST PUSH0 PUSH2 0xEE7 PUSH2 0xEE2 PUSH2 0xEDD DUP5 PUSH2 0xCF6 JUMP JUMPDEST PUSH2 0xEC4 JUMP JUMPDEST PUSH2 0xCF6 JUMP JUMPDEST SWAP1 POP SWAP2 SWAP1 POP JUMP JUMPDEST PUSH0 DUP2 SWAP1 POP SWAP2 SWAP1 POP JUMP JUMPDEST PUSH2 0xF00 DUP4 PUSH2 0xECD JUMP JUMPDEST PUSH2 0xF14 PUSH2 0xF0C DUP3 PUSH2 0xEEE JUMP JUMPDEST DUP5 DUP5 SLOAD PUSH2 0xE73 JUMP JUMPDEST DUP3 SSTORE POP POP POP POP JUMP JUMPDEST PUSH0 PUSH0 SWAP1 POP SWAP1 JUMP JUMPDEST PUSH2 0xF2B PUSH2 0xF1C JUMP JUMPDEST PUSH2 0xF36 DUP2 DUP5 DUP5 PUSH2 0xEF7 JUMP JUMPDEST POP POP POP JUMP JUMPDEST JUMPDEST DUP2 DUP2 LT ISZERO PUSH2 0xF59 JUMPI PUSH2 0xF4E PUSH0 DUP3 PUSH2 0xF23 JUMP JUMPDEST PUSH1 0x1 DUP2 ADD SWAP1 POP PUSH2 0xF3C JUMP JUMPDEST POP POP JUMP JUMPDEST PUSH1 0x1F DUP3 GT ISZERO PUSH2 0xF9E JUMPI PUSH2 0xF6F DUP2 PUSH2 0xE46 JUMP JUMPDEST PUSH2 0xF78 DUP5 PUSH2 0xE58 JUMP JUMPDEST DUP2 ADD PUSH1 0x20 DUP6 LT ISZERO PUSH2 0xF87 JUMPI DUP2 SWAP1 POP JUMPDEST PUSH2 0xF9B PUSH2 0xF93 DUP6 PUSH2 0xE58 JUMP JUMPDEST DUP4 ADD DUP3 PUSH2 0xF3B JUMP JUMPDEST POP POP JUMPDEST POP POP POP JUMP JUMPDEST PUSH0 DUP3 DUP3 SHR SWAP1 POP SWAP3 SWAP2 POP POP JUMP JUMPDEST PUSH0 PUSH2 0xFBE PUSH0 NOT DUP5 PUSH1 0x8 MUL PUSH2 0xFA3 JUMP JUMPDEST NOT DUP1 DUP4 AND SWAP2 POP POP SWAP3 SWAP2 POP POP JUMP JUMPDEST PUSH0 PUSH2 0xFD6 DUP4 DUP4 PUSH2 0xFAF JUMP JUMPDEST SWAP2 POP DUP3 PUSH1 0x2 MUL DUP3 OR SWAP1 POP SWAP3 SWAP2 POP POP JUMP JUMPDEST PUSH2 0xFEF DUP3 PUSH2 0xDB2 JUMP JUMPDEST PUSH8 0xFFFFFFFFFFFFFFFF DUP2 GT ISZERO PUSH2 0x1008 JUMPI PUSH2 0x1007 PUSH2 0xDBC JUMP JUMPDEST JUMPDEST PUSH2 0x1012 DUP3 SLOAD PUSH2 0xE16 JUMP JUMPDEST PUSH2 0x101D DUP3 DUP3 DUP6 PUSH2 0xF5D JUMP JUMPDEST PUSH0 PUSH1 0x20 SWAP1 POP PUSH1 0x1F DUP4 GT PUSH1 0x1 DUP2 EQ PUSH2 0x104E JUMPI PUSH0 DUP5 ISZERO PUSH2 0x103C JUMPI DUP3 DUP8 ADD MLOAD SWAP1 POP JUMPDEST PUSH2 0x1046 DUP6 DUP3 PUSH2 0xFCB JUMP JUMPDEST DUP7 SSTORE POP PUSH2 0x10AD JUMP JUMPDEST PUSH1 0x1F NOT DUP5 AND PUSH2 0x105C DUP7 PUSH2 0xE46 JUMP JUMPDEST PUSH0 JUMPDEST DUP3 DUP2 LT ISZERO PUSH2 0x1083 JUMPI DUP5 DUP10 ADD MLOAD DUP3 SSTORE PUSH1 0x1 DUP3 ADD SWAP2 POP PUSH1 0x20 DUP6 ADD SWAP5 POP PUSH1 0x20 DUP2 ADD SWAP1 POP PUSH2 0x105E JUMP JUMPDEST DUP7 DUP4 LT ISZERO PUSH2 0x10A0 JUMPI DUP5 DUP10 ADD MLOAD PUSH2 0x109C PUSH1 0x1F DUP10 AND DUP3 PUSH2 0xFAF JUMP JUMPDEST DUP4 SSTORE POP JUMPDEST PUSH1 0x1 PUSH1 0x2 DUP9 MUL ADD DUP9 SSTORE POP POP POP JUMPDEST POP POP POP POP POP POP JUMP JUMPDEST PUSH0 DUP2 SWAP1 POP SWAP2 SWAP1 POP JUMP JUMPDEST PUSH2 0x10C7 DUP2 PUSH2 0x10B5 JUMP JUMPDEST DUP3 MSTORE POP POP JUMP JUMPDEST PUSH2 0x10D6 DUP2 PUSH2 0xCF6 JUMP JUMPDEST DUP3 MSTORE POP POP JUMP JUMPDEST PUSH2 0x10E5 DUP2 PUSH2 0xBEA JUMP JUMPDEST DUP3 MSTORE POP POP JUMP JUMPDEST PUSH0 PUSH1 0xA0 DUP3 ADD SWAP1 POP PUSH2 0x10FE PUSH0 DUP4 ADD DUP9 PUSH2 0x10BE JUMP JUMPDEST PUSH2 0x110B PUSH1 0x20 DUP4 ADD DUP8 PUSH2 0x10BE JUMP JUMPDEST PUSH2 0x1118 PUSH1 0x40 DUP4 ADD DUP7 PUSH2 0x10BE JUMP JUMPDEST PUSH2 0x1125 PUSH1 0x60 DUP4 ADD DUP6 PUSH2 0x10CD JUMP JUMPDEST PUSH2 0x1132 PUSH1 0x80 DUP4 ADD DUP5 PUSH2 0x10DC JUMP JUMPDEST SWAP7 SWAP6 POP POP POP POP POP POP JUMP JUMPDEST PUSH0 PUSH2 0x1156 PUSH2 0x1151 PUSH2 0x114C DUP5 PUSH2 0xC82 JUMP JUMPDEST PUSH2 0xEC4 JUMP JUMPDEST PUSH2 0xCF6 JUMP JUMPDEST SWAP1 POP SWAP2 SWAP1 POP JUMP JUMPDEST PUSH2 0x1166 DUP2 PUSH2 0x113C JUMP JUMPDEST DUP3 MSTORE POP POP JUMP JUMPDEST PUSH0 PUSH1 0x40 DUP3 ADD SWAP1 POP PUSH2 0x117F PUSH0 DUP4 ADD DUP6 PUSH2 0x115D JUMP JUMPDEST PUSH2 0x118C PUSH1 0x20 DUP4 ADD DUP5 PUSH2 0x115D JUMP JUMPDEST SWAP4 SWAP3 POP POP POP JUMP JUMPDEST PUSH0 DUP2 SWAP1 POP SWAP2 SWAP1 POP JUMP JUMPDEST PUSH0 PUSH2 0x11B6 PUSH2 0x11B1 PUSH2 0x11AC DUP5 PUSH2 0x1193 JUMP JUMPDEST PUSH2 0xEC4 JUMP JUMPDEST PUSH2 0xCF6 JUMP JUMPDEST SWAP1 POP SWAP2 SWAP1 POP JUMP JUMPDEST PUSH2 0x11C6 DUP2 PUSH2 0x119C JUMP JUMPDEST DUP3 MSTORE POP POP JUMP JUMPDEST PUSH0 PUSH1 0x20 DUP3 ADD SWAP1 POP PUSH2 0x11DF PUSH0 DUP4 ADD DUP5 PUSH2 0x11BD JUMP JUMPDEST SWAP3 SWAP2 POP POP JUMP JUMPDEST PUSH0 PUSH2 0x11FF PUSH2 0x11FA PUSH2 0x11F5 DUP5 PUSH2 0xCBD JUMP JUMPDEST PUSH2 0xEC4 JUMP JUMPDEST PUSH2 0xCF6 JUMP JUMPDEST SWAP1 POP SWAP2 SWAP1 POP JUMP JUMPDEST PUSH2 0x120F DUP2 PUSH2 0x11E5 JUMP JUMPDEST DUP3 MSTORE POP POP JUMP JUMPDEST PUSH0 PUSH1 0x40 DUP3 ADD SWAP1 POP PUSH2 0x1228 PUSH0 DUP4 ADD DUP6 PUSH2 0x1206 JUMP JUMPDEST PUSH2 0x1235 PUSH1 0x20 DUP4 ADD DUP5 PUSH2 0x1206 JUMP JUMPDEST SWAP4 SWAP3 POP POP POP JUMP JUMPDEST PUSH0 PUSH1 0x40 DUP3 ADD SWAP1 POP PUSH2 0x124F PUSH0 DUP4 ADD DUP6 PUSH2 0x10CD JUMP JUMPDEST PUSH2 0x125C PUSH1 0x20 DUP4 ADD DUP5 PUSH2 0x10CD JUMP JUMPDEST SWAP4 SWAP3 POP POP POP JUMP JUMPDEST PUSH0 PUSH1 0x40 DUP3 ADD SWAP1 POP PUSH2 0x1276 PUSH0 DUP4 ADD DUP6 PUSH2 0x10DC JUMP JUMPDEST PUSH2 0x1283 PUSH1 0x20 DUP4 ADD DUP5 PUSH2 0x10DC JUMP JUMPDEST SWAP4 SWAP3 POP POP POP JUMP JUMPDEST PUSH0 DUP3 DUP3 MSTORE PUSH1 0x20 DUP3 ADD SWAP1 POP SWAP3 SWAP2 POP POP JUMP JUMPDEST DUP3 DUP2 DUP4 MCOPY PUSH0 DUP4 DUP4 ADD MSTORE POP POP POP JUMP JUMPDEST PUSH0 PUSH1 0x1F NOT PUSH1 0x1F DUP4 ADD AND SWAP1 POP SWAP2 SWAP1 POP JUMP JUMPDEST PUSH0 PUSH2 0x12C2 DUP3 PUSH2 0xDB2 JUMP JUMPDEST PUSH2 0x12CC DUP2 DUP6 PUSH2 0x128A JUMP JUMPDEST SWAP4 POP PUSH2 0x12DC DUP2 DUP6 PUSH1 0x20 DUP7 ADD PUSH2 0x129A JUMP JUMPDEST PUSH2 0x12E5 DUP2 PUSH2 0x12A8 JUMP JUMPDEST DUP5 ADD SWAP2 POP POP SWAP3 SWAP2 POP POP JUMP JUMPDEST PUSH0 PUSH1 0x20 DUP3 ADD SWAP1 POP DUP2 DUP2 SUB PUSH0 DUP4 ADD MSTORE PUSH2 0x1308 DUP2 DUP5 PUSH2 0x12B8 JUMP JUMPDEST SWAP1 POP SWAP3 SWAP2 POP POP JUMP JUMPDEST PUSH0 DUP2 MLOAD SWAP1 POP SWAP2 SWAP1 POP JUMP JUMPDEST PUSH0 DUP2 SWAP1 POP PUSH1 0x20 DUP3 ADD SWAP1 POP SWAP2 SWAP1 POP JUMP JUMPDEST PUSH0 PUSH2 0x1334 DUP3 MLOAD PUSH2 0x10B5 JUMP JUMPDEST DUP1 SWAP2 POP POP SWAP2 SWAP1 POP JUMP JUMPDEST PUSH0 PUSH2 0x1347 DUP3 PUSH2 0x1310 JUMP JUMPDEST DUP3 PUSH2 0x1351 DUP5 PUSH2 0x131A JUMP JUMPDEST SWAP1 POP PUSH2 0x135C DUP2 PUSH2 0x1329 JUMP JUMPDEST SWAP3 POP PUSH1 0x20 DUP3 LT ISZERO PUSH2 0x139C JUMPI PUSH2 0x1397 PUSH32 0xFFFFFFFFFFFFFFFFFFFFFFFFFFFFFFFFFFFFFFFFFFFFFFFFFFFFFFFFFFFFFFFF DUP4 PUSH1 0x20 SUB PUSH1 0x8 MUL PUSH2 0xE67 JUMP JUMPDEST DUP4 AND SWAP3 POP JUMPDEST POP POP SWAP2 SWAP1 POP JUMP JUMPDEST PUSH0 PUSH1 0x20 DUP3 DUP5 SUB SLT ISZERO PUSH2 0x13B8 JUMPI PUSH2 0x13B7 PUSH2 0xBC7 JUMP JUMPDEST JUMPDEST PUSH0 PUSH2 0x13C5 DUP5 DUP3 DUP6 ADD PUSH2 0xCA9 JUMP JUMPDEST SWAP2 POP POP SWAP3 SWAP2 POP POP JUMP JUMPDEST PUSH0 DUP2 SWAP1 POP SWAP2 SWAP1 POP JUMP JUMPDEST PUSH0 PUSH1 0xFF DUP3 AND SWAP1 POP SWAP2 SWAP1 POP JUMP JUMPDEST PUSH0 PUSH2 0x13FD PUSH2 0x13F8 PUSH2 0x13F3 DUP5 PUSH2 0x13CE JUMP JUMPDEST PUSH2 0xEC4 JUMP JUMPDEST PUSH2 0x13D7 JUMP JUMPDEST SWAP1 POP SWAP2 SWAP1 POP JUMP JUMPDEST PUSH2 0x140D DUP2 PUSH2 0x13E3 JUMP JUMPDEST DUP3 MSTORE POP POP JUMP JUMPDEST PUSH0 PUSH1 0x40 DUP3 ADD SWAP1 POP PUSH2 0x1426 PUSH0 DUP4 ADD DUP6 PUSH2 0x1404 JUMP JUMPDEST PUSH2 0x1433 PUSH1 0x20 DUP4 ADD DUP5 PUSH2 0x10CD JUMP JUMPDEST SWAP4 SWAP3 POP POP POP JUMP JUMPDEST PUSH32 0x4E487B7100000000000000000000000000000000000000000000000000000000 PUSH0 MSTORE PUSH1 0x11 PUSH1 0x4 MSTORE PUSH1 0x24 PUSH0 REVERT JUMPDEST PUSH0 PUSH2 0x1471 DUP3 PUSH2 0xCF6 JUMP JUMPDEST SWAP2 POP PUSH2 0x147C DUP4 PUSH2 0xCF6 JUMP JUMPDEST SWAP3 POP DUP3 DUP3 SUB SWAP1 POP DUP2 DUP2 GT ISZERO PUSH2 0x1494 JUMPI PUSH2 0x1493 PUSH2 0x143A JUMP JUMPDEST JUMPDEST SWAP3 SWAP2 POP POP JUMP JUMPDEST PUSH0 DUP2 SWAP1 POP SWAP2 SWAP1 POP JUMP JUMPDEST PUSH0 PUSH2 0x14BD PUSH2 0x14B8 PUSH2 0x14B3 DUP5 PUSH2 0x149A JUMP JUMPDEST PUSH2 0xEC4 JUMP JUMPDEST PUSH2 0x13D7 JUMP JUMPDEST SWAP1 POP SWAP2 SWAP1 POP JUMP JUMPDEST PUSH2 0x14CD DUP2 PUSH2 0x14A3 JUMP JUMPDEST DUP3 MSTORE POP POP JUMP JUMPDEST PUSH0 PUSH1 0x40 DUP3 ADD SWAP1 POP PUSH2 0x14E6 PUSH0 DUP4 ADD DUP6 PUSH2 0x14C4 JUMP JUMPDEST PUSH2 0x14F3 PUSH1 0x20 DUP4 ADD DUP5 PUSH2 0x10CD JUMP JUMPDEST SWAP4 SWAP3 POP POP POP JUMP JUMPDEST PUSH1 0x80 MLOAD PUSH1 0xA0 MLOAD PUSH1 0xC0 MLOAD PUSH1 0xE0 MLOAD PUSH2 0x100 MLOAD PUSH2 0x120 MLOAD PUSH2 0x140 MLOAD PUSH2 0x160 MLOAD PUSH2 0x6CE3 PUSH2 0x1555 PUSH0 CODECOPY PUSH0 PUSH2 0x1F7A ADD MSTORE PUSH0 PUSH2 0x2E9B ADD MSTORE PUSH0 PUSH2 0x2E60 ADD MSTORE PUSH0 PUSH2 0x454E ADD MSTORE PUSH0 PUSH2 0x452D ADD MSTORE PUSH0 PUSH2 0x3885 ADD MSTORE PUSH0 PUSH2 0x38DB ADD MSTORE PUSH0 PUSH2 0x3904 ADD MSTORE PUSH2 0x6CE3 PUSH0 RETURN INVALID PUSH1 0x80 PUSH1 0x40 MSTORE PUSH1 0x4 CALLDATASIZE LT PUSH2 0x296 JUMPI PUSH0 CALLDATALOAD PUSH1 0xE0 SHR DUP1 PUSH4 0x7ECEBE00 GT PUSH2 0x159 JUMPI DUP1 PUSH4 0xC01F9E37 GT PUSH2 0xC0 JUMPI DUP1 PUSH4 0xE540D01D GT PUSH2 0x79 JUMPI DUP1 PUSH4 0xE540D01D EQ PUSH2 0xB89 JUMPI DUP1 PUSH4 0xEB9019D4 EQ PUSH2 0xBB1 JUMPI DUP1 PUSH4 0xECE40CC1 EQ PUSH2 0xBED JUMPI DUP1 PUSH4 0xF23A6E61 EQ PUSH2 0xC15 JUMPI DUP1 PUSH4 0xF8CE560A EQ PUSH2 0xC51 JUMPI DUP1 PUSH4 0xFC0C546A EQ PUSH2 0xC8D JUMPI PUSH2 0x309 JUMP JUMPDEST DUP1 PUSH4 0xC01F9E37 EQ PUSH2 0xA77 JUMPI DUP1 PUSH4 0xC28BC2FA EQ PUSH2 0xAB3 JUMPI DUP1 PUSH4 0xC59057E4 EQ PUSH2 0xACF JUMPI DUP1 PUSH4 0xD33219B4 EQ PUSH2 0xB0B JUMPI DUP1 PUSH4 0xDD4E2BA5 EQ PUSH2 0xB35 JUMPI DUP1 PUSH4 0xDEAAA7CC EQ PUSH2 0xB5F JUMPI PUSH2 0x309 JUMP JUMPDEST DUP1 PUSH4 0xA7713A70 GT PUSH2 0x112 JUMPI DUP1 PUSH4 0xA7713A70 EQ PUSH2 0x947 JUMPI DUP1 PUSH4 0xA890C910 EQ PUSH2 0x971 JUMPI DUP1 PUSH4 0xA9A95294 EQ PUSH2 0x999 JUMPI DUP1 PUSH4 0xAB58FB8E EQ PUSH2 0x9D5 JUMPI DUP1 PUSH4 0xB58131B0 EQ PUSH2 0xA11 JUMPI DUP1 PUSH4 0xBC197C81 EQ PUSH2 0xA3B JUMPI PUSH2 0x309 JUMP JUMPDEST DUP1 PUSH4 0x7ECEBE00 EQ PUSH2 0x80F JUMPI DUP1 PUSH4 0x84B0196E EQ PUSH2 0x84B JUMPI DUP1 PUSH4 0x8FF262E3 EQ PUSH2 0x87B JUMPI DUP1 PUSH4 0x91DDADF4 EQ PUSH2 0x8B7 JUMPI DUP1 PUSH4 0x97C3D334 EQ PUSH2 0x8E1 JUMPI DUP1 PUSH4 0x9A802A6D EQ PUSH2 0x90B JUMPI PUSH2 0x309 JUMP JUMPDEST DUP1 PUSH4 0x43859632 GT PUSH2 0x1FD JUMPI DUP1 PUSH4 0x5B8D0E0D GT PUSH2 0x1B6 JUMPI DUP1 PUSH4 0x5B8D0E0D EQ PUSH2 0x6BB JUMPI DUP1 PUSH4 0x5F398A14 EQ PUSH2 0x6F7 JUMPI DUP1 PUSH4 0x60C4247F EQ PUSH2 0x733 JUMPI DUP1 PUSH4 0x79051887 EQ PUSH2 0x76F JUMPI DUP1 PUSH4 0x7B3C71D3 EQ PUSH2 0x797 JUMPI DUP1 PUSH4 0x7D5E81E2 EQ PUSH2 0x7D3 JUMPI PUSH2 0x309 JUMP JUMPDEST DUP1 PUSH4 0x43859632 EQ PUSH2 0x575 JUMPI DUP1 PUSH4 0x452115D6 EQ PUSH2 0x5B1 JUMPI DUP1 PUSH4 0x4BF5D7E9 EQ PUSH2 0x5ED JUMPI DUP1 PUSH4 0x544FFC9C EQ PUSH2 0x617 JUMPI DUP1 PUSH4 0x54FD4D50 EQ PUSH2 0x655 JUMPI DUP1 PUSH4 0x56781388 EQ PUSH2 0x67F JUMPI PUSH2 0x309 JUMP JUMPDEST DUP1 PUSH4 0x160CBED7 GT PUSH2 0x24F JUMPI DUP1 PUSH4 0x160CBED7 EQ PUSH2 0x43D JUMPI DUP1 PUSH4 0x2656227D EQ PUSH2 0x479 JUMPI DUP1 PUSH4 0x2D63F693 EQ PUSH2 0x4A9 JUMPI DUP1 PUSH4 0x2FE3E261 EQ PUSH2 0x4E5 JUMPI DUP1 PUSH4 0x3932ABB1 EQ PUSH2 0x50F JUMPI DUP1 PUSH4 0x3E4F49E6 EQ PUSH2 0x539 JUMPI PUSH2 0x309 JUMP JUMPDEST DUP1 PUSH4 0x1FFC9A7 EQ PUSH2 0x30D JUMPI DUP1 PUSH4 0x2A251A3 EQ PUSH2 0x349 JUMPI DUP1 PUSH4 0x6F3F9E6 EQ PUSH2 0x373 JUMPI DUP1 PUSH4 0x6FDDE03 EQ PUSH2 0x39B JUMPI DUP1 PUSH4 0x143489D0 EQ PUSH2 0x3C5 JUMPI DUP1 PUSH4 0x150B7A02 EQ PUSH2 0x401 JUMPI PUSH2 0x309 JUMP JUMPDEST CALLDATASIZE PUSH2 0x309 JUMPI ADDRESS PUSH20 0xFFFFFFFFFFFFFFFFFFFFFFFFFFFFFFFFFFFFFFFF AND PUSH2 0x2BA PUSH2 0xCB7 JUMP JUMPDEST PUSH20 0xFFFFFFFFFFFFFFFFFFFFFFFFFFFFFFFFFFFFFFFF AND EQ PUSH2 0x307 JUMPI PUSH1 0x40 MLOAD PUSH32 0xE90A651E00000000000000000000000000000000000000000000000000000000 DUP2 MSTORE PUSH1 0x4 ADD PUSH1 0x40 MLOAD DUP1 SWAP2 SUB SWAP1 REVERT JUMPDEST STOP JUMPDEST PUSH0 PUSH0 REVERT JUMPDEST CALLVALUE DUP1 ISZERO PUSH2 0x318 JUMPI PUSH0 PUSH0 REVERT JUMPDEST POP PUSH2 0x333 PUSH1 0x4 DUP1 CALLDATASIZE SUB DUP2 ADD SWAP1 PUSH2 0x32E SWAP2 SWAP1 PUSH2 0x48BF JUMP JUMPDEST PUSH2 0xCC5 JUMP JUMPDEST PUSH1 0x40 MLOAD PUSH2 0x340 SWAP2 SWAP1 PUSH2 0x4904 JUMP JUMPDEST PUSH1 0x40 MLOAD DUP1 SWAP2 SUB SWAP1 RETURN JUMPDEST CALLVALUE DUP1 ISZERO PUSH2 0x354 JUMPI PUSH0 PUSH0 REVERT JUMPDEST POP PUSH2 0x35D PUSH2 0xDA6 JUMP JUMPDEST PUSH1 0x40 MLOAD PUSH2 0x36A SWAP2 SWAP1 PUSH2 0x4935 JUMP JUMPDEST PUSH1 0x40 MLOAD DUP1 SWAP2 SUB SWAP1 RETURN JUMPDEST CALLVALUE DUP1 ISZERO PUSH2 0x37E JUMPI PUSH0 PUSH0 REVERT JUMPDEST POP PUSH2 0x399 PUSH1 0x4 DUP1 CALLDATASIZE SUB DUP2 ADD SWAP1 PUSH2 0x394 SWAP2 SWAP1 PUSH2 0x4978 JUMP JUMPDEST PUSH2 0xDB4 JUMP JUMPDEST STOP JUMPDEST CALLVALUE DUP1 ISZERO PUSH2 0x3A6 JUMPI PUSH0 PUSH0 REVERT JUMPDEST POP PUSH2 0x3AF PUSH2 0xDC8 JUMP JUMPDEST PUSH1 0x40 MLOAD PUSH2 0x3BC SWAP2 SWAP1 PUSH2 0x4A13 JUMP JUMPDEST PUSH1 0x40 MLOAD DUP1 SWAP2 SUB SWAP1 RETURN JUMPDEST CALLVALUE DUP1 ISZERO PUSH2 0x3D0 JUMPI PUSH0 PUSH0 REVERT JUMPDEST POP PUSH2 0x3EB PUSH1 0x4 DUP1 CALLDATASIZE SUB DUP2 ADD SWAP1 PUSH2 0x3E6 SWAP2 SWAP1 PUSH2 0x4978 JUMP JUMPDEST PUSH2 0xE58 JUMP JUMPDEST PUSH1 0x40 MLOAD PUSH2 0x3F8 SWAP2 SWAP1 PUSH2 0x4A72 JUMP JUMPDEST PUSH1 0x40 MLOAD DUP1 SWAP2 SUB SWAP1 RETURN JUMPDEST CALLVALUE DUP1 ISZERO PUSH2 0x40C JUMPI PUSH0 PUSH0 REVERT JUMPDEST POP PUSH2 0x427 PUSH1 0x4 DUP1 CALLDATASIZE SUB DUP2 ADD SWAP1 PUSH2 0x422 SWAP2 SWAP1 PUSH2 0x4BE1 JUMP JUMPDEST PUSH2 0xE93 JUMP JUMPDEST PUSH1 0x40 MLOAD PUSH2 0x434 SWAP2 SWAP1 PUSH2 0x4C70 JUMP JUMPDEST PUSH1 0x40 MLOAD DUP1 SWAP2 SUB SWAP1 RETURN JUMPDEST CALLVALUE DUP1 ISZERO PUSH2 0x448 JUMPI PUSH0 PUSH0 REVERT JUMPDEST POP PUSH2 0x463 PUSH1 0x4 DUP1 CALLDATASIZE SUB DUP2 ADD SWAP1 PUSH2 0x45E SWAP2 SWAP1 PUSH2 0x4F1E JUMP JUMPDEST PUSH2 0xF12 JUMP JUMPDEST PUSH1 0x40 MLOAD PUSH2 0x470 SWAP2 SWAP1 PUSH2 0x4935 JUMP JUMPDEST PUSH1 0x40 MLOAD DUP1 SWAP2 SUB SWAP1 RETURN JUMPDEST PUSH2 0x493 PUSH1 0x4 DUP1 CALLDATASIZE SUB DUP2 ADD SWAP1 PUSH2 0x48E SWAP2 SWAP1 PUSH2 0x4F1E JUMP JUMPDEST PUSH2 0x1008 JUMP JUMPDEST PUSH1 0x40 MLOAD PUSH2 0x4A0 SWAP2 SWAP1 PUSH2 0x4935 JUMP JUMPDEST PUSH1 0x40 MLOAD DUP1 SWAP2 SUB SWAP1 RETURN JUMPDEST CALLVALUE DUP1 ISZERO PUSH2 0x4B4 JUMPI PUSH0 PUSH0 REVERT JUMPDEST POP PUSH2 0x4CF PUSH1 0x4 DUP1 CALLDATASIZE SUB DUP2 ADD SWAP1 PUSH2 0x4CA SWAP2 SWAP1 PUSH2 0x4978 JUMP JUMPDEST PUSH2 0x11E5 JUMP JUMPDEST PUSH1 0x40 MLOAD PUSH2 0x4DC SWAP2 SWAP1 PUSH2 0x4935 JUMP JUMPDEST PUSH1 0x40 MLOAD DUP1 SWAP2 SUB SWAP1 RETURN JUMPDEST CALLVALUE DUP1 ISZERO PUSH2 0x4F0 JUMPI PUSH0 PUSH0 REVERT JUMPDEST POP PUSH2 0x4F9 PUSH2 0x121B JUMP JUMPDEST PUSH1 0x40 MLOAD PUSH2 0x506 SWAP2 SWAP1 PUSH2 0x4FE5 JUMP JUMPDEST PUSH1 0x40 MLOAD DUP1 SWAP2 SUB SWAP1 RETURN JUMPDEST CALLVALUE DUP1 ISZERO PUSH2 0x51A JUMPI PUSH0 PUSH0 REVERT JUMPDEST POP PUSH2 0x523 PUSH2 0x123F JUMP JUMPDEST PUSH1 0x40 MLOAD PUSH2 0x530 SWAP2 SWAP1 PUSH2 0x4935 JUMP JUMPDEST PUSH1 0x40 MLOAD DUP1 SWAP2 SUB SWAP1 RETURN JUMPDEST CALLVALUE DUP1 ISZERO PUSH2 0x544 JUMPI PUSH0 PUSH0 REVERT JUMPDEST POP PUSH2 0x55F PUSH1 0x4 DUP1 CALLDATASIZE SUB DUP2 ADD SWAP1 PUSH2 0x55A SWAP2 SWAP1 PUSH2 0x4978 JUMP JUMPDEST PUSH2 0x124D JUMP JUMPDEST PUSH1 0x40 MLOAD PUSH2 0x56C SWAP2 SWAP1 PUSH2 0x5071 JUMP JUMPDEST PUSH1 0x40 MLOAD DUP1 SWAP2 SUB SWAP1 RETURN JUMPDEST CALLVALUE DUP1 ISZERO PUSH2 0x580 JUMPI PUSH0 PUSH0 REVERT JUMPDEST POP PUSH2 0x59B PUSH1 0x4 DUP1 CALLDATASIZE SUB DUP2 ADD SWAP1 PUSH2 0x596 SWAP2 SWAP1 PUSH2 0x508A JUMP JUMPDEST PUSH2 0x125E JUMP JUMPDEST PUSH1 0x40 MLOAD PUSH2 0x5A8 SWAP2 SWAP1 PUSH2 0x4904 JUMP JUMPDEST PUSH1 0x40 MLOAD DUP1 SWAP2 SUB SWAP1 RETURN JUMPDEST CALLVALUE DUP1 ISZERO PUSH2 0x5BC JUMPI PUSH0 PUSH0 REVERT JUMPDEST POP PUSH2 0x5D7 PUSH1 0x4 DUP1 CALLDATASIZE SUB DUP2 ADD SWAP1 PUSH2 0x5D2 SWAP2 SWAP1 PUSH2 0x4F1E JUMP JUMPDEST PUSH2 0x12C3 JUMP JUMPDEST PUSH1 0x40 MLOAD PUSH2 0x5E4 SWAP2 SWAP1 PUSH2 0x4935 JUMP JUMPDEST PUSH1 0x40 MLOAD DUP1 SWAP2 SUB SWAP1 RETURN JUMPDEST CALLVALUE DUP1 ISZERO PUSH2 0x5F8 JUMPI PUSH0 PUSH0 REVERT JUMPDEST POP PUSH2 0x601 PUSH2 0x1383 JUMP JUMPDEST PUSH1 0x40 MLOAD PUSH2 0x60E SWAP2 SWAP1 PUSH2 0x4A13 JUMP JUMPDEST PUSH1 0x40 MLOAD DUP1 SWAP2 SUB SWAP1 RETURN JUMPDEST CALLVALUE DUP1 ISZERO PUSH2 0x622 JUMPI PUSH0 PUSH0 REVERT JUMPDEST POP PUSH2 0x63D PUSH1 0x4 DUP1 CALLDATASIZE SUB DUP2 ADD SWAP1 PUSH2 0x638 SWAP2 SWAP1 PUSH2 0x4978 JUMP JUMPDEST PUSH2 0x1440 JUMP JUMPDEST PUSH1 0x40 MLOAD PUSH2 0x64C SWAP4 SWAP3 SWAP2 SWAP1 PUSH2 0x50C8 JUMP JUMPDEST PUSH1 0x40 MLOAD DUP1 SWAP2 SUB SWAP1 RETURN JUMPDEST CALLVALUE DUP1 ISZERO PUSH2 0x660 JUMPI PUSH0 PUSH0 REVERT JUMPDEST POP PUSH2 0x669 PUSH2 0x1473 JUMP JUMPDEST PUSH1 0x40 MLOAD PUSH2 0x676 SWAP2 SWAP1 PUSH2 0x4A13 JUMP JUMPDEST PUSH1 0x40 MLOAD DUP1 SWAP2 SUB SWAP1 RETURN JUMPDEST CALLVALUE DUP1 ISZERO PUSH2 0x68A JUMPI PUSH0 PUSH0 REVERT JUMPDEST POP PUSH2 0x6A5 PUSH1 0x4 DUP1 CALLDATASIZE SUB DUP2 ADD SWAP1 PUSH2 0x6A0 SWAP2 SWAP1 PUSH2 0x5133 JUMP JUMPDEST PUSH2 0x14B0 JUMP JUMPDEST PUSH1 0x40 MLOAD PUSH2 0x6B2 SWAP2 SWAP1 PUSH2 0x4935 JUMP JUMPDEST PUSH1 0x40 MLOAD DUP1 SWAP2 SUB SWAP1 RETURN JUMPDEST CALLVALUE DUP1 ISZERO PUSH2 0x6C6 JUMPI PUSH0 PUSH0 REVERT JUMPDEST POP PUSH2 0x6E1 PUSH1 0x4 DUP1 CALLDATASIZE SUB DUP2 ADD SWAP1 PUSH2 0x6DC SWAP2 SWAP1 PUSH2 0x51CA JUMP JUMPDEST PUSH2 0x14DF JUMP JUMPDEST PUSH1 0x40 MLOAD PUSH2 0x6EE SWAP2 SWAP1 PUSH2 0x4935 JUMP JUMPDEST PUSH1 0x40 MLOAD DUP1 SWAP2 SUB SWAP1 RETURN JUMPDEST CALLVALUE DUP1 ISZERO PUSH2 0x702 JUMPI PUSH0 PUSH0 REVERT JUMPDEST POP PUSH2 0x71D PUSH1 0x4 DUP1 CALLDATASIZE SUB DUP2 ADD SWAP1 PUSH2 0x718 SWAP2 SWAP1 PUSH2 0x52AC JUMP JUMPDEST PUSH2 0x160E JUMP JUMPDEST PUSH1 0x40 MLOAD PUSH2 0x72A SWAP2 SWAP1 PUSH2 0x4935 JUMP JUMPDEST PUSH1 0x40 MLOAD DUP1 SWAP2 SUB SWAP1 RETURN JUMPDEST CALLVALUE DUP1 ISZERO PUSH2 0x73E JUMPI PUSH0 PUSH0 REVERT JUMPDEST POP PUSH2 0x759 PUSH1 0x4 DUP1 CALLDATASIZE SUB DUP2 ADD SWAP1 PUSH2 0x754 SWAP2 SWAP1 PUSH2 0x4978 JUMP JUMPDEST PUSH2 0x1676 JUMP JUMPDEST PUSH1 0x40 MLOAD PUSH2 0x766 SWAP2 SWAP1 PUSH2 0x4935 JUMP JUMPDEST PUSH1 0x40 MLOAD DUP1 SWAP2 SUB SWAP1 RETURN JUMPDEST CALLVALUE DUP1 ISZERO PUSH2 0x77A JUMPI PUSH0 PUSH0 REVERT JUMPDEST POP PUSH2 0x795 PUSH1 0x4 DUP1 CALLDATASIZE SUB DUP2 ADD SWAP1 PUSH2 0x790 SWAP2 SWAP1 PUSH2 0x5387 JUMP JUMPDEST PUSH2 0x176F JUMP JUMPDEST STOP JUMPDEST CALLVALUE DUP1 ISZERO PUSH2 0x7A2 JUMPI PUSH0 PUSH0 REVERT JUMPDEST POP PUSH2 0x7BD PUSH1 0x4 DUP1 CALLDATASIZE SUB DUP2 ADD SWAP1 PUSH2 0x7B8 SWAP2 SWAP1 PUSH2 0x53B2 JUMP JUMPDEST PUSH2 0x1783 JUMP JUMPDEST PUSH1 0x40 MLOAD PUSH2 0x7CA SWAP2 SWAP1 PUSH2 0x4935 JUMP JUMPDEST PUSH1 0x40 MLOAD DUP1 SWAP2 SUB SWAP1 RETURN JUMPDEST CALLVALUE DUP1 ISZERO PUSH2 0x7DE JUMPI PUSH0 PUSH0 REVERT JUMPDEST POP PUSH2 0x7F9 PUSH1 0x4 DUP1 CALLDATASIZE SUB DUP2 ADD SWAP1 PUSH2 0x7F4 SWAP2 SWAP1 PUSH2 0x54C1 JUMP JUMPDEST PUSH2 0x17E9 JUMP JUMPDEST PUSH1 0x40 MLOAD PUSH2 0x806 SWAP2 SWAP1 PUSH2 0x4935 JUMP JUMPDEST PUSH1 0x40 MLOAD DUP1 SWAP2 SUB SWAP1 RETURN JUMPDEST CALLVALUE DUP1 ISZERO PUSH2 0x81A JUMPI PUSH0 PUSH0 REVERT JUMPDEST POP PUSH2 0x835 PUSH1 0x4 DUP1 CALLDATASIZE SUB DUP2 ADD SWAP1 PUSH2 0x830 SWAP2 SWAP1 PUSH2 0x5595 JUMP JUMPDEST PUSH2 0x18D6 JUMP JUMPDEST PUSH1 0x40 MLOAD PUSH2 0x842 SWAP2 SWAP1 PUSH2 0x4935 JUMP JUMPDEST PUSH1 0x40 MLOAD DUP1 SWAP2 SUB SWAP1 RETURN JUMPDEST CALLVALUE DUP1 ISZERO PUSH2 0x856 JUMPI PUSH0 PUSH0 REVERT JUMPDEST POP PUSH2 0x85F PUSH2 0x191C JUMP JUMPDEST PUSH1 0x40 MLOAD PUSH2 0x872 SWAP8 SWAP7 SWAP6 SWAP5 SWAP4 SWAP3 SWAP2 SWAP1 PUSH2 0x56B1 JUMP JUMPDEST PUSH1 0x40 MLOAD DUP1 SWAP2 SUB SWAP1 RETURN JUMPDEST CALLVALUE DUP1 ISZERO PUSH2 0x886 JUMPI PUSH0 PUSH0 REVERT JUMPDEST POP PUSH2 0x8A1 PUSH1 0x4 DUP1 CALLDATASIZE SUB DUP2 ADD SWAP1 PUSH2 0x89C SWAP2 SWAP1 PUSH2 0x5733 JUMP JUMPDEST PUSH2 0x19C1 JUMP JUMPDEST PUSH1 0x40 MLOAD PUSH2 0x8AE SWAP2 SWAP1 PUSH2 0x4935 JUMP JUMPDEST PUSH1 0x40 MLOAD DUP1 SWAP2 SUB SWAP1 RETURN JUMPDEST CALLVALUE DUP1 ISZERO PUSH2 0x8C2 JUMPI PUSH0 PUSH0 REVERT JUMPDEST POP PUSH2 0x8CB PUSH2 0x1A95 JUMP JUMPDEST PUSH1 0x40 MLOAD PUSH2 0x8D8 SWAP2 SWAP1 PUSH2 0x57C2 JUMP JUMPDEST PUSH1 0x40 MLOAD DUP1 SWAP2 SUB SWAP1 RETURN JUMPDEST CALLVALUE DUP1 ISZERO PUSH2 0x8EC JUMPI PUSH0 PUSH0 REVERT JUMPDEST POP PUSH2 0x8F5 PUSH2 0x1B20 JUMP JUMPDEST PUSH1 0x40 MLOAD PUSH2 0x902 SWAP2 SWAP1 PUSH2 0x4935 JUMP JUMPDEST PUSH1 0x40 MLOAD DUP1 SWAP2 SUB SWAP1 RETURN JUMPDEST CALLVALUE DUP1 ISZERO PUSH2 0x916 JUMPI PUSH0 PUSH0 REVERT JUMPDEST POP PUSH2 0x931 PUSH1 0x4 DUP1 CALLDATASIZE SUB DUP2 ADD SWAP1 PUSH2 0x92C SWAP2 SWAP1 PUSH2 0x57DB JUMP JUMPDEST PUSH2 0x1B28 JUMP JUMPDEST PUSH1 0x40 MLOAD PUSH2 0x93E SWAP2 SWAP1 PUSH2 0x4935 JUMP JUMPDEST PUSH1 0x40 MLOAD DUP1 SWAP2 SUB SWAP1 RETURN JUMPDEST CALLVALUE DUP1 ISZERO PUSH2 0x952 JUMPI PUSH0 PUSH0 REVERT JUMPDEST POP PUSH2 0x95B PUSH2 0x1B3D JUMP JUMPDEST PUSH1 0x40 MLOAD PUSH2 0x968 SWAP2 SWAP1 PUSH2 0x4935 JUMP JUMPDEST PUSH1 0x40 MLOAD DUP1 SWAP2 SUB SWAP1 RETURN JUMPDEST CALLVALUE DUP1 ISZERO PUSH2 0x97C JUMPI PUSH0 PUSH0 REVERT JUMPDEST POP PUSH2 0x997 PUSH1 0x4 DUP1 CALLDATASIZE SUB DUP2 ADD SWAP1 PUSH2 0x992 SWAP2 SWAP1 PUSH2 0x5893 JUMP JUMPDEST PUSH2 0x1B69 JUMP JUMPDEST STOP JUMPDEST CALLVALUE DUP1 ISZERO PUSH2 0x9A4 JUMPI PUSH0 PUSH0 REVERT JUMPDEST POP PUSH2 0x9BF PUSH1 0x4 DUP1 CALLDATASIZE SUB DUP2 ADD SWAP1 PUSH2 0x9BA SWAP2 SWAP1 PUSH2 0x4978 JUMP JUMPDEST PUSH2 0x1B7D JUMP JUMPDEST PUSH1 0x40 MLOAD PUSH2 0x9CC SWAP2 SWAP1 PUSH2 0x4904 JUMP JUMPDEST PUSH1 0x40 MLOAD DUP1 SWAP2 SUB SWAP1 RETURN JUMPDEST CALLVALUE DUP1 ISZERO PUSH2 0x9E0 JUMPI PUSH0 PUSH0 REVERT JUMPDEST POP PUSH2 0x9FB PUSH1 0x4 DUP1 CALLDATASIZE SUB DUP2 ADD SWAP1 PUSH2 0x9F6 SWAP2 SWAP1 PUSH2 0x4978 JUMP JUMPDEST PUSH2 0x1B8E JUMP JUMPDEST PUSH1 0x40 MLOAD PUSH2 0xA08 SWAP2 SWAP1 PUSH2 0x4935 JUMP JUMPDEST PUSH1 0x40 MLOAD DUP1 SWAP2 SUB SWAP1 RETURN JUMPDEST CALLVALUE DUP1 ISZERO PUSH2 0xA1C JUMPI PUSH0 PUSH0 REVERT JUMPDEST POP PUSH2 0xA25 PUSH2 0x1BC4 JUMP JUMPDEST PUSH1 0x40 MLOAD PUSH2 0xA32 SWAP2 SWAP1 PUSH2 0x4935 JUMP JUMPDEST PUSH1 0x40 MLOAD DUP1 SWAP2 SUB SWAP1 RETURN JUMPDEST CALLVALUE DUP1 ISZERO PUSH2 0xA46 JUMPI PUSH0 PUSH0 REVERT JUMPDEST POP PUSH2 0xA61 PUSH1 0x4 DUP1 CALLDATASIZE SUB DUP2 ADD SWAP1 PUSH2 0xA5C SWAP2 SWAP1 PUSH2 0x58BE JUMP JUMPDEST PUSH2 0x1BD2 JUMP JUMPDEST PUSH1 0x40 MLOAD PUSH2 0xA6E SWAP2 SWAP1 PUSH2 0x4C70 JUMP JUMPDEST PUSH1 0x40 MLOAD DUP1 SWAP2 SUB SWAP1 RETURN JUMPDEST CALLVALUE DUP1 ISZERO PUSH2 0xA82 JUMPI PUSH0 PUSH0 REVERT JUMPDEST POP PUSH2 0xA9D PUSH1 0x4 DUP1 CALLDATASIZE SUB DUP2 ADD SWAP1 PUSH2 0xA98 SWAP2 SWAP1 PUSH2 0x4978 JUMP JUMPDEST PUSH2 0x1C52 JUMP JUMPDEST PUSH1 0x40 MLOAD PUSH2 0xAAA SWAP2 SWAP1 PUSH2 0x4935 JUMP JUMPDEST PUSH1 0x40 MLOAD DUP1 SWAP2 SUB SWAP1 RETURN JUMPDEST PUSH2 0xACD PUSH1 0x4 DUP1 CALLDATASIZE SUB DUP2 ADD SWAP1 PUSH2 0xAC8 SWAP2 SWAP1 PUSH2 0x59DE JUMP JUMPDEST PUSH2 0x1CBC JUMP JUMPDEST STOP JUMPDEST CALLVALUE DUP1 ISZERO PUSH2 0xADA JUMPI PUSH0 PUSH0 REVERT JUMPDEST POP PUSH2 0xAF5 PUSH1 0x4 DUP1 CALLDATASIZE SUB DUP2 ADD SWAP1 PUSH2 0xAF0 SWAP2 SWAP1 PUSH2 0x4F1E JUMP JUMPDEST PUSH2 0x1D45 JUMP JUMPDEST PUSH1 0x40 MLOAD PUSH2 0xB02 SWAP2 SWAP1 PUSH2 0x4935 JUMP JUMPDEST PUSH1 0x40 MLOAD DUP1 SWAP2 SUB SWAP1 RETURN JUMPDEST CALLVALUE DUP1 ISZERO PUSH2 0xB16 JUMPI PUSH0 PUSH0 REVERT JUMPDEST POP PUSH2 0xB1F PUSH2 0x1D7F JUMP JUMPDEST PUSH1 0x40 MLOAD PUSH2 0xB2C SWAP2 SWAP1 PUSH2 0x4A72 JUMP JUMPDEST PUSH1 0x40 MLOAD DUP1 SWAP2 SUB SWAP1 RETURN JUMPDEST CALLVALUE DUP1 ISZERO PUSH2 0xB40 JUMPI PUSH0 PUSH0 REVERT JUMPDEST POP PUSH2 0xB49 PUSH2 0x1DA7 JUMP JUMPDEST PUSH1 0x40 MLOAD PUSH2 0xB56 SWAP2 SWAP1 PUSH2 0x4A13 JUMP JUMPDEST PUSH1 0x40 MLOAD DUP1 SWAP2 SUB SWAP1 RETURN JUMPDEST CALLVALUE DUP1 ISZERO PUSH2 0xB6A JUMPI PUSH0 PUSH0 REVERT JUMPDEST POP PUSH2 0xB73 PUSH2 0x1DE4 JUMP JUMPDEST PUSH1 0x40 MLOAD PUSH2 0xB80 SWAP2 SWAP1 PUSH2 0x4FE5 JUMP JUMPDEST PUSH1 0x40 MLOAD DUP1 SWAP2 SUB SWAP1 RETURN JUMPDEST CALLVALUE DUP1 ISZERO PUSH2 0xB94 JUMPI PUSH0 PUSH0 REVERT JUMPDEST POP PUSH2 0xBAF PUSH1 0x4 DUP1 CALLDATASIZE SUB DUP2 ADD SWAP1 PUSH2 0xBAA SWAP2 SWAP1 PUSH2 0x5A88 JUMP JUMPDEST PUSH2 0x1E08 JUMP JUMPDEST STOP JUMPDEST CALLVALUE DUP1 ISZERO PUSH2 0xBBC JUMPI PUSH0 PUSH0 REVERT JUMPDEST POP PUSH2 0xBD7 PUSH1 0x4 DUP1 CALLDATASIZE SUB DUP2 ADD SWAP1 PUSH2 0xBD2 SWAP2 SWAP1 PUSH2 0x5AB3 JUMP JUMPDEST PUSH2 0x1E1C JUMP JUMPDEST PUSH1 0x40 MLOAD PUSH2 0xBE4 SWAP2 SWAP1 PUSH2 0x4935 JUMP JUMPDEST PUSH1 0x40 MLOAD DUP1 SWAP2 SUB SWAP1 RETURN JUMPDEST CALLVALUE DUP1 ISZERO PUSH2 0xBF8 JUMPI PUSH0 PUSH0 REVERT JUMPDEST POP PUSH2 0xC13 PUSH1 0x4 DUP1 CALLDATASIZE SUB DUP2 ADD SWAP1 PUSH2 0xC0E SWAP2 SWAP1 PUSH2 0x4978 JUMP JUMPDEST PUSH2 0x1E37 JUMP JUMPDEST STOP JUMPDEST CALLVALUE DUP1 ISZERO PUSH2 0xC20 JUMPI PUSH0 PUSH0 REVERT JUMPDEST POP PUSH2 0xC3B PUSH1 0x4 DUP1 CALLDATASIZE SUB DUP2 ADD SWAP1 PUSH2 0xC36 SWAP2 SWAP1 PUSH2 0x5AF1 JUMP JUMPDEST PUSH2 0x1E4B JUMP JUMPDEST PUSH1 0x40 MLOAD PUSH2 0xC48 SWAP2 SWAP1 PUSH2 0x4C70 JUMP JUMPDEST PUSH1 0x40 MLOAD DUP1 SWAP2 SUB SWAP1 RETURN JUMPDEST CALLVALUE DUP1 ISZERO PUSH2 0xC5C JUMPI PUSH0 PUSH0 REVERT JUMPDEST POP PUSH2 0xC77 PUSH1 0x4 DUP1 CALLDATASIZE SUB DUP2 ADD SWAP1 PUSH2 0xC72 SWAP2 SWAP1 PUSH2 0x4978 JUMP JUMPDEST PUSH2 0x1ECB JUMP JUMPDEST PUSH1 0x40 MLOAD PUSH2 0xC84 SWAP2 SWAP1 PUSH2 0x4935 JUMP JUMPDEST PUSH1 0x40 MLOAD DUP1 SWAP2 SUB SWAP1 RETURN JUMPDEST CALLVALUE DUP1 ISZERO PUSH2 0xC98 JUMPI PUSH0 PUSH0 REVERT JUMPDEST POP PUSH2 0xCA1 PUSH2 0x1F77 JUMP JUMPDEST PUSH1 0x40 MLOAD PUSH2 0xCAE SWAP2 SWAP1 PUSH2 0x5BDF JUMP JUMPDEST PUSH1 0x40 MLOAD DUP1 SWAP2 SUB SWAP1 RETURN JUMPDEST PUSH0 PUSH2 0xCC0 PUSH2 0x1F9E JUMP JUMPDEST SWAP1 POP SWAP1 JUMP JUMPDEST PUSH0 PUSH32 0x65455A8600000000000000000000000000000000000000000000000000000000 PUSH28 0xFFFFFFFFFFFFFFFFFFFFFFFFFFFFFFFFFFFFFFFFFFFFFFFFFFFFFFFF NOT AND DUP3 PUSH28 0xFFFFFFFFFFFFFFFFFFFFFFFFFFFFFFFFFFFFFFFFFFFFFFFFFFFFFFFF NOT AND EQ DUP1 PUSH2 0xD8F JUMPI POP PUSH32 0x4E2312E000000000000000000000000000000000000000000000000000000000 PUSH28 0xFFFFFFFFFFFFFFFFFFFFFFFFFFFFFFFFFFFFFFFFFFFFFFFFFFFFFFFF NOT AND DUP3 PUSH28 0xFFFFFFFFFFFFFFFFFFFFFFFFFFFFFFFFFFFFFFFFFFFFFFFFFFFFFFFF NOT AND EQ JUMPDEST DUP1 PUSH2 0xD9F JUMPI POP PUSH2 0xD9E DUP3 PUSH2 0x1FC6 JUMP JUMPDEST JUMPDEST SWAP1 POP SWAP2 SWAP1 POP JUMP JUMPDEST PUSH0 PUSH2 0xDAF PUSH2 0x202F JUMP JUMPDEST SWAP1 POP SWAP1 JUMP JUMPDEST PUSH2 0xDBC PUSH2 0x204E JUMP JUMPDEST PUSH2 0xDC5 DUP2 PUSH2 0x2143 JUMP JUMPDEST POP JUMP JUMPDEST PUSH1 0x60 PUSH1 0x3 DUP1 SLOAD PUSH2 0xDD7 SWAP1 PUSH2 0x5C25 JUMP JUMPDEST DUP1 PUSH1 0x1F ADD PUSH1 0x20 DUP1 SWAP2 DIV MUL PUSH1 0x20 ADD PUSH1 0x40 MLOAD SWAP1 DUP2 ADD PUSH1 0x40 MSTORE DUP1 SWAP3 SWAP2 SWAP1 DUP2 DUP2 MSTORE PUSH1 0x20 ADD DUP3 DUP1 SLOAD PUSH2 0xE03 SWAP1 PUSH2 0x5C25 JUMP JUMPDEST DUP1 ISZERO PUSH2 0xE4E JUMPI DUP1 PUSH1 0x1F LT PUSH2 0xE25 JUMPI PUSH2 0x100 DUP1 DUP4 SLOAD DIV MUL DUP4 MSTORE SWAP2 PUSH1 0x20 ADD SWAP2 PUSH2 0xE4E JUMP JUMPDEST DUP3 ADD SWAP2 SWAP1 PUSH0 MSTORE PUSH1 0x20 PUSH0 KECCAK256 SWAP1 JUMPDEST DUP2 SLOAD DUP2 MSTORE SWAP1 PUSH1 0x1 ADD SWAP1 PUSH1 0x20 ADD DUP1 DUP4 GT PUSH2 0xE31 JUMPI DUP3 SWAP1 SUB PUSH1 0x1F AND DUP3 ADD SWAP2 JUMPDEST POP POP POP POP POP SWAP1 POP SWAP1 JUMP JUMPDEST PUSH0 PUSH1 0x4 PUSH0 DUP4 DUP2 MSTORE PUSH1 0x20 ADD SWAP1 DUP2 MSTORE PUSH1 0x20 ADD PUSH0 KECCAK256 PUSH0 ADD PUSH0 SWAP1 SLOAD SWAP1 PUSH2 0x100 EXP SWAP1 DIV PUSH20 0xFFFFFFFFFFFFFFFFFFFFFFFFFFFFFFFFFFFFFFFF AND SWAP1 POP SWAP2 SWAP1 POP JUMP JUMPDEST PUSH0 ADDRESS PUSH20 0xFFFFFFFFFFFFFFFFFFFFFFFFFFFFFFFFFFFFFFFF AND PUSH2 0xEB3 PUSH2 0xCB7 JUMP JUMPDEST PUSH20 0xFFFFFFFFFFFFFFFFFFFFFFFFFFFFFFFFFFFFFFFF AND EQ PUSH2 0xF00 JUMPI PUSH1 0x40 MLOAD PUSH32 0xE90A651E00000000000000000000000000000000000000000000000000000000 DUP2 MSTORE PUSH1 0x4 ADD PUSH1 0x40 MLOAD DUP1 SWAP2 SUB SWAP1 REVERT JUMPDEST PUSH4 0x150B7A02 PUSH1 0xE0 SHL SWAP1 POP SWAP5 SWAP4 POP POP POP POP JUMP JUMPDEST PUSH0 PUSH0 PUSH2 0xF20 DUP7 DUP7 DUP7 DUP7 PUSH2 0x1D45 JUMP JUMPDEST SWAP1 POP PUSH2 0xF35 DUP2 PUSH2 0xF30 PUSH1 0x4 PUSH2 0x2205 JUMP JUMPDEST PUSH2 0x2229 JUMP JUMPDEST POP PUSH0 PUSH2 0xF44 DUP3 DUP9 DUP9 DUP9 DUP9 PUSH2 0x2294 JUMP JUMPDEST SWAP1 POP PUSH0 DUP2 PUSH6 0xFFFFFFFFFFFF AND EQ PUSH2 0xFC9 JUMPI DUP1 PUSH1 0x4 PUSH0 DUP5 DUP2 MSTORE PUSH1 0x20 ADD SWAP1 DUP2 MSTORE PUSH1 0x20 ADD PUSH0 KECCAK256 PUSH1 0x1 ADD PUSH0 PUSH2 0x100 EXP DUP2 SLOAD DUP2 PUSH6 0xFFFFFFFFFFFF MUL NOT AND SWAP1 DUP4 PUSH6 0xFFFFFFFFFFFF AND MUL OR SWAP1 SSTORE POP PUSH32 0x9A2E42FD6722813D69113E7D0079D3D940171428DF7373DF9C7F7617CFDA2892 DUP3 DUP3 PUSH1 0x40 MLOAD PUSH2 0xFBC SWAP3 SWAP2 SWAP1 PUSH2 0x5C85 JUMP JUMPDEST PUSH1 0x40 MLOAD DUP1 SWAP2 SUB SWAP1 LOG1 PUSH2 0xFFB JUMP JUMPDEST PUSH1 0x40 MLOAD PUSH32 0x90884A4600000000000000000000000000000000000000000000000000000000 DUP2 MSTORE PUSH1 0x4 ADD PUSH1 0x40 MLOAD DUP1 SWAP2 SUB SWAP1 REVERT JUMPDEST DUP2 SWAP3 POP POP POP SWAP5 SWAP4 POP POP POP POP JUMP JUMPDEST PUSH0 PUSH0 PUSH2 0x1016 DUP7 DUP7 DUP7 DUP7 PUSH2 0x1D45 JUMP JUMPDEST SWAP1 POP PUSH2 0x1036 DUP2 PUSH2 0x1026 PUSH1 0x5 PUSH2 0x2205 JUMP JUMPDEST PUSH2 0x1030 PUSH1 0x4 PUSH2 0x2205 JUMP JUMPDEST OR PUSH2 0x2229 JUMP JUMPDEST POP PUSH1 0x1 PUSH1 0x4 PUSH0 DUP4 DUP2 MSTORE PUSH1 0x20 ADD SWAP1 DUP2 MSTORE PUSH1 0x20 ADD PUSH0 KECCAK256 PUSH0 ADD PUSH1 0x1E PUSH2 0x100 EXP DUP2 SLOAD DUP2 PUSH1 0xFF MUL NOT AND SWAP1 DUP4 ISZERO ISZERO MUL OR SWAP1 SSTORE POP ADDRESS PUSH20 0xFFFFFFFFFFFFFFFFFFFFFFFFFFFFFFFFFFFFFFFF AND PUSH2 0x1082 PUSH2 0xCB7 JUMP JUMPDEST PUSH20 0xFFFFFFFFFFFFFFFFFFFFFFFFFFFFFFFFFFFFFFFF AND EQ PUSH2 0x113B JUMPI PUSH0 PUSH0 SWAP1 POP JUMPDEST DUP7 MLOAD DUP2 LT ISZERO PUSH2 0x1139 JUMPI ADDRESS PUSH20 0xFFFFFFFFFFFFFFFFFFFFFFFFFFFFFFFFFFFFFFFF AND DUP8 DUP3 DUP2 MLOAD DUP2 LT PUSH2 0x10D5 JUMPI PUSH2 0x10D4 PUSH2 0x5CAC JUMP JUMPDEST JUMPDEST PUSH1 0x20 MUL PUSH1 0x20 ADD ADD MLOAD PUSH20 0xFFFFFFFFFFFFFFFFFFFFFFFFFFFFFFFFFFFFFFFF AND SUB PUSH2 0x112E JUMPI PUSH2 0x112D DUP6 DUP3 DUP2 MLOAD DUP2 LT PUSH2 0x110E JUMPI PUSH2 0x110D PUSH2 0x5CAC JUMP JUMPDEST JUMPDEST PUSH1 0x20 MUL PUSH1 0x20 ADD ADD MLOAD DUP1 MLOAD SWAP1 PUSH1 0x20 ADD KECCAK256 PUSH1 0x5 PUSH2 0x22AD SWAP1 SWAP2 SWAP1 PUSH4 0xFFFFFFFF AND JUMP JUMPDEST JUMPDEST DUP1 PUSH1 0x1 ADD SWAP1 POP PUSH2 0x10A2 JUMP JUMPDEST POP JUMPDEST PUSH2 0x1148 DUP2 DUP8 DUP8 DUP8 DUP8 PUSH2 0x23CC JUMP JUMPDEST ADDRESS PUSH20 0xFFFFFFFFFFFFFFFFFFFFFFFFFFFFFFFFFFFFFFFF AND PUSH2 0x1167 PUSH2 0xCB7 JUMP JUMPDEST PUSH20 0xFFFFFFFFFFFFFFFFFFFFFFFFFFFFFFFFFFFFFFFF AND EQ ISZERO DUP1 ISZERO PUSH2 0x1192 JUMPI POP PUSH2 0x1190 PUSH1 0x5 PUSH2 0x23E0 JUMP JUMPDEST ISZERO JUMPDEST ISZERO PUSH2 0x11A2 JUMPI PUSH2 0x11A1 PUSH1 0x5 PUSH2 0x244C JUMP JUMPDEST JUMPDEST PUSH32 0x712AE1383F79AC853F8D882153778E0260EF8F03B504E2866E0593E04D2B291F DUP2 PUSH1 0x40 MLOAD PUSH2 0x11D1 SWAP2 SWAP1 PUSH2 0x4935 JUMP JUMPDEST PUSH1 0x40 MLOAD DUP1 SWAP2 SUB SWAP1 LOG1 DUP1 SWAP2 POP POP SWAP5 SWAP4 POP POP POP POP JUMP JUMPDEST PUSH0 PUSH1 0x4 PUSH0 DUP4 DUP2 MSTORE PUSH1 0x20 ADD SWAP1 DUP2 MSTORE PUSH1 0x20 ADD PUSH0 KECCAK256 PUSH0 ADD PUSH1 0x14 SWAP1 SLOAD SWAP1 PUSH2 0x100 EXP SWAP1 DIV PUSH6 0xFFFFFFFFFFFF AND PUSH6 0xFFFFFFFFFFFF AND SWAP1 POP SWAP2 SWAP1 POP JUMP JUMPDEST PUSH32 0x3E83946653575F9A39005E1545185629E92736B7528AB20CA3816F315424A811 DUP2 JUMP JUMPDEST PUSH0 PUSH2 0x1248 PUSH2 0x24C2 JUMP JUMPDEST SWAP1 POP SWAP1 JUMP JUMPDEST PUSH0 PUSH2 0x1257 DUP3 PUSH2 0x24E4 JUMP JUMPDEST SWAP1 POP SWAP2 SWAP1 POP JUMP JUMPDEST PUSH0 PUSH1 0x9 PUSH0 DUP5 DUP2 MSTORE PUSH1 0x20 ADD SWAP1 DUP2 MSTORE PUSH1 0x20 ADD PUSH0 KECCAK256 PUSH1 0x3 ADD PUSH0 DUP4 PUSH20 0xFFFFFFFFFFFFFFFFFFFFFFFFFFFFFFFFFFFFFFFF AND PUSH20 0xFFFFFFFFFFFFFFFFFFFFFFFFFFFFFFFFFFFFFFFF AND DUP2 MSTORE PUSH1 0x20 ADD SWAP1 DUP2 MSTORE PUSH1 0x20 ADD PUSH0 KECCAK256 PUSH0 SWAP1 SLOAD SWAP1 PUSH2 0x100 EXP SWAP1 DIV PUSH1 0xFF AND SWAP1 POP SWAP3 SWAP2 POP POP JUMP JUMPDEST PUSH0 PUSH0 PUSH2 0x12D1 DUP7 DUP7 DUP7 DUP7 PUSH2 0x1D45 JUMP JUMPDEST SWAP1 POP PUSH2 0x12E5 DUP2 PUSH2 0x12E0 PUSH0 PUSH2 0x2205 JUMP JUMPDEST PUSH2 0x2229 JUMP JUMPDEST POP PUSH2 0x12EF DUP2 PUSH2 0xE58 JUMP JUMPDEST PUSH20 0xFFFFFFFFFFFFFFFFFFFFFFFFFFFFFFFFFFFFFFFF AND PUSH2 0x130D PUSH2 0x2699 JUMP JUMPDEST PUSH20 0xFFFFFFFFFFFFFFFFFFFFFFFFFFFFFFFFFFFFFFFF AND EQ PUSH2 0x136C JUMPI PUSH2 0x1330 PUSH2 0x2699 JUMP JUMPDEST PUSH1 0x40 MLOAD PUSH32 0x233D98E300000000000000000000000000000000000000000000000000000000 DUP2 MSTORE PUSH1 0x4 ADD PUSH2 0x1363 SWAP2 SWAP1 PUSH2 0x4A72 JUMP JUMPDEST PUSH1 0x40 MLOAD DUP1 SWAP2 SUB SWAP1 REVERT JUMPDEST PUSH2 0x1378 DUP7 DUP7 DUP7 DUP7 PUSH2 0x26A0 JUMP JUMPDEST SWAP2 POP POP SWAP5 SWAP4 POP POP POP POP JUMP JUMPDEST PUSH1 0x60 PUSH2 0x138D PUSH2 0x1F77 JUMP JUMPDEST PUSH20 0xFFFFFFFFFFFFFFFFFFFFFFFFFFFFFFFFFFFFFFFF AND PUSH4 0x4BF5D7E9 PUSH1 0x40 MLOAD DUP2 PUSH4 0xFFFFFFFF AND PUSH1 0xE0 SHL DUP2 MSTORE PUSH1 0x4 ADD PUSH0 PUSH1 0x40 MLOAD DUP1 DUP4 SUB DUP2 DUP7 GAS STATICCALL SWAP3 POP POP POP DUP1 ISZERO PUSH2 0x13F7 JUMPI POP PUSH1 0x40 MLOAD RETURNDATASIZE PUSH0 DUP3 RETURNDATACOPY RETURNDATASIZE PUSH1 0x1F NOT PUSH1 0x1F DUP3 ADD AND DUP3 ADD DUP1 PUSH1 0x40 MSTORE POP DUP2 ADD SWAP1 PUSH2 0x13F4 SWAP2 SWAP1 PUSH2 0x5D47 JUMP JUMPDEST PUSH1 0x1 JUMPDEST PUSH2 0x1438 JUMPI PUSH1 0x40 MLOAD DUP1 PUSH1 0x40 ADD PUSH1 0x40 MSTORE DUP1 PUSH1 0x1D DUP2 MSTORE PUSH1 0x20 ADD PUSH32 0x6D6F64653D626C6F636B6E756D6265722666726F6D3D64656661756C74000000 DUP2 MSTORE POP SWAP1 POP PUSH2 0x143D JUMP JUMPDEST DUP1 SWAP2 POP POP JUMPDEST SWAP1 JUMP JUMPDEST PUSH0 PUSH0 PUSH0 PUSH0 PUSH1 0x9 PUSH0 DUP7 DUP2 MSTORE PUSH1 0x20 ADD SWAP1 DUP2 MSTORE PUSH1 0x20 ADD PUSH0 KECCAK256 SWAP1 POP DUP1 PUSH0 ADD SLOAD DUP2 PUSH1 0x1 ADD SLOAD DUP3 PUSH1 0x2 ADD SLOAD SWAP4 POP SWAP4 POP SWAP4 POP POP SWAP2 SWAP4 SWAP1 SWAP3 POP JUMP JUMPDEST PUSH1 0x60 PUSH1 0x40 MLOAD DUP1 PUSH1 0x40 ADD PUSH1 0x40 MSTORE DUP1 PUSH1 0x1 DUP2 MSTORE PUSH1 0x20 ADD PUSH32 0x3100000000000000000000000000000000000000000000000000000000000000 DUP2 MSTORE POP SWAP1 POP SWAP1 JUMP JUMPDEST PUSH0 PUSH0 PUSH2 0x14BA PUSH2 0x2699 JUMP JUMPDEST SWAP1 POP PUSH2 0x14D6 DUP5 DUP3 DUP6 PUSH1 0x40 MLOAD DUP1 PUSH1 0x20 ADD PUSH1 0x40 MSTORE DUP1 PUSH0 DUP2 MSTORE POP PUSH2 0x26B7 JUMP JUMPDEST SWAP2 POP POP SWAP3 SWAP2 POP POP JUMP JUMPDEST PUSH0 PUSH0 PUSH2 0x156C DUP8 PUSH2 0x1566 PUSH32 0x3E83946653575F9A39005E1545185629E92736B7528AB20CA3816F315424A811 DUP13 DUP13 DUP13 PUSH2 0x1515 DUP15 PUSH2 0x26D6 JUMP JUMPDEST DUP14 DUP14 PUSH1 0x40 MLOAD PUSH2 0x1525 SWAP3 SWAP2 SWAP1 PUSH2 0x5DBC JUMP JUMPDEST PUSH1 0x40 MLOAD DUP1 SWAP2 SUB SWAP1 KECCAK256 DUP13 DUP1 MLOAD SWAP1 PUSH1 0x20 ADD KECCAK256 PUSH1 0x40 MLOAD PUSH1 0x20 ADD PUSH2 0x154B SWAP8 SWAP7 SWAP6 SWAP5 SWAP4 SWAP3 SWAP2 SWAP1 PUSH2 0x5DE3 JUMP JUMPDEST PUSH1 0x40 MLOAD PUSH1 0x20 DUP2 DUP4 SUB SUB DUP2 MSTORE SWAP1 PUSH1 0x40 MSTORE DUP1 MLOAD SWAP1 PUSH1 0x20 ADD KECCAK256 PUSH2 0x2729 JUMP JUMPDEST DUP6 PUSH2 0x2742 JUMP JUMPDEST SWAP1 POP DUP1 PUSH2 0x15B0 JUMPI DUP7 PUSH1 0x40 MLOAD PUSH32 0x94AB6C0700000000000000000000000000000000000000000000000000000000 DUP2 MSTORE PUSH1 0x4 ADD PUSH2 0x15A7 SWAP2 SWAP1 PUSH2 0x4A72 JUMP JUMPDEST PUSH1 0x40 MLOAD DUP1 SWAP2 SUB SWAP1 REVERT JUMPDEST PUSH2 0x1600 DUP10 DUP9 DUP11 DUP10 DUP10 DUP1 DUP1 PUSH1 0x1F ADD PUSH1 0x20 DUP1 SWAP2 DIV MUL PUSH1 0x20 ADD PUSH1 0x40 MLOAD SWAP1 DUP2 ADD PUSH1 0x40 MSTORE DUP1 SWAP4 SWAP3 SWAP2 SWAP1 DUP2 DUP2 MSTORE PUSH1 0x20 ADD DUP4 DUP4 DUP1 DUP3 DUP5 CALLDATACOPY PUSH0 DUP2 DUP5 ADD MSTORE PUSH1 0x1F NOT PUSH1 0x1F DUP3 ADD AND SWAP1 POP DUP1 DUP4 ADD SWAP3 POP POP POP POP POP POP POP DUP9 PUSH2 0x27CF JUMP JUMPDEST SWAP2 POP POP SWAP8 SWAP7 POP POP POP POP POP POP POP JUMP JUMPDEST PUSH0 PUSH0 PUSH2 0x1618 PUSH2 0x2699 JUMP JUMPDEST SWAP1 POP PUSH2 0x166A DUP8 DUP3 DUP9 DUP9 DUP9 DUP1 DUP1 PUSH1 0x1F ADD PUSH1 0x20 DUP1 SWAP2 DIV MUL PUSH1 0x20 ADD PUSH1 0x40 MLOAD SWAP1 DUP2 ADD PUSH1 0x40 MSTORE DUP1 SWAP4 SWAP3 SWAP2 SWAP1 DUP2 DUP2 MSTORE PUSH1 0x20 ADD DUP4 DUP4 DUP1 DUP3 DUP5 CALLDATACOPY PUSH0 DUP2 DUP5 ADD MSTORE PUSH1 0x1F NOT PUSH1 0x1F DUP3 ADD AND SWAP1 POP DUP1 DUP4 ADD SWAP3 POP POP POP POP POP POP POP DUP8 PUSH2 0x27CF JUMP JUMPDEST SWAP2 POP POP SWAP6 SWAP5 POP POP POP POP POP JUMP JUMPDEST PUSH0 PUSH0 PUSH1 0xA PUSH0 ADD DUP1 SLOAD SWAP1 POP SWAP1 POP PUSH0 PUSH1 0xA PUSH0 ADD PUSH1 0x1 DUP4 PUSH2 0x1694 SWAP2 SWAP1 PUSH2 0x5E7D JUMP JUMPDEST DUP2 SLOAD DUP2 LT PUSH2 0x16A5 JUMPI PUSH2 0x16A4 PUSH2 0x5CAC JUMP JUMPDEST JUMPDEST SWAP1 PUSH0 MSTORE PUSH1 0x20 PUSH0 KECCAK256 ADD SWAP1 POP PUSH0 DUP2 PUSH0 ADD PUSH0 SWAP1 SLOAD SWAP1 PUSH2 0x100 EXP SWAP1 DIV PUSH6 0xFFFFFFFFFFFF AND SWAP1 POP PUSH0 DUP3 PUSH0 ADD PUSH1 0x6 SWAP1 SLOAD SWAP1 PUSH2 0x100 EXP SWAP1 DIV PUSH26 0xFFFFFFFFFFFFFFFFFFFFFFFFFFFFFFFFFFFFFFFFFFFFFFFFFFFF AND SWAP1 POP DUP6 DUP3 PUSH6 0xFFFFFFFFFFFF AND GT PUSH2 0x172B JUMPI DUP1 PUSH26 0xFFFFFFFFFFFFFFFFFFFFFFFFFFFFFFFFFFFFFFFFFFFFFFFFFFFF AND SWAP5 POP POP POP POP POP PUSH2 0x176A JUMP JUMPDEST PUSH2 0x1747 PUSH2 0x1737 DUP8 PUSH2 0x28CC JUMP JUMPDEST PUSH1 0xA PUSH2 0x2925 SWAP1 SWAP2 SWAP1 PUSH4 0xFFFFFFFF AND JUMP JUMPDEST PUSH26 0xFFFFFFFFFFFFFFFFFFFFFFFFFFFFFFFFFFFFFFFFFFFFFFFFFFFF AND SWAP5 POP POP POP POP POP JUMPDEST SWAP2 SWAP1 POP JUMP JUMPDEST PUSH2 0x1777 PUSH2 0x204E JUMP JUMPDEST PUSH2 0x1780 DUP2 PUSH2 0x2A15 JUMP JUMPDEST POP JUMP JUMPDEST PUSH0 PUSH0 PUSH2 0x178D PUSH2 0x2699 JUMP JUMPDEST SWAP1 POP PUSH2 0x17DE DUP7 DUP3 DUP8 DUP8 DUP8 DUP1 DUP1 PUSH1 0x1F ADD PUSH1 0x20 DUP1 SWAP2 DIV MUL PUSH1 0x20 ADD PUSH1 0x40 MLOAD SWAP1 DUP2 ADD PUSH1 0x40 MSTORE DUP1 SWAP4 SWAP3 SWAP2 SWAP1 DUP2 DUP2 MSTORE PUSH1 0x20 ADD DUP4 DUP4 DUP1 DUP3 DUP5 CALLDATACOPY PUSH0 DUP2 DUP5 ADD MSTORE PUSH1 0x1F NOT PUSH1 0x1F DUP3 ADD AND SWAP1 POP DUP1 DUP4 ADD SWAP3 POP POP POP POP POP POP POP PUSH2 0x26B7 JUMP JUMPDEST SWAP2 POP POP SWAP5 SWAP4 POP POP POP POP JUMP JUMPDEST PUSH0 PUSH0 PUSH2 0x17F3 PUSH2 0x2699 JUMP JUMPDEST SWAP1 POP PUSH2 0x17FF DUP2 DUP5 PUSH2 0x2A88 JUMP JUMPDEST PUSH2 0x1840 JUMPI DUP1 PUSH1 0x40 MLOAD PUSH32 0xD9B3955700000000000000000000000000000000000000000000000000000000 DUP2 MSTORE PUSH1 0x4 ADD PUSH2 0x1837 SWAP2 SWAP1 PUSH2 0x4A72 JUMP JUMPDEST PUSH1 0x40 MLOAD DUP1 SWAP2 SUB SWAP1 REVERT JUMPDEST PUSH0 PUSH2 0x1866 DUP3 PUSH1 0x1 PUSH2 0x184F PUSH2 0x1A95 JUMP JUMPDEST PUSH2 0x1859 SWAP2 SWAP1 PUSH2 0x5EB0 JUMP JUMPDEST PUSH6 0xFFFFFFFFFFFF AND PUSH2 0x1E1C JUMP JUMPDEST SWAP1 POP PUSH0 PUSH2 0x1871 PUSH2 0x1BC4 JUMP JUMPDEST SWAP1 POP DUP1 DUP3 LT ISZERO PUSH2 0x18BC JUMPI DUP3 DUP3 DUP3 PUSH1 0x40 MLOAD PUSH32 0xC242EE1600000000000000000000000000000000000000000000000000000000 DUP2 MSTORE PUSH1 0x4 ADD PUSH2 0x18B3 SWAP4 SWAP3 SWAP2 SWAP1 PUSH2 0x5EE9 JUMP JUMPDEST PUSH1 0x40 MLOAD DUP1 SWAP2 SUB SWAP1 REVERT JUMPDEST PUSH2 0x18C9 DUP9 DUP9 DUP9 DUP9 DUP8 PUSH2 0x2BD3 JUMP JUMPDEST SWAP4 POP POP POP POP SWAP5 SWAP4 POP POP POP POP JUMP JUMPDEST PUSH0 PUSH1 0x2 PUSH0 DUP4 PUSH20 0xFFFFFFFFFFFFFFFFFFFFFFFFFFFFFFFFFFFFFFFF AND PUSH20 0xFFFFFFFFFFFFFFFFFFFFFFFFFFFFFFFFFFFFFFFF AND DUP2 MSTORE PUSH1 0x20 ADD SWAP1 DUP2 MSTORE PUSH1 0x20 ADD PUSH0 KECCAK256 SLOAD SWAP1 POP SWAP2 SWAP1 POP JUMP JUMPDEST PUSH0 PUSH1 0x60 DUP1 PUSH0 PUSH0 PUSH0 PUSH1 0x60 PUSH2 0x192D PUSH2 0x2E58 JUMP JUMPDEST PUSH2 0x1935 PUSH2 0x2E92 JUMP JUMPDEST CHAINID ADDRESS PUSH0 PUSH0 SHL PUSH0 PUSH8 0xFFFFFFFFFFFFFFFF DUP2 GT ISZERO PUSH2 0x1954 JUMPI PUSH2 0x1953 PUSH2 0x4ABD JUMP JUMPDEST JUMPDEST PUSH1 0x40 MLOAD SWAP1 DUP1 DUP3 MSTORE DUP1 PUSH1 0x20 MUL PUSH1 0x20 ADD DUP3 ADD PUSH1 0x40 MSTORE DUP1 ISZERO PUSH2 0x1982 JUMPI DUP2 PUSH1 0x20 ADD PUSH1 0x20 DUP3 MUL DUP1 CALLDATASIZE DUP4 CALLDATACOPY DUP1 DUP3 ADD SWAP2 POP POP SWAP1 POP JUMPDEST POP PUSH32 0xF00000000000000000000000000000000000000000000000000000000000000 SWAP6 SWAP5 SWAP4 SWAP3 SWAP2 SWAP1 SWAP7 POP SWAP7 POP SWAP7 POP SWAP7 POP SWAP7 POP SWAP7 POP SWAP7 POP SWAP1 SWAP2 SWAP3 SWAP4 SWAP5 SWAP6 SWAP7 JUMP JUMPDEST PUSH0 PUSH0 PUSH2 0x1A2C DUP5 PUSH2 0x1A26 PUSH32 0xF2AAD550CF55F045CB27E9C559F9889FDFB6E6CDAA032301D6EA397784AE51D7 DUP10 DUP10 DUP10 PUSH2 0x19F7 DUP12 PUSH2 0x26D6 JUMP JUMPDEST PUSH1 0x40 MLOAD PUSH1 0x20 ADD PUSH2 0x1A0B SWAP6 SWAP5 SWAP4 SWAP3 SWAP2 SWAP1 PUSH2 0x5F1E JUMP JUMPDEST PUSH1 0x40 MLOAD PUSH1 0x20 DUP2 DUP4 SUB SUB DUP2 MSTORE SWAP1 PUSH1 0x40 MSTORE DUP1 MLOAD SWAP1 PUSH1 0x20 ADD KECCAK256 PUSH2 0x2729 JUMP JUMPDEST DUP6 PUSH2 0x2742 JUMP JUMPDEST SWAP1 POP DUP1 PUSH2 0x1A70 JUMPI DUP4 PUSH1 0x40 MLOAD PUSH32 0x94AB6C0700000000000000000000000000000000000000000000000000000000 DUP2 MSTORE PUSH1 0x4 ADD PUSH2 0x1A67 SWAP2 SWAP1 PUSH2 0x4A72 JUMP JUMPDEST PUSH1 0x40 MLOAD DUP1 SWAP2 SUB SWAP1 REVERT JUMPDEST PUSH2 0x1A8A DUP7 DUP6 DUP8 PUSH1 0x40 MLOAD DUP1 PUSH1 0x20 ADD PUSH1 0x40 MSTORE DUP1 PUSH0 DUP2 MSTORE POP PUSH2 0x26B7 JUMP JUMPDEST SWAP2 POP POP SWAP5 SWAP4 POP POP POP POP JUMP JUMPDEST PUSH0 PUSH2 0x1A9E PUSH2 0x1F77 JUMP JUMPDEST PUSH20 0xFFFFFFFFFFFFFFFFFFFFFFFFFFFFFFFFFFFFFFFF AND PUSH4 0x91DDADF4 PUSH1 0x40 MLOAD DUP2 PUSH4 0xFFFFFFFF AND PUSH1 0xE0 SHL DUP2 MSTORE PUSH1 0x4 ADD PUSH1 0x20 PUSH1 0x40 MLOAD DUP1 DUP4 SUB DUP2 DUP7 GAS STATICCALL SWAP3 POP POP POP DUP1 ISZERO PUSH2 0x1B05 JUMPI POP PUSH1 0x40 MLOAD RETURNDATASIZE PUSH1 0x1F NOT PUSH1 0x1F DUP3 ADD AND DUP3 ADD DUP1 PUSH1 0x40 MSTORE POP DUP2 ADD SWAP1 PUSH2 0x1B02 SWAP2 SWAP1 PUSH2 0x5F83 JUMP JUMPDEST PUSH1 0x1 JUMPDEST PUSH2 0x1B18 JUMPI PUSH2 0x1B11 PUSH2 0x2ECD JUMP JUMPDEST SWAP1 POP PUSH2 0x1B1D JUMP JUMPDEST DUP1 SWAP2 POP POP JUMPDEST SWAP1 JUMP JUMPDEST PUSH0 PUSH1 0x64 SWAP1 POP SWAP1 JUMP JUMPDEST PUSH0 PUSH2 0x1B34 DUP5 DUP5 DUP5 PUSH2 0x2EDC JUMP JUMPDEST SWAP1 POP SWAP4 SWAP3 POP POP POP JUMP JUMPDEST PUSH0 PUSH2 0x1B48 PUSH1 0xA PUSH2 0x2F67 JUMP JUMPDEST PUSH26 0xFFFFFFFFFFFFFFFFFFFFFFFFFFFFFFFFFFFFFFFFFFFFFFFFFFFF AND SWAP1 POP SWAP1 JUMP JUMPDEST PUSH2 0x1B71 PUSH2 0x204E JUMP JUMPDEST PUSH2 0x1B7A DUP2 PUSH2 0x2FC9 JUMP JUMPDEST POP JUMP JUMPDEST PUSH0 PUSH2 0x1B87 DUP3 PUSH2 0x3066 JUMP JUMPDEST SWAP1 POP SWAP2 SWAP1 POP JUMP JUMPDEST PUSH0 PUSH1 0x4 PUSH0 DUP4 DUP2 MSTORE PUSH1 0x20 ADD SWAP1 DUP2 MSTORE PUSH1 0x20 ADD PUSH0 KECCAK256 PUSH1 0x1 ADD PUSH0 SWAP1 SLOAD SWAP1 PUSH2 0x100 EXP SWAP1 DIV PUSH6 0xFFFFFFFFFFFF AND PUSH6 0xFFFFFFFFFFFF AND SWAP1 POP SWAP2 SWAP1 POP JUMP JUMPDEST PUSH0 PUSH2 0x1BCD PUSH2 0x3070 JUMP JUMPDEST SWAP1 POP SWAP1 JUMP JUMPDEST PUSH0 ADDRESS PUSH20 0xFFFFFFFFFFFFFFFFFFFFFFFFFFFFFFFFFFFFFFFF AND PUSH2 0x1BF2 PUSH2 0xCB7 JUMP JUMPDEST PUSH20 0xFFFFFFFFFFFFFFFFFFFFFFFFFFFFFFFFFFFFFFFF AND EQ PUSH2 0x1C3F JUMPI PUSH1 0x40 MLOAD PUSH32 0xE90A651E00000000000000000000000000000000000000000000000000000000 DUP2 MSTORE PUSH1 0x4 ADD PUSH1 0x40 MLOAD DUP1 SWAP2 SUB SWAP1 REVERT JUMPDEST PUSH4 0xBC197C81 PUSH1 0xE0 SHL SWAP1 POP SWAP6 SWAP5 POP POP POP POP POP JUMP JUMPDEST PUSH0 PUSH1 0x4 PUSH0 DUP4 DUP2 MSTORE PUSH1 0x20 ADD SWAP1 DUP2 MSTORE PUSH1 0x20 ADD PUSH0 KECCAK256 PUSH0 ADD PUSH1 0x1A SWAP1 SLOAD SWAP1 PUSH2 0x100 EXP SWAP1 DIV PUSH4 0xFFFFFFFF AND PUSH4 0xFFFFFFFF AND PUSH1 0x4 PUSH0 DUP5 DUP2 MSTORE PUSH1 0x20 ADD SWAP1 DUP2 MSTORE PUSH1 0x20 ADD PUSH0 KECCAK256 PUSH0 ADD PUSH1 0x14 SWAP1 SLOAD SWAP1 PUSH2 0x100 EXP SWAP1 DIV PUSH6 0xFFFFFFFFFFFF AND PUSH2 0x1CAD SWAP2 SWAP1 PUSH2 0x5FAE JUMP JUMPDEST PUSH6 0xFFFFFFFFFFFF AND SWAP1 POP SWAP2 SWAP1 POP JUMP JUMPDEST PUSH2 0x1CC4 PUSH2 0x204E JUMP JUMPDEST PUSH0 PUSH0 DUP6 PUSH20 0xFFFFFFFFFFFFFFFFFFFFFFFFFFFFFFFFFFFFFFFF AND DUP6 DUP6 DUP6 PUSH1 0x40 MLOAD PUSH2 0x1CEE SWAP3 SWAP2 SWAP1 PUSH2 0x5DBC JUMP JUMPDEST PUSH0 PUSH1 0x40 MLOAD DUP1 DUP4 SUB DUP2 DUP6 DUP8 GAS CALL SWAP3 POP POP POP RETURNDATASIZE DUP1 PUSH0 DUP2 EQ PUSH2 0x1D28 JUMPI PUSH1 0x40 MLOAD SWAP2 POP PUSH1 0x1F NOT PUSH1 0x3F RETURNDATASIZE ADD AND DUP3 ADD PUSH1 0x40 MSTORE RETURNDATASIZE DUP3 MSTORE RETURNDATASIZE PUSH0 PUSH1 0x20 DUP5 ADD RETURNDATACOPY PUSH2 0x1D2D JUMP JUMPDEST PUSH1 0x60 SWAP2 POP JUMPDEST POP SWAP2 POP SWAP2 POP PUSH2 0x1D3C DUP3 DUP3 PUSH2 0x3079 JUMP JUMPDEST POP POP POP POP POP POP POP JUMP JUMPDEST PUSH0 DUP5 DUP5 DUP5 DUP5 PUSH1 0x40 MLOAD PUSH1 0x20 ADD PUSH2 0x1D5D SWAP5 SWAP4 SWAP3 SWAP2 SWAP1 PUSH2 0x61AB JUMP JUMPDEST PUSH1 0x40 MLOAD PUSH1 0x20 DUP2 DUP4 SUB SUB DUP2 MSTORE SWAP1 PUSH1 0x40 MSTORE DUP1 MLOAD SWAP1 PUSH1 0x20 ADD KECCAK256 PUSH0 SHR SWAP1 POP SWAP5 SWAP4 POP POP POP POP JUMP JUMPDEST PUSH0 PUSH1 0xB PUSH0 SWAP1 SLOAD SWAP1 PUSH2 0x100 EXP SWAP1 DIV PUSH20 0xFFFFFFFFFFFFFFFFFFFFFFFFFFFFFFFFFFFFFFFF AND SWAP1 POP SWAP1 JUMP JUMPDEST PUSH1 0x60 PUSH1 0x40 MLOAD DUP1 PUSH1 0x40 ADD PUSH1 0x40 MSTORE DUP1 PUSH1 0x20 DUP2 MSTORE PUSH1 0x20 ADD PUSH32 0x737570706F72743D627261766F2671756F72756D3D666F722C6162737461696E DUP2 MSTORE POP SWAP1 POP SWAP1 JUMP JUMPDEST PUSH32 0xF2AAD550CF55F045CB27E9C559F9889FDFB6E6CDAA032301D6EA397784AE51D7 DUP2 JUMP JUMPDEST PUSH2 0x1E10 PUSH2 0x204E JUMP JUMPDEST PUSH2 0x1E19 DUP2 PUSH2 0x309D JUMP JUMPDEST POP JUMP JUMPDEST PUSH0 PUSH2 0x1E2F DUP4 DUP4 PUSH2 0x1E2A PUSH2 0x3156 JUMP JUMPDEST PUSH2 0x2EDC JUMP JUMPDEST SWAP1 POP SWAP3 SWAP2 POP POP JUMP JUMPDEST PUSH2 0x1E3F PUSH2 0x204E JUMP JUMPDEST PUSH2 0x1E48 DUP2 PUSH2 0x316C JUMP JUMPDEST POP JUMP JUMPDEST PUSH0 ADDRESS PUSH20 0xFFFFFFFFFFFFFFFFFFFFFFFFFFFFFFFFFFFFFFFF AND PUSH2 0x1E6B PUSH2 0xCB7 JUMP JUMPDEST PUSH20 0xFFFFFFFFFFFFFFFFFFFFFFFFFFFFFFFFFFFFFFFF AND EQ PUSH2 0x1EB8 JUMPI PUSH1 0x40 MLOAD PUSH32 0xE90A651E00000000000000000000000000000000000000000000000000000000 DUP2 MSTORE PUSH1 0x4 ADD PUSH1 0x40 MLOAD DUP1 SWAP2 SUB SWAP1 REVERT JUMPDEST PUSH4 0xF23A6E61 PUSH1 0xE0 SHL SWAP1 POP SWAP6 SWAP5 POP POP POP POP POP JUMP JUMPDEST PUSH0 PUSH2 0x1ED4 PUSH2 0x1B20 JUMP JUMPDEST PUSH2 0x1EDD DUP4 PUSH2 0x1676 JUMP JUMPDEST PUSH2 0x1EE5 PUSH2 0x1F77 JUMP JUMPDEST PUSH20 0xFFFFFFFFFFFFFFFFFFFFFFFFFFFFFFFFFFFFFFFF AND PUSH4 0x8E539E8C DUP6 PUSH1 0x40 MLOAD DUP3 PUSH4 0xFFFFFFFF AND PUSH1 0xE0 SHL DUP2 MSTORE PUSH1 0x4 ADD PUSH2 0x1F1D SWAP2 SWAP1 PUSH2 0x4935 JUMP JUMPDEST PUSH1 0x20 PUSH1 0x40 MLOAD DUP1 DUP4 SUB DUP2 DUP7 GAS STATICCALL ISZERO DUP1 ISZERO PUSH2 0x1F38 JUMPI RETURNDATASIZE PUSH0 PUSH0 RETURNDATACOPY RETURNDATASIZE PUSH0 REVERT JUMPDEST POP POP POP POP PUSH1 0x40 MLOAD RETURNDATASIZE PUSH1 0x1F NOT PUSH1 0x1F DUP3 ADD AND DUP3 ADD DUP1 PUSH1 0x40 MSTORE POP DUP2 ADD SWAP1 PUSH2 0x1F5C SWAP2 SWAP1 PUSH2 0x6217 JUMP JUMPDEST PUSH2 0x1F66 SWAP2 SWAP1 PUSH2 0x6242 JUMP JUMPDEST PUSH2 0x1F70 SWAP2 SWAP1 PUSH2 0x62B0 JUMP JUMPDEST SWAP1 POP SWAP2 SWAP1 POP JUMP JUMPDEST PUSH0 PUSH32 0x0 SWAP1 POP SWAP1 JUMP JUMPDEST PUSH0 PUSH1 0xB PUSH0 SWAP1 SLOAD SWAP1 PUSH2 0x100 EXP SWAP1 DIV PUSH20 0xFFFFFFFFFFFFFFFFFFFFFFFFFFFFFFFFFFFFFFFF AND SWAP1 POP SWAP1 JUMP JUMPDEST PUSH0 PUSH32 0x1FFC9A700000000000000000000000000000000000000000000000000000000 PUSH28 0xFFFFFFFFFFFFFFFFFFFFFFFFFFFFFFFFFFFFFFFFFFFFFFFFFFFFFFFF NOT AND DUP3 PUSH28 0xFFFFFFFFFFFFFFFFFFFFFFFFFFFFFFFFFFFFFFFFFFFFFFFFFFFFFFFF NOT AND EQ SWAP1 POP SWAP2 SWAP1 POP JUMP JUMPDEST PUSH0 PUSH1 0x8 PUSH1 0x6 SWAP1 SLOAD SWAP1 PUSH2 0x100 EXP SWAP1 DIV PUSH4 0xFFFFFFFF AND PUSH4 0xFFFFFFFF AND SWAP1 POP SWAP1 JUMP JUMPDEST PUSH2 0x2056 PUSH2 0x2699 JUMP JUMPDEST PUSH20 0xFFFFFFFFFFFFFFFFFFFFFFFFFFFFFFFFFFFFFFFF AND PUSH2 0x2074 PUSH2 0xCB7 JUMP JUMPDEST PUSH20 0xFFFFFFFFFFFFFFFFFFFFFFFFFFFFFFFFFFFFFFFF AND EQ PUSH2 0x20D3 JUMPI PUSH2 0x2097 PUSH2 0x2699 JUMP JUMPDEST PUSH1 0x40 MLOAD PUSH32 0x47096E4700000000000000000000000000000000000000000000000000000000 DUP2 MSTORE PUSH1 0x4 ADD PUSH2 0x20CA SWAP2 SWAP1 PUSH2 0x4A72 JUMP JUMPDEST PUSH1 0x40 MLOAD DUP1 SWAP2 SUB SWAP1 REVERT JUMPDEST ADDRESS PUSH20 0xFFFFFFFFFFFFFFFFFFFFFFFFFFFFFFFFFFFFFFFF AND PUSH2 0x20F2 PUSH2 0xCB7 JUMP JUMPDEST PUSH20 0xFFFFFFFFFFFFFFFFFFFFFFFFFFFFFFFFFFFFFFFF AND EQ PUSH2 0x2141 JUMPI PUSH0 PUSH2 0x2116 PUSH2 0x31B1 JUMP JUMPDEST PUSH1 0x40 MLOAD PUSH2 0x2124 SWAP3 SWAP2 SWAP1 PUSH2 0x5DBC JUMP JUMPDEST PUSH1 0x40 MLOAD DUP1 SWAP2 SUB SWAP1 KECCAK256 SWAP1 POP JUMPDEST DUP1 PUSH2 0x213A PUSH1 0x5 PUSH2 0x31BD JUMP JUMPDEST SUB PUSH2 0x212F JUMPI POP JUMPDEST JUMP JUMPDEST PUSH0 PUSH2 0x214C PUSH2 0x1B20 JUMP JUMPDEST SWAP1 POP DUP1 DUP3 GT ISZERO PUSH2 0x2195 JUMPI DUP2 DUP2 PUSH1 0x40 MLOAD PUSH32 0x243E544500000000000000000000000000000000000000000000000000000000 DUP2 MSTORE PUSH1 0x4 ADD PUSH2 0x218C SWAP3 SWAP2 SWAP1 PUSH2 0x62E0 JUMP JUMPDEST PUSH1 0x40 MLOAD DUP1 SWAP2 SUB SWAP1 REVERT JUMPDEST PUSH0 PUSH2 0x219E PUSH2 0x1B3D JUMP JUMPDEST SWAP1 POP PUSH2 0x21C5 PUSH2 0x21AB PUSH2 0x1A95 JUMP JUMPDEST PUSH2 0x21B4 DUP6 PUSH2 0x3312 JUMP JUMPDEST PUSH1 0xA PUSH2 0x337F SWAP1 SWAP3 SWAP2 SWAP1 PUSH4 0xFFFFFFFF AND JUMP JUMPDEST POP POP PUSH32 0x553476BF02EF2726E8CE5CED78D63E26E602E4A2257B1F559418E24B4633997 DUP2 DUP5 PUSH1 0x40 MLOAD PUSH2 0x21F8 SWAP3 SWAP2 SWAP1 PUSH2 0x62E0 JUMP JUMPDEST PUSH1 0x40 MLOAD DUP1 SWAP2 SUB SWAP1 LOG1 POP POP POP JUMP JUMPDEST PUSH0 DUP2 PUSH1 0x7 DUP2 GT ISZERO PUSH2 0x2219 JUMPI PUSH2 0x2218 PUSH2 0x4FFE JUMP JUMPDEST JUMPDEST PUSH1 0xFF AND PUSH1 0x1 SWAP1 SHL PUSH0 SHL SWAP1 POP SWAP2 SWAP1 POP JUMP JUMPDEST PUSH0 PUSH0 PUSH2 0x2234 DUP5 PUSH2 0x124D JUMP JUMPDEST SWAP1 POP PUSH0 PUSH0 SHL DUP4 PUSH2 0x2243 DUP4 PUSH2 0x2205 JUMP JUMPDEST AND SUB PUSH2 0x228A JUMPI DUP4 DUP2 DUP5 PUSH1 0x40 MLOAD PUSH32 0x31B75E4D00000000000000000000000000000000000000000000000000000000 DUP2 MSTORE PUSH1 0x4 ADD PUSH2 0x2281 SWAP4 SWAP3 SWAP2 SWAP1 PUSH2 0x6307 JUMP JUMPDEST PUSH1 0x40 MLOAD DUP1 SWAP2 SUB SWAP1 REVERT JUMPDEST DUP1 SWAP2 POP POP SWAP3 SWAP2 POP POP JUMP JUMPDEST PUSH0 PUSH2 0x22A2 DUP7 DUP7 DUP7 DUP7 DUP7 PUSH2 0x339A JUMP JUMPDEST SWAP1 POP SWAP6 SWAP5 POP POP POP POP POP JUMP JUMPDEST PUSH0 DUP3 PUSH0 ADD PUSH1 0x10 SWAP1 SLOAD SWAP1 PUSH2 0x100 EXP SWAP1 DIV PUSH16 0xFFFFFFFFFFFFFFFFFFFFFFFFFFFFFFFF AND SWAP1 POP DUP3 PUSH0 ADD PUSH0 SWAP1 SLOAD SWAP1 PUSH2 0x100 EXP SWAP1 DIV PUSH16 0xFFFFFFFFFFFFFFFFFFFFFFFFFFFFFFFF AND PUSH16 0xFFFFFFFFFFFFFFFFFFFFFFFFFFFFFFFF AND PUSH1 0x1 DUP3 ADD PUSH16 0xFFFFFFFFFFFFFFFFFFFFFFFFFFFFFFFF AND SUB PUSH2 0x234E JUMPI PUSH1 0x40 MLOAD PUSH32 0x8ACB5F2700000000000000000000000000000000000000000000000000000000 DUP2 MSTORE PUSH1 0x4 ADD PUSH1 0x40 MLOAD DUP1 SWAP2 SUB SWAP1 REVERT JUMPDEST DUP2 DUP4 PUSH1 0x1 ADD PUSH0 DUP4 PUSH16 0xFFFFFFFFFFFFFFFFFFFFFFFFFFFFFFFF AND PUSH16 0xFFFFFFFFFFFFFFFFFFFFFFFFFFFFFFFF AND DUP2 MSTORE PUSH1 0x20 ADD SWAP1 DUP2 MSTORE PUSH1 0x20 ADD PUSH0 KECCAK256 DUP2 SWAP1 SSTORE POP PUSH1 0x1 DUP2 ADD DUP4 PUSH0 ADD PUSH1 0x10 PUSH2 0x100 EXP DUP2 SLOAD DUP2 PUSH16 0xFFFFFFFFFFFFFFFFFFFFFFFFFFFFFFFF MUL NOT AND SWAP1 DUP4 PUSH16 0xFFFFFFFFFFFFFFFFFFFFFFFFFFFFFFFF AND MUL OR SWAP1 SSTORE POP POP POP POP JUMP JUMPDEST PUSH2 0x23D9 DUP6 DUP6 DUP6 DUP6 DUP6 PUSH2 0x35A0 JUMP JUMPDEST POP POP POP POP POP JUMP JUMPDEST PUSH0 DUP2 PUSH0 ADD PUSH0 SWAP1 SLOAD SWAP1 PUSH2 0x100 EXP SWAP1 DIV PUSH16 0xFFFFFFFFFFFFFFFFFFFFFFFFFFFFFFFF AND PUSH16 0xFFFFFFFFFFFFFFFFFFFFFFFFFFFFFFFF AND DUP3 PUSH0 ADD PUSH1 0x10 SWAP1 SLOAD SWAP1 PUSH2 0x100 EXP SWAP1 DIV PUSH16 0xFFFFFFFFFFFFFFFFFFFFFFFFFFFFFFFF AND PUSH16 0xFFFFFFFFFFFFFFFFFFFFFFFFFFFFFFFF AND EQ SWAP1 POP SWAP2 SWAP1 POP JUMP JUMPDEST PUSH0 DUP2 PUSH0 ADD PUSH0 PUSH2 0x100 EXP DUP2 SLOAD DUP2 PUSH16 0xFFFFFFFFFFFFFFFFFFFFFFFFFFFFFFFF MUL NOT AND SWAP1 DUP4 PUSH16 0xFFFFFFFFFFFFFFFFFFFFFFFFFFFFFFFF AND MUL OR SWAP1 SSTORE POP PUSH0 DUP2 PUSH0 ADD PUSH1 0x10 PUSH2 0x100 EXP DUP2 SLOAD DUP2 PUSH16 0xFFFFFFFFFFFFFFFFFFFFFFFFFFFFFFFF MUL NOT AND SWAP1 DUP4 PUSH16 0xFFFFFFFFFFFFFFFFFFFFFFFFFFFFFFFF AND MUL OR SWAP1 SSTORE POP POP JUMP JUMPDEST PUSH0 PUSH1 0x8 PUSH0 SWAP1 SLOAD SWAP1 PUSH2 0x100 EXP SWAP1 DIV PUSH6 0xFFFFFFFFFFFF AND PUSH6 0xFFFFFFFFFFFF AND SWAP1 POP SWAP1 JUMP JUMPDEST PUSH0 PUSH0 PUSH2 0x24EF DUP4 PUSH2 0x3654 JUMP JUMPDEST SWAP1 POP PUSH1 0x5 PUSH1 0x7 DUP2 GT ISZERO PUSH2 0x2505 JUMPI PUSH2 0x2504 PUSH2 0x4FFE JUMP JUMPDEST JUMPDEST DUP2 PUSH1 0x7 DUP2 GT ISZERO PUSH2 0x2518 JUMPI PUSH2 0x2517 PUSH2 0x4FFE JUMP JUMPDEST JUMPDEST EQ PUSH2 0x2526 JUMPI DUP1 SWAP2 POP POP PUSH2 0x2694 JUMP JUMPDEST PUSH0 PUSH1 0xC PUSH0 DUP6 DUP2 MSTORE PUSH1 0x20 ADD SWAP1 DUP2 MSTORE PUSH1 0x20 ADD PUSH0 KECCAK256 SLOAD SWAP1 POP PUSH1 0xB PUSH0 SWAP1 SLOAD SWAP1 PUSH2 0x100 EXP SWAP1 DIV PUSH20 0xFFFFFFFFFFFFFFFFFFFFFFFFFFFFFFFFFFFFFFFF AND PUSH20 0xFFFFFFFFFFFFFFFFFFFFFFFFFFFFFFFFFFFFFFFF AND PUSH4 0x584B153E DUP3 PUSH1 0x40 MLOAD DUP3 PUSH4 0xFFFFFFFF AND PUSH1 0xE0 SHL DUP2 MSTORE PUSH1 0x4 ADD PUSH2 0x2595 SWAP2 SWAP1 PUSH2 0x4FE5 JUMP JUMPDEST PUSH1 0x20 PUSH1 0x40 MLOAD DUP1 DUP4 SUB DUP2 DUP7 GAS STATICCALL ISZERO DUP1 ISZERO PUSH2 0x25B0 JUMPI RETURNDATASIZE PUSH0 PUSH0 RETURNDATACOPY RETURNDATASIZE PUSH0 REVERT JUMPDEST POP POP POP POP PUSH1 0x40 MLOAD RETURNDATASIZE PUSH1 0x1F NOT PUSH1 0x1F DUP3 ADD AND DUP3 ADD DUP1 PUSH1 0x40 MSTORE POP DUP2 ADD SWAP1 PUSH2 0x25D4 SWAP2 SWAP1 PUSH2 0x6366 JUMP JUMPDEST ISZERO PUSH2 0x25E4 JUMPI PUSH1 0x5 SWAP3 POP POP POP PUSH2 0x2694 JUMP JUMPDEST PUSH1 0xB PUSH0 SWAP1 SLOAD SWAP1 PUSH2 0x100 EXP SWAP1 DIV PUSH20 0xFFFFFFFFFFFFFFFFFFFFFFFFFFFFFFFFFFFFFFFF AND PUSH20 0xFFFFFFFFFFFFFFFFFFFFFFFFFFFFFFFFFFFFFFFF AND PUSH4 0x2AB0F529 DUP3 PUSH1 0x40 MLOAD DUP3 PUSH4 0xFFFFFFFF AND PUSH1 0xE0 SHL DUP2 MSTORE PUSH1 0x4 ADD PUSH2 0x263E SWAP2 SWAP1 PUSH2 0x4FE5 JUMP JUMPDEST PUSH1 0x20 PUSH1 0x40 MLOAD DUP1 DUP4 SUB DUP2 DUP7 GAS STATICCALL ISZERO DUP1 ISZERO PUSH2 0x2659 JUMPI RETURNDATASIZE PUSH0 PUSH0 RETURNDATACOPY RETURNDATASIZE PUSH0 REVERT JUMPDEST POP POP POP POP PUSH1 0x40 MLOAD RETURNDATASIZE PUSH1 0x1F NOT PUSH1 0x1F DUP3 ADD AND DUP3 ADD DUP1 PUSH1 0x40 MSTORE POP DUP2 ADD SWAP1 PUSH2 0x267D SWAP2 SWAP1 PUSH2 0x6366 JUMP JUMPDEST ISZERO PUSH2 0x268D JUMPI PUSH1 0x7 SWAP3 POP POP POP PUSH2 0x2694 JUMP JUMPDEST PUSH1 0x2 SWAP3 POP POP POP JUMPDEST SWAP2 SWAP1 POP JUMP JUMPDEST PUSH0 CALLER SWAP1 POP SWAP1 JUMP JUMPDEST PUSH0 PUSH2 0x26AD DUP6 DUP6 DUP6 DUP6 PUSH2 0x37AB JUMP JUMPDEST SWAP1 POP SWAP5 SWAP4 POP POP POP POP JUMP JUMPDEST PUSH0 PUSH2 0x26CC DUP6 DUP6 DUP6 DUP6 PUSH2 0x26C7 PUSH2 0x3156 JUMP JUMPDEST PUSH2 0x27CF JUMP JUMPDEST SWAP1 POP SWAP5 SWAP4 POP POP POP POP JUMP JUMPDEST PUSH0 PUSH1 0x2 PUSH0 DUP4 PUSH20 0xFFFFFFFFFFFFFFFFFFFFFFFFFFFFFFFFFFFFFFFF AND PUSH20 0xFFFFFFFFFFFFFFFFFFFFFFFFFFFFFFFFFFFFFFFF AND DUP2 MSTORE PUSH1 0x20 ADD SWAP1 DUP2 MSTORE PUSH1 0x20 ADD PUSH0 KECCAK256 PUSH0 DUP2 SLOAD DUP1 SWAP3 SWAP2 SWAP1 PUSH1 0x1 ADD SWAP2 SWAP1 POP SSTORE SWAP1 POP SWAP2 SWAP1 POP JUMP JUMPDEST PUSH0 PUSH2 0x273B PUSH2 0x2735 PUSH2 0x3882 JUMP JUMPDEST DUP4 PUSH2 0x3938 JUMP JUMPDEST SWAP1 POP SWAP2 SWAP1 POP JUMP JUMPDEST PUSH0 PUSH0 PUSH0 PUSH2 0x274F DUP6 DUP6 PUSH2 0x3978 JUMP JUMPDEST POP SWAP2 POP SWAP2 POP PUSH0 PUSH1 0x3 DUP2 GT ISZERO PUSH2 0x2767 JUMPI PUSH2 0x2766 PUSH2 0x4FFE JUMP JUMPDEST JUMPDEST DUP2 PUSH1 0x3 DUP2 GT ISZERO PUSH2 0x277A JUMPI PUSH2 0x2779 PUSH2 0x4FFE JUMP JUMPDEST JUMPDEST EQ DUP1 ISZERO PUSH2 0x27B2 JUMPI POP DUP6 PUSH20 0xFFFFFFFFFFFFFFFFFFFFFFFFFFFFFFFFFFFFFFFF AND DUP3 PUSH20 0xFFFFFFFFFFFFFFFFFFFFFFFFFFFFFFFFFFFFFFFF AND EQ JUMPDEST DUP1 PUSH2 0x27C4 JUMPI POP PUSH2 0x27C3 DUP7 DUP7 DUP7 PUSH2 0x39CD JUMP JUMPDEST JUMPDEST SWAP3 POP POP POP SWAP4 SWAP3 POP POP POP JUMP JUMPDEST PUSH0 PUSH2 0x27E3 DUP7 PUSH2 0x27DE PUSH1 0x1 PUSH2 0x2205 JUMP JUMPDEST PUSH2 0x2229 JUMP JUMPDEST POP PUSH0 PUSH2 0x27F8 DUP7 PUSH2 0x27F2 DUP10 PUSH2 0x11E5 JUMP JUMPDEST DUP6 PUSH2 0x2EDC JUMP JUMPDEST SWAP1 POP PUSH2 0x2807 DUP8 DUP8 DUP8 DUP5 DUP8 PUSH2 0x3AEC JUMP JUMPDEST PUSH0 DUP4 MLOAD SUB PUSH2 0x2868 JUMPI DUP6 PUSH20 0xFFFFFFFFFFFFFFFFFFFFFFFFFFFFFFFFFFFFFFFF AND PUSH32 0xB8E138887D0AA13BAB447E82DE9D5C1777041ECD21CA36BA824FF1E6C07DDDA4 DUP9 DUP8 DUP5 DUP9 PUSH1 0x40 MLOAD PUSH2 0x285B SWAP5 SWAP4 SWAP3 SWAP2 SWAP1 PUSH2 0x6391 JUMP JUMPDEST PUSH1 0x40 MLOAD DUP1 SWAP2 SUB SWAP1 LOG2 PUSH2 0x28BF JUMP JUMPDEST DUP6 PUSH20 0xFFFFFFFFFFFFFFFFFFFFFFFFFFFFFFFFFFFFFFFF AND PUSH32 0xE2BABFBAC5889A709B63BB7F598B324E08BC5A4FB9EC647FB3CBC9EC07EB8712 DUP9 DUP8 DUP5 DUP9 DUP9 PUSH1 0x40 MLOAD PUSH2 0x28B6 SWAP6 SWAP5 SWAP4 SWAP3 SWAP2 SWAP1 PUSH2 0x6423 JUMP JUMPDEST PUSH1 0x40 MLOAD DUP1 SWAP2 SUB SWAP1 LOG2 JUMPDEST DUP1 SWAP2 POP POP SWAP6 SWAP5 POP POP POP POP POP JUMP JUMPDEST PUSH0 PUSH6 0xFFFFFFFFFFFF DUP1 AND DUP3 GT ISZERO PUSH2 0x291D JUMPI PUSH1 0x30 DUP3 PUSH1 0x40 MLOAD PUSH32 0x6DFCC65000000000000000000000000000000000000000000000000000000000 DUP2 MSTORE PUSH1 0x4 ADD PUSH2 0x2914 SWAP3 SWAP2 SWAP1 PUSH2 0x64BB JUMP JUMPDEST PUSH1 0x40 MLOAD DUP1 SWAP2 SUB SWAP1 REVERT JUMPDEST DUP2 SWAP1 POP SWAP2 SWAP1 POP JUMP JUMPDEST PUSH0 PUSH0 DUP4 PUSH0 ADD DUP1 SLOAD SWAP1 POP SWAP1 POP PUSH0 PUSH0 SWAP1 POP PUSH0 DUP3 SWAP1 POP PUSH1 0x5 DUP4 GT ISZERO PUSH2 0x29A9 JUMPI PUSH0 PUSH2 0x294B DUP5 PUSH2 0x3CDB JUMP JUMPDEST DUP5 PUSH2 0x2956 SWAP2 SWAP1 PUSH2 0x5E7D JUMP JUMPDEST SWAP1 POP PUSH2 0x2964 DUP8 PUSH0 ADD DUP3 PUSH2 0x3DD1 JUMP JUMPDEST PUSH0 ADD PUSH0 SWAP1 SLOAD SWAP1 PUSH2 0x100 EXP SWAP1 DIV PUSH6 0xFFFFFFFFFFFF AND PUSH6 0xFFFFFFFFFFFF AND DUP7 PUSH6 0xFFFFFFFFFFFF AND LT ISZERO PUSH2 0x2997 JUMPI DUP1 SWAP2 POP PUSH2 0x29A7 JUMP JUMPDEST PUSH1 0x1 DUP2 PUSH2 0x29A4 SWAP2 SWAP1 PUSH2 0x64E2 JUMP JUMPDEST SWAP3 POP JUMPDEST POP JUMPDEST PUSH0 PUSH2 0x29B8 DUP8 PUSH0 ADD DUP8 DUP6 DUP6 PUSH2 0x3DE3 JUMP JUMPDEST SWAP1 POP PUSH0 DUP2 EQ PUSH2 0x2A07 JUMPI PUSH2 0x29D9 DUP8 PUSH0 ADD PUSH1 0x1 DUP4 PUSH2 0x29D4 SWAP2 SWAP1 PUSH2 0x5E7D JUMP JUMPDEST PUSH2 0x3DD1 JUMP JUMPDEST PUSH0 ADD PUSH1 0x6 SWAP1 SLOAD SWAP1 PUSH2 0x100 EXP SWAP1 DIV PUSH26 0xFFFFFFFFFFFFFFFFFFFFFFFFFFFFFFFFFFFFFFFFFFFFFFFFFFFF AND PUSH2 0x2A09 JUMP JUMPDEST PUSH0 JUMPDEST SWAP5 POP POP POP POP POP SWAP3 SWAP2 POP POP JUMP JUMPDEST PUSH32 0xC565B045403DC03C2EEA82B81A0465EDAD9E2E7FC4D97E11421C209DA93D7A93 PUSH1 0x8 PUSH0 SWAP1 SLOAD SWAP1 PUSH2 0x100 EXP SWAP1 DIV PUSH6 0xFFFFFFFFFFFF AND DUP3 PUSH1 0x40 MLOAD PUSH2 0x2A59 SWAP3 SWAP2 SWAP1 PUSH2 0x6515 JUMP JUMPDEST PUSH1 0x40 MLOAD DUP1 SWAP2 SUB SWAP1 LOG1 DUP1 PUSH1 0x8 PUSH0 PUSH2 0x100 EXP DUP2 SLOAD DUP2 PUSH6 0xFFFFFFFFFFFF MUL NOT AND SWAP1 DUP4 PUSH6 0xFFFFFFFFFFFF AND MUL OR SWAP1 SSTORE POP POP JUMP JUMPDEST PUSH0 PUSH0 DUP3 MLOAD SWAP1 POP PUSH1 0x34 DUP2 LT ISZERO PUSH2 0x2AA1 JUMPI PUSH1 0x1 SWAP2 POP POP PUSH2 0x2BCD JUMP JUMPDEST PUSH0 PUSH1 0x14 DUP3 SUB DUP5 ADD MLOAD SWAP1 POP PUSH32 0x2370726F706F7365723D30780000000000000000000000000000000000000000 PUSH20 0xFFFFFFFFFFFFFFFFFFFFFFFFFFFFFFFFFFFFFFFF NOT AND DUP2 PUSH20 0xFFFFFFFFFFFFFFFFFFFFFFFFFFFFFFFFFFFFFFFF NOT AND EQ PUSH2 0x2B0B JUMPI PUSH1 0x1 SWAP3 POP POP POP PUSH2 0x2BCD JUMP JUMPDEST PUSH0 PUSH0 SWAP1 POP PUSH0 PUSH1 0x28 DUP5 PUSH2 0x2B1D SWAP2 SWAP1 PUSH2 0x5E7D JUMP JUMPDEST SWAP1 POP JUMPDEST DUP4 DUP2 LT ISZERO PUSH2 0x2B97 JUMPI PUSH0 PUSH0 PUSH2 0x2B50 DUP9 DUP5 DUP2 MLOAD DUP2 LT PUSH2 0x2B40 JUMPI PUSH2 0x2B3F PUSH2 0x5CAC JUMP JUMPDEST JUMPDEST PUSH1 0x20 ADD ADD MLOAD PUSH1 0xF8 SHR PUSH1 0xF8 SHL PUSH2 0x3E58 JUMP JUMPDEST SWAP2 POP SWAP2 POP DUP2 PUSH2 0x2B68 JUMPI PUSH1 0x1 SWAP7 POP POP POP POP POP POP POP PUSH2 0x2BCD JUMP JUMPDEST DUP1 PUSH1 0xFF AND PUSH1 0x4 DUP6 PUSH20 0xFFFFFFFFFFFFFFFFFFFFFFFFFFFFFFFFFFFFFFFF AND SWAP1 SHL OR SWAP4 POP POP POP DUP1 PUSH1 0x1 ADD SWAP1 POP PUSH2 0x2B20 JUMP JUMPDEST POP DUP6 PUSH20 0xFFFFFFFFFFFFFFFFFFFFFFFFFFFFFFFFFFFFFFFF AND DUP2 PUSH20 0xFFFFFFFFFFFFFFFFFFFFFFFFFFFFFFFFFFFFFFFF AND EQ SWAP4 POP POP POP POP JUMPDEST SWAP3 SWAP2 POP POP JUMP JUMPDEST PUSH0 PUSH2 0x2BE7 DUP7 DUP7 DUP7 DUP7 DUP1 MLOAD SWAP1 PUSH1 0x20 ADD KECCAK256 PUSH2 0x1D45 JUMP JUMPDEST SWAP1 POP DUP5 MLOAD DUP7 MLOAD EQ ISZERO DUP1 PUSH2 0x2BFC JUMPI POP DUP4 MLOAD DUP7 MLOAD EQ ISZERO JUMPDEST DUP1 PUSH2 0x2C07 JUMPI POP PUSH0 DUP7 MLOAD EQ JUMPDEST ISZERO PUSH2 0x2C50 JUMPI DUP6 MLOAD DUP5 MLOAD DUP7 MLOAD PUSH1 0x40 MLOAD PUSH32 0x447B05D000000000000000000000000000000000000000000000000000000000 DUP2 MSTORE PUSH1 0x4 ADD PUSH2 0x2C47 SWAP4 SWAP3 SWAP2 SWAP1 PUSH2 0x50C8 JUMP JUMPDEST PUSH1 0x40 MLOAD DUP1 SWAP2 SUB SWAP1 REVERT JUMPDEST PUSH0 PUSH1 0x4 PUSH0 DUP4 DUP2 MSTORE PUSH1 0x20 ADD SWAP1 DUP2 MSTORE PUSH1 0x20 ADD PUSH0 KECCAK256 PUSH0 ADD PUSH1 0x14 SWAP1 SLOAD SWAP1 PUSH2 0x100 EXP SWAP1 DIV PUSH6 0xFFFFFFFFFFFF AND PUSH6 0xFFFFFFFFFFFF AND EQ PUSH2 0x2CCF JUMPI DUP1 PUSH2 0x2C8E DUP3 PUSH2 0x124D JUMP JUMPDEST PUSH0 PUSH0 SHL PUSH1 0x40 MLOAD PUSH32 0x31B75E4D00000000000000000000000000000000000000000000000000000000 DUP2 MSTORE PUSH1 0x4 ADD PUSH2 0x2CC6 SWAP4 SWAP3 SWAP2 SWAP1 PUSH2 0x6307 JUMP JUMPDEST PUSH1 0x40 MLOAD DUP1 SWAP2 SUB SWAP1 REVERT JUMPDEST PUSH0 PUSH2 0x2CD8 PUSH2 0x123F JUMP JUMPDEST PUSH2 0x2CE0 PUSH2 0x1A95 JUMP JUMPDEST PUSH6 0xFFFFFFFFFFFF AND PUSH2 0x2CF2 SWAP2 SWAP1 PUSH2 0x64E2 JUMP JUMPDEST SWAP1 POP PUSH0 PUSH2 0x2CFD PUSH2 0xDA6 JUMP JUMPDEST SWAP1 POP PUSH0 PUSH1 0x4 PUSH0 DUP6 DUP2 MSTORE PUSH1 0x20 ADD SWAP1 DUP2 MSTORE PUSH1 0x20 ADD PUSH0 KECCAK256 SWAP1 POP DUP5 DUP2 PUSH0 ADD PUSH0 PUSH2 0x100 EXP DUP2 SLOAD DUP2 PUSH20 0xFFFFFFFFFFFFFFFFFFFFFFFFFFFFFFFFFFFFFFFF MUL NOT AND SWAP1 DUP4 PUSH20 0xFFFFFFFFFFFFFFFFFFFFFFFFFFFFFFFFFFFFFFFF AND MUL OR SWAP1 SSTORE POP PUSH2 0x2D5D DUP4 PUSH2 0x28CC JUMP JUMPDEST DUP2 PUSH0 ADD PUSH1 0x14 PUSH2 0x100 EXP DUP2 SLOAD DUP2 PUSH6 0xFFFFFFFFFFFF MUL NOT AND SWAP1 DUP4 PUSH6 0xFFFFFFFFFFFF AND MUL OR SWAP1 SSTORE POP PUSH2 0x2D8B DUP3 PUSH2 0x3EEF JUMP JUMPDEST DUP2 PUSH0 ADD PUSH1 0x1A PUSH2 0x100 EXP DUP2 SLOAD DUP2 PUSH4 0xFFFFFFFF MUL NOT AND SWAP1 DUP4 PUSH4 0xFFFFFFFF AND MUL OR SWAP1 SSTORE POP PUSH32 0x7D84A6263AE0D98D3329BD7B46BB4E8D6F98CD35A7ADB45C274C8B7FD5EBD5E0 DUP5 DUP7 DUP12 DUP12 DUP14 MLOAD PUSH8 0xFFFFFFFFFFFFFFFF DUP2 GT ISZERO PUSH2 0x2DEC JUMPI PUSH2 0x2DEB PUSH2 0x4ABD JUMP JUMPDEST JUMPDEST PUSH1 0x40 MLOAD SWAP1 DUP1 DUP3 MSTORE DUP1 PUSH1 0x20 MUL PUSH1 0x20 ADD DUP3 ADD PUSH1 0x40 MSTORE DUP1 ISZERO PUSH2 0x2E1F JUMPI DUP2 PUSH1 0x20 ADD JUMPDEST PUSH1 0x60 DUP2 MSTORE PUSH1 0x20 ADD SWAP1 PUSH1 0x1 SWAP1 SUB SWAP1 DUP2 PUSH2 0x2E0A JUMPI SWAP1 POP JUMPDEST POP DUP13 DUP10 DUP10 DUP12 PUSH2 0x2E2E SWAP2 SWAP1 PUSH2 0x64E2 JUMP JUMPDEST DUP15 PUSH1 0x40 MLOAD PUSH2 0x2E44 SWAP10 SWAP9 SWAP8 SWAP7 SWAP6 SWAP5 SWAP4 SWAP3 SWAP2 SWAP1 PUSH2 0x663F JUMP JUMPDEST PUSH1 0x40 MLOAD DUP1 SWAP2 SUB SWAP1 LOG1 POP POP POP SWAP6 SWAP5 POP POP POP POP POP JUMP JUMPDEST PUSH1 0x60 PUSH2 0x2E8D PUSH0 PUSH32 0x0 PUSH2 0x3F46 SWAP1 SWAP2 SWAP1 PUSH4 0xFFFFFFFF AND JUMP JUMPDEST SWAP1 POP SWAP1 JUMP JUMPDEST PUSH1 0x60 PUSH2 0x2EC8 PUSH1 0x1 PUSH32 0x0 PUSH2 0x3F46 SWAP1 SWAP2 SWAP1 PUSH4 0xFFFFFFFF AND JUMP JUMPDEST SWAP1 POP SWAP1 JUMP JUMPDEST PUSH0 PUSH2 0x2ED7 NUMBER PUSH2 0x28CC JUMP JUMPDEST SWAP1 POP SWAP1 JUMP JUMPDEST PUSH0 PUSH2 0x2EE5 PUSH2 0x1F77 JUMP JUMPDEST PUSH20 0xFFFFFFFFFFFFFFFFFFFFFFFFFFFFFFFFFFFFFFFF AND PUSH4 0x3A46B1A8 DUP6 DUP6 PUSH1 0x40 MLOAD DUP4 PUSH4 0xFFFFFFFF AND PUSH1 0xE0 SHL DUP2 MSTORE PUSH1 0x4 ADD PUSH2 0x2F1F SWAP3 SWAP2 SWAP1 PUSH2 0x66ED JUMP JUMPDEST PUSH1 0x20 PUSH1 0x40 MLOAD DUP1 DUP4 SUB DUP2 DUP7 GAS STATICCALL ISZERO DUP1 ISZERO PUSH2 0x2F3A JUMPI RETURNDATASIZE PUSH0 PUSH0 RETURNDATACOPY RETURNDATASIZE PUSH0 REVERT JUMPDEST POP POP POP POP PUSH1 0x40 MLOAD RETURNDATASIZE PUSH1 0x1F NOT PUSH1 0x1F DUP3 ADD AND DUP3 ADD DUP1 PUSH1 0x40 MSTORE POP DUP2 ADD SWAP1 PUSH2 0x2F5E SWAP2 SWAP1 PUSH2 0x6217 JUMP JUMPDEST SWAP1 POP SWAP4 SWAP3 POP POP POP JUMP JUMPDEST PUSH0 PUSH0 DUP3 PUSH0 ADD DUP1 SLOAD SWAP1 POP SWAP1 POP PUSH0 DUP2 EQ PUSH2 0x2FBF JUMPI PUSH2 0x2F91 DUP4 PUSH0 ADD PUSH1 0x1 DUP4 PUSH2 0x2F8C SWAP2 SWAP1 PUSH2 0x5E7D JUMP JUMPDEST PUSH2 0x3DD1 JUMP JUMPDEST PUSH0 ADD PUSH1 0x6 SWAP1 SLOAD SWAP1 PUSH2 0x100 EXP SWAP1 DIV PUSH26 0xFFFFFFFFFFFFFFFFFFFFFFFFFFFFFFFFFFFFFFFFFFFFFFFFFFFF AND PUSH2 0x2FC1 JUMP JUMPDEST PUSH0 JUMPDEST SWAP2 POP POP SWAP2 SWAP1 POP JUMP JUMPDEST PUSH32 0x8F74EA46EF7894F65EABFB5E6E695DE773A000B47C529AB559178069B226401 PUSH1 0xB PUSH0 SWAP1 SLOAD SWAP1 PUSH2 0x100 EXP SWAP1 DIV PUSH20 0xFFFFFFFFFFFFFFFFFFFFFFFFFFFFFFFFFFFFFFFF AND DUP3 PUSH1 0x40 MLOAD PUSH2 0x301B SWAP3 SWAP2 SWAP1 PUSH2 0x6714 JUMP JUMPDEST PUSH1 0x40 MLOAD DUP1 SWAP2 SUB SWAP1 LOG1 DUP1 PUSH1 0xB PUSH0 PUSH2 0x100 EXP DUP2 SLOAD DUP2 PUSH20 0xFFFFFFFFFFFFFFFFFFFFFFFFFFFFFFFFFFFFFFFF MUL NOT AND SWAP1 DUP4 PUSH20 0xFFFFFFFFFFFFFFFFFFFFFFFFFFFFFFFFFFFFFFFF AND MUL OR SWAP1 SSTORE POP POP JUMP JUMPDEST PUSH0 PUSH1 0x1 SWAP1 POP SWAP2 SWAP1 POP JUMP JUMPDEST PUSH0 PUSH1 0x7 SLOAD SWAP1 POP SWAP1 JUMP JUMPDEST PUSH1 0x60 DUP3 PUSH2 0x308E JUMPI PUSH2 0x3089 DUP3 PUSH2 0x3FF3 JUMP JUMPDEST PUSH2 0x3096 JUMP JUMPDEST DUP2 SWAP1 POP PUSH2 0x3097 JUMP JUMPDEST JUMPDEST SWAP3 SWAP2 POP POP JUMP JUMPDEST PUSH0 DUP2 PUSH4 0xFFFFFFFF AND SUB PUSH2 0x30E7 JUMPI PUSH0 PUSH1 0x40 MLOAD PUSH32 0xF1CFBF0500000000000000000000000000000000000000000000000000000000 DUP2 MSTORE PUSH1 0x4 ADD PUSH2 0x30DE SWAP2 SWAP1 PUSH2 0x6774 JUMP JUMPDEST PUSH1 0x40 MLOAD DUP1 SWAP2 SUB SWAP1 REVERT JUMPDEST PUSH32 0x7E3F7F0708A84DE9203036ABAA450DCCC85AD5FF52F78C170F3EDB55CF5E8828 PUSH1 0x8 PUSH1 0x6 SWAP1 SLOAD SWAP1 PUSH2 0x100 EXP SWAP1 DIV PUSH4 0xFFFFFFFF AND DUP3 PUSH1 0x40 MLOAD PUSH2 0x312A SWAP3 SWAP2 SWAP1 PUSH2 0x67BD JUMP JUMPDEST PUSH1 0x40 MLOAD DUP1 SWAP2 SUB SWAP1 LOG1 DUP1 PUSH1 0x8 PUSH1 0x6 PUSH2 0x100 EXP DUP2 SLOAD DUP2 PUSH4 0xFFFFFFFF MUL NOT AND SWAP1 DUP4 PUSH4 0xFFFFFFFF AND MUL OR SWAP1 SSTORE POP POP JUMP JUMPDEST PUSH1 0x60 PUSH1 0x40 MLOAD DUP1 PUSH1 0x20 ADD PUSH1 0x40 MSTORE DUP1 PUSH0 DUP2 MSTORE POP SWAP1 POP SWAP1 JUMP JUMPDEST PUSH32 0xCCB45DA8D5717E6C4544694297C4BA5CF151D455C9BB0ED4FC7A38411BC05461 PUSH1 0x7 SLOAD DUP3 PUSH1 0x40 MLOAD PUSH2 0x319F SWAP3 SWAP2 SWAP1 PUSH2 0x62E0 JUMP JUMPDEST PUSH1 0x40 MLOAD DUP1 SWAP2 SUB SWAP1 LOG1 DUP1 PUSH1 0x7 DUP2 SWAP1 SSTORE POP POP JUMP JUMPDEST CALLDATASIZE PUSH0 PUSH0 CALLDATASIZE SWAP2 POP SWAP2 POP SWAP1 SWAP2 JUMP JUMPDEST PUSH0 PUSH0 DUP3 PUSH0 ADD PUSH0 SWAP1 SLOAD SWAP1 PUSH2 0x100 EXP SWAP1 DIV PUSH16 0xFFFFFFFFFFFFFFFFFFFFFFFFFFFFFFFF AND SWAP1 POP DUP3 PUSH0 ADD PUSH1 0x10 SWAP1 SLOAD SWAP1 PUSH2 0x100 EXP SWAP1 DIV PUSH16 0xFFFFFFFFFFFFFFFFFFFFFFFFFFFFFFFF AND PUSH16 0xFFFFFFFFFFFFFFFFFFFFFFFFFFFFFFFF AND DUP2 PUSH16 0xFFFFFFFFFFFFFFFFFFFFFFFFFFFFFFFF AND SUB PUSH2 0x325C JUMPI PUSH1 0x40 MLOAD PUSH32 0x75E52F4F00000000000000000000000000000000000000000000000000000000 DUP2 MSTORE PUSH1 0x4 ADD PUSH1 0x40 MLOAD DUP1 SWAP2 SUB SWAP1 REVERT JUMPDEST DUP3 PUSH1 0x1 ADD PUSH0 DUP3 PUSH16 0xFFFFFFFFFFFFFFFFFFFFFFFFFFFFFFFF AND PUSH16 0xFFFFFFFFFFFFFFFFFFFFFFFFFFFFFFFF AND DUP2 MSTORE PUSH1 0x20 ADD SWAP1 DUP2 MSTORE PUSH1 0x20 ADD PUSH0 KECCAK256 SLOAD SWAP2 POP DUP3 PUSH1 0x1 ADD PUSH0 DUP3 PUSH16 0xFFFFFFFFFFFFFFFFFFFFFFFFFFFFFFFF AND PUSH16 0xFFFFFFFFFFFFFFFFFFFFFFFFFFFFFFFF AND DUP2 MSTORE PUSH1 0x20 ADD SWAP1 DUP2 MSTORE PUSH1 0x20 ADD PUSH0 KECCAK256 PUSH0 SWAP1 SSTORE PUSH1 0x1 DUP2 ADD DUP4 PUSH0 ADD PUSH0 PUSH2 0x100 EXP DUP2 SLOAD DUP2 PUSH16 0xFFFFFFFFFFFFFFFFFFFFFFFFFFFFFFFF MUL NOT AND SWAP1 DUP4 PUSH16 0xFFFFFFFFFFFFFFFFFFFFFFFFFFFFFFFF AND MUL OR SWAP1 SSTORE POP POP SWAP2 SWAP1 POP JUMP JUMPDEST PUSH0 PUSH26 0xFFFFFFFFFFFFFFFFFFFFFFFFFFFFFFFFFFFFFFFFFFFFFFFFFFFF DUP1 AND DUP3 GT ISZERO PUSH2 0x3377 JUMPI PUSH1 0xD0 DUP3 PUSH1 0x40 MLOAD PUSH32 0x6DFCC65000000000000000000000000000000000000000000000000000000000 DUP2 MSTORE PUSH1 0x4 ADD PUSH2 0x336E SWAP3 SWAP2 SWAP1 PUSH2 0x681D JUMP JUMPDEST PUSH1 0x40 MLOAD DUP1 SWAP2 SUB SWAP1 REVERT JUMPDEST DUP2 SWAP1 POP SWAP2 SWAP1 POP JUMP JUMPDEST PUSH0 PUSH0 PUSH2 0x338E DUP6 PUSH0 ADD DUP6 DUP6 PUSH2 0x4037 JUMP JUMPDEST SWAP2 POP SWAP2 POP SWAP4 POP SWAP4 SWAP2 POP POP JUMP JUMPDEST PUSH0 PUSH0 PUSH1 0xB PUSH0 SWAP1 SLOAD SWAP1 PUSH2 0x100 EXP SWAP1 DIV PUSH20 0xFFFFFFFFFFFFFFFFFFFFFFFFFFFFFFFFFFFFFFFF AND PUSH20 0xFFFFFFFFFFFFFFFFFFFFFFFFFFFFFFFFFFFFFFFF AND PUSH4 0xF27A0C92 PUSH1 0x40 MLOAD DUP2 PUSH4 0xFFFFFFFF AND PUSH1 0xE0 SHL DUP2 MSTORE PUSH1 0x4 ADD PUSH1 0x20 PUSH1 0x40 MLOAD DUP1 DUP4 SUB DUP2 DUP7 GAS STATICCALL ISZERO DUP1 ISZERO PUSH2 0x3406 JUMPI RETURNDATASIZE PUSH0 PUSH0 RETURNDATACOPY RETURNDATASIZE PUSH0 REVERT JUMPDEST POP POP POP POP PUSH1 0x40 MLOAD RETURNDATASIZE PUSH1 0x1F NOT PUSH1 0x1F DUP3 ADD AND DUP3 ADD DUP1 PUSH1 0x40 MSTORE POP DUP2 ADD SWAP1 PUSH2 0x342A SWAP2 SWAP1 PUSH2 0x6217 JUMP JUMPDEST SWAP1 POP PUSH0 PUSH2 0x3436 DUP5 PUSH2 0x439F JUMP JUMPDEST SWAP1 POP PUSH1 0xB PUSH0 SWAP1 SLOAD SWAP1 PUSH2 0x100 EXP SWAP1 DIV PUSH20 0xFFFFFFFFFFFFFFFFFFFFFFFFFFFFFFFFFFFFFFFF AND PUSH20 0xFFFFFFFFFFFFFFFFFFFFFFFFFFFFFFFFFFFFFFFF AND PUSH4 0xB1C5F427 DUP9 DUP9 DUP9 PUSH0 DUP7 PUSH1 0x40 MLOAD DUP7 PUSH4 0xFFFFFFFF AND PUSH1 0xE0 SHL DUP2 MSTORE PUSH1 0x4 ADD PUSH2 0x349A SWAP6 SWAP5 SWAP4 SWAP3 SWAP2 SWAP1 PUSH2 0x687F JUMP JUMPDEST PUSH1 0x20 PUSH1 0x40 MLOAD DUP1 DUP4 SUB DUP2 DUP7 GAS STATICCALL ISZERO DUP1 ISZERO PUSH2 0x34B5 JUMPI RETURNDATASIZE PUSH0 PUSH0 RETURNDATACOPY RETURNDATASIZE PUSH0 REVERT JUMPDEST POP POP POP POP PUSH1 0x40 MLOAD RETURNDATASIZE PUSH1 0x1F NOT PUSH1 0x1F DUP3 ADD AND DUP3 ADD DUP1 PUSH1 0x40 MSTORE POP DUP2 ADD SWAP1 PUSH2 0x34D9 SWAP2 SWAP1 PUSH2 0x68F9 JUMP JUMPDEST PUSH1 0xC PUSH0 DUP11 DUP2 MSTORE PUSH1 0x20 ADD SWAP1 DUP2 MSTORE PUSH1 0x20 ADD PUSH0 KECCAK256 DUP2 SWAP1 SSTORE POP PUSH1 0xB PUSH0 SWAP1 SLOAD SWAP1 PUSH2 0x100 EXP SWAP1 DIV PUSH20 0xFFFFFFFFFFFFFFFFFFFFFFFFFFFFFFFFFFFFFFFF AND PUSH20 0xFFFFFFFFFFFFFFFFFFFFFFFFFFFFFFFFFFFFFFFF AND PUSH4 0x8F2A0BB0 DUP9 DUP9 DUP9 PUSH0 DUP7 DUP9 PUSH1 0x40 MLOAD DUP8 PUSH4 0xFFFFFFFF AND PUSH1 0xE0 SHL DUP2 MSTORE PUSH1 0x4 ADD PUSH2 0x3552 SWAP7 SWAP6 SWAP5 SWAP4 SWAP3 SWAP2 SWAP1 PUSH2 0x6924 JUMP JUMPDEST PUSH0 PUSH1 0x40 MLOAD DUP1 DUP4 SUB DUP2 PUSH0 DUP8 DUP1 EXTCODESIZE ISZERO DUP1 ISZERO PUSH2 0x3569 JUMPI PUSH0 PUSH0 REVERT JUMPDEST POP GAS CALL ISZERO DUP1 ISZERO PUSH2 0x357B JUMPI RETURNDATASIZE PUSH0 PUSH0 RETURNDATACOPY RETURNDATASIZE PUSH0 REVERT JUMPDEST POP POP POP POP PUSH2 0x3593 DUP3 TIMESTAMP PUSH2 0x358E SWAP2 SWAP1 PUSH2 0x64E2 JUMP JUMPDEST PUSH2 0x28CC JUMP JUMPDEST SWAP3 POP POP POP SWAP6 SWAP5 POP POP POP POP POP JUMP JUMPDEST PUSH1 0xB PUSH0 SWAP1 SLOAD SWAP1 PUSH2 0x100 EXP SWAP1 DIV PUSH20 0xFFFFFFFFFFFFFFFFFFFFFFFFFFFFFFFFFFFFFFFF AND PUSH20 0xFFFFFFFFFFFFFFFFFFFFFFFFFFFFFFFFFFFFFFFF AND PUSH4 0xE38335E5 CALLVALUE DUP7 DUP7 DUP7 PUSH0 PUSH2 0x35EB DUP9 PUSH2 0x439F JUMP JUMPDEST PUSH1 0x40 MLOAD DUP8 PUSH4 0xFFFFFFFF AND PUSH1 0xE0 SHL DUP2 MSTORE PUSH1 0x4 ADD PUSH2 0x360B SWAP6 SWAP5 SWAP4 SWAP3 SWAP2 SWAP1 PUSH2 0x687F JUMP JUMPDEST PUSH0 PUSH1 0x40 MLOAD DUP1 DUP4 SUB DUP2 DUP6 DUP9 DUP1 EXTCODESIZE ISZERO DUP1 ISZERO PUSH2 0x3622 JUMPI PUSH0 PUSH0 REVERT JUMPDEST POP GAS CALL ISZERO DUP1 ISZERO PUSH2 0x3634 JUMPI RETURNDATASIZE PUSH0 PUSH0 RETURNDATACOPY RETURNDATASIZE PUSH0 REVERT JUMPDEST POP POP POP POP POP PUSH1 0xC PUSH0 DUP7 DUP2 MSTORE PUSH1 0x20 ADD SWAP1 DUP2 MSTORE PUSH1 0x20 ADD PUSH0 KECCAK256 PUSH0 SWAP1 SSTORE POP POP POP POP POP JUMP JUMPDEST PUSH0 PUSH0 PUSH1 0x4 PUSH0 DUP5 DUP2 MSTORE PUSH1 0x20 ADD SWAP1 DUP2 MSTORE PUSH1 0x20 ADD PUSH0 KECCAK256 SWAP1 POP PUSH0 DUP2 PUSH0 ADD PUSH1 0x1E SWAP1 SLOAD SWAP1 PUSH2 0x100 EXP SWAP1 DIV PUSH1 0xFF AND SWAP1 POP PUSH0 DUP3 PUSH0 ADD PUSH1 0x1F SWAP1 SLOAD SWAP1 PUSH2 0x100 EXP SWAP1 DIV PUSH1 0xFF AND SWAP1 POP DUP2 ISZERO PUSH2 0x36A3 JUMPI PUSH1 0x7 SWAP4 POP POP POP POP PUSH2 0x37A6 JUMP JUMPDEST DUP1 ISZERO PUSH2 0x36B5 JUMPI PUSH1 0x2 SWAP4 POP POP POP POP PUSH2 0x37A6 JUMP JUMPDEST PUSH0 PUSH2 0x36BF DUP7 PUSH2 0x11E5 JUMP JUMPDEST SWAP1 POP PUSH0 DUP2 SUB PUSH2 0x3705 JUMPI DUP6 PUSH1 0x40 MLOAD PUSH32 0x6AD0607500000000000000000000000000000000000000000000000000000000 DUP2 MSTORE PUSH1 0x4 ADD PUSH2 0x36FC SWAP2 SWAP1 PUSH2 0x4935 JUMP JUMPDEST PUSH1 0x40 MLOAD DUP1 SWAP2 SUB SWAP1 REVERT JUMPDEST PUSH0 PUSH2 0x370E PUSH2 0x1A95 JUMP JUMPDEST PUSH6 0xFFFFFFFFFFFF AND SWAP1 POP DUP1 DUP3 LT PUSH2 0x372C JUMPI PUSH0 SWAP6 POP POP POP POP POP POP PUSH2 0x37A6 JUMP JUMPDEST PUSH0 PUSH2 0x3736 DUP9 PUSH2 0x1C52 JUMP JUMPDEST SWAP1 POP DUP2 DUP2 LT PUSH2 0x374E JUMPI PUSH1 0x1 SWAP7 POP POP POP POP POP POP POP PUSH2 0x37A6 JUMP JUMPDEST PUSH2 0x3757 DUP9 PUSH2 0x43BC JUMP JUMPDEST ISZERO DUP1 PUSH2 0x3769 JUMPI POP PUSH2 0x3767 DUP9 PUSH2 0x4400 JUMP JUMPDEST ISZERO JUMPDEST ISZERO PUSH2 0x377D JUMPI PUSH1 0x3 SWAP7 POP POP POP POP POP POP POP PUSH2 0x37A6 JUMP JUMPDEST PUSH0 PUSH2 0x3787 DUP10 PUSH2 0x1B8E JUMP JUMPDEST SUB PUSH2 0x379B JUMPI PUSH1 0x4 SWAP7 POP POP POP POP POP POP POP PUSH2 0x37A6 JUMP JUMPDEST PUSH1 0x5 SWAP7 POP POP POP POP POP POP POP JUMPDEST SWAP2 SWAP1 POP JUMP JUMPDEST PUSH0 PUSH0 PUSH2 0x37B9 DUP7 DUP7 DUP7 DUP7 PUSH2 0x4427 JUMP JUMPDEST SWAP1 POP PUSH0 PUSH1 0xC PUSH0 DUP4 DUP2 MSTORE PUSH1 0x20 ADD SWAP1 DUP2 MSTORE PUSH1 0x20 ADD PUSH0 KECCAK256 SLOAD SWAP1 POP PUSH0 PUSH0 SHL DUP2 EQ PUSH2 0x3875 JUMPI PUSH1 0xB PUSH0 SWAP1 SLOAD SWAP1 PUSH2 0x100 EXP SWAP1 DIV PUSH20 0xFFFFFFFFFFFFFFFFFFFFFFFFFFFFFFFFFFFFFFFF AND PUSH20 0xFFFFFFFFFFFFFFFFFFFFFFFFFFFFFFFFFFFFFFFF AND PUSH4 0xC4D252F5 DUP3 PUSH1 0x40 MLOAD DUP3 PUSH4 0xFFFFFFFF AND PUSH1 0xE0 SHL DUP2 MSTORE PUSH1 0x4 ADD PUSH2 0x3833 SWAP2 SWAP1 PUSH2 0x4FE5 JUMP JUMPDEST PUSH0 PUSH1 0x40 MLOAD DUP1 DUP4 SUB DUP2 PUSH0 DUP8 DUP1 EXTCODESIZE ISZERO DUP1 ISZERO PUSH2 0x384A JUMPI PUSH0 PUSH0 REVERT JUMPDEST POP GAS CALL ISZERO DUP1 ISZERO PUSH2 0x385C JUMPI RETURNDATASIZE PUSH0 PUSH0 RETURNDATACOPY RETURNDATASIZE PUSH0 REVERT JUMPDEST POP POP POP POP PUSH1 0xC PUSH0 DUP4 DUP2 MSTORE PUSH1 0x20 ADD SWAP1 DUP2 MSTORE PUSH1 0x20 ADD PUSH0 KECCAK256 PUSH0 SWAP1 SSTORE JUMPDEST DUP2 SWAP3 POP POP POP SWAP5 SWAP4 POP POP POP POP JUMP JUMPDEST PUSH0 PUSH32 0x0 PUSH20 0xFFFFFFFFFFFFFFFFFFFFFFFFFFFFFFFFFFFFFFFF AND ADDRESS PUSH20 0xFFFFFFFFFFFFFFFFFFFFFFFFFFFFFFFFFFFFFFFF AND EQ DUP1 ISZERO PUSH2 0x38FD JUMPI POP PUSH32 0x0 CHAINID EQ JUMPDEST ISZERO PUSH2 0x392A JUMPI PUSH32 0x0 SWAP1 POP PUSH2 0x3935 JUMP JUMPDEST PUSH2 0x3932 PUSH2 0x4509 JUMP JUMPDEST SWAP1 POP JUMPDEST SWAP1 JUMP JUMPDEST PUSH0 PUSH1 0x40 MLOAD PUSH32 0x1901000000000000000000000000000000000000000000000000000000000000 DUP2 MSTORE DUP4 PUSH1 0x2 DUP3 ADD MSTORE DUP3 PUSH1 0x22 DUP3 ADD MSTORE PUSH1 0x42 DUP2 KECCAK256 SWAP2 POP POP SWAP3 SWAP2 POP POP JUMP JUMPDEST PUSH0 PUSH0 PUSH0 PUSH1 0x41 DUP5 MLOAD SUB PUSH2 0x39B8 JUMPI PUSH0 PUSH0 PUSH0 PUSH1 0x20 DUP8 ADD MLOAD SWAP3 POP PUSH1 0x40 DUP8 ADD MLOAD SWAP2 POP PUSH1 0x60 DUP8 ADD MLOAD PUSH0 BYTE SWAP1 POP PUSH2 0x39AA DUP9 DUP3 DUP6 DUP6 PUSH2 0x459E JUMP JUMPDEST SWAP6 POP SWAP6 POP SWAP6 POP POP POP POP PUSH2 0x39C6 JUMP JUMPDEST PUSH0 PUSH1 0x2 DUP6 MLOAD PUSH0 SHL SWAP3 POP SWAP3 POP SWAP3 POP JUMPDEST SWAP3 POP SWAP3 POP SWAP3 JUMP JUMPDEST PUSH0 PUSH0 PUSH0 DUP6 PUSH20 0xFFFFFFFFFFFFFFFFFFFFFFFFFFFFFFFFFFFFFFFF AND DUP6 DUP6 PUSH1 0x40 MLOAD PUSH1 0x24 ADD PUSH2 0x39FA SWAP3 SWAP2 SWAP1 PUSH2 0x6998 JUMP JUMPDEST PUSH1 0x40 MLOAD PUSH1 0x20 DUP2 DUP4 SUB SUB DUP2 MSTORE SWAP1 PUSH1 0x40 MSTORE PUSH4 0x1626BA7E PUSH1 0xE0 SHL PUSH1 0x20 DUP3 ADD DUP1 MLOAD PUSH28 0xFFFFFFFFFFFFFFFFFFFFFFFFFFFFFFFFFFFFFFFFFFFFFFFFFFFFFFFF DUP4 DUP2 DUP4 AND OR DUP4 MSTORE POP POP POP POP PUSH1 0x40 MLOAD PUSH2 0x3A4C SWAP2 SWAP1 PUSH2 0x69F6 JUMP JUMPDEST PUSH0 PUSH1 0x40 MLOAD DUP1 DUP4 SUB DUP2 DUP6 GAS STATICCALL SWAP2 POP POP RETURNDATASIZE DUP1 PUSH0 DUP2 EQ PUSH2 0x3A84 JUMPI PUSH1 0x40 MLOAD SWAP2 POP PUSH1 0x1F NOT PUSH1 0x3F RETURNDATASIZE ADD AND DUP3 ADD PUSH1 0x40 MSTORE RETURNDATASIZE DUP3 MSTORE RETURNDATASIZE PUSH0 PUSH1 0x20 DUP5 ADD RETURNDATACOPY PUSH2 0x3A89 JUMP JUMPDEST PUSH1 0x60 SWAP2 POP JUMPDEST POP SWAP2 POP SWAP2 POP DUP2 DUP1 ISZERO PUSH2 0x3A9D JUMPI POP PUSH1 0x20 DUP2 MLOAD LT ISZERO JUMPDEST DUP1 ISZERO PUSH2 0x3AE1 JUMPI POP PUSH4 0x1626BA7E PUSH1 0xE0 SHL PUSH28 0xFFFFFFFFFFFFFFFFFFFFFFFFFFFFFFFFFFFFFFFFFFFFFFFFFFFFFFFF NOT AND DUP2 DUP1 PUSH1 0x20 ADD SWAP1 MLOAD DUP2 ADD SWAP1 PUSH2 0x3ADF SWAP2 SWAP1 PUSH2 0x68F9 JUMP JUMPDEST EQ JUMPDEST SWAP3 POP POP POP SWAP4 SWAP3 POP POP POP JUMP JUMPDEST PUSH0 PUSH1 0x9 PUSH0 DUP8 DUP2 MSTORE PUSH1 0x20 ADD SWAP1 DUP2 MSTORE PUSH1 0x20 ADD PUSH0 KECCAK256 SWAP1 POP DUP1 PUSH1 0x3 ADD PUSH0 DUP7 PUSH20 0xFFFFFFFFFFFFFFFFFFFFFFFFFFFFFFFFFFFFFFFF AND PUSH20 0xFFFFFFFFFFFFFFFFFFFFFFFFFFFFFFFFFFFFFFFF AND DUP2 MSTORE PUSH1 0x20 ADD SWAP1 DUP2 MSTORE PUSH1 0x20 ADD PUSH0 KECCAK256 PUSH0 SWAP1 SLOAD SWAP1 PUSH2 0x100 EXP SWAP1 DIV PUSH1 0xFF AND ISZERO PUSH2 0x3B8E JUMPI DUP5 PUSH1 0x40 MLOAD PUSH32 0x71C6AF4900000000000000000000000000000000000000000000000000000000 DUP2 MSTORE PUSH1 0x4 ADD PUSH2 0x3B85 SWAP2 SWAP1 PUSH2 0x4A72 JUMP JUMPDEST PUSH1 0x40 MLOAD DUP1 SWAP2 SUB SWAP1 REVERT JUMPDEST PUSH1 0x1 DUP2 PUSH1 0x3 ADD PUSH0 DUP8 PUSH20 0xFFFFFFFFFFFFFFFFFFFFFFFFFFFFFFFFFFFFFFFF AND PUSH20 0xFFFFFFFFFFFFFFFFFFFFFFFFFFFFFFFFFFFFFFFF AND DUP2 MSTORE PUSH1 0x20 ADD SWAP1 DUP2 MSTORE PUSH1 0x20 ADD PUSH0 KECCAK256 PUSH0 PUSH2 0x100 EXP DUP2 SLOAD DUP2 PUSH1 0xFF MUL NOT AND SWAP1 DUP4 ISZERO ISZERO MUL OR SWAP1 SSTORE POP PUSH0 PUSH1 0x2 DUP2 GT ISZERO PUSH2 0x3BF8 JUMPI PUSH2 0x3BF7 PUSH2 0x4FFE JUMP JUMPDEST JUMPDEST PUSH1 0xFF AND DUP5 PUSH1 0xFF AND SUB PUSH2 0x3C22 JUMPI DUP3 DUP2 PUSH0 ADD PUSH0 DUP3 DUP3 SLOAD PUSH2 0x3C16 SWAP2 SWAP1 PUSH2 0x64E2 JUMP JUMPDEST SWAP3 POP POP DUP2 SWAP1 SSTORE POP PUSH2 0x3CD3 JUMP JUMPDEST PUSH1 0x1 PUSH1 0x2 DUP2 GT ISZERO PUSH2 0x3C36 JUMPI PUSH2 0x3C35 PUSH2 0x4FFE JUMP JUMPDEST JUMPDEST PUSH1 0xFF AND DUP5 PUSH1 0xFF AND SUB PUSH2 0x3C61 JUMPI DUP3 DUP2 PUSH1 0x1 ADD PUSH0 DUP3 DUP3 SLOAD PUSH2 0x3C55 SWAP2 SWAP1 PUSH2 0x64E2 JUMP JUMPDEST SWAP3 POP POP DUP2 SWAP1 SSTORE POP PUSH2 0x3CD2 JUMP JUMPDEST PUSH1 0x2 DUP1 DUP2 GT ISZERO PUSH2 0x3C74 JUMPI PUSH2 0x3C73 PUSH2 0x4FFE JUMP JUMPDEST JUMPDEST PUSH1 0xFF AND DUP5 PUSH1 0xFF AND SUB PUSH2 0x3C9F JUMPI DUP3 DUP2 PUSH1 0x2 ADD PUSH0 DUP3 DUP3 SLOAD PUSH2 0x3C93 SWAP2 SWAP1 PUSH2 0x64E2 JUMP JUMPDEST SWAP3 POP POP DUP2 SWAP1 SSTORE POP PUSH2 0x3CD1 JUMP JUMPDEST PUSH1 0x40 MLOAD PUSH32 0x6B337C200000000000000000000000000000000000000000000000000000000 DUP2 MSTORE PUSH1 0x4 ADD PUSH1 0x40 MLOAD DUP1 SWAP2 SUB SWAP1 REVERT JUMPDEST JUMPDEST JUMPDEST POP POP POP POP POP POP JUMP JUMPDEST PUSH0 PUSH0 DUP3 SUB PUSH2 0x3CEB JUMPI PUSH0 SWAP1 POP PUSH2 0x3DCC JUMP JUMPDEST PUSH0 PUSH1 0x1 PUSH2 0x3CF7 DUP5 PUSH2 0x4685 JUMP JUMPDEST SWAP1 SHR PUSH1 0x1 SWAP1 SHL SWAP1 POP PUSH1 0x1 DUP2 DUP5 DUP2 PUSH2 0x3D11 JUMPI PUSH2 0x3D10 PUSH2 0x6283 JUMP JUMPDEST JUMPDEST DIV DUP3 ADD SWAP1 SHR SWAP1 POP PUSH1 0x1 DUP2 DUP5 DUP2 PUSH2 0x3D2A JUMPI PUSH2 0x3D29 PUSH2 0x6283 JUMP JUMPDEST JUMPDEST DIV DUP3 ADD SWAP1 SHR SWAP1 POP PUSH1 0x1 DUP2 DUP5 DUP2 PUSH2 0x3D43 JUMPI PUSH2 0x3D42 PUSH2 0x6283 JUMP JUMPDEST JUMPDEST DIV DUP3 ADD SWAP1 SHR SWAP1 POP PUSH1 0x1 DUP2 DUP5 DUP2 PUSH2 0x3D5C JUMPI PUSH2 0x3D5B PUSH2 0x6283 JUMP JUMPDEST JUMPDEST DIV DUP3 ADD SWAP1 SHR SWAP1 POP PUSH1 0x1 DUP2 DUP5 DUP2 PUSH2 0x3D75 JUMPI PUSH2 0x3D74 PUSH2 0x6283 JUMP JUMPDEST JUMPDEST DIV DUP3 ADD SWAP1 SHR SWAP1 POP PUSH1 0x1 DUP2 DUP5 DUP2 PUSH2 0x3D8E JUMPI PUSH2 0x3D8D PUSH2 0x6283 JUMP JUMPDEST JUMPDEST DIV DUP3 ADD SWAP1 SHR SWAP1 POP PUSH1 0x1 DUP2 DUP5 DUP2 PUSH2 0x3DA7 JUMPI PUSH2 0x3DA6 PUSH2 0x6283 JUMP JUMPDEST JUMPDEST DIV DUP3 ADD SWAP1 SHR SWAP1 POP PUSH2 0x3DC8 DUP2 DUP3 DUP6 DUP2 PUSH2 0x3DC2 JUMPI PUSH2 0x3DC1 PUSH2 0x6283 JUMP JUMPDEST JUMPDEST DIV PUSH2 0x475C JUMP JUMPDEST SWAP2 POP POP JUMPDEST SWAP2 SWAP1 POP JUMP JUMPDEST PUSH0 DUP3 PUSH0 MSTORE DUP2 PUSH1 0x20 PUSH0 KECCAK256 ADD SWAP1 POP SWAP3 SWAP2 POP POP JUMP JUMPDEST PUSH0 JUMPDEST DUP2 DUP4 LT ISZERO PUSH2 0x3E4D JUMPI PUSH0 PUSH2 0x3DF8 DUP5 DUP5 PUSH2 0x4774 JUMP JUMPDEST SWAP1 POP DUP5 PUSH6 0xFFFFFFFFFFFF AND PUSH2 0x3E0D DUP8 DUP4 PUSH2 0x3DD1 JUMP JUMPDEST PUSH0 ADD PUSH0 SWAP1 SLOAD SWAP1 PUSH2 0x100 EXP SWAP1 DIV PUSH6 0xFFFFFFFFFFFF AND PUSH6 0xFFFFFFFFFFFF AND GT ISZERO PUSH2 0x3E37 JUMPI DUP1 SWAP3 POP PUSH2 0x3E47 JUMP JUMPDEST PUSH1 0x1 DUP2 PUSH2 0x3E44 SWAP2 SWAP1 PUSH2 0x64E2 JUMP JUMPDEST SWAP4 POP JUMPDEST POP PUSH2 0x3DE5 JUMP JUMPDEST DUP2 SWAP1 POP SWAP5 SWAP4 POP POP POP POP JUMP JUMPDEST PUSH0 PUSH0 PUSH0 DUP4 PUSH1 0xF8 SHR SWAP1 POP DUP1 PUSH1 0xFF AND PUSH1 0x2F LT DUP1 ISZERO PUSH2 0x3E77 JUMPI POP PUSH1 0x3A DUP2 PUSH1 0xFF AND LT JUMPDEST ISZERO PUSH2 0x3E8C JUMPI PUSH1 0x1 PUSH1 0x30 DUP3 SUB SWAP3 POP SWAP3 POP POP PUSH2 0x3EEA JUMP JUMPDEST DUP1 PUSH1 0xFF AND PUSH1 0x40 LT DUP1 ISZERO PUSH2 0x3EA2 JUMPI POP PUSH1 0x47 DUP2 PUSH1 0xFF AND LT JUMPDEST ISZERO PUSH2 0x3EB7 JUMPI PUSH1 0x1 PUSH1 0x37 DUP3 SUB SWAP3 POP SWAP3 POP POP PUSH2 0x3EEA JUMP JUMPDEST DUP1 PUSH1 0xFF AND PUSH1 0x60 LT DUP1 ISZERO PUSH2 0x3ECD JUMPI POP PUSH1 0x67 DUP2 PUSH1 0xFF AND LT JUMPDEST ISZERO PUSH2 0x3EE2 JUMPI PUSH1 0x1 PUSH1 0x57 DUP3 SUB SWAP3 POP SWAP3 POP POP PUSH2 0x3EEA JUMP JUMPDEST PUSH0 PUSH0 SWAP3 POP SWAP3 POP POP JUMPDEST SWAP2 POP SWAP2 JUMP JUMPDEST PUSH0 PUSH4 0xFFFFFFFF DUP1 AND DUP3 GT ISZERO PUSH2 0x3F3E JUMPI PUSH1 0x20 DUP3 PUSH1 0x40 MLOAD PUSH32 0x6DFCC65000000000000000000000000000000000000000000000000000000000 DUP2 MSTORE PUSH1 0x4 ADD PUSH2 0x3F35 SWAP3 SWAP2 SWAP1 PUSH2 0x6A45 JUMP JUMPDEST PUSH1 0x40 MLOAD DUP1 SWAP2 SUB SWAP1 REVERT JUMPDEST DUP2 SWAP1 POP SWAP2 SWAP1 POP JUMP JUMPDEST PUSH1 0x60 PUSH1 0xFF PUSH0 SHL DUP4 EQ PUSH2 0x3F62 JUMPI PUSH2 0x3F5B DUP4 PUSH2 0x4799 JUMP JUMPDEST SWAP1 POP PUSH2 0x3FED JUMP JUMPDEST DUP2 DUP1 SLOAD PUSH2 0x3F6E SWAP1 PUSH2 0x5C25 JUMP JUMPDEST DUP1 PUSH1 0x1F ADD PUSH1 0x20 DUP1 SWAP2 DIV MUL PUSH1 0x20 ADD PUSH1 0x40 MLOAD SWAP1 DUP2 ADD PUSH1 0x40 MSTORE DUP1 SWAP3 SWAP2 SWAP1 DUP2 DUP2 MSTORE PUSH1 0x20 ADD DUP3 DUP1 SLOAD PUSH2 0x3F9A SWAP1 PUSH2 0x5C25 JUMP JUMPDEST DUP1 ISZERO PUSH2 0x3FE5 JUMPI DUP1 PUSH1 0x1F LT PUSH2 0x3FBC JUMPI PUSH2 0x100 DUP1 DUP4 SLOAD DIV MUL DUP4 MSTORE SWAP2 PUSH1 0x20 ADD SWAP2 PUSH2 0x3FE5 JUMP JUMPDEST DUP3 ADD SWAP2 SWAP1 PUSH0 MSTORE PUSH1 0x20 PUSH0 KECCAK256 SWAP1 JUMPDEST DUP2 SLOAD DUP2 MSTORE SWAP1 PUSH1 0x1 ADD SWAP1 PUSH1 0x20 ADD DUP1 DUP4 GT PUSH2 0x3FC8 JUMPI DUP3 SWAP1 SUB PUSH1 0x1F AND DUP3 ADD SWAP2 JUMPDEST POP POP POP POP POP SWAP1 POP JUMPDEST SWAP3 SWAP2 POP POP JUMP JUMPDEST PUSH0 DUP2 MLOAD GT ISZERO PUSH2 0x4005 JUMPI DUP1 MLOAD DUP1 DUP3 PUSH1 0x20 ADD REVERT JUMPDEST PUSH1 0x40 MLOAD PUSH32 0x1425EA4200000000000000000000000000000000000000000000000000000000 DUP2 MSTORE PUSH1 0x4 ADD PUSH1 0x40 MLOAD DUP1 SWAP2 SUB SWAP1 REVERT JUMPDEST PUSH0 PUSH0 PUSH0 DUP6 DUP1 SLOAD SWAP1 POP SWAP1 POP PUSH0 DUP2 GT ISZERO PUSH2 0x42B7 JUMPI PUSH0 PUSH2 0x4060 DUP8 PUSH1 0x1 DUP5 PUSH2 0x405B SWAP2 SWAP1 PUSH2 0x5E7D JUMP JUMPDEST PUSH2 0x3DD1 JUMP JUMPDEST PUSH1 0x40 MLOAD DUP1 PUSH1 0x40 ADD PUSH1 0x40 MSTORE SWAP1 DUP2 PUSH0 DUP3 ADD PUSH0 SWAP1 SLOAD SWAP1 PUSH2 0x100 EXP SWAP1 DIV PUSH6 0xFFFFFFFFFFFF AND PUSH6 0xFFFFFFFFFFFF AND PUSH6 0xFFFFFFFFFFFF AND DUP2 MSTORE PUSH1 0x20 ADD PUSH0 DUP3 ADD PUSH1 0x6 SWAP1 SLOAD SWAP1 PUSH2 0x100 EXP SWAP1 DIV PUSH26 0xFFFFFFFFFFFFFFFFFFFFFFFFFFFFFFFFFFFFFFFFFFFFFFFFFFFF AND PUSH26 0xFFFFFFFFFFFFFFFFFFFFFFFFFFFFFFFFFFFFFFFFFFFFFFFFFFFF AND PUSH26 0xFFFFFFFFFFFFFFFFFFFFFFFFFFFFFFFFFFFFFFFFFFFFFFFFFFFF AND DUP2 MSTORE POP POP SWAP1 POP DUP6 PUSH6 0xFFFFFFFFFFFF AND DUP2 PUSH0 ADD MLOAD PUSH6 0xFFFFFFFFFFFF AND GT ISZERO PUSH2 0x414B JUMPI PUSH1 0x40 MLOAD PUSH32 0x2520601D00000000000000000000000000000000000000000000000000000000 DUP2 MSTORE PUSH1 0x4 ADD PUSH1 0x40 MLOAD DUP1 SWAP2 SUB SWAP1 REVERT JUMPDEST DUP6 PUSH6 0xFFFFFFFFFFFF AND DUP2 PUSH0 ADD MLOAD PUSH6 0xFFFFFFFFFFFF AND SUB PUSH2 0x41CD JUMPI DUP5 PUSH2 0x417C DUP9 PUSH1 0x1 DUP6 PUSH2 0x4177 SWAP2 SWAP1 PUSH2 0x5E7D JUMP JUMPDEST PUSH2 0x3DD1 JUMP JUMPDEST PUSH0 ADD PUSH1 0x6 PUSH2 0x100 EXP DUP2 SLOAD DUP2 PUSH26 0xFFFFFFFFFFFFFFFFFFFFFFFFFFFFFFFFFFFFFFFFFFFFFFFFFFFF MUL NOT AND SWAP1 DUP4 PUSH26 0xFFFFFFFFFFFFFFFFFFFFFFFFFFFFFFFFFFFFFFFFFFFFFFFFFFFF AND MUL OR SWAP1 SSTORE POP PUSH2 0x42A6 JUMP JUMPDEST DUP7 PUSH1 0x40 MLOAD DUP1 PUSH1 0x40 ADD PUSH1 0x40 MSTORE DUP1 DUP9 PUSH6 0xFFFFFFFFFFFF AND DUP2 MSTORE PUSH1 0x20 ADD DUP8 PUSH26 0xFFFFFFFFFFFFFFFFFFFFFFFFFFFFFFFFFFFFFFFFFFFFFFFFFFFF AND DUP2 MSTORE POP SWAP1 DUP1 PUSH1 0x1 DUP2 SLOAD ADD DUP1 DUP3 SSTORE DUP1 SWAP2 POP POP PUSH1 0x1 SWAP1 SUB SWAP1 PUSH0 MSTORE PUSH1 0x20 PUSH0 KECCAK256 ADD PUSH0 SWAP1 SWAP2 SWAP1 SWAP2 SWAP1 SWAP2 POP PUSH0 DUP3 ADD MLOAD DUP2 PUSH0 ADD PUSH0 PUSH2 0x100 EXP DUP2 SLOAD DUP2 PUSH6 0xFFFFFFFFFFFF MUL NOT AND SWAP1 DUP4 PUSH6 0xFFFFFFFFFFFF AND MUL OR SWAP1 SSTORE POP PUSH1 0x20 DUP3 ADD MLOAD DUP2 PUSH0 ADD PUSH1 0x6 PUSH2 0x100 EXP DUP2 SLOAD DUP2 PUSH26 0xFFFFFFFFFFFFFFFFFFFFFFFFFFFFFFFFFFFFFFFFFFFFFFFFFFFF MUL NOT AND SWAP1 DUP4 PUSH26 0xFFFFFFFFFFFFFFFFFFFFFFFFFFFFFFFFFFFFFFFFFFFFFFFFFFFF AND MUL OR SWAP1 SSTORE POP POP POP JUMPDEST DUP1 PUSH1 0x20 ADD MLOAD DUP6 SWAP4 POP SWAP4 POP POP POP PUSH2 0x4397 JUMP JUMPDEST DUP6 PUSH1 0x40 MLOAD DUP1 PUSH1 0x40 ADD PUSH1 0x40 MSTORE DUP1 DUP8 PUSH6 0xFFFFFFFFFFFF AND DUP2 MSTORE PUSH1 0x20 ADD DUP7 PUSH26 0xFFFFFFFFFFFFFFFFFFFFFFFFFFFFFFFFFFFFFFFFFFFFFFFFFFFF AND DUP2 MSTORE POP SWAP1 DUP1 PUSH1 0x1 DUP2 SLOAD ADD DUP1 DUP3 SSTORE DUP1 SWAP2 POP POP PUSH1 0x1 SWAP1 SUB SWAP1 PUSH0 MSTORE PUSH1 0x20 PUSH0 KECCAK256 ADD PUSH0 SWAP1 SWAP2 SWAP1 SWAP2 SWAP1 SWAP2 POP PUSH0 DUP3 ADD MLOAD DUP2 PUSH0 ADD PUSH0 PUSH2 0x100 EXP DUP2 SLOAD DUP2 PUSH6 0xFFFFFFFFFFFF MUL NOT AND SWAP1 DUP4 PUSH6 0xFFFFFFFFFFFF AND MUL OR SWAP1 SSTORE POP PUSH1 0x20 DUP3 ADD MLOAD DUP2 PUSH0 ADD PUSH1 0x6 PUSH2 0x100 EXP DUP2 SLOAD DUP2 PUSH26 0xFFFFFFFFFFFFFFFFFFFFFFFFFFFFFFFFFFFFFFFFFFFFFFFFFFFF MUL NOT AND SWAP1 DUP4 PUSH26 0xFFFFFFFFFFFFFFFFFFFFFFFFFFFFFFFFFFFFFFFFFFFFFFFFFFFF AND MUL OR SWAP1 SSTORE POP POP POP PUSH0 DUP5 SWAP3 POP SWAP3 POP POP JUMPDEST SWAP4 POP SWAP4 SWAP2 POP POP JUMP JUMPDEST PUSH0 DUP2 ADDRESS PUSH1 0x60 SHL PUSH12 0xFFFFFFFFFFFFFFFFFFFFFFFF NOT AND XOR SWAP1 POP SWAP2 SWAP1 POP JUMP JUMPDEST PUSH0 PUSH0 PUSH1 0x9 PUSH0 DUP5 DUP2 MSTORE PUSH1 0x20 ADD SWAP1 DUP2 MSTORE PUSH1 0x20 ADD PUSH0 KECCAK256 SWAP1 POP DUP1 PUSH1 0x2 ADD SLOAD DUP2 PUSH1 0x1 ADD SLOAD PUSH2 0x43E5 SWAP2 SWAP1 PUSH2 0x64E2 JUMP JUMPDEST PUSH2 0x43F6 PUSH2 0x43F1 DUP6 PUSH2 0x11E5 JUMP JUMPDEST PUSH2 0x1ECB JUMP JUMPDEST GT ISZERO SWAP2 POP POP SWAP2 SWAP1 POP JUMP JUMPDEST PUSH0 PUSH0 PUSH1 0x9 PUSH0 DUP5 DUP2 MSTORE PUSH1 0x20 ADD SWAP1 DUP2 MSTORE PUSH1 0x20 ADD PUSH0 KECCAK256 SWAP1 POP DUP1 PUSH0 ADD SLOAD DUP2 PUSH1 0x1 ADD SLOAD GT SWAP2 POP POP SWAP2 SWAP1 POP JUMP JUMPDEST PUSH0 PUSH0 PUSH2 0x4435 DUP7 DUP7 DUP7 DUP7 PUSH2 0x1D45 JUMP JUMPDEST SWAP1 POP PUSH2 0x4499 DUP2 PUSH2 0x4445 PUSH1 0x7 PUSH2 0x2205 JUMP JUMPDEST PUSH2 0x444F PUSH1 0x6 PUSH2 0x2205 JUMP JUMPDEST PUSH2 0x4459 PUSH1 0x2 PUSH2 0x2205 JUMP JUMPDEST PUSH1 0x1 DUP1 PUSH1 0x7 DUP1 DUP2 GT ISZERO PUSH2 0x446F JUMPI PUSH2 0x446E PUSH2 0x4FFE JUMP JUMPDEST JUMPDEST PUSH2 0x4479 SWAP2 SWAP1 PUSH2 0x6A6C JUMP JUMPDEST PUSH1 0x2 PUSH2 0x4485 SWAP2 SWAP1 PUSH2 0x6BCF JUMP JUMPDEST PUSH2 0x448F SWAP2 SWAP1 PUSH2 0x5E7D JUMP JUMPDEST PUSH0 SHL XOR XOR XOR PUSH2 0x2229 JUMP JUMPDEST POP PUSH1 0x1 PUSH1 0x4 PUSH0 DUP4 DUP2 MSTORE PUSH1 0x20 ADD SWAP1 DUP2 MSTORE PUSH1 0x20 ADD PUSH0 KECCAK256 PUSH0 ADD PUSH1 0x1F PUSH2 0x100 EXP DUP2 SLOAD DUP2 PUSH1 0xFF MUL NOT AND SWAP1 DUP4 ISZERO ISZERO MUL OR SWAP1 SSTORE POP PUSH32 0x789CF55BE980739DAD1D0699B93B58E806B51C9D96619BFA8FE0A28ABAA7B30C DUP2 PUSH1 0x40 MLOAD PUSH2 0x44F5 SWAP2 SWAP1 PUSH2 0x4935 JUMP JUMPDEST PUSH1 0x40 MLOAD DUP1 SWAP2 SUB SWAP1 LOG1 DUP1 SWAP2 POP POP SWAP5 SWAP4 POP POP POP POP JUMP JUMPDEST PUSH0 PUSH32 0x8B73C3C69BB8FE3D512ECC4CF759CC79239F7B179B0FFACAA9A75D522B39400F PUSH32 0x0 PUSH32 0x0 CHAINID ADDRESS PUSH1 0x40 MLOAD PUSH1 0x20 ADD PUSH2 0x4583 SWAP6 SWAP5 SWAP4 SWAP3 SWAP2 SWAP1 PUSH2 0x6C19 JUMP JUMPDEST PUSH1 0x40 MLOAD PUSH1 0x20 DUP2 DUP4 SUB SUB DUP2 MSTORE SWAP1 PUSH1 0x40 MSTORE DUP1 MLOAD SWAP1 PUSH1 0x20 ADD KECCAK256 SWAP1 POP SWAP1 JUMP JUMPDEST PUSH0 PUSH0 PUSH0 PUSH32 0x7FFFFFFFFFFFFFFFFFFFFFFFFFFFFFFF5D576E7357A4501DDFE92F46681B20A0 DUP5 PUSH0 SHR GT ISZERO PUSH2 0x45DA JUMPI PUSH0 PUSH1 0x3 DUP6 SWAP3 POP SWAP3 POP SWAP3 POP PUSH2 0x467B JUMP JUMPDEST PUSH0 PUSH1 0x1 DUP9 DUP9 DUP9 DUP9 PUSH1 0x40 MLOAD PUSH0 DUP2 MSTORE PUSH1 0x20 ADD PUSH1 0x40 MSTORE PUSH1 0x40 MLOAD PUSH2 0x45FD SWAP5 SWAP4 SWAP3 SWAP2 SWAP1 PUSH2 0x6C6A JUMP JUMPDEST PUSH1 0x20 PUSH1 0x40 MLOAD PUSH1 0x20 DUP2 SUB SWAP1 DUP1 DUP5 SUB SWAP1 DUP6 GAS STATICCALL ISZERO DUP1 ISZERO PUSH2 0x461D JUMPI RETURNDATASIZE PUSH0 PUSH0 RETURNDATACOPY RETURNDATASIZE PUSH0 REVERT JUMPDEST POP POP POP PUSH1 0x20 PUSH1 0x40 MLOAD SUB MLOAD SWAP1 POP PUSH0 PUSH20 0xFFFFFFFFFFFFFFFFFFFFFFFFFFFFFFFFFFFFFFFF AND DUP2 PUSH20 0xFFFFFFFFFFFFFFFFFFFFFFFFFFFFFFFFFFFFFFFF AND SUB PUSH2 0x466E JUMPI PUSH0 PUSH1 0x1 PUSH0 PUSH0 SHL SWAP4 POP SWAP4 POP SWAP4 POP POP PUSH2 0x467B JUMP JUMPDEST DUP1 PUSH0 PUSH0 PUSH0 SHL SWAP4 POP SWAP4 POP SWAP4 POP POP JUMPDEST SWAP5 POP SWAP5 POP SWAP5 SWAP2 POP POP JUMP JUMPDEST PUSH0 PUSH0 PUSH0 SWAP1 POP PUSH0 PUSH1 0x80 DUP5 SWAP1 SHR GT ISZERO PUSH2 0x46A4 JUMPI PUSH1 0x80 DUP4 SWAP1 SHR SWAP3 POP PUSH1 0x80 DUP2 ADD SWAP1 POP JUMPDEST PUSH0 PUSH1 0x40 DUP5 SWAP1 SHR GT ISZERO PUSH2 0x46BE JUMPI PUSH1 0x40 DUP4 SWAP1 SHR SWAP3 POP PUSH1 0x40 DUP2 ADD SWAP1 POP JUMPDEST PUSH0 PUSH1 0x20 DUP5 SWAP1 SHR GT ISZERO PUSH2 0x46D8 JUMPI PUSH1 0x20 DUP4 SWAP1 SHR SWAP3 POP PUSH1 0x20 DUP2 ADD SWAP1 POP JUMPDEST PUSH0 PUSH1 0x10 DUP5 SWAP1 SHR GT ISZERO PUSH2 0x46F2 JUMPI PUSH1 0x10 DUP4 SWAP1 SHR SWAP3 POP PUSH1 0x10 DUP2 ADD SWAP1 POP JUMPDEST PUSH0 PUSH1 0x8 DUP5 SWAP1 SHR GT ISZERO PUSH2 0x470C JUMPI PUSH1 0x8 DUP4 SWAP1 SHR SWAP3 POP PUSH1 0x8 DUP2 ADD SWAP1 POP JUMPDEST PUSH0 PUSH1 0x4 DUP5 SWAP1 SHR GT ISZERO PUSH2 0x4726 JUMPI PUSH1 0x4 DUP4 SWAP1 SHR SWAP3 POP PUSH1 0x4 DUP2 ADD SWAP1 POP JUMPDEST PUSH0 PUSH1 0x2 DUP5 SWAP1 SHR GT ISZERO PUSH2 0x4740 JUMPI PUSH1 0x2 DUP4 SWAP1 SHR SWAP3 POP PUSH1 0x2 DUP2 ADD SWAP1 POP JUMPDEST PUSH0 PUSH1 0x1 DUP5 SWAP1 SHR GT ISZERO PUSH2 0x4753 JUMPI PUSH1 0x1 DUP2 ADD SWAP1 POP JUMPDEST DUP1 SWAP2 POP POP SWAP2 SWAP1 POP JUMP JUMPDEST PUSH0 DUP2 DUP4 LT PUSH2 0x476A JUMPI DUP2 PUSH2 0x476C JUMP JUMPDEST DUP3 JUMPDEST SWAP1 POP SWAP3 SWAP2 POP POP JUMP JUMPDEST PUSH0 PUSH1 0x2 DUP3 DUP5 XOR PUSH2 0x4784 SWAP2 SWAP1 PUSH2 0x62B0 JUMP JUMPDEST DUP3 DUP5 AND PUSH2 0x4791 SWAP2 SWAP1 PUSH2 0x64E2 JUMP JUMPDEST SWAP1 POP SWAP3 SWAP2 POP POP JUMP JUMPDEST PUSH1 0x60 PUSH0 PUSH2 0x47A5 DUP4 PUSH2 0x480B JUMP JUMPDEST SWAP1 POP PUSH0 PUSH1 0x20 PUSH8 0xFFFFFFFFFFFFFFFF DUP2 GT ISZERO PUSH2 0x47C3 JUMPI PUSH2 0x47C2 PUSH2 0x4ABD JUMP JUMPDEST JUMPDEST PUSH1 0x40 MLOAD SWAP1 DUP1 DUP3 MSTORE DUP1 PUSH1 0x1F ADD PUSH1 0x1F NOT AND PUSH1 0x20 ADD DUP3 ADD PUSH1 0x40 MSTORE DUP1 ISZERO PUSH2 0x47F5 JUMPI DUP2 PUSH1 0x20 ADD PUSH1 0x1 DUP3 MUL DUP1 CALLDATASIZE DUP4 CALLDATACOPY DUP1 DUP3 ADD SWAP2 POP POP SWAP1 POP JUMPDEST POP SWAP1 POP DUP2 DUP2 MSTORE DUP4 PUSH1 0x20 DUP3 ADD MSTORE DUP1 SWAP3 POP POP POP SWAP2 SWAP1 POP JUMP JUMPDEST PUSH0 PUSH0 PUSH1 0xFF DUP4 PUSH0 SHR AND SWAP1 POP PUSH1 0x1F DUP2 GT ISZERO PUSH2 0x4850 JUMPI PUSH1 0x40 MLOAD PUSH32 0xB3512B0C00000000000000000000000000000000000000000000000000000000 DUP2 MSTORE PUSH1 0x4 ADD PUSH1 0x40 MLOAD DUP1 SWAP2 SUB SWAP1 REVERT JUMPDEST DUP1 SWAP2 POP POP SWAP2 SWAP1 POP JUMP JUMPDEST PUSH0 PUSH1 0x40 MLOAD SWAP1 POP SWAP1 JUMP JUMPDEST PUSH0 PUSH0 REVERT JUMPDEST PUSH0 PUSH0 REVERT JUMPDEST PUSH0 PUSH32 0xFFFFFFFF00000000000000000000000000000000000000000000000000000000 DUP3 AND SWAP1 POP SWAP2 SWAP1 POP JUMP JUMPDEST PUSH2 0x489E DUP2 PUSH2 0x486A JUMP JUMPDEST DUP2 EQ PUSH2 0x48A8 JUMPI PUSH0 PUSH0 REVERT JUMPDEST POP JUMP JUMPDEST PUSH0 DUP2 CALLDATALOAD SWAP1 POP PUSH2 0x48B9 DUP2 PUSH2 0x4895 JUMP JUMPDEST SWAP3 SWAP2 POP POP JUMP JUMPDEST PUSH0 PUSH1 0x20 DUP3 DUP5 SUB SLT ISZERO PUSH2 0x48D4 JUMPI PUSH2 0x48D3 PUSH2 0x4862 JUMP JUMPDEST JUMPDEST PUSH0 PUSH2 0x48E1 DUP5 DUP3 DUP6 ADD PUSH2 0x48AB JUMP JUMPDEST SWAP2 POP POP SWAP3 SWAP2 POP POP JUMP JUMPDEST PUSH0 DUP2 ISZERO ISZERO SWAP1 POP SWAP2 SWAP1 POP JUMP JUMPDEST PUSH2 0x48FE DUP2 PUSH2 0x48EA JUMP JUMPDEST DUP3 MSTORE POP POP JUMP JUMPDEST PUSH0 PUSH1 0x20 DUP3 ADD SWAP1 POP PUSH2 0x4917 PUSH0 DUP4 ADD DUP5 PUSH2 0x48F5 JUMP JUMPDEST SWAP3 SWAP2 POP POP JUMP JUMPDEST PUSH0 DUP2 SWAP1 POP SWAP2 SWAP1 POP JUMP JUMPDEST PUSH2 0x492F DUP2 PUSH2 0x491D JUMP JUMPDEST DUP3 MSTORE POP POP JUMP JUMPDEST PUSH0 PUSH1 0x20 DUP3 ADD SWAP1 POP PUSH2 0x4948 PUSH0 DUP4 ADD DUP5 PUSH2 0x4926 JUMP JUMPDEST SWAP3 SWAP2 POP POP JUMP JUMPDEST PUSH2 0x4957 DUP2 PUSH2 0x491D JUMP JUMPDEST DUP2 EQ PUSH2 0x4961 JUMPI PUSH0 PUSH0 REVERT JUMPDEST POP JUMP JUMPDEST PUSH0 DUP2 CALLDATALOAD SWAP1 POP PUSH2 0x4972 DUP2 PUSH2 0x494E JUMP JUMPDEST SWAP3 SWAP2 POP POP JUMP JUMPDEST PUSH0 PUSH1 0x20 DUP3 DUP5 SUB SLT ISZERO PUSH2 0x498D JUMPI PUSH2 0x498C PUSH2 0x4862 JUMP JUMPDEST JUMPDEST PUSH0 PUSH2 0x499A DUP5 DUP3 DUP6 ADD PUSH2 0x4964 JUMP JUMPDEST SWAP2 POP POP SWAP3 SWAP2 POP POP JUMP JUMPDEST PUSH0 DUP2 MLOAD SWAP1 POP SWAP2 SWAP1 POP JUMP JUMPDEST PUSH0 DUP3 DUP3 MSTORE PUSH1 0x20 DUP3 ADD SWAP1 POP SWAP3 SWAP2 POP POP JUMP JUMPDEST DUP3 DUP2 DUP4 MCOPY PUSH0 DUP4 DUP4 ADD MSTORE POP POP POP JUMP JUMPDEST PUSH0 PUSH1 0x1F NOT PUSH1 0x1F DUP4 ADD AND SWAP1 POP SWAP2 SWAP1 POP JUMP JUMPDEST PUSH0 PUSH2 0x49E5 DUP3 PUSH2 0x49A3 JUMP JUMPDEST PUSH2 0x49EF DUP2 DUP6 PUSH2 0x49AD JUMP JUMPDEST SWAP4 POP PUSH2 0x49FF DUP2 DUP6 PUSH1 0x20 DUP7 ADD PUSH2 0x49BD JUMP JUMPDEST PUSH2 0x4A08 DUP2 PUSH2 0x49CB JUMP JUMPDEST DUP5 ADD SWAP2 POP POP SWAP3 SWAP2 POP POP JUMP JUMPDEST PUSH0 PUSH1 0x20 DUP3 ADD SWAP1 POP DUP2 DUP2 SUB PUSH0 DUP4 ADD MSTORE PUSH2 0x4A2B DUP2 DUP5 PUSH2 0x49DB JUMP JUMPDEST SWAP1 POP SWAP3 SWAP2 POP POP JUMP JUMPDEST PUSH0 PUSH20 0xFFFFFFFFFFFFFFFFFFFFFFFFFFFFFFFFFFFFFFFF DUP3 AND SWAP1 POP SWAP2 SWAP1 POP JUMP JUMPDEST PUSH0 PUSH2 0x4A5C DUP3 PUSH2 0x4A33 JUMP JUMPDEST SWAP1 POP SWAP2 SWAP1 POP JUMP JUMPDEST PUSH2 0x4A6C DUP2 PUSH2 0x4A52 JUMP JUMPDEST DUP3 MSTORE POP POP JUMP JUMPDEST PUSH0 PUSH1 0x20 DUP3 ADD SWAP1 POP PUSH2 0x4A85 PUSH0 DUP4 ADD DUP5 PUSH2 0x4A63 JUMP JUMPDEST SWAP3 SWAP2 POP POP JUMP JUMPDEST PUSH2 0x4A94 DUP2 PUSH2 0x4A52 JUMP JUMPDEST DUP2 EQ PUSH2 0x4A9E JUMPI PUSH0 PUSH0 REVERT JUMPDEST POP JUMP JUMPDEST PUSH0 DUP2 CALLDATALOAD SWAP1 POP PUSH2 0x4AAF DUP2 PUSH2 0x4A8B JUMP JUMPDEST SWAP3 SWAP2 POP POP JUMP JUMPDEST PUSH0 PUSH0 REVERT JUMPDEST PUSH0 PUSH0 REVERT JUMPDEST PUSH32 0x4E487B7100000000000000000000000000000000000000000000000000000000 PUSH0 MSTORE PUSH1 0x41 PUSH1 0x4 MSTORE PUSH1 0x24 PUSH0 REVERT JUMPDEST PUSH2 0x4AF3 DUP3 PUSH2 0x49CB JUMP JUMPDEST DUP2 ADD DUP2 DUP2 LT PUSH8 0xFFFFFFFFFFFFFFFF DUP3 GT OR ISZERO PUSH2 0x4B12 JUMPI PUSH2 0x4B11 PUSH2 0x4ABD JUMP JUMPDEST JUMPDEST DUP1 PUSH1 0x40 MSTORE POP POP POP JUMP JUMPDEST PUSH0 PUSH2 0x4B24 PUSH2 0x4859 JUMP JUMPDEST SWAP1 POP PUSH2 0x4B30 DUP3 DUP3 PUSH2 0x4AEA JUMP JUMPDEST SWAP2 SWAP1 POP JUMP JUMPDEST PUSH0 PUSH8 0xFFFFFFFFFFFFFFFF DUP3 GT ISZERO PUSH2 0x4B4F JUMPI PUSH2 0x4B4E PUSH2 0x4ABD JUMP JUMPDEST JUMPDEST PUSH2 0x4B58 DUP3 PUSH2 0x49CB JUMP JUMPDEST SWAP1 POP PUSH1 0x20 DUP2 ADD SWAP1 POP SWAP2 SWAP1 POP JUMP JUMPDEST DUP3 DUP2 DUP4 CALLDATACOPY PUSH0 DUP4 DUP4 ADD MSTORE POP POP POP JUMP JUMPDEST PUSH0 PUSH2 0x4B85 PUSH2 0x4B80 DUP5 PUSH2 0x4B35 JUMP JUMPDEST PUSH2 0x4B1B JUMP JUMPDEST SWAP1 POP DUP3 DUP2 MSTORE PUSH1 0x20 DUP2 ADD DUP5 DUP5 DUP5 ADD GT ISZERO PUSH2 0x4BA1 JUMPI PUSH2 0x4BA0 PUSH2 0x4AB9 JUMP JUMPDEST JUMPDEST PUSH2 0x4BAC DUP5 DUP3 DUP6 PUSH2 0x4B65 JUMP JUMPDEST POP SWAP4 SWAP3 POP POP POP JUMP JUMPDEST PUSH0 DUP3 PUSH1 0x1F DUP4 ADD SLT PUSH2 0x4BC8 JUMPI PUSH2 0x4BC7 PUSH2 0x4AB5 JUMP JUMPDEST JUMPDEST DUP2 CALLDATALOAD PUSH2 0x4BD8 DUP5 DUP3 PUSH1 0x20 DUP7 ADD PUSH2 0x4B73 JUMP JUMPDEST SWAP2 POP POP SWAP3 SWAP2 POP POP JUMP JUMPDEST PUSH0 PUSH0 PUSH0 PUSH0 PUSH1 0x80 DUP6 DUP8 SUB SLT ISZERO PUSH2 0x4BF9 JUMPI PUSH2 0x4BF8 PUSH2 0x4862 JUMP JUMPDEST JUMPDEST PUSH0 PUSH2 0x4C06 DUP8 DUP3 DUP9 ADD PUSH2 0x4AA1 JUMP JUMPDEST SWAP5 POP POP PUSH1 0x20 PUSH2 0x4C17 DUP8 DUP3 DUP9 ADD PUSH2 0x4AA1 JUMP JUMPDEST SWAP4 POP POP PUSH1 0x40 PUSH2 0x4C28 DUP8 DUP3 DUP9 ADD PUSH2 0x4964 JUMP JUMPDEST SWAP3 POP POP PUSH1 0x60 DUP6 ADD CALLDATALOAD PUSH8 0xFFFFFFFFFFFFFFFF DUP2 GT ISZERO PUSH2 0x4C49 JUMPI PUSH2 0x4C48 PUSH2 0x4866 JUMP JUMPDEST JUMPDEST PUSH2 0x4C55 DUP8 DUP3 DUP9 ADD PUSH2 0x4BB4 JUMP JUMPDEST SWAP2 POP POP SWAP3 SWAP6 SWAP2 SWAP5 POP SWAP3 POP JUMP JUMPDEST PUSH2 0x4C6A DUP2 PUSH2 0x486A JUMP JUMPDEST DUP3 MSTORE POP POP JUMP JUMPDEST PUSH0 PUSH1 0x20 DUP3 ADD SWAP1 POP PUSH2 0x4C83 PUSH0 DUP4 ADD DUP5 PUSH2 0x4C61 JUMP JUMPDEST SWAP3 SWAP2 POP POP JUMP JUMPDEST PUSH0 PUSH8 0xFFFFFFFFFFFFFFFF DUP3 GT ISZERO PUSH2 0x4CA3 JUMPI PUSH2 0x4CA2 PUSH2 0x4ABD JUMP JUMPDEST JUMPDEST PUSH1 0x20 DUP3 MUL SWAP1 POP PUSH1 0x20 DUP2 ADD SWAP1 POP SWAP2 SWAP1 POP JUMP JUMPDEST PUSH0 PUSH0 REVERT JUMPDEST PUSH0 PUSH2 0x4CCA PUSH2 0x4CC5 DUP5 PUSH2 0x4C89 JUMP JUMPDEST PUSH2 0x4B1B JUMP JUMPDEST SWAP1 POP DUP1 DUP4 DUP3 MSTORE PUSH1 0x20 DUP3 ADD SWAP1 POP PUSH1 0x20 DUP5 MUL DUP4 ADD DUP6 DUP2 GT ISZERO PUSH2 0x4CED JUMPI PUSH2 0x4CEC PUSH2 0x4CB4 JUMP JUMPDEST JUMPDEST DUP4 JUMPDEST DUP2 DUP2 LT ISZERO PUSH2 0x4D16 JUMPI DUP1 PUSH2 0x4D02 DUP9 DUP3 PUSH2 0x4AA1 JUMP JUMPDEST DUP5 MSTORE PUSH1 0x20 DUP5 ADD SWAP4 POP POP PUSH1 0x20 DUP2 ADD SWAP1 POP PUSH2 0x4CEF JUMP JUMPDEST POP POP POP SWAP4 SWAP3 POP POP POP JUMP JUMPDEST PUSH0 DUP3 PUSH1 0x1F DUP4 ADD SLT PUSH2 0x4D34 JUMPI PUSH2 0x4D33 PUSH2 0x4AB5 JUMP JUMPDEST JUMPDEST DUP2 CALLDATALOAD PUSH2 0x4D44 DUP5 DUP3 PUSH1 0x20 DUP7 ADD PUSH2 0x4CB8 JUMP JUMPDEST SWAP2 POP POP SWAP3 SWAP2 POP POP JUMP JUMPDEST PUSH0 PUSH8 0xFFFFFFFFFFFFFFFF DUP3 GT ISZERO PUSH2 0x4D67 JUMPI PUSH2 0x4D66 PUSH2 0x4ABD JUMP JUMPDEST JUMPDEST PUSH1 0x20 DUP3 MUL SWAP1 POP PUSH1 0x20 DUP2 ADD SWAP1 POP SWAP2 SWAP1 POP JUMP JUMPDEST PUSH0 PUSH2 0x4D8A PUSH2 0x4D85 DUP5 PUSH2 0x4D4D JUMP JUMPDEST PUSH2 0x4B1B JUMP JUMPDEST SWAP1 POP DUP1 DUP4 DUP3 MSTORE PUSH1 0x20 DUP3 ADD SWAP1 POP PUSH1 0x20 DUP5 MUL DUP4 ADD DUP6 DUP2 GT ISZERO PUSH2 0x4DAD JUMPI PUSH2 0x4DAC PUSH2 0x4CB4 JUMP JUMPDEST JUMPDEST DUP4 JUMPDEST DUP2 DUP2 LT ISZERO PUSH2 0x4DD6 JUMPI DUP1 PUSH2 0x4DC2 DUP9 DUP3 PUSH2 0x4964 JUMP JUMPDEST DUP5 MSTORE PUSH1 0x20 DUP5 ADD SWAP4 POP POP PUSH1 0x20 DUP2 ADD SWAP1 POP PUSH2 0x4DAF JUMP JUMPDEST POP POP POP SWAP4 SWAP3 POP POP POP JUMP JUMPDEST PUSH0 DUP3 PUSH1 0x1F DUP4 ADD SLT PUSH2 0x4DF4 JUMPI PUSH2 0x4DF3 PUSH2 0x4AB5 JUMP JUMPDEST JUMPDEST DUP2 CALLDATALOAD PUSH2 0x4E04 DUP5 DUP3 PUSH1 0x20 DUP7 ADD PUSH2 0x4D78 JUMP JUMPDEST SWAP2 POP POP SWAP3 SWAP2 POP POP JUMP JUMPDEST PUSH0 PUSH8 0xFFFFFFFFFFFFFFFF DUP3 GT ISZERO PUSH2 0x4E27 JUMPI PUSH2 0x4E26 PUSH2 0x4ABD JUMP JUMPDEST JUMPDEST PUSH1 0x20 DUP3 MUL SWAP1 POP PUSH1 0x20 DUP2 ADD SWAP1 POP SWAP2 SWAP1 POP JUMP JUMPDEST PUSH0 PUSH2 0x4E4A PUSH2 0x4E45 DUP5 PUSH2 0x4E0D JUMP JUMPDEST PUSH2 0x4B1B JUMP JUMPDEST SWAP1 POP DUP1 DUP4 DUP3 MSTORE PUSH1 0x20 DUP3 ADD SWAP1 POP PUSH1 0x20 DUP5 MUL DUP4 ADD DUP6 DUP2 GT ISZERO PUSH2 0x4E6D JUMPI PUSH2 0x4E6C PUSH2 0x4CB4 JUMP JUMPDEST JUMPDEST DUP4 JUMPDEST DUP2 DUP2 LT ISZERO PUSH2 0x4EB4 JUMPI DUP1 CALLDATALOAD PUSH8 0xFFFFFFFFFFFFFFFF DUP2 GT ISZERO PUSH2 0x4E92 JUMPI PUSH2 0x4E91 PUSH2 0x4AB5 JUMP JUMPDEST JUMPDEST DUP1 DUP7 ADD PUSH2 0x4E9F DUP10 DUP3 PUSH2 0x4BB4 JUMP JUMPDEST DUP6 MSTORE PUSH1 0x20 DUP6 ADD SWAP5 POP POP POP PUSH1 0x20 DUP2 ADD SWAP1 POP PUSH2 0x4E6F JUMP JUMPDEST POP POP POP SWAP4 SWAP3 POP POP POP JUMP JUMPDEST PUSH0 DUP3 PUSH1 0x1F DUP4 ADD SLT PUSH2 0x4ED2 JUMPI PUSH2 0x4ED1 PUSH2 0x4AB5 JUMP JUMPDEST JUMPDEST DUP2 CALLDATALOAD PUSH2 0x4EE2 DUP5 DUP3 PUSH1 0x20 DUP7 ADD PUSH2 0x4E38 JUMP JUMPDEST SWAP2 POP POP SWAP3 SWAP2 POP POP JUMP JUMPDEST PUSH0 DUP2 SWAP1 POP SWAP2 SWAP1 POP JUMP JUMPDEST PUSH2 0x4EFD DUP2 PUSH2 0x4EEB JUMP JUMPDEST DUP2 EQ PUSH2 0x4F07 JUMPI PUSH0 PUSH0 REVERT JUMPDEST POP JUMP JUMPDEST PUSH0 DUP2 CALLDATALOAD SWAP1 POP PUSH2 0x4F18 DUP2 PUSH2 0x4EF4 JUMP JUMPDEST SWAP3 SWAP2 POP POP JUMP JUMPDEST PUSH0 PUSH0 PUSH0 PUSH0 PUSH1 0x80 DUP6 DUP8 SUB SLT ISZERO PUSH2 0x4F36 JUMPI PUSH2 0x4F35 PUSH2 0x4862 JUMP JUMPDEST JUMPDEST PUSH0 DUP6 ADD CALLDATALOAD PUSH8 0xFFFFFFFFFFFFFFFF DUP2 GT ISZERO PUSH2 0x4F53 JUMPI PUSH2 0x4F52 PUSH2 0x4866 JUMP JUMPDEST JUMPDEST PUSH2 0x4F5F DUP8 DUP3 DUP9 ADD PUSH2 0x4D20 JUMP JUMPDEST SWAP5 POP POP PUSH1 0x20 DUP6 ADD CALLDATALOAD PUSH8 0xFFFFFFFFFFFFFFFF DUP2 GT ISZERO PUSH2 0x4F80 JUMPI PUSH2 0x4F7F PUSH2 0x4866 JUMP JUMPDEST JUMPDEST PUSH2 0x4F8C DUP8 DUP3 DUP9 ADD PUSH2 0x4DE0 JUMP JUMPDEST SWAP4 POP POP PUSH1 0x40 DUP6 ADD CALLDATALOAD PUSH8 0xFFFFFFFFFFFFFFFF DUP2 GT ISZERO PUSH2 0x4FAD JUMPI PUSH2 0x4FAC PUSH2 0x4866 JUMP JUMPDEST JUMPDEST PUSH2 0x4FB9 DUP8 DUP3 DUP9 ADD PUSH2 0x4EBE JUMP JUMPDEST SWAP3 POP POP PUSH1 0x60 PUSH2 0x4FCA DUP8 DUP3 DUP9 ADD PUSH2 0x4F0A JUMP JUMPDEST SWAP2 POP POP SWAP3 SWAP6 SWAP2 SWAP5 POP SWAP3 POP JUMP JUMPDEST PUSH2 0x4FDF DUP2 PUSH2 0x4EEB JUMP JUMPDEST DUP3 MSTORE POP POP JUMP JUMPDEST PUSH0 PUSH1 0x20 DUP3 ADD SWAP1 POP PUSH2 0x4FF8 PUSH0 DUP4 ADD DUP5 PUSH2 0x4FD6 JUMP JUMPDEST SWAP3 SWAP2 POP POP JUMP JUMPDEST PUSH32 0x4E487B7100000000000000000000000000000000000000000000000000000000 PUSH0 MSTORE PUSH1 0x21 PUSH1 0x4 MSTORE PUSH1 0x24 PUSH0 REVERT JUMPDEST PUSH1 0x8 DUP2 LT PUSH2 0x503C JUMPI PUSH2 0x503B PUSH2 0x4FFE JUMP JUMPDEST JUMPDEST POP JUMP JUMPDEST PUSH0 DUP2 SWAP1 POP PUSH2 0x504C DUP3 PUSH2 0x502B JUMP JUMPDEST SWAP2 SWAP1 POP JUMP JUMPDEST PUSH0 PUSH2 0x505B DUP3 PUSH2 0x503F JUMP JUMPDEST SWAP1 POP SWAP2 SWAP1 POP JUMP JUMPDEST PUSH2 0x506B DUP2 PUSH2 0x5051 JUMP JUMPDEST DUP3 MSTORE POP POP JUMP JUMPDEST PUSH0 PUSH1 0x20 DUP3 ADD SWAP1 POP PUSH2 0x5084 PUSH0 DUP4 ADD DUP5 PUSH2 0x5062 JUMP JUMPDEST SWAP3 SWAP2 POP POP JUMP JUMPDEST PUSH0 PUSH0 PUSH1 0x40 DUP4 DUP6 SUB SLT ISZERO PUSH2 0x50A0 JUMPI PUSH2 0x509F PUSH2 0x4862 JUMP JUMPDEST JUMPDEST PUSH0 PUSH2 0x50AD DUP6 DUP3 DUP7 ADD PUSH2 0x4964 JUMP JUMPDEST SWAP3 POP POP PUSH1 0x20 PUSH2 0x50BE DUP6 DUP3 DUP7 ADD PUSH2 0x4AA1 JUMP JUMPDEST SWAP2 POP POP SWAP3 POP SWAP3 SWAP1 POP JUMP JUMPDEST PUSH0 PUSH1 0x60 DUP3 ADD SWAP1 POP PUSH2 0x50DB PUSH0 DUP4 ADD DUP7 PUSH2 0x4926 JUMP JUMPDEST PUSH2 0x50E8 PUSH1 0x20 DUP4 ADD DUP6 PUSH2 0x4926 JUMP JUMPDEST PUSH2 0x50F5 PUSH1 0x40 DUP4 ADD DUP5 PUSH2 0x4926 JUMP JUMPDEST SWAP5 SWAP4 POP POP POP POP JUMP JUMPDEST PUSH0 PUSH1 0xFF DUP3 AND SWAP1 POP SWAP2 SWAP1 POP JUMP JUMPDEST PUSH2 0x5112 DUP2 PUSH2 0x50FD JUMP JUMPDEST DUP2 EQ PUSH2 0x511C JUMPI PUSH0 PUSH0 REVERT JUMPDEST POP JUMP JUMPDEST PUSH0 DUP2 CALLDATALOAD SWAP1 POP PUSH2 0x512D DUP2 PUSH2 0x5109 JUMP JUMPDEST SWAP3 SWAP2 POP POP JUMP JUMPDEST PUSH0 PUSH0 PUSH1 0x40 DUP4 DUP6 SUB SLT ISZERO PUSH2 0x5149 JUMPI PUSH2 0x5148 PUSH2 0x4862 JUMP JUMPDEST JUMPDEST PUSH0 PUSH2 0x5156 DUP6 DUP3 DUP7 ADD PUSH2 0x4964 JUMP JUMPDEST SWAP3 POP POP PUSH1 0x20 PUSH2 0x5167 DUP6 DUP3 DUP7 ADD PUSH2 0x511F JUMP JUMPDEST SWAP2 POP POP SWAP3 POP SWAP3 SWAP1 POP JUMP JUMPDEST PUSH0 PUSH0 REVERT JUMPDEST PUSH0 PUSH0 DUP4 PUSH1 0x1F DUP5 ADD SLT PUSH2 0x518A JUMPI PUSH2 0x5189 PUSH2 0x4AB5 JUMP JUMPDEST JUMPDEST DUP3 CALLDATALOAD SWAP1 POP PUSH8 0xFFFFFFFFFFFFFFFF DUP2 GT ISZERO PUSH2 0x51A7 JUMPI PUSH2 0x51A6 PUSH2 0x5171 JUMP JUMPDEST JUMPDEST PUSH1 0x20 DUP4 ADD SWAP2 POP DUP4 PUSH1 0x1 DUP3 MUL DUP4 ADD GT ISZERO PUSH2 0x51C3 JUMPI PUSH2 0x51C2 PUSH2 0x4CB4 JUMP JUMPDEST JUMPDEST SWAP3 POP SWAP3 SWAP1 POP JUMP JUMPDEST PUSH0 PUSH0 PUSH0 PUSH0 PUSH0 PUSH0 PUSH0 PUSH1 0xC0 DUP9 DUP11 SUB SLT ISZERO PUSH2 0x51E5 JUMPI PUSH2 0x51E4 PUSH2 0x4862 JUMP JUMPDEST JUMPDEST PUSH0 PUSH2 0x51F2 DUP11 DUP3 DUP12 ADD PUSH2 0x4964 JUMP JUMPDEST SWAP8 POP POP PUSH1 0x20 PUSH2 0x5203 DUP11 DUP3 DUP12 ADD PUSH2 0x511F JUMP JUMPDEST SWAP7 POP POP PUSH1 0x40 PUSH2 0x5214 DUP11 DUP3 DUP12 ADD PUSH2 0x4AA1 JUMP JUMPDEST SWAP6 POP POP PUSH1 0x60 DUP9 ADD CALLDATALOAD PUSH8 0xFFFFFFFFFFFFFFFF DUP2 GT ISZERO PUSH2 0x5235 JUMPI PUSH2 0x5234 PUSH2 0x4866 JUMP JUMPDEST JUMPDEST PUSH2 0x5241 DUP11 DUP3 DUP12 ADD PUSH2 0x5175 JUMP JUMPDEST SWAP5 POP SWAP5 POP POP PUSH1 0x80 DUP9 ADD CALLDATALOAD PUSH8 0xFFFFFFFFFFFFFFFF DUP2 GT ISZERO PUSH2 0x5264 JUMPI PUSH2 0x5263 PUSH2 0x4866 JUMP JUMPDEST JUMPDEST PUSH2 0x5270 DUP11 DUP3 DUP12 ADD PUSH2 0x4BB4 JUMP JUMPDEST SWAP3 POP POP PUSH1 0xA0 DUP9 ADD CALLDATALOAD PUSH8 0xFFFFFFFFFFFFFFFF DUP2 GT ISZERO PUSH2 0x5291 JUMPI PUSH2 0x5290 PUSH2 0x4866 JUMP JUMPDEST JUMPDEST PUSH2 0x529D DUP11 DUP3 DUP12 ADD PUSH2 0x4BB4 JUMP JUMPDEST SWAP2 POP POP SWAP3 SWAP6 SWAP9 SWAP2 SWAP5 SWAP8 POP SWAP3 SWAP6 POP JUMP JUMPDEST PUSH0 PUSH0 PUSH0 PUSH0 PUSH0 PUSH1 0x80 DUP7 DUP9 SUB SLT ISZERO PUSH2 0x52C5 JUMPI PUSH2 0x52C4 PUSH2 0x4862 JUMP JUMPDEST JUMPDEST PUSH0 PUSH2 0x52D2 DUP9 DUP3 DUP10 ADD PUSH2 0x4964 JUMP JUMPDEST SWAP6 POP POP PUSH1 0x20 PUSH2 0x52E3 DUP9 DUP3 DUP10 ADD PUSH2 0x511F JUMP JUMPDEST SWAP5 POP POP PUSH1 0x40 DUP7 ADD CALLDATALOAD PUSH8 0xFFFFFFFFFFFFFFFF DUP2 GT ISZERO PUSH2 0x5304 JUMPI PUSH2 0x5303 PUSH2 0x4866 JUMP JUMPDEST JUMPDEST PUSH2 0x5310 DUP9 DUP3 DUP10 ADD PUSH2 0x5175 JUMP JUMPDEST SWAP4 POP SWAP4 POP POP PUSH1 0x60 DUP7 ADD CALLDATALOAD PUSH8 0xFFFFFFFFFFFFFFFF DUP2 GT ISZERO PUSH2 0x5333 JUMPI PUSH2 0x5332 PUSH2 0x4866 JUMP JUMPDEST JUMPDEST PUSH2 0x533F DUP9 DUP3 DUP10 ADD PUSH2 0x4BB4 JUMP JUMPDEST SWAP2 POP POP SWAP3 SWAP6 POP SWAP3 SWAP6 SWAP1 SWAP4 POP JUMP JUMPDEST PUSH0 PUSH6 0xFFFFFFFFFFFF DUP3 AND SWAP1 POP SWAP2 SWAP1 POP JUMP JUMPDEST PUSH2 0x5366 DUP2 PUSH2 0x534C JUMP JUMPDEST DUP2 EQ PUSH2 0x5370 JUMPI PUSH0 PUSH0 REVERT JUMPDEST POP JUMP JUMPDEST PUSH0 DUP2 CALLDATALOAD SWAP1 POP PUSH2 0x5381 DUP2 PUSH2 0x535D JUMP JUMPDEST SWAP3 SWAP2 POP POP JUMP JUMPDEST PUSH0 PUSH1 0x20 DUP3 DUP5 SUB SLT ISZERO PUSH2 0x539C JUMPI PUSH2 0x539B PUSH2 0x4862 JUMP JUMPDEST JUMPDEST PUSH0 PUSH2 0x53A9 DUP5 DUP3 DUP6 ADD PUSH2 0x5373 JUMP JUMPDEST SWAP2 POP POP SWAP3 SWAP2 POP POP JUMP JUMPDEST PUSH0 PUSH0 PUSH0 PUSH0 PUSH1 0x60 DUP6 DUP8 SUB SLT ISZERO PUSH2 0x53CA JUMPI PUSH2 0x53C9 PUSH2 0x4862 JUMP JUMPDEST JUMPDEST PUSH0 PUSH2 0x53D7 DUP8 DUP3 DUP9 ADD PUSH2 0x4964 JUMP JUMPDEST SWAP5 POP POP PUSH1 0x20 PUSH2 0x53E8 DUP8 DUP3 DUP9 ADD PUSH2 0x511F JUMP JUMPDEST SWAP4 POP POP PUSH1 0x40 DUP6 ADD CALLDATALOAD PUSH8 0xFFFFFFFFFFFFFFFF DUP2 GT ISZERO PUSH2 0x5409 JUMPI PUSH2 0x5408 PUSH2 0x4866 JUMP JUMPDEST JUMPDEST PUSH2 0x5415 DUP8 DUP3 DUP9 ADD PUSH2 0x5175 JUMP JUMPDEST SWAP3 POP SWAP3 POP POP SWAP3 SWAP6 SWAP2 SWAP5 POP SWAP3 POP JUMP JUMPDEST PUSH0 PUSH8 0xFFFFFFFFFFFFFFFF DUP3 GT ISZERO PUSH2 0x543D JUMPI PUSH2 0x543C PUSH2 0x4ABD JUMP JUMPDEST JUMPDEST PUSH2 0x5446 DUP3 PUSH2 0x49CB JUMP JUMPDEST SWAP1 POP PUSH1 0x20 DUP2 ADD SWAP1 POP SWAP2 SWAP1 POP JUMP JUMPDEST PUSH0 PUSH2 0x5465 PUSH2 0x5460 DUP5 PUSH2 0x5423 JUMP JUMPDEST PUSH2 0x4B1B JUMP JUMPDEST SWAP1 POP DUP3 DUP2 MSTORE PUSH1 0x20 DUP2 ADD DUP5 DUP5 DUP5 ADD GT ISZERO PUSH2 0x5481 JUMPI PUSH2 0x5480 PUSH2 0x4AB9 JUMP JUMPDEST JUMPDEST PUSH2 0x548C DUP5 DUP3 DUP6 PUSH2 0x4B65 JUMP JUMPDEST POP SWAP4 SWAP3 POP POP POP JUMP JUMPDEST PUSH0 DUP3 PUSH1 0x1F DUP4 ADD SLT PUSH2 0x54A8 JUMPI PUSH2 0x54A7 PUSH2 0x4AB5 JUMP JUMPDEST JUMPDEST DUP2 CALLDATALOAD PUSH2 0x54B8 DUP5 DUP3 PUSH1 0x20 DUP7 ADD PUSH2 0x5453 JUMP JUMPDEST SWAP2 POP POP SWAP3 SWAP2 POP POP JUMP JUMPDEST PUSH0 PUSH0 PUSH0 PUSH0 PUSH1 0x80 DUP6 DUP8 SUB SLT ISZERO PUSH2 0x54D9 JUMPI PUSH2 0x54D8 PUSH2 0x4862 JUMP JUMPDEST JUMPDEST PUSH0 DUP6 ADD CALLDATALOAD PUSH8 0xFFFFFFFFFFFFFFFF DUP2 GT ISZERO PUSH2 0x54F6 JUMPI PUSH2 0x54F5 PUSH2 0x4866 JUMP JUMPDEST JUMPDEST PUSH2 0x5502 DUP8 DUP3 DUP9 ADD PUSH2 0x4D20 JUMP JUMPDEST SWAP5 POP POP PUSH1 0x20 DUP6 ADD CALLDATALOAD PUSH8 0xFFFFFFFFFFFFFFFF DUP2 GT ISZERO PUSH2 0x5523 JUMPI PUSH2 0x5522 PUSH2 0x4866 JUMP JUMPDEST JUMPDEST PUSH2 0x552F DUP8 DUP3 DUP9 ADD PUSH2 0x4DE0 JUMP JUMPDEST SWAP4 POP POP PUSH1 0x40 DUP6 ADD CALLDATALOAD PUSH8 0xFFFFFFFFFFFFFFFF DUP2 GT ISZERO PUSH2 0x5550 JUMPI PUSH2 0x554F PUSH2 0x4866 JUMP JUMPDEST JUMPDEST PUSH2 0x555C DUP8 DUP3 DUP9 ADD PUSH2 0x4EBE JUMP JUMPDEST SWAP3 POP POP PUSH1 0x60 DUP6 ADD CALLDATALOAD PUSH8 0xFFFFFFFFFFFFFFFF DUP2 GT ISZERO PUSH2 0x557D JUMPI PUSH2 0x557C PUSH2 0x4866 JUMP JUMPDEST JUMPDEST PUSH2 0x5589 DUP8 DUP3 DUP9 ADD PUSH2 0x5494 JUMP JUMPDEST SWAP2 POP POP SWAP3 SWAP6 SWAP2 SWAP5 POP SWAP3 POP JUMP JUMPDEST PUSH0 PUSH1 0x20 DUP3 DUP5 SUB SLT ISZERO PUSH2 0x55AA JUMPI PUSH2 0x55A9 PUSH2 0x4862 JUMP JUMPDEST JUMPDEST PUSH0 PUSH2 0x55B7 DUP5 DUP3 DUP6 ADD PUSH2 0x4AA1 JUMP JUMPDEST SWAP2 POP POP SWAP3 SWAP2 POP POP JUMP JUMPDEST PUSH0 PUSH32 0xFF00000000000000000000000000000000000000000000000000000000000000 DUP3 AND SWAP1 POP SWAP2 SWAP1 POP JUMP JUMPDEST PUSH2 0x55F4 DUP2 PUSH2 0x55C0 JUMP JUMPDEST DUP3 MSTORE POP POP JUMP JUMPDEST PUSH0 DUP2 MLOAD SWAP1 POP SWAP2 SWAP1 POP JUMP JUMPDEST PUSH0 DUP3 DUP3 MSTORE PUSH1 0x20 DUP3 ADD SWAP1 POP SWAP3 SWAP2 POP POP JUMP JUMPDEST PUSH0 DUP2 SWAP1 POP PUSH1 0x20 DUP3 ADD SWAP1 POP SWAP2 SWAP1 POP JUMP JUMPDEST PUSH2 0x562C DUP2 PUSH2 0x491D JUMP JUMPDEST DUP3 MSTORE POP POP JUMP JUMPDEST PUSH0 PUSH2 0x563D DUP4 DUP4 PUSH2 0x5623 JUMP JUMPDEST PUSH1 0x20 DUP4 ADD SWAP1 POP SWAP3 SWAP2 POP POP JUMP JUMPDEST PUSH0 PUSH1 0x20 DUP3 ADD SWAP1 POP SWAP2 SWAP1 POP JUMP JUMPDEST PUSH0 PUSH2 0x565F DUP3 PUSH2 0x55FA JUMP JUMPDEST PUSH2 0x5669 DUP2 DUP6 PUSH2 0x5604 JUMP JUMPDEST SWAP4 POP PUSH2 0x5674 DUP4 PUSH2 0x5614 JUMP JUMPDEST DUP1 PUSH0 JUMPDEST DUP4 DUP2 LT ISZERO PUSH2 0x56A4 JUMPI DUP2 MLOAD PUSH2 0x568B DUP9 DUP3 PUSH2 0x5632 JUMP JUMPDEST SWAP8 POP PUSH2 0x5696 DUP4 PUSH2 0x5649 JUMP JUMPDEST SWAP3 POP POP PUSH1 0x1 DUP2 ADD SWAP1 POP PUSH2 0x5677 JUMP JUMPDEST POP DUP6 SWAP4 POP POP POP POP SWAP3 SWAP2 POP POP JUMP JUMPDEST PUSH0 PUSH1 0xE0 DUP3 ADD SWAP1 POP PUSH2 0x56C4 PUSH0 DUP4 ADD DUP11 PUSH2 0x55EB JUMP JUMPDEST DUP2 DUP2 SUB PUSH1 0x20 DUP4 ADD MSTORE PUSH2 0x56D6 DUP2 DUP10 PUSH2 0x49DB JUMP JUMPDEST SWAP1 POP DUP2 DUP2 SUB PUSH1 0x40 DUP4 ADD MSTORE PUSH2 0x56EA DUP2 DUP9 PUSH2 0x49DB JUMP JUMPDEST SWAP1 POP PUSH2 0x56F9 PUSH1 0x60 DUP4 ADD DUP8 PUSH2 0x4926 JUMP JUMPDEST PUSH2 0x5706 PUSH1 0x80 DUP4 ADD DUP7 PUSH2 0x4A63 JUMP JUMPDEST PUSH2 0x5713 PUSH1 0xA0 DUP4 ADD DUP6 PUSH2 0x4FD6 JUMP JUMPDEST DUP2 DUP2 SUB PUSH1 0xC0 DUP4 ADD MSTORE PUSH2 0x5725 DUP2 DUP5 PUSH2 0x5655 JUMP JUMPDEST SWAP1 POP SWAP9 SWAP8 POP POP POP POP POP POP POP POP JUMP JUMPDEST PUSH0 PUSH0 PUSH0 PUSH0 PUSH1 0x80 DUP6 DUP8 SUB SLT ISZERO PUSH2 0x574B JUMPI PUSH2 0x574A PUSH2 0x4862 JUMP JUMPDEST JUMPDEST PUSH0 PUSH2 0x5758 DUP8 DUP3 DUP9 ADD PUSH2 0x4964 JUMP JUMPDEST SWAP5 POP POP PUSH1 0x20 PUSH2 0x5769 DUP8 DUP3 DUP9 ADD PUSH2 0x511F JUMP JUMPDEST SWAP4 POP POP PUSH1 0x40 PUSH2 0x577A DUP8 DUP3 DUP9 ADD PUSH2 0x4AA1 JUMP JUMPDEST SWAP3 POP POP PUSH1 0x60 DUP6 ADD CALLDATALOAD PUSH8 0xFFFFFFFFFFFFFFFF DUP2 GT ISZERO PUSH2 0x579B JUMPI PUSH2 0x579A PUSH2 0x4866 JUMP JUMPDEST JUMPDEST PUSH2 0x57A7 DUP8 DUP3 DUP9 ADD PUSH2 0x4BB4 JUMP JUMPDEST SWAP2 POP POP SWAP3 SWAP6 SWAP2 SWAP5 POP SWAP3 POP JUMP JUMPDEST PUSH2 0x57BC DUP2 PUSH2 0x534C JUMP JUMPDEST DUP3 MSTORE POP POP JUMP JUMPDEST PUSH0 PUSH1 0x20 DUP3 ADD SWAP1 POP PUSH2 0x57D5 PUSH0 DUP4 ADD DUP5 PUSH2 0x57B3 JUMP JUMPDEST SWAP3 SWAP2 POP POP JUMP JUMPDEST PUSH0 PUSH0 PUSH0 PUSH1 0x60 DUP5 DUP7 SUB SLT ISZERO PUSH2 0x57F2 JUMPI PUSH2 0x57F1 PUSH2 0x4862 JUMP JUMPDEST JUMPDEST PUSH0 PUSH2 0x57FF DUP7 DUP3 DUP8 ADD PUSH2 0x4AA1 JUMP JUMPDEST SWAP4 POP POP PUSH1 0x20 PUSH2 0x5810 DUP7 DUP3 DUP8 ADD PUSH2 0x4964 JUMP JUMPDEST SWAP3 POP POP PUSH1 0x40 DUP5 ADD CALLDATALOAD PUSH8 0xFFFFFFFFFFFFFFFF DUP2 GT ISZERO PUSH2 0x5831 JUMPI PUSH2 0x5830 PUSH2 0x4866 JUMP JUMPDEST JUMPDEST PUSH2 0x583D DUP7 DUP3 DUP8 ADD PUSH2 0x4BB4 JUMP JUMPDEST SWAP2 POP POP SWAP3 POP SWAP3 POP SWAP3 JUMP JUMPDEST PUSH0 PUSH2 0x5851 DUP3 PUSH2 0x4A33 JUMP JUMPDEST SWAP1 POP SWAP2 SWAP1 POP JUMP JUMPDEST PUSH0 PUSH2 0x5862 DUP3 PUSH2 0x5847 JUMP JUMPDEST SWAP1 POP SWAP2 SWAP1 POP JUMP JUMPDEST PUSH2 0x5872 DUP2 PUSH2 0x5858 JUMP JUMPDEST DUP2 EQ PUSH2 0x587C JUMPI PUSH0 PUSH0 REVERT JUMPDEST POP JUMP JUMPDEST PUSH0 DUP2 CALLDATALOAD SWAP1 POP PUSH2 0x588D DUP2 PUSH2 0x5869 JUMP JUMPDEST SWAP3 SWAP2 POP POP JUMP JUMPDEST PUSH0 PUSH1 0x20 DUP3 DUP5 SUB SLT ISZERO PUSH2 0x58A8 JUMPI PUSH2 0x58A7 PUSH2 0x4862 JUMP JUMPDEST JUMPDEST PUSH0 PUSH2 0x58B5 DUP5 DUP3 DUP6 ADD PUSH2 0x587F JUMP JUMPDEST SWAP2 POP POP SWAP3 SWAP2 POP POP JUMP JUMPDEST PUSH0 PUSH0 PUSH0 PUSH0 PUSH0 PUSH1 0xA0 DUP7 DUP9 SUB SLT ISZERO PUSH2 0x58D7 JUMPI PUSH2 0x58D6 PUSH2 0x4862 JUMP JUMPDEST JUMPDEST PUSH0 PUSH2 0x58E4 DUP9 DUP3 DUP10 ADD PUSH2 0x4AA1 JUMP JUMPDEST SWAP6 POP POP PUSH1 0x20 PUSH2 0x58F5 DUP9 DUP3 DUP10 ADD PUSH2 0x4AA1 JUMP JUMPDEST SWAP5 POP POP PUSH1 0x40 DUP7 ADD CALLDATALOAD PUSH8 0xFFFFFFFFFFFFFFFF DUP2 GT ISZERO PUSH2 0x5916 JUMPI PUSH2 0x5915 PUSH2 0x4866 JUMP JUMPDEST JUMPDEST PUSH2 0x5922 DUP9 DUP3 DUP10 ADD PUSH2 0x4DE0 JUMP JUMPDEST SWAP4 POP POP PUSH1 0x60 DUP7 ADD CALLDATALOAD PUSH8 0xFFFFFFFFFFFFFFFF DUP2 GT ISZERO PUSH2 0x5943 JUMPI PUSH2 0x5942 PUSH2 0x4866 JUMP JUMPDEST JUMPDEST PUSH2 0x594F DUP9 DUP3 DUP10 ADD PUSH2 0x4DE0 JUMP JUMPDEST SWAP3 POP POP PUSH1 0x80 DUP7 ADD CALLDATALOAD PUSH8 0xFFFFFFFFFFFFFFFF DUP2 GT ISZERO PUSH2 0x5970 JUMPI PUSH2 0x596F PUSH2 0x4866 JUMP JUMPDEST JUMPDEST PUSH2 0x597C DUP9 DUP3 DUP10 ADD PUSH2 0x4BB4 JUMP JUMPDEST SWAP2 POP POP SWAP3 SWAP6 POP SWAP3 SWAP6 SWAP1 SWAP4 POP JUMP JUMPDEST PUSH0 PUSH0 DUP4 PUSH1 0x1F DUP5 ADD SLT PUSH2 0x599E JUMPI PUSH2 0x599D PUSH2 0x4AB5 JUMP JUMPDEST JUMPDEST DUP3 CALLDATALOAD SWAP1 POP PUSH8 0xFFFFFFFFFFFFFFFF DUP2 GT ISZERO PUSH2 0x59BB JUMPI PUSH2 0x59BA PUSH2 0x5171 JUMP JUMPDEST JUMPDEST PUSH1 0x20 DUP4 ADD SWAP2 POP DUP4 PUSH1 0x1 DUP3 MUL DUP4 ADD GT ISZERO PUSH2 0x59D7 JUMPI PUSH2 0x59D6 PUSH2 0x4CB4 JUMP JUMPDEST JUMPDEST SWAP3 POP SWAP3 SWAP1 POP JUMP JUMPDEST PUSH0 PUSH0 PUSH0 PUSH0 PUSH1 0x60 DUP6 DUP8 SUB SLT ISZERO PUSH2 0x59F6 JUMPI PUSH2 0x59F5 PUSH2 0x4862 JUMP JUMPDEST JUMPDEST PUSH0 PUSH2 0x5A03 DUP8 DUP3 DUP9 ADD PUSH2 0x4AA1 JUMP JUMPDEST SWAP5 POP POP PUSH1 0x20 PUSH2 0x5A14 DUP8 DUP3 DUP9 ADD PUSH2 0x4964 JUMP JUMPDEST SWAP4 POP POP PUSH1 0x40 DUP6 ADD CALLDATALOAD PUSH8 0xFFFFFFFFFFFFFFFF DUP2 GT ISZERO PUSH2 0x5A35 JUMPI PUSH2 0x5A34 PUSH2 0x4866 JUMP JUMPDEST JUMPDEST PUSH2 0x5A41 DUP8 DUP3 DUP9 ADD PUSH2 0x5989 JUMP JUMPDEST SWAP3 POP SWAP3 POP POP SWAP3 SWAP6 SWAP2 SWAP5 POP SWAP3 POP JUMP JUMPDEST PUSH0 PUSH4 0xFFFFFFFF DUP3 AND SWAP1 POP SWAP2 SWAP1 POP JUMP JUMPDEST PUSH2 0x5A67 DUP2 PUSH2 0x5A4F JUMP JUMPDEST DUP2 EQ PUSH2 0x5A71 JUMPI PUSH0 PUSH0 REVERT JUMPDEST POP JUMP JUMPDEST PUSH0 DUP2 CALLDATALOAD SWAP1 POP PUSH2 0x5A82 DUP2 PUSH2 0x5A5E JUMP JUMPDEST SWAP3 SWAP2 POP POP JUMP JUMPDEST PUSH0 PUSH1 0x20 DUP3 DUP5 SUB SLT ISZERO PUSH2 0x5A9D JUMPI PUSH2 0x5A9C PUSH2 0x4862 JUMP JUMPDEST JUMPDEST PUSH0 PUSH2 0x5AAA DUP5 DUP3 DUP6 ADD PUSH2 0x5A74 JUMP JUMPDEST SWAP2 POP POP SWAP3 SWAP2 POP POP JUMP JUMPDEST PUSH0 PUSH0 PUSH1 0x40 DUP4 DUP6 SUB SLT ISZERO PUSH2 0x5AC9 JUMPI PUSH2 0x5AC8 PUSH2 0x4862 JUMP JUMPDEST JUMPDEST PUSH0 PUSH2 0x5AD6 DUP6 DUP3 DUP7 ADD PUSH2 0x4AA1 JUMP JUMPDEST SWAP3 POP POP PUSH1 0x20 PUSH2 0x5AE7 DUP6 DUP3 DUP7 ADD PUSH2 0x4964 JUMP JUMPDEST SWAP2 POP POP SWAP3 POP SWAP3 SWAP1 POP JUMP JUMPDEST PUSH0 PUSH0 PUSH0 PUSH0 PUSH0 PUSH1 0xA0 DUP7 DUP9 SUB SLT ISZERO PUSH2 0x5B0A JUMPI PUSH2 0x5B09 PUSH2 0x4862 JUMP JUMPDEST JUMPDEST PUSH0 PUSH2 0x5B17 DUP9 DUP3 DUP10 ADD PUSH2 0x4AA1 JUMP JUMPDEST SWAP6 POP POP PUSH1 0x20 PUSH2 0x5B28 DUP9 DUP3 DUP10 ADD PUSH2 0x4AA1 JUMP JUMPDEST SWAP5 POP POP PUSH1 0x40 PUSH2 0x5B39 DUP9 DUP3 DUP10 ADD PUSH2 0x4964 JUMP JUMPDEST SWAP4 POP POP PUSH1 0x60 PUSH2 0x5B4A DUP9 DUP3 DUP10 ADD PUSH2 0x4964 JUMP JUMPDEST SWAP3 POP POP PUSH1 0x80 DUP7 ADD CALLDATALOAD PUSH8 0xFFFFFFFFFFFFFFFF DUP2 GT ISZERO PUSH2 0x5B6B JUMPI PUSH2 0x5B6A PUSH2 0x4866 JUMP JUMPDEST JUMPDEST PUSH2 0x5B77 DUP9 DUP3 DUP10 ADD PUSH2 0x4BB4 JUMP JUMPDEST SWAP2 POP POP SWAP3 SWAP6 POP SWAP3 SWAP6 SWAP1 SWAP4 POP JUMP JUMPDEST PUSH0 DUP2 SWAP1 POP SWAP2 SWAP1 POP JUMP JUMPDEST PUSH0 PUSH2 0x5BA7 PUSH2 0x5BA2 PUSH2 0x5B9D DUP5 PUSH2 0x4A33 JUMP JUMPDEST PUSH2 0x5B84 JUMP JUMPDEST PUSH2 0x4A33 JUMP JUMPDEST SWAP1 POP SWAP2 SWAP1 POP JUMP JUMPDEST PUSH0 PUSH2 0x5BB8 DUP3 PUSH2 0x5B8D JUMP JUMPDEST SWAP1 POP SWAP2 SWAP1 POP JUMP JUMPDEST PUSH0 PUSH2 0x5BC9 DUP3 PUSH2 0x5BAE JUMP JUMPDEST SWAP1 POP SWAP2 SWAP1 POP JUMP JUMPDEST PUSH2 0x5BD9 DUP2 PUSH2 0x5BBF JUMP JUMPDEST DUP3 MSTORE POP POP JUMP JUMPDEST PUSH0 PUSH1 0x20 DUP3 ADD SWAP1 POP PUSH2 0x5BF2 PUSH0 DUP4 ADD DUP5 PUSH2 0x5BD0 JUMP JUMPDEST SWAP3 SWAP2 POP POP JUMP JUMPDEST PUSH32 0x4E487B7100000000000000000000000000000000000000000000000000000000 PUSH0 MSTORE PUSH1 0x22 PUSH1 0x4 MSTORE PUSH1 0x24 PUSH0 REVERT JUMPDEST PUSH0 PUSH1 0x2 DUP3 DIV SWAP1 POP PUSH1 0x1 DUP3 AND DUP1 PUSH2 0x5C3C JUMPI PUSH1 0x7F DUP3 AND SWAP2 POP JUMPDEST PUSH1 0x20 DUP3 LT DUP2 SUB PUSH2 0x5C4F JUMPI PUSH2 0x5C4E PUSH2 0x5BF8 JUMP JUMPDEST JUMPDEST POP SWAP2 SWAP1 POP JUMP JUMPDEST PUSH0 PUSH2 0x5C6F PUSH2 0x5C6A PUSH2 0x5C65 DUP5 PUSH2 0x534C JUMP JUMPDEST PUSH2 0x5B84 JUMP JUMPDEST PUSH2 0x491D JUMP JUMPDEST SWAP1 POP SWAP2 SWAP1 POP JUMP JUMPDEST PUSH2 0x5C7F DUP2 PUSH2 0x5C55 JUMP JUMPDEST DUP3 MSTORE POP POP JUMP JUMPDEST PUSH0 PUSH1 0x40 DUP3 ADD SWAP1 POP PUSH2 0x5C98 PUSH0 DUP4 ADD DUP6 PUSH2 0x4926 JUMP JUMPDEST PUSH2 0x5CA5 PUSH1 0x20 DUP4 ADD DUP5 PUSH2 0x5C76 JUMP JUMPDEST SWAP4 SWAP3 POP POP POP JUMP JUMPDEST PUSH32 0x4E487B7100000000000000000000000000000000000000000000000000000000 PUSH0 MSTORE PUSH1 0x32 PUSH1 0x4 MSTORE PUSH1 0x24 PUSH0 REVERT JUMPDEST PUSH0 PUSH2 0x5CEB PUSH2 0x5CE6 DUP5 PUSH2 0x5423 JUMP JUMPDEST PUSH2 0x4B1B JUMP JUMPDEST SWAP1 POP DUP3 DUP2 MSTORE PUSH1 0x20 DUP2 ADD DUP5 DUP5 DUP5 ADD GT ISZERO PUSH2 0x5D07 JUMPI PUSH2 0x5D06 PUSH2 0x4AB9 JUMP JUMPDEST JUMPDEST PUSH2 0x5D12 DUP5 DUP3 DUP6 PUSH2 0x49BD JUMP JUMPDEST POP SWAP4 SWAP3 POP POP POP JUMP JUMPDEST PUSH0 DUP3 PUSH1 0x1F DUP4 ADD SLT PUSH2 0x5D2E JUMPI PUSH2 0x5D2D PUSH2 0x4AB5 JUMP JUMPDEST JUMPDEST DUP2 MLOAD PUSH2 0x5D3E DUP5 DUP3 PUSH1 0x20 DUP7 ADD PUSH2 0x5CD9 JUMP JUMPDEST SWAP2 POP POP SWAP3 SWAP2 POP POP JUMP JUMPDEST PUSH0 PUSH1 0x20 DUP3 DUP5 SUB SLT ISZERO PUSH2 0x5D5C JUMPI PUSH2 0x5D5B PUSH2 0x4862 JUMP JUMPDEST JUMPDEST PUSH0 DUP3 ADD MLOAD PUSH8 0xFFFFFFFFFFFFFFFF DUP2 GT ISZERO PUSH2 0x5D79 JUMPI PUSH2 0x5D78 PUSH2 0x4866 JUMP JUMPDEST JUMPDEST PUSH2 0x5D85 DUP5 DUP3 DUP6 ADD PUSH2 0x5D1A JUMP JUMPDEST SWAP2 POP POP SWAP3 SWAP2 POP POP JUMP JUMPDEST PUSH0 DUP2 SWAP1 POP SWAP3 SWAP2 POP POP JUMP JUMPDEST PUSH0 PUSH2 0x5DA3 DUP4 DUP6 PUSH2 0x5D8E JUMP JUMPDEST SWAP4 POP PUSH2 0x5DB0 DUP4 DUP6 DUP5 PUSH2 0x4B65 JUMP JUMPDEST DUP3 DUP5 ADD SWAP1 POP SWAP4 SWAP3 POP POP POP JUMP JUMPDEST PUSH0 PUSH2 0x5DC8 DUP3 DUP5 DUP7 PUSH2 0x5D98 JUMP JUMPDEST SWAP2 POP DUP2 SWAP1 POP SWAP4 SWAP3 POP POP POP JUMP JUMPDEST PUSH2 0x5DDD DUP2 PUSH2 0x50FD JUMP JUMPDEST DUP3 MSTORE POP POP JUMP JUMPDEST PUSH0 PUSH1 0xE0 DUP3 ADD SWAP1 POP PUSH2 0x5DF6 PUSH0 DUP4 ADD DUP11 PUSH2 0x4FD6 JUMP JUMPDEST PUSH2 0x5E03 PUSH1 0x20 DUP4 ADD DUP10 PUSH2 0x4926 JUMP JUMPDEST PUSH2 0x5E10 PUSH1 0x40 DUP4 ADD DUP9 PUSH2 0x5DD4 JUMP JUMPDEST PUSH2 0x5E1D PUSH1 0x60 DUP4 ADD DUP8 PUSH2 0x4A63 JUMP JUMPDEST PUSH2 0x5E2A PUSH1 0x80 DUP4 ADD DUP7 PUSH2 0x4926 JUMP JUMPDEST PUSH2 0x5E37 PUSH1 0xA0 DUP4 ADD DUP6 PUSH2 0x4FD6 JUMP JUMPDEST PUSH2 0x5E44 PUSH1 0xC0 DUP4 ADD DUP5 PUSH2 0x4FD6 JUMP JUMPDEST SWAP9 SWAP8 POP POP POP POP POP POP POP POP JUMP JUMPDEST PUSH32 0x4E487B7100000000000000000000000000000000000000000000000000000000 PUSH0 MSTORE PUSH1 0x11 PUSH1 0x4 MSTORE PUSH1 0x24 PUSH0 REVERT JUMPDEST PUSH0 PUSH2 0x5E87 DUP3 PUSH2 0x491D JUMP JUMPDEST SWAP2 POP PUSH2 0x5E92 DUP4 PUSH2 0x491D JUMP JUMPDEST SWAP3 POP DUP3 DUP3 SUB SWAP1 POP DUP2 DUP2 GT ISZERO PUSH2 0x5EAA JUMPI PUSH2 0x5EA9 PUSH2 0x5E50 JUMP JUMPDEST JUMPDEST SWAP3 SWAP2 POP POP JUMP JUMPDEST PUSH0 PUSH2 0x5EBA DUP3 PUSH2 0x534C JUMP JUMPDEST SWAP2 POP PUSH2 0x5EC5 DUP4 PUSH2 0x534C JUMP JUMPDEST SWAP3 POP DUP3 DUP3 SUB SWAP1 POP PUSH6 0xFFFFFFFFFFFF DUP2 GT ISZERO PUSH2 0x5EE3 JUMPI PUSH2 0x5EE2 PUSH2 0x5E50 JUMP JUMPDEST JUMPDEST SWAP3 SWAP2 POP POP JUMP JUMPDEST PUSH0 PUSH1 0x60 DUP3 ADD SWAP1 POP PUSH2 0x5EFC PUSH0 DUP4 ADD DUP7 PUSH2 0x4A63 JUMP JUMPDEST PUSH2 0x5F09 PUSH1 0x20 DUP4 ADD DUP6 PUSH2 0x4926 JUMP JUMPDEST PUSH2 0x5F16 PUSH1 0x40 DUP4 ADD DUP5 PUSH2 0x4926 JUMP JUMPDEST SWAP5 SWAP4 POP POP POP POP JUMP JUMPDEST PUSH0 PUSH1 0xA0 DUP3 ADD SWAP1 POP PUSH2 0x5F31 PUSH0 DUP4 ADD DUP9 PUSH2 0x4FD6 JUMP JUMPDEST PUSH2 0x5F3E PUSH1 0x20 DUP4 ADD DUP8 PUSH2 0x4926 JUMP JUMPDEST PUSH2 0x5F4B PUSH1 0x40 DUP4 ADD DUP7 PUSH2 0x5DD4 JUMP JUMPDEST PUSH2 0x5F58 PUSH1 0x60 DUP4 ADD DUP6 PUSH2 0x4A63 JUMP JUMPDEST PUSH2 0x5F65 PUSH1 0x80 DUP4 ADD DUP5 PUSH2 0x4926 JUMP JUMPDEST SWAP7 SWAP6 POP POP POP POP POP POP JUMP JUMPDEST PUSH0 DUP2 MLOAD SWAP1 POP PUSH2 0x5F7D DUP2 PUSH2 0x535D JUMP JUMPDEST SWAP3 SWAP2 POP POP JUMP JUMPDEST PUSH0 PUSH1 0x20 DUP3 DUP5 SUB SLT ISZERO PUSH2 0x5F98 JUMPI PUSH2 0x5F97 PUSH2 0x4862 JUMP JUMPDEST JUMPDEST PUSH0 PUSH2 0x5FA5 DUP5 DUP3 DUP6 ADD PUSH2 0x5F6F JUMP JUMPDEST SWAP2 POP POP SWAP3 SWAP2 POP POP JUMP JUMPDEST PUSH0 PUSH2 0x5FB8 DUP3 PUSH2 0x534C JUMP JUMPDEST SWAP2 POP PUSH2 0x5FC3 DUP4 PUSH2 0x534C JUMP JUMPDEST SWAP3 POP DUP3 DUP3 ADD SWAP1 POP PUSH6 0xFFFFFFFFFFFF DUP2 GT ISZERO PUSH2 0x5FE1 JUMPI PUSH2 0x5FE0 PUSH2 0x5E50 JUMP JUMPDEST JUMPDEST SWAP3 SWAP2 POP POP JUMP JUMPDEST PUSH0 DUP2 MLOAD SWAP1 POP SWAP2 SWAP1 POP JUMP JUMPDEST PUSH0 DUP3 DUP3 MSTORE PUSH1 0x20 DUP3 ADD SWAP1 POP SWAP3 SWAP2 POP POP JUMP JUMPDEST PUSH0 DUP2 SWAP1 POP PUSH1 0x20 DUP3 ADD SWAP1 POP SWAP2 SWAP1 POP JUMP JUMPDEST PUSH2 0x6019 DUP2 PUSH2 0x4A52 JUMP JUMPDEST DUP3 MSTORE POP POP JUMP JUMPDEST PUSH0 PUSH2 0x602A DUP4 DUP4 PUSH2 0x6010 JUMP JUMPDEST PUSH1 0x20 DUP4 ADD SWAP1 POP SWAP3 SWAP2 POP POP JUMP JUMPDEST PUSH0 PUSH1 0x20 DUP3 ADD SWAP1 POP SWAP2 SWAP1 POP JUMP JUMPDEST PUSH0 PUSH2 0x604C DUP3 PUSH2 0x5FE7 JUMP JUMPDEST PUSH2 0x6056 DUP2 DUP6 PUSH2 0x5FF1 JUMP JUMPDEST SWAP4 POP PUSH2 0x6061 DUP4 PUSH2 0x6001 JUMP JUMPDEST DUP1 PUSH0 JUMPDEST DUP4 DUP2 LT ISZERO PUSH2 0x6091 JUMPI DUP2 MLOAD PUSH2 0x6078 DUP9 DUP3 PUSH2 0x601F JUMP JUMPDEST SWAP8 POP PUSH2 0x6083 DUP4 PUSH2 0x6036 JUMP JUMPDEST SWAP3 POP POP PUSH1 0x1 DUP2 ADD SWAP1 POP PUSH2 0x6064 JUMP JUMPDEST POP DUP6 SWAP4 POP POP POP POP SWAP3 SWAP2 POP POP JUMP JUMPDEST PUSH0 DUP2 MLOAD SWAP1 POP SWAP2 SWAP1 POP JUMP JUMPDEST PUSH0 DUP3 DUP3 MSTORE PUSH1 0x20 DUP3 ADD SWAP1 POP SWAP3 SWAP2 POP POP JUMP JUMPDEST PUSH0 DUP2 SWAP1 POP PUSH1 0x20 DUP3 ADD SWAP1 POP SWAP2 SWAP1 POP JUMP JUMPDEST PUSH0 DUP2 MLOAD SWAP1 POP SWAP2 SWAP1 POP JUMP JUMPDEST PUSH0 DUP3 DUP3 MSTORE PUSH1 0x20 DUP3 ADD SWAP1 POP SWAP3 SWAP2 POP POP JUMP JUMPDEST PUSH0 PUSH2 0x60EB DUP3 PUSH2 0x60C7 JUMP JUMPDEST PUSH2 0x60F5 DUP2 DUP6 PUSH2 0x60D1 JUMP JUMPDEST SWAP4 POP PUSH2 0x6105 DUP2 DUP6 PUSH1 0x20 DUP7 ADD PUSH2 0x49BD JUMP JUMPDEST PUSH2 0x610E DUP2 PUSH2 0x49CB JUMP JUMPDEST DUP5 ADD SWAP2 POP POP SWAP3 SWAP2 POP POP JUMP JUMPDEST PUSH0 PUSH2 0x6124 DUP4 DUP4 PUSH2 0x60E1 JUMP JUMPDEST SWAP1 POP SWAP3 SWAP2 POP POP JUMP JUMPDEST PUSH0 PUSH1 0x20 DUP3 ADD SWAP1 POP SWAP2 SWAP1 POP JUMP JUMPDEST PUSH0 PUSH2 0x6142 DUP3 PUSH2 0x609E JUMP JUMPDEST PUSH2 0x614C DUP2 DUP6 PUSH2 0x60A8 JUMP JUMPDEST SWAP4 POP DUP4 PUSH1 0x20 DUP3 MUL DUP6 ADD PUSH2 0x615E DUP6 PUSH2 0x60B8 JUMP JUMPDEST DUP1 PUSH0 JUMPDEST DUP6 DUP2 LT ISZERO PUSH2 0x6199 JUMPI DUP5 DUP5 SUB DUP10 MSTORE DUP2 MLOAD PUSH2 0x617A DUP6 DUP3 PUSH2 0x6119 JUMP JUMPDEST SWAP5 POP PUSH2 0x6185 DUP4 PUSH2 0x612C JUMP JUMPDEST SWAP3 POP PUSH1 0x20 DUP11 ADD SWAP10 POP POP PUSH1 0x1 DUP2 ADD SWAP1 POP PUSH2 0x6161 JUMP JUMPDEST POP DUP3 SWAP8 POP DUP8 SWAP6 POP POP POP POP POP POP SWAP3 SWAP2 POP POP JUMP JUMPDEST PUSH0 PUSH1 0x80 DUP3 ADD SWAP1 POP DUP2 DUP2 SUB PUSH0 DUP4 ADD MSTORE PUSH2 0x61C3 DUP2 DUP8 PUSH2 0x6042 JUMP JUMPDEST SWAP1 POP DUP2 DUP2 SUB PUSH1 0x20 DUP4 ADD MSTORE PUSH2 0x61D7 DUP2 DUP7 PUSH2 0x5655 JUMP JUMPDEST SWAP1 POP DUP2 DUP2 SUB PUSH1 0x40 DUP4 ADD MSTORE PUSH2 0x61EB DUP2 DUP6 PUSH2 0x6138 JUMP JUMPDEST SWAP1 POP PUSH2 0x61FA PUSH1 0x60 DUP4 ADD DUP5 PUSH2 0x4FD6 JUMP JUMPDEST SWAP6 SWAP5 POP POP POP POP POP JUMP JUMPDEST PUSH0 DUP2 MLOAD SWAP1 POP PUSH2 0x6211 DUP2 PUSH2 0x494E JUMP JUMPDEST SWAP3 SWAP2 POP POP JUMP JUMPDEST PUSH0 PUSH1 0x20 DUP3 DUP5 SUB SLT ISZERO PUSH2 0x622C JUMPI PUSH2 0x622B PUSH2 0x4862 JUMP JUMPDEST JUMPDEST PUSH0 PUSH2 0x6239 DUP5 DUP3 DUP6 ADD PUSH2 0x6203 JUMP JUMPDEST SWAP2 POP POP SWAP3 SWAP2 POP POP JUMP JUMPDEST PUSH0 PUSH2 0x624C DUP3 PUSH2 0x491D JUMP JUMPDEST SWAP2 POP PUSH2 0x6257 DUP4 PUSH2 0x491D JUMP JUMPDEST SWAP3 POP DUP3 DUP3 MUL PUSH2 0x6265 DUP2 PUSH2 0x491D JUMP JUMPDEST SWAP2 POP DUP3 DUP3 DIV DUP5 EQ DUP4 ISZERO OR PUSH2 0x627C JUMPI PUSH2 0x627B PUSH2 0x5E50 JUMP JUMPDEST JUMPDEST POP SWAP3 SWAP2 POP POP JUMP JUMPDEST PUSH32 0x4E487B7100000000000000000000000000000000000000000000000000000000 PUSH0 MSTORE PUSH1 0x12 PUSH1 0x4 MSTORE PUSH1 0x24 PUSH0 REVERT JUMPDEST PUSH0 PUSH2 0x62BA DUP3 PUSH2 0x491D JUMP JUMPDEST SWAP2 POP PUSH2 0x62C5 DUP4 PUSH2 0x491D JUMP JUMPDEST SWAP3 POP DUP3 PUSH2 0x62D5 JUMPI PUSH2 0x62D4 PUSH2 0x6283 JUMP JUMPDEST JUMPDEST DUP3 DUP3 DIV SWAP1 POP SWAP3 SWAP2 POP POP JUMP JUMPDEST PUSH0 PUSH1 0x40 DUP3 ADD SWAP1 POP PUSH2 0x62F3 PUSH0 DUP4 ADD DUP6 PUSH2 0x4926 JUMP JUMPDEST PUSH2 0x6300 PUSH1 0x20 DUP4 ADD DUP5 PUSH2 0x4926 JUMP JUMPDEST SWAP4 SWAP3 POP POP POP JUMP JUMPDEST PUSH0 PUSH1 0x60 DUP3 ADD SWAP1 POP PUSH2 0x631A PUSH0 DUP4 ADD DUP7 PUSH2 0x4926 JUMP JUMPDEST PUSH2 0x6327 PUSH1 0x20 DUP4 ADD DUP6 PUSH2 0x5062 JUMP JUMPDEST PUSH2 0x6334 PUSH1 0x40 DUP4 ADD DUP5 PUSH2 0x4FD6 JUMP JUMPDEST SWAP5 SWAP4 POP POP POP POP JUMP JUMPDEST PUSH2 0x6345 DUP2 PUSH2 0x48EA JUMP JUMPDEST DUP2 EQ PUSH2 0x634F JUMPI PUSH0 PUSH0 REVERT JUMPDEST POP JUMP JUMPDEST PUSH0 DUP2 MLOAD SWAP1 POP PUSH2 0x6360 DUP2 PUSH2 0x633C JUMP JUMPDEST SWAP3 SWAP2 POP POP JUMP JUMPDEST PUSH0 PUSH1 0x20 DUP3 DUP5 SUB SLT ISZERO PUSH2 0x637B JUMPI PUSH2 0x637A PUSH2 0x4862 JUMP JUMPDEST JUMPDEST PUSH0 PUSH2 0x6388 DUP5 DUP3 DUP6 ADD PUSH2 0x6352 JUMP JUMPDEST SWAP2 POP POP SWAP3 SWAP2 POP POP JUMP JUMPDEST PUSH0 PUSH1 0x80 DUP3 ADD SWAP1 POP PUSH2 0x63A4 PUSH0 DUP4 ADD DUP8 PUSH2 0x4926 JUMP JUMPDEST PUSH2 0x63B1 PUSH1 0x20 DUP4 ADD DUP7 PUSH2 0x5DD4 JUMP JUMPDEST PUSH2 0x63BE PUSH1 0x40 DUP4 ADD DUP6 PUSH2 0x4926 JUMP JUMPDEST DUP2 DUP2 SUB PUSH1 0x60 DUP4 ADD MSTORE PUSH2 0x63D0 DUP2 DUP5 PUSH2 0x49DB JUMP JUMPDEST SWAP1 POP SWAP6 SWAP5 POP POP POP POP POP JUMP JUMPDEST PUSH0 DUP3 DUP3 MSTORE PUSH1 0x20 DUP3 ADD SWAP1 POP SWAP3 SWAP2 POP POP JUMP JUMPDEST PUSH0 PUSH2 0x63F5 DUP3 PUSH2 0x60C7 JUMP JUMPDEST PUSH2 0x63FF DUP2 DUP6 PUSH2 0x63DB JUMP JUMPDEST SWAP4 POP PUSH2 0x640F DUP2 DUP6 PUSH1 0x20 DUP7 ADD PUSH2 0x49BD JUMP JUMPDEST PUSH2 0x6418 DUP2 PUSH2 0x49CB JUMP JUMPDEST DUP5 ADD SWAP2 POP POP SWAP3 SWAP2 POP POP JUMP JUMPDEST PUSH0 PUSH1 0xA0 DUP3 ADD SWAP1 POP PUSH2 0x6436 PUSH0 DUP4 ADD DUP9 PUSH2 0x4926 JUMP JUMPDEST PUSH2 0x6443 PUSH1 0x20 DUP4 ADD DUP8 PUSH2 0x5DD4 JUMP JUMPDEST PUSH2 0x6450 PUSH1 0x40 DUP4 ADD DUP7 PUSH2 0x4926 JUMP JUMPDEST DUP2 DUP2 SUB PUSH1 0x60 DUP4 ADD MSTORE PUSH2 0x6462 DUP2 DUP6 PUSH2 0x49DB JUMP JUMPDEST SWAP1 POP DUP2 DUP2 SUB PUSH1 0x80 DUP4 ADD MSTORE PUSH2 0x6476 DUP2 DUP5 PUSH2 0x63EB JUMP JUMPDEST SWAP1 POP SWAP7 SWAP6 POP POP POP POP POP POP JUMP JUMPDEST PUSH0 DUP2 SWAP1 POP SWAP2 SWAP1 POP JUMP JUMPDEST PUSH0 PUSH2 0x64A5 PUSH2 0x64A0 PUSH2 0x649B DUP5 PUSH2 0x6482 JUMP JUMPDEST PUSH2 0x5B84 JUMP JUMPDEST PUSH2 0x50FD JUMP JUMPDEST SWAP1 POP SWAP2 SWAP1 POP JUMP JUMPDEST PUSH2 0x64B5 DUP2 PUSH2 0x648B JUMP JUMPDEST DUP3 MSTORE POP POP JUMP JUMPDEST PUSH0 PUSH1 0x40 DUP3 ADD SWAP1 POP PUSH2 0x64CE PUSH0 DUP4 ADD DUP6 PUSH2 0x64AC JUMP JUMPDEST PUSH2 0x64DB PUSH1 0x20 DUP4 ADD DUP5 PUSH2 0x4926 JUMP JUMPDEST SWAP4 SWAP3 POP POP POP JUMP JUMPDEST PUSH0 PUSH2 0x64EC DUP3 PUSH2 0x491D JUMP JUMPDEST SWAP2 POP PUSH2 0x64F7 DUP4 PUSH2 0x491D JUMP JUMPDEST SWAP3 POP DUP3 DUP3 ADD SWAP1 POP DUP1 DUP3 GT ISZERO PUSH2 0x650F JUMPI PUSH2 0x650E PUSH2 0x5E50 JUMP JUMPDEST JUMPDEST SWAP3 SWAP2 POP POP JUMP JUMPDEST PUSH0 PUSH1 0x40 DUP3 ADD SWAP1 POP PUSH2 0x6528 PUSH0 DUP4 ADD DUP6 PUSH2 0x5C76 JUMP JUMPDEST PUSH2 0x6535 PUSH1 0x20 DUP4 ADD DUP5 PUSH2 0x5C76 JUMP JUMPDEST SWAP4 SWAP3 POP POP POP JUMP JUMPDEST PUSH0 DUP2 MLOAD SWAP1 POP SWAP2 SWAP1 POP JUMP JUMPDEST PUSH0 DUP3 DUP3 MSTORE PUSH1 0x20 DUP3 ADD SWAP1 POP SWAP3 SWAP2 POP POP JUMP JUMPDEST PUSH0 DUP2 SWAP1 POP PUSH1 0x20 DUP3 ADD SWAP1 POP SWAP2 SWAP1 POP JUMP JUMPDEST PUSH0 DUP3 DUP3 MSTORE PUSH1 0x20 DUP3 ADD SWAP1 POP SWAP3 SWAP2 POP POP JUMP JUMPDEST PUSH0 PUSH2 0x657F DUP3 PUSH2 0x49A3 JUMP JUMPDEST PUSH2 0x6589 DUP2 DUP6 PUSH2 0x6565 JUMP JUMPDEST SWAP4 POP PUSH2 0x6599 DUP2 DUP6 PUSH1 0x20 DUP7 ADD PUSH2 0x49BD JUMP JUMPDEST PUSH2 0x65A2 DUP2 PUSH2 0x49CB JUMP JUMPDEST DUP5 ADD SWAP2 POP POP SWAP3 SWAP2 POP POP JUMP JUMPDEST PUSH0 PUSH2 0x65B8 DUP4 DUP4 PUSH2 0x6575 JUMP JUMPDEST SWAP1 POP SWAP3 SWAP2 POP POP JUMP JUMPDEST PUSH0 PUSH1 0x20 DUP3 ADD SWAP1 POP SWAP2 SWAP1 POP JUMP JUMPDEST PUSH0 PUSH2 0x65D6 DUP3 PUSH2 0x653C JUMP JUMPDEST PUSH2 0x65E0 DUP2 DUP6 PUSH2 0x6546 JUMP JUMPDEST SWAP4 POP DUP4 PUSH1 0x20 DUP3 MUL DUP6 ADD PUSH2 0x65F2 DUP6 PUSH2 0x6556 JUMP JUMPDEST DUP1 PUSH0 JUMPDEST DUP6 DUP2 LT ISZERO PUSH2 0x662D JUMPI DUP5 DUP5 SUB DUP10 MSTORE DUP2 MLOAD PUSH2 0x660E DUP6 DUP3 PUSH2 0x65AD JUMP JUMPDEST SWAP5 POP PUSH2 0x6619 DUP4 PUSH2 0x65C0 JUMP JUMPDEST SWAP3 POP PUSH1 0x20 DUP11 ADD SWAP10 POP POP PUSH1 0x1 DUP2 ADD SWAP1 POP PUSH2 0x65F5 JUMP JUMPDEST POP DUP3 SWAP8 POP DUP8 SWAP6 POP POP POP POP POP POP SWAP3 SWAP2 POP POP JUMP JUMPDEST PUSH0 PUSH2 0x120 DUP3 ADD SWAP1 POP PUSH2 0x6653 PUSH0 DUP4 ADD DUP13 PUSH2 0x4926 JUMP JUMPDEST PUSH2 0x6660 PUSH1 0x20 DUP4 ADD DUP12 PUSH2 0x4A63 JUMP JUMPDEST DUP2 DUP2 SUB PUSH1 0x40 DUP4 ADD MSTORE PUSH2 0x6672 DUP2 DUP11 PUSH2 0x6042 JUMP JUMPDEST SWAP1 POP DUP2 DUP2 SUB PUSH1 0x60 DUP4 ADD MSTORE PUSH2 0x6686 DUP2 DUP10 PUSH2 0x5655 JUMP JUMPDEST SWAP1 POP DUP2 DUP2 SUB PUSH1 0x80 DUP4 ADD MSTORE PUSH2 0x669A DUP2 DUP9 PUSH2 0x65CC JUMP JUMPDEST SWAP1 POP DUP2 DUP2 SUB PUSH1 0xA0 DUP4 ADD MSTORE PUSH2 0x66AE DUP2 DUP8 PUSH2 0x6138 JUMP JUMPDEST SWAP1 POP PUSH2 0x66BD PUSH1 0xC0 DUP4 ADD DUP7 PUSH2 0x4926 JUMP JUMPDEST PUSH2 0x66CA PUSH1 0xE0 DUP4 ADD DUP6 PUSH2 0x4926 JUMP JUMPDEST DUP2 DUP2 SUB PUSH2 0x100 DUP4 ADD MSTORE PUSH2 0x66DD DUP2 DUP5 PUSH2 0x49DB JUMP JUMPDEST SWAP1 POP SWAP11 SWAP10 POP POP POP POP POP POP POP POP POP POP JUMP JUMPDEST PUSH0 PUSH1 0x40 DUP3 ADD SWAP1 POP PUSH2 0x6700 PUSH0 DUP4 ADD DUP6 PUSH2 0x4A63 JUMP JUMPDEST PUSH2 0x670D PUSH1 0x20 DUP4 ADD DUP5 PUSH2 0x4926 JUMP JUMPDEST SWAP4 SWAP3 POP POP POP JUMP JUMPDEST PUSH0 PUSH1 0x40 DUP3 ADD SWAP1 POP PUSH2 0x6727 PUSH0 DUP4 ADD DUP6 PUSH2 0x4A63 JUMP JUMPDEST PUSH2 0x6734 PUSH1 0x20 DUP4 ADD DUP5 PUSH2 0x4A63 JUMP JUMPDEST SWAP4 SWAP3 POP POP POP JUMP JUMPDEST PUSH0 DUP2 SWAP1 POP SWAP2 SWAP1 POP JUMP JUMPDEST PUSH0 PUSH2 0x675E PUSH2 0x6759 PUSH2 0x6754 DUP5 PUSH2 0x673B JUMP JUMPDEST PUSH2 0x5B84 JUMP JUMPDEST PUSH2 0x491D JUMP JUMPDEST SWAP1 POP SWAP2 SWAP1 POP JUMP JUMPDEST PUSH2 0x676E DUP2 PUSH2 0x6744 JUMP JUMPDEST DUP3 MSTORE POP POP JUMP JUMPDEST PUSH0 PUSH1 0x20 DUP3 ADD SWAP1 POP PUSH2 0x6787 PUSH0 DUP4 ADD DUP5 PUSH2 0x6765 JUMP JUMPDEST SWAP3 SWAP2 POP POP JUMP JUMPDEST PUSH0 PUSH2 0x67A7 PUSH2 0x67A2 PUSH2 0x679D DUP5 PUSH2 0x5A4F JUMP JUMPDEST PUSH2 0x5B84 JUMP JUMPDEST PUSH2 0x491D JUMP JUMPDEST SWAP1 POP SWAP2 SWAP1 POP JUMP JUMPDEST PUSH2 0x67B7 DUP2 PUSH2 0x678D JUMP JUMPDEST DUP3 MSTORE POP POP JUMP JUMPDEST PUSH0 PUSH1 0x40 DUP3 ADD SWAP1 POP PUSH2 0x67D0 PUSH0 DUP4 ADD DUP6 PUSH2 0x67AE JUMP JUMPDEST PUSH2 0x67DD PUSH1 0x20 DUP4 ADD DUP5 PUSH2 0x67AE JUMP JUMPDEST SWAP4 SWAP3 POP POP POP JUMP JUMPDEST PUSH0 DUP2 SWAP1 POP SWAP2 SWAP1 POP JUMP JUMPDEST PUSH0 PUSH2 0x6807 PUSH2 0x6802 PUSH2 0x67FD DUP5 PUSH2 0x67E4 JUMP JUMPDEST PUSH2 0x5B84 JUMP JUMPDEST PUSH2 0x50FD JUMP JUMPDEST SWAP1 POP SWAP2 SWAP1 POP JUMP JUMPDEST PUSH2 0x6817 DUP2 PUSH2 0x67ED JUMP JUMPDEST DUP3 MSTORE POP POP JUMP JUMPDEST PUSH0 PUSH1 0x40 DUP3 ADD SWAP1 POP PUSH2 0x6830 PUSH0 DUP4 ADD DUP6 PUSH2 0x680E JUMP JUMPDEST PUSH2 0x683D PUSH1 0x20 DUP4 ADD DUP5 PUSH2 0x4926 JUMP JUMPDEST SWAP4 SWAP3 POP POP POP JUMP JUMPDEST PUSH0 DUP2 PUSH0 SHL SWAP1 POP SWAP2 SWAP1 POP JUMP JUMPDEST PUSH0 PUSH2 0x6869 PUSH2 0x6864 PUSH2 0x685F DUP5 PUSH2 0x673B JUMP JUMPDEST PUSH2 0x6844 JUMP JUMPDEST PUSH2 0x4EEB JUMP JUMPDEST SWAP1 POP SWAP2 SWAP1 POP JUMP JUMPDEST PUSH2 0x6879 DUP2 PUSH2 0x684F JUMP JUMPDEST DUP3 MSTORE POP POP JUMP JUMPDEST PUSH0 PUSH1 0xA0 DUP3 ADD SWAP1 POP DUP2 DUP2 SUB PUSH0 DUP4 ADD MSTORE PUSH2 0x6897 DUP2 DUP9 PUSH2 0x6042 JUMP JUMPDEST SWAP1 POP DUP2 DUP2 SUB PUSH1 0x20 DUP4 ADD MSTORE PUSH2 0x68AB DUP2 DUP8 PUSH2 0x5655 JUMP JUMPDEST SWAP1 POP DUP2 DUP2 SUB PUSH1 0x40 DUP4 ADD MSTORE PUSH2 0x68BF DUP2 DUP7 PUSH2 0x6138 JUMP JUMPDEST SWAP1 POP PUSH2 0x68CE PUSH1 0x60 DUP4 ADD DUP6 PUSH2 0x6870 JUMP JUMPDEST PUSH2 0x68DB PUSH1 0x80 DUP4 ADD DUP5 PUSH2 0x4FD6 JUMP JUMPDEST SWAP7 SWAP6 POP POP POP POP POP POP JUMP JUMPDEST PUSH0 DUP2 MLOAD SWAP1 POP PUSH2 0x68F3 DUP2 PUSH2 0x4EF4 JUMP JUMPDEST SWAP3 SWAP2 POP POP JUMP JUMPDEST PUSH0 PUSH1 0x20 DUP3 DUP5 SUB SLT ISZERO PUSH2 0x690E JUMPI PUSH2 0x690D PUSH2 0x4862 JUMP JUMPDEST JUMPDEST PUSH0 PUSH2 0x691B DUP5 DUP3 DUP6 ADD PUSH2 0x68E5 JUMP JUMPDEST SWAP2 POP POP SWAP3 SWAP2 POP POP JUMP JUMPDEST PUSH0 PUSH1 0xC0 DUP3 ADD SWAP1 POP DUP2 DUP2 SUB PUSH0 DUP4 ADD MSTORE PUSH2 0x693C DUP2 DUP10 PUSH2 0x6042 JUMP JUMPDEST SWAP1 POP DUP2 DUP2 SUB PUSH1 0x20 DUP4 ADD MSTORE PUSH2 0x6950 DUP2 DUP9 PUSH2 0x5655 JUMP JUMPDEST SWAP1 POP DUP2 DUP2 SUB PUSH1 0x40 DUP4 ADD MSTORE PUSH2 0x6964 DUP2 DUP8 PUSH2 0x6138 JUMP JUMPDEST SWAP1 POP PUSH2 0x6973 PUSH1 0x60 DUP4 ADD DUP7 PUSH2 0x6870 JUMP JUMPDEST PUSH2 0x6980 PUSH1 0x80 DUP4 ADD DUP6 PUSH2 0x4FD6 JUMP JUMPDEST PUSH2 0x698D PUSH1 0xA0 DUP4 ADD DUP5 PUSH2 0x4926 JUMP JUMPDEST SWAP8 SWAP7 POP POP POP POP POP POP POP JUMP JUMPDEST PUSH0 PUSH1 0x40 DUP3 ADD SWAP1 POP PUSH2 0x69AB PUSH0 DUP4 ADD DUP6 PUSH2 0x4FD6 JUMP JUMPDEST DUP2 DUP2 SUB PUSH1 0x20 DUP4 ADD MSTORE PUSH2 0x69BD DUP2 DUP5 PUSH2 0x63EB JUMP JUMPDEST SWAP1 POP SWAP4 SWAP3 POP POP POP JUMP JUMPDEST PUSH0 PUSH2 0x69D0 DUP3 PUSH2 0x60C7 JUMP JUMPDEST PUSH2 0x69DA DUP2 DUP6 PUSH2 0x5D8E JUMP JUMPDEST SWAP4 POP PUSH2 0x69EA DUP2 DUP6 PUSH1 0x20 DUP7 ADD PUSH2 0x49BD JUMP JUMPDEST DUP1 DUP5 ADD SWAP2 POP POP SWAP3 SWAP2 POP POP JUMP JUMPDEST PUSH0 PUSH2 0x6A01 DUP3 DUP5 PUSH2 0x69C6 JUMP JUMPDEST SWAP2 POP DUP2 SWAP1 POP SWAP3 SWAP2 POP POP JUMP JUMPDEST PUSH0 DUP2 SWAP1 POP SWAP2 SWAP1 POP JUMP JUMPDEST PUSH0 PUSH2 0x6A2F PUSH2 0x6A2A PUSH2 0x6A25 DUP5 PUSH2 0x6A0C JUMP JUMPDEST PUSH2 0x5B84 JUMP JUMPDEST PUSH2 0x50FD JUMP JUMPDEST SWAP1 POP SWAP2 SWAP1 POP JUMP JUMPDEST PUSH2 0x6A3F DUP2 PUSH2 0x6A15 JUMP JUMPDEST DUP3 MSTORE POP POP JUMP JUMPDEST PUSH0 PUSH1 0x40 DUP3 ADD SWAP1 POP PUSH2 0x6A58 PUSH0 DUP4 ADD DUP6 PUSH2 0x6A36 JUMP JUMPDEST PUSH2 0x6A65 PUSH1 0x20 DUP4 ADD DUP5 PUSH2 0x4926 JUMP JUMPDEST SWAP4 SWAP3 POP POP POP JUMP JUMPDEST PUSH0 PUSH2 0x6A76 DUP3 PUSH2 0x50FD JUMP JUMPDEST SWAP2 POP PUSH2 0x6A81 DUP4 PUSH2 0x50FD JUMP JUMPDEST SWAP3 POP DUP3 DUP3 ADD SWAP1 POP PUSH1 0xFF DUP2 GT ISZERO PUSH2 0x6A9A JUMPI PUSH2 0x6A99 PUSH2 0x5E50 JUMP JUMPDEST JUMPDEST SWAP3 SWAP2 POP POP JUMP JUMPDEST PUSH0 DUP2 PUSH1 0x1 SHR SWAP1 POP SWAP2 SWAP1 POP JUMP JUMPDEST PUSH0 PUSH0 DUP3 SWAP2 POP DUP4 SWAP1 POP JUMPDEST PUSH1 0x1 DUP6 GT ISZERO PUSH2 0x6AF5 JUMPI DUP1 DUP7 DIV DUP2 GT ISZERO PUSH2 0x6AD1 JUMPI PUSH2 0x6AD0 PUSH2 0x5E50 JUMP JUMPDEST JUMPDEST PUSH1 0x1 DUP6 AND ISZERO PUSH2 0x6AE0 JUMPI DUP1 DUP3 MUL SWAP2 POP JUMPDEST DUP1 DUP2 MUL SWAP1 POP PUSH2 0x6AEE DUP6 PUSH2 0x6AA0 JUMP JUMPDEST SWAP5 POP PUSH2 0x6AB5 JUMP JUMPDEST SWAP5 POP SWAP5 SWAP3 POP POP POP JUMP JUMPDEST PUSH0 DUP3 PUSH2 0x6B0D JUMPI PUSH1 0x1 SWAP1 POP PUSH2 0x6BC8 JUMP JUMPDEST DUP2 PUSH2 0x6B1A JUMPI PUSH0 SWAP1 POP PUSH2 0x6BC8 JUMP JUMPDEST DUP2 PUSH1 0x1 DUP2 EQ PUSH2 0x6B30 JUMPI PUSH1 0x2 DUP2 EQ PUSH2 0x6B3A JUMPI PUSH2 0x6B69 JUMP JUMPDEST PUSH1 0x1 SWAP2 POP POP PUSH2 0x6BC8 JUMP JUMPDEST PUSH1 0xFF DUP5 GT ISZERO PUSH2 0x6B4C JUMPI PUSH2 0x6B4B PUSH2 0x5E50 JUMP JUMPDEST JUMPDEST DUP4 PUSH1 0x2 EXP SWAP2 POP DUP5 DUP3 GT ISZERO PUSH2 0x6B63 JUMPI PUSH2 0x6B62 PUSH2 0x5E50 JUMP JUMPDEST JUMPDEST POP PUSH2 0x6BC8 JUMP JUMPDEST POP PUSH1 0x20 DUP4 LT PUSH2 0x133 DUP4 LT AND PUSH1 0x4E DUP5 LT PUSH1 0xB DUP5 LT AND OR ISZERO PUSH2 0x6B9E JUMPI DUP3 DUP3 EXP SWAP1 POP DUP4 DUP2 GT ISZERO PUSH2 0x6B99 JUMPI PUSH2 0x6B98 PUSH2 0x5E50 JUMP JUMPDEST JUMPDEST PUSH2 0x6BC8 JUMP JUMPDEST PUSH2 0x6BAB DUP5 DUP5 DUP5 PUSH1 0x1 PUSH2 0x6AAC JUMP JUMPDEST SWAP3 POP SWAP1 POP DUP2 DUP5 DIV DUP2 GT ISZERO PUSH2 0x6BC2 JUMPI PUSH2 0x6BC1 PUSH2 0x5E50 JUMP JUMPDEST JUMPDEST DUP2 DUP2 MUL SWAP1 POP JUMPDEST SWAP4 SWAP3 POP POP POP JUMP JUMPDEST PUSH0 PUSH2 0x6BD9 DUP3 PUSH2 0x491D JUMP JUMPDEST SWAP2 POP PUSH2 0x6BE4 DUP4 PUSH2 0x50FD JUMP JUMPDEST SWAP3 POP PUSH2 0x6C11 PUSH32 0xFFFFFFFFFFFFFFFFFFFFFFFFFFFFFFFFFFFFFFFFFFFFFFFFFFFFFFFFFFFFFFFF DUP5 DUP5 PUSH2 0x6AFE JUMP JUMPDEST SWAP1 POP SWAP3 SWAP2 POP POP JUMP JUMPDEST PUSH0 PUSH1 0xA0 DUP3 ADD SWAP1 POP PUSH2 0x6C2C PUSH0 DUP4 ADD DUP9 PUSH2 0x4FD6 JUMP JUMPDEST PUSH2 0x6C39 PUSH1 0x20 DUP4 ADD DUP8 PUSH2 0x4FD6 JUMP JUMPDEST PUSH2 0x6C46 PUSH1 0x40 DUP4 ADD DUP7 PUSH2 0x4FD6 JUMP JUMPDEST PUSH2 0x6C53 PUSH1 0x60 DUP4 ADD DUP6 PUSH2 0x4926 JUMP JUMPDEST PUSH2 0x6C60 PUSH1 0x80 DUP4 ADD DUP5 PUSH2 0x4A63 JUMP JUMPDEST SWAP7 SWAP6 POP POP POP POP POP POP JUMP JUMPDEST PUSH0 PUSH1 0x80 DUP3 ADD SWAP1 POP PUSH2 0x6C7D PUSH0 DUP4 ADD DUP8 PUSH2 0x4FD6 JUMP JUMPDEST PUSH2 0x6C8A PUSH1 0x20 DUP4 ADD DUP7 PUSH2 0x5DD4 JUMP JUMPDEST PUSH2 0x6C97 PUSH1 0x40 DUP4 ADD DUP6 PUSH2 0x4FD6 JUMP JUMPDEST PUSH2 0x6CA4 PUSH1 0x60 DUP4 ADD DUP5 PUSH2 0x4FD6 JUMP JUMPDEST SWAP6 SWAP5 POP POP POP POP POP JUMP INVALID LOG2 PUSH5 0x6970667358 0x22 SLT KECCAK256 DATALOADN 0x5852 CREATE 0x1E 0x2F DUP7 0xDE 0xB3 0xB8 0xEF JUMPI PUSH27 0x21528114B63AC0ECCF32696AEA3DB205A315AC64736F6C63430008 0x1E STOP CALLER "
		},
		"gasEstimates": {
			"creation": {
				"codeDepositCost": "5575000",
				"executionCost": "infinite",
				"totalCost": "infinite"
			},
			"external": {
				"BALLOT_TYPEHASH()": "480",
				"CLOCK_MODE()": "infinite",
				"COUNTING_MODE()": "infinite",
				"EXTENDED_BALLOT_TYPEHASH()": "437",
				"cancel(address[],uint256[],bytes[],bytes32)": "infinite",
				"castVote(uint256,uint8)": "infinite",
				"castVoteBySig(uint256,uint8,address,bytes)": "infinite",
				"castVoteWithReason(uint256,uint8,string)": "infinite",
				"castVoteWithReasonAndParams(uint256,uint8,string,bytes)": "infinite",
				"castVoteWithReasonAndParamsBySig(uint256,uint8,address,string,bytes,bytes)": "infinite",
				"clock()": "infinite",
				"eip712Domain()": "infinite",
				"execute(address[],uint256[],bytes[],bytes32)": "infinite",
				"getVotes(address,uint256)": "infinite",
				"getVotesWithParams(address,uint256,bytes)": "infinite",
				"hasVoted(uint256,address)": "3168",
				"hashProposal(address[],uint256[],bytes[],bytes32)": "infinite",
				"name()": "infinite",
				"nonces(address)": "2875",
				"onERC1155BatchReceived(address,address,uint256[],uint256[],bytes)": "infinite",
				"onERC1155Received(address,address,uint256,uint256,bytes)": "infinite",
				"onERC721Received(address,address,uint256,bytes)": "infinite",
				"proposalDeadline(uint256)": "infinite",
				"proposalEta(uint256)": "infinite",
				"proposalNeedsQueuing(uint256)": "730",
				"proposalProposer(uint256)": "2992",
				"proposalSnapshot(uint256)": "infinite",
				"proposalThreshold()": "2599",
				"proposalVotes(uint256)": "infinite",
				"propose(address[],uint256[],bytes[],string)": "infinite",
				"queue(address[],uint256[],bytes[],bytes32)": "infinite",
				"quorum(uint256)": "infinite",
				"quorumDenominator()": "466",
				"quorumNumerator()": "infinite",
				"quorumNumerator(uint256)": "infinite",
				"relay(address,uint256,bytes)": "infinite",
				"setProposalThreshold(uint256)": "infinite",
				"setVotingDelay(uint48)": "infinite",
				"setVotingPeriod(uint32)": "infinite",
				"state(uint256)": "infinite",
				"supportsInterface(bytes4)": "810",
				"timelock()": "2626",
				"token()": "infinite",
				"updateQuorumNumerator(uint256)": "infinite",
				"updateTimelock(address)": "infinite",
				"version()": "infinite",
				"votingDelay()": "2641",
				"votingPeriod()": "2627"
			},
			"internal": {
				"_cancel(address[] memory,uint256[] memory,bytes memory[] memory,bytes32)": "infinite",
				"_executeOperations(uint256,address[] memory,uint256[] memory,bytes memory[] memory,bytes32)": "infinite",
				"_executor()": "2191",
				"_queueOperations(uint256,address[] memory,uint256[] memory,bytes memory[] memory,bytes32)": "infinite"
			}
		},
		"methodIdentifiers": {
			"BALLOT_TYPEHASH()": "deaaa7cc",
			"CLOCK_MODE()": "4bf5d7e9",
			"COUNTING_MODE()": "dd4e2ba5",
			"EXTENDED_BALLOT_TYPEHASH()": "2fe3e261",
			"cancel(address[],uint256[],bytes[],bytes32)": "452115d6",
			"castVote(uint256,uint8)": "56781388",
			"castVoteBySig(uint256,uint8,address,bytes)": "8ff262e3",
			"castVoteWithReason(uint256,uint8,string)": "7b3c71d3",
			"castVoteWithReasonAndParams(uint256,uint8,string,bytes)": "5f398a14",
			"castVoteWithReasonAndParamsBySig(uint256,uint8,address,string,bytes,bytes)": "5b8d0e0d",
			"clock()": "91ddadf4",
			"eip712Domain()": "84b0196e",
			"execute(address[],uint256[],bytes[],bytes32)": "2656227d",
			"getVotes(address,uint256)": "eb9019d4",
			"getVotesWithParams(address,uint256,bytes)": "9a802a6d",
			"hasVoted(uint256,address)": "43859632",
			"hashProposal(address[],uint256[],bytes[],bytes32)": "c59057e4",
			"name()": "06fdde03",
			"nonces(address)": "7ecebe00",
			"onERC1155BatchReceived(address,address,uint256[],uint256[],bytes)": "bc197c81",
			"onERC1155Received(address,address,uint256,uint256,bytes)": "f23a6e61",
			"onERC721Received(address,address,uint256,bytes)": "150b7a02",
			"proposalDeadline(uint256)": "c01f9e37",
			"proposalEta(uint256)": "ab58fb8e",
			"proposalNeedsQueuing(uint256)": "a9a95294",
			"proposalProposer(uint256)": "143489d0",
			"proposalSnapshot(uint256)": "2d63f693",
			"proposalThreshold()": "b58131b0",
			"proposalVotes(uint256)": "544ffc9c",
			"propose(address[],uint256[],bytes[],string)": "7d5e81e2",
			"queue(address[],uint256[],bytes[],bytes32)": "160cbed7",
			"quorum(uint256)": "f8ce560a",
			"quorumDenominator()": "97c3d334",
			"quorumNumerator()": "a7713a70",
			"quorumNumerator(uint256)": "60c4247f",
			"relay(address,uint256,bytes)": "c28bc2fa",
			"setProposalThreshold(uint256)": "ece40cc1",
			"setVotingDelay(uint48)": "79051887",
			"setVotingPeriod(uint32)": "e540d01d",
			"state(uint256)": "3e4f49e6",
			"supportsInterface(bytes4)": "01ffc9a7",
			"timelock()": "d33219b4",
			"token()": "fc0c546a",
			"updateQuorumNumerator(uint256)": "06f3f9e6",
			"updateTimelock(address)": "a890c910",
			"version()": "54fd4d50",
			"votingDelay()": "3932abb1",
			"votingPeriod()": "02a251a3"
		}
	},
	"abi": [
		{
			"inputs": [
				{
					"internalType": "contract IVotes",
					"name": "_token",
					"type": "address"
				},
				{
					"internalType": "contract TimelockController",
					"name": "_timelock",
					"type": "address"
				},
				{
					"internalType": "uint48",
					"name": "_votingDelay",
					"type": "uint48"
				},
				{
					"internalType": "uint32",
					"name": "_votingPeriod",
					"type": "uint32"
				},
				{
					"internalType": "uint256",
					"name": "_proposalThreshold",
					"type": "uint256"
				},
				{
					"internalType": "uint256",
					"name": "_quorumNumerator",
					"type": "uint256"
				}
			],
			"stateMutability": "nonpayable",
			"type": "constructor"
		},
		{
			"inputs": [],
			"name": "CheckpointUnorderedInsertion",
			"type": "error"
		},
		{
			"inputs": [],
			"name": "FailedInnerCall",
			"type": "error"
		},
		{
			"inputs": [
				{
					"internalType": "address",
					"name": "voter",
					"type": "address"
				}
			],
			"name": "GovernorAlreadyCastVote",
			"type": "error"
		},
		{
			"inputs": [
				{
					"internalType": "uint256",
					"name": "proposalId",
					"type": "uint256"
				}
			],
			"name": "GovernorAlreadyQueuedProposal",
			"type": "error"
		},
		{
			"inputs": [],
			"name": "GovernorDisabledDeposit",
			"type": "error"
		},
		{
			"inputs": [
				{
					"internalType": "address",
					"name": "proposer",
					"type": "address"
				},
				{
					"internalType": "uint256",
					"name": "votes",
					"type": "uint256"
				},
				{
					"internalType": "uint256",
					"name": "threshold",
					"type": "uint256"
				}
			],
			"name": "GovernorInsufficientProposerVotes",
			"type": "error"
		},
		{
			"inputs": [
				{
					"internalType": "uint256",
					"name": "targets",
					"type": "uint256"
				},
				{
					"internalType": "uint256",
					"name": "calldatas",
					"type": "uint256"
				},
				{
					"internalType": "uint256",
					"name": "values",
					"type": "uint256"
				}
			],
			"name": "GovernorInvalidProposalLength",
			"type": "error"
		},
		{
			"inputs": [
				{
					"internalType": "uint256",
					"name": "quorumNumerator",
					"type": "uint256"
				},
				{
					"internalType": "uint256",
					"name": "quorumDenominator",
					"type": "uint256"
				}
			],
			"name": "GovernorInvalidQuorumFraction",
			"type": "error"
		},
		{
			"inputs": [
				{
					"internalType": "address",
					"name": "voter",
					"type": "address"
				}
			],
			"name": "GovernorInvalidSignature",
			"type": "error"
		},
		{
			"inputs": [],
			"name": "GovernorInvalidVoteType",
			"type": "error"
		},
		{
			"inputs": [
				{
					"internalType": "uint256",
					"name": "votingPeriod",
					"type": "uint256"
				}
			],
			"name": "GovernorInvalidVotingPeriod",
			"type": "error"
		},
		{
			"inputs": [
				{
					"internalType": "uint256",
					"name": "proposalId",
					"type": "uint256"
				}
			],
			"name": "GovernorNonexistentProposal",
			"type": "error"
		},
		{
			"inputs": [
				{
					"internalType": "uint256",
					"name": "proposalId",
					"type": "uint256"
				}
			],
			"name": "GovernorNotQueuedProposal",
			"type": "error"
		},
		{
			"inputs": [
				{
					"internalType": "address",
					"name": "account",
					"type": "address"
				}
			],
			"name": "GovernorOnlyExecutor",
			"type": "error"
		},
		{
			"inputs": [
				{
					"internalType": "address",
					"name": "account",
					"type": "address"
				}
			],
			"name": "GovernorOnlyProposer",
			"type": "error"
		},
		{
			"inputs": [],
			"name": "GovernorQueueNotImplemented",
			"type": "error"
		},
		{
			"inputs": [
				{
					"internalType": "address",
					"name": "proposer",
					"type": "address"
				}
			],
			"name": "GovernorRestrictedProposer",
			"type": "error"
		},
		{
			"inputs": [
				{
					"internalType": "uint256",
					"name": "proposalId",
					"type": "uint256"
				},
				{
					"internalType": "enum IGovernor.ProposalState",
					"name": "current",
					"type": "uint8"
				},
				{
					"internalType": "bytes32",
					"name": "expectedStates",
					"type": "bytes32"
				}
			],
			"name": "GovernorUnexpectedProposalState",
			"type": "error"
		},
		{
			"inputs": [
				{
					"internalType": "address",
					"name": "account",
					"type": "address"
				},
				{
					"internalType": "uint256",
					"name": "currentNonce",
					"type": "uint256"
				}
			],
			"name": "InvalidAccountNonce",
			"type": "error"
		},
		{
			"inputs": [],
			"name": "InvalidShortString",
			"type": "error"
		},
		{
			"inputs": [],
			"name": "QueueEmpty",
			"type": "error"
		},
		{
			"inputs": [],
			"name": "QueueFull",
			"type": "error"
		},
		{
			"inputs": [
				{
					"internalType": "uint8",
					"name": "bits",
					"type": "uint8"
				},
				{
					"internalType": "uint256",
					"name": "value",
					"type": "uint256"
				}
			],
			"name": "SafeCastOverflowedUintDowncast",
			"type": "error"
		},
		{
			"inputs": [
				{
					"internalType": "string",
					"name": "str",
					"type": "string"
				}
			],
			"name": "StringTooLong",
			"type": "error"
		},
		{
			"anonymous": false,
			"inputs": [],
			"name": "EIP712DomainChanged",
			"type": "event"
		},
		{
			"anonymous": false,
			"inputs": [
				{
					"indexed": false,
					"internalType": "uint256",
					"name": "proposalId",
					"type": "uint256"
				}
			],
			"name": "ProposalCanceled",
			"type": "event"
		},
		{
			"anonymous": false,
			"inputs": [
				{
					"indexed": false,
					"internalType": "uint256",
					"name": "proposalId",
					"type": "uint256"
				},
				{
					"indexed": false,
					"internalType": "address",
					"name": "proposer",
					"type": "address"
				},
				{
					"indexed": false,
					"internalType": "address[]",
					"name": "targets",
					"type": "address[]"
				},
				{
					"indexed": false,
					"internalType": "uint256[]",
					"name": "values",
					"type": "uint256[]"
				},
				{
					"indexed": false,
					"internalType": "string[]",
					"name": "signatures",
					"type": "string[]"
				},
				{
					"indexed": false,
					"internalType": "bytes[]",
					"name": "calldatas",
					"type": "bytes[]"
				},
				{
					"indexed": false,
					"internalType": "uint256",
					"name": "voteStart",
					"type": "uint256"
				},
				{
					"indexed": false,
					"internalType": "uint256",
					"name": "voteEnd",
					"type": "uint256"
				},
				{
					"indexed": false,
					"internalType": "string",
					"name": "description",
					"type": "string"
				}
			],
			"name": "ProposalCreated",
			"type": "event"
		},
		{
			"anonymous": false,
			"inputs": [
				{
					"indexed": false,
					"internalType": "uint256",
					"name": "proposalId",
					"type": "uint256"
				}
			],
			"name": "ProposalExecuted",
			"type": "event"
		},
		{
			"anonymous": false,
			"inputs": [
				{
					"indexed": false,
					"internalType": "uint256",
					"name": "proposalId",
					"type": "uint256"
				},
				{
					"indexed": false,
					"internalType": "uint256",
					"name": "etaSeconds",
					"type": "uint256"
				}
			],
			"name": "ProposalQueued",
			"type": "event"
		},
		{
			"anonymous": false,
			"inputs": [
				{
					"indexed": false,
					"internalType": "uint256",
					"name": "oldProposalThreshold",
					"type": "uint256"
				},
				{
					"indexed": false,
					"internalType": "uint256",
					"name": "newProposalThreshold",
					"type": "uint256"
				}
			],
			"name": "ProposalThresholdSet",
			"type": "event"
		},
		{
			"anonymous": false,
			"inputs": [
				{
					"indexed": false,
					"internalType": "uint256",
					"name": "oldQuorumNumerator",
					"type": "uint256"
				},
				{
					"indexed": false,
					"internalType": "uint256",
					"name": "newQuorumNumerator",
					"type": "uint256"
				}
			],
			"name": "QuorumNumeratorUpdated",
			"type": "event"
		},
		{
			"anonymous": false,
			"inputs": [
				{
					"indexed": false,
					"internalType": "address",
					"name": "oldTimelock",
					"type": "address"
				},
				{
					"indexed": false,
					"internalType": "address",
					"name": "newTimelock",
					"type": "address"
				}
			],
			"name": "TimelockChange",
			"type": "event"
		},
		{
			"anonymous": false,
			"inputs": [
				{
					"indexed": true,
					"internalType": "address",
					"name": "voter",
					"type": "address"
				},
				{
					"indexed": false,
					"internalType": "uint256",
					"name": "proposalId",
					"type": "uint256"
				},
				{
					"indexed": false,
					"internalType": "uint8",
					"name": "support",
					"type": "uint8"
				},
				{
					"indexed": false,
					"internalType": "uint256",
					"name": "weight",
					"type": "uint256"
				},
				{
					"indexed": false,
					"internalType": "string",
					"name": "reason",
					"type": "string"
				}
			],
			"name": "VoteCast",
			"type": "event"
		},
		{
			"anonymous": false,
			"inputs": [
				{
					"indexed": true,
					"internalType": "address",
					"name": "voter",
					"type": "address"
				},
				{
					"indexed": false,
					"internalType": "uint256",
					"name": "proposalId",
					"type": "uint256"
				},
				{
					"indexed": false,
					"internalType": "uint8",
					"name": "support",
					"type": "uint8"
				},
				{
					"indexed": false,
					"internalType": "uint256",
					"name": "weight",
					"type": "uint256"
				},
				{
					"indexed": false,
					"internalType": "string",
					"name": "reason",
					"type": "string"
				},
				{
					"indexed": false,
					"internalType": "bytes",
					"name": "params",
					"type": "bytes"
				}
			],
			"name": "VoteCastWithParams",
			"type": "event"
		},
		{
			"anonymous": false,
			"inputs": [
				{
					"indexed": false,
					"internalType": "uint256",
					"name": "oldVotingDelay",
					"type": "uint256"
				},
				{
					"indexed": false,
					"internalType": "uint256",
					"name": "newVotingDelay",
					"type": "uint256"
				}
			],
			"name": "VotingDelaySet",
			"type": "event"
		},
		{
			"anonymous": false,
			"inputs": [
				{
					"indexed": false,
					"internalType": "uint256",
					"name": "oldVotingPeriod",
					"type": "uint256"
				},
				{
					"indexed": false,
					"internalType": "uint256",
					"name": "newVotingPeriod",
					"type": "uint256"
				}
			],
			"name": "VotingPeriodSet",
			"type": "event"
		},
		{
			"inputs": [],
			"name": "BALLOT_TYPEHASH",
			"outputs": [
				{
					"internalType": "bytes32",
					"name": "",
					"type": "bytes32"
				}
			],
			"stateMutability": "view",
			"type": "function"
		},
		{
			"inputs": [],
			"name": "CLOCK_MODE",
			"outputs": [
				{
					"internalType": "string",
					"name": "",
					"type": "string"
				}
			],
			"stateMutability": "view",
			"type": "function"
		},
		{
			"inputs": [],
			"name": "COUNTING_MODE",
			"outputs": [
				{
					"internalType": "string",
					"name": "",
					"type": "string"
				}
			],
			"stateMutability": "pure",
			"type": "function"
		},
		{
			"inputs": [],
			"name": "EXTENDED_BALLOT_TYPEHASH",
			"outputs": [
				{
					"internalType": "bytes32",
					"name": "",
					"type": "bytes32"
				}
			],
			"stateMutability": "view",
			"type": "function"
		},
		{
			"inputs": [
				{
					"internalType": "address[]",
					"name": "targets",
					"type": "address[]"
				},
				{
					"internalType": "uint256[]",
					"name": "values",
					"type": "uint256[]"
				},
				{
					"internalType": "bytes[]",
					"name": "calldatas",
					"type": "bytes[]"
				},
				{
					"internalType": "bytes32",
					"name": "descriptionHash",
					"type": "bytes32"
				}
			],
			"name": "cancel",
			"outputs": [
				{
					"internalType": "uint256",
					"name": "",
					"type": "uint256"
				}
			],
			"stateMutability": "nonpayable",
			"type": "function"
		},
		{
			"inputs": [
				{
					"internalType": "uint256",
					"name": "proposalId",
					"type": "uint256"
				},
				{
					"internalType": "uint8",
					"name": "support",
					"type": "uint8"
				}
			],
			"name": "castVote",
			"outputs": [
				{
					"internalType": "uint256",
					"name": "",
					"type": "uint256"
				}
			],
			"stateMutability": "nonpayable",
			"type": "function"
		},
		{
			"inputs": [
				{
					"internalType": "uint256",
					"name": "proposalId",
					"type": "uint256"
				},
				{
					"internalType": "uint8",
					"name": "support",
					"type": "uint8"
				},
				{
					"internalType": "address",
					"name": "voter",
					"type": "address"
				},
				{
					"internalType": "bytes",
					"name": "signature",
					"type": "bytes"
				}
			],
			"name": "castVoteBySig",
			"outputs": [
				{
					"internalType": "uint256",
					"name": "",
					"type": "uint256"
				}
			],
			"stateMutability": "nonpayable",
			"type": "function"
		},
		{
			"inputs": [
				{
					"internalType": "uint256",
					"name": "proposalId",
					"type": "uint256"
				},
				{
					"internalType": "uint8",
					"name": "support",
					"type": "uint8"
				},
				{
					"internalType": "string",
					"name": "reason",
					"type": "string"
				}
			],
			"name": "castVoteWithReason",
			"outputs": [
				{
					"internalType": "uint256",
					"name": "",
					"type": "uint256"
				}
			],
			"stateMutability": "nonpayable",
			"type": "function"
		},
		{
			"inputs": [
				{
					"internalType": "uint256",
					"name": "proposalId",
					"type": "uint256"
				},
				{
					"internalType": "uint8",
					"name": "support",
					"type": "uint8"
				},
				{
					"internalType": "string",
					"name": "reason",
					"type": "string"
				},
				{
					"internalType": "bytes",
					"name": "params",
					"type": "bytes"
				}
			],
			"name": "castVoteWithReasonAndParams",
			"outputs": [
				{
					"internalType": "uint256",
					"name": "",
					"type": "uint256"
				}
			],
			"stateMutability": "nonpayable",
			"type": "function"
		},
		{
			"inputs": [
				{
					"internalType": "uint256",
					"name": "proposalId",
					"type": "uint256"
				},
				{
					"internalType": "uint8",
					"name": "support",
					"type": "uint8"
				},
				{
					"internalType": "address",
					"name": "voter",
					"type": "address"
				},
				{
					"internalType": "string",
					"name": "reason",
					"type": "string"
				},
				{
					"internalType": "bytes",
					"name": "params",
					"type": "bytes"
				},
				{
					"internalType": "bytes",
					"name": "signature",
					"type": "bytes"
				}
			],
			"name": "castVoteWithReasonAndParamsBySig",
			"outputs": [
				{
					"internalType": "uint256",
					"name": "",
					"type": "uint256"
				}
			],
			"stateMutability": "nonpayable",
			"type": "function"
		},
		{
			"inputs": [],
			"name": "clock",
			"outputs": [
				{
					"internalType": "uint48",
					"name": "",
					"type": "uint48"
				}
			],
			"stateMutability": "view",
			"type": "function"
		},
		{
			"inputs": [],
			"name": "eip712Domain",
			"outputs": [
				{
					"internalType": "bytes1",
					"name": "fields",
					"type": "bytes1"
				},
				{
					"internalType": "string",
					"name": "name",
					"type": "string"
				},
				{
					"internalType": "string",
					"name": "version",
					"type": "string"
				},
				{
					"internalType": "uint256",
					"name": "chainId",
					"type": "uint256"
				},
				{
					"internalType": "address",
					"name": "verifyingContract",
					"type": "address"
				},
				{
					"internalType": "bytes32",
					"name": "salt",
					"type": "bytes32"
				},
				{
					"internalType": "uint256[]",
					"name": "extensions",
					"type": "uint256[]"
				}
			],
			"stateMutability": "view",
			"type": "function"
		},
		{
			"inputs": [
				{
					"internalType": "address[]",
					"name": "targets",
					"type": "address[]"
				},
				{
					"internalType": "uint256[]",
					"name": "values",
					"type": "uint256[]"
				},
				{
					"internalType": "bytes[]",
					"name": "calldatas",
					"type": "bytes[]"
				},
				{
					"internalType": "bytes32",
					"name": "descriptionHash",
					"type": "bytes32"
				}
			],
			"name": "execute",
			"outputs": [
				{
					"internalType": "uint256",
					"name": "",
					"type": "uint256"
				}
			],
			"stateMutability": "payable",
			"type": "function"
		},
		{
			"inputs": [
				{
					"internalType": "address",
					"name": "account",
					"type": "address"
				},
				{
					"internalType": "uint256",
					"name": "timepoint",
					"type": "uint256"
				}
			],
			"name": "getVotes",
			"outputs": [
				{
					"internalType": "uint256",
					"name": "",
					"type": "uint256"
				}
			],
			"stateMutability": "view",
			"type": "function"
		},
		{
			"inputs": [
				{
					"internalType": "address",
					"name": "account",
					"type": "address"
				},
				{
					"internalType": "uint256",
					"name": "timepoint",
					"type": "uint256"
				},
				{
					"internalType": "bytes",
					"name": "params",
					"type": "bytes"
				}
			],
			"name": "getVotesWithParams",
			"outputs": [
				{
					"internalType": "uint256",
					"name": "",
					"type": "uint256"
				}
			],
			"stateMutability": "view",
			"type": "function"
		},
		{
			"inputs": [
				{
					"internalType": "uint256",
					"name": "proposalId",
					"type": "uint256"
				},
				{
					"internalType": "address",
					"name": "account",
					"type": "address"
				}
			],
			"name": "hasVoted",
			"outputs": [
				{
					"internalType": "bool",
					"name": "",
					"type": "bool"
				}
			],
			"stateMutability": "view",
			"type": "function"
		},
		{
			"inputs": [
				{
					"internalType": "address[]",
					"name": "targets",
					"type": "address[]"
				},
				{
					"internalType": "uint256[]",
					"name": "values",
					"type": "uint256[]"
				},
				{
					"internalType": "bytes[]",
					"name": "calldatas",
					"type": "bytes[]"
				},
				{
					"internalType": "bytes32",
					"name": "descriptionHash",
					"type": "bytes32"
				}
			],
			"name": "hashProposal",
			"outputs": [
				{
					"internalType": "uint256",
					"name": "",
					"type": "uint256"
				}
			],
			"stateMutability": "pure",
			"type": "function"
		},
		{
			"inputs": [],
			"name": "name",
			"outputs": [
				{
					"internalType": "string",
					"name": "",
					"type": "string"
				}
			],
			"stateMutability": "view",
			"type": "function"
		},
		{
			"inputs": [
				{
					"internalType": "address",
					"name": "owner",
					"type": "address"
				}
			],
			"name": "nonces",
			"outputs": [
				{
					"internalType": "uint256",
					"name": "",
					"type": "uint256"
				}
			],
			"stateMutability": "view",
			"type": "function"
		},
		{
			"inputs": [
				{
					"internalType": "address",
					"name": "",
					"type": "address"
				},
				{
					"internalType": "address",
					"name": "",
					"type": "address"
				},
				{
					"internalType": "uint256[]",
					"name": "",
					"type": "uint256[]"
				},
				{
					"internalType": "uint256[]",
					"name": "",
					"type": "uint256[]"
				},
				{
					"internalType": "bytes",
					"name": "",
					"type": "bytes"
				}
			],
			"name": "onERC1155BatchReceived",
			"outputs": [
				{
					"internalType": "bytes4",
					"name": "",
					"type": "bytes4"
				}
			],
			"stateMutability": "nonpayable",
			"type": "function"
		},
		{
			"inputs": [
				{
					"internalType": "address",
					"name": "",
					"type": "address"
				},
				{
					"internalType": "address",
					"name": "",
					"type": "address"
				},
				{
					"internalType": "uint256",
					"name": "",
					"type": "uint256"
				},
				{
					"internalType": "uint256",
					"name": "",
					"type": "uint256"
				},
				{
					"internalType": "bytes",
					"name": "",
					"type": "bytes"
				}
			],
			"name": "onERC1155Received",
			"outputs": [
				{
					"internalType": "bytes4",
					"name": "",
					"type": "bytes4"
				}
			],
			"stateMutability": "nonpayable",
			"type": "function"
		},
		{
			"inputs": [
				{
					"internalType": "address",
					"name": "",
					"type": "address"
				},
				{
					"internalType": "address",
					"name": "",
					"type": "address"
				},
				{
					"internalType": "uint256",
					"name": "",
					"type": "uint256"
				},
				{
					"internalType": "bytes",
					"name": "",
					"type": "bytes"
				}
			],
			"name": "onERC721Received",
			"outputs": [
				{
					"internalType": "bytes4",
					"name": "",
					"type": "bytes4"
				}
			],
			"stateMutability": "nonpayable",
			"type": "function"
		},
		{
			"inputs": [
				{
					"internalType": "uint256",
					"name": "proposalId",
					"type": "uint256"
				}
			],
			"name": "proposalDeadline",
			"outputs": [
				{
					"internalType": "uint256",
					"name": "",
					"type": "uint256"
				}
			],
			"stateMutability": "view",
			"type": "function"
		},
		{
			"inputs": [
				{
					"internalType": "uint256",
					"name": "proposalId",
					"type": "uint256"
				}
			],
			"name": "proposalEta",
			"outputs": [
				{
					"internalType": "uint256",
					"name": "",
					"type": "uint256"
				}
			],
			"stateMutability": "view",
			"type": "function"
		},
		{
			"inputs": [
				{
					"internalType": "uint256",
					"name": "proposalId",
					"type": "uint256"
				}
			],
			"name": "proposalNeedsQueuing",
			"outputs": [
				{
					"internalType": "bool",
					"name": "",
					"type": "bool"
				}
			],
			"stateMutability": "view",
			"type": "function"
		},
		{
			"inputs": [
				{
					"internalType": "uint256",
					"name": "proposalId",
					"type": "uint256"
				}
			],
			"name": "proposalProposer",
			"outputs": [
				{
					"internalType": "address",
					"name": "",
					"type": "address"
				}
			],
			"stateMutability": "view",
			"type": "function"
		},
		{
			"inputs": [
				{
					"internalType": "uint256",
					"name": "proposalId",
					"type": "uint256"
				}
			],
			"name": "proposalSnapshot",
			"outputs": [
				{
					"internalType": "uint256",
					"name": "",
					"type": "uint256"
				}
			],
			"stateMutability": "view",
			"type": "function"
		},
		{
			"inputs": [],
			"name": "proposalThreshold",
			"outputs": [
				{
					"internalType": "uint256",
					"name": "",
					"type": "uint256"
				}
			],
			"stateMutability": "view",
			"type": "function"
		},
		{
			"inputs": [
				{
					"internalType": "uint256",
					"name": "proposalId",
					"type": "uint256"
				}
			],
			"name": "proposalVotes",
			"outputs": [
				{
					"internalType": "uint256",
					"name": "againstVotes",
					"type": "uint256"
				},
				{
					"internalType": "uint256",
					"name": "forVotes",
					"type": "uint256"
				},
				{
					"internalType": "uint256",
					"name": "abstainVotes",
					"type": "uint256"
				}
			],
			"stateMutability": "view",
			"type": "function"
		},
		{
			"inputs": [
				{
					"internalType": "address[]",
					"name": "targets",
					"type": "address[]"
				},
				{
					"internalType": "uint256[]",
					"name": "values",
					"type": "uint256[]"
				},
				{
					"internalType": "bytes[]",
					"name": "calldatas",
					"type": "bytes[]"
				},
				{
					"internalType": "string",
					"name": "description",
					"type": "string"
				}
			],
			"name": "propose",
			"outputs": [
				{
					"internalType": "uint256",
					"name": "",
					"type": "uint256"
				}
			],
			"stateMutability": "nonpayable",
			"type": "function"
		},
		{
			"inputs": [
				{
					"internalType": "address[]",
					"name": "targets",
					"type": "address[]"
				},
				{
					"internalType": "uint256[]",
					"name": "values",
					"type": "uint256[]"
				},
				{
					"internalType": "bytes[]",
					"name": "calldatas",
					"type": "bytes[]"
				},
				{
					"internalType": "bytes32",
					"name": "descriptionHash",
					"type": "bytes32"
				}
			],
			"name": "queue",
			"outputs": [
				{
					"internalType": "uint256",
					"name": "",
					"type": "uint256"
				}
			],
			"stateMutability": "nonpayable",
			"type": "function"
		},
		{
			"inputs": [
				{
					"internalType": "uint256",
					"name": "timepoint",
					"type": "uint256"
				}
			],
			"name": "quorum",
			"outputs": [
				{
					"internalType": "uint256",
					"name": "",
					"type": "uint256"
				}
			],
			"stateMutability": "view",
			"type": "function"
		},
		{
			"inputs": [],
			"name": "quorumDenominator",
			"outputs": [
				{
					"internalType": "uint256",
					"name": "",
					"type": "uint256"
				}
			],
			"stateMutability": "view",
			"type": "function"
		},
		{
			"inputs": [
				{
					"internalType": "uint256",
					"name": "timepoint",
					"type": "uint256"
				}
			],
			"name": "quorumNumerator",
			"outputs": [
				{
					"internalType": "uint256",
					"name": "",
					"type": "uint256"
				}
			],
			"stateMutability": "view",
			"type": "function"
		},
		{
			"inputs": [],
			"name": "quorumNumerator",
			"outputs": [
				{
					"internalType": "uint256",
					"name": "",
					"type": "uint256"
				}
			],
			"stateMutability": "view",
			"type": "function"
		},
		{
			"inputs": [
				{
					"internalType": "address",
					"name": "target",
					"type": "address"
				},
				{
					"internalType": "uint256",
					"name": "value",
					"type": "uint256"
				},
				{
					"internalType": "bytes",
					"name": "data",
					"type": "bytes"
				}
			],
			"name": "relay",
			"outputs": [],
			"stateMutability": "payable",
			"type": "function"
		},
		{
			"inputs": [
				{
					"internalType": "uint256",
					"name": "newProposalThreshold",
					"type": "uint256"
				}
			],
			"name": "setProposalThreshold",
			"outputs": [],
			"stateMutability": "nonpayable",
			"type": "function"
		},
		{
			"inputs": [
				{
					"internalType": "uint48",
					"name": "newVotingDelay",
					"type": "uint48"
				}
			],
			"name": "setVotingDelay",
			"outputs": [],
			"stateMutability": "nonpayable",
			"type": "function"
		},
		{
			"inputs": [
				{
					"internalType": "uint32",
					"name": "newVotingPeriod",
					"type": "uint32"
				}
			],
			"name": "setVotingPeriod",
			"outputs": [],
			"stateMutability": "nonpayable",
			"type": "function"
		},
		{
			"inputs": [
				{
					"internalType": "uint256",
					"name": "proposalId",
					"type": "uint256"
				}
			],
			"name": "state",
			"outputs": [
				{
					"internalType": "enum IGovernor.ProposalState",
					"name": "",
					"type": "uint8"
				}
			],
			"stateMutability": "view",
			"type": "function"
		},
		{
			"inputs": [
				{
					"internalType": "bytes4",
					"name": "interfaceId",
					"type": "bytes4"
				}
			],
			"name": "supportsInterface",
			"outputs": [
				{
					"internalType": "bool",
					"name": "",
					"type": "bool"
				}
			],
			"stateMutability": "view",
			"type": "function"
		},
		{
			"inputs": [],
			"name": "timelock",
			"outputs": [
				{
					"internalType": "address",
					"name": "",
					"type": "address"
				}
			],
			"stateMutability": "view",
			"type": "function"
		},
		{
			"inputs": [],
			"name": "token",
			"outputs": [
				{
					"internalType": "contract IERC5805",
					"name": "",
					"type": "address"
				}
			],
			"stateMutability": "view",
			"type": "function"
		},
		{
			"inputs": [
				{
					"internalType": "uint256",
					"name": "newQuorumNumerator",
					"type": "uint256"
				}
			],
			"name": "updateQuorumNumerator",
			"outputs": [],
			"stateMutability": "nonpayable",
			"type": "function"
		},
		{
			"inputs": [
				{
					"internalType": "contract TimelockController",
					"name": "newTimelock",
					"type": "address"
				}
			],
			"name": "updateTimelock",
			"outputs": [],
			"stateMutability": "nonpayable",
			"type": "function"
		},
		{
			"inputs": [],
			"name": "version",
			"outputs": [
				{
					"internalType": "string",
					"name": "",
					"type": "string"
				}
			],
			"stateMutability": "view",
			"type": "function"
		},
		{
			"inputs": [],
			"name": "votingDelay",
			"outputs": [
				{
					"internalType": "uint256",
					"name": "",
					"type": "uint256"
				}
			],
			"stateMutability": "view",
			"type": "function"
		},
		{
			"inputs": [],
			"name": "votingPeriod",
			"outputs": [
				{
					"internalType": "uint256",
					"name": "",
					"type": "uint256"
				}
			],
			"stateMutability": "view",
			"type": "function"
		},
		{
			"stateMutability": "payable",
			"type": "receive"
		}
	]
}